S00E000067682D696F742E73726563CE
S113000089C20000A8C20000A6C20000A4C2000069
S1130010A2C20000A0C200009EC200009CC2000058
S11300209AC2000098C2000096C2000094C2000068
S11300300C94FB0990C200008EC200008CC2000028
S11300408AC2000088C2000086C2000084C2000088
S113005082C200000C940F1A7EC200007CC2000011
S11300600C9409200C94EA1B0C943C1C74C20000F0
S113007072C2000070C200006EC200006CC20000B8
S11300806AC2000068C2000066C2000064C20000C8
S11300900C94801C0C94D21C5EC200000C9485212C
S11300A05AC2000058C2000056C2000054C20000E8
S11300B052C2000050C200004EC200004CC20000F8
S11300C04AC2000048C2000046C200000C94161D3B
S11300D00C94681D40C200000C94AC1D0C94FE1DD1
S11300E03AC200000002000200023A024202580230
S11300F0000200023A024202A72117221722172205
S11301001722172217221722A72117221722172294
S11301101722172217221722A92117221722172282
S11301201722172217221722172217221722172203
S11301301722172217221722A92117221722172262
S113014017221722172217221722172217221722E3
S113015017221722172217221322172217221722D7
S11301601722172217221722DE21172217221722FD
S113017017221722172217221722172217221722B3
S11301801722172217221722D221172217221722E9
S11301901722172217221722F62107634236B79B2C
S11301A0D8A71A39685618AEBAAB558C1D3CB7CCD3
S11301B05763BD6DEDFD753EF6177231BF0000004B
S11301C0803F08000000BE922449123EABAAAA2A2E
S11301D0BECDCCCC4C3E00000080BEABAAAAAA3E49
S11301E000000000BF000000803F00000000000885
S11301F04178D3BB4387D1133D190E3CC3BD428222
S1130200AD2B3E68EC8276BED98FE1A93E4C80EFDF
S1130210FFBE01C4FF7F3F000000000003E51DE0B6
S11302200F2EF3E8EF2EFDE0FF2EF02D8091520DFE
S1130230882311F10FB6F8940F92D8011796ED9117
S1130240FC911897C085D185CE01029695D78091EF
S1130250460D81508093460D8091520D81508093BC
S1130260520D0F900FBE8B8D9C8DFBD6CE01F9D60F
S11302708091520D8111DECFF7018081823008F028
S1130280F5D70E94C116D2CFCF93DF93CDB7DEB797
S113029060970FB6F894DEBF0FBECDBFCE010196B6
S11302A09A878987812C912CA12CB12C69847A841A
S11302B0E091FD0DF091FE0D8081882309F410C1B9
S11302C00780F085E02D20803180428053800E9499
S11302D0A70FCE0101960E942B166B877C878D8712
S11302E09E878981811165C08B859C85AD85BE857E
S11302F082159305A405B50508F444C00E94EB10CB
S1130300E091FD0DF091FE0D0780F085E02DA085B4
S1130310B185B88BAF87CD0102962ED7EF85F889CA
S1130320868982FF21C04685578560897189420D7F
S1130330531D641D751D720161010B851C852D857E
S11303403E85CF010E943B15882399F0C82CD92CF7
S1130350EA2CFB2C00E010E0A201910160E08F8503
S113036098890E94CD1505C08E7FAF85B8895696B1
S11303708C93AF85B8895496ED91FC915597CD0136
S113038019959FC020E0B201A1018B859C85AD85A4
S1130390BE85481B590B6A0B7B0B8091F90D90911C
S11303A0FA0D0E94630D0E94EB1081118AC05ED782
S11303B088C00E94EB1085C0898188230CF481C019
S11303C04E805F80D2011C968D919C911D97892B44
S11303D019F0C2010296D0D6CE0108960E942B16BF
S11303E08B019C01E9810E2E000CFF0BEA30F10514
S11303F008F067C08827EE58FF4F8F4F0C9456249F
S1130400F20186898160868BCA80DB80EC80FD8066
S113041046855785608971894C0D5D1D6E1D7F1D54
S1130420C2010E943B15882309F44BC0D2015496A3
S1130430ED91FC915597C2011995F201868982FFCD
S113044040C04A815B816C817D8186859785A089C6
S1130450B1899A01AB01280F391F4A1F5B1FC82CB1
S1130460D92CEA2CFB2C00E010E060E0C2010E94D1
S1130470CD1527C0D20156968C9156978E7F5696ED
S11304808C931FC0F20186898160868B4A815B81CF
S11304906C817D8146875787608B718B400F511F1C
S11304A0621F731F68017901C2010E943B1509C0D4
S11304B0F201868981FD03C0C201D3D502C08E7FBB
S11304C0868B282D392D4A2D5B2D662D772D809115
S11304D0F90D9091FA0D0E94060C81116DCFE8CEB2
S11304E00E94A70FCE0101960E942B166B877C8772
S11304F08D879E87898181115CCFE091FB0DF091FE
S1130500FC0D808121E0811120E0282C392C4A2C1B
S11305105B2C39CF11241FBECFEFD1E2DEBFCDBF9C
S113052000E00CBF13E0A0E0B2E0E8E9F1E500E090
S11305300BBF02C007900D92AA35B107D9F72EE080
S1130540AAE5B3E001C01D92A038B207E1F70E940A
S113055004170C94CA2854CD0F2EF4E68F2EF02DD8
S11305600F2EF8EECF2EF3E0DF2EE12CF12CF02D40
S11305706894992496F86894AA24A5F86894BB24EE
S1130580B4F882B1805882B939D4EC0149D48C01D1
S1130590CE014AD4809EB001819E700D1124860F35
S11305A0971FBC01990F880B990B0E940C1820E02F
S11305B030E048EC52E40E94711742E00E94211995
S11305C020E030E04AE754E46091680E7091690ECF
S11305D080916A0E90916B0E0E9498180E94DE170B
S11305E09B01AC01AEE3B0E00E945E24A70196013A
S11305F00E943424CA01B9010E94D11182B18058E9
S113060082B982B1892582B94FD3E7D242E00E94F0
S1130610211920E030E04AE754E46091680E7091BB
S1130620690E80916A0E90916B0E0E9498180E9438
S1130630DE179B01AC01AEE3B0E00E945E24A7018B
S113064096010E943424CA01B9010E94D11182B1D9
S1130650892582B982B18A2582B92BD319D242E085
S11306600E94211920E030E04AE754E46091680ECA
S11306707091690E80916A0E90916B0E0E94981889
S11306800E94DE179B01AC01AEE3B0E00E945E2441
S1130690A70196010E943424CA01B9010E94D11114
S11306A082B18A2582B982B18B2582B907D398D1C8
S11306B042E00E94211920E030E04AE754E46091CE
S11306C0680E7091690E80916A0E90916B0E0E9473
S11306D098180E94DE179B01AC01AEE3B0E00E94C3
S11306E05E24A70196010E943424CA01B9010E9424
S11306F0D11182B18B2582B944CFEF92FF920F932F
S11307006093680E7093690E80936A0E90936B0EDB
S113071080E090E00E94D2190E94C71982E292E020
S11307200E94ED25E12CF12C01E021E030E040ECC9
S113073050E06FE372E08CEA92E00E94440E0F9165
S1130740FF90EF900895CF93DF93CDB7DEB72A974C
S11307500FB6F894DEBF0FBECDBF11E00F2EF0E14F
S11307604F2EF7E25F2EF02D0F2EFFE96F2EF2E0F1
S11307707F2EF02D0E94C31A882341F086E592E073
S11307809F938F930E94DA250F900F9080916C0EA7
S113079090916D0EFDD120E030E04AEF53E40E94C9
S11307A098180E94DE179B01AC01AEE3B0E00E94F2
S11307B05E2428EE33E040E050E00E943424CA0175
S11307C0B9010E94D11182B1812782B90E94D71A3E
S11307D0882341F08AE792E09F938F930E94DA2561
S11307E00F900F9080916C0E90916D0ED1D120E0FE
S11307F030E04AEF53E40E9498180E94DE179B01F0
S1130800AC01AEE3B0E00E945E2428EE33E040E0A9
S113081050E00E943424CA01B9010E94D11182B16E
S1130820812782B90E94E71AAB01BC0140935A03A5
S113083050935B0360935C0370935D0380916C0E33
S113084090916D0E7DD180916C0E90916D0EC5D1FD
S11308500E94D9176B017C0180916C0E90916D0EF2
S1130860BCD14B015C0180916C0E90916D0EDAD17C
S113087099878887DDD289839A8388859985D4D29C
S11308808B839C8388859985CBD28D839E83888531
S11308909985C2D28F83292E88859985B9D2082F4C
S11308A0392E88859985B0D288879A8720E030E4EC
S11308B04CE156E4C501B4010E9498184B015C0157
S11308C04C9CB0014D9C700D5C9C700D1124072E46
S11308D0000C880B990B0E940C189B01AC01C501FC
S11308E0B4010E940C170E94D9177F936F93DF9273
S11308F0CF928A818F9399819F932C812F938B819F
S11309008F939E819F932D812F932F928F818F930D
S11309103F920F939A859F9328852F937F926F928E
S11309200E94DA250FB6F894DEBF0FBECDBF22CFEA
S1130930EF92FF920F93CF93DF93EC010E94AC1AD6
S1130940811115C0D0936D0EC0936C0E84EC92E0AF
S11309500E94ED25E12CF12C01E021E030E040EC97
S113096050E062EE72E083EA93E00E94440EDF916D
S1130970CF910F91FF90EF900895CF92DF92EF9275
S1130980FF920F93CF93DF936B017C0161E070E0E2
S11309908CE090E00E948B24EC01892BC1F0C8828A
S11309A0D982EA82FB821C821D821E821F82E7D1C9
S11309B09B878A8743E060E081E031D69987888706
S11309C000E020E030E0A90160E070E049D6CE010B
S11309D0DF91CF910F91FF90EF90DF90CF9008952A
S11309E0CF92DF92EF92FF920F93CF93DF93EC01BC
S11309F04FEF5FEFBA01888599859DD7CC80DD8064
S1130A00EE80FF8000E020E030E0A90160E070E0CB
S1130A108885998525D6C701B601DF91CF910F91BD
S1130A20FF90EF90DF90CF900895CF92DF92EF92F6
S1130A30FF920F93CF93DF936B017C0161E070E031
S1130A408CE090E00E948B24EC01892BC1F0C882D9
S1130A50D982EA82FB821C821D821E821F828FD170
S1130A609B878A8743E060E081E0D9D599878887AE
S1130A7000E020E030E0A90160E070E0F1D5CE01B3
S1130A80DF91CF910F91FF90EF90DF90CF90089579
S1130A90CF92DF92EF92FF920F93CF93DF93EC010B
S1130AA04FEF5FEFBA018885998545D7CC80DD800B
S1130AB0EE80FF8000E020E030E0A90160E070E01B
S1130AC088859985CDD5C701B601DF91CF910F9166
S1130AD0FF90EF90DF90CF900895CF92DF92EF9246
S1130AE0FF920F93CF93DF936B017C0161E070E081
S1130AF08CE090E00E948B24EC01892BC1F0C88229
S1130B00D982EA82FB821C821D821E821F8237D117
S1130B109B878A8743E060E081E081D59987888755
S1130B2000E020E030E0A90160E070E099D5CE015A
S1130B30DF91CF910F91FF90EF90DF90CF900895C8
S1130B40CF92DF92EF92FF920F93CF93DF93EC015A
S1130B506A017B014FEF5FEFBA0188859985EBD677
S1130B60CC82DD82EE82FF828A859B8520D100E0E3
S1130B7020E030E0A90160E070E08885998570D5B7
S1130B80DF91CF910F91FF90EF90DF90CF90089578
S1130B90CF92DF92EF92FF920F93CF93DF93EC010A
S1130BA04FEF5FEFBA0188859985C5D6C880D98093
S1130BB0EA80FB8000E020E030E0A90160E070E022
S1130BC0888599854DD5C701B601DF91CF910F91E5
S1130BD0FF90EF90DF90CF900895CF92DF92EF9245
S1130BE0FF920F93CF93DF93EC014FEF5FEFBA01C6
S1130BF088859985A0D6CC80DD80EE80FF8000E0DA
S1130C0020E030E0A90160E070E08885998528D56E
S1130C10C701B601DF91CF910F91FF90EF90DF9064
S1130C20CF900895EF92FF920F93CF93DF93EC014F
S1130C304FEF5FEFBA01888599857DD6EA84FB84FE
S1130C4000E020E030E0A90160E070E0888599854B
S1130C5007D5C701DF91CF910F91FF90EF900895D1
S1130C6060E070E080E09FE348DD60E070E080E8F1
S1130C709FE333DF9093710E8093700E59DE60E032
S1130C8070E080E89FE3D1DE9093730E8093720E40
S1130C9060E070E080E89FE370DE90936F0E8093D5
S1130CA06E0E0C94710F08958091700E9091710ED8
S1130CB008958091720E9091730E089580916E0E36
S1130CC090916F0E08956EE370E080E090E00E94D2
S1130CD0D111E091740EF091750E82859385019681
S1130CE093878287CC977CF3808591850196918741
S1130CF0808713861286CC9734F386819781019678
S1130D0097838683118610864897ECF217821682A1
S1130D10DACFEF92FF920F938091740E9091750E3B
S1130D20892B49F561E070E08CE090E00E948B240F
S1130D30FC019093750E8093740E892BE1F011825F
S1130D4010821382128215821482178216821186EF
S1130D5010861386128688EF92E00E94ED25E12C1E
S1130D60F12C01E021E030E040EC50E062E173E07E
S1130D7083E696E089D70F91FF90EF900895C9DF3D
S1130D8061E070E08CE090E00E948B24FC01892BF0
S1130D9061F01182108213821282158214821782EA
S1130DA016821186108613861286CF010895CF937A
S1130DB0DF93EC01AEDFE091740EF091750E80814B
S1130DC0918199838883E091740EF091750E8281EC
S1130DD093819B838A83848195819D838C8386817F
S1130DE097819F838E838085918599878887828563
S1130DF093859B878A87DF91CF9108958ADF8091BD
S1130E00740E9091750E0895FC018081918108956E
S1130E10FC01828193810895FC0184819581089568
S1130E20FC01868197810895FC0180859185089550
S1130E30FC01828593850895CF93DF93DC01EAE674
S1130E40F3E001C0F901208131812A173B07D0F377
S1130E5082819381AF01480F591FA417B50749F444
S1130E6012964D915C911397840F951F93838283FF
S1130E70DF0112968D919C911397ED01C80FD91F34
S1130E802C173D07D9F42091680330916903C217E8
S1130E90D30781F02A813B81820F931F13969C9381
S1130EA08E931297C081D1818881998111969C93E8
S1130EB08E9307C01196DC93CE9303C011963C9396
S1130EC02E93AE17BF0711F0B183A083DF91CF91AA
S1130ED00895CF92DF92EF92FF920F931F93CF93D7
S1130EE0DF93EC010E94A70F80916803909169033E
S1130EF0892B41F5EAE6F3E0AEE6B3E0B183A083E3
S1130F0013821282EEE2FDE0F0936903E09368033A
S1130F10138212821182108280EC99E013969C93C2
S1130F208E931297ED93FC939093650380936403DF
S1130F30909367038093660380E090E890935F0347
S1130F4080935E03E0905E03F0905F03C7018C23FF
S1130F509D23892B09F075C0209709F475C09E0163
S1130F602C5F3F4FC217D30708F06EC0211531051F
S1130F7009F467C000916603109167030217130711
S1130F8008F45FC0C0916A03D0916B03EAE6F3E012
S1130F9002C0FE01EC018A819B818217930720F431
S1130FA0888199810097A9F78091680390916903DA
S1130FB0C817D90709F445C0C080D18084E0C80EA1
S1130FC0D11C88819981918380834A815B81421BF2
S1130FD0530B4930510548F0CE01820F931FFC0199
S1130FE0538342833B832A8327DF8A819B81081BA7
S1130FF0190B1093670300936603209164033091E7
S113100065030217130720F4109365030093640328
S1131010E82AF92AFB82EA82198218828091620303
S113102090916303019690936303809362030E94FB
S1131030EB10C114D10459F40E94C716C12CD12C51
S113104006C00E94EB10F8CF0E94EB10F5CFC6014A
S1131050DF91CF911F910F91FF90EF90DF90CF9090
S11310600895CF93DF93009791F1FC013497228187
S1131070338140915E0350915F03B901642375236A
S1131080672B29F160817181672B09F5EF01409588
S11310905095242335233383228359D72091660323
S11310A0309167038A819B81820F931F909367031A
S11310B080936603CE01C0DE80916003909161034A
S11310C0019690936103809360030E94EB10DF917B
S11310D0CF910895FC010396928381834FEF5FEFD4
S11310E0BA01438354836583768390878783928789
S11310F0818710820895FC011386128608950F9348
S11311001F93CF93DF93EB01088119812A813B81DF
S11311100F3F4FEF14072407340721F4FC01A18586
S1131120B28511C0DC01139601C0DF011496ED9164
S1131130FC911597408151816281738104171507D1
S11311402607370790F71496ED91FC911597FD83C8
S1131150EC83D783C683BF83AE831596DC93CE938B
S113116014979B878A87FC0120812F5F2083DF915E
S1131170CF911F910F910895CF93DF93FC01A28526
S1131180B385C481D581868197819F838E83C681EF
S1131190D781848195819D838C8311968D919C91B7
S11311A01297E817F90731F48681978112969C9378
S11311B08E931197138612868C9181508C938C9107
S11311C0DF91CF910895FC0160833197708331974B
S11311D0108231971082319720E820833197108252
S11311E031971082319710827797408331975083DB
S11311F086970895A89590EC88E10FB6F894A89581
S1131200809360000FBE90936000A091F10DB091A7
S1131210F20DCD91CDBFDD91DEBFFF91EF91DF9156
S1131220CF91BF91AF919F918F917F916F915F917A
S11312304F913F912F911F910F91FF90EF90DF906D
S1131240CF90BF90AF909F908F907F906F905F9062
S11312504F903F902F901F900F900CBE0F900BBE9D
S11312600F900FBE0F90089581E008950F920FB66E
S1131270F8940F920BB60F920CB60F921F92112492
S11312802F923F924F925F926F927F928F929F9292
S1131290AF92BF92CF92DF92EF92FF920F931F9380
S11312A02F933F934F935F936F937F938F939F936A
S11312B0AF93BF93CF93DF93EF93FF93A091F10D7F
S11312C0B091F20D0DB60D920EB60D920E94EA1178
S11312D0A091F10DB091F20DCD91CDBFDD91DEBFA6
S11312E0FF91EF91DF91CF91BF91AF919F918F913A
S11312F07F916F915F914F913F912F911F910F912A
S1131300FF90EF90DF90CF90BF90AF909F908F9021
S11313107F906F905F904F903F902F901F900F9011
S11313200CBE0F900BBE0F900FBE0F9008950F923E
S11313300FB6F8940F920BB60F920CB60F921F9241
S113134011242F923F924F925F926F927F928F92CD
S11313509F92AF92BF92CF92DF92EF92FF920F9340
S11313601F932F933F934F935F936F937F938F9329
S11313709F93AF93BF93CF93DF93EF93FF93A0918A
S1131380F10DB091F20D0DB60D920EB60D9213BE85
S1131390F2D581110E94EA11A091F10DB091F20DE4
S11313A0CD91CDBFDD91DEBFFF91EF91DF91CF9164
S11313B0BF91AF919F918F917F916F915F914F9169
S11313C03F912F911F910F91FF90EF90DF90CF905D
S11313D0BF90AF909F908F907F906F905F904F9051
S11313E03F902F901F900F900CBE0F900BBE0F904C
S11313F00FBE0F9008959BDF18950FB6F8940F92C7
S1131400FC01968D0F900FBE81E0911180E008954C
S11314100F931F93CF93DF93EC01042F1E8D48A1EC
S113142041110CC088819981892B09F042C08C81BB
S11314309D810E9467141D821C8242C0011117C045
S113144050E08A819B810E94CA2528A18A819B81C0
S1131450820F911D9B838A832C813D818217930780
S113146050F1888199819B838A8380E029C050E070
S11314708E819F810E94CA2588A190E091958195D3
S113148091092E813F81280F391F3F832E83488184
S113149059812417350730F42C813D81820F931F25
S11314A09F838E83023049F4112349F0115080E068
S11314B007C080E005C080E003C080E001C080E098
S11314C01F5F1E8FDF91CF911F910F910895FC0133
S11314D040A14423A9F050E026813781240F351F11
S11314E037832683848195812817390720F08081EA
S11314F0918197838683CB01668177810C94CA2579
S11315000895EF92FF920F931F93CF938C010FB620
S1131510F8940F92FC01C2A11C16ACF483898111CA
S113152006C011C0F8018389811105C00CC078017F
S1131530F3E1EF0EF11CC7010E94B41281110E9465
S1131540CE13C15079F78FEFF80182A30F900FBE2D
S11315500FB6F8940F92C1A11C16A4F480858111D2
S113156006C010C0F8018085811105C00BC0780148
S1131570F8E0EF0EF11CC701F7D781110E94CE13DA
S1131580C15081F78FEFF80181A30F900FBECF9167
S11315901F910F91FF90EF900895CF93DF93EC018B
S11315A00FB6F8940F92E881F9818F8D28A190E00D
S11315B030E0829FA001839F500D929F500D112413
S11315C04E0F5F1F5D834C831E8EFB83EA8301975E
S11315D0829FA001839F500D929F500D1124CF0133
S11315E0840F951F9F838E838FEF89A38AA3611134
S11315F00AC08885882369F0CE010896B5D7882368
S113160041F034DE06C0CE01089664DDCE01439677
S113161061DD0F900FBE81E0DF91CF9108950F93AC
S11316201F93CF93DF93082F162F869FC001112499
S113163083964FDCEC01009769F0111103C0998384
S1131640888303C08396998388830F8F18A361E0EE
S1131650CE01A3DFCE01DF91CF911F910F910895A9
S11316609F92AF92BF92CF92DF92EF92FF920F932D
S11316701F93CF93DF93CDB7DEB729970FB6F894B6
S1131680DEBF0FBECDBF7C015B012E833F83488745
S1131690598710E0992493946C0188E0C80ED11CFA
S11316A00FB6F8940F92F701968D878D981710F066
S11316B00230A9F4402FB501C701AADEF7019389CE
S11316C0992339F0C70143964FD7882321F0CEDD03
S11316D002C08111CBDD0F900FBE81E04BC08E8123
S11316E09F81A885B985892B8A2B8B2B21F40F9098
S11316F00FBE80E03FC0111104C0CE010196E4D7B3
S1131700192D0F900FBE23D40FB6F8940F92F70142
S113171081A18F3F09F411A2F70182A18F3F09F43F
S113172012A20F900FBEBE016A5F7F4FCE010196D9
S1131730DCD781111BC00FB6F8940F92F701968D78
S1131740878D0F900FBE98130DC04E815F81688501
S11317507985C601B0D6C701D4DE3DD58111A0CFAD
S113176085DD9ECFC701CDDE36D59ACFC701C9DE50
S113177032D580E029960FB6F894DEBF0FBECDBFF8
S1131780DF91CF911F910F91FF90EF90DF90CF9059
S1131790BF90AF909F900895EF92FF920F931F9385
S11317A0CF93DF938A01FC01568D378D531710F0C8
S11317B02230F1F4422F7801EC011AA18E8DCE0172
S11317C027DE1F3F79F48B898823A1F0CE0143964D
S11317D0CBD6882389F0E114F10481F081E0F7018C
S11317E080830DC0FF24F394F10EFAA281E007C0B8
S11317F080E005C081E003C081E001C081E0DF91A9
S1131800CF911F910F91FF90EF9008959F92AF9207
S1131810BF92CF92DF92EF92FF920F931F93CF93D9
S1131820DF93CDB7DEB729970FB6F894DEBF0FBEAE
S1131830CDBF8C015B012E833F8348875987E12C00
S1131840992493946C0183E1C80ED11C0FB6F894CB
S11318500F92F801F68CFF2091F0B501C80137DE34
S1131860FA94F801F68E8085882329F0C801089639
S11318707BD68111FBDC0F900FBE81E04AC08E81C4
S11318809F81A885B985892B8A2B8B2B21F40F90F6
S11318900FBE80E03EC0E11004C0CE01019614D713
S11318A0E92C0F900FBE53D30FB6F8940F92F801A2
S11318B081A18F3F09F411A2F80182A18F3F09F49D
S11318C012A20F900FBEBE016A5F7F4FCE01019638
S11318D00CD7811115C0C80190DD882369F04E81B1
S11318E05F8168857985C601E6D5C8010ADE73D4AF
S11318F08111ACCFBBDCAACFC80103DE6CD4A6CF68
S1131900C801FFDD68D4C80178DD882309F49ECFBF
S113191080E029960FB6F894DEBF0FBECDBFDF91ED
S1131920CF911F910F91FF90EF90DF90CF90BF90D8
S1131930AF909F900895BF92CF92DF92EF92FF9263
S11319400F931F93CF93DF93CDB7DEB729970FB6CD
S1131950F894DEBF0FBECDBF8C014E835F836887D2
S11319607987B12CD12CCC24C3947C0183E1E80E7B
S1131970F11C0FB6F8940F92D8015E968C915E9785
S11319808823D9F081505E968C935E978D919C91BB
S1131990892B29F40E942915F80195838483D801A1
S11319A018968C91882329F0C8010896DDD58111F9
S11319B05DDC0F900FBE81E076C08E819F81A8858B
S11319C0B985892B8A2B8B2B21F40F900FBE80E0D5
S11319D06AC0D11004C0CE01019676D6DC2C0F90DB
S11319E00FBEB5D20FB6F8940F92F80181A18F3FC4
S11319F009F411A2D80192968C9192978F3F11F419
S1131A0092961C920F900FBEBE016A5F7F4FCE016B
S1131A1001966BD6811123C0C801EFDC8823D9F06D
S1131A20F80180819181892B49F40FB6F8940F92C3
S1131A3084819581C5D6B82E0F900FBE4E815F81EB
S1131A4068857985C70137D5C8015BDDC4D38111A9
S1131A5090CF0CDC8ECFC80154DDBDD38ACFC80132
S1131A6050DDB9D3C801C9DC882309F482CFBB2077
S1131A70C9F00FB6F8940F92F8018389882339F0DE
S1131A80028CF38DE02D80816AE0681B01C060E068
S1131A90D80114968D919C91159774D70F900FBE11
S1131AA080E001C080E029960FB6F894DEBF0FBE37
S1131AB0CDBFDF91CF911F910F91FF90EF90DF90F9
S1131AC0CF90BF900895CF93DF93EC010FB6F894B5
S1131AD00F9289A18F3F09F419A28AA18F3F09F4BB
S1131AE01AA20F900FBE8E8D811103C0CE014396B2
S1131AF0F9D4CE0106DDDF91CF910895E0916B0D0D
S1131B00F0916C0D808181110CC08FEF9FEFDC018F
S1131B108093350D9093360DA093370DB093380D07
S1131B200895E0916B0DF0916C0D0780F085E02D28
S1131B3080819181A281B3818093350D9093360D7C
S1131B40A093370DB093380D08958F929F92AF9262
S1131B50BF92CF92DF92EF92FF92CF93DF936B010C
S1131B607C01C42F8090420D9090430DA090440DB1
S1131B70B090450D8091F10D9091F20D0296FCDA32
S1131B808FEFC816D806E806F806B1F5CC23A1F104
S1131B90E7E4FDE0A181B281C091F10DD091F20D95
S1131BA0BF83AE83C091F10DD091F20D16968D9145
S1131BB09C911797998788871696CD91DC911797F2
S1131BC08091F10D9091F20D02969D838C8380910A
S1131BD0F10D9091F20D029617969C938E931697A1
S1131BE0A091F10DB091F20D1D96FC93EE931C970C
S1131BF080818F5F80833DC0C80CD91CEA1CFB1C0C
S1131C00E091F10DF091F20DC282D382E482F5826B
S1131C10C814D904EA04FB0460F46091F10D7091D6
S1131C20F20D8091690D90916A0D6E5F7F4F67DAB6
S1131C3020C06091F10D7091F20D80916B0D909127
S1131C406C0D6E5F7F4F5BDA8091350D9091360D90
S1131C50A091370DB091380DC816D906EA06FB06D7
S1131C6040F4C092350DD092360DE092370DF092CB
S1131C70380DDF91CF91FF90EF90DF90CF90BF9020
S1131C80AF909F908F9008954F925F926F927F9242
S1131C908F929F92AF92BF92CF92DF92EF92FF9278
S1131CA00F931F93CF93DF934C016B015A012901CA
S1131CB0CA010FD93C01892B09F401C184E390E0E6
S1131CC008D9EC01892B99F07C8E6B8EA50165EA0D
S1131CD070E0C3010E94D32581E0A81AB1088B8D5E
S1131CE09C8DA80EB91EC114D10421F41FC0C301D8
S1131CF0B8D9E5C0D6018C918D8F8C918823A1F041
S1131D00AE01425E5F4FF6013196B0E1CB0ED11CBD
S1131D10CF012191DA012D93AD01DC018C9188234F
S1131D2019F0CE16DF06A1F71CA601C01D8E0A30DD
S1131D3008F009E00A8F0DA71EA66E01B2E0CB0ED3
S1131D40D11CC601D8D9CE010E96D5D9DB87CA8756
S1131D508AE090E0A0E0B0E0801B9109A109B109FC
S1131D608E879F87A88BB98BDF8BCE8B84E0FE0197
S1131D70BF96DF011D928A95E9F71BAAA201B4015F
S1131D80C50121DA99838883E114F10419F0F7017C
S1131D90D183C0830FB6F8940F928091460D8F5F64
S1131DA08093460D8091F10D9091F20D892BA1F550
S1131DB0D093F20DC093F10D8091460D813009F05E
S1131DC03BC003E81DE00F2EF1EFEF2EFDE0FF2EE8
S1131DD0F02DC8017FD9055F1F4F0E151F05C9F7E8
S1131DE088E79DE077D98DE69DE074D98EE59DE086
S1131DF071D983E59DE06ED987E49DE06BD988E7CE
S1131E009DE090936C0D80936B0D8DE69DE0909317
S1131E106A0D8093690D10C08091400D81110CC032
S1131E20E091F10DF091F20D928D8A8D891720F0D9
S1131E30D093F20DC093F10D8091390D8F5F809393
S1131E40390DEA8D8091410D8E1710F4E093410D08
S1131E508BE08E9FF0011124ED57F24F0180F28147
S1131E60E02DFF83EE832681378139872887A68179
S1131E70B7811596DC92CE921497D782C682EA8DEA
S1131E808E9FF0011124ED57F24FFD87EC8780817E
S1131E908F5F80830F900FBE8091400D882359F08F
S1131EA0E091F10DF091F20D928D8A8D981728F43E
S1131EB0DDD981E005C081E003C081E001C08FEF7E
S1131EC0DF91CF911F910F91FF90EF90DF90CF9012
S1131ED0BF90AF909F908F907F906F905F904F9046
S1131EE00895EF92FF920F930F2EF3E3EF2EFDE090
S1131EF0FF2EF02D00E020E030E040EC50E063E203
S1131F0073E08EE091E0C0DE8130D9F426D68130D2
S1131F10C1F4F8948FEF9FEFDC018093350D90931B
S1131F20360DA093370DB093380D81E08093400DAA
S1131F301092420D1092430D1092440D1092450DD3
S1131F4059D9809106020F91FF90EF9008958091E6
S1131F50320D8F5F8093320D08950FB6F8940F926F
S1131F606091420D7091430D8091440D9091450D07
S1131F700F900FBE0895CF92DF92EF92FF920F93CE
S1131F801F93CF93DF938091320D811107C1C090CD
S1131F90420DD090430DE090440DF090450D8FEF2D
S1131FA0C81AD80AE80AF80AC092420DD092430D22
S1131FB0E092440DF092450DC114D104E104F10402
S1131FC0B1F480916B0D90916C0D2091690D30915D
S1131FD06A0D30936C0D20936B0D90936A0D809372
S1131FE0690D80913A0D8F5F80933A0D87DD809162
S1131FF0350D9091360DA091370DB091380DC8165E
S1132000D906EA06FB0610F480E0B3C080E04BE09A
S113201051E0E0916B0DF0916C0D908191110CC029
S11320204FEF5FEFBA014093350D5093360D609337
S1132030370D7093380D9DC0E0916B0DF0916C0DD0
S11320400780F085E02D0084F185E02D0281138165
S113205024813581C016D106E206F30648F40093C4
S1132060350D1093360D2093370D3093380D81C004
S1132070A485B585C681D781208531853F832E838C
S1132080C085D185268137813D832C839F012E5FB6
S11320903F4F11966D917C9112976217730731F43B
S11320A06085718512967C936E93119715861486BC
S11320B09C9191509C93A08DB18D109709F1C28988
S11320C0D389648975897F836E83C489D58962893C
S11320D073897D836C831196CD91DC911297BF0136
S11320E0625F7F4FC617D70731F4648975891296EA
S11320F07C936E931197118E108E9C9191509C93AA
S1132100A28D9091410D9A1710F4A093410D4A9F0E
S1132110D0011124AD57B24F11960D90BC91A02D52
S1132120B783A68316966D917C9117977187608704
S11321301696CD91DC9117973D832C8317963C938B
S11321402E931697A28D4A9FD0011124AD57B24FFA
S1132150B587A4879C919F5F9C93A091F10DB0914A
S1132160F20D228D5A969C91291708F452CF852F8F
S113217050CFE091F10DF091F20DE28D9BE0E99FDB
S1132180F0011124ED57F24F9081923008F081E074
S113219090913B0D9923B1F081E014C080913C0DE6
S11321A090913D0DA0913E0DB0913F0D0196A11D62
S11321B0B11D80933C0D90933D0DA0933E0DB093C3
S11321C03F0D80E0DF91CF911F910F91FF90EF9031
S11321D0DF90CF900895CF92DF92EF92FF920F930A
S11321E01F93CF93DF930FB6F8940F928091320D23
S11321F081508093320D8091320D8111C4C0809141
S1132200460D81118BC0C2C0D8011796ED91FC9187
S113221018970084F185E02DA08DB18D8289938972
S113222064897589EC017F836E83848995896289C9
S11322307389EC017D836C83CF010E9611966D91A9
S11322407C9112976817790731F4848995891296DD
S11322509C938E931197118E108E8C9181508C9338
S1132260A485B5858681978160857185EC017F831E
S11322706E838085918566817781EC017D836C8393
S1132280CF01029611966D917C9112976817790788
S113229031F46085718512967C936E93119715863F
S11322A014862C9121502C93A28D2091410D2A1734
S11322B010F4A093410D3A9FD0011124AD57B24FB1
S11322C011960D90BC91A02DB783A68316966D919F
S11322D07C9117977187608716966D917C911797FB
S11322E0EB019D838C8317969C938E931697A28DF6
S11322F03A9FD0011124AD57B24FB587A4878C9172
S11323008F5F8C93A091F10DB091F20D928D5A963E
S11323108C91981748F040933B0D06C0E0E0F0E044
S11323200EE51DE03BE041E0D8018C9181116CCFBA
S1132330EF2B09F0E3DBC0903C0DD0903D0DE09015
S11323403E0DF0903F0DC114D104E104F10499F065
S1132350C1E011DE8111C0933B0DB1E0CB1AD1086D
S1132360E108F108B1F710923C0D10923D0D109266
S11323703E0D10923F0D80913B0D882331F00E9459
S1132380360981E003C080E001C080E00F900FBEF9
S1132390DF91CF911F910F91FF90EF90DF90CF903D
S11323A00895CF92DF92EF92FF926B017C01672B2D
S11323B0682B692B41F0CBDD40E0C701B601C5DBDA
S11323C00ADF811102C00E943609FF90EF90DF906E
S11323D0CF9008958091320D882321F081E080937D
S11323E03B0D089510923B0DA091F10DB091F20DAB
S11323F0E091F10DF091F20D2D913C91838D948D2E
S11324008217930758F06091F10D7091F20D80914D
S1132410F10D9091F20D635E7F4FC5D48091410D13
S1132420282F30E09BE0899FF0011124ED57F24FF3
S1132430908191110EC04BE08150282F30E0429FD3
S1132440F001439FF00D1124ED57F24F9081992331
S113245099F39BE0929FA001939F500D1124DA0100
S1132460AD57B24F1196ED91FC9112970480F5810E
S1132470E02D1296FC93EE9311974A57524FE417AE
S1132480F50729F444815581FD01528341839BE082
S1132490929FF001939FF00D1124ED57F24F0180AC
S11324A0F281E02D208531853093F20D2093F10DDA
S11324B08093410D0895CF92DF92EF92FF926A01CB
S11324C07B016091F10D7091F20D625F7F4F0E946C
S11324D07F0841E0C701B60138DBFF90EF90DF9041
S11324E0CF900895CF93DF93FC01CB01BA01A18172
S11324F0B281C091F10DD091F20DBB8BAA8BC0912A
S1132500F10DD091F20D16964D915C9117975D8B5C
S11325104C8B1696CD91DC9117974091F10D50910B
S1132520F20D425F5F4F5D834C834091F10D5091FA
S1132530F20D425F5F4F17965C934E931697A091EE
S1132540F10DB091F20D5996FC93EE9358973081AA
S11325503F5F3083222319F06FEF7FEFCB01422FCF
S1132560F4DADF91CF910895CF93DF93DC011796CE
S1132570ED91FC9118970084F185E02DA08DB18D2B
S1132580C289D389848995899F838E83C489D58997
S1132590828993899D838C839F01225F3F4F11968B
S11325A08D919C9112978217930731F484899589B0
S11325B012969C938E931197118E108E8C9181504C
S11325C08C938091320D811152C0A485B585C6814A
S11325D0D781808591859F838E83C085D1858681AF
S11325E097819D838C839F012E5F3F4F11968D9120
S11325F09C9112978217930731F4808591851296E6
S11326009C938E931197158614868C9181508C938C
S1132610A28D8091410D8A1710F4A093410D8BE097
S11326208A9FD0011124AD57B24F11960D90BC91E1
S1132630A02DB783A68316964D915C911797518769
S113264040871696CD91DC9117973D832C8317967E
S11326503C932E931697A28D8A9FD0011124AD57D7
S1132660B24FB587A4878C918F5F8C931CC04EE5C5
S11326705DE0DA011196CD91DC911297D38BC28B78
S11326808E819F81958B848B8E819F81DC01159631
S11326903C932E9314973F832E83518F408FDA01FE
S11326A08C918F5F8C93A091F10DB091F20D928D6E
S11326B05A968C91891720F481E080933B0D01C0D8
S11326C080E0DF91CF91089520913A0DFC012083A1
S11326D04091420D5091430D6091440D7091450D10
S11326E041835283638374830895CF92DF92EF9280
S11326F0FF920F931F93CF93DF93FB010FB6F894D0
S11327000F924091420D5091430D6091440D709190
S1132710450D00811181228133810F3FAFEF1A07EC
S11327202A073A0779F1EC01C980DA80EB80FC8052
S1132730A0913A0DB881BA1759F04C155D056E0594
S11327407F0530F0108211821282138281E01BC057
S11327504C195D096E097F09401751076207730719
S113276058F4041B150B260B370B008311832283AB
S11327703383AADF80E007C01082118212821382A1
S113278081E001C080E00F900FBEDF91CF911F91D7
S11327900F91FF90EF90DF90CF90089581E08093A8
S11327A03B0D08958091400D882331F08091320DC6
S11327B0882321F080E0089581E0089582E008955F
S11327C00F931F93CF93DF93FC01892B09F479C0F6
S11327D0828DA091F10DB091F20D5A969C918917BA
S11327E008F063C04685578560897189772394F022
S11327F0A091F10DB091F20D5A969C914AE050E0EF
S113280060E070E0491B51096109710946875787E7
S1132810608B718B2BE0829FC00111248D57924FE6
S11328202485358528173907B9F5EF018F010E5F27
S11328301F4FC8010E94BC08E091F10DF091F20D08
S1132840E28DEA8F8091410D8E1710F4E093410DD3
S11328508BE08E9FF0011124ED57F24F0180F2813D
S1132860E02DFF83EE832681378139872887A6816F
S1132870B78115961C930E93149717830683EA8DDC
S11328808E9FF0011124ED57F24FFD87EC87808174
S11328908F5F808381E016C0A091F10DB091F20D9D
S11328A05A968C91828F81E00DC0A091F10DB09168
S11328B0F20D81E025A55A969C91291718F080E025
S11328C001C080E0DF91CF911F910F9108950F9384
S11328D01F93CF93DF93FC01892B09F449C086A58C
S11328E0815086A7228D95A5291709F443C081112B
S11328F043C0EF018F010E5F1F4FC8010E94BC0847
S1132900EDA5EA8F8AE090E0A0E0B0E08E1B91098B
S1132910A109B1098E879F87A88BB98B8091410D3E
S11329208E1710F4E093410D8BE08E9FF00111247B
S1132930ED57F24F0180F281E02DFF83EE83268173
S1132940378139872887A681B78115961C930E9302
S1132950149717830683EA8D8E9FF0011124ED5797
S1132960F24FFD87EC8780818F5F808381E005C013
S113297080E003C080E001C080E0DF91CF911F912F
S11329800F9108950F931F93CF93DF93FC01892B2D
S113299009F45AC085A5861708F4862F928D9817D6
S11329A009F452C026A5213009F04EC0828F468515
S11329B0578560897189772364F04AE050E060E0CC
S11329C070E0481B51096109710946875787608B7C
S11329D0718B2BE0929FC00111248D57924F248557
S11329E035852817390781F5EF018F010E5F1F4FD9
S11329F0C8010E94BC08EA8D8091410D8E1710F425
S1132A00E093410D8BE08E9FF0011124ED57F24FBE
S1132A100180F281E02DFF83EE832681378139879F
S1132A202887A681B78115961C930E931497178354
S1132A300683EA8D8E9FF0011124ED57F24FFD8736
S1132A40EC8780818F5F8083DF91CF911F910F91FD
S1132A5008958091F10D9091F20D892B39F0E09158
S1132A60F10DF091F20D86A58F5F86A78091F10D8F
S1132A709091F20D0895CF92DF92EF92FF920F930F
S1132A801F93FC01428353836483758393878287F6
S1132A900417150726073707C0F00C191D092E095E
S1132AA03F0986859785A089B189081719072A07E0
S1132AB03B0700F5BF016E5F7F4F8091FB0D909146
S1132AC0FC0D0E947F0880E018C00C151D052E0522
S1132AD03F0528F44C155D056E057F0568F4BF01BC
S1132AE06E5F7F4F8091FD0D9091FE0D0E947F08D7
S1132AF080E003C081E001C081E01F910F91FF904D
S1132B00EF90DF90CF9008950FB6F8940F928091D4
S1132B10F90D9091FA0D892BE9F48AE09EE00E9468
S1132B206A088FEF9DE00E946A088AE09EE0909315
S1132B30FE0D8093FD0D8FEF9DE09093FC0D80932F
S1132B40FB0D40E067E08AE00E940F0B9093FA0DC2
S1132B508093F90D0F900FBE0895EF92FF920F939B
S1132B60D3DF8091F90D9091FA0D892B89F00F2E06
S1132B70F7EFEF2EFDE0FF2EF02D03E020E030E034
S1132B8040EC50E068E273E084E491E07DD801C059
S1132B9080E00F91FF90EF9008958F929F92AF92F3
S1132BA0BF92CF92DF92EF92FF920F931F93CF9336
S1132BB0DF93CDB7DEB727970FB6F894DEBF0FBE0D
S1132BC0CDBFE091F90DF091FA0D309781F1698351
S1132BD02A833B834C835D839F838E836630F4F426
S1132BE0E1DD823069F400E0A7019601BE016F5F68
S1132BF07F4F8091F90D9091FA0D0E94300B18C00F
S1132C0000E020E030E0A901BE016F5F7F4F8091BA
S1132C10F90D9091FA0D0E94300B0AC020E0A80132
S1132C20BE016F5F7F4FCF010E94CC0B01C080E0DB
S1132C3027960FB6F894DEBF0FBECDBFDF91CF91BC
S1132C401F910F91FF90EF90DF90CF90BF90AF90C6
S1132C509F908F9008952F923F924F925F926F9220
S1132C607F928F929F92AF92BF92CF92DF92EF9218
S1132C70FF920F931F93CF93DF931C016ED92B0107
S1132C803C018091F30D9091F40DA091F50DB0915C
S1132C90F60D481659066A067B0608F053C03BC079
S1132CA00780F085E02D80809180A280B380C0856C
S1132CB0D1858E010E5F1F4FC8010E94BC08EC89AC
S1132CC0FD89CE0119958E8982FF25C08E859F8549
S1132CD0A889B989880D991DAA1DBB1D8816990656
S1132CE0AA06BB0670F48A839B83AC83BD83DB870F
S1132CF0CA87B8018091FD0D9091FE0D0E947F0856
S1132D000AC0C12CD12C760100E010E0A501940189
S1132D1060E0CE0142DFE091FD0DF091FE0D808177
S1132D208111BECF8091FB0D9091FC0D9093FE0D0F
S1132D308093FD0DF093FC0DE093FB0D81E0F10118
S1132D40808302C0F10110824092F30D5092F40D81
S1132D506092F50D7092F60DC301B201DF91CF912F
S1132D601F910F91FF90EF90DF90CF90BF90AF90A5
S1132D709F908F907F906F905F904F903F902F9097
S1132D8008950895279A2F9A08951F9A0895FADFAF
S1132D902FEF80E792E0215080409040E1F700C09F
S1132DA00000F3DFF5CFEEDF2FEF87EA91E6215045
S1132DB080409040E1F700C00000E7DFF5CF81B12B
S1132DC08FEF81B992B181E0892782B992B182E013
S1132DD0892782B992B184E0892782B992B188E0C7
S1132DE0892782B992B180E1892782B992B180E2C0
S1132DF0892782B992B180E4892782B982B1805847
S1132E0082B980E05DC70895DADF80E393E00E9431
S1132E10ED250E943006FFCF5058BB27AA270ED0BD
S1132E204DC13ED130F043D120F031F49F3F11F435
S1132E301EF433C10EF4E095E7FB29C1E92F4FD10D
S1132E4080F3BA17620773078407950718F071F4C3
S1132E509EF567C10EF4E0950B2EBA2FA02D0B0141
S1132E60B90190010C01CA01A0011124FF27591BCB
S1132E7099F0593F50F4503E68F11A16F040A22FD1
S1132E80232F342F4427585FF3CF46953795279542
S1132E90A795F0405395C9F77EF41F16BA0B620B41
S1132EA0730B840BBAF09150A1F0FF0FBB1F661F88
S1132EB0771F881FC2F70EC0BA0F621F731F841FCB
S1132EC048F4879577956795B795F7959E3F08F0F1
S1132ED0B3CF9395880F08F09927EE0F97958795B0
S1132EE008950CD0EBC0E3D040F0DAD030F021F4F8
S1132EF05F3F19F0CCC0511115C1CFC0F0D098F389
S1132F009923C9F35523B1F3951B550BBB27AA2766
S1132F1062177307840738F09F5F5F4F220F331FD8
S1132F20441FAA1FA9F333D00E2E3AF0E0E830D0A4
S1132F3091505040E695001CCAF729D0FE2F27D0A7
S1132F40660F771F881FBB1F261737074807AB0775
S1132F50B0E809F0BB0B802DBF01FF2793585F4FEA
S1132F602AF09E3F510568F092C0DCC05F3FECF34D
S1132F70983EDCF3869577956795B795F7959F5FAF
S1132F80C9F7880F911D9695879597F90895E1E003
S1132F90660F771F881FBB1F621773078407BA0762
S1132FA020F0621B730B840BBA0BEE1F88F7E095BD
S1132FB0089504D06894B111B5C0089598D088F0EC
S1132FC09F5790F0B92F9927B751A0F0D1F0660F11
S1132FD0771F881F991F1AF0BA95C9F712C0B1302C
S1132FE081F09FD0B1E008959CC0672F782F882787
S1132FF0B85F39F0B93FCCF3869577956795B3956B
S1133000D9F73EF490958095709561957F4F8F4FD9
S11330109F4F0895E89409C097FB3EF490958095DE
S1133020709561957F4F8F4F9F4F9923A9F0F92F8A
S113303096E9BB279395F695879577956795B79508
S1133040F111F8CFFAF4BB0F11F460FF1BC06F5FEE
S11330507F4F8F4F9F4F16C0882311F096E911C000
S1133060772321F09EE8872F762F05C0662371F021
S113307096E8862F70E060E02AF09A95660F771F35
S1133080881FDAF7880F9695879597F9089597F929
S11330909F6780E870E060E008959FEF80EC0895FA
S11330A000240A9416161706180609060895002423
S11330B00A9412161306140605060895092E03949D
S11330C0000C11F4882352F0BB0F40F4BF2B11F411
S11330D060FF04C06F5F7F4F8F4F9F4F089557FD70
S11330E09058440F551F59F05F3F71F04795880F72
S11330F097FB991F61F09F3F79F087950895121609
S113310013061406551FF2CF4695F1DF08C01616B4
S113311017061806991FF1CF869571056105089465
S11331200895E894BB2766277727CB0197F908957C
S11331300BD0C4CFB5DF28F0BADF18F0952309F01F
S1133140A6CFABCF1124EECFCADFA0F3959FD1F366
S1133150950F50E0551F629FF001729FBB27F00D41
S1133160B11D639FAA27F00DB11DAA1F649F662796
S1133170B00DA11D661F829F2227B00DA11D621FE5
S1133180739FB00DA11D621F839FA00D611D221F9F
S1133190749F3327A00D611D231F849F600D211D83
S11331A0822F762F6A2F11249F5750408AF0E1F026
S11331B088234AF0EE0FFF1FBB1F661F771F881F6F
S11331C091505040A9F79E3F510570F060CFAACFAF
S11331D05F3FECF3983EDCF3869577956795B7955A
S11331E0F795E7959F5FC1F7FE2B880F911D969584
S11331F0879597F9089581B38F6081BB2898289AA1
S113320021B381E090E00090450E02C0880F991F21
S11332100A94E2F78095822381BBE091150EF09128
S1133220160E309709F0199508959FB7F894E1E4C4
S1133230FEE010828EE981838AE0828383839FBFCC
S11332400895BF92CF92DF92EF92FF920F931F9354
S1133250CF93DF936B017C01B42E1092180E83E0A0
S1133260841778F1642F70E080E090E0D3DE9B0156
S1133270AC0160E070E080E291E40E94B322A70117
S1133280960156DF20E030E040E05FE3C6DD0E94B7
S11332905E228FDEAB01772364F444275527461B57
S11332A0570B21E0483E83E058070CF420E011E07E
S11332B00CC021E0403187E258070CF420E010E014
S11332C004C040E050E021E010E00FB7F89422235E
S11332D011F0ABDF51C0C5E4DEE00F2EF1E4CF2ED8
S11332E0FEE0DF2EF02D0F2EFAE0EF2EF12CF02D64
S11332F0CA01B7010E942124FC01ED5BFC4F8081CF
S11333008A93462F572FCC15DD0591F743E050E003
S11333104B19510914161506F4F48091410E8C3F93
S113332049F060E019C0FC01EF5BF14F30813C3F94
S113333021F012C080E090E020E0FC01EF5BF14F4F
S11333401082622F2F5F822F022E000C990B84179C
S113335095074CF301C060E0112331F0E62FF0E053
S1133360EF5BF14F82E08083BB2031F0FA01EF5B29
S1133370F14F8081816080830FBFDF91CF911F91D6
S11333800F91FF90EF90DF90CF90BF90089585B597
S1133390856085BD089585B5887F85BD81B38F60BF
S11333A081BB08958F92AF92CF92EF920F931F93A8
S11333B0CF93DF93EC0180B38F6080BB81B38F60C8
S11333C081BB209A8BEF98E19F938F93812CA12C42
S11333D0C12CE12C00E010E020E240E063E080E159
S11333E0D1D49093470E8093460E89E187BD84B56E
S11333F0826084BDEEE6F0E0808182608083CBDF72
S1133400D093160EC093150E0F900F90DF91CF91AD
S11334101F910F91EF90CF90AF908F9008951F92CE
S11334200F920FB60F9211240BB60F922F933F9366
S11334304F935F936F937F938F939F93AF93BF93B8
S1133440EF93FF938091180E882369F12091190E50
S113345030911A0E253F91E0390738F42F5F3F4F22
S113346030931A0E2093190E1EC010921A0E109249
S1133470190EE091170E2E2F30E090E004972817D4
S1133480390714F4EF5F01C0E0E0E093170EF0E0B9
S1133490E55EF14FA1E4BEE025E43EE081918D9329
S11334A0A217B307D9F78091450E90E00196837077
S11334B09078992324F401978C6F9F6F01968093E1
S11334C0450E9927FC01EF5BF14F60816095809177
S11334D0460E9091470E28D5FF91EF91BF91AF9181
S11334E09F918F917F916F915F914F913F912F9118
S11334F00F900BBE0F900FBE0F901F901895653064
S1133500F1F4FA0180818F7390E0982F882721814C
S1133510822B90930A02809309028281F0E48F9FA8
S1133520C0011124FA01238126952695822B9093BC
S113353008028093070281E08093480E0895643066
S113354051F080E090E490930802809307029093F6
S11335500A028093090208950F931F930FE71AE15B
S113356020E034E244EF50E060E087E2FED590933F
S11335704A0E8093490E21E0892B09F020E0822F26
S11335801F910F9108958091490E90914A0E0097D2
S113359051F040E060E070E039D6843031F41092AC
S11335A0480E80E0089582E0089583E008958091B4
S11335B0490E90914A0E009731F064E073D685303D
S11335C021F083E0089582E0089580E008956091F9
S11335D007027091080280E090E01CDD20E030E0FA
S11335E045E253E4A5DD20E038EF4FE756E479DC0B
S11335F020E030E040E252E40FCC08952F923F9255
S11336004F925F926F927F928F929F92AF92CF92DE
S1133610EF92FF920F931F93CF93DF93CDB7DEB753
S1133620F82E2A013B0188E090E00E94A5248C0139
S11336308F2D90E0FC01EE0FFF1FE55BF14F11832E
S113364000830115110509F468C0880F991FFC0156
S1133650E55FFD4F80819181D8018D939C936C2D02
S113366070E084E090E00E948B241C0161E070E033
S113367086E090E00E948B247C014C2DB10102D79E
S1133680F801F582E4826A2D70E084E090E00E9403
S11336908B241C0161E070E086E090E00E948B24A2
S11336A07C014A2DB101EED6D8011396FC92EE921C
S11336B0129717969C928E921697FFB6F894ED91F6
S11336C0FC91119736978081826080838D909C90C5
S11336D0C301B2019FDC20E030E040E051E428DD8A
S11336E09B01AC0160E074E284E79BE4FADB20E038
S11336F030E040E85FE390DB61DCF4013297608303
S1133700D801ED91FC911197359788E98083ED916B
S1133710FC91349786E08083FFBEC801DF91CF918E
S11337201F910F91FF90EF90CF90AF909F908F904B
S11337307F906F905F904F903F902F900895CF931C
S1133740DF93DC01892B01F11296ED91FC91139723
S1133750938182812581981B922384819817B1F0EB
S1133760838126952823C081D181C20FD11D68830E
S11337708F5F958189238383ED91FC9135978081B7
S11337808062808380E003C081E001C082E0DF9139
S1133790CF9108950097D1F0DC011496ED91FC913E
S11337A0159793818281981799F0928185818695E6
S11337B08923A081B181A80FB11D8C91DB018C9369
S11337C09F5F85819823928380E0089581E0089526
S11337D083E008951F920F920FB60F9211240BB637
S11337E00F922F933F934F935F936F937F938F9396
S11337F09F93AF93BF93CF93DF93EF93FF93A091E6
S11338004B0EB0914C0E109711F16091C6001496B6
S1133810ED91FC911597938182812581981B9223C8
S11338208481981761F0838126952823C081D181F2
S1133830C20FD11D68838F5F958189238383169678
S1133840ED91FC911797309711F0CD011995FF91E7
S1133850EF91DF91CF91BF91AF919F918F917F9124
S11338606F915F914F913F912F910F900BBE0F90ED
S11338700FBE0F901F9018951F920F920FB60F92C4
S113388011240BB60F922F938F939F93AF93BF93F3
S1133890EF93FF93E0914B0EF0914C0E3097B9F0FB
S11338A00280F381E02D938182819817B1F0928197
S11338B08581282F26952923A081B181A20FB11DCE
S11338C02C919F5F892382832093C6000BC0E1EC77
S11338D0F0E080818F7D808305C0E1ECF0E08081A1
S11338E08F7D8083FF91EF91BF91AF919F918F91D5
S11338F02F910F900BBE0F900FBE0F901F90189535
S11339001F920F920FB60F9211240BB60F922F93A2
S11339103F934F935F936F937F938F939F93AF9353
S1133920BF93CF93DF93EF93FF93A0914D0EB0918C
S11339304E0E109711F16091CE001496ED91FC910A
S11339401597938182812581981B922384819817EE
S113395061F0838126952823C081D181C20FD11DB6
S113396068838F5F9581892383831696ED91FC91FB
S11339701797309711F0CD011995FF91EF91DF91D1
S1133980CF91BF91AF919F918F917F916F915F91F3
S11339904F913F912F910F900BBE0F900FBE0F9040
S11339A01F9018951F920F920FB60F9211240BB609
S11339B00F922F938F939F93AF93BF93EF93FF93A4
S11339C0E0914D0EF0914E0E3097B9F00280F381E4
S11339D0E02D938182819817B1F092818581282FFF
S11339E026952923A081B181A20FB11D2C919F5F3F
S11339F0892382832093CE000BC0E9ECF0E0808120
S1133A008F7D808305C0E9ECF0E080818F7D808329
S1133A10FF91EF91BF91AF919F918F912F910F9053
S1133A200BBE0F900FBE0F901F9018951F920F9210
S1133A300FB60F9211240BB60F922F933F934F930F
S1133A405F936F937F938F939F93AF93BF93CF9322
S1133A50DF93EF93FF93A0914F0EB091500E109708
S1133A6011F16091D6001496ED91FC911597938114
S1133A7082812581981B92238481981761F0838128
S1133A8026952823C081D181C20FD11D68838F5F01
S1133A909581892383831696ED91FC91179730972E
S1133AA011F0CD011995FF91EF91DF91CF91BF9165
S1133AB0AF919F918F917F916F915F914F913F91C2
S1133AC02F910F900BBE0F900FBE0F901F90189563
S1133AD01F920F920FB60F9211240BB60F922F93D1
S1133AE08F939F93AF93BF93EF93FF93E0914F0E08
S1133AF0F091500E3097B9F00280F381E02D93815C
S1133B0082819817B1F092818581282F26952923E7
S1133B10A081B181A20FB11D2C919F5F8923828363
S1133B202093D6000BC0E1EDF0E080818F7D80838F
S1133B3005C0E1EDF0E080818F7D8083FF91EF91FE
S1133B40BF91AF919F918F912F910F900BBE0F90CA
S1133B500FBE0F901F9018951F920F920FB60F92E1
S1133B6011240BB60F922F933F934F935F936F9350
S1133B707F938F939F93AF93BF93CF93DF93EF93F1
S1133B80FF93A091510EB091520E109711F16091D4
S1133B9036011496ED91FC911597938182812581CC
S1133BA0981B92238481981761F08381269528239A
S1133BB0C081D181C20FD11D68838F5F9581892314
S1133BC083831696ED91FC911797309711F0CD01F0
S1133BD01995FF91EF91DF91CF91BF91AF919F9193
S1133BE08F917F916F915F914F913F912F910F90A2
S1133BF00BBE0F900FBE0F901F9018951F920F923F
S1133C000FB60F9211240BB60F922F938F939F939D
S1133C10AF93BF93EF93FF93E091510EF091520E47
S1133C203097B9F00280F381E02D93818281981757
S1133C30B1F092818581282F26952923A081B18115
S1133C40A20FB11D2C919F5F89238283209336019B
S1133C500BC0E1E3F1E080818F7D808305C0E1E367
S1133C60F1E080818F7D8083FF91EF91BF91AF91CF
S1133C709F918F912F910F900BBE0F900FBE0F90BD
S1133C801F901895CF93DF931F92CDB7DEB7BE0177
S1133C906F5F7F4F8091530E9091540E7BDD8111A5
S1133CA0F6CF898190E00F90DF91CF910895682F2E
S1133CB08091530E9091540E42DD80E090E008957F
S1133CC08F929F92AF92CF92EF920F93812C912C6F
S1133CD06894AA24A7F86894CC24C7F8E12C00E0DF
S1133CE023E040E051EE60E070E088DC9093540EF5
S1133CF08093530EEAE7FEE083E192E091838083B0
S1133D00938382830F91EF90CF90AF909F908F9089
S1133D100895E091560EF091570E3097F9F0A08176
S1133D20B1811097D9F02381213069F44C9121E0BD
S1133D3030E0028002C0220F331F0A94E2F720957C
S1133D4024232C930BC04C9121E030E0028002C06C
S1133D50220F331F0A94E2F7242B2C939093570ECF
S1133D608093560E009769F01092580E2CB52F735D
S1133D702CBDFC0124812CBD85818DBD8CB5806456
S1133D808CBD08954F925F926F927F928F929F9213
S1133D90AF92BF92CF92DF92EF92FF920F931F9355
S1133DA0CF93DF93CDB7DEB7982EB62ED42EF22E56
S1133DB08091550E811106C084B1876084B981E079
S1133DC08093550E8CE090E0C0D53C01DC01119647
S1133DD01C930E931296EC9212971396CC9213970F
S1133DE08D2D880F880FF82AEB2DF0E0ED5AFC4F4B
S1133DF08081982A8F2D892914968C93B3E0BB1562
S1133E0018F481E0F3018583A11006C0D30119964B
S1133E101C921E92189712C06A2D70E084E090E004
S1133E207AD52C0161E070E086E090E074D56C01F5
S1133E304A2DB20127D3F301D186C086811006C072
S1133E40D30117961C921E92169712C0682D70E02B
S1133E5084E090E060D55C0161E070E086E090E091
S1133E605AD56C01482DB5010DD3F301D782C68212
S1133E708C899D89D3011B969C938E931A97011567
S1133E80110559F0F801229181E090E002C0880FF9
S1133E90991FEA94E2F7822B80832FB7F89440911C
S1133EA0560E5091570E7092570E6092560ED301D3
S1133EB0ED91FC911197309701F113968C91139722
S1133EC0813071F4308181E090E012960C9002C050
S1133ED0880F991F0A94E2F78095832380830DC08D
S1133EE0308181E090E0D30112960C9002C0880FDB
S1133EF0991F0A94E2F7832B80835093570E4093C3
S1133F00560E2FBFC301DF91CF911F910F91FF90E8
S1133F10EF90DF90CF90BF90AF909F908F907F9065
S1133F206F905F904F9008951F93CF93DF93009706
S1133F3009F46AC0162FEC018091560E9091570E29
S1133F40C817D90711F0CE01E4DE8FB72FB7F89464
S1133F508091580E811131C081E08093580EA09158
S1133F60560EB091570EED91FC9111973097F9F0E0
S1133F7013968C911397813069F4308181E090E03D
S1133F8012960C9002C0880F991F0A94E2F7832BB3
S1133F9080830DC0308181E090E012960C9002C0C5
S1133FA0880F991F0A94E2F78095832380838CB548
S1133FB080688CBD1EBD80E025C0EE81FF813097F6
S1133FC0E1F03481838142819581841B89233817F0
S1133FD0B1F083814281841B8923381791F0838156
S1133FE096959823A081B181A90FB11D1C938F5F71
S1133FF095818923838380E005C082E003C081E04A
S113400001C080E02FBF01C083E0DF91CF911F91F9
S113401008951F920F920FB60F9211240BB60F92B0
S11340202F933F934F935F936F937F938F939F93BC
S1134030AF93BF93CF93DF93EF93FF936EB5A091AC
S1134040560EB091570E1896ED91FC911997309732
S1134050A1F0838122819581821B89232481821787
S113406061F0838196959823C081D181C90FD11DB8
S113407068838F5F9581892383831696ED91FC91E4
S11340801797309799F093818281981779F09281EC
S11340908581282F26952923A081B181A20FB11DE6
S11340A02C919F5F892382832EBD2DC08CB58F7781
S11340B08CBD1092580EA091560EB091570EED91F2
S11340C0FC9111973097F9F013968C9113978130E6
S11340D071F4208181E090E012960C9002C0880F68
S11340E0991F0A94E2F78095822380830CC0208173
S11340F081E090E012960C9002C0880F991F0A94F8
S1134100E2F7822B80838091560E9091570EDC014A
S11341101A96ED91FC911B97309709F01995FF9130
S1134120EF91DF91CF91BF91AF919F918F917F914B
S11341306F915F914F913F912F910F900BBE0F9014
S11341400FBE0F901F9018958091670E81110CC0BF
S11341508CE08093B8008FEF8093BB0084E0809361
S1134160BC0081E08093670E0895AF92BF92CF9216
S1134170DF92EF92FF920F931F93CF93DF93A82EBA
S1134180B62E69017A0184E090E0DFD3EC01892B3B
S113419061F1A88281E0B81212C0C701B60120EA19
S11341A036E841E050E060D3DA01C9014097A10943
S11341B0B109B695A79597958795898311C0C701CD
S11341C0B60120E83AE146E050E04ED3DA01C901F5
S11341D04097A109B109B695A795979587958983C5
S11341E01B830A838C2F9D2F02C080E090E0DF9117
S11341F0CF911F910F91FF90EF90DF90CF90BF90E0
S1134200AF9008958091BC0081700895FF920F9340
S11342101F93CF93DF930097D1F14A30D0F5F42E5A
S11342208B01EC01EFDF811136C080915A0E909121
S11342305B0EC817D90741F087DF89818093B800E6
S1134240D0935B0EC0935A0E81E08F0D80935C0E69
S11342508881880F80935D0EFF2089F0F801AEE518
S1134260BEE04FEF4F0D642F70E0CB010196B80113
S1134270680F791F81918D93E617F707D9F788EFB7
S11342808093210285EA8093BC0084E005C086E027
S113429003C087E001C082E0DF91CF911F910F91AD
S11342A0FF9008951F93CF93DF93009729F16B300C
S11342B028F5162FEC01A6DF811122C080915A0E39
S11342C090915B0EC817D90741F03EDF8981809336
S11342D0B800D0935B0EC0935A0E10935C0E888185
S11342E0880F816080935D0E88EF8093210285EAB8
S11342F08093BC0085E005C086E003C087E001C070
S113430082E0DF91CF911F9108951F920F920FB613
S11343100F9211240BB60F922F933F934F935F93F9
S11343206F937F938F939F93AF93BF93EF93FF9379
S1134330E091B9008E2F90E0FC013897E135F1054A
S113434008F075C08827E458FF4F8F4FAFC2109212
S1134350590EE091590E80915C0EE81770F481E0DB
S11343608E0F8093590EF0E0E35AF14F80818093D1
S1134370BB0085E88093BC0072C084E98093BC00D4
S113438080915A0E90915B0EDC011296ED91FC9196
S11343901397309709F463C020E040E050E064E0F4
S11343A019955DC0E091590E81E08E0F8093590EEE
S11343B08091BB00F0E0E35AF14F80838091B90013
S11343C0803411F41092590E2091590E30E08091EE
S11343D05C0E90E001972817390724F485EC80934C
S11343E0BC003DC085E88093BC0039C08091BB000F
S11343F0E091590EF0E0E35AF14F808384E9809311
S1134400BC0080915A0E90915B0EDC011296ED91E6
S1134410FC911397309719F120915C0E4DE55EE005
S113442065E019951CC085EA8093BC0018C0809192
S1134430B9008093210284E08093BC0080915A0EDD
S113444090915B0EDC011296ED91FC9113973097DD
S113445031F020E040E050E0609121021995FF9195
S1134460EF91BF91AF919F918F917F916F915F91E8
S11344704F913F912F910F900BBE0F900FBE0F9055
S11344801F901895FC01411101C080D3842F90E046
S11344909C012150310982239323892B09F076D37F
S11344A0413808F073D3128213824483440F41507D
S11344B045837183608380E090E008953CD088F068
S11344C09F3748F4911116F00C94921860E070E054
S11344D080E89FEB089526F41B16611D711D811D54
S11344E001C01BC0882371F4772321F09850872BD7
S11344F0762F07C0662311F499270DC09051862B9F
S113450070E060E02AF09A95660F771F881FDAF74B
S1134510880F9695879597F908959F3F31F09150AC
S113452020F4879577956795B795880F911D969593
S1134530879597F908950E947718A0F0BEE7B917F8
S113454088F4BB279F3860F41616B11D672F782FA7
S11345508827985FF7CF869577956795B11D9395D2
S11345609639C8F30895FA01EE0FFF1F309621051E
S11345703105A1F16115710561F48038BFE39B0732
S113458049F168949038810561F08038BFEF9B074A
S113459041F099234AF5FF3FE1053105210519F161
S11345A0E8940894E795D901AA2329F4AB2FBE2FE8
S11345B0F85FD0F310C0FF5F70F4A695E0F7F73909
S11345C050F019F0FF3A38F49F779F930DD00F9075
S11345D007FC9058089546F00C944D1860E070E084
S11345E080E89FE308954FE79F775F934F933F934E
S11345F02F93ACD02F913F914F915F910E949818C7
S113460008C029F416F00C9447180C9491180C94D3
S11346104D180E947718A8F39638A0F707F80F9260
S1134620E8942BE33AEA48EB5FE70E94A6180F925E
S11346300F920F924DB75EB70F92CFD0EAE9F1E037
S113464016D04F915F91EF91FF91E595EE1FFF1FFB
S113465049F0FE57E0684427EE0F441FFA95E1F74E
S11346604195550B36D00F9007FE28C00895DF936F
S1134670CF931F930F93FF92EF92DF927B018C01F4
S1134680689406C0DA2EEF010E94A418FE01E89493
S1134690A5912591359145915591A6F3EF010E947D
S11346A01E17FE019701A801DA9469F7DF90EF90D5
S11346B0FF900F911F91CF91DF9108959B01AC0161
S11346C060E070E080E89FE30C9471170C94471845
S11346D024CF0E947718E0F39923D1F3940F511D4E
S11346E0ABF39150504094F059F0882332F0660FA8
S11346F0771F881F91505040C1F79E3F510534F7F2
S1134700880F911D9695879597F908955F3FACF0B2
S1134710983E9CF0BB27869577956795B79508F4E6
S1134720B1609395C1F7BB0F58F711F460FFE8CF60
S11347306F5F7F4F8F4F9F4FE3CF0C9492180EF013
S1134740ECCE0C944D1868940C9447180E9477187A
S1134750B0F39923C1F3AEF3DF93CF931F930F9379
S1134760FF92C92FDD2788232AF02197660F771F30
S1134770881FDAF720E030E040E85FEB9FE38839F8
S113478020F0803E38F021968F770E940D17E2ECDE
S1134790F1E004C00E940D17EFEEF1E068DF8B0139
S11347A0BE01EC01FB2E6F5771097595771F880BBD
S11347B0990B0E940C1828E132E741E35FE30E9461
S11347C0A418AF2D9801AE01FF900F911F91CF91C6
S11347D0DF910E941E170C945E18FA01DC01AA0FE7
S11347E0BB1F9B01AC01BF5728F422273327442762
S11347F0507820C0B75190F4AB2F002446953795DC
S11348002795011CA395D2F3002071F0220F331FCA
S1134810441FB395DAF30ED00C940C176130710574
S1134820A0E88A07B94630F49B01AC0166277727D4
S113483088279078309621F02083318342835383F4
S1134840089597FB072E16F4009406D077FD08D040
S11348503FD007FC05D03EF4909581959F4F089575
S1134860709561957F4F0895A1E21A2EAA1BBB1B78
S1134870FD010DC0AA1FBB1FEE1FFF1FA217B30728
S1134880E407F50720F0A21BB30BE40BF50B661F3E
S1134890771F881F991F1A9469F760957095809502
S11348A090959B01AC01BD01CF010895EE0FFF1F50
S11348B0881F8BBF0790F691E02D19941DD0A59FFA
S11348C0900DB49F900DA49F800D911D1124089507
S11348D0AA1BBB1B51E107C0AA1FBB1FA617B70722
S11348E010F0A61BB70B881F991F5A95A9F780953E
S11348F09095BC01CD010895A29FB001B39FC00162
S1134900A39F700D811D1124911DB29F700D811DF7
S11349101124911D08950F931F93CF93DF93869FC6
S11349208001879F100D969F100D1124C8010DD092
S1134930EC01009721F0A80160E070E034D1CE01D1
S1134940DF91CF911F910F9108950F931F93CF93F0
S1134950DF938230910510F482E090E0E091780ECC
S1134960F091790E20E030E0A0E0B0E0309719F14A
S1134970408151810281138148175907C8F0841777
S1134980950769F4109731F012960C9312971396C9
S11349901C9327C00093780E1093790E22C0211522
S11349A0310519F04217530718F49A01BD01EF01BC
S11349B0DF01F801DBCF21153105F9F0281B390B94
S11349C02430310580F48A819B816115710521F0C1
S11349D0FB019383828304C09093790E8093780EB5
S11349E0FE01329644C0FE01E20FF31F81939193BE
S11349F022503109398328833AC02091760E3091B0
S1134A00770E232B41F4209102023091030230935C
S1134A10770E2093760E2091000230910102211529
S1134A20310541F42DB73EB740910402509105027F
S1134A30241B350BE091760EF091770EE217F30705
S1134A40A0F42E1B3F0B2817390778F0AC014E5FFA
S1134A505F4F2417350748F04E0F5F1F5093770EB2
S1134A604093760E8193919302C0E0E0F0E0CF0191
S1134A70DF91CF911F910F910895CF93DF9300970A
S1134A8009F481C0FC01329713821282A091780E3E
S1134A90B091790E109781F420813181820F931F98
S1134AA02091760E3091770E2817390751F5F0933F
S1134AB0770EE093760E67C0ED0120E030E0CE176C
S1134AC0DF0740F44A815B819E0141155105F1F0F5
S1134AD0EA01F5CFD383C28340815181840F951FAE
S1134AE0C817D90759F488819981840F951F0296B4
S1134AF0918380838A819B819383828321153105ED
S1134B0029F4F093790EE093780E3DC0E901FB831C
S1134B10EA8349915991C40FD51FEC17FD0761F43D
S1134B2080819181840F951F0296E901998388837E
S1134B30828193819B838A83E0E0F0E012968D91D9
S1134B409C911397009719F0FD01DC01F7CF8D912B
S1134B509C9111979D012E5F3F4F820F931F2091CF
S1134B60760E3091770E2817390769F4309729F4B7
S1134B701092790E1092780E02C013821282B093B2
S1134B80770EA093760EDF91CF91089581E090E0A7
S1134B90F89400C3FB01DC0102C001900D92415066
S1134BA05040D8F70895DC0101C06D934150504046
S1134BB0E0F70895CF93DF93CDB7DEB7AE014A5F38
S1134BC05F4FFA0161917191AF0180917C0E9091D8
S1134BD07D0E33D0DF91CF9108950F931F93CF9320
S1134BE0DF93E0917C0EF0917D0E238121FF1BC0A9
S1134BF08C01D0E0C0E0F80181918F0160917C0EBE
S1134C0070917D0EDB011896ED91FC911997882324
S1134C1031F01995892B79F3DFEFCFEFECCF8AE0F0
S1134C201995892B19F08FEF9FEF02C08D2F9C2FC0
S1134C30DF91CF911F910F9108952F923F924F9240
S1134C405F926F927F928F929F92AF92BF92CF9218
S1134C50DF92EF92FF920F931F93CF93DF93CDB721
S1134C60DEB72B970FB6F894DEBF0FBECDBF6C0135
S1134C707B018A01FC0117821682838181FFBFC1F7
S1134C80CE0101963C01F6019381F70193FD8591D4
S1134C9093FF81917F01882309F4ADC1853239F4F2
S1134CA093FD859193FF81917F01853221F4B601B3
S1134CB090E0D6D1E8CF912C212C312CFFE1F315D3
S1134CC0D8F08B3279F038F4803279F08332A1F461
S1134CD0232D20611DC08D3261F0803369F4232DB2
S1134CE0216016C0832D8260382EE32DE4603E2EB1
S1134CF02AC0F32DF8601DC037FC2DC020ED280F0D
S1134D002A3040F08E32B9F436FC75C1232D20646C
S1134D10322E19C036FE06C08AE0989E200D11245A
S1134D20922E11C0EAE02E9E200D1124222EF32D86
S1134D30F0623F2E08C08C3621F4832D8068382E13
S1134D4002C0883641F4F70193FD859193FF819168
S1134D507F018111B3CF982F9F7D9554933028F410
S1134D600C5F1F4F9FE399830DC0833631F0833767
S1134D7071F0833509F055C020C0F8018081898322
S1134D800E5F1F4F88248394912C530112C0280175
S1134D90F2E04F0E511CF801A080B18036FE03C032
S1134DA0692D70E002C06FEF7FEFC5014ED14C0159
S1134DB08201F32DFF773F2E15C0280122E0420E19
S1134DC0511CF801A080B18036FE03C0692D70E04B
S1134DD002C06FEF7FEFC5012DD14C01F32DF068B8
S1134DE03F2E820133FC19C0822D90E0881699066B
S1134DF0A0F4B60180E290E033D12A94F5CFF50116
S1134E0037FC859137FE81915F01B60190E028D18E
S1134E1021102A9421E0821A91088114910479F7CF
S1134E20E1C0843611F0893639F5F80137FE07C040
S1134E3060817181828193810C5F1F4F08C0608102
S1134E407181072E000C880B990B0E5F1F4FF32DF9
S1134E50FF763F2E97FF09C09095809570956195D8
S1134E607F4F8F4F9F4FF0683F2E2AE030E0A30121
S1134E7033D1882E861844C0853731F4232D2F7EF4
S1134E80B22E2AE030E025C0932D997FB92E8F36BB
S1134E90C1F018F4883579F0AEC0803719F088373E
S1134EA021F0A9C0E92FE061BE2EB4FE0DC0FB2D98
S1134EB0F460BF2E09C034FE0AC0292F2660B22E2A
S1134EC006C028E030E005C020E130E002C020E167
S1134ED032E0F801B7FE07C060817181828193815D
S1134EE00C5F1F4F06C06081718180E090E00E5F0F
S1134EF01F4FA301F1D0882E8618FB2DFF773F2E7C
S1134F0036FE0DC0232D2E7FA22E891458F434FEB4
S1134F100BC032FC09C0832D8E7EA82E05C0B82C90
S1134F20A32C03C0B82C01C0B92CA4FE0FC0FE01F1
S1134F30E80DF11D8081803321F49A2D997EA92EEC
S1134F4009C0A2FE06C0B394B39404C08A2D867827
S1134F5009F0B394A3FC10C0A0FE06C0B21480F400
S1134F60280C922C9B180DC0B21458F4B60180E2A0
S1134F7090E076D0B394F8CFB21418F42B1802C092
S1134F80982C212CA4FE0FC0B60180E390E068D0D9
S1134F90A2FE16C0A1FC03C088E790E002C088E529
S1134FA090E0B6010CC08A2D867851F0A1FE02C0B3
S1134FB08BE201C080E2A7FC8DE2B60190E050D004
S1134FC0891430F4B60180E390E04AD09A94F8CF83
S1134FD08A94F301E80DF11D8081B60190E040D080
S1134FE08110F6CF222009F44ECEB60180E290E083
S1134FF037D02A94F7CFF6018681978102C08FEFCC
S11350009FEF2B960FB6F894DEBF0FBECDBFDF9196
S1135010CF911F910F91FF90EF90DF90CF90BF90B1
S1135020AF909F908F907F906F905F904F903F9044
S11350302F900895FC010590615070400110D8F73D
S1135040809590958E0F9F1F0895FC0161507040CC
S113505001900110D8F7809590958E0F9F1F0895A9
S11350600F931F93CF93DF93FB01238121FD03C093
S11350708FEF9FEF2CC022FF16C0468157812481F9
S113508035814217530744F4A081B1819D012F5FFC
S11350903F4F318320838C93268137812F5F3F4F8D
S11350A03783268314C08B01EC01FB010084F18556
S11350B0E02D1995892BE1F6D80116968D919C91D6
S11350C01797019617969C938E931697CE01DF91AE
S11350D0CF911F910F910895FA01AA27283051F119
S11350E0203181F1E8946F936E7F6E5F7F4F8F4F15
S11350F09F4FAF4FB1E03ED0B4E03CD0670F781F74
S1135100891F9A1FA11D680F791F8A1F911DA11D58
S11351106A0F711D811D911DA11D20D009F4689491
S11351203F912AE0269F11243019305D3193DEF639
S1135130CF010895462F4770405D4193B3E00FD0EF
S1135140C9F7F6CF462F4F70405D4A3318F0495DDA
S113515031FD4052419302D0A9F7EACFB4E0A695BD
S11351609795879577956795BA95C9F700976105DF
S1135170710508959B01AC010A2E06945795479535
S113518037952795BA95C9F7620F731F841F951F2A
S10B5190A01D0895F894FFCF5F
S11351980000800E20000900400040C600CE00D662
S11351A80036010000000300000000571E421E00E4
S11351B800F8372D7365676D656E742044697370E4
S11351C86C617920737461727465642121210037DC
S11351D82D7365676D656E7420446973706C6179AD
S11351E8205461736B0054656D70657261747572D7
S11351F8652073656E736F72206469646E2774200A
S113520877616B6575702121210054656D70657235
S113521861747572652073656E736F722064696456
S11352286E2774206D656173757265212121007480
S1135238656D70657261747572652825642E2564C0
S11352482E25642025643A25643A2564293A256480
S11352582E25640054656D706572617475726520DD
S113526873656E736F72207374617274656421213F
S1135278210054656D706572617475726553656E4D
S1135288736F725461736B004E6F772074696D6528
S113529820636C6F636B207374617274656421217D
S11352A821004E6F7754696D65436C6F636B54616D
S11352B8736B0049444C4500546D72205376630067
S11352C850726F6772616D205374617274656421E2
S11352D8212100FC60DAF266B6BEE0FEE6EE3E1A74
S10D52E87A9E8E0001020300010209
S9030000FC
