:1000000091C20000B0C20000AEC20000ACC200004D
:10001000AAC20000A8C20000A6C20000A4C200003C
:10002000A2C20000A0C200009EC200009CC200004C
:100030000C94C00C98C2000096C2000094C200004C
:1000400092C2000090C200008EC200008CC200006C
:100050008AC200000C94432686C2000084C20000BD
:100060000C94D3310C94B42D0C94062E7CC2000059
:100070007AC2000078C2000076C2000074C200009C
:1000800072C2000070C200006EC200006CC20000AC
:100090000C944A2E0C949C2E66C200000C946F3473
:1000A00062C2000060C200005EC200005CC20000CC
:1000B0005AC2000058C2000056C2000054C20000DC
:1000C00052C2000050C200004EC200000C94E02E4C
:1000D0000C94322F48C200000C94762F0C94C82F39
:1000E00042C20000070207020702410249025F0202
:1000F00007020702410249029134013501350135F9
:1001000001350135013501359134013501350135B0
:10011000013501350135013593340135013501359E
:10012000013501350135013501350135013501351F
:10013000013501350135013593340135013501357E
:1001400001350135013501350135013501350135FF
:100150000135013501350135FD34013501350135F4
:100160000135013501350135C83401350135013519
:1001700001350135013501350135013501350135CF
:100180000135013501350135BC3401350135013505
:100190000135013501350135E03407634236B79B3F
:1001A000D8A71A39685618AEBAAB558C1D3CB7CCD7
:1001B0005763BD6DEDFD753EF6177231BF0000004F
:1001C000803F08000000BE922449123EABAAAA2A32
:1001D000BECDCCCC4C3E00000080BEABAAAAAA3E4D
:1001E00000000000BF000000803F00000000000889
:1001F0004178D3BB4387D1133D190E3CC3BD428226
:10020000AD2B3E68EC8276BED98FE1A93E4C80EFE3
:10021000FFBE01C4FF7F3F000000000002EE12E1BC
:100220000F2EF2E1EF2EF3E1FF2EF02D8091E1127F
:10023000882329F10FB6F8940F92D8011796ED9103
:10024000FC911897C085D185CE0102960E94800B43
:100250008091D51281508093D5128091E112815006
:100260008093E1120F900FBE8B8D9C8D0E94F40A3B
:10027000CE010E94F40A8091E1128111DBCFF701D7
:100280008081823010F00E94FA0B0E94D11FCECFE5
:10029000CF93DF93CDB7DEB760970FB6F894DEBF8C
:1002A0000FBECDBFCE0101969A878987812C912CF4
:1002B000A12CB12C69847A84E0918C13F0918D1378
:1002C0008081882309F414C10780F085E02D208007
:1002D0003180428053800E94C615CE0101960E9453
:1002E0003A1F6B877C878D879E878981811167C0C4
:1002F0008B859C85AD85BE8582159305A405B505C6
:1003000008F445C00E940A17E0918C13F0918D13F8
:100310000780F085E02DA085B185B88BAF87CD0132
:1003200002960E94800BEF85F889868982FF21C0A2
:100330004685578560897189420D531D641D751D61
:10034000720161010B851C852D853E85CF010E94C0
:10035000491E882399F0C82CD92CEA2CFB2C00E0EC
:1003600010E0A201910160E08F8598890E94DC1E57
:1003700005C08E7FAF85B88956968C93AF85B889B6
:100380005496ED91FC915597CD011995A2C020E0AE
:10039000B201A1018B859C85AD85BE85481B590B9B
:1003A0006A0B7B0B80918813909189130E945710E0
:1003B0000E940A1781118DC00E94FA0B8AC00E9408
:1003C0000A1787C0898188230CF483C04E805F8020
:1003D000D2011C968D919C911D97892B21F0C20111
:1003E00002960E94800BCE0108960E943A1F8B0154
:1003F0009C01E9810E2E000CFF0BEA30F10508F09C
:1004000068C08827EE58FF4F8F4F0C944037F20199
:1004100086898160868BCA80DB80EC80FD80468582
:100420005785608971894C0D5D1D6E1D7F1DC20150
:100430000E94491E882309F44CC0D2015496ED91C4
:10044000FC915597C2011995F201868982FF41C03E
:100450004A815B816C817D8186859785A089B18980
:100460009A01AB01280F391F4A1F5B1FC82CD92CDA
:10047000EA2CFB2C00E010E060E0C2010E94DC1ED0
:1004800028C0D20156968C9156978E7F56968C93A3
:1004900020C0F20186898160868B4A815B816C81F4
:1004A0007D8146875787608B718B400F511F621F7C
:1004B000731F68017901C2010E94491E0AC0F2013E
:1004C000868981FD04C0C2010E94F40A02C08E7FA9
:1004D000868B282D392D4A2D5B2D662D772D809109
:1004E0008813909189130E94F00E81116BCFE4CE96
:1004F0000E94C615CE0101960E943A1F6B877C8729
:100500008D879E87898181115ACFE0918A13F0915E
:100510008B13808121E0811120E0282C392C4A2C7A
:100520005B2C36CF11241FBECFEFD1E2DEBFCDBF93
:1005300000E00CBF18E0A0E0B2E0E6E6F8E700E07B
:100540000BBF02C007900D92A03EB107D9F725E17D
:10055000A0EEB8E001C01D92A63EB207E1F70E94EE
:1005600004230C94313C4CCD0F2EF8EECF2EF3E04B
:10057000DF2EE12CF12CF02DC2E08091CD158823E7
:1005800021F085E792E00E9426390E942C2C80936E
:10059000CD158091D2159091D3151FD320E030E076
:1005A0004AEF53E40E94CB240E94E9239B01AC0153
:1005B000AEE3B0E00E944837A70196010E941E37C3
:1005C000CA01B9010E94F01782B18C2782B98091CB
:1005D000D2159091D31501D320E030E04AEF53E4D7
:1005E0000E94CB240E94E9239B01AC01AEE3B0E062
:1005F0000E944837A70196010E941E37CA01B9011F
:100600000E94F01782B18C2782B980ED95E10E949B
:100610005B2C6091D0157091D1158091D21590917D
:10062000D315A9D28091D2159091D3151BD3A5CF04
:10063000EF92FF920F939093D3158093D2158CE88D
:1006400092E00E942639E12CF12C01E021E030E01B
:1006500040EC50E060EA72E084EB92E00E945414B7
:100660000F91FF90EF9008950F2EF4E68F2EF02D4E
:100670000F2EF8EECF2EF3E0DF2EE12CF12CF02D33
:100680006894992496F86894AA24A5F86894BB24E1
:10069000B4F882B1805882B984D6EC0188D68C0136
:1006A000CE0189D6809EB001819E700D1124860FE7
:1006B000971FBC01990F880B990B0E94172420E00B
:1006C00030E048EC52E40E947C2342E00E94542532
:1006D00020E030E04AE754E460910602709107029E
:1006E00080910802909109020E94CB240E94E92384
:1006F0009B01AC01AEE3B0E00E944837A701960130
:100700000E941E37CA01B9010E94F01782B18058B9
:1007100082B982B1892582B9B9D56FD542E00E94EC
:10072000542520E030E04AE754E4609106027091DD
:10073000070280910802909109020E94CB240E9436
:10074000E9239B01AC01AEE3B0E00E944837A7016A
:1007500096010E941E37CA01B9010E94F01782B1AA
:10076000892582B9C2D582B18A2582B994D501D4AE
:1007700042E00E94542520E030E04AE754E46091D2
:1007800006027091070280910802909109020E946E
:10079000CB240E94E9239B01AC01AEE3B0E00E94B0
:1007A0004837A70196010E941E37CA01B9010E946D
:1007B000F01782B18A2582B982B18B2582B970D5B2
:1007C00032D2BC01990F880B990B0E94172440E08C
:1007D0000E94542520E030E04AE754E4609106028C
:1007E0007091070280910802909109020E94CB2427
:1007F0000E94E9239B01AC01AEE3B0E00E944837C0
:10080000A70196010E941E37CA01B9010E94F01784
:1008100082B18B2582B969D53CCFEF92FF920F93BD
:1008200080E090E00E9405260E94FA2588EA92E086
:100830000E942639E12CF12C01E021E030E040EC6F
:1008400050E063EC72E084E393E00E9454140F9153
:10085000FF90EF9008950AED12E00F2EF8EE8F2E24
:10086000F3E09F2EA12CB12CF02D77247394CEEFC2
:10087000D2E08091D6159091D7159AD46B017C0166
:100880008091D8159091D9154FD39B01AC01C70128
:10089000B6010E94142320E030E04AEF53E40E94A6
:1008A000CB240E94E4236B017C010E94F92688235B
:1008B00031F01F930F930E9413390F900F90D701BF
:1008C000C601FF201CF40196A11DB11D9C01AD01C4
:1008D0005595479537952795AEE3B0E00E94483788
:1008E000A50194010E941E3769017A01CA01B9016C
:1008F0000E94F01782B1872582B90E940E278823B3
:1009000031F0DF93CF930E9413390F900F90C701FE
:10091000B6010E94F01782B1872582B90E94312763
:10092000AB01BC014093E4085093E5086093E608EE
:100930007093E7088091D6159091D7158AD30E94BD
:100940001F27AB01BC014093E0085093E10860937E
:10095000E2087093E3088091D8159091D9158ED252
:1009600088CFEF92FF920F939093D7158093D6156F
:100970007093D9156093D81583E293E00E942639CD
:10098000E12CF12C01E021E030E040EC50E068E4A3
:1009900073E08BE294E00E9454140F91FF90EF906B
:1009A00008958091E808882331F080910A0290919F
:1009B0000B02019789F081E08093E80881E090E0E4
:1009C00090930B0280930A028AE593E09F938F93A2
:1009D0000E9413390F900F9008958091E8088823A2
:1009E00031F080910A0290910B02892B79F081E01D
:1009F0008093E80810920B0210920A028FE693E0AF
:100A00009F938F930E9413390F900F9008958091B8
:100A1000E808882351F01092E80884E893E09F9357
:100A20008F930E9413390F900F9008958091E808DA
:100A3000882329F080910A0290910B0208958FEF8C
:100A40009FEF08958091E90881110BC081E08093A8
:100A5000E90882E993E09F938F930E9413390F90E6
:100A60000F9008958091E908882351F01092E908C9
:100A700084EB93E09F938F930E9413390F900F9014
:100A800008959091E90881E0892790E091958195FA
:100A9000910908958091EA0881110BC081E080934B
:100AA000EA0887ED93E09F938F930E9413390F908C
:100AB0000F9008958091EA08882351F01092EA0877
:100AC0008CEE93E09F938F930E9413390F900F90B9
:100AD00008959091EA0881E0892790E091958195A9
:100AE00091090895CF92DF92EF92FF920F93CF93E7
:100AF000DF936B017C0161E070E080E190E00E9497
:100B00007537EC01892B69F120E030E0A901C701BC
:100B1000B6010E94C72418162CF4C882D982EA8232
:100B2000FB8208C080E090E0A0E8BFE3888399835F
:100B3000AA83BB831D821C821F861E86F7D39987DA
:100B4000888781E00E949A0E9F838E8300E020E0D8
:100B500030E0A90160E070E00E94F70D8C2F9D2F1E
:100B600002C080E090E0DF91CF910F91FF90EF9075
:100B7000DF90CF9008950F931F93CF93DF93EC01F5
:100B80008B014FEF5FEFBA018E819F810E94890F29
:100B90001D830C838E859F85019769F48A859B85CB
:100BA0008017910714F45EDF06C08C859D850817B9
:100BB00019070CF447DF88859985D0D300E020E041
:100BC00030E0A90160E070E08E819F810E94F70D06
:100BD000DF91CF911F910F910895CF92DF92EF9205
:100BE000FF920F93CF93DF93EC014FEF5FEFBA01CA
:100BF0008E819F810E94890FC880D980EA80FB8006
:100C000000E020E030E0A90160E070E08E819F818B
:100C1000EED7C701B601DF91CF910F91FF90EF9012
:100C2000DF90CF900895EF92FF920F93CF93DF93D1
:100C3000EC014FEF5FEFBA018E819F810E94890F17
:100C4000EC80FD8000E020E030E0A90160E070E091
:100C50008E819F81CCD7C701DF91CF910F91FF90FB
:100C6000EF900895EF92FF920F93CF93DF93EC01F3
:100C70004FEF5FEFBA018E819F810E94890FE88458
:100C8000F98400E020E030E0A90160E070E08E81AE
:100C90009F81ADD7C701DF91CF910F91FF90EF906A
:100CA00008950F931F93CF93DF93EC018B014FEFC8
:100CB0005FEFBA018E819F810E94890F1B870A878F
:100CC00081E090E09F878E878885998547D300E0F3
:100CD00020E030E0A90160E070E08E819F8187D73D
:100CE000DF91CF911F910F9108950F931F93CF9391
:100CF000DF93EC018B014FEF5FEFBA018E819F8193
:100D00000E94890F1D870C8781E090E09F878E8766
:100D10008885998523D300E020E030E0A90160E0D8
:100D200070E08E819F8163D7DF91CF911F910F91EA
:100D30000895CF92DF92EF92FF920F93CF93DF93BC
:100D40006B017C0161E070E086E190E00E94753704
:100D5000EC01892B79F120E030E0A901C701B6014F
:100D60000E94C72418162CF4C882D982EA82FB821A
:100D700008C080E090E0A0E8BFE388839983AA835D
:100D8000BB831C821D821E821F821D8A1C8ACED2BA
:100D90009B878A8743E060E081E008D7998788874E
:100DA00000E020E030E0A90160E070E020D78C2F67
:100DB0009D2F02C080E090E0DF91CF910F91FF90D6
:100DC000EF90DF90CF900895CF92DF92EF92FF9255
:100DD0000F93CF93DF93EC016A017B014FEF5FEF3D
:100DE000BA01888599850E94890FCC86DD86EE86BA
:100DF000FF8681E090E09D8B8C8B8A859B85AED2AF
:100E000000E020E030E0A90160E070E0888599858D
:100E1000EED6DF91CF910F91FF90EF90DF90CF90C2
:100E20000895CF92DF92EF92FF920F93CF93DF93CB
:100E3000EC016A017B014FEF5FEFBA01888599856C
:100E40000E94890FC88AD98AEA8AFB8A81E090E0E9
:100E50009D8B8C8B8A859B8581D200E020E030E0E1
:100E6000A90160E070E088859985C1D6DF91CF91B6
:100E70000F91FF90EF90DF90CF9008958F929F9207
:100E8000AF92BF92CF92DF92EF92FF920F93CF93E8
:100E9000DF93EC016A017B014FEF5FEFBA018885B8
:100EA00099850E94890FCC82DD82EE82FF828C8937
:100EB0009D89019709F58C849D84AE84BF84A5012A
:100EC0009401C701B6010E94C724181614F4F2DD7C
:100ED00013C0A5019401C701B6010E94782318161A
:100EE00054F0288939894A895B89C701B6010E9473
:100EF000C72488230CF4CEDD8A859B852FD200E0A1
:100F000020E030E0A90160E070E0888599856FD627
:100F1000DF91CF910F91FF90EF90DF90CF90BF9036
:100F2000AF909F908F900895CF92DF92EF92FF92B3
:100F30000F93CF93DF93EC014FEF5FEFBA018885FA
:100F40009985E7D7C880D980EA80FB8000E020E05F
:100F500030E0A90160E070E08885998548D6C70136
:100F6000B601DF91CF910F91FF90EF90DF90CF907E
:100F70000895CF92DF92EF92FF920F93CF93DF937A
:100F8000EC014FEF5FEFBA0188859985C2D7CC801D
:100F9000DD80EE80FF8000E020E030E0A90160E02D
:100FA00070E08885998523D6C701B601DF91CF917E
:100FB0000F91FF90EF90DF90CF900895CF92DF9246
:100FC000EF92FF920F93CF93DF936B017C0161E06F
:100FD00070E086E190E00E947537EC01892B79F191
:100FE00020E030E0A901C701B6010E94C72418160D
:100FF0002CF4C882D982EA82FB8208C080E090E0AB
:10100000A0E8BFE388839983AA83BB831C821D82E7
:101010001E821F821D8A1C8A89D19B878A8743E092
:1010200060E081E0C3D59987888700E020E030E068
:10103000A90160E070E0DBD58C2F9D2F02C080E01D
:1010400090E0DF91CF910F91FF90EF90DF90CF90E4
:1010500008958F929F92AF92BF92CF92DF92EF92BC
:10106000FF920F93CF93DF93EC016A017B014FEF67
:101070005FEFBA01888599854CD7CC82DD82EE82FC
:10108000FF828C899D89019719F58C849D84AE849B
:10109000BF84A5019401C701B6010E94C724181698
:1010A00014F49BDC15C0A5019401C701B6010E9490
:1010B0007823181664F0288939894A895B89C70121
:1010C000B6010E94C724882314F0A1DC01C069DCAA
:1010D0008A859B8543D100E020E030E0A90160E0F3
:1010E00070E08885998583D5DF91CF910F91FF902E
:1010F000EF90DF90CF90BF90AF909F908F9008952A
:10110000CF92DF92EF92FF920F93CF93DF93EC0198
:101110006A017B014FEF5FEFBA0188859985F9D6A7
:10112000CC86DD86EE86FF8681E090E09D8B8C8B01
:101130008A859B8513D100E020E030E0A90160E0C2
:1011400070E08885998553D5DF91CF910F91FF90FD
:10115000EF90DF90CF900895CF92DF92EF92FF92C1
:101160000F93CF93DF93EC016A017B014FEF5FEFA9
:10117000BA0188859985CDD6C88AD98AEA8AFB8A38
:1011800081E090E09D8B8C8B8A859B85E7D000E089
:1011900020E030E0A90160E070E08885998527D5DE
:1011A000DF91CF910F91FF90EF90DF90CF90089556
:1011B000CF92DF92EF92FF920F93CF93DF93EC01E8
:1011C0004FEF5FEFBA0188859985A3D6C880D98093
:1011D000EA80FB8000E020E030E0A90160E070E000
:1011E0008885998504D5C701B601DF91CF910F910C
:1011F000FF90EF90DF90CF900895CF92DF92EF9223
:10120000FF920F93CF93DF93EC014FEF5FEFBA01A3
:10121000888599857ED6CC80DD80EE80FF8000E0D9
:1012200020E030E0A90160E070E088859985DFD496
:10123000C701B601DF91CF910F91FF90EF90DF9042
:10124000CF900895EADA60E070E080E89FE3B6DED0
:101250009093D7158093D61560E070E080E89FE307
:1012600068DD9093D9158093D815BC018091D6156F
:101270009091D71576DB60E070E080E89FE332DC88
:101280009093DB158093DA15D3C908958091D61514
:101290009091D71508958091D8159091D9150895FA
:1012A0008091DA159091DB1508958091EB0890916B
:1012B000EC08892BC9F461E070E08CE090E00E94BA
:1012C0007537FC019093EC088093EB08892B61F053
:1012D0001182108213821282158214821782168262
:1012E00011861086138612860895DFDFE091EB08E1
:1012F000F091EC0882859385019693878287CC973D
:10130000A4F0808591850196918780871386128647
:10131000CC975CF0868197810196978386831186AE
:101320001086489714F0178216820895BEDF61E098
:1013300070E08CE090E00E947537FC01892B61F031
:1013400011821082138212821582148217821682F1
:101350001186108613861286CF010895CF93DF93EE
:10136000EC01A3DFE091EB08F091EC088081918122
:1013700099838883828193819B838A8384819581E9
:101380009D838C83868197819F838E8380859185C1
:1013900099878887828593859B878A87DF91CF91FC
:1013A000089583DF8091EB089091EC080895FC018B
:1013B000868197810895FC01808591850895CF935A
:1013C000DF93DC01E9EFF8E001C0F9012081318110
:1013D0002A173B07D0F382819381AF01480F591F31
:1013E000A417B50749F412964D915C911397840F99
:1013F000951F93838283DF0112968D919C911397A1
:10140000ED01C80FD91F2C173D07D9F42091F7081B
:101410003091F808C217D30781F02A813B81820FEF
:10142000931F13969C938E931297C081D1818881CC
:10143000998111969C938E9307C01196DC93CE935D
:1014400003C011963C932E93AE17BF0711F0B183E2
:10145000A083DF91CF910895CF92DF92EF92FF9218
:101460000F931F93CF93DF93EC010E94C6158091D9
:10147000F7089091F808892B41F5E9EFF8E0ADEF16
:10148000B8E0B183A08313821282EDEBF2E1F09316
:10149000F808E093F708138212821182108280EC20
:1014A00099E013969C938E931297ED93FC939093EF
:1014B000F4088093F3089093F6088093F50880E091
:1014C00090E89093EE088093ED08E090ED08F0909E
:1014D000EE08C7018C239D23892B09F075C0209746
:1014E00009F475C09E012C5F3F4FC217D30708F067
:1014F0006EC02115310509F467C00091F5081091FF
:10150000F6080217130708F45FC0C091F908D091DC
:10151000FA08E9EFF8E002C0FE01EC018A819B8144
:101520008217930720F4888199810097A9F7809109
:10153000F7089091F808C817D90709F445C0C0808A
:10154000D18084E0C80ED11C8881998191838083E9
:101550004A815B81421B530B4930510548F0CE0153
:10156000820F931FFC01538342833B832A8327DF2F
:101570008A819B81081B190B1093F6080093F508CC
:101580002091F3083091F4080217130720F4109308
:10159000F4080093F308E82AF92AFB82EA82198208
:1015A00018828091F1089091F20801969093F208C8
:1015B0008093F1080E940A17C114D10459F40E94C3
:1015C000D71FC12CD12C06C00E940A17F8CF0E9449
:1015D0000A17F5CFC601DF91CF911F910F91FF90B0
:1015E000EF90DF90CF900895CF93DF93009799F11C
:1015F000FC013497228133814091ED085091EE082F
:10160000B90164237523672B31F160817181672BE8
:1016100011F5EF0140955095242335233383228320
:101620000E94C6152091F5083091F6088A819B81A9
:10163000820F931F9093F6088093F508CE01BFDECA
:101640008091EF089091F00801969093F0088093B4
:10165000EF080E940A17DF91CF910895FC010396CD
:10166000928381834FEF5FEFBA0143835483658395
:101670007683908787839287818710820895FC0103
:101680001386128608950F931F93CF93DF93EB0178
:10169000088119812A813B810F3F4FEF14072407EE
:1016A000340721F4FC01A185B28511C0DC01139639
:1016B00001C0DF011496ED91FC9115974081518195
:1016C00062817381041715072607370790F7149670
:1016D000ED91FC911597FD83EC83D783C683BF837F
:1016E000AE831596DC93CE9314979B878A87FC0173
:1016F00020812F5F2083DF91CF911F910F9108955B
:10170000CF93DF93FC01A285B385C481D581868107
:1017100097819F838E83C681D781848195819D83A4
:101720008C8311968D919C911297E817F90731F4EB
:101730008681978112969C938E93119713861286B9
:101740008C9181508C938C91DF91CF910895FC0105
:10175000608331977083319710823197108231976F
:1017600020E82083319710823197108231971082C0
:10177000779740833197508386970895A89590EC8A
:1017800088E10FB6F894A895809360000FBE9093FF
:101790006000A0918013B0918113CD91CDBFDD91F8
:1017A000DEBFFF91EF91DF91CF91BF91AF919F91FC
:1017B0008F917F916F915F914F913F912F911F91E9
:1017C0000F91FF90EF90DF90CF90BF90AF909F90E0
:1017D0008F907F906F905F904F903F902F901F90D1
:1017E0000F900CBE0F900BBE0F900FBE0F90089580
:1017F00081E008950F920FB6F8940F920BB60F92F6
:101800000CB60F921F9211242F923F924F925F922B
:101810006F927F928F929F92AF92BF92CF92DF9200
:10182000EF92FF920F931F932F933F934F935F93EA
:101830006F937F938F939F93AF93BF93CF93DF93D8
:10184000EF93FF93A0918013B09181130DB60D9289
:101850000EB60D920E940918A0918013B0918113C9
:10186000CD91CDBFDD91DEBFFF91EF91DF91CF91A3
:10187000BF91AF919F918F917F916F915F914F91A8
:101880003F912F911F910F91FF90EF90DF90CF909C
:10189000BF90AF909F908F907F906F905F904F9090
:1018A0003F902F901F900F900CBE0F900BBE0F908B
:1018B0000FBE0F9008950F920FB6F8940F920BB6CB
:1018C0000F920CB60F921F9211242F923F924F92BB
:1018D0005F926F927F928F929F92AF92BF92CF92C0
:1018E000DF92EF92FF920F931F932F933F934F93AB
:1018F0005F936F937F938F939F93AF93BF93CF9398
:10190000DF93EF93FF93A0918013B09181130DB6F5
:101910000D920EB60D9213BE0E94DA1581110E942F
:101920000918A0918013B0918113CD91CDBFDD91A5
:10193000DEBFFF91EF91DF91CF91BF91AF919F916A
:101940008F917F916F915F914F913F912F911F9157
:101950000F91FF90EF90DF90CF90BF90AF909F904E
:101960008F907F906F905F904F903F902F901F903F
:101970000F900CBE0F900BBE0F900FBE0F900895EE
:101980009ADF18950FB6F8940F92FC01968D0F9080
:101990000FBE81E0911180E008950F931F93CF93C4
:1019A000DF93EC01042F1E8D48A141110CC08881EA
:1019B0009981892B09F042C08C819D810E94A11AD6
:1019C0001D821C8242C0011117C050E08A819B8198
:1019D0000E94B43828A18A819B81820F911D9B832C
:1019E0008A832C813D818217930750F188819981E8
:1019F0009B838A8380E029C050E08E819F810E9472
:101A0000B43888A190E09195819591092E813F810C
:101A1000280F391F3F832E834881598124173507AA
:101A200030F42C813D81820F931F9F838E8302307F
:101A300049F4112349F0115080E007C080E005C04F
:101A400080E003C080E001C080E01F5F1E8FDF9157
:101A5000CF911F910F910895FC0140A14423A9F05B
:101A600050E026813781240F351F378326838481F8
:101A700095812817390720F080819181978386838B
:101A8000CB01668177810C94B4380895EF92FF9270
:101A90000F931F93CF938C010FB6F8940F92FC0114
:101AA000C2A11C16ACF48389811106C011C0F801D3
:101AB0008389811105C00CC07801F3E1EF0EF11CA0
:101AC000C7010E94D31881110E94031AC15079F7EF
:101AD0008FEFF80182A30F900FBE0FB6F8940F920C
:101AE000C1A11C16ACF48085811106C011C0F8019B
:101AF0008085811105C00CC07801F8E0EF0EF11C63
:101B0000C7010E94D31881110E94031AC15079F7AE
:101B10008FEFF80181A30F900FBECF911F910F910E
:101B2000FF90EF900895CF93DF93EC010FB6F894F8
:101B30000F92E881F9818F8D28A190E030E0829F9B
:101B4000A001839F500D929F500D11244E0F5F1FD7
:101B50005D834C831E8EFB83EA830197829FA001E5
:101B6000839F500D929F500D1124CF01840F951F1C
:101B70009F838E838FEF89A38AA361110BC0888511
:101B8000882371F0CE0108960E94D318882341F073
:101B900031DE06C0CE01089661DDCE0143965EDDE2
:101BA0000F900FBE81E0DF91CF9108950F931F93A7
:101BB000CF93DF93082F162F869FC00111248396A1
:101BC0004BDCEC01009769F0111103C09983888305
:101BD00003C08396998388830F8F18A361E0CE0199
:101BE000A2DFCE01DF91CF911F910F9108959F92B7
:101BF000AF92BF92CF92DF92EF92FF920F931F931B
:101C0000CF93DF93CDB7DEB729970FB6F894DEBF39
:101C10000FBECDBF7C015B012E833F834887598770
:101C200010E0992493946C0188E0C80ED11C0FB683
:101C3000F8940F92F701968D878D981710F0023067
:101C4000B1F4402FB501C701A8DEF70193899923AC
:101C500041F0C70143960E94D318882321F0CADDC2
:101C600002C08111C7DD0F900FBE81E051C08E818F
:101C70009F81A885B985892B8A2B8B2B21F40F9006
:101C80000FBE80E045C0111105C0CE0101960E9433
:101C90009919192D0F900FBE79D70FB6F8940F929E
:101CA000F70181A18F3F09F411A2F70182A18F3FB3
:101CB00009F412A20F900FBEBE016A5F7F4FCE01E2
:101CC00001960E94AA1981111EC00FB6F8940F92B6
:101CD000F701968D878D0F900FBE98130FC04E8120
:101CE0005F8168857985C6010E947A18C701CEDEBA
:101CF0000E940A1781119BCF7DDD99CFC701C6DEF7
:101D00000E940A1794CFC701C1DE0E940A1780E023
:101D100029960FB6F894DEBF0FBECDBFDF91CF91ED
:101D20001F910F91FF90EF90DF90CF90BF90AF90F9
:101D30009F9008950F93CF93DF93482F60E081E049
:101D400035DFEC01009761F01D821C821982188238
:101D50001E8200E020E030E0A90160E070E047DF93
:101D6000CE01DF91CF910F910895EF92FF920F93E3
:101D70001F93CF93DF938A01FC01568D378D531744
:101D800010F02230F9F4422F7801EC011AA18E8D67
:101D9000CE0103DE1F3F81F48B898823A9F0CE0199
:101DA00043960E94D318882389F0E114F10481F04E
:101DB00081E0F70180830DC0FF24F394F10EFAA2B5
:101DC00081E007C080E005C081E003C081E001C080
:101DD00081E0DF91CF911F910F91FF90EF900895D7
:101DE0009F92AF92BF92CF92DF92EF92FF920F93AA
:101DF0001F93CF93DF93CDB7DEB729970FB6F89433
:101E0000DEBF0FBECDBF8C015B012E833F834887B1
:101E10005987E12C992493946C0183E1C80ED11C5D
:101E20000FB6F8940F92F801F68CFF2099F0B501E7
:101E3000C80112DEFA94F801F68E8085882331F00D
:101E4000C80108960E94D3188111D4DC0F900FBEF0
:101E500081E04DC08E819F81A885B985892B8A2B11
:101E60008B2B21F40F900FBE80E041C0E11005C024
:101E7000CE0101960E949919E92C0F900FBE86D6CB
:101E80000FB6F8940F92F80181A18F3F09F411A2C7
:101E9000F80182A18F3F09F412A20F900FBEBE017C
:101EA0006A5F7F4FCE0101960E94AA19811116C068
:101EB000C80168DD882371F04E815F81688579856E
:101EC000C6010E947A18C801E1DDA4D78111A8CF0C
:101ED00091DCA6CFC801DADD9DD7A2CFC801D6DD3F
:101EE00099D7C8014FDD882309F49ACF80E029965D
:101EF0000FB6F894DEBF0FBECDBFDF91CF911F911B
:101F00000F91FF90EF90DF90CF90BF90AF909F9098
:101F10000895BF92CF92DF92EF92FF920F931F939B
:101F2000CF93DF93CDB7DEB729970FB6F894DEBF16
:101F30000FBECDBF8C014E835F8368877987B12C3C
:101F4000D12CCC24C3947C0183E1E80EF11C0FB6A4
:101F5000F8940F92D8015E968C915E978823E1F0F9
:101F600081505E968C935E978D919C91892B29F47C
:101F70000E94631BF80195838483D80118968C9185
:101F8000882331F0C80108960E94D318811132DCF1
:101F90000F900FBE81E07BC08E819F81A885B9859F
:101FA000892B8A2B8B2B21F40F900FBE80E06FC002
:101FB000D11005C0CE0101960E949919DC2C0F901A
:101FC0000FBEE4D50FB6F8940F92F80181A18F3FB0
:101FD00009F411A2D80192968C9192978F3F11F437
:101FE00092961C920F900FBEBE016A5F7F4FCE018A
:101FF00001960E94AA19811125C0C801C3DC88235B
:10200000E9F0F80180819181892B51F40FB6F894A1
:102010000F92848195810E941A1AB82E0F900FBEDC
:102020004E815F8168857985C7010E947A18C80151
:102030002DDDF0D681118BCFDDDB89CFC80126DD08
:10204000E9D685CFC80122DDE5D6C8019BDC88230F
:1020500009F47DCFBB20D1F00FB6F8940F92F801B0
:102060008389882339F0028CF38DE02D80816AE02A
:10207000681B01C060E0D80114968D919C91159762
:102080000E94FC1A0F900FBE80E001C080E02996EC
:102090000FB6F894DEBF0FBECDBFDF91CF911F9179
:1020A0000F91FF90EF90DF90CF90BF900895CF9366
:1020B000DF93EC010FB6F8940F9289A18F3F09F4DA
:1020C00019A28AA18F3F09F41AA20F900FBE8E8D1C
:1020D000811104C0CE0143960E949118CE01D6DC36
:1020E000DF91CF910895FC01448155812281338194
:1020F000240F351F80819181B901681B790BCB01B9
:102100006417750710F0841B950B0895AF92BF926A
:10211000CF92DF92EF92FF920F931F93CF93DF93B3
:102120006C015B017A01FC01C281D38104811581BC
:102130000C1B1D0B4017510708F48A01F60184851A
:102140009585A801B5018C0F9D1F0E94B4380E150E
:102150001F0558F4A701401B510BB501600F711FFB
:10216000F601848595850E94B438CE018E0D9F1DA1
:10217000F601248135818217930710F0821B930B9F
:10218000F60193838283C701DF91CF911F910F9155
:10219000FF90EF90DF90CF90BF90AF900895CF92D7
:1021A000DF92EF92FF920F931F93CF93DF931F92D3
:1021B0001F92CDB7DEB75A83498321153105C9F087
:1021C0006B017C01FC01868580FD08C0CA012417D3
:1021D000350708F4C9019A83898311C02017310794
:1021E00058F042E050E0BE016F5F7F4FC7018EDFC5
:1021F00006C080E090E008C080E090E005C0498122
:102200005A81B601C70182DF0F900F90DF91CF9105
:102210001F910F91FF90EF90DF90CF900895AF92B4
:10222000BF92CF92DF92EF92FF920F931F93CF93C3
:10223000DF937C015B01E9014217530708F4EA01CF
:10224000209779F1F70100811181C480D580C01AEF
:10225000D10ACC15DD0508F46E01F701648575859A
:10226000600F711FA601C5010E94B438CC16DD06AF
:1022700058F4AE014C195D09F70164857585C501F7
:102280008C0D9D1D0E94B4380C0F1D1FF701848119
:1022900095810817190710F0081B190BF701118316
:1022A0000083CE01DF91CF911F910F91FF90EF90AE
:1022B000DF90CF90BF90AF900895FF920F931F9340
:1022C000CF93DF938B01FF24F394413009F0F12C7D
:1022D0000115110511F401E010E09C01205F3F4F52
:1022E00082179307B0F4EC012196C901B5D8FC011F
:1022F000892B89F08FE0DF011D928A95E9F7CF01E4
:102300000F9695878487D583C48317830683F686C3
:1023100002C0E0E0F0E0CF01DF91CF911F910F917B
:10232000FF9008950FB6F8940F92DC0118962D9146
:102330003C911997232B51F51A962D913C911B979F
:10234000232B31F51E962C911E9716964D915C917C
:10235000179714966D917C9115971C96ED91FC91B1
:102360001D973FE01D923A95E9F7DC011D96FC931D
:10237000EE931C9715967C936E93149717965C9327
:102380004E9316971E962C9381E003C080E001C007
:1023900080E00F900FBE0895FC012481358180817B
:1023A000918142815381820F931F0197841B950B6A
:1023B0008217930710F0821B930B08952F923F9280
:1023C0004F925F926F927F928F929F92AF92BF9245
:1023D000CF92DF92EF92FF920F931F93CF93DF93F1
:1023E000CDB7DEB72B970FB6F894DEBF0FBECDBFCB
:1023F0004C017B876A871A010E831F8328873987E0
:10240000FC01848195810197268520FF0CC02A015B
:10241000F2E04F0E511C8415950550F41E821F8268
:102420001886198645C02A018417950708F42C01DF
:102430008E819F81A885B985892B8A2B8B2B09F4E6
:1024400037C0CE0101965FD70FB6F8940F92C40142
:10245000A3DF3C018415950530F560E080E090E055
:102460000E942F1ED4D7F401938782870F900FBE4E
:10247000AE80BF80C884D984E12CF12C00E010E04C
:10248000980140E050E0BA0180E00E94751BF40121
:1024900013861286BE016A5F7F4FCE0101965AD71E
:1024A000882391F202C00F900FBE6114710419F4D9
:1024B000C40172DF3C0182019301A1016A857B8521
:1024C000C4016DDE6C01892BE9F0C4010CDEF4015E
:1024D0002681378182179307A8F058D3F4018085AD
:1024E0009185892B71F080859185E12CF12C00E09C
:1024F00020E030E0A90160E00E941D1CF40111867B
:10250000108688D4C6012B960FB6F894DEBF0FBE96
:10251000CDBFDF91CF911F910F91FF90EF90DF9092
:10252000CF90BF90AF909F908F907F906F905F9073
:102530004F903F902F900895AF92BF92CF92DF922D
:10254000EF92FF920F931F93CF93DF93EC017B01E8
:102550005A0169018E8580FF04C08A010E5F1F4FFA
:1025600001C08A01CE0118DF9C01A501B701CE018F
:1025700016DE5C01892BC1F0CE01B5DD2E813F81D5
:102580008217930788F088859985892B69F088855B
:102590009985E12CF12C00E020E030E0A90160E019
:1025A0000E94111D19861886C501DF91CF911F91D8
:1025B0000F91FF90EF90DF90CF90BF90AF90089574
:1025C0002F923F924F925F926F927F928F929F9243
:1025D000AF92BF92CF92DF92EF92FF920F931F9331
:1025E000CF93DF931F921F92CDB7DEB74C011B0133
:1025F0002A0158016901FC01868580FD03C0612C18
:10260000712C04C06894662461F8712CA114B10483
:10261000C104D10449F10FB6F8940F92C40163DDEF
:102620008C016816790648F060E080E090E00E9436
:102630002F1EEDD6F401918780870F900FBE601694
:102640007106C0F0E12CF12C00E010E0980140E0B0
:1026500050E0BA0180E00E94751BF40111861086DB
:10266000C40141DD8C0103C0C4013DDD8C01601655
:102670007106C8F561147104C1F0F401C080D18005
:102680009801A301BE016F5F7F4FC401C8DD89813E
:102690009A81061917094816590630F4F401D182B7
:1026A000C082412C512C01C02C019801A201B10122
:1026B000C401B5DD6C01892BC1F068D2F4018285BB
:1026C0009385892B71F082859385E12CF12C00E0B4
:1026D00020E030E0A90160E00E941D1CF401138697
:1026E000128698D302C0C12CD12CC6010F900F9036
:1026F000DF91CF911F910F91FF90EF90DF90CF90DE
:10270000BF90AF909F908F907F906F905F904F9011
:102710003F902F900895E091FA12F091FB12808182
:1027200081110CC08FEF9FEFDC018093C412909356
:10273000C512A093C612B093C7120895E091FA1281
:10274000F091FB120780F085E02D80819181A281BC
:10275000B3818093C4129093C512A093C612B09314
:10276000C71208958F929F92AF92BF92CF92DF923D
:10277000EF92FF92CF93DF936B017C01C42F809087
:10278000D1129090D212A090D312B090D412809116
:1027900080139091811302960E94800B8FEFC816D0
:1027A000D806E806F806B1F5CC23A1F1E6EDF2E192
:1027B000A181B281C0918013D0918113BF83AE8378
:1027C000C0918013D091811316968D919C9117978B
:1027D000998788871696CD91DC9117978091801301
:1027E0009091811302969D838C83809180139091A8
:1027F0008113029617969C938E931697A09180133F
:10280000B09181131D96FC93EE931C9780818F5F8E
:1028100080833FC0C80CD91CEA1CFB1CE0918013CC
:10282000F0918113C282D382E482F582C814D90464
:10283000EA04FB0468F46091801370918113809125
:10284000F8129091F9126E5F7F4F0E94430B21C0E6
:1028500060918013709181138091FA129091FB1214
:102860006E5F7F4F0E94430B8091C4129091C512FE
:10287000A091C612B091C712C816D906EA06FB0687
:1028800040F4C092C412D092C512E092C612F092E7
:10289000C712DF91CF91FF90EF90DF90CF90BF9064
:1028A000AF909F908F9008954F925F926F927F921A
:1028B0008F929F92AF92BF92CF92DF92EF92FF9250
:1028C0000F931F93CF93DF934C016B015A012901A2
:1028D000CA010E942C0A3C01892B09F40DC184E332
:1028E00090E00E942C0AEC01892B99F07C8E6B8E73
:1028F000A50165EA70E0C3010E94BD3881E0A81A15
:10290000B1088B8D9C8DA80EB91EC114D10429F479
:1029100020C0C3010E94F40AEFC0D6018C918D8FB4
:102920008C918823A1F0AE01425E5F4FF601319693
:10293000B0E1CB0ED11CCF012191DA012D93AD0175
:10294000DC018C91882319F0CE16DF06A1F71CA6B6
:1029500001C01D8E0A3008F009E00A8F0DA71EA6DF
:102960006E01B2E0CB0ED11CC6010E943F0BCE011E
:102970000E960E943F0BDB87CA878AE090E0A0E0BA
:10298000B0E0801B9109A109B1098E879F87A88BB0
:10299000B98BDF8BCE8B84E0FE01BF96DF011D92E9
:1029A0008A95E9F71BAAA201B401C5010E94A70BF1
:1029B00099838883E114F10419F0F701D183C0836E
:1029C0000FB6F8940F928091D5128F5F8093D51235
:1029D0008091801390918113892BD1F5D09381132D
:1029E000C09380138091D512813009F041C002E17B
:1029F00013E10F2EF0E8EF2EF3E1FF2EF02DC801CA
:102A00000E942E0B055F1F4F0E151F05C1F787E0B3
:102A100093E10E942E0B8CEF92E10E942E0B8DEE23
:102A200092E10E942E0B82EE92E10E942E0B86ED27
:102A300092E10E942E0B87E093E19093FB1280932A
:102A4000FA128CEF92E19093F9128093F81210C071
:102A50008091CF1281110CC0E0918013F09181130D
:102A6000928D8A8D891720F0D0938113C0938013A3
:102A70008091C8128F5F8093C812EA8D8091D01226
:102A80008E1710F4E093D0128BE08E9FF00111248A
:102A9000EE5EFC4E0180F281E02DFF83EE83268105
:102AA000378139872887A681B7811596DC92CE9227
:102AB0001497D782C682EA8D8E9FF0011124EE5EB4
:102AC000FC4EFD87EC8780818F5F80830F900FBE67
:102AD0008091CF12882361F0E0918013F0918113EF
:102AE000928D8A8D981730F40E94FA0B81E005C010
:102AF00081E003C081E001C08FEFDF91CF911F9192
:102B00000F91FF90EF90DF90CF90BF90AF909F908C
:102B10008F907F906F905F904F900895EF92FF920B
:102B20000F930F2EF2ECEF2EF2E1FF2EF02D00E0CE
:102B300020E030E040EC50E062E074E08EE091E0B4
:102B4000B3DE8130E9F40E94BB1E8130C9F4F894F1
:102B50008FEF9FEFDC018093C4129093C512A09376
:102B6000C612B093C71281E08093CF121092D11297
:102B70001092D2121092D3121092D4120E94BE0B55
:102B800080910C020F91FF90EF9008958091C112F7
:102B90008F5F8093C11208950FB6F8940F926091E1
:102BA000D1127091D2128091D3129091D4120F90C1
:102BB0000FBE0895CF92DF92EF92FF920F931F9373
:102BC000CF93DF938091C112811107C1C090D112C0
:102BD000D090D212E090D312F090D4128FEFC81A96
:102BE000D80AE80AF80AC092D112D092D212E09222
:102BF000D312F092D412C114D104E104F104B1F45F
:102C00008091FA129091FB122091F8123091F912F2
:102C10003093FB122093FA129093F9128093F812DA
:102C20008091C9128F5F8093C91275DD8091C412A3
:102C30009091C512A091C612B091C712C816D906BC
:102C4000EA06FB0610F480E0B3C080E04BE051E000
:102C5000E091FA12F091FB12908191110CC04FEFAC
:102C60005FEFBA014093C4125093C5126093C6122D
:102C70007093C7129DC0E091FA12F091FB12078089
:102C8000F085E02D0084F185E02D028113812481FF
:102C90003581C016D106E206F30648F40093C4124B
:102CA0001093C5122093C6123093C71281C0A48519
:102CB000B585C681D781208531853F832E83C08528
:102CC000D185268137813D832C839F012E5F3F4F25
:102CD00011966D917C9112976217730731F460859C
:102CE000718512967C936E931197158614869C912C
:102CF00091509C93A08DB18D109709F1C289D38911
:102D0000648975897F836E83C489D5896289738953
:102D10007D836C831196CD91DC911297BF01625F28
:102D20007F4FC617D70731F46489758912967C9353
:102D30006E931197118E108E9C9191509C93A28D41
:102D40009091D0129A1710F4A093D0124A9FD001FC
:102D50001124AE5EBC4E11960D90BC91A02DB78390
:102D6000A68316966D917C9117977187608716964A
:102D7000CD91DC9117973D832C8317963C932E932E
:102D80001697A28D4A9FD0011124AE5EBC4EB58726
:102D9000A4879C919F5F9C93A0918013B091811315
:102DA000228D5A969C91291708F452CF852F50CF27
:102DB000E0918013F0918113E28D9BE0E99FF00197
:102DC0001124EE5EFC4E9081923008F081E09091EB
:102DD000CA129923B1F081E014C08091CB12909176
:102DE000CC12A091CD12B091CE120196A11DB11DB1
:102DF0008093CB129093CC12A093CD12B093CE12AD
:102E000080E0DF91CF911F910F91FF90EF90DF90C5
:102E1000CF900895CF92DF92EF92FF920F931F937E
:102E2000CF93DF930FB6F8940F928091C112815027
:102E30008093C1128091C1128111C4C08091D512BA
:102E400081118BC0C2C0D8011796ED91FC911897E3
:102E50000084F185E02DA08DB18D828993896489EC
:102E60007589EC017F836E83848995896289738972
:102E7000EC017D836C83CF010E9611966D917C9150
:102E800012976817790731F48489958912969C9373
:102E90008E931197118E108E8C9181508C93A485F6
:102EA000B5858681978160857185EC017F836E830E
:102EB0008085918566817781EC017D836C83CF016C
:102EC000029611966D917C9112976817790731F4EB
:102ED0006085718512967C936E9311971586148682
:102EE0002C9121502C93A28D2091D0122A1710F4EE
:102EF000A093D0123A9FD0011124AE5EBC4E119621
:102F00000D90BC91A02DB783A68316966D917C91F0
:102F100017977187608716966D917C911797EB01D3
:102F20009D838C8317969C938E931697A28D3A9FC0
:102F3000D0011124AE5EBC4EB587A4878C918F5F03
:102F40008C93A0918013B0918113928D5A968C919D
:102F5000981748F04093CA1206C0E0E0F0E00DEE8A
:102F600012E13BE041E0D8018C9181116CCFEF2B55
:102F700009F0D1DBC090CB12D090CC12E090CD12F2
:102F8000F090CE12C114D104E104F10499F0C1E033
:102F900011DE8111C093CA12B1E0CB1AD108E10849
:102FA000F108B1F71092CB121092CC121092CD1200
:102FB0001092CE128091CA12882331F00E94FA0B2F
:102FC00081E003C080E001C080E00F900FBEDF9180
:102FD000CF911F910F91FF90EF90DF90CF900895C8
:102FE000CF92DF92EF92FF926B017C01672B682BEF
:102FF000692B41F0CBDD40E0C701B601B3DB0ADF4E
:10300000811102C00E94FA0BFF90EF90DF90CF90E9
:1030100008958091C112882321F081E08093CA1223
:1030200008951092CA12A0918013B0918113E0917B
:103030008013F09181132D913C91838D948D821793
:10304000930758F0609180137091811380918013E1
:1030500090918113635E7F4FB6D78091D012282F55
:1030600030E09BE0899FF0011124EE5EFC4E9081E0
:1030700091110EC04BE08150282F30E0429FF001AB
:10308000439FF00D1124EE5EFC4E9081992399F33D
:103090009BE0929FA001939F500D1124DA01AE5E38
:1030A000BC4E1196ED91FC9112970480F581E02DB4
:1030B0001296FC93EE9311974B5E5C4EE417F50766
:1030C00029F444815581FD01528341839BE0929F05
:1030D000F001939FF00D1124EE5EFC4E0180F28111
:1030E000E02D2085318530938113209380138093C8
:1030F000D0120895CF92DF92EF92FF926A017B0186
:103100006091801370918113625F7F4F0E94430B27
:1031100041E0C701B60126DBFF90EF90DF90CF9032
:103120000895CF93DF93FC01CB01BA01A181B28155
:10313000C0918013D0918113BB8BAA8BC091801357
:10314000D091811316964D915C9117975D8B4C8BA6
:103150001696CD91DC911797409180135091811371
:10316000425F5F4F5D834C83409180135091811388
:10317000425F5F4F17965C934E931697A091801312
:10318000B09181135996FC93EE93589730813F5F2D
:103190003083222319F06FEF7FEFCB01422FE2DA69
:1031A000DF91CF910895CF93DF93DC011796ED91D6
:1031B000FC9118970084F185E02DA08DB18DC28916
:1031C000D389848995899F838E83C489D58982898F
:1031D00093899D838C839F01225F3F4F11968D9130
:1031E0009C9112978217930731F4848995891296DE
:1031F0009C938E931197118E108E8C9181508C938D
:103200008091C112811152C0A485B585C681D78134
:10321000808591859F838E83C085D18586819781A6
:103220009D838C839F012E5F3F4F11968D919C91C2
:1032300012978217930731F48085918512969C939B
:103240008E931197158614868C9181508C93A28D44
:103250008091D0128A1710F4A093D0128BE08A9F2D
:10326000D0011124AE5EBC4E11960D90BC91A02DE4
:10327000B783A68316964D915C9117975187408727
:103280001696CD91DC9117973D832C8317963C932E
:103290002E931697A28D8A9FD0011124AE5EBC4E4C
:1032A000B587A4878C918F5F8C931CC04DEE52E143
:1032B000DA011196CD91DC911297D38BC28B8E815E
:1032C0009F81958B848B8E819F81DC0115963C9329
:1032D0002E9314973F832E83518F408FDA018C9168
:1032E0008F5F8C93A0918013B0918113928D5A9629
:1032F0008C91891720F481E08093CA1201C080E08C
:10330000DF91CF9108950FB6F8940F922091C912D2
:10331000FC0120834091D1125091D2126091D312BE
:103320007091D41241835283638374830F900FBED4
:1033300008952091C912FC0120834091D11250912F
:10334000D2126091D3127091D4124183528363835D
:1033500074830895CF92DF92EF92FF920F931F93A1
:10336000CF93DF93FB010FB6F8940F924091D112E7
:103370005091D2126091D3127091D41200811181B8
:10338000228133810F3FAFEF1A072A073A0779F1FD
:10339000EC01C980DA80EB80FC80A091C912B88171
:1033A000BA1759F04C155D056E057F0530F0108297
:1033B00011821282138281E01BC04C195D096E09D3
:1033C0007F09401751076207730758F4041B150B58
:1033D000260B370B0083118322833383AADF80E01F
:1033E00007C0108211821282138281E001C080E046
:1033F0000F900FBEDF91CF911F910F91FF90EF9033
:10340000DF90CF90089581E08093CA120895809153
:1034100080139091811308958091CF12882331F009
:103420008091C112882321F080E0089581E0089501
:1034300082E008950F931F93CF93DF93FC01892BB4
:1034400009F479C0828DA0918013B09181135A96AE
:103450009C91891708F063C04685578560897189FA
:10346000772394F0A0918013B09181135A969C9188
:103470004AE050E060E070E0491B510961097109C0
:1034800046875787608B718B2BE0829FC001112488
:103490008E5E9C4E2485358528173907B9F5EF01D6
:1034A0008F010E5F1F4FC8010E94800BE0918013B7
:1034B000F0918113E28DEA8F8091D0128E1710F473
:1034C000E093D0128BE08E9FF0011124EE5EFC4E53
:1034D0000180F281E02DFF83EE83268137813987D9
:1034E0002887A681B78115961C930E93149717838E
:1034F0000683EA8D8E9FF0011124EE5EFC4EFD875F
:10350000EC8780818F5F808381E016C0A09180135B
:10351000B09181135A968C91828F81E00DC0A09159
:103520008013B091811381E025A55A969C912917AB
:1035300018F080E001C080E0DF91CF911F910F91E2
:1035400008950F931F93CF93DF93FC01892B09F408
:1035500049C086A5815086A7228D95A5291709F413
:1035600043C0811143C0EF018F010E5F1F4FC8019F
:103570000E94800BEDA5EA8F8AE090E0A0E0B0E029
:103580008E1B9109A109B1098E879F87A88BB98BE2
:103590008091D0128E1710F4E093D0128BE08E9FA2
:1035A000F0011124EE5EFC4E0180F281E02DFF83DC
:1035B000EE832681378139872887A681B7811596C2
:1035C0001C930E93149717830683EA8D8E9FF00148
:1035D0001124EE5EFC4EFD87EC8780818F5F808337
:1035E00081E005C080E003C080E001C080E0DF91A1
:1035F000CF911F910F9108950F931F93CF93DF9356
:10360000FC01892B09F45AC085A5861708F4862F7A
:10361000928D981709F452C026A5213009F04EC0AA
:10362000828F4685578560897189772364F04AE0E7
:1036300050E060E070E0481B51096109710946875C
:103640005787608B718B2BE0929FC00111248E5E97
:103650009C4E248535852817390781F5EF018F01A8
:103660000E5F1F4FC8010E94800BEA8D8091D0121F
:103670008E1710F4E093D0128BE08E9FF00111248E
:10368000EE5EFC4E0180F281E02DFF83EE83268109
:10369000378139872887A681B78115961C930E93A9
:1036A000149717830683EA8D8E9FF0011124EE5E36
:1036B000FC4EFD87EC8780818F5F8083DF91CF9107
:1036C0001F910F9108958091801390918113892B00
:1036D00039F0E0918013F091811386A58F5F86A762
:1036E000809180139091811308954F925F926F9211
:1036F0007F92AF92BF92CF92DF92EF92FF920F93A1
:103700001F93CF93DF93280139010FB6F8940F92DE
:10371000E0918013F0918113C82FD0E0EC0FFD1FD2
:1037200083A9823079F1E0918013F0918113CE0169
:10373000880F991F880F991FE80FF91F87A590A977
:10374000A1A9B2A940955095609570954823592339
:103750006A237B2347A750AB61AB72ABE091801328
:10376000F0918113EC0FFD1F81E083ABA114B10434
:10377000C104D10439F041E0C601B5010E94B21381
:103780000E94FA0B0F900FBE0FB6F8940F92E1143F
:10379000F104A1F0E0918013F0918113CE01880F24
:1037A000991F880F991FE80FF91F87A590A9A1A954
:1037B000B2A9F70180839183A283B383E091801340
:1037C000F0918113EC0FFD1F83A98230E9F4E091A1
:1037D0008013F0918113CE01880F991F880F991FD4
:1037E000E80FF91F87A590A9A1A9B2A94094509408
:1037F00060947094482259226A227B2247A650AADC
:1038000061AA72AA81E001C080E02091801330910A
:103810008113C20FD31F1BAA0F900FBEDF91CF9150
:103820001F910F91FF90EF90DF90CF90BF90AF90DE
:103830007F906F905F904F9008958F929F92AF927C
:10384000BF92EF92FF920F93CF93DF93DC010FB6FD
:10385000F8940F92E114F10479F0FC0184E0689F80
:10386000E00DF11D112487A490A8A1A8B2A8F7012A
:1038700080829182A282B38270E0FD01E60FF71F81
:1038800083A992E093AB0230F9F018F4013031F0E3
:1038900049C0033069F10430B9F144C0660F771FA5
:1038A000660F771FFD01E60FF71F87A490A8A1A858
:1038B000B2A8BA01A901482959296A297B2947A731
:1038C00050AB61AB72AB2EC0660F771F660F771FD0
:1038D000FD01E60FF71F47A550A961A972A94F5F27
:1038E0005F4F6F4F7F4F47A750AB61AB72AB1AC0B2
:1038F000660F771F660F771FFD01E60FF71F27A7DB
:1039000030AB41AB52AB0EC0823009F479C0660FC8
:10391000771F660F771FFD01E60FF71F27A730AB54
:1039200041AB52AB813009F06DC01C96ED91FC911A
:103930001D971696CD91DC91179718968D919C91B5
:1039400019979F838E831896CD91DC9119971696BF
:103950008D919C9117979D838C839D012E5F3F4F86
:10396000818192818217930731F418968D919C91F1
:103970001997928381831D961C921E921C978081B9
:10398000815080835A96EC915A978091D0128E176D
:1039900010F4E093D0128BE08E9FF0011124EE5EC4
:1039A000FC4E0180F281E02D1796FC93EE93169762
:1039B0004681578119965C934E931897C681D7819B
:1039C0003D832C83378326835A96EC915A978E9F9A
:1039D000F0011124EE5EFC4E1D96FC93EE931C97B5
:1039E00080818F5F8083E0918013F09181135A96DC
:1039F0009C91828D891740F40E94FA0B81E005C0EA
:103A000080E003C081E001C081E00F900FBEDF9134
:103A1000CF910F91FF90EF90BF90AF909F908F90BC
:103A200008958F929F92AF92BF92CF92DF92EF92C2
:103A3000FF920F93CF93DF93DC01E114F10479F04F
:103A4000FC0184E0689FE00DF11D112487A490A87B
:103A5000A1A8B2A8F70180829182A282B38270E00D
:103A6000FD01E60FF71F83A992E093AB0230F9F056
:103A700018F4013031F049C0033069F10430B9F174
:103A800044C0660F771F660F771FFD01E60FF71F13
:103A900087A490A8A1A8B2A8BA01A90148295929C8
:103AA0006A297B2947A750AB61AB72AB2EC0660F6A
:103AB000771F660F771FFD01E60FF71F47A550A977
:103AC00061A972A94F5F5F4F6F4F7F4F47A750AB00
:103AD00061AB72AB1AC0660F771F660F771FFD01CF
:103AE000E60FF71F27A730AB41AB52AB0EC08230B9
:103AF00009F4A4C0660F771F660F771FFD01E60F5C
:103B0000F71F27A730AB41AB52AB813009F098C00B
:103B10008091C11281115FC01C96ED91FC911D979F
:103B20001696CD91DC91179718968D919C911997C7
:103B30009F838E831896CD91DC91199716968D915F
:103B40009C9117979D838C839D012E5F3F4F8181B0
:103B500092818217930731F418968D919C91199751
:103B6000928381831D961C921E921C9780818150A6
:103B700080835A96EC915A978091D0128E1710F448
:103B8000E093D0128BE08E9FF0011124EE5EFC4E8C
:103B90000180F281E02D1796FC93EE9316974681F3
:103BA000578119965C934E931897C681D7813D83B0
:103BB0002C83378326835A96EC915A978E9FF00177
:103BC0001124EE5EFC4E1D96FC93EE931C978081B3
:103BD0008F5F808320C04DEE52E1FA01C181D28116
:103BE0005396DC93CE9352978E819F8155969C93EA
:103BF0008E9354972E813F81CD010E96F9019583C6
:103C000084839F838E8359965C934E935897FA01D1
:103C100080818F5F8083E0918013F09181135A96A9
:103C20009C91828D891770F4C114D10419F081E040
:103C3000F601808381E08093CA1205C080E003C052
:103C400081E001C081E0DF91CF910F91FF90EF9073
:103C5000DF90CF90BF90AF909F908F900895009786
:103C600021F480918013909181130FB6F8940F92F4
:103C700070E0FC01E60FF71F23A9223031F4FC01AC
:103C8000E60FF71F13AA81E001C080E00F900FBE7E
:103C90000895CF92DF92EF92FF920F931F93FC0152
:103CA0004283538364837583938782870417150740
:103CB00026073707C0F00C191D092E093F09868514
:103CC0009785A089B189081719072A073B0700F5CE
:103CD000BF016E5F7F4F80918A1390918B130E947A
:103CE000430B80E018C00C151D052E053F0528F478
:103CF0004C155D056E057F0568F4BF016E5F7F4F53
:103D000080918C1390918D130E94430B80E003C02F
:103D100081E001C081E01F910F91FF90EF90DF9053
:103D2000CF9008950FB6F8940F92809188139091D8
:103D30008913892BE9F489E993E10E942E0B8EE81F
:103D400093E10E942E0B89E993E190938D13809368
:103D50008C138EE893E190938B1380938A1340E049
:103D600067E08AE00E94D60D9093891380938813B0
:103D70000F900FBE0895EF92FF920F93D3DF8091C3
:103D8000881390918913892B91F00F2EF6E8EF2E6E
:103D9000F3E1FF2EF02D03E020E030E040EC50E0B6
:103DA00067E074E088E491E00E94541401C080E070
:103DB0000F91FF90EF9008958F929F92AF92BF92D4
:103DC000CF92DF92EF92FF920F931F93CF93DF93E7
:103DD000CDB7DEB727970FB6F894DEBF0FBECDBFC5
:103DE000E0918813F0918913309781F169832A83D8
:103DF0003B834C835D839F838E836630F4F40CDBBE
:103E0000823069F400E0A7019601BE016F5F7F4F29
:103E100080918813909189130E94F70D18C000E0DB
:103E200020E030E0A901BE016F5F7F4F80918813D1
:103E3000909189130E94F70D0AC020E0A801BE01ED
:103E40006F5F7F4FCF010E94B50E01C080E02796C3
:103E50000FB6F894DEBF0FBECDBFDF91CF911F919B
:103E60000F91FF90EF90DF90CF90BF90AF909F9019
:103E70008F9008952F923F924F925F926F927F9210
:103E80008F929F92AF92BF92CF92DF92EF92FF926A
:103E90000F931F93CF93DF931C010E94CC152B012E
:103EA0003C018091821390918313A0918413B0916F
:103EB0008513481659066A067B0608F053C03BC0B6
:103EC0000780F085E02D80809180A280B380C0853E
:103ED000D1858E010E5F1F4FC8010E94800BEC89B7
:103EE000FD89CE0119958E8982FF25C08E859F851B
:103EF000A889B989880D991DAA1DBB1D8816990628
:103F0000AA06BB0670F48A839B83AC83BD83DB87E0
:103F1000CA87B80180918C1390918D130E94430B36
:103F20000AC0C12CD12C760100E010E0A50194015B
:103F300060E0CE0141DFE0918C13F0918D13808120
:103F40008111BECF80918A1390918B1390938D1322
:103F500080938C13F0938B13E0938A1381E0F1012B
:103F6000808302C0F1011082409282135092831329
:103F70006092841370928513C301B201DF91CF91D7
:103F80001F910F91FF90EF90DF90CF90BF90AF9077
:103F90009F908F907F906F905F904F903F902F9069
:103FA00008950895279A2F9A08951F9A0895FADF81
:103FB0002FEF80E792E0215080409040E1F700C071
:103FC0000000F3DFF5CFEEDF2FEF87EA91E6215017
:103FD00080409040E1F700C00000E7DFF5CFCF93CD
:103FE000DF93CDB7DEB78C8590E0982F88272D859D
:103FF000820F911D9F938F938A8590E0982F882739
:104000002B85820F911D9F938F93888590E0982F29
:1040100088272985820F911D9F938F9380E494E0D8
:104020009F938F930E9413390FB6F894DEBF0FBE93
:10403000CDBFDF91CF91089581E00E94A02862E07A
:1040400070E080E090E00E94F01780E00E94A028DD
:1040500066E970E080E090E00E94F01781E00E9445
:1040600006330E94AE280E942B2B9F938F9382E5EC
:1040700094E09F938F930E9413390E942C2A0E94F0
:104080002B2B9F938F9385E694E09F938F930E94B1
:10409000133984ED93E10E94C0280E942B2BC4EDBC
:1040A000D3E1DF93CF939F938F938EE794E09F9319
:1040B0008F930E941339CE010E94DC280E942B2B83
:1040C0009F938F93DF93CF9382E994E09F938F9395
:1040D0000E941339AE0167EA74E088EC94E00E9414
:1040E0000A2B0E942B2B9F938F93DF93CF9387EA0A
:1040F00094E09F938F9388EC94E09F938F9389ED46
:1041000094E09F938F930E9413390E940F290E947D
:104110002B2B9F938F938FE095E09F938F930E941B
:104120001339EDB7FEB7B2960FB6F894FEBF0FBEC7
:10413000EDBF81E00E94092A0E942B2B9F938F9351
:104140008EE195E09F938F930E94133984EF91E065
:104150000E94142A0E942B2B9F938F9381E08F93B0
:1041600084EF8F938FE395E09F938F930E94133991
:104170008DB79EB70A960FB6F8949EBF0FBE8DBF3F
:10418000CAE0D0E00FE515E080E00E941529F82E86
:104190000E942B2B9F938F93DF93CF931F930F93AB
:1041A0000E9413390F900F900F900F900F900F9067
:1041B000F8E0FF1609F4CDC080E00E946A3366E3A0
:1041C00071E080E090E00E94F0172197E9F6BAC014
:1041D0000E94FA0BFDCF0E9446090E94FD08F4D20E
:1041E000362E272E0E944B090E94B907EDD2562E7B
:1041F000472E0E9450090E941306782E692E0E94B5
:104200001605E82E992E0E946905182F092F0E9485
:1042100041052A823B824C825D826E827F82988633
:10422000E9860A871B879C878D8783E00E947C3301
:1042300082B18F2582B9BE0180E00E943E290E9492
:104240002B2B8C018DB79EB746970FB6F8949EBF67
:104250000FBE8DBFADB7BEB7119686E1FE010190CE
:104260000D928A95E1F7BBDEEDB7FEB776960FB6F5
:10427000F894FEBF0FBEEDBFF5E00F371F0721F02A
:1042800022E00938120799F5F60180822CE021839B
:1042900082B198E0892782B90FEF1FEF980146E1BC
:1042A00050E0B6018091A6139091A7130E94E012EE
:1042B000F60181811F928F9380811F928F938FE0EF
:1042C00094E09F938F930E94133900E020E030E048
:1042D000A901B6018091A4139091A5130E94F70D36
:1042E0000F900F900F900F900F900F9021C00658D5
:1042F0001540F1F0882D24D762E070E080E090E076
:104300000E94F01780E01CD766E970E080E090E042
:104310000E94F01780E089D70E942B2B9F938F93E8
:10432000BF92AF920E9413390F900F900F900F9091
:1043300082B18F2582B964E771E080E090E00E944D
:10434000F01749CF81E00E945B3380E00E9429335F
:104350003FCF81E00E944C33EEEBF3E18CE08183B0
:1043600082E08083EF016894FF24F2F80F2EF8EAD0
:10437000CF2EF3E1DF2EF02D882483940F2EF0E969
:10438000AF2EF5E0BF2EF02D26CF4F925F926F92A9
:104390007F928F929F92AF92BF92CF92DF92EF92D5
:1043A000FF920F931F93CF93DF93CDB7DEB7EE88C5
:1043B000F12CFE2CEE248F89E80EF11CC88CD12C38
:1043C000DC2CCC24898DC80ED11C6A8C712C762CE7
:1043D00066248B8D680E711C0C8D10E0102F002749
:1043E0008D8D080F111DAE8CB12CBA2CAA248F8D87
:1043F000A80EB11C88A0912C982C882489A1880E25
:10440000911C9F928F92BF92AF921F930F937F92B6
:104410006F92DF92CF92FF92EF928FEA95E09F9397
:104420008F930E9413390E9446092C01B601DD0CBE
:10443000880B990BFCD1AB01BC01C2010E94800822
:104440000E9446096C01B701FF0C880B990BEFD154
:10445000AB01BC01C6010E94AC080E945009B40126
:104460000E9451060E945009B5010E9475060E94E3
:104470004B097C01B801110F880B990BD8D1AB0106
:10448000BC01C7010E94E4060E944B098C01B301E4
:10449000770C880B990BCBD1AB01BC01C8010E94F2
:1044A00011070FB6F894DEBF0FBECDBFDF91CF91DD
:1044B0001F910F91FF90EF90DF90CF90BF90AF9042
:1044C0009F908F907F906F905F904F900895CF93C3
:1044D000DF93CDB7DEB766970FB6F894DEBF0FBE99
:1044E000CDBF2FEF3FEFA901BE016F5F7F4F8091DE
:1044F000A4139091A5130E94F00E8DB79EB7469716
:104500000FB6F8949EBF0FBE8DBFADB7BEB7119664
:1045100086E1FE01319601900D928A95E1F735DF33
:104520000FB6F894DEBF0FBECDBFDBCFEF92FF9288
:104530000F939093A7138093A61340E066E182E067
:104540000E94D60D9093A5138093A413E12CF12C17
:1045500002E021E030E040EC50E06CEC75E08CE1F2
:1045600090E20E94541421E030E040EC50E063ED12
:1045700075E087E692E20E9454140F91FF90EF904D
:10458000089581B18FEF81B992B181E0892782B915
:1045900092B182E0892782B992B184E0892782B9F9
:1045A00092B188E0892782B992B180E1892782B9E6
:1045B00092B180E2892782B992B180E4892782B9D9
:1045C00082B1805882B980E00E942A3083E090E076
:1045D0000E94072CF6D3882341F08AED95E09F9343
:1045E0008F930E9413390F900F9041E060E070E0CC
:1045F0008CE290E00E945D119093391480933814FE
:10460000BC0181E05DC50895BCDF80E096E00E94BA
:1046100026390E942209809138149091391486DF3E
:104620000E948E15FFCF5058BB27AA270ED075C108
:1046300066D130F06BD120F031F49F3F11F41EF4BD
:104640005BC10EF4E095E7FB51C1E92F77D180F310
:10465000BA17620773078407950718F071F49EF57F
:104660008FC10EF4E0950B2EBA2FA02D0B01B901CE
:1046700090010C01CA01A0011124FF27591B99F0D8
:10468000593F50F4503E68F11A16F040A22F232FE4
:10469000342F4427585FF3CF469537952795A79534
:1046A000F0405395C9F77EF41F16BA0B620B730BDB
:1046B000840BBAF09150A1F0FF0FBB1F661F771F4C
:1046C000881FC2F70EC0BA0F621F731F841F48F401
:1046D000879577956795B795F7959E3F08F0B3CF87
:1046E0009395880F08F09927EE0F97958795089571
:1046F000D9D008F481E008950CD00FC107D140F063
:10470000FED030F021F45F3F19F0F0C0511139C1F3
:10471000F3C014D198F39923C9F35523B1F3951B32
:10472000550BBB27AA2762177307840738F09F5FD2
:104730005F4F220F331F441FAA1FA9F333D00E2E41
:104740003AF0E0E830D091505040E695001CCAF7AE
:1047500029D0FE2F27D0660F771F881FBB1F261773
:1047600037074807AB07B0E809F0BB0B802DBF0146
:10477000FF2793585F4F2AF09E3F510568F0B6C05F
:1047800000C15F3FECF3983EDCF386957795679523
:10479000B795F7959F5FC9F7880F911D96958795F7
:1047A00097F90895E1E0660F771F881FBB1F621716
:1047B00073078407BA0720F0621B730B840BBA0BD4
:1047C000EE1F88F7E095089504D06894B111D9C020
:1047D0000895BCD088F09F5790F0B92F9927B75112
:1047E000A0F0D1F0660F771F881F991F1AF0BA95B5
:1047F000C9F712C0B13081F0C3D0B1E00895C0C094
:10480000672F782F8827B85F39F0B93FCCF38695AA
:1048100077956795B395D9F73EF490958095709507
:1048200061957F4F8F4F9F4F0895E89409C097FB84
:104830003EF490958095709561957F4F8F4F9F4F77
:104840009923A9F0F92F96E9BB279395F6958795BB
:1048500077956795B795F111F8CFFAF4BB0F11F47E
:1048600060FF1BC06F5F7F4F8F4F9F4F16C0882325
:1048700011F096E911C0772321F09EE8872F762F5B
:1048800005C0662371F096E8862F70E060E02AF09C
:104890009A95660F771F881FDAF7880F9695879588
:1048A00097F90895990F0008550FAA0BE0E8FEEF5D
:1048B00016161706E807F907C0F012161306E407E4
:1048C000F50798F0621B730B840B950B39F40A26DD
:1048D00061F0232B242B252B21F408950A2609F4BB
:1048E000A140A6958FEF811D811D089597F99F67BF
:1048F00080E870E060E008959FEF80EC0895002468
:104900000A941616170618060906089500240A9434
:1049100012161306140605060895092E0394000CBA
:1049200011F4882352F0BB0F40F4BF2B11F460FF49
:1049300004C06F5F7F4F8F4F9F4F089557FD905872
:10494000440F551F59F05F3F71F04795880F97FB53
:10495000991F61F09F3F79F087950895121613060D
:104960001406551FF2CF4695F1DF08C0161617063C
:104970001806991FF1CF8695710561050894089571
:10498000E894BB2766277727CB0197F908958ADF3C
:1049900008F48FEF08950BD0C0CFB1DF28F0B6DF59
:1049A00018F0952309F0A2CFA7CF1124EACFC6DFD4
:1049B000A0F3959FD1F3950F50E0551F629FF00132
:1049C000729FBB27F00DB11D639FAA27F00DB11D8B
:1049D000AA1F649F6627B00DA11D661F829F222714
:1049E000B00DA11D621F739FB00DA11D621F839F9B
:1049F000A00D611D221F749F3327A00D611D231F71
:104A0000849F600D211D822F762F6A2F11249F57BE
:104A100050408AF0E1F088234AF0EE0FFF1FBB1FE1
:104A2000661F771F881F91505040A9F79E3F510580
:104A300070F05CCFA6CF5F3FECF3983EDCF3869539
:104A400077956795B795F795E7959F5FC1F7FE2B2B
:104A5000880F911D9695879597F9089581B38F607A
:104A600081BB2898289A21B381E090E000906A14D5
:104A700002C0880F991F0A94E2F78095822381BBB8
:104A8000E0913A14F0913B14309709F0199508958C
:104A90009FB7F894E6E6F4E110828EE981838AE01C
:104AA000828383839FBF0895BF92CF92DF92EF925C
:104AB000FF920F931F93CF93DF936B017C01B42E72
:104AC00010923D1483E0841778F1642F70E080E049
:104AD00090E0ABDE9B01AC0160E070E080E291E42D
:104AE0000E949D35A701960156DF20E030E040E0AE
:104AF0005FE39ADD0E94483567DEAB01772364F4FB
:104B000044275527461B570B21E0483E83E05807B2
:104B10000CF420E011E00CC021E0403187E258079E
:104B20000CF420E010E004C040E050E021E010E090
:104B30000FB7F894222311F0ABDF51C0CAE6D4E1DD
:104B40000F2EF6E6CF2EF4E1DF2EF02D0F2EFAE039
:104B5000EF2EF12CF02DCA01B7010E940B37FC019A
:104B6000EF5EF94F80818A93462F572FCC15DD05D4
:104B700091F743E050E04B19510914161506F4F46F
:104B8000809166148C3F49F060E019C0FC01EA593D
:104B9000FB4E30813C3F21F012C080E090E020E0ED
:104BA000FC01EA59FB4E1082622F2F5F822F022EEA
:104BB000000C990B841795074CF301C060E011239A
:104BC00031F0E62FF0E0EA59FB4E82E08083BB2013
:104BD00031F0FA01EA59FB4E8081816080830FBF7A
:104BE000DF91CF911F910F91FF90EF90DF90CF90C9
:104BF000BF90089585B5856085BD089585B5887F8A
:104C000085BD81B38F6081BB08958F92AF92CF92A3
:104C1000EF920F931F93CF93DF93EC0180B38F60DC
:104C200080BB81B38F6081BB209A8EE295E29F9317
:104C30008F93812CA12CC12CE12C00E010E020E20C
:104C400040E063E080E10E948C3090936C1480938C
:104C50006B1489E187BD84B5826084BDEEE6F0E027
:104C6000808182608083CADFD0933B14C0933A1462
:104C70000F900F90DF91CF911F910F91EF90CF90F8
:104C8000AF908F9008951F920F920FB60F9211243C
:104C90000BB60F922F933F934F935F936F937F9336
:104CA0008F939F93AF93BF93EF93FF9380913D14A6
:104CB000882369F120913E1430913F14253F91E003
:104CC000390738F42F5F3F4F30933F1420933E1441
:104CD0001EC010923F1410923E14E0913C142E2FEF
:104CE00030E090E004972817390714F4EF5F01C013
:104CF000E0E0E0933C14F0E0E05CFB4EA6E6B4E1BB
:104D00002AE634E181918D93A217B307D9F78091F8
:104D10006A1490E0019683709078992324F40197A7
:104D20008C6F9F6F019680936A149927FC01EA5952
:104D3000FB4E6081609580916B1490916C140E9481
:104D40005E31FF91EF91BF91AF919F918F917F91D4
:104D50006F915F914F913F912F910F900BBE0F90EC
:104D60000FBE0F901F9018956530F1F4FA01808105
:104D70008F7390E0982F88272181822B90931002C7
:104D800080930F028281F0E48F9FC0011124FA0109
:104D9000238126952695822B90930E0280930D02F7
:104DA00081E080936D140895643051F080E090E4C8
:104DB00090930E0280930D029093100280930F0245
:104DC00008950F931F9304EB16E220E034E244EFC2
:104DD00050E060E087E20E949F3390936F148093CD
:104DE0006E1421E0892B09F020E0822F1F910F9192
:104DF000089580916E1490916F14009759F040E0DF
:104E000060E070E00E94F033843031F410926D1451
:104E100080E0089582E0089583E0089580916E1403
:104E200090916F14009739F064E00E943C34853013
:104E300021F083E0089582E0089580E00895609174
:104E40000F027091100280E090E0EFDC20E030E093
:104E500048EC52E4A0DD20E038EF4FE756E44CCCBC
:104E6000089560910D0270910E0280E090E0DDDC0B
:104E700020E030E045E253E48EDD20E038EF4FE7FC
:104E800056E43ADC20E030E040E252E4CCCB089536
:104E90000F931F93CF93DF931F921F92CDB7DEB76F
:104EA0008C0119822DC0E091D414EC3250F481E0D1
:104EB0008E0F8093D414F0E0EA5FFA4E8A818083EB
:104EC00002C01092D4148A818A30D1F44091D41453
:104ED00050E0FA01EC5FFA4E1082415051099E01F8
:104EE0002F5F3F4F66E075E18091D7149091D81401
:104EF0000E949C12898181110E94FA0B1092D41495
:104F0000BE016E5F7F4FC8010FD6882361F20F90FC
:104F10000F90DF91CF911F910F9108950F931F93E1
:104F2000CF93DF938C01EB018091D7149091D8142B
:104F30000E949211B80180E794E10E94F438209712
:104F400079F0E0E7F4E101900020E9F7319780E2A1
:104F500090E091838083BE0180E794E10E94E9386C
:104F6000E0E7F4E1DF010D900020E9F711978DE013
:104F70009AE011969C938E9312961C9201900020B9
:104F8000E9F73197E057F441AE2F80E794E1AC01A7
:104F90006A2F8091D9149091DA1471D5811111C0C2
:104FA00008E215E020E030E04DE250E060E675E117
:104FB0008091D7149091D8140E94E01280E695E178
:104FC00002C080E090E0DF91CF911F910F91089592
:104FD0002F923F924F925F926F927F928F929F9209
:104FE000AF92BF92CF92DF92EF92FF920F931F93F7
:104FF000CF93DF935C01FC0101900020E9F731972A
:105000006F01C81AD90A5C2C0F2EF5EA8F2EF8E032
:105010009F2EF02DE12CF12C4C2C3701F401018155
:105020001281E80109900020E9F72197C01BD10BFC
:105030003C2EF9E0CF16D10458F0F4012080FEE0B8
:105040002F1206C0B801C5010E94C438892B09F58A
:10505000442D351408F44C2F50E0B801C5010E94CE
:10506000FB38892B49F4F301EE0FFF1FE60DF71D06
:10507000EB55F74F20800DC08FEFE81AF80AE3E0F8
:105080008E0E911CF1E1EF16F10439F6689422249A
:1050900024F8822DDF91CF911F910F91FF90EF9017
:1050A000DF90CF90BF90AF909F908F907F906F9048
:1050B0005F904F903F902F90089530DF89CF0895F3
:1050C0008F929F92AF92CF92EF920F931F93CF93B5
:1050D000C82F8B0141E060E070E088EC90E00E9416
:1050E0005D119093D8148093D7141093D614009325
:1050F000D5140F2EF8E48F2EF7E29F2EF02D689432
:10510000AA24A6F86894CC24C6F8E12C00E023E099
:1051100040E051EE60E070E08C2FDED39093DA1423
:105120008093D914E7E0F1E0808180618083CF91A2
:105130001F910F91EF90CF90AF909F908F90089517
:10514000882331F0E8E0F1E080818F7E808308954C
:10515000E8E0F1E0808180618083089560E070E0A4
:1051600080E496E0DBDEE0E6F5E101900020E9F77F
:105170003197E056F54181E0759708F080E0089599
:10518000CF93DF93EC0160E070E081E596E0C6DE4E
:10519000E0E6F5E101900020E9F7E157F54139F447
:1051A00060E675E1CE010E94F43880E002C018820A
:1051B00081E0DF91CF910895FC0101900020E9F793
:1051C0009F01215131092817390729F4BC018FE7C4
:1051D00096E073CF089589E00895FC0101900020C6
:1051E000E9F79F01215131092817390729F4BC013A
:1051F0008EE896E062CF089589E00895FC01019061
:105200000020E9F79F01215231092817390729F4B5
:10521000BC018DE996E051CF089589E0089560E0E2
:1052200070E08CED96E049CF08950F931F93E82F1F
:10523000F0E0EE0FFF1FEF55F74F6081718185EEB3
:1052400096E03BDF811114C008E215E020E030E079
:105250004DE250E060E675E18091D7149091D8144A
:105260000E94E012882321F080E695E1B1DE03C0C0
:1052700080E695E1ADDE1F910F9108950F931F9386
:10528000CF93DF931F92CDB7DEB7DB0111969C91D0
:105290001197953108F0B4C0992381F160E070E076
:1052A000272F30E0462F50E0FD01E40FF51F9281DB
:1052B00092959F709A3010F0995C01C0905DF90151
:1052C000EF50FB4E90832F5F3F4FFD01E40FF51F22
:1052D00092819F70492F50E04A30510514F0995C3B
:1052E00001C0905DF901EF50FB4E90837E5F6F5FD0
:1052F00011969C911197691798F201C070E0E72F01
:10530000F0E0EF50FB4E10824C91811103C08EEE05
:1053100096E002C080EF96E021EF34E13F932F93B7
:105320001F924F939F938F9384EF96E09F938F9359
:1053300083E395E19F938F930E94563960E070E07C
:1053400083E395E1BADE0FB6F894DEBF0FBECDBFA2
:10535000811159C008E215E020E030E04DE250E054
:1053600060E675E18091D7149091D8140E94E01204
:10537000882309F447C080E695E12ADE8E3009F0E3
:1053800042C087E089838091D5149091D614892BEF
:10539000A9F1BE016F5F7F4F80E695E168D18093F0
:1053A000DB14E981F0E0E05AFA4EDF010D900020B5
:1053B000E9F71197AE1BBF0BAA2391F0BB27CD01D4
:1053C00001979C0112F42F5F3F4F3595279520934D
:1053D000DC14AF014F5F5F4F64E18DED94E173D159
:1053E00001E010E020E030E046E150E06BED74E1D8
:1053F0008091D5149091D6140E94DE118EE003C0E6
:1054000084E101C080E00F90DF91CF911F910F9157
:105410000895813019F06EE873E002C069ED77E01D
:1054200084E097E04ACE08959F938F9385E397E0B9
:105430009F938F9383E395E19F938F930E945639B7
:1054400060E070E083E395E138DE0F900F900F90FD
:105450000F900F900F9008952F923F924F925F926E
:105460006F927F928F929F92AF92BF92CF92DF9274
:10547000EF92FF920F931F93CF93DF93CDB7DEB7D9
:10548000A0970FB6F894DEBF0FBECDBF62E677E0FF
:105490008EE697E043DD9CDD8111A3C080E2E8E267
:1054A000F2E0DE01119601900D928A95E1F79E01DE
:1054B0002F5F3F4F6901E12CF12C0F2EFAE7AF2E41
:1054C000F7E0BF2EF02D03E315E10F2EF3E94F2E89
:1054D000F7E05F2EF02D0F2EFAEA8F2EF7E09F2EC9
:1054E000F02D0F2EF4EC6F2EF7E07F2EF02D3E2CDA
:1054F0002F2CFF92EF92BF92AF921F930F930E94B7
:10550000563960E070E0C80109DD62DD0F900F9050
:105510000F900F900F900F90811163C032E03E15F5
:10552000E8F4F60183818F9382818F9381818F9339
:1055300080818F93FF92EF925F924F921F930F9310
:105540000E94563960E070E0C801E8DC41DD0FB62A
:10555000F894DEBF0FBECDBF811143C02F923F92A2
:105560009F928F921F930F930E94563960E070E0D4
:10557000C801D4DC2DDD0F900F900F900F900F908D
:105580000F9081112EC02F923F927F926F921F93A6
:105590000F930E94563960E070E0C801BFDC18DD4F
:1055A0000F900F900F900F900F900F90811119C0D6
:1055B0003FEFE31AF30A84E0C80ED11C98E0E91625
:1055C000F10409F094CF60E070E08CED97E0A6DC88
:1055D000FFDC811106C060E070E08DEE97E09EDC9C
:1055E000F7DCA0960FB6F894DEBF0FBECDBFDF91FB
:1055F000CF911F910F91FF90EF90DF90CF90BF90D0
:10560000AF909F908F907F906F905F904F903F9062
:105610002F900895EF92FF920F931F93CF93DF93F4
:10562000EC018B017A0181E0F4DE81110DC0CE0125
:10563000D4DD811109C0C801E1DD811105C0C701B8
:10564000BBDD811101C0EBDDDF91CF911F910F9187
:10565000FF90EF90089590E0FC01EE0FFF1F8E0F7A
:105660009F1FFC01EB55F74F818192810895DC016A
:10567000009729F1FB012081FC0101900020E9F74E
:105680003197E81BF90B822F90E0E817F907C8F073
:1056900080E008C0880F382F330F330F830F8053FB
:1056A000890F2F5FFD01E20FF11D908130ED390F61
:1056B0003A3010F49111EECFFB012083089580E081
:1056C000089580E008950F931F93CF93DF93DC013B
:1056D000EA012097E1F1FA0101900020E9F7319702
:1056E000E41BF50B329710F532C08D01040F151F26
:1056F00030E0AE01420F531FFA019081913428F03F
:105700009753592F5295507F03C0592F5295507F70
:105710002C0F3D1FF9019181913410F0975301C076
:105720009053950FF80190838F5F01C080E0282F80
:10573000220F482F50E0FE0101900020E9F7319739
:10574000EC1BFD0B4E175F0710F48613CECFDF91D5
:10575000CF911F910F91089580919015860F80939E
:10576000901590919315913079F028F09230A9F02E
:10577000933019F108956F3F09F048C010929015C9
:1057800081E0809393150895663809F03FC0109228
:105790008F1582E0809393150895E0918F1581E035
:1057A0008E0F80938F15F0E0E357FA4E60838230BE
:1057B00069F583E080939315089590918F1521E00A
:1057C000290F20938F15963009F581110EC0EDE851
:1057D000F5E1808190E0982F88272181820F911D2B
:1057E000909395158093941504C01092951510927E
:1057F000941510929315E0919115F09192153097B0
:1058000029F08091941590919515199508958F928E
:105810009F92AF92CF92EF920F930F2EFCEA8F2EB2
:10582000FBE29F2EF02D6894AA24A4F86894CC245F
:10583000C4F8E12C00E023E040E855E260E070E0CD
:105840004BD090939715809396150F91EF90CF9032
:10585000AF909F908F900895CF93DF93CDB7DEB731
:1058600029970FB6F894DEBF0FBECDBF89E0E8E4FC
:10587000F2E09E012F5F3F4FD90101900D928A9572
:10588000E1F71092951510929415809196159091CC
:105890009715009731F0422F532F69E0F0D080E048
:1058A00001C082E029960FB6F894DEBF0FBECDBFCF
:1058B000DF91CF9108952091941530919515211580
:1058C000310529F4FC011182108281E00895FC0168
:1058D0003183208380E008952F923F924F925F9210
:1058E0006F927F928F929F92AF92CF92EF92FF92A0
:1058F0000F931F93CF93DF93CDB7DEB7F82E2A0116
:105900003B0188E090E00E948F378C018F2D90E062
:10591000FC01EE0FFF1FE856FA4E118300830115BC
:10592000110509F46FC0880F991FFC01EF5EFD4F50
:1059300080819181D8018D939C936C2D70E084E0DF
:1059400090E00E9475371C0161E070E086E090E015
:105950000E9475377C014C2DB1010E942C35F80155
:10596000F582E4826A2D70E084E090E00E94753751
:105970001C0161E070E086E090E00E9475377C01D8
:105980004A2DB1010E942C35D8011396FC92EE925B
:10599000129717969C928E921697FFB6F894ED91F7
:1059A000FC91119736978081826080838D909C90C6
:1059B000C301B2010E94152420E030E040E051E430
:1059C0000E94CB249B01AC0160E074E284E79BE47D
:1059D0000E947C2320E030E040E85FE30E94132334
:1059E0000E94E923F40132976083D801ED91FC9184
:1059F0001197359788E98083ED91FC91349786E083
:105A00008083FFBEC801DF91CF911F910F91FF905E
:105A1000EF90CF90AF909F908F907F906F905F901E
:105A20004F903F902F900895CF93DF93DC01892B07
:105A300001F11296ED91FC9113979381828125815A
:105A4000981B922384819817B1F08381269528238F
:105A5000C081D181C20FD11D68838F5F9581892359
:105A60008383ED91FC91359780818062808380E013
:105A700003C081E001C082E0DF91CF910895EF92F1
:105A8000FF920F931F93CF93DF937C01009709F44C
:105A900041C0DC011296ED91FC91139793818281B4
:105AA000981B858198238481891B8617A8F166231A
:105AB00041F1842F952FDC016150462F50E04F5F5C
:105AC0005F4F480F591FE701EA81FB819381828173
:105AD0002581981B92238481981779F08C9193816A
