:1000000046C2000065C2000063C2000061C2000079
:100010005FC200005DC200005BC2000059C2000068
:1000200057C2000055C2000053C2000051C2000078
:10003000E6C500004DC200004BC2000049C20000EE
:1000400047C2000045C2000043C2000041C2000098
:100050003FC200003DC200003BC2000039C20000A8
:1000600037C200000C945D130C94AF1331C2000032
:100070002FC200002DC200002BC2000029C20000C8
:1000800027C2000025C2000023C2000021C20000D8
:100090000C94F3130C9445141BC200000C9491169D
:1000A00017C2000015C2000013C2000011C20000F8
:1000B0000FC200000DC200000BC2000009C2000008
:1000C00007C2000005C2000003C200000C9489149E
:1000D0000C94DB14FDC100000C941F150C947115D9
:1000E000F7C10000BE01BE01BE01F8010002160208
:1000F000BE01BE01F8010002B31623172317231710
:100100002317231723172317B31623172317231790
:100110002317231723172317B5162317231723177E
:1001200023172317231723172317231723172317FF
:100130002317231723172317B5162317231723175E
:1001400023172317231723172317231723172317DF
:1001500023172317231723171F17231723172317D3
:100160002317231723172317EA16231723172317F9
:1001700023172317231723172317231723172317AF
:100180002317231723172317DE16231723172317E5
:100190002317231723172317021705EA1CE00F2E36
:1001A000F5EDEF2EFCE0FF2EF02D8091A40C8823BE
:1001B00011F10FB6F8940F92D8011796ED91FC91BA
:1001C0001897C085D185CE010296DCD38091980C1A
:1001D00081508093980C8091A40C81508093A40C42
:1001E0000F900FBE8B8D9C8D43D3CE0141D3809158
:1001F000A40C8111DECFF7018081823008F03CD45D
:100200000E94FA10D2CFCF93DF93CDB7DEB76097BD
:100210000FB6F894DEBF0FBECDBFCE0101969A8710
:100220008987812C912CA12CB12C69847A84E0914E
:100230004F0DF091500D8081882309F40EC1078085
:10024000F085E02D20803180428053800E94E20AB8
:10025000CE0101960E9464106B877C878D879E87F4
:100260008981811164C08B859C85AD85BE85821591
:100270009305A405B50508F444C00E94260CE0913E
:100280004F0DF091500D0780F085E02DA085B185D0
:10029000B88BAF87CD01029675D3EF85F889868933
:1002A00082FF21C04685578560897189420D531DA3
:1002B000641D751D720161010B851C852D853E85B0
:1002C000CF010E94740F882399F0C82CD92CEA2CF6
:1002D000FB2C00E010E0A201910160E08F8598897D
:1002E0000E94061005C08E7FAF85B88956968C9304
:1002F000AF85B8895496ED91FC915597CD0119952C
:100300009EC020E0B201A1018B859C85AD85BE8594
:10031000481B590B6A0B7B0B80914B0D90914C0D38
:100320000DD70E94260C81118AC0A6D388C00E94D6
:10033000260C85C0898188230CF481C04E805F80A3
:10034000D2011C968D919C911D97892B19F0C201A9
:10035000029618D3CE0108960E9464108B019C016E
:10036000E9810E2E000CFF0BEA30F10508F067C0A2
:100370008827EE58FF4F8F4F0C949618F20186890C
:100380008160868BCA80DB80EC80FD804685578546
:10039000608971894C0D5D1D6E1D7F1DC2010E941B
:1003A000740F882309F44BC0D2015496ED91FC914F
:1003B0005597C2011995F201868982FF40C04A8192
:1003C0005B816C817D8186859785A089B1899A0141
:1003D000AB01280F391F4A1F5B1FC82CD92CEA2CF0
:1003E000FB2C00E010E060E0C2010E94061027C074
:1003F000D20156968C9156978E7F56968C931FC03D
:10040000F20186898160868B4A815B816C817D8166
:1004100046875787608B718B400F511F621F731F78
:1004200068017901C2010E94740F09C0F201868936
:1004300081FD03C0C2011CD202C08E7F868B282D95
:10044000392D4A2D5B2D662D772D80914B0D909186
:100450004C0DDFD581116ECFEACE0E94E20ACE01AB
:1004600001960E9464106B877C878D879E878981A7
:1004700081115DCFE0914D0DF0914E0D808121E015
:10048000811120E0282C392C4A2C5B2C3BCF1124E5
:100490001FBECFEFD1E2DEBFCDBF00E00CBF12E048
:1004A000A0E0B2E0E0EFF9E300E00BBF02C007908C
:1004B0000D92AC3AB107D9F72DE0ACEAB2E001C039
:1004C0001D92A139B207E1F70E941E110C94F61C8F
:1004D00097CD02E212E00F2EF8EECF2EF3E0DF2EE2
:1004E000E12CF12CF02DBB24B394C8E4D2E00E949F
:1004F0004F12882331F01F930F930E94061A0F901A
:100500000F908091830D9091840D89D020E030E090
:100510004AE754E40E9480110E942B119B01AC0118
:10052000AEE3B0E00E949E18A70196010E947418E5
:10053000CA01B9010E940B0D82B18B2582B90E94BC
:100540005F12AB01BC014093AC025093AD026093CB
:10055000AE027093AF028091830D9091840D59D0BB
:100560008091830D9091840D60D020E030E04AE7C7
:1005700054E40E9480110E9426117F936F93DF93B1
:10058000CF930E94061A0F900F900F900F90AFCF4D
:10059000EF92FF920F93CF93DF93EC010E943812FA
:1005A000811115C0D093840DC093830D87E592E02F
:1005B0000E94191AE12CF12C01E021E030E040EC1E
:1005C00050E065E772E089E692E099D6C5D7DF9101
:1005D000CF910F91FF90EF900895CF92DF92EF921D
:1005E000FF926B017C0161E070E088E090E00E9486
:1005F000B718009749F0FC01C082D182E282F382F1
:100600001482158216821782FF90EF90DF90CF90B0
:100610000895FC0144835583668377830895FC0124
:1006200060817181828193810895FC01648175816B
:1006300086819781089560E070E080E89FE3CDDFD8
:100640009093860D8093850DA3CF0895CF93DF936C
:10065000DC01ECEBF2E001C0F901208131812A17C5
:100660003B07D0F382819381AF01480F591FA41734
:10067000B50749F412964D915C911397840F951F1D
:1006800093838283DF0112968D919C911397ED01E4
:10069000C80FD91F2C173D07D9F42091BA02309109
:1006A000BB02C217D30781F02A813B81820F931FBF
:1006B00013969C938E931297C081D18188819981E2
:1006C00011969C938E9307C01196DC93CE9303C032
:1006D00011963C932E93AE17BF0711F0B183A08300
:1006E000DF91CF910895CF92DF92EF92FF920F9317
:1006F0001F93CF93DF93EC0165D78091BA0290915D
:10070000BB02892B41F5ECEBF2E0A0ECB2E0B18347
:10071000A08313821282E0E8FCE0F093BB02E09336
:10072000BA02138212821182108280EC99E0139631
:100730009C938E931297ED93FC939093B7028093C2
:10074000B6029093B9028093B80280E090E890934B
:10075000B1028093B002E090B002F090B102C70104
:100760008C239D23892B09F075C0209709F474C050
:100770009E012C5F3F4FC217D30708F06DC02115B3
:10078000310509F467C00091B8021091B90202174F
:10079000130708F45FC0C091BC02D091BD02ECEB1E
:1007A000F2E002C0FE01EC018A819B81821793076F
:1007B00020F4888199810097A9F78091BA029091DD
:1007C000BB02C817D90709F445C0C080D18084E0B6
:1007D000C80ED11C88819981918380834A815B8175
:1007E000421B530B4930510548F0CE01820F931F35
:1007F000FC01538342833B832A8328DF8A819B81C8
:10080000081B190B1093B9020093B8022091B6028D
:100810003091B7020217130720F41093B702009328
:10082000B602E82AF92AFB82EA82198218828091AC
:10083000B4029091B50201969093B5028093B402F0
:100840000E94260CC114D10449F40E940011C12C4D
:10085000D12C04C0FBD7F9CFF9D7F7CFC601DF9170
:10086000CF911F910F91FF90EF90DF90CF9008955F
:10087000CF93DF93009789F1FC0134972281338174
:100880004091B0025091B102B90164237523672BE6
:1008900021F160817181672B01F5EF014095509541
:1008A00024233523338322838DD62091B8023091BF
:1008B000B9028A819B81820F931F9093B902809322
:1008C000B802CE01C3DE8091B2029091B3020196CC
:1008D0009093B3028093B202B9D7DF91CF9108957C
:1008E000FC010396928381834FEF5FEFBA0143834C
:1008F000548365837683908787839287818710826C
:100900000895FC011386128608950F931F93CF93C9
:10091000DF93EB01088119812A813B810F3F4FEF63
:1009200014072407340721F4FC01A185B28511C006
:10093000DC01139601C0DF011496ED91FC9115972F
:10094000408151816281738104171507260737079B
:1009500090F71496ED91FC911597FD83EC83D78366
:10096000C683BF83AE831596DC93CE9314979B8783
:100970008A87FC0120812F5F2083DF91CF911F9117
:100980000F910895CF93DF93FC01A285B385C481B5
:10099000D581868197819F838E83C681D78184810B
:1009A00095819D838C8311968D919C911297E81768
:1009B000F90731F48681978112969C938E93119753
:1009C000138612868C9181508C938C91DF91CF91FC
:1009D0000895FC01608331977083319710823197BD
:1009E0001082319720E8208331971082319710824E
:1009F0003197108277974083319750838697089577
:100A0000A89590EC88E10FB6F894A89580936000C3
:100A10000FBE90936000A091430DB091440DCD9115
:100A2000CDBFDD91DEBFFF91EF91DF91CF91BF91FF
:100A3000AF919F918F917F916F915F914F913F9176
:100A40002F911F910F91FF90EF90DF90CF90BF906B
:100A5000AF909F908F907F906F905F904F903F905E
:100A60002F901F900F900CBE0F900BBE0F900FBEDB
:100A70000F90089581E008950F920FB6F8940F92A9
:100A80000BB60F920CB60F921F9211242F923F9229
:100A90004F925F926F927F928F929F92AF92BF928E
:100AA000CF92DF92EF92FF920F931F932F933F937A
:100AB0004F935F936F937F938F939F93AF93BF9366
:100AC000CF93DF93EF93FF93A091430DB091440D2B
:100AD0000DB60D920EB60D92B6D7A091430DB09102
:100AE000440DCD91CDBFDD91DEBFFF91EF91DF9140
:100AF000CF91BF91AF919F918F917F916F915F91B6
:100B00004F913F912F911F910F91FF90EF90DF90A8
:100B1000CF90BF90AF909F908F907F906F905F909D
:100B20004F903F902F901F900F900CBE0F900BBED8
:100B30000F900FBE0F9008950F920FB6F8940F927A
:100B40000BB60F920CB60F921F9211242F923F9268
:100B50004F925F926F927F928F929F92AF92BF92CD
:100B6000CF92DF92EF92FF920F931F932F933F93B9
:100B70004F935F936F937F938F939F93AF93BF93A5
:100B8000CF93DF93EF93FF93A091430DB091440D6A
:100B90000DB60D920EB60D9213BE28D5811153D706
:100BA000A091430DB091440DCD91CDBFDD91DEBF3D
:100BB000FF91EF91DF91CF91BF91AF919F918F9175
:100BC0007F916F915F914F913F912F911F910F9165
:100BD000FF90EF90DF90CF90BF90AF909F908F905D
:100BE0007F906F905F904F903F902F901F900F904D
:100BF0000CBE0F900BBE0F900FBE0F9008959CDFA0
:100C000018950FB6F8940F92FC01968D0F900FBEB9
:100C100081E0911180E008950F931F93CF93DF93AC
:100C2000EC01042F1E8D48A141110CC088819981CF
:100C3000892B09F042C08C819D810E94190F1D8271
:100C40001C8242C0011117C050E08A819B810E9422
:100C5000F61928A18A819B81820F911D9B838A832B
:100C60002C813D818217930750F1888199819B8364
:100C70008A8380E029C050E08E819F810E94F6190E
:100C800088A190E09195819591092E813F81280F4F
:100C9000391F3F832E83488159812417350730F44B
:100CA0002C813D81820F931F9F838E83023049F4F4
:100CB000112349F0115080E007C080E005C080E0BA
:100CC00003C080E001C080E01F5F1E8FDF91CF91E5
:100CD0001F910F910895FC0140A14423A9F050E019
:100CE00026813781240F351F3783268384819581A0
:100CF0002817390720F08081918197838683CB0163
:100D0000668177810C94F6190895EF92FF920F9304
:100D10001F93CF938C010FB6F8940F92FC01C2A1E0
:100D20001C16A4F48389811106C010C0F8018389C0
:100D3000811105C00BC07801F3E1EF0EF11CC70172
:100D40004CD781110E94070FC15081F78FEFF80136
:100D500082A30F900FBE0FB6F8940F92C1A11C167C
:100D6000A4F48085811106C010C0F801808581112E
:100D700005C00BC07801F8E0EF0EF11CC7012DD7BC
:100D800081110E94070FC15081F78FEFF80181A3F5
:100D90000F900FBECF911F910F91FF90EF9008958C
:100DA000CF93DF93EC010FB6F8940F92E881F981AD
:100DB0008F8D28A190E030E0829FA001839F500D8D
:100DC000929F500D11244E0F5F1F5D834C831E8E2A
:100DD000FB83EA830197829FA001839F500D929F1E
:100DE000500D1124CF01840F951F9F838E838FEFA9
:100DF00089A38AA361110AC08885882369F0CE017E
:100E00000896EBD6882341F037DE06C0CE0108965F
:100E100067DDCE01439664DD0F900FBE81E0DF9168
:100E2000CF9108950F931F93CF93DF93082F162F21
:100E3000869FC0011124839656DCEC01009769F06F
:100E4000111103C09983888303C083969983888393
:100E50000F8F18A361E0CE01A3DFCE01DF91CF9108
:100E60001F910F9108959F92AF92BF92CF92DF9200
:100E7000EF92FF920F931F93CF93DF93CDB7DEB71F
:100E800029970FB6F894DEBF0FBECDBF7C015B0182
:100E90002E833F834887598710E0992493946C01EF
:100EA00088E0C80ED11C0FB6F8940F92F701968D0A
:100EB000878D981710F00230A9F4402FB501C701B3
:100EC000ABDEF7019389992339F0C701439685D6A4
:100ED000882321F0D1DD02C08111CEDD0F900FBE3D
:100EE00081E04BC08E819F81A885B985892B8A2B93
:100EF0008B2B21F40F900FBE80E03FC0111104C076
:100F0000CE0101961AD7192D0F900FBE5BD30FB6E5
:100F1000F8940F92F70181A18F3F09F411A2F70114
:100F200082A18F3F09F412A20F900FBEBE016A5F2B
:100F30007F4FCE01019612D781111BC00FB6F894D6
:100F40000F92F701968D878D0F900FBE98130DC0ED
:100F50004E815F8168857985C601E6D5C701D5DEFA
:100F600075D48111A0CF88DD9ECFC701CEDE6ED4AF
:100F70009ACFC701CADE6AD480E029960FB6F894EA
:100F8000DEBF0FBECDBFDF91CF911F910F91FF90BC
:100F9000EF90DF90CF90BF90AF909F900895EF9229
:100FA000FF920F931F93CF93DF938A01FC01568D1D
:100FB000378D531710F02230F1F4422F7801EC01F5
:100FC0001AA18E8DCE0128DE1F3F79F48B898823EC
:100FD000A1F0CE01439601D6882389F0E114F104F3
:100FE00081F081E0F70180830DC0FF24F394F10EBE
:100FF000FAA281E007C080E005C081E003C081E083
:1010000001C081E0DF91CF911F910F91FF90EF9090
:1010100008959F92AF92BF92CF92DF92EF92FF928C
:101020000F931F93CF93DF93CDB7DEB729970FB6FA
:10103000F894DEBF0FBECDBF8C015B012E833F83D2
:1010400048875987E12C992493946C0183E1C80E59
:10105000D11C0FB6F8940F92F801F68CFF2091F096
:10106000B501C80138DEFA94F801F68E8085882330
:1010700029F0C8010896B1D58111FEDC0F900FBE92
:1010800081E04AC08E819F81A885B985892B8A2BF2
:101090008B2B21F40F900FBE80E03EC0E11004C006
:1010A000CE0101964AD6E92C0F900FBE8BD20FB617
:1010B000F8940F92F80181A18F3F09F411A2F80171
:1010C00082A18F3F09F412A20F900FBEBE016A5F8A
:1010D0007F4FCE01019642D6811115C0C80191DD26
:1010E000882369F04E815F8168857985C6011CD5AA
:1010F000C8010BDEABD38111ACCFBEDCAACFC801D7
:1011000004DEA4D3A6CFC80100DEA0D3C80179DDD8
:10111000882309F49ECF80E029960FB6F894DEBFAD
:101120000FBECDBFDF91CF911F910F91FF90EF9038
:10113000DF90CF90BF90AF909F900895CF93DF93B3
:10114000EC010FB6F8940F9289A18F3F09F419A210
:101150008AA18F3F09F41AA20F900FBE8E8D8111C4
:1011600003C0CE014396F7D4CE01CFDDDF91CF91FE
:101170000895E091BD0CF091BE0C808181110CC0EE
:101180008FEF9FEFDC018093870C9093880CA093E6
:10119000890CB0938A0C0895E091BD0CF091BE0CBF
:1011A0000780F085E02D80819181A281B3818093B9
:1011B000870C9093880CA093890CB0938A0C0895A7
:1011C0008F929F92AF92BF92CF92DF92EF92FF9257
:1011D000CF93DF936B017C01C42F8090940C90908F
:1011E000950CA090960CB090970C8091430D909127
:1011F000440D0296C7DB8FEFC816D806E806F8063E
:10120000B1F5CC23A1F1E9E9FCE0A181B281C09163
:10121000430DD091440DBF83AE83C091430DD09157
:10122000440D16968D919C911797998788871696ED
:10123000CD91DC9117978091430D9091440D0296CA
:101240009D838C838091430D9091440D0296179657
:101250009C938E931697A091430DB091440D1D96CB
:10126000FC93EE931C9780818F5F80833DC0C80CF8
:10127000D91CEA1CFB1CE091430DF091440DC28285
:10128000D382E482F582C814D904EA04FB0460F432
:101290006091430D7091440D8091BB0C9091BC0CFA
:1012A0006E5F7F4F32DB20C06091430D7091440D23
:1012B0008091BD0C9091BE0C6E5F7F4F26DB8091BC
:1012C000870C9091880CA091890CB0918A0CC8165B
:1012D000D906EA06FB0640F4C092870CD092880C2F
:1012E000E092890CF0928A0CDF91CF91FF90EF9001
:1012F000DF90CF90BF90AF909F908F9008954F92C6
:101300005F926F927F928F929F92AF92BF92CF9295
:10131000DF92EF92FF920F931F93CF93DF934C01D5
:101320006B015A012901CA01DED93C01892B09F45C
:1013300001C184E390E0D7D9EC01892B99F07C8E30
:101340006B8EA50165EA70E0C3010E94FF1981E080
:10135000A81AB1088B8D9C8DA80EB91EC114D1049A
:1013600021F41FC0C30184DAE5C0D6018C918D8FB2
:101370008C918823A1F0AE01425E5F4FF601319659
:10138000B0E1CB0ED11CCF012191DA012D93AD013B
:10139000DC018C91882319F0CE16DF06A1F71CA67C
:1013A00001C01D8E0A3008F009E00A8F0DA71EA6A5
:1013B0006E01B2E0CB0ED11CC601A3DACE010E96AF
:1013C000A0DADB87CA878AE090E0A0E0B0E0801B6B
:1013D0009109A109B1098E879F87A88BB98BDF8BF3
:1013E000CE8B84E0FE01BF96DF011D928A95E9F75E
:1013F0001BAAA201B401C501ECDA99838883E11428
:10140000F10419F0F701D183C0830FB6F8940F925D
:101410008091980C8F5F8093980C8091430D9091F0
:10142000440D892BA1F5D093440DC093430D8091B9
:10143000980C813009F03BC005ED1CE00F2EF3E461
:10144000EF2EFDE0FF2EF02DC8014ADA055F1F4F99
:101450000E151F05C9F78AEC9CE042DA8FEB9CE081
:101460003FDA80EB9CE03CDA85EA9CE039DA89E9F6
:101470009CE036DA8AEC9CE09093BE0C8093BD0C25
:101480008FEB9CE09093BC0C8093BB0C10C08091C0
:10149000920C81110CC0E091430DF091440D928D9E
:1014A0008A8D891720F0D093440DC093430D80910D
:1014B0008B0C8F5F80938B0CEA8D8091930C8E1731
:1014C00010F4E093930C8BE08E9FF0011124EB520B
:1014D000F34F0180F281E02DFF83EE832681378177
:1014E00039872887A681B7811596DC92CE9214970A
:1014F000D782C682EA8D8E9FF0011124EB52F34F02
:10150000FD87EC8780818F5F80830F900FBE809175
:10151000920C882359F0E091430DF091440D928D87
:101520008A8D981728F4A8DA81E005C081E003C00D
:1015300081E001C08FEFDF91CF911F910F91FF905C
:10154000EF90DF90CF90BF90AF909F908F907F9063
:101550006F905F904F900895EF92FF920F930F2E30
:10156000F5E8EF2EFCE0FF2EF02D00E020E030E06B
:1015700040EC50E06BE872E08DEC90E0C0DE813032
:10158000D9F424D58130C1F4F8948FEF9FEFDC01BA
:101590008093870C9093880CA093890CB0938A0C4D
:1015A00081E08093920C1092940C1092950C109202
:1015B000960C1092970C24DA809106020F91FF90FE
:1015C000EF9008958091840C8F5F8093840C089530
:1015D0000FB6F8940F926091940C7091950C8091D5
:1015E000960C9091970C0F900FBE0895CF92DF92BA
:1015F000EF92FF920F931F93CF93DF938091840C10
:10160000811107C1C090940CD090950CE090960C7D
:10161000F090970C8FEFC81AD80AE80AF80AC0921F
:10162000940CD092950CE092960CF092970CC11409
:10163000D104E104F104B1F48091BD0C9091BE0C91
:101640002091BB0C3091BC0C3093BE0C2093BD0C90
:101650009093BC0C8093BB0C80918C0C8F5F80931B
:101660008C0C87DD8091870C9091880CA091890C5F
:10167000B0918A0CC816D906EA06FB0610F480E081
:10168000B3C080E04BE051E0E091BD0CF091BE0CA6
:10169000908191110CC04FEF5FEFBA014093870C1E
:1016A0005093880C6093890C70938A0C9DC0E091D4
:1016B000BD0CF091BE0C0780F085E02D0084F18513
:1016C000E02D0281138124813581C016D106E20606
:1016D000F30648F40093870C1093880C2093890C30
:1016E00030938A0C81C0A485B585C681D7812085B9
:1016F00031853F832E83C085D185268137813D8307
:101700002C839F012E5F3F4F11966D917C91129714
:101710006217730731F46085718512967C936E931E
:101720001197158614869C9191509C93A08DB18D34
:10173000109709F1C289D389648975897F836E8383
:10174000C489D589628973897D836C831196CD9113
:10175000DC911297BF01625F7F4FC617D70731F444
:101760006489758912967C936E931197118E108EF1
:101770009C9191509C93A28D9091930C9A1710F488
:10178000A093930C4A9FD0011124AB52B34F1196F2
:101790000D90BC91A02DB783A68316966D917C9178
:1017A0001797718760871696CD91DC9117973D83C7
:1017B0002C8317963C932E931697A28D4A9FD001A7
:1017C0001124AB52B34FB587A4879C919F5F9C9324
:1017D000A091430DB091440D228D5A969C912917EA
:1017E00008F452CF852F50CFE091430DF091440D76
:1017F000E28D9BE0E99FF0011124EB52F34F9081C1
:10180000923008F081E090918D0C9923B1F081E045
:1018100014C080918E0C90918F0CA091900CB0917F
:10182000910C0196A11DB11D80938E0C90938F0C8D
:10183000A093900CB093910C80E0DF91CF911F9119
:101840000F91FF90EF90DF90CF900895CF92DF92AD
:10185000EF92FF920F931F93CF93DF930FB6F894FD
:101860000F928091840C81508093840C8091840C21
:101870008111C3C08091980C81118BC0C1C0D80167
:101880001796ED91FC9118970084F185E02DA08DBD
:10189000B18D8289938964897589EC017F836E8318
:1018A0008489958962897389EC017D836C83CF017A
:1018B0000E9611966D917C9112976817790731F405
:1018C0008489958912969C938E931197118E108E10
:1018D0008C9181508C93A485B58586819781608594
:1018E0007185EC017F836E83808591856681778128
:1018F000EC017D836C83CF01029611966D917C91F2
:1019000012976817790731F46085718512967C9378
:101910006E931197158614862C9121502C93A28DCD
:101920002091930C2A1710F4A093930C3A9FD001A6
:101930001124AB52B34F11960D90BC91A02DB783DB
:10194000A68316966D917C9117977187608716967E
:101950006D917C911797EB019D838C8317969C93D7
:101960008E931697A28D3A9FD0011124AB52B34F9C
:10197000B587A4878C918F5F8C93A091430DB09114
:10198000440D928D5A968C91981748F040938D0C87
:1019900006C0E0E0F0E000EB1CE03BE041E0D801F5
:1019A0008C9181116CCFEF2B09F0E3DBC0908E0C92
:1019B000D0908F0CE090900CF090910CC114D10459
:1019C000E104F10499F0C1E011DE8111C0938D0CA6
:1019D000B1E0CB1AD108E108F108B1F710928E0CF2
:1019E00010928F0C1092900C1092910C80918D0C93
:1019F000882329F041D881E003C080E001C080E065
:101A00000F900FBEDF91CF911F910F91FF90EF903C
:101A1000DF90CF900895CF92DF92EF92FF926B010B
:101A20007C01672B682B692B41F0CCDD40E0C701BE
:101A3000B601C6DB0BDF811101C01ED8FF90EF900D
:101A4000DF90CF9008958091840C882321F081E06D
:101A500080938D0C089510928D0CA091430DB09140
:101A6000440DE091430DF091440D2D913C91838DF7
:101A7000948D8217930758F06091430D7091440D37
:101A80008091430D9091440D635E7F4FC5D380914B
:101A9000930C282F30E09BE0899FF0011124EB523A
:101AA000F34F908191110EC04BE08150282F30E010
:101AB000429FF001439FF00D1124EB52F34F9081B0
:101AC000992399F39BE0929FA001939F500D1124BD
:101AD000DA01AB52B34F1196ED91FC91129704804D
:101AE000F581E02D1296FC93EE9311974852534FD7
:101AF000E417F50729F444815581FD0152834183A0
:101B00009BE0929FF001939FF00D1124EB52F34F55
:101B10000180F281E02D208531853093440D2093A2
:101B2000430D8093930C0895CF92DF92EF92FF9232
:101B30006A017B016091430D7091440D625F7F4F9C
:101B40000E94850441E0C701B6013ADBFF90EF90A7
:101B5000DF90CF900895CF93DF93FC01CB01BA01C2
:101B6000A181B281C091430DD091440DBB8BAA8B52
:101B7000C091430DD091440D16964D915C911797ED
:101B80005D8B4C8B1696CD91DC9117974091430D50
:101B90005091440D425F5F4F5D834C834091430DF4
:101BA0005091440D425F5F4F17965C934E9316978A
:101BB000A091430DB091440D5996FC93EE93589724
:101BC00030813F5F3083222319F06FEF7FEFCB012D
:101BD000422FF6DADF91CF910895CF93DF93DC01A6
:101BE0001796ED91FC9118970084F185E02DA08D5A
:101BF000B18DC289D389848995899F838E83C48955
:101C0000D589828993899D838C839F01225F3F4F71
:101C100011968D919C9112978217930731F48489C4
:101C2000958912969C938E931197118E108E8C919C
:101C300081508C938091840C811152C0A485B5850C
:101C4000C681D781808591859F838E83C085D1850C
:101C5000868197819D838C839F012E5F3F4F1196D4
:101C60008D919C9112978217930731F4808591850D
:101C700012969C938E931197158614868C918150A1
:101C80008C93A28D8091930C8A1710F4A093930CDF
:101C90008BE08A9FD0011124AB52B34F11960D9067
:101CA000BC91A02DB783A68316964D915C91179792
:101CB000518740871696CD91DC9117973D832C83F1
:101CC00017963C932E931697A28D8A9FD0011124CC
:101CD000AB52B34FB587A4878C918F5F8C931CC098
:101CE00040EB5CE0DA011196CD91DC911297D38B39
:101CF000C28B8E819F81958B848B8E819F81DC012D
:101D000015963C932E9314973F832E83518F408FCB
:101D1000DA018C918F5F8C93A091430DB091440DAB
:101D2000928D5A968C91891720F481E080938D0CC6
:101D300001C080E0DF91CF91089520918C0CFC01CF
:101D400020834091940C5091950C6091960C709169
:101D5000970C41835283638374830895CF92DF92FB
:101D6000EF92FF920F931F93CF93DF93FB010FB678
:101D7000F8940F924091940C5091950C6091960CB0
:101D80007091970C00811181228133810F3FAFEF59
:101D90001A072A073A0779F1EC01C980DA80EB804B
:101DA000FC80A0918C0CB881BA1759F04C155D05D8
:101DB0006E057F0530F0108211821282138281E05D
:101DC0001BC04C195D096E097F0940175107620756
:101DD000730758F4041B150B260B370B0083118374
:101DE00022833383AADF80E007C01082118212822F
:101DF000138281E001C080E00F900FBEDF91CF9190
:101E00001F910F91FF90EF90DF90CF90089581E0A8
:101E100080938D0C08958091920C882331F08091ED
:101E2000840C882321F080E0089581E0089582E009
:101E300008950F931F93CF93DF93FC01892B09F42F
:101E400049C086A5815086A7228D95A5291709F43A
:101E500043C0811143C0EF018F010E5F1F4FC801C6
:101E60000E94C204EDA5EA8F8AE090E0A0E0B0E015
:101E70008E1B9109A109B1098E879F87A88BB98B09
:101E80008091930C8E1710F4E093930C8BE08E9F4F
:101E9000F0011124EB52F34F0180F281E02DFF831A
:101EA000EE832681378139872887A681B7811596E9
:101EB0001C930E93149717830683EA8D8E9FF0016F
:101EC0001124EB52F34FFD87EC8780818F5F808375
:101ED00081E005C080E003C080E001C080E0DF91C8
:101EE000CF911F910F910895CF92DF92EF92FF92C1
:101EF0000F931F93FC0142835383648375839387FD
:101F000082870417150726073707C0F00C191D092B
:101F10002E093F0986859785A089B1890817190779
:101F20002A073B0700F5BF016E5F7F4F80914D0D83
:101F300090914E0D0E94850480E018C00C151D057F
:101F40002E053F0528F44C155D056E057F0568F4E8
:101F5000BF016E5F7F4F80914F0D9091500D0E9499
:101F6000850480E003C081E001C081E01F910F91F2
:101F7000FF90EF90DF90CF9008950FB6F8940F92F6
:101F800080914B0D90914C0D892BE9F48CE59DE0EF
:101F90000E94700481E59DE00E9470048CE59DE044
:101FA0009093500D80934F0D81E59DE090934E0DE1
:101FB00080934D0D40E067E08AE00E941207909305
:101FC0004C0D80934B0D0F900FBE0895EF92FF9232
:101FD0000F93D3DF80914B0D90914C0D892B89F09D
:101FE0000F2EF9E4EF2EFDE0FF2EF02D03E020E0B0
:101FF00030E040EC50E060E972E083E091E07FD9AE
:1020000001C080E00F91FF90EF9008958F929F9212
:10201000AF92BF92CF92DF92EF92FF920F931F93F6
:10202000CF93DF93CDB7DEB727970FB6F894DEBF17
:102030000FBECDBFE0914B0DF0914C0D309781F16B
:1020400069832A833B834C835D839F838E836630C1
:10205000F4F4E1DE823069F400E0A7019601BE01EC
:102060006F5F7F4F80914B0D90914C0D0E94330715
:1020700018C000E020E030E0A901BE016F5F7F4F93
:1020800080914B0D90914C0D0E9433070AC020E0C7
:10209000A801BE016F5F7F4FCF010E94CF0701C033
:1020A00080E027960FB6F894DEBF0FBECDBFDF915C
:1020B000CF911F910F91FF90EF90DF90CF90BF9045
:1020C000AF909F908F9008952F923F924F925F9282
:1020D0006F927F928F929F92AF92BF92CF92DF9238
:1020E000EF92FF920F931F93CF93DF931C0170DA4F
:1020F0002B013C018091450D9091460DA091470D1B
:10210000B091480D481659066A067B0608F053C080
:102110003BC00780F085E02D80809180A280B38055
:10212000C085D1858E010E5F1F4FC8010E94C20479
:10213000EC89FD89CE0119958E8982FF25C08E8597
:102140009F85A889B989880D991DAA1DBB1D881670
:102150009906AA06BB0670F48A839B83AC83BD8371
:10216000DB87CA87B80180914F0D9091500D0E9476
:1021700085040AC0C12CD12C760100E010E0A50135
:10218000940160E0CE0142DFE0914F0DF091500DDF
:1021900080818111BECF80914D0D90914E0D909315
:1021A000500D80934F0DF0934E0DE0934D0D81E057
:1021B000F101808302C0F10110824092450D5092DE
:1021C000460D6092470D7092480DC301B201DF9138
:1021D000CF911F910F91FF90EF90DF90CF90BF9024
:1021E000AF909F908F907F906F905F904F903F90B7
:1021F0002F9008950895279A2F9A08951F9A089569
:10220000FADF2FEF80E792E0215080409040E1F725
:1022100000C00000F3DFF5CFEEDF2FEF87EA91E695
:10222000215080409040E1F700C00000E7DFF5CF8B
:1022300081B1876881B980E0B6C40895F9DF88E983
:1022400092E00E94191A0E941B03FFCF04D06894E9
:10225000B11150C0089533D088F09F5790F0B92F36
:102260009927B751A0F0D1F0660F771F881F991FEB
:102270001AF0BA95C9F712C0B13081F03AD0B1E086
:10228000089537C0672F782F8827B85F39F0B93F96
:10229000CCF3869577956795B395D9F73EF49095ED
:1022A0008095709561957F4F8F4F9F4F089557FD93
:1022B0009058440F551F59F05F3F71F04795880FB4
:1022C00097FB991F61F09F3F79F08795089512164B
:1022D00013061406551FF2CF4695F1DF08C01616F7
:1022E00017061806991FF1CF8695710561050894A8
:1022F0000895E894BB2766277727CB0197F90895BF
:102300000BD078C069D028F06ED018F0952309F072
:102310005AC05FC01124EECFCADFA0F3959FD1F35E
:10232000950F50E0551F629FF001729FBB27F00D83
:10233000B11D639FAA27F00DB11DAA1F649F6627D8
:10234000B00DA11D661F829F2227B00DA11D621F27
:10235000739FB00DA11D621F839FA00D611D221FE1
:10236000749F3327A00D611D231F849F600D211DC5
:10237000822F762F6A2F11249F5750408AF0E1F068
:1023800088234AF0EE0FFF1FBB1F661F771F881FB1
:1023900091505040A9F79E3F510570F014C0AACF4C
:1023A0005F3FECF3983EDCF3869577956795B7959C
:1023B000F795E7959F5FC1F7FE2B880F911D9695C6
:1023C000879597F9089597F99F6780E870E060E036
:1023D00008959FEF80EC089500240A9416161706BE
:1023E00018060906089500240A9412161306140606
:1023F00005060895092E0394000C11F4882352F069
:10240000BB0F40F4BF2B11F460FF04C06F5F7F4F20
:102410008F4F9F4F08956530F1F4FA0180818F73DB
:1024200090E0982F88272181822B90930A02809335
:1024300009028281F0E48F9FC0011124FA012381F7
:1024400026952695822B909308028093070281E0BF
:102450008093670D0895643051F080E090E490938C
:1024600008028093070290930A028093090208955C
:102470000F931F930BE012E120E034E244EF50E0B1
:1024800060E087E2CAD39093690D8093680D21E0E4
:10249000892B09F020E0822F1F910F9108958091E0
:1024A000680D9091690D009731F064E007D4853094
:1024B00021F083E0089582E0089580E0089560911E
:1024C00007027091080280E090E0D1D520E030E072
:1024D00045E253E415DF20E038EF4FE756E45FD5DF
:1024E00020E030E040E252E4F5C408952F923F929C
:1024F0004F925F926F927F928F929F92AF92CF9204
:10250000EF92FF920F931F93CF93DF93CDB7DEB778
:10251000F82E2A013B0188E090E043D68C018F2DF4
:1025200090E0FC01EE0FFF1FE659F24F118300838C
:102530000115110509F464C0880F991FFC01E55FBE
:10254000FD4F80819181D8018D939C936C2D70E01B
:1025500084E090E00CD61C0161E070E086E090E041
:1025600006D67C014C2DB10199D4F801F582E482A4
:102570006A2D70E084E090E0FAD51C0161E070E023
:1025800086E090E0F4D57C014A2DB10187D4D801D2
:102590001396FC92EE92129717969C928E92169733
:1025A000FFB6F894ED91FC91119736978081826087
:1025B00080838D909C90C301B20159D520E030E01A
:1025C00040E051E49DDE9B01AC0160E074E284E7F1
:1025D0009BE4E5D420E030E040E85FE37BD43BDEE1
:1025E000F40132976083D801ED91FC9111973597F2
:1025F00088E98083ED91FC91349786E08083FFBE6B
:10260000C801DF91CF911F910F91FF90EF90CF9074
:10261000AF909F908F907F906F905F904F903F9082
:102620002F900895CF93DF93DC01892B01F112964F
:10263000ED91FC911397938182812581981B9223C0
:1026400084819817B1F0838126952823C081D18198
:10265000C20FD11D68838F5F958189238383ED919C
:10266000FC91359780818062808380E003C081E0A7
:1026700001C082E0DF91CF9108950097D1F0DC0195
:102680001496ED91FC91159793818281981799F09A
:102690009281858186958923A081B181A80FB11D82
:1026A0008C91DB018C939F5F85819823928380E0DE
:1026B000089581E0089583E008951F920F920FB668
:1026C0000F9211240BB60F922F933F934F935F936A
:1026D0006F937F938F939F93AF93BF93CF93DF932A
:1026E000EF93FF93A0916A0DB0916B0D109711F1CC
:1026F0006091C6001496ED91FC91159793818281AB
:102700002581981B92238481981761F083812695F7
:102710002823C081D181C20FD11D68838F5F95812D
:10272000892383831696ED91FC911797309711F0CA
:10273000CD011995FF91EF91DF91CF91BF91AF91AD
:102740009F918F917F916F915F914F913F912F91C9
:102750000F900BBE0F900FBE0F901F9018951F92F9
:102760000F920FB60F9211240BB60F922F938F93E7
:102770009F93AF93BF93EF93FF93E0916A0DF09116
:102780006B0D3097B9F00280F381E02D9381828147
:102790009817B1F092818581282F26952923A08151
:1027A000B181A20FB11D2C919F5F89238283209359
:1027B000C6000BC0E1ECF0E080818F7D808305C016
:1027C000E1ECF0E080818F7D8083FF91EF91BF91FC
:1027D000AF919F918F912F910F900BBE0F900FBED5
:1027E0000F901F9018951F920F920FB60F92112401
:1027F0000BB60F922F933F934F935F936F937F93FB
:102800008F939F93AF93BF93CF93DF93EF93FF93F8
:10281000A0916C0DB0916D0D109711F16091CE00EB
:102820001496ED91FC911597938182812581981BD7
:1028300092238481981761F0838126952823C08193
:10284000D181C20FD11D68838F5F958189238383D6
:102850001696ED91FC911797309711F0CD011995CF
:10286000FF91EF91DF91CF91BF91AF919F918F91A8
:102870007F916F915F914F913F912F910F900BBE80
:102880000F900FBE0F901F9018951F920F920FB6CA
:102890000F9211240BB60F922F938F939F93AF93A8
:1028A000BF93EF93FF93E0916C0DF0916D0D309716
:1028B000B9F00280F381E02D938182819817B1F005
:1028C00092818581282F26952923A081B181A20F8D
:1028D000B11D2C919F5F892382832093CE000BC072
:1028E000E9ECF0E080818F7D808305C0E9ECF0E0C9
:1028F00080818F7D8083FF91EF91BF91AF919F91F8
:102900008F912F910F900BBE0F900FBE0F901F90C5
:1029100018951F920F920FB60F9211240BB60F92BB
:102920002F933F934F935F936F937F938F939F93D7
:10293000AF93BF93CF93DF93EF93FF93A0916E0D6F
:10294000B0916F0D109711F16091D6001496ED9132
:10295000FC911597938182812581981B9223848114
:10296000981761F0838126952823C081D181C20FF9
:10297000D11D68838F5F9581892383831696ED919E
:10298000FC911797309711F0CD011995FF91EF91B8
:10299000DF91CF91BF91AF919F918F917F916F9177
:1029A0005F914F913F912F910F900BBE0F900FBEF3
:1029B0000F901F9018951F920F920FB60F9211242F
:1029C0000BB60F922F938F939F93AF93BF93EF9379
:1029D000FF93E0916E0DF0916F0D3097B9F002808A
:1029E000F381E02D938182819817B1F092818581E6
:1029F000282F26952923A081B181A20FB11D2C91EA
:102A00009F5F892382832093D6000BC0E1EDF0E025
:102A100080818F7D808305C0E1EDF0E080818F7D36
:102A20008083FF91EF91BF91AF919F918F912F91F3
:102A30000F900BBE0F900FBE0F901F9018951F9216
:102A40000F920FB60F9211240BB60F922F933F9354
:102A50004F935F936F937F938F939F93AF93BF93A6
:102A6000CF93DF93EF93FF93A091700DB091710D11
:102A7000109711F1609136011496ED91FC91159724
:102A8000938182812581981B92238481981761F01C
:102A9000838126952823C081D181C20FD11D6883EF
:102AA0008F5F9581892383831696ED91FC9117970B
:102AB000309711F0CD011995FF91EF91DF91CF91F2
:102AC000BF91AF919F918F917F916F915F914F9146
:102AD0003F912F910F900BBE0F900FBE0F901F9044
:102AE00018951F920F920FB60F9211240BB60F92EA
:102AF0002F938F939F93AF93BF93EF93FF93E091A7
:102B0000700DF091710D3097B9F00280F381E02DD6
:102B1000938182819817B1F092818581282F269523
:102B20002923A081B181A20FB11D2C919F5F892320
:102B30008283209336010BC0E1E3F1E080818F7D39
:102B4000808305C0E1E3F1E080818F7D8083FF9188
:102B5000EF91BF91AF919F918F912F910F900BBEED
:102B60000F900FBE0F901F901895CF93DF931F9279
:102B7000CDB7DEB7BE016F5F7F4F8091720D909130
:102B8000730D7BDD8111F6CF898190E00F90DF918D
:102B9000CF910895682F8091720D9091730D42DD51
:102BA00080E090E008958F929F92AF92CF92EF9243
:102BB0000F93812C912C6894AA24A7F86894CC24B4
:102BC000C7F8E12C00E023E040E051EE60E070E067
:102BD0008DDC9093730D8093720DEBE8FDE083E143
:102BE00092E091838083938382830F91EF90CF90C3
:102BF000AF909F908F9008958091820D81110CC0AD
:102C00008CE08093B8008FEF8093BB0084E08093CA
:102C1000BC0081E08093820D0895AF92BF92CF9265
:102C2000DF92EF92FF920F931F93CF93DF93A82E23
:102C3000B62E69017A0184E090E0B3D2EC01892BD1
:102C400061F1A88281E0B81212C0C701B60120EA82
:102C500036E841E050E048D2DA01C9014097A109C5
:102C6000B109B695A79597958795898311C0C70136
:102C7000B60120E83AE146E050E036D2DA01C90177
:102C80004097A109B109B695A7959795879589832E
:102C90001B830A838C2F9D2F02C080E090E0DF9180
:102CA000CF911F910F91FF90EF90DF90CF90BF9049
:102CB000AF9008958091BC00817008951F93CF93C9
:102CC000DF93009729F16B3028F5162FEC01F2DF26
:102CD000811122C08091750D9091760DC817D9078A
:102CE00041F08ADF89818093B800D093760DC0933C
:102CF000750D1093770D8881880F81608093780D12
:102D000088EF8093210285EA8093BC0085E005C0AE
:102D100086E003C087E001C082E0DF91CF911F9180
:102D200008951F920F920FB60F9211240BB60F92B7
:102D30002F933F934F935F936F937F938F939F93C3
:102D4000AF93BF93EF93FF93E091B9008E2F90E084
:102D5000FC013897E135F10508F075C08827E45883
:102D6000FF4F8F4FE3C11092740DE091740D80916D
:102D7000770DE81770F481E08E0F8093740DF0E00A
:102D8000E858F24F80818093BB0085E88093BC00B7
:102D900072C084E98093BC008091750D9091760D8E
:102DA000DC011296ED91FC911397309709F463C002
:102DB00020E040E050E064E019955DC0E091740DC2
:102DC00081E08E0F8093740D8091BB00F0E0E85895
:102DD000F24F80838091B900803411F41092740D09
:102DE0002091740D30E08091770D90E001972817C5
:102DF000390724F485EC8093BC003DC085E88093BE
:102E0000BC0039C08091BB00E091740DF0E0E8583F
:102E1000F24F808384E98093BC008091750D90917E
:102E2000760DDC011296ED91FC911397309719F114
:102E30002091770D48E75DE065E019951CC085EAB3
:102E40008093BC0018C08091B9008093210284E077
:102E50008093BC008091750D9091760DDC011296E7
:102E6000ED91FC911397309731F020E040E050E075
:102E7000609121021995FF91EF91BF91AF919F91C0
:102E80008F917F916F915F914F913F912F910F9013
:102E90000BBE0F900FBE0F901F901895FC014111B3
:102EA00001C0A0D2842F90E09C01215031098223DF
:102EB0009323892B09F096D2413808F093D21282DD
:102EC00013824483440F415045837183608380E0C3
:102ED00090E008955058BB27AA270ED08BCA7CDA01
:102EE00030F081DA20F031F49F3F11F41EF471CA02
:102EF0000EF4E095E7FB67CAE92FD9D980F3BA173A
:102F0000620773078407950718F071F49EF5F1C9FD
:102F10000EF4E0950B2EBA2FA02D0B01B9019001F4
:102F20000C01CA01A0011124FF27591B99F0593F38
:102F300050F4503E68F11A16F040A22F232F342F80
:102F40004427585FF3CF469537952795A795F040CE
:102F50005395C9F77EF41F16BA0B620B730B840BE3
:102F6000BAF09150A1F0FF0FBB1F661F771F881F9B
:102F7000C2F70EC0BA0F621F731F841F48F48795F3
:102F800077956795B795F7959E3F08F0B3CF9395E2
:102F9000880F08F09927EE0F9795879508950CD024
:102FA00029CA21DA40F018DA30F021F45F3F19F035
:102FB0000ACA51119FC90DCA7AD998F39923C9F346
:102FC0005523B1F3951B550BBB27AA27621773072F
:102FD000840738F09F5F5F4F220F331F441FAA1FE3
:102FE000A9F333D00E2E3AF0E0E830D091505040A3
:102FF000E695001CCAF729D0FE2F27D0660F771F51
:10300000881FBB1F261737074807AB07B0E809F032
:10301000BB0B802DBF01FF2793585F4F2AF09E3FC7
:10302000510568F0D0C966C95F3FECF3983EDCF308
:10303000869577956795B795F7959F5FC9F7880F40
:10304000911D9695879597F90895E1E0660F771F92
:10305000881FBB1F621773078407BA0720F0621B23
:10306000730B840BBA0BEE1F88F7E0950895E89474
:1030700009C097FB3EF490958095709561957F4FC0
:103080008F4F9F4F9923A9F0F92F96E9BB2793956E
:10309000F695879577956795B795F111F8CFFAF47E
:1030A000BB0F11F460FF1BC06F5F7F4F8F4F9F4FAF
:1030B00016C0882311F096E911C0772321F09EE80D
:1030C000872F762F05C0662371F096E8862F70E073
:1030D00060E02AF09A95660F771F881FDAF7880F4D
:1030E0009695879597F90895A1E21A2EAA1BBB1B06
:1030F000FD010DC0AA1FBB1FEE1FFF1FA217B307C4
:10310000E407F50720F0A21BB30BE40BF50B661FD9
:10311000771F881F991F1A9469F76095709580959D
:1031200090959B01AC01BD01CF010895EE0FFF1FEB
:10313000881F8BBF0790F691E02D199409D0A59FA9
:10314000900DB49F900DA49F800D911D11240895A2
:10315000A29FB001B39FC001A39F700D811D1124D8
:10316000911DB29F700D811D1124911D08950F9323
:103170001F93CF93DF93869F8001879F100D969FAB
:10318000100D1124C8010DD0EC01009721F0A80109
:1031900060E070E034D1CE01DF91CF911F910F91AB
:1031A00008950F931F93CF93DF938230910510F40E
:1031B00082E090E0E091890DF0918A0D20E030E00E
:1031C000A0E0B0E0309719F1408151810281138174
:1031D00048175907C8F08417950769F4109731F01C
:1031E00012960C93129713961C9327C00093890D87
:1031F00010938A0D22C02115310519F0421753078B
:1032000018F49A01BD01EF01DF01F801DBCF2115B0
:103210003105F9F0281B390B2430310580F48A81FF
:103220009B816115710521F0FB019383828304C0AA
:1032300090938A0D8093890DFE01329644C0FE0161
:10324000E20FF31F81939193225031093983288330
:103250003AC02091870D3091880D232B41F42091A5
:103260000202309103023093880D2093870D209144
:103270000002309101022115310541F42DB73EB70E
:103280004091040250910502241B350BE091870DFB
:10329000F091880DE217F307A0F42E1B3F0B2817BF
:1032A000390778F0AC014E5F5F4F2417350748F0BF
:1032B0004E0F5F1F5093880D4093870D819391931C
:1032C00002C0E0E0F0E0CF01DF91CF911F910F91BC
:1032D0000895CF93DF93009709F481C0FC013297E2
:1032E00013821282A091890DB0918A0D109781F4FA
:1032F00020813181820F931F2091870D3091880D9D
:103300002817390751F5F093880DE093870D67C0B2
:10331000ED0120E030E0CE17DF0740F44A815B8109
:103320009E0141155105F1F0EA01F5CFD383C28327
:1033300040815181840F951FC817D90759F488819E
:103340009981840F951F0296918380838A819B8146
:10335000938382832115310529F4F0938A0DE0933C
:10336000890D3DC0E901FB83EA8349915991C40F5E
:10337000D51FEC17FD0761F480819181840F951FA3
:103380000296E90199838883828193819B838A8352
:10339000E0E0F0E012968D919C911397009719F060
:1033A000FD01DC01F7CF8D919C9111979D012E5F5E
:1033B0003F4F820F931F2091870D3091880D281762
:1033C000390769F4309729F410928A0D1092890D0B
:1033D00002C013821282B093880DA093870DDF91F3
:1033E000CF91089581E090E0F89400C3FB01DC01E7
:1033F00002C001900D9241505040D8F70895DC0171
:1034000001C06D9341505040E0F70895CF93DF9392
:10341000CDB7DEB7AE014A5F5F4FFA01619171919E
:10342000AF0180918D0D90918E0D33D0DF91CF91B2
:1034300008950F931F93CF93DF93E0918D0DF0913B
:103440008E0D238121FF1BC08C01D0E0C0E0F8016C
:1034500081918F0160918D0D70918E0DDB01189619
:10346000ED91FC911997882331F01995892B79F307
:10347000DFEFCFEFECCF8AE01995892B19F08FEFB2
:103480009FEF02C08D2F9C2FDF91CF911F910F9145
:1034900008952F923F924F925F926F927F928F92F8
:1034A0009F92AF92BF92CF92DF92EF92FF920F93D3
:1034B0001F93CF93DF93CDB7DEB72B970FB6F8945A
:1034C000DEBF0FBECDBF6C017B018A01FC011782FC
:1034D0001682838181FFBFC1CE0101963C01F601B6
:1034E0009381F70193FD859193FF81917F0188235B
:1034F00009F4ADC1853239F493FD859193FF819133
:103500007F01853221F4B60190E0D6D1E8CF912C2D
:10351000212C312CFFE1F315D8F08B3279F038F4FF
:10352000803279F08332A1F4232D20611DC08D32C9
:1035300061F0803369F4232D216016C0832D8260F1
:10354000382EE32DE4603E2E2AC0F32DF8601DC016
:1035500037FC2DC020ED280F2A3040F08E32B9F410
:1035600036FC75C1232D2064322E19C036FE06C0EC
:103570008AE0989E200D1124922E11C0EAE02E9E22
:10358000200D1124222EF32DF0623F2E08C08C3620
:1035900021F4832D8068382E02C0883641F4F7016B
:1035A00093FD859193FF81917F018111B3CF982F76
:1035B0009F7D9554933028F40C5F1F4F9FE39983B0
:1035C0000DC0833631F0833771F0833509F055C073
:1035D00020C0F801808189830E5F1F4F8824839467
:1035E000912C530112C02801F2E04F0E511CF8013A
:1035F000A080B18036FE03C0692D70E002C06FEF7D
:103600007FEFC5014ED14C018201F32DFF773F2E94
:1036100015C0280122E0420E511CF801A080B180A3
:1036200036FE03C0692D70E002C06FEF7FEFC50169
:103630002DD14C01F32DF0683F2E820133FC19C0CF
:10364000822D90E088169906A0F4B60180E290E001
:1036500033D12A94F5CFF50137FC859137FE81915E
:103660005F01B60190E028D121102A9421E0821A4E
:1036700091088114910479F7E1C0843611F08936FC
:1036800039F5F80137FE07C060817181828193812D
:103690000C5F1F4F08C060817181072E000C880BE2
:1036A000990B0E5F1F4FF32DFF763F2E97FF09C03A
:1036B00090958095709561957F4F8F4F9F4FF068E3
:1036C0003F2E2AE030E0A30133D1882E861844C073
:1036D000853731F4232D2F7EB22E2AE030E025C02D
:1036E000932D997FB92E8F36C1F018F4883579F073
:1036F000AEC0803719F0883721F0A9C0E92FE0610A
:10370000BE2EB4FE0DC0FB2DF460BF2E09C034FEEA
:103710000AC0292F2660B22E06C028E030E005C07E
:1037200020E130E002C020E132E0F801B7FE07C03E
:1037300060817181828193810C5F1F4F06C060811F
:10374000718180E090E00E5F1F4FA301F1D0882EC1
:103750008618FB2DFF773F2E36FE0DC0232D2E7FC2
:10376000A22E891458F434FE0BC032FC09C0832DFC
:103770008E7EA82E05C0B82CA32C03C0B82C01C087
:10378000B92CA4FE0FC0FE01E80DF11D808180332D
:1037900021F49A2D997EA92E09C0A2FE06C0B394E9
:1037A000B39404C08A2D867809F0B394A3FC10C0AA
:1037B000A0FE06C0B21480F4280C922C9B180DC0F9
:1037C000B21458F4B60180E290E076D0B394F8CF0A
:1037D000B21418F42B1802C0982C212CA4FE0FC090
:1037E000B60180E390E068D0A2FE16C0A1FC03C041
:1037F00088E790E002C088E590E0B6010CC08A2D11
:10380000867851F0A1FE02C08BE201C080E2A7FCE5
:103810008DE2B60190E050D0891430F4B60180E317
:1038200090E04AD09A94F8CF8A94F301E80DF11D04
:103830008081B60190E040D08110F6CF222009F4BB
:103840004ECEB60180E290E037D02A94F7CFF60151
:103850008681978102C08FEF9FEF2B960FB6F89469
:10386000DEBF0FBECDBFDF91CF911F910F91FF90B3
:10387000EF90DF90CF90BF90AF909F908F907F9010
:103880006F905F904F903F902F900895FC010590AE
:10389000615070400110D8F7809590958E0F9F1F52
:1038A0000895FC016150704001900110D8F7809597
:1038B00090958E0F9F1F08950F931F93CF93DF93C3
:1038C000FB01238121FD03C08FEF9FEF2CC022FF5E
:1038D00016C046815781248135814217530744F42D
:1038E000A081B1819D012F5F3F4F318320838C9355
:1038F000268137812F5F3F4F3783268314C08B018A
:10390000EC01FB010084F185E02D1995892BE1F68E
:10391000D80116968D919C911797019617969C93B6
:103920008E931697CE01DF91CF911F910F9108953D
:10393000FA01AA27283051F1203181F1E8946F93E0
:103940006E7F6E5F7F4F8F4F9F4FAF4FB1E03ED086
:10395000B4E03CD0670F781F891F9A1FA11D680F24
:10396000791F8A1F911DA11D6A0F711D811D911D57
:10397000A11D20D009F468943F912AE0269F1124CC
:103980003019305D3193DEF6CF010895462F477030
:10399000405D4193B3E00FD0C9F7F6CF462F4F708B
:1039A000405D4A3318F0495D31FD4052419302D0E9
:1039B000A9F7EACFB4E0A69597958795779567958F
:1039C000BA95C9F700976105710508959B01AC018F
:1039D0000A2E06945795479537952795BA95C9F7B6
:1039E000620F731F841F951FA01D0895F894FFCFC9
:1039F0000000910D20000900400040C600CE00D616
:103A00000036010000000300000000CA15B51500D3
:103A100000F8736F6D657468696E672077726F6EFA
:103A200067206F6E2074656D706572617475726564
:103A30002073656E736F720074656D70657261746A
:103A40007572653A25640054656D706572617475B0
:103A500072652073656E736F722073746172746522
:103A6000642121210054656D706572617475726501
:103A700053656E736F725461736B0049444C45001B
:103A8000546D72205376630050726F6772616D20BF
:0C3A9000537461727465642121210000F0
:00000001FF
