:1000000090C20000AFC20000ADC20000ABC2000051
:10001000A9C20000A7C20000A5C20000A3C2000040
:10002000A1C200009FC200009DC200009BC2000050
:100030000C94E90B97C2000095C2000093C2000027
:1000400091C200008FC200008DC200008BC2000070
:1000500089C200000C94021C85C2000083C200000B
:100060000C9423230C94041F0C94561F7BC2000095
:1000700079C2000077C2000075C2000073C20000A0
:1000800071C200006FC200006DC200006BC20000B0
:100090000C949A1F0C94EC1F65C200000C949F24D2
:1000A00061C200005FC200005DC200005BC20000D0
:1000B00059C2000057C2000055C2000053C20000E0
:1000C00051C200004FC200004DC200000C9430200D
:1000D0000C94822047C200000C94C6200C94182176
:1000E00041C20000070207020702410249025F0203
:1000F0000702070241024902C12431253125312579
:100100003125312531253125C124312531253125B0
:100110003125312531253125C3243125312531259E
:10012000312531253125312531253125312531251F
:100130003125312531253125C3243125312531257E
:1001400031253125312531253125312531253125FF
:1001500031253125312531252D25312531253125F3
:100160003125312531253125F82431253125312519
:1001700031253125312531253125312531253125CF
:100180003125312531253125EC2431253125312505
:100190003125312531253125102507634236B79B9E
:1001A000D8A71A39685618AEBAAB558C1D3CB7CCD7
:1001B0005763BD6DEDFD753EF6177231BF0000004F
:1001C000803F08000000BE922449123EABAAAA2A32
:1001D000BECDCCCC4C3E00000080BEABAAAAAA3E4D
:1001E00000000000BF000000803F00000000000889
:1001F0004178D3BB4387D1133D190E3CC3BD428226
:10020000AD2B3E68EC8276BED98FE1A93E4C80EFE3
:10021000FFBE01C4FF7F3F000000000005E01EE0BC
:100220000F2EF5E3EF2EFEE0FF2EF02D8091040E51
:10023000882329F10FB6F8940F92D8011796ED9103
:10024000FC911897C085D185CE0102960E94AA0A1A
:100250008091F80D81508093F80D8091040E8150AB
:100260008093040E0F900FBE8B8D9C8D0E941F0AF1
:10027000CE010E941F0A8091040E8111DBCFF7018D
:100280008081823010F00E94240B0E94AF18CECFE4
:10029000CF93DF93CDB7DEB760970FB6F894DEBF8C
:1002A0000FBECDBFCE0101969A878987812C912CF4
:1002B000A12CB12C69847A84E091AF0EF091B00E3C
:1002C0008081882309F413C10780F085E02D208008
:1002D0003180428053800E949511CE0101960E9488
:1002E00019186B877C878D879E878981811167C0EC
:1002F0008B859C85AD85BE8582159305A405B505C6
:1003000008F445C00E94D912E091AF0EF091B00EF2
:100310000780F085E02DA085B185B88BAF87CD0132
:1003200002960E94AA0AEF85F889868982FF21C079
:100330004685578560897189420D531D641D751D61
:10034000720161010B851C852D853E85CF010E94C0
:100350002917882399F0C82CD92CEA2CFB2C00E013
:1003600010E0A201910160E08F8598890E94BB177F
:1003700005C08E7FAF85B88956968C93AF85B889B6
:100380005496ED91FC915597CD011995A1C020E0AF
:10039000B201A1018B859C85AD85BE85481B590B9B
:1003A0006A0B7B0B8091AB0E9091AC0E0E94510FAB
:1003B0000E94D91281118CC00E94240B89C00E9416
:1003C000D91286C0898188230CF482C04E805F8058
:1003D000D2011C968D919C911D97892B21F0C20111
:1003E00002960E94AA0ACE0108960E9419188B0153
:1003F0009C01E9810E2E000CFF0BEA30F10508F09C
:1004000067C08827EE58FF4F8F4F0C947027F2017A
:1004100086898160868BCA80DB80EC80FD80468582
:100420005785608971894C0D5D1D6E1D7F1DC20150
:100430000E942917882309F44BC0D2015496ED91EC
:10044000FC915597C2011995F201868982FF40C03F
:100450004A815B816C817D8186859785A089B18980
:100460009A01AB01280F391F4A1F5B1FC82CD92CDA
:10047000EA2CFB2C00E010E060E0C2010E94BB17F8
:1004800027C0D20156968C9156978E7F56968C93A4
:100490001FC0F20186898160868B4A815B816C81F5
:1004A0007D8146875787608B718B400F511F621F7C
:1004B000731F68017901C2010E94291709C0F20166
:1004C000868981FD03C0C201BAD702C08E7F868BA8
:1004D000282D392D4A2D5B2D662D772D8091AB0E61
:1004E0009091AC0E0E94F40D81116CCFE5CE0E946C
:1004F0009511CE0101960E9419186B877C878D8714
:100500009E87898181115BCFE091AD0EF091AE0E97
:10051000808121E0811120E0282C392C4A2C5B2C91
:1005200037CF11241FBECFEFD1E2DEBFCDBF00E039
:100530000CBF14E0A0E0B2E0ECECF7E500E00BBF8C
:1005400002C007900D92A830B107D9F72FE0A8E0BC
:10055000B4E001C01D92A434B207E1F70E94F7187D
:100560000C94E42B4DCD0F2EF8EE8F2EF3E09F2E42
:10057000A12CB12CF02D6894FF24F2F806E612E0CD
:100580008091250F882321F08FE492E00E940729B3
:100590000E94831D8093250F8091280F9091290F31
:1005A00072D320E030E04AEF53E40E948B1A0E949D
:1005B000D1199B01AC01AEE3B0E00E947827A50100
:1005C00094010E944E27CA01B9010E94BF1382B153
:1005D0008F2582B98091280F9091290F54D320E064
:1005E00030E04AEF53E40E948B1A0E94D1199B011C
:1005F000AC01AEE3B0E00E947827A50194010E940F
:100600004E27CA01B9010E94BF1382B18F2582B95A
:1006100086E29FE00E94B21DD091260FC091270F65
:10062000CF93DF931F930F930E94F4286D2F7C2F9D
:100630008091280F9091290F06D38091280F9091D7
:10064000290F66D30F900F900F900F9099CFEF92D4
:10065000FF920F939093290F8093280F81E792E0E8
:100660000E940729E12CF12C01E021E030E040EC70
:1006700050E067E872E083EB92E00E9432100F9145
:10068000FF90EF9008950F2EFFE88F2EF2E09F2E3F
:10069000F02D12E00F2EF3EB2F2EF2E03F2EF02D77
:1006A0000F2EF0E1AF2EF7E2BF2EF02DC5EDD2E018
:1006B0000E94B61C882331F09F928F920E94F428EA
:1006C0000F900F9080912A0F90912B0F9AD320E0DA
:1006D00030E04AEF53E40E948B1A0E94D1199B012B
:1006E000AC01AEE3B0E00E94782728EE33E040E0B2
:1006F00050E00E944E27CA01B9010E94BF1382B187
:10070000812782B90E94CA1C882331F03F922F9220
:100710000E94F4280F900F9080912A0F90912B0F38
:1007200070D320E030E04AEF53E40E948B1A0E941D
:10073000D1199B01AC01AEE3B0E00E94782728EE0E
:1007400033E040E050E00E944E27CA01B9010E9408
:10075000BF1382B1812782B90E94DA1CAB01BC01B0
:10076000409308045093090460930A0470930B04A7
:1007700080912A0F90912B0F1CD380912A0F90917A
:100780002B0F64D30E94CC196B017C0180912A0F3E
:1007900090912B0F5BD32B013C0180912A0F9091FC
:1007A0002B0F79D320E030E44CE156E4C301B201D1
:1007B0000E948B1A2B013C01AC9CB001AD9C700DCA
:1007C000BC9C700D1124072E000C880B990B0E9405
:1007D000FF199B01AC01C301B2010E94FF180E94E6
:1007E000CC197F936F93DF92CF92DF93CF930E94C8
:1007F000F4280F900F900F900F900F900F9058CFFC
:10080000EF92FF920F9390932B0F80932A0F8EED10
:1008100092E00E940729E12CF12C01E021E030E078
:1008200040EC50E069EF72E083E493E00E94321004
:100830000F91FF90EF9008950F2EF4E68F2EF02D7C
:100840000F2EF8EECF2EF3E0DF2EE12CF12CF02D61
:100850006894992496F86894AA24A5F86894BB240F
:10086000B4F882B1805882B9C7D4EC01CBD48C01E2
:10087000CE01CCD4809EB001819E700D1124860FD4
:10088000971FBC01990F880B990B0E94FF1920E05C
:1008900030E048EC52E40E94641942E00E94141BCC
:1008A00020E030E04AE754E460912C0F70912D0F66
:1008B00080912E0F90912F0F0E948B1A0E94D119B8
:1008C0009B01AC01AEE3B0E00E947827A70196013E
:1008D0000E944E27CA01B9010E94BF1382B18058FD
:1008E00082B982B1892582B9DDD373D342E00E94F7
:1008F000141B20E030E04AE754E460912C0F709123
:100900002D0F80912E0F90912F0F0E948B1A0E9415
:10091000D1199B01AC01AEE3B0E00E947827A7019A
:1009200096010E944E27CA01B9010E94BF1382B1ED
:10093000892582B982B18A2582B9B9D387D242E0AA
:100940000E94141B20E030E04AE754E460912C0F31
:1009500070912D0F80912E0F90912F0F0E948B1A66
:100960000E94D1199B01AC01AEE3B0E00E94782750
:10097000A70196010E944E27CA01B9010E94BF1328
:1009800082B18A2582B982B18B2582B995D3A1D152
:10099000BC01990F880B990B0E94FF1940E00E943F
:1009A000141B20E030E04AE754E460912C0F709172
:1009B0002D0F80912E0F90912F0F0E948B1A0E9465
:1009C000D1199B01AC01AEE3B0E00E947827A701EA
:1009D00096010E944E27CA01B9010E94BF1382B13D
:1009E0008B2582B93ECFEF92FF920F9360932C0F2D
:1009F00070932D0F80932E0F90932F0F80E090E037
:100A00000E94C51B0E94BA1B87E093E00E94072941
:100A1000E12CF12C01E021E030E040EC50E064E218
:100A200073E08CE194E00E9432100F91FF90EF9000
:100A300008950F2EFFE88F2EF2E09F2EF02D11E08B
:100A40000F2EFBE32F2EF3E03F2EF02D0F2EF0E1C3
:100A5000AF2EF7E2BF2EF02DC0E6D3E00E94B61C09
:100A6000882331F09F928F920E94F4280F900F906C
:100A70008091300F9091310F87D220E030E04AEF23
:100A800053E40E948B1A0E94D1199B01AC01AEE382
:100A9000B0E00E94782728EE33E040E050E00E946A
:100AA0004E27CA01B9010E94BF1382B1812782B9C2
:100AB0000E94CA1C882331F03F922F920E94F42892
:100AC0000F900F908091300F9091310F5DD220E008
:100AD00030E04AEF53E40E948B1A0E94D1199B0127
:100AE000AC01AEE3B0E00E94782728EE33E040E0AE
:100AF00050E00E944E27CA01B9010E94BF1382B183
:100B0000812782B90E94EC1CAB01BC0140930C040C
:100B100050930D0460930E0470930F048091300F76
:100B20009091310F09D28091300F9091310F51D2B5
:100B30000E94CC196B017C018091300F9091310F94
:100B400048D22B013C018091300F9091310F66D239
:100B500020E030E44CE156E4C301B2010E948B1A5C
:100B60002B013C01AC9CB001AD9C700DBC9C700D88
:100B70001124072E000C880B990B0E94FF199B0172
:100B8000AC01C301B2010E94FF180E94CC197F93EF
:100B90006F93DF92CF92DF93CF930E94F4280F9050
:100BA0000F900F900F900F900F9058CFEF92FF92F1
:100BB0000F939093310F8093300F82E793E00E9460
:100BC0000729E12CF12C01E021E030E040EC50E07D
:100BD00060E973E089E195E00E9432100F91FF9087
:100BE000EF900895CF92DF92EF92FF920F93CF9301
:100BF000DF936B017C0161E070E08AE090E00E948D
:100C0000A527EC01892BB1F0C882D982EA82FB8248
:100C10001D821C82B2D29987888743E060E081E020
:100C2000ECD69F838E8300E020E030E0A90160E0F5
:100C300070E004D7CE01DF91CF910F91FF90EF903C
:100C4000DF90CF9008950F931F93CF93DF93EC0124
:100C50008B014FEF5FEFBA018E819F810E94890E59
:100C60001D830C8388859985A0D200E020E030E0C8
:100C7000A90160E070E08E819F81E0D6DF91CF9185
:100C80001F910F910895CF92DF92EF92FF920F93F1
:100C9000CF93DF93EC014FEF5FEFBA018E819F811D
:100CA0000E94890EC880D980EA80FB8000E020E0A5
:100CB00030E0A90160E070E08E819F81BFD6C7015E
:100CC000B601DF91CF910F91FF90EF90DF90CF9021
:100CD0000895EF92FF920F93CF93DF93EC014FEFC4
:100CE0005FEFBA018E819F810E94890EEC80FD80AA
:100CF00000E020E030E0A90160E070E08E819F819B
:100D00009DD6C701DF91CF910F91FF90EF9008958D
:100D1000EF92FF920F93CF93DF93EC014FEF5FEFD2
:100D2000BA018E819F81F5D7E884F98400E020E044
:100D300030E0A90160E070E08E819F817FD6C7011D
:100D4000DF91CF910F91FF90EF900895CF92DF92B6
:100D5000EF92FF920F93CF93DF936B017C0161E0E1
:100D600070E08CE090E00E94A527EC01892BC1F097
:100D7000C882D982EA82FB821C821D821E821F8267
:100D8000FCD19B878A8743E060E081E036D6998773
:100D9000888700E020E030E0A90160E070E04ED6F6
:100DA000CE01DF91CF910F91FF90EF90DF90CF9028
:100DB0000895CF92DF92EF92FF920F93CF93DF933C
:100DC000EC016A017B014FEF5FEFBA0188859985DD
:100DD000A0D7CC82DD82EE82FF828A859B85E5D119
:100DE00000E020E030E0A90160E070E088859985AE
:100DF00025D6DF91CF910F91FF90EF90DF90CF90AC
:100E00000895CF92DF92EF92FF920F93CF93DF93EB
:100E1000EC014FEF5FEFBA01888599857AD7C880DA
:100E2000D980EA80FB8000E020E030E0A90160E0AA
:100E300070E08885998502D6C701B601DF91CF9110
:100E40000F91FF90EF90DF90CF900895CF92DF92B7
:100E5000EF92FF920F93CF93DF93EC014FEF5FEF91
:100E6000BA018885998555D7CC80DD80EE80FF80DA
:100E700000E020E030E0A90160E070E0888599851D
:100E8000DDD5C701B601DF91CF910F91FF90EF90B3
:100E9000DF90CF900895EF92FF920F93CF93DF935F
:100EA000EC014FEF5FEFBA018885998532D7EA846C
:100EB000FB8400E020E030E0A90160E070E088857C
:100EC0009985BCD5C701DF91CF910F91FF90EF902D
:100ED0000895CF92DF92EF92FF920F93CF93DF931B
:100EE0006B017C0161E070E08CE090E00E94A5273E
:100EF000EC01892BC1F0C882D982EA82FB821C8274
:100F00001D821E821F8239D19B878A8743E060E061
:100F100081E073D59987888700E020E030E0A9015F
:100F200060E070E08BD5CE01DF91CF910F91FF9003
:100F3000EF90DF90CF900895CF92DF92EF92FF92E3
:100F40000F93CF93DF93EC016A017B014FEF5FEFCB
:100F5000BA0188859985DDD6CC82DD82EE82FF825A
:100F60008A859B8522D100E020E030E0A90160E085
:100F700070E08885998562D5DF91CF910F91FF90C0
:100F8000EF90DF90CF900895CF92DF92EF92FF9293
:100F90000F93CF93DF93EC014FEF5FEFBA0188859A
:100FA0009985B7D6C880D980EA80FB8000E020E030
:100FB00030E0A90160E070E0888599853FD5C701E0
:100FC000B601DF91CF910F91FF90EF90DF90CF901E
:100FD0000895CF92DF92EF92FF920F93CF93DF931A
:100FE000EC014FEF5FEFBA018885998592D6CC80EE
:100FF000DD80EE80FF8000E020E030E0A90160E0CD
:1010000070E0888599851AD5C701B601DF91CF9127
:101010000F91FF90EF90DF90CF900895EF92FF92A5
:101020000F93CF93DF93EC014FEF5FEFBA01888509
:1010300099856FD6EA84FB8400E020E030E0A901C6
:1010400060E070E088859985F9D4C701DF91CF9180
:101050000F91FF90EF90089560E070E080E09FE3D3
:10106000C2DC60E070E080E89FE333DF9093350FEF
:101070008093340F9BDD60E070E080E89FE366DEE4
:101080009093370F8093360FBBDB60E070E080E811
:101090009FE3A8DD9093330F8093320FD8DA0C943E
:1010A0005F1108958091340F9091350F08958091CC
:1010B000360F9091370F08958091320F9091330F32
:1010C00008956EE370E080E090E00E94BF13E0912D
:1010D000380FF091390F8285938501969387828727
:1010E000CC977CF3808591850196918780871386C4
:1010F0001286CC9734F386819781019697838683F5
:10110000118610864897ECF217821682DACFEF929A
:10111000FF920F938091380F9091390F892B49F5E9
:1011200061E070E08CE090E00E94A527FC019093C4
:10113000390F8093380F892BE1F0118210821382CE
:1011400012821582148217821682118610861386E7
:10115000128686EA93E00E940729E12CF12C01E037
:1011600021E030E040EC50E060EC73E081E698E094
:1011700079D70F91FF90EF900895C9DF61E070E09B
:101180008CE090E00E94A527FC01892B61F0118280
:10119000108213821282158214821782168211869F
:1011A000108613861286CF010895CF93DF93EC014A
:1011B000AEDFE091380FF091390F808191819983F2
:1011C0008883E091380FF091390F828193819B835E
:1011D0008A83848195819D838C83868197819F8377
:1011E0008E838085918599878887828593859B8763
:1011F0008A87DF91CF9108958ADF8091380F90918F
:10120000390F0895FC01868197810895FC0180853E
:1012100091850895CF93DF93DC01ECE1F4E001C008
:10122000F901208131812A173B07D0F38281938114
:10123000AF01480F591FA417B50749F412964D91F5
:101240005C911397840F951F93838283DF0112961D
:101250008D919C911397ED01C80FD91F2C173D0755
:10126000D9F420911A0430911B04C217D30781F0DE
:101270002A813B81820F931F13969C938E93129722
:10128000C081D1818881998111969C938E9307C0EA
:101290001196DC93CE9303C011963C932E93AE1718
:1012A000BF0711F0B183A083DF91CF910895CF9252
:1012B000DF92EF92FF920F931F93CF93DF93EC0196
:1012C0000E94951180911A0490911B04892B41F57D
:1012D000ECE1F4E0A0E2B4E0B183A08313821282D7
:1012E000E0EEFDE0F0931B04E0931A0413821282F7
:1012F0001182108280EC99E013969C938E93129742
:10130000ED93FC9390931704809316049093190423
:101310008093180480E090E8909311048093100467
:10132000E0901004F0901104C7018C239D23892BB9
:1013300009F075C0209709F475C09E012C5F3F4FDE
:10134000C217D30708F06EC02115310509F467C034
:1013500000911804109119040217130708F45FC0D4
:10136000C0911C04D0911D04ECE1F4E002C0FE0128
:10137000EC018A819B818217930720F488819981EF
:101380000097A9F780911A0490911B04C817D907F8
:1013900009F445C0C080D18084E0C80ED11C88818A
:1013A0009981918380834A815B81421B530B493031
:1013B000510548F0CE01820F931FFC0153834283F5
:1013C0003B832A8327DF8A819B81081B190B10939B
:1013D0001904009318042091160430911704021781
:1013E000130720F41093170400931604E82AF92A2F
:1013F000FB82EA821982188280911404909115046C
:10140000019690931504809314040E94D912C1147C
:10141000D10459F40E94B518C12CD12C06C00E94E9
:10142000D912F8CF0E94D912F5CFC601DF91CF9122
:101430001F910F91FF90EF90DF90CF900895CF9381
:10144000DF93009791F1FC01349722813381409121
:10145000100450911104B90164237523672B29F1FD
:1014600060817181672B09F5EF0140955095242328
:1014700035233383228359D72091180430911904DE
:101480008A819B81820F931F909319048093180483
:10149000CE01C0DE809112049091130401969093C6
:1014A0001304809312040E94D912DF91CF91089502
:1014B000FC010396928381834FEF5FEFBA01438370
:1014C0005483658376839087878392878187108290
:1014D0000895FC011386128608950F931F93CF93EE
:1014E000DF93EB01088119812A813B810F3F4FEF88
:1014F00014072407340721F4FC01A185B28511C02B
:10150000DC01139601C0DF011496ED91FC91159753
:1015100040815181628173810417150726073707BF
:1015200090F71496ED91FC911597FD83EC83D7838A
:10153000C683BF83AE831596DC93CE9314979B87A7
:101540008A87FC0120812F5F2083DF91CF911F913B
:101550000F910895CF93DF93FC01A285B385C481D9
:10156000D581868197819F838E83C681D78184812F
:1015700095819D838C8311968D919C911297E8178C
:10158000F90731F48681978112969C938E93119777
:10159000138612868C9181508C938C91DF91CF9120
:1015A0000895FC01608331977083319710823197E1
:1015B0001082319720E82083319710823197108272
:1015C000319710827797408331975083869708959B
:1015D000A89590EC88E10FB6F894A89580936000E8
:1015E0000FBE90936000A091A30EB091A40ECD9178
:1015F000CDBFDD91DEBFFF91EF91DF91CF91BF9124
:10160000AF919F918F917F916F915F914F913F919A
:101610002F911F910F91FF90EF90DF90CF90BF908F
:10162000AF909F908F907F906F905F904F903F9082
:101630002F901F900F900CBE0F900BBE0F900FBEFF
:101640000F90089581E008950F920FB6F8940F92CD
:101650000BB60F920CB60F921F9211242F923F924D
:101660004F925F926F927F928F929F92AF92BF92B2
:10167000CF92DF92EF92FF920F931F932F933F939E
:101680004F935F936F937F938F939F93AF93BF938A
:10169000CF93DF93EF93FF93A091A30EB091A40E8D
:1016A0000DB60D920EB60D920E94D813A091A30E06
:1016B000B091A40ECD91CDBFDD91DEBFFF91EF9132
:1016C000DF91CF91BF91AF919F918F917F916F915A
:1016D0005F914F913F912F911F910F91FF90EF904C
:1016E000DF90CF90BF90AF909F908F907F906F9042
:1016F0005F904F903F902F901F900F900CBE0F90D7
:101700000BBE0F900FBE0F9008950F920FB6F89476
:101710000F920BB60F920CB60F921F9211242F92BC
:101720003F924F925F926F927F928F929F92AF9271
:10173000BF92CF92DF92EF92FF920F931F932F935E
:101740003F934F935F936F937F938F939F93AF9349
:10175000BF93CF93DF93EF93FF93A091A30EB0912C
:10176000A40E0DB60D920EB60D9213BEF2D58111D8
:101770000E94D813A091A30EB091A40ECD91CDBF1D
:10178000DD91DEBFFF91EF91DF91CF91BF91AF91DE
:101790009F918F917F916F915F914F913F912F9189
:1017A0001F910F91FF90EF90DF90CF90BF90AF907F
:1017B0009F908F907F906F905F904F903F902F9071
:1017C0001F900F900CBE0F900BBE0F900FBE0F908E
:1017D00008959BDF18950FB6F8940F92FC01968D33
:1017E0000F900FBE81E0911180E008950F931F9339
:1017F000CF93DF93EC01042F1E8D48A141110CC043
:1018000088819981892B09F042C08C819D810E9439
:1018100055161D821C8242C0011117C050E08A81FA
:101820009B810E94E42828A18A819B81820F911DBF
:101830009B838A832C813D818217930750F1888195
:1018400099819B838A8380E029C050E08E819F81AB
:101850000E94E42888A190E09195819591092E81BC
:101860003F81280F391F3F832E83488159812417D8
:10187000350730F42C813D81820F931F9F838E8327
:10188000023049F4112349F0115080E007C080E094
:1018900005C080E003C080E001C080E01F5F1E8FB4
:1018A000DF91CF911F910F910895FC0140A1442336
:1018B000A9F050E026813781240F351F3783268316
:1018C000848195812817390720F080819181978341
:1018D0008683CB01668177810C94E4280895EF928A
:1018E000FF920F931F93CF938C010FB6F8940F9232
:1018F000FC01C2A11C16ACF48389811106C011C081
:10190000F8018389811105C00CC07801F3E1EF0E65
:10191000F11CC7010E94A21481110E94BC15C15084
:1019200079F78FEFF80182A30F900FBE0FB6F894EE
:101930000F92C1A11C16A4F48085811106C010C0AD
:10194000F8018085811105C00BC07801F8E0EF0E29
:10195000F11CC701F7D781110E94BC15C15081F756
:101960008FEFF80181A30F900FBECF911F910F91C0
:10197000FF90EF900895CF93DF93EC010FB6F894AA
:101980000F92E881F9818F8D28A190E030E0829F4D
:10199000A001839F500D929F500D11244E0F5F1F89
:1019A0005D834C831E8EFB83EA830197829FA00197
:1019B000839F500D929F500D1124CF01840F951FCE
:1019C0009F838E838FEF89A38AA361110AC08885C4
:1019D000882369F0CE010896B5D7882341F034DE1C
:1019E00006C0CE01089664DDCE01439661DD0F90FE
:1019F0000FBE81E0DF91CF9108950F931F93CF9396
:101A0000DF93082F162F869FC001112483964FDC89
:101A1000EC01009769F0111103C09983888303C01A
:101A20008396998388830F8F18A361E0CE01A3DF8B
:101A3000CE01DF91CF911F910F9108959F92AF92A8
:101A4000BF92CF92DF92EF92FF920F931F93CF93AB
:101A5000DF93CDB7DEB729970FB6F894DEBF0FBE80
:101A6000CDBF7C015B012E833F834887598710E0FF
:101A7000992493946C0188E0C80ED11C0FB6F89499
:101A80000F92F701968D878D981710F00230A9F408
:101A9000402FB501C701AADEF7019389992339F0D8
:101AA000C70143964FD7882321F0CEDD02C08111B4
:101AB000CBDD0F900FBE81E04BC08E819F81A8854A
:101AC000B985892B8A2B8B2B21F40F900FBE80E0D8
:101AD0003FC0111104C0CE010196E4D7192D0F901B
:101AE0000FBE23D40FB6F8940F92F70181A18F3F58
:101AF00009F411A2F70182A18F3F09F412A20F90FD
:101B00000FBEBE016A5F7F4FCE010196DCD7811107
:101B10001BC00FB6F8940F92F701968D878D0F902A
:101B20000FBE98130DC04E815F8168857985C6010F
:101B3000B0D6C701D4DE3DD58111A0CF85DD9ECFC3
:101B4000C701CDDE36D59ACFC701C9DE32D580E0D8
:101B500029960FB6F894DEBF0FBECDBFDF91CF91AF
:101B60001F910F91FF90EF90DF90CF90BF90AF90BB
:101B70009F900895EF92FF920F931F93CF93DF935F
:101B80008A01FC01568D378D531710F02230F1F485
:101B9000422F7801EC011AA18E8DCE0127DE1F3F66
:101BA00079F48B898823A1F0CE014396CBD6882384
:101BB00089F0E114F10481F081E0F70180830DC028
:101BC000FF24F394F10EFAA281E007C080E005C083
:101BD00081E003C081E001C081E0DF91CF911F91DE
:101BE0000F91FF90EF9008959F92AF92BF92CF9286
:101BF000DF92EF92FF920F931F93CF93DF93CDB7B6
:101C0000DEB729970FB6F894DEBF0FBECDBF8C01AB
:101C10005B012E833F8348875987E12C9924939455
:101C20006C0183E1C80ED11C0FB6F8940F92F80135
:101C3000F68CFF2091F0B501C80137DEFA94F80167
:101C4000F68E8085882329F0C80108967BD68111FD
:101C5000FBDC0F900FBE81E04AC08E819F81A8857A
:101C6000B985892B8A2B8B2B21F40F900FBE80E036
:101C70003EC0E11004C0CE01019614D7E92C0F90AC
:101C80000FBE53D30FB6F8940F92F80181A18F3F86
:101C900009F411A2F80182A18F3F09F412A20F905A
:101CA0000FBEBE016A5F7F4FCE0101960CD7811136
:101CB00015C0C80190DD882369F04E815F81688579
:101CC0007985C601E6D5C8010ADE73D48111ACCF8F
:101CD000BBDCAACFC80103DE6CD4A6CFC801FFDDF0
:101CE00068D4C80178DD882309F49ECF80E0299666
:101CF0000FB6F894DEBF0FBECDBFDF91CF911F911D
:101D00000F91FF90EF90DF90CF90BF90AF909F909A
:101D10000895BF92CF92DF92EF92FF920F931F939D
:101D2000CF93DF93CDB7DEB729970FB6F894DEBF18
:101D30000FBECDBF8C014E835F8368877987B12C3E
:101D4000D12CCC24C3947C0183E1E80EF11C0FB6A6
:101D5000F8940F92D8015E968C915E978823D9F003
:101D600081505E968C935E978D919C91892B29F47E
:101D70000E941717F80195838483D80118968C91D7
:101D8000882329F0C8010896DDD581115DDC0F900C
:101D90000FBE81E076C08E819F81A885B985892B91
:101DA0008A2B8B2B21F40F900FBE80E06AC0D110DC
:101DB00004C0CE01019676D6DC2C0F900FBEB5D2B2
:101DC0000FB6F8940F92F80181A18F3F09F411A288
:101DD000D80192968C9192978F3F11F492961C9213
:101DE0000F900FBEBE016A5F7F4FCE0101966BD68A
:101DF000811123C0C801EFDC8823D9F0F80180816C
:101E00009181892B49F40FB6F8940F9284819581C2
:101E1000C5D6B82E0F900FBE4E815F81688579853B
:101E2000C70137D5C8015BDDC4D3811190CF0CDC6D
:101E30008ECFC80154DDBDD38ACFC80150DDB9D3E0
:101E4000C801C9DC882309F482CFBB20C9F00FB6D2
:101E5000F8940F92F8018389882339F0028CF38D6E
:101E6000E02D80816AE0681B01C060E0D801149613
:101E70008D919C91159774D70F900FBE80E001C093
:101E800080E029960FB6F894DEBF0FBECDBFDF917C
:101E9000CF911F910F91FF90EF90DF90CF90BF9067
:101EA0000895CF93DF93EC010FB6F8940F9289A1B8
:101EB0008F3F09F419A28AA18F3F09F41AA20F904B
:101EC0000FBE8E8D811103C0CE014396F9D4CE0191
:101ED00006DDDF91CF910895E0911D0EF0911E0E69
:101EE000808181110CC08FEF9FEFDC018093E70DA3
:101EF0009093E80DA093E90DB093EA0D0895E09159
:101F00001D0EF0911E0E0780F085E02D80819181DD
:101F1000A281B3818093E70D9093E80DA093E90D22
:101F2000B093EA0D08958F929F92AF92BF92CF9295
:101F3000DF92EF92FF92CF93DF936B017C01C42F6E
:101F40008090F40D9090F50DA090F60DB090F70DE7
:101F50008091A30E9091A40E0296FCDA8FEFC81622
:101F6000D806E806F806B1F5CC23A1F1E9EFFDE0CB
:101F7000A181B281C091A30ED091A40EBF83AE8384
:101F8000C091A30ED091A40E16968D919C91179797
:101F9000998788871696CD91DC9117978091A30E2B
:101FA0009091A40E02969D838C838091A30E9091B4
:101FB000A40E029617969C938E931697A091A30E4B
:101FC000B091A40E1D96FC93EE931C9780818F5FB9
:101FD00080833DC0C80CD91CEA1CFB1CE091A30EF9
:101FE000F091A40EC282D382E482F582C814D9048F
:101FF000EA04FB0460F46091A30E7091A40E80913A
:102000001B0E90911C0E6E5F7F4F67DA20C06091AF
:10201000A30E7091A40E80911D0E90911E0E6E5F06
:102020007F4F5BDA8091E70D9091E80DA091E90D6B
:10203000B091EA0DC816D906EA06FB0640F4C09234
:10204000E70DD092E80DE092E90DF092EA0DDF91F4
:10205000CF91FF90EF90DF90CF90BF90AF909F9087
:102060008F9008954F925F926F927F928F929F927E
:10207000AF92BF92CF92DF92EF92FF920F931F9396
:10208000CF93DF934C016B015A012901CA010FD98B
:102090003C01892B09F401C184E390E008D9EC01EB
:1020A000892B99F07C8E6B8EA50165EA70E0C301E7
:1020B0000E94ED2881E0A81AB1088B8D9C8DA80E96
:1020C000B91EC114D10421F41FC0C301B8D9E5C0A1
:1020D000D6018C918D8F8C918823A1F0AE01425E48
:1020E0005F4FF6013196B0E1CB0ED11CCF012191AB
:1020F000DA012D93AD01DC018C91882319F0CE1605
:10210000DF06A1F71CA601C01D8E0A3008F009E009
:102110000A8F0DA71EA66E01B2E0CB0ED11CC60120
:10212000D8D9CE010E96D5D9DB87CA878AE090E050
:10213000A0E0B0E0801B9109A109B1098E879F87BB
:10214000A88BB98BDF8BCE8B84E0FE01BF96DF01BD
:102150001D928A95E9F71BAAA201B401C50121DAF3
:1021600099838883E114F10419F0F701D183C083C6
:102170000FB6F8940F928091F80D8F5F8093F80D51
:102180008091A30E9091A40E892BA1F5D093A40E5B
:10219000C093A30E8091F80D813009F03BC005E398
:1021A0001EE00F2EF3EAEF2EFEE0FF2EF02DC80109
:1021B0007FD9055F1F4F0E151F05C9F78AE29EE004
:1021C00077D98FE19EE074D980E19EE071D985E0F6
:1021D0009EE06ED989EF9DE06BD98AE29EE09093F4
:1021E0001E0E80931D0E8FE19EE090931C0E809337
:1021F0001B0E10C08091F20D81110CC0E091A30E56
:10220000F091A40E928D8A8D891720F0D093A40EA0
:10221000C093A30E8091EB0D8F5F8093EB0DEA8D41
:102220008091F30D8E1710F4E093F30D8BE08E9FE9
:10223000F0011124EB5CF14F0180F281E02DFF836E
:10224000EE832681378139872887A681B781159645
:10225000DC92CE921497D782C682EA8D8E9FF001CF
:102260001124EB5CF14FFD87EC8780818F5F8083C9
:102270000F900FBE8091F20D882359F0E091A30ECC
:10228000F091A40E928D8A8D981728F4DDD981E003
:1022900005C081E003C081E001C08FEFDF91CF91E5
:1022A0001F910F91FF90EF90DF90CF90BF90AF9074
:1022B0009F908F907F906F905F904F900895EF92D6
:1022C000FF920F930F2EF5EEEF2EFDE0FF2EF02D77
:1022D00000E020E030E040EC50E061ED73E08EE0A3
:1022E00091E0C0DE8130D9F426D68130C1F4F89473
:1022F0008FEF9FEFDC018093E70D9093E80DA093A3
:10230000E90DB093EA0D81E08093F20D1092F40D87
:102310001092F50D1092F60D1092F70D59D980918B
:1023200006020F91FF90EF9008958091E40D8F5F6A
:102330008093E40D08950FB6F8940F926091F40D18
:102340007091F50D8091F60D9091F70D0F900FBEE5
:102350000895CF92DF92EF92FF920F931F93CF9346
:10236000DF938091E40D811107C1C090F40DD090EE
:10237000F50DE090F60DF090F70D8FEFC81AD80A22
:10238000E80AF80AC092F40DD092F50DE092F60D2D
:10239000F092F70DC114D104E104F104B1F480917D
:1023A0001D0E90911E0E20911B0E30911C0E30932D
:1023B0001E0E20931D0E90931C0E80931B0E809179
:1023C000EC0D8F5F8093EC0D87DD8091E70D909190
:1023D000E80DA091E90DB091EA0DC816D906EA06FC
:1023E000FB0610F480E0B3C080E04BE051E0E091E8
:1023F0001D0EF0911E0E908191110CC04FEF5FEFFA
:10240000BA014093E70D5093E80D6093E90D709386
:10241000EA0D9DC0E0911D0EF0911E0E0780F08523
:10242000E02D0084F185E02D028113812481358126
:10243000C016D106E206F30648F40093E70D1093A8
:10244000E80D2093E90D3093EA0D81C0A485B58590
:10245000C681D781208531853F832E83C085D18574
:10246000268137813D832C839F012E5F3F4F11963C
:102470006D917C9112976217730731F460857185B5
:1024800012967C936E931197158614869C919150A9
:102490009C93A08DB18D109709F1C289D38964896D
:1024A00075897F836E83C489D589628973897D83A9
:1024B0006C831196CD91DC911297BF01625F7F4FC3
:1024C000C617D70731F46489758912967C936E9389
:1024D0001197118E108E9C9191509C93A28D90918A
:1024E000F30D9A1710F4A093F30D4A9FD001112415
:1024F000AB5CB14F11960D90BC91A02DB783A68314
:1025000016966D917C911797718760871696CD917D
:10251000DC9117973D832C8317963C932E93169747
:10252000A28D4A9FD0011124AB5CB14FB587A4871F
:102530009C919F5F9C93A091A30EB091A40E228DBD
:102540005A969C91291708F452CF852F50CFE091CD
:10255000A30EF091A40EE28D9BE0E99FF0011124FF
:10256000EB5CF14F9081923008F081E09091ED0D9D
:102570009923B1F081E014C08091EE0D9091EF0DA0
:10258000A091F00DB091F10D0196A11DB11D8093A8
:10259000EE0D9093EF0DA093F00DB093F10D80E050
:1025A000DF91CF911F910F91FF90EF90DF90CF902F
:1025B0000895CF92DF92EF92FF920F931F93CF93E4
:1025C000DF930FB6F8940F928091E40D81508093C1
:1025D000E40D8091E40D8111C4C08091F80D81114A
:1025E0008BC0C2C0D8011796ED91FC91189700845A
:1025F000F185E02DA08DB18D8289938964897589DB
:10260000EC017F836E838489958962897389EC01EB
:102610007D836C83CF010E9611966D917C911297FC
:102620006817790731F48489958912969C938E9363
:102630001197118E108E8C9181508C93A485B58545
:102640008681978160857185EC017F836E838085AB
:10265000918566817781EC017D836C83CF01029641
:1026600011966D917C9112976817790731F4608506
:10267000718512967C936E931197158614862C9112
:1026800021502C93A28D2091F30D2A1710F4A093C2
:10269000F30D3A9FD0011124AB5CB14F11960D9010
:1026A000BC91A02DB783A68316966D917C91179748
:1026B0007187608716966D917C911797EB019D83CA
:1026C0008C8317969C938E931697A28D3A9FD00178
:1026D0001124AB5CB14FB587A4878C918F5F8C932D
:1026E000A091A30EB091A40E928D5A968C9198173A
:1026F00048F04093ED0D06C0E0E0F0E000E11EE0A0
:102700003BE041E0D8018C9181116CCFEF2B09F0B7
:10271000E3DBC090EE0DD090EF0DE090F00DF09067
:10272000F10DC114D104E104F10499F0C1E011DE0E
:102730008111C093ED0DB1E0CB1AD108E108F10889
:10274000B1F71092EE0D1092EF0D1092F00D109265
:10275000F10D8091ED0D882331F00E94240B81E072
:1027600003C080E001C080E00F900FBEDF91CF91E9
:102770001F910F91FF90EF90DF90CF900895CF922F
:10278000DF92EF92FF926B017C01672B682B692B24
:1027900041F0CBDD40E0C701B601C5DB0ADF8111A6
:1027A00002C00E94240BFF90EF90DF90CF9008951D
:1027B0008091E40D882321F081E08093ED0D089550
:1027C0001092ED0DA091A30EB091A40EE091A30E76
:1027D000F091A40E2D913C91838D948D82179307D7
:1027E00058F06091A30E7091A40E8091A30E909169
:1027F000A40E635E7F4FC5D48091F30D282F30E087
:102800009BE0899FF0011124EB5CF14F90819111C5
:102810000EC04BE08150282F30E0429FF001439FD3
:10282000F00D1124EB5CF14F9081992399F39BE01B
:10283000929FA001939F500D1124DA01AB5CB14F20
:102840001196ED91FC9112970480F581E02D12967E
:10285000FC93EE931197485C514FE417F50729F468
:1028600044815581FD01528341839BE0929FF00199
:10287000939FF00D1124EB5CF14F0180F281E02D6C
:10288000208531853093A40E2093A30E8093F30D01
:102890000895CF92DF92EF92FF926A017B016091DF
:1028A000A30E7091A40E625F7F4F0E946D0A41E0FB
:1028B000C701B60138DBFF90EF90DF90CF9008950D
:1028C000CF93DF93FC01CB01BA01A181B281C0910A
:1028D000A30ED091A40EBB8BAA8BC091A30ED09156
:1028E000A40E16964D915C9117975D8B4C8B1696A6
:1028F000CD91DC9117974091A30E5091A40E425FA9
:102900005F4F5D834C834091A30E5091A40E425FB4
:102910005F4F17965C934E931697A091A30EB091BC
:10292000A40E5996FC93EE93589730813F5F308305
:10293000222319F06FEF7FEFCB01422FF4DADF9102
:10294000CF910895CF93DF93DC011796ED91FC9121
:1029500018970084F185E02DA08DB18DC289D389AF
:10296000848995899F838E83C489D5898289938937
:102970009D838C839F01225F3F4F11968D919C9187
:1029800012978217930731F48489958912969C9344
:102990008E931197118E108E8C9181508C93809113
:1029A000E40D811152C0A485B585C681D78180858B
:1029B00091859F838E83C085D185868197819D83F4
:1029C0008C839F012E5F3F4F11968D919C911297A2
:1029D0008217930731F48085918512969C938E938C
:1029E0001197158614868C9181508C93A28D8091BD
:1029F000F30D8A1710F4A093F30D8BE08A9FD0019A
:102A00001124AB5CB14F11960D90BC91A02DB783F2
:102A1000A68316964D915C9117975187408716961D
:102A2000CD91DC9117973D832C8317963C932E9381
:102A30001697A28D8A9FD0011124AB5CB14FB58748
:102A4000A4878C918F5F8C931CC040E15EE0DA011B
:102A50001196CD91DC911297D38BC28B8E819F8181
:102A6000958B848B8E819F81DC0115963C932E93F0
:102A700014973F832E83518F408FDA018C918F5FA3
:102A80008C93A091A30EB091A40E928D5A968C9126
:102A9000891720F481E08093ED0D01C080E0DF9183
:102AA000CF9108952091EC0DFC0120834091F40D0D
:102AB0005091F50D6091F60D7091F70D41835283A1
:102AC000638374830895CF92DF92EF92FF920F9306
:102AD0001F93CF93DF93FB010FB6F8940F924091B1
:102AE000F40D5091F50D6091F60D7091F70D008188
:102AF0001181228133810F3FAFEF1A072A073A076E
:102B000079F1EC01C980DA80EB80FC80A091EC0DBA
:102B1000B881BA1759F04C155D056E057F0530F088
:102B2000108211821282138281E01BC04C195D0950
:102B30006E097F09401751076207730758F4041B99
:102B4000150B260B370B0083118322833383AADFF7
:102B500080E007C0108211821282138281E001C0DE
:102B600080E00F900FBEDF91CF911F910F91FF90EA
:102B7000EF90DF90CF90089581E08093ED0D089560
:102B80008091F20D882331F08091E40D882321F0AB
:102B900080E0089581E0089582E008950F931F93E7
:102BA000CF93DF93FC01892B09F479C0828DA0912A
:102BB000A30EB091A40E5A969C91891708F063C099
:102BC0004685578560897189772394F0A091A30E7B
:102BD000B091A40E5A969C914AE050E060E070E0FB
:102BE000491B51096109710946875787608B718BB1
:102BF0002BE0829FC00111248B5C914F2485358589
:102C000028173907B9F5EF018F010E5F1F4FC80173
:102C10000E94AA0AE091A30EF091A40EE28DEA8F21
:102C20008091F30D8E1710F4E093F30D8BE08E9FDF
:102C3000F0011124EB5CF14F0180F281E02DFF8364
:102C4000EE832681378139872887A681B78115963B
:102C50001C930E93149717830683EA8D8E9FF001C1
:102C60001124EB5CF14FFD87EC8780818F5F8083BF
:102C700081E016C0A091A30EB091A40E5A968C913B
:102C8000828F81E00DC0A091A30EB091A40E81E0CF
:102C900025A55A969C91291718F080E001C080E084
:102CA000DF91CF911F910F9108950F931F93CF93B1
:102CB000DF93FC01892B09F449C086A5815086A7C2
:102CC000228D95A5291709F443C0811143C0EF0156
:102CD0008F010E5F1F4FC8010E94AA0AEDA5EA8F5F
:102CE0008AE090E0A0E0B0E08E1B9109A109B10953
:102CF0008E879F87A88BB98B8091F30D8E1710F468
:102D0000E093F30D8BE08E9FF0011124EB5CF14F0B
:102D10000180F281E02DFF83EE83268137813987A0
:102D20002887A681B78115961C930E931497178355
:102D30000683EA8D8E9FF0011124EB5CF14FFD8735
:102D4000EC8780818F5F808381E005C080E003C0D5
:102D500080E001C080E0DF91CF911F910F91089535
:102D60000F931F93CF93DF93FC01892B09F45AC073
:102D700085A5861708F4862F928D981709F452C0FE
:102D800026A5213009F04EC0828F4685578560897F
:102D90007189772364F04AE050E060E070E0481BFE
:102DA00051096109710946875787608B718B2BE048
:102DB000929FC00111248B5C914F24853585281783
:102DC000390781F5EF018F010E5F1F4FC8010E9487
:102DD000AA0AEA8D8091F30D8E1710F4E093F30D9B
:102DE0008BE08E9FF0011124EB5CF14F0180F281AA
:102DF000E02DFF83EE832681378139872887A681DE
:102E0000B78115961C930E93149717830683EA8D4A
:102E10008E9FF0011124EB5CF14FFD87EC878081E0
:102E20008F5F8083DF91CF911F910F9108958091E3
:102E3000A30E9091A40E892B39F0E091A30EF0918E
:102E4000A40E86A58F5F86A78091A30E9091A40EF5
:102E50000895CF92DF92EF92FF920F931F93FC01A0
:102E6000428353836483758393878287041715078E
:102E700026073707C0F00C191D092E093F09868562
:102E80009785A089B189081719072A073B0700F51C
:102E9000BF016E5F7F4F8091AD0E9091AE0E0E948C
:102EA0006D0A80E018C00C151D052E053F0528F49D
:102EB0004C155D056E057F0568F4BF016E5F7F4FA1
:102EC0008091AF0E9091B00E0E946D0A80E003C019
:102ED00081E001C081E01F910F91FF90EF90DF90A2
:102EE000CF9008950FB6F8940F928091AB0E909109
:102EF000AC0E892BE9F48CEB9EE00E94580A81EB22
:102F00009EE00E94580A8CEB9EE09093B00E809356
:102F1000AF0E81EB9EE09093AE0E8093AD0E40E03D
:102F200067E08AE00E94FD0C9093AC0E8093AB0E9C
:102F30000F900FBE0895EF92FF920F93D3DF809111
:102F4000AB0E9091AC0E892B89F00F2EF9EAEF2E83
:102F5000FEE0FF2EF02D03E020E030E040EC50E0FA
:102F600066ED73E088E491E07DD801C080E00F91C8
:102F7000FF90EF9008958F929F92AF92BF92CF9261
:102F8000DF92EF92FF920F931F93CF93DF93CDB712
:102F9000DEB727970FB6F894DEBF0FBECDBFE09126
:102FA000AB0EF091AC0E309781F169832A833B839D
:102FB0004C835D839F838E836630F4F4E1DD823041
:102FC00069F400E0A7019601BE016F5F7F4F809119
:102FD000AB0E9091AC0E0E941E0D18C000E020E0D8
:102FE00030E0A901BE016F5F7F4F8091AB0E9091E1
:102FF000AC0E0E941E0D0AC020E0A801BE016F5F4A
:103000007F4FCF010E94BA0D01C080E027960FB616
:10301000F894DEBF0FBECDBFDF91CF911F910F910E
:10302000FF90EF90DF90CF90BF90AF909F908F90E8
:1030300008952F923F924F925F926F927F928F925C
:103040009F92AF92BF92CF92DF92EF92FF920F9337
:103050001F93CF93DF931C016ED92B013C0180910C
:10306000A50E9091A60EA091A70EB091A80E48169D
:1030700059066A067B0608F053C03BC00780F085FE
:10308000E02D80809180A280B380C085D1858E01A3
:103090000E5F1F4FC8010E94AA0AEC89FD89CE016C
:1030A00019958E8982FF25C08E859F85A889B9894B
:1030B000880D991DAA1DBB1D88169906AA06BB0678
:1030C00070F48A839B83AC83BD83DB87CA87B80196
:1030D0008091AF0E9091B00E0E946D0A0AC0C12C73
:1030E000D12C760100E010E0A501940160E0CE0152
:1030F00042DFE091AF0EF091B00E80818111BECF22
:103100008091AD0E9091AE0E9093B00E8093AF0E65
:10311000F093AE0EE093AD0E81E0F101808302C02A
:10312000F10110824092A50E5092A60E6092A70E59
:103130007092A80EC301B201DF91CF911F910F9140
:10314000FF90EF90DF90CF90BF90AF909F908F90C7
:103150007F906F905F904F903F902F9008950895CB
:10316000279A2F9A08951F9A0895FADF2FEF80E784
:1031700092E0215080409040E1F700C00000F3DF72
:10318000F5CFEEDF2FEF87EA91E6215080409040A7
:10319000E1F700C00000E7DFF5CF81B18FEF81B923
:1031A00092B181E0892782B992B182E0892782B900
:1031B00092B184E0892782B992B188E0892782B9E7
:1031C00092B180E1892782B992B180E2892782B9E0
:1031D00092B180E4892782B982B1805882B980E0B7
:1031E0000E947A2183E090E069D4A9C30895D5DFD5
:1031F0008EED93E00E9407290E942C08FFCF5058C3
:10320000BB27AA270ED04DC13ED130F043D120F0CC
:1032100031F49F3F11F41EF433C10EF4E095E7FB47
:1032200029C1E92F4FD180F3BA17620773078407CA
:10323000950718F071F49EF567C10EF4E0950B2E1A
:10324000BA2FA02D0B01B90190010C01CA01A001F8
:103250001124FF27591B99F0593F50F4503E68F153
:103260001A16F040A22F232F342F4427585FF3CF94
:10327000469537952795A795F0405395C9F77EF465
:103280001F16BA0B620B730B840BBAF09150A1F0AE
:10329000FF0FBB1F661F771F881FC2F70EC0BA0F34
:1032A000621F731F841F48F4879577956795B795BC
:1032B000F7959E3F08F0B3CF9395880F08F09927B4
:1032C000EE0F9795879508950CD0EBC0E3D040F0B2
:1032D000DAD030F021F45F3F19F0CCC0511115C1A4
:1032E000CFC0F0D098F39923C9F35523B1F3951BC0
:1032F000550BBB27AA2762177307840738F09F5F17
:103300005F4F220F331F441FAA1FA9F333D00E2E85
:103310003AF0E0E830D091505040E695001CCAF7F2
:1033200029D0FE2F27D0660F771F881FBB1F2617B7
:1033300037074807AB07B0E809F0BB0B802DBF018A
:10334000FF2793585F4F2AF09E3F510568F092C0C7
:10335000DCC05F3FECF3983EDCF38695779567958C
:10336000B795F7959F5FC9F7880F911D969587953B
:1033700097F90895E1E0660F771F881FBB1F62175A
:1033800073078407BA0720F0621B730B840BBA0B18
:10339000EE1F88F7E095089504D06894B111B5C088
:1033A000089598D088F09F5790F0B92F9927B7517A
:1033B000A0F0D1F0660F771F881F991F1AF0BA95F9
:1033C000C9F712C0B13081F09FD0B1E008959CC020
:1033D000672F782F8827B85F39F0B93FCCF38695EF
:1033E00077956795B395D9F73EF49095809570954C
:1033F00061957F4F8F4F9F4F0895E89409C097FBC9
:103400003EF490958095709561957F4F8F4F9F4FBB
:103410009923A9F0F92F96E9BB279395F6958795FF
:1034200077956795B795F111F8CFFAF4BB0F11F4C2
:1034300060FF1BC06F5F7F4F8F4F9F4F16C0882369
:1034400011F096E911C0772321F09EE8872F762F9F
:1034500005C0662371F096E8862F70E060E02AF0E0
:103460009A95660F771F881FDAF7880F96958795CC
:1034700097F9089597F99F6780E870E060E00895F4
:103480009FEF80EC089500240A941616170618067C
:103490000906089500240A94121613061406050658
:1034A0000895092E0394000C11F4882352F0BB0FE9
:1034B00040F4BF2B11F460FF04C06F5F7F4F8F4F4C
:1034C0009F4F089557FD9058440F551F59F05F3F87
:1034D00071F04795880F97FB991F61F09F3F79F036
:1034E00087950895121613061406551FF2CF4695B8
:1034F000F1DF08C0161617061806991FF1CF86953A
:103500007105610508940895E894BB27662777271D
:10351000CB0197F908950BD0C4CFB5DF28F0BADFFF
:1035200018F0952309F0A6CFABCF1124EECFCADF58
:10353000A0F3959FD1F3950F50E0551F629FF001C6
:10354000729FBB27F00DB11D639FAA27F00DB11D1F
:10355000AA1F649F6627B00DA11D661F829F2227A8
:10356000B00DA11D621F739FB00DA11D621F839F2F
:10357000A00D611D221F749F3327A00D611D231F05
:10358000849F600D211D822F762F6A2F11249F5753
:1035900050408AF0E1F088234AF0EE0FFF1FBB1F76
:1035A000661F771F881F91505040A9F79E3F510515
:1035B00070F060CFAACF5F3FECF3983EDCF38695C6
:1035C00077956795B795F795E7959F5FC1F7FE2BC0
:1035D000880F911D9695879597F9089581B38F600F
:1035E00081BB2898289A21B381E090E00090F70EE3
:1035F00002C0880F991F0A94E2F78095822381BB4D
:10360000E091C70EF091C80E309709F01995089512
:103610009FB7F894E3EFFEE010828EE981838AE0A1
:10362000828383839FBF0895BF92CF92DF92EF92F0
:10363000FF920F931F93CF93DF936B017C01B42E06
:103640001092CA0E83E0841778F1642F70E080E056
:1036500090E0D3DE9B01AC0160E070E080E291E499
:103660000E94CD25A701960156DF20E030E040E022
:103670005FE3C6DD0E9478258FDEAB01772364F41B
:1036800044275527461B570B21E0483E83E0580747
:103690000CF420E011E00CC021E0403187E2580733
:1036A0000CF420E010E004C040E050E021E010E025
:1036B0000FB7F894222311F0ABDF51C0C7EFDEE063
:1036C0000F2EF3EFCF2EFEE0DF2EF02D0F2EFAE0BF
:1036D000EF2EF12CF02DCA01B7010E943B27FC010F
:1036E000EF50FC4F80818A93462F572FCC15DD0574
:1036F00091F743E050E04B19510914161506F4F404
:103700008091F30E8C3F49F060E019C0FC01ED5050
:10371000F14F30813C3F21F012C080E090E020E08A
:10372000FC01ED50F14F1082622F2F5F822F022E8D
:10373000000C990B841795074CF301C060E011232E
:1037400031F0E62FF0E0ED50F14F82E08083BB20B6
:1037500031F0FA01ED50F14F8081816080830FBF1D
:10376000DF91CF911F910F91FF90EF90DF90CF905D
:10377000BF90089585B5856085BD089585B5887F1E
:1037800085BD81B38F6081BB08958F92AF92CF9238
:10379000EF920F931F93CF93DF93EC0180B38F6071
:1037A00080BB81B38F6081BB209A8EEE9AE19F939C
:1037B0008F93812CA12CC12CE12C00E010E020E2A1
:1037C00040E063E080E1F8D59093F90E8093F80E25
:1037D00089E187BD84B5826084BDEEE6F0E080813A
:1037E00082608083CBDFD093C80EC093C70E0F904A
:1037F0000F90DF91CF911F910F91EF90CF90AF90ED
:103800008F9008951F920F920FB60F9211240BB64E
:103810000F922F933F934F935F936F937F938F9369
:103820009F93AF93BF93EF93FF938091CA0E88232A
:1038300069F12091CB0E3091CC0E253F91E03907F4
:1038400038F42F5F3F4F3093CC0E2093CB0E1EC029
:103850001092CC0E1092CB0EE091C90E2E2F30E0BC
:1038600090E004972817390714F4EF5F01C0E0E0F7
:10387000E093C90EF0E0E353F14FA3EFBEE027EF72
:103880003EE081918D93A217B307D9F78091F70E8F
:1038900090E0019683709078992324F401978C6FBF
:1038A0009F6F01968093F70E9927FC01ED50F14F21
:1038B000608160958091F80E9091F90E4FD6FF913E
:1038C000EF91BF91AF919F918F917F916F915F9198
:1038D0004F913F912F910F900BBE0F900FBE0F9005
:1038E0001F9018956530F1F4FA0180818F7390E094
:1038F000982F88272181822B90930A0280930902B6
:103900008281F0E48F9FC0011124FA012381269562
:103910002695822B909308028093070281E0809382
:10392000FA0E0895643051F080E090E4909308021C
:103930008093070290930A028093090208950F93DF
:103940001F9302E71CE120E034E244EF50E060E026
:1039500087E225D79093FC0E8093FB0E21E0892B04
:1039600009F020E0822F1F910F9108958091FB0EA6
:103970009091FC0E009751F040E060E070E060D75D
:10398000843031F41092FA0E80E0089582E00895B8
:1039900083E008958091FB0E9091FC0E009731F02A
:1039A00064E09AD7853021F083E0089582E008959D
:1039B00080E008956091090270910A0280E090E031
:1039C0001CDD20E030E048EC52E4A5DD20E038EFDB
:1039D0004FE756E479CC0895609107027091080290
:1039E00080E090E00ADD20E030E045E253E493DD42
:1039F00020E038EF4FE756E467DC20E030E040E2BB
:103A000052E4FDCB08958091000F860F8093000F44
:103A10009091030F913079F028F09230A9F0933013
:103A200019F108956F3F09F048C01092000F81E02E
:103A30008093030F0895663809F03FC01092FF0E7F
:103A400082E08093030F0895E091FF0E81E08E0FD6
:103A50008093FF0EF0E0E350F14F6083823069F510
:103A600083E08093030F08959091FF0E21E0290FCA
:103A70002093FF0E963009F581110EC0EDEFFEE0A8
:103A8000808190E0982F88272181820F911D90934B
:103A9000050F8093040F04C01092050F1092040FBD
:103AA0001092030FE091010FF091020F309729F06F
:103AB0008091040F9091050F199508958F929F9210
:103AC000AF92CF92EF920F930F2EF3E08F2EFDE186
:103AD0009F2EF02D6894AA24A4F86894CC24C4F8EE
:103AE000E12C00E023E040E855E260E070E04BD0DC
:103AF0009093070F8093060F0F91EF90CF90AF90A8
:103B00009F908F900895CF93DF93CDB7DEB729971D
:103B10000FB6F894DEBF0FBECDBF89E0E2E2F2E05F
:103B20009E012F5F3F4FD90101900D928A95E1F7D9
:103B30001092050F1092040F8091060F9091070FBD
:103B4000009731F0422F532F69E0E9D080E001C0A7
:103B500082E029960FB6F894DEBF0FBECDBFDF918D
:103B6000CF9108952091040F3091050F2115310553
:103B700029F4FC011182108281E00895FC01318357
:103B8000208380E008952F923F924F925F926F9230
:103B90007F928F929F92AF92CF92EF92FF920F936C
:103BA0001F93CF93DF93CDB7DEB7F82E2A013B01E9
:103BB00088E090E00E94BF278C018F2D90E0FC01EF
:103BC000EE0FFF1FE85FF04F118300830115110511
:103BD00009F468C0880F991FFC01E55FFD4F8081E3
:103BE0009181D8018D939C936C2D70E084E090E0DE
:103BF0000E94A5271C0161E070E086E090E00E9431
:103C0000A5277C014C2DB10157D7F801F582E4823C
:103C10006A2D70E084E090E00E94A5271C0161E01D
:103C200070E086E090E00E94A5277C014A2DB1015A
:103C300043D7D8011396FC92EE92129717969C9256
:103C40008E921697FFB6F894ED91FC9111973697E6
:103C50008081826080838D909C90C301B201CDDB16
:103C600020E030E040E051E456DC9B01AC0160E034
:103C700074E284E79BE428DB20E030E040E85FE387
:103C8000BEDA8FDBF40132976083D801ED91FC91AD
:103C90001197359788E98083ED91FC91349786E000
:103CA0008083FFBEC801DF91CF911F910F91FF90DC
:103CB000EF90CF90AF909F908F907F906F905F909C
:103CC0004F903F902F900895CF93DF93DC01892B85
:103CD00001F11296ED91FC911397938182812581D8
:103CE000981B922384819817B1F08381269528230D
:103CF000C081D181C20FD11D68838F5F95818923D7
:103D00008383ED91FC91359780818062808380E090
:103D100003C081E001C082E0DF91CF910895EF926E
:103D2000FF920F931F93CF93DF937C01009709F4C9
:103D300041C0DC011296ED91FC9113979381828131
:103D4000981B858198238481891B8617A8F1662397
:103D500041F1842F952FDC016150462F50E04F5FD9
:103D60005F4F480F591FE701EA81FB8193818281F0
:103D70002581981B92238481981779F08C919381E7
:103D800026952923608171818B01020F111DE801A5
:103D900088839F5F8581982393831196A417B50725
:103DA00011F7D701ED91FC91359780818062808376
:103DB00080E003C081E001C082E0DF91CF911F91DC
:103DC0000F91FF90EF9008950097D1F0DC011496C9
:103DD000ED91FC91159793818281981799F09281CA
:103DE000858186958923A081B181A80FB11D8C9111
:103DF000DB018C939F5F85819823928380E00895F7
:103E000081E0089583E008951F920F920FB60F92FC
:103E100011240BB60F922F933F934F935F936F93A1
:103E20007F938F939F93AF93BF93CF93DF93EF9342
:103E3000FF93A091080FB091090F109711F16091B5
:103E4000C6001496ED91FC9115979381828125818E
:103E5000981B92238481981761F0838126952823EB
:103E6000C081D181C20FD11D68838F5F9581892365
:103E700083831696ED91FC911797309711F0CD0141
:103E80001995FF91EF91DF91CF91BF91AF919F91E4
:103E90008F917F916F915F914F913F912F910F90F3
:103EA0000BBE0F900FBE0F901F9018951F920F9290
:103EB0000FB60F9211240BB60F922F938F939F93EF
:103EC000AF93BF93EF93FF93E091080FF091090F29
:103ED0003097B9F00280F381E02D938182819817A9
:103EE000B1F092818581282F26952923A081B18167
:103EF000A20FB11D2C919F5F892382832093C6005E
:103F00000BC0E1ECF0E080818F7D808305C0E1ECA7
:103F1000F0E080818F7D8083FF91EF91BF91AF9121
:103F20009F918F912F910F900BBE0F900FBE0F900E
:103F30001F9018951F920F920FB60F9211240BB677
:103F40000F922F933F934F935F936F937F938F9332
:103F50009F93AF93BF93CF93DF93EF93FF93A09182
:103F60000A0FB0910B0F109711F16091CE001496CB
:103F7000ED91FC911597938182812581981B922365
:103F80008481981761F0838126952823C081D1818F
:103F9000C20FD11D68838F5F958189238383169615
:103FA000ED91FC911797309711F0CD011995FF9184
:103FB000EF91DF91CF91BF91AF919F918F917F91C1
:103FC0006F915F914F913F912F910F900BBE0F908A
:103FD0000FBE0F901F9018951F920F920FB60F9261
:103FE00011240BB60F922F938F939F93AF93BF9390
:103FF000EF93FF93E0910A0FF0910B0F3097B9F018
:104000000280F381E02D938182819817B1F0928133
:104010008581282F26952923A081B181A20FB11D6A
:104020002C919F5F892382832093CE000BC0E9EC03
:10403000F0E080818F7D808305C0E9ECF0E0808135
:104040008F7D8083FF91EF91BF91AF919F918F9171
:104050002F910F900BBE0F900FBE0F901F901895D1
:104060001F920F920FB60F9211240BB60F922F933F
:104070003F934F935F936F937F938F939F93AF93F0
:10408000BF93CF93DF93EF93FF93A0910C0FB09169
:104090000D0F109711F16091D6001496ED91FC91DF
:1040A0001597938182812581981B9223848198178B
:1040B00061F0838126952823C081D181C20FD11D53
:1040C00068838F5F9581892383831696ED91FC9198
:1040D0001797309711F0CD011995FF91EF91DF916E
:1040E000CF91BF91AF919F918F917F916F915F9190
:1040F0004F913F912F910F900BBE0F900FBE0F90DD
:104100001F9018951F920F920FB60F9211240BB6A5
:104110000F922F938F939F93AF93BF93EF93FF9340
:10412000E0910C0FF0910D0F3097B9F00280F38100
:10413000E02D938182819817B1F092818581282F9B
:1041400026952923A081B181A20FB11D2C919F5FDB
:10415000892382832093D6000BC0E1EDF0E08081BB
:104160008F7D808305C0E1EDF0E080818F7D8083CD
:10417000FF91EF91BF91AF919F918F912F910F90F0
:104180000BBE0F900FBE0F901F9018951F920F92AD
:104190000FB60F9211240BB60F922F933F934F93AC
:1041A0005F936F937F938F939F93AF93BF93CF93BF
:1041B000DF93EF93FF93A0910E0FB0910F0F109725
:1041C00011F1609136011496ED91FC911597938150
:1041D00082812581981B92238481981761F08381C5
:1041E00026952823C081D181C20FD11D68838F5F9E
:1041F0009581892383831696ED91FC9117973097CB
:1042000011F0CD011995FF91EF91DF91CF91BF9101
:10421000AF919F918F917F916F915F914F913F915E
:104220002F910F900BBE0F900FBE0F901F901895FF
:104230001F920F920FB60F9211240BB60F922F936D
:104240008F939F93AF93BF93EF93FF93E0910E0FE4
:10425000F0910F0F3097B9F00280F381E02D938138
:1042600082819817B1F092818581282F2695292384
:10427000A081B181A20FB11D2C919F5F8923828300
:10428000209336010BC0E1E3F1E080818F7D8083D4
:1042900005C0E1E3F1E080818F7D8083FF91EF91A4
:1042A000BF91AF919F918F912F910F900BBE0F9067
:1042B0000FBE0F901F901895CF93DF931F92CDB72D
:1042C000DEB7BE016F5F7F4F8091100F9091110F8D
:1042D0007BDD8111F6CF898190E00F90DF91CF9146
:1042E0000895682F8091100F9091110FEDDC80E000
:1042F00090E008958F929F92AF92CF92EF920F939A
:10430000812C912C6894AA24A7F86894CC24C7F82F
:10431000E12C00E023E040E051EE60E070E033DCAF
:104320009093110F8093100FEEE3FFE083E192E092
:1043300091838083938382830F91EF90CF90AF908E
:104340009F908F900895E091130FF091140F309784
:10435000F9F0A081B1811097D9F02381213069F45F
:104360004C9121E030E0028002C0220F331F0A94FA
:10437000E2F7209524232C930BC04C9121E030E0F0
:10438000028002C0220F331F0A94E2F7242B2C93E1
:104390009093140F8093130F009769F01092150FEC
:1043A0002CB52F732CBDFC0124812CBD85818DBDC6
:1043B0008CB580648CBD08954F925F926F927F920E
:1043C0008F929F92AF92BF92CF92DF92EF92FF9225
:1043D0000F931F93CF93DF93CDB7DEB7982EB62EF2
:1043E000D42EF22E8091120F811106C084B1876005
:1043F00084B981E08093120F8CE090E0C0D53C013D
:10440000DC0111961C930E931296EC921297139660
:10441000CC9213978D2D880F880FF82AEB2DF0E0A2
:10442000EF5FFB4F8081982A8F2D892914968C93FA
:10443000B3E0BB1518F481E0F3018583A11006C039
:10444000D30119961C921E92189712C06A2D70E023
:1044500084E090E07AD52C0161E070E086E090E0A5
:1044600074D56C014A2DB20127D3F301D186C086E1
:10447000811006C0D30117961C921E92169712C087
:10448000682D70E084E090E060D55C0161E070E050
:1044900086E090E05AD56C01482DB5010DD3F301AB
:1044A000D782C6828C899D89D3011B969C938E935B
:1044B0001A970115110559F0F801229181E090E059
:1044C00002C0880F991FEA94E2F7822B80832FB7EE
:1044D000F8944091130F5091140F7092140F609242
:1044E000130FD301ED91FC911197309701F11396C1
:1044F0008C911397813071F4308181E090E01296B5
:104500000C9002C0880F991F0A94E2F780958323CC
:1045100080830DC0308181E090E0D30112960C9031
:1045200002C0880F991F0A94E2F7832B808350936F
:10453000140F4093130F2FBFC301DF91CF911F9131
:104540000F91FF90EF90DF90CF90BF90AF909F9032
:104550008F907F906F905F904F9008951F93CF93AF
:10456000DF93009709F46AC0162FEC018091130FB6
:104570009091140FC817D90711F0CE01E4DE8FB760
:104580002FB7F8948091150F811131C081E080938D
:10459000150FA091130FB091140FED91FC9111978D
:1045A0003097F9F013968C911397813069F430812C
:1045B00081E090E012960C9002C0880F991F0A9437
:1045C000E2F7832B80830DC0308181E090E012966A
:1045D0000C9002C0880F991F0A94E2F780958323FC
:1045E00080838CB580688CBD1EBD80E025C0EE81C7
:1045F000FF813097E1F03481838142819581841B72
:1046000089233817B1F083814281841B89233817AD
:1046100091F0838196959823A081B181A90FB11D56
:104620001C938F5F95818923838380E005C082E09E
:1046300003C081E001C080E02FBF01C083E0DF91B3
:10464000CF911F9108951F920F920FB60F921124D0
:104650000BB60F922F933F934F935F936F937F937C
:104660008F939F93AF93BF93CF93DF93EF93FF937A
:104670006EB5A091130FB091140F1896ED91FC91A7
:1046800019973097A1F0838122819581821B89231C
:104690002481821761F0838196959823C081D1810E
:1046A000C90FD11D68838F5F9581892383831696F7
:1046B000ED91FC911797309799F09381828198172B
:1046C00079F092818581282F26952923A081B181B7
:1046D000A20FB11D2C919F5F892382832EBD2DC017
:1046E0008CB58F778CBD1092150FA091130FB091E0
:1046F000140FED91FC9111973097F9F013968C916E
:104700001397813071F4208181E090E012960C9033
:1047100002C0880F991F0A94E2F780958223808354
:104720000CC0208181E090E012960C9002C0880FAE
:10473000991F0A94E2F7822B80838091130F909146
:10474000140FDC011A96ED91FC911B97309709F03C
:104750001995FF91EF91DF91CF91BF91AF919F910B
:104760008F917F916F915F914F913F912F910F901A
:104770000BBE0F900FBE0F901F9018958091240FC5
:1047800081110CC08CE08093B8008FEF8093BB0048
:1047900084E08093BC0081E08093240F0895AF9261
:1047A000BF92CF92DF92EF92FF920F931F93CF931E
:1047B000DF93A82EB62E69017A0184E090E0DFD362
:1047C000EC01892B61F1A88281E0B81212C0C70107
:1047D000B60120EA36E841E050E060D3DA01C901D1
:1047E0004097A109B109B695A795979587958983B3
:1047F00011C0C701B60120E83AE146E050E04ED3CF
:10480000DA01C9014097A109B109B695A795979515
:10481000879589831B830A838C2F9D2F02C080E09C
:1048200090E0DF91CF911F910F91FF90EF90DF907B
:10483000CF90BF90AF9008958091BC008170089593
:10484000FF920F931F93CF93DF930097D1F14A30DC
:10485000D0F5F42E8B01EC01EFDF811136C0809191
:10486000170F9091180FC817D90741F087DF89817A
:104870008093B800D093180FC093170F81E08F0D6D
:104880008093190F8881880F80931A0FFF2089F079
:10489000F801ABE1BFE04FEF4F0D642F70E0CB01AB
:1048A0000196B801680F791F81918D93E617F7077C
:1048B000D9F788EF8093210285EA8093BC0084E0D9
:1048C00005C086E003C087E001C082E0DF91CF91A0
:1048D0001F910F91FF9008951F93CF93DF9300973F
:1048E00029F16B3028F5162FEC01A6DF811122C0CB
:1048F0008091170F9091180FC817D90741F03EDF2C
:1049000089818093B800D093180FC093170F10932C
:10491000190F8881880F816080931A0F88EF809328
:10492000210285EA8093BC0085E005C086E003C0D3
:1049300087E001C082E0DF91CF911F9108951F921F
:104940000F920FB60F9211240BB60F922F933F9335
:104950004F935F936F937F938F939F93AF93BF9387
:10496000EF93FF93E091B9008E2F90E0FC01389710
:10497000E135F10508F075C08827E458FF4F8F4FE7
:10498000AFC21092160FE091160F8091190FE81721
:1049900070F481E08E0F8093160FF0E0E65EF04F2A
:1049A00080818093BB0085E88093BC0072C084E95D
:1049B0008093BC008091170F9091180FDC01129624
:1049C000ED91FC911397309709F463C020E040E02B
:1049D00050E064E019955DC0E091160F81E08E0F04
:1049E0008093160F8091BB00F0E0E65EF04F80836D
:1049F0008091B900803411F41092160F2091160F97
:104A000030E08091190F90E001972817390724F4BE
:104A100085EC8093BC003DC085E88093BC0039C024
:104A20008091BB00E091160FF0E0E65EF04F8083CE
:104A300084E98093BC008091170F9091180FDC01DE
:104A40001296ED91FC911397309719F12091190F5F
:104A50004AE15FE065E019951CC085EA8093BC00DF
:104A600018C08091B9008093210284E08093BC003B
:104A70008091170F9091180FDC011296ED91FC9127
:104A80001397309731F020E040E050E06091210230
:104A90001995FF91EF91BF91AF919F918F917F9168
:104AA0006F915F914F913F912F910F900BBE0F909F
:104AB0000FBE0F901F901895FC01411101C080D3CB
:104AC000842F90E09C012150310982239323892B6C
:104AD00009F076D3413808F073D3128213824483ED
:104AE000440F415045837183608380E090E00895D6
:104AF0003CD088F09F3748F4911116F00C94851A39
:104B000060E070E080E89FEB089526F41B16611DBD
:104B1000711D811D01C01BC0882371F4772321F012
:104B20009850872B762F07C0662311F499270DC064
:104B30009051862B70E060E02AF09A95660F771FFF
:104B4000881FDAF7880F9695879597F908959F3F04
:104B500031F0915020F4879577956795B795880F38
:104B6000911D9695879597F908950E946A1AA0F06D
:104B7000BEE7B91788F4BB279F3860F41616B11D3D
:104B8000672F782F8827985FF7CF86957795679559
:104B9000B11D93959639C8F30895FA01EE0FFF1FE2
:104BA000309621053105A1F16115710561F4803858
:104BB000BFE39B0749F168949038810561F0803824
:104BC000BFEF9B0741F099234AF5FF3FE10531050F
:104BD000210519F1E8940894E795D901AA2329F44D
:104BE000AB2FBE2FF85FD0F310C0FF5F70F4A69517
:104BF000E0F7F73950F019F0FF3A38F49F779F93B8
:104C00000DD00F9007FC9058089546F00C94401A70
:104C100060E070E080E89FE308954FE79F775F933F
:104C20004F933F932F93ACD02F913F914F915F9132
:104C30000E948B1A08C029F416F00C943A1A0C94AE
:104C4000841A0C94401A0E946A1AA8F39638A0F7A6
:104C500007F80F92E8942BE33AEA48EB5FE70E94EB
:104C6000991A0F920F920F924DB75EB70F92CFD055
:104C7000EAE9F1E016D04F915F91EF91FF91E59550
:104C8000EE1FFF1F49F0FE57E0684427EE0F441F58
:104C9000FA95E1F74195550B36D00F9007FE28C0E5
:104CA0000895DF93CF931F930F93FF92EF92DF92BC
:104CB0007B018C01689406C0DA2EEF010E94971ADE
:104CC000FE01E894A5912591359145915591A6F362
:104CD000EF010E941119FE019701A801DA9469F70A
:104CE000DF90EF90FF900F911F91CF91DF9108958A
:104CF0009B01AC0160E070E080E89FE30C946419D4
:104D00000C943A1A24CF0E946A1AE0F39923D1F343
:104D1000940F511DABF39150504094F059F08823FB
:104D200032F0660F771F881F91505040C1F79E3FA9
:104D3000510534F7880F911D9695879597F9089539
:104D40005F3FACF0983E9CF0BB27869577956795C2
:104D5000B79508F4B1609395C1F7BB0F58F711F4FC
:104D600060FFE8CF6F5F7F4F8F4F9F4FE3CF0C9473
:104D7000851A0EF0ECCE0C94401A68940C943A1AF2
:104D80000E946A1AB0F39923C1F3AEF3DF93CF9375
:104D90001F930F93FF92C92FDD2788232AF02197B5
:104DA000660F771F881FDAF720E030E040E85FEBFE
:104DB0009FE3883920F0803E38F021968F770E945B
:104DC0000019E2ECF1E004C00E940019EFEEF1E0FE
:104DD00068DF8B01BE01EC01FB2E6F5771097595E1
:104DE000771F880B990B0E94FF1928E132E741E3F6
:104DF0005FE30E94971AAF2D9801AE01FF900F91CB
:104E00001F91CF91DF910E9411190C94511AFA0150
:104E1000DC01AA0FBB1F9B01AC01BF5728F422275E
:104E200033274427507820C0B75190F4AB2F00248B
:104E3000469537952795011CA395D2F3002071F074
:104E4000220F331F441FB395DAF30ED00C94FF18D2
:104E500061307105A0E88A07B94630F49B01AC01C6
:104E60006627772788279078309621F02083318332
:104E700042835383089597FB072E16F4009406D0BF
:104E800077FD08D03FD007FC05D03EF49095819582
:104E90009F4F0895709561957F4F0895A1E21A2E56
:104EA000AA1BBB1BFD010DC0AA1FBB1FEE1FFF1FCE
:104EB000A217B307E407F50720F0A21BB30BE40B1E
:104EC000F50B661F771F881F991F1A9469F7609565
:104ED0007095809590959B01AC01BD01CF0108951F
:104EE000EE0FFF1F881F8BBF0790F691E02D1994DE
:104EF0001DD0A59F900DB49F900DA49F800D911D76
:104F000011240895AA1BBB1B51E107C0AA1FBB1F98
:104F1000A617B70710F0A61BB70B881F991F5A9545
:104F2000A9F780959095BC01CD010895A29FB0018D
:104F3000B39FC001A39F700D811D1124911DB29FCD
:104F4000700D811D1124911D08950F931F93CF9310
:104F5000DF93869F8001879F100D969F100D11246F
:104F6000C8010DD0EC01009721F0A80160E070E0CD
:104F700034D1CE01DF91CF911F910F9108950F93FE
:104F80001F93CF93DF938230910510F482E090E07D
:104F9000E0913C0FF0913D0F20E030E0A0E0B0E068
:104FA000309719F1408151810281138148175907C7
:104FB000C8F08417950769F4109731F012960C9396
:104FC000129713961C9327C000933C0F10933D0F2C
:104FD00022C02115310519F04217530718F49A0120
:104FE000BD01EF01DF01F801DBCF21153105F9F03B
:104FF000281B390B2430310580F48A819B8161158F
:10500000710521F0FB019383828304C090933D0FCF
:1050100080933C0FFE01329644C0FE01E20FF31F65
:105020008193919322503109398328833AC020918A
:105030003A0F30913B0F232B41F420910202309123
:10504000030230933B0F20933A0F209100023091DE
:1050500001022115310541F42DB73EB740910402FC
:1050600050910502241B350BE0913A0FF0913B0F54
:10507000E217F307A0F42E1B3F0B2817390778F02F
:10508000AC014E5F5F4F2417350748F04E0F5F1F8E
:1050900050933B0F40933A0F8193919302C0E0E00D
:1050A000F0E0CF01DF91CF911F910F910895CF9341
:1050B000DF93009709F481C0FC01329713821282BA
:1050C000A0913C0FB0913D0F109781F42081318168
:1050D000820F931F20913A0F30913B0F2817390709
:1050E00051F5F0933B0FE0933A0F67C0ED0120E0DC
:1050F00030E0CE17DF0740F44A815B819E01411505
:105100005105F1F0EA01F5CFD383C283408151818B
:10511000840F951FC817D90759F488819981840F86
:10512000951F0296918380838A819B8193838283DA
:105130002115310529F4F0933D0FE0933C0F3DC05C
:10514000E901FB83EA8349915991C40FD51FEC17FC
:10515000FD0761F480819181840F951F0296E9011A
:1051600099838883828193819B838A83E0E0F0E046
:1051700012968D919C911397009719F0FD01DC0117
:10518000F7CF8D919C9111979D012E5F3F4F820F1C
:10519000931F20913A0F30913B0F2817390769F47C
:1051A000309729F410923D0F10923C0F02C01382E9
:1051B0001282B0933B0FA0933A0FDF91CF910895E5
:1051C00081E090E0F89400C3FB01DC0102C0019093
:1051D0000D9241505040D8F70895DC0101C06D9305
:1051E00041505040E0F70895CF93DF93CDB7DEB73D
:1051F000AE014A5F5F4FFA0161917191AF018091F9
:10520000400F9091410F33D0DF91CF9108950F93CC
:105210001F93CF93DF93E091400FF091410F2381D3
:1052200021FF1BC08C01D0E0C0E0F80181918F010B
:105230006091400F7091410FDB011896ED91FC9148
:105240001997882331F01995892B79F3DFEFCFEF88
:10525000ECCF8AE01995892B19F08FEF9FEF02C0F0
:105260008D2F9C2FDF91CF911F910F9108952F9239
:105270003F924F925F926F927F928F929F92AF92E6
:10528000BF92CF92DF92EF92FF920F931F93CF9333
:10529000DF93CDB7DEB72B970FB6F894DEBF0FBE06
:1052A000CDBF6C017B018A01FC01178216828381CC
:1052B00081FFBFC1CE0101963C01F6019381F70148
:1052C00093FD859193FF81917F01882309F4ADC1FE
:1052D000853239F493FD859193FF81917F01853269
:1052E00021F4B60190E0D6D1E8CF912C212C312CBD
:1052F000FFE1F315D8F08B3279F038F4803279F091
:105300008332A1F4232D20611DC08D3261F08033E2
:1053100069F4232D216016C0832D8260382EE32D81
:10532000E4603E2E2AC0F32DF8601DC037FC2DC06E
:1053300020ED280F2A3040F08E32B9F436FC75C1CA
:10534000232D2064322E19C036FE06C08AE0989EB6
:10535000200D1124922E11C0EAE02E9E200D112462
:10536000222EF32DF0623F2E08C08C3621F4832DBF
:105370008068382E02C0883641F4F70193FD85918C
:1053800093FF81917F018111B3CF982F9F7D955419
:10539000933028F40C5F1F4F9FE399830DC0833631
:1053A00031F0833771F0833509F055C020C0F80122
:1053B000808189830E5F1F4F88248394912C530131
:1053C00012C02801F2E04F0E511CF801A080B180FC
:1053D00036FE03C0692D70E002C06FEF7FEFC5019C
:1053E0004ED14C018201F32DFF773F2E15C02801CD
:1053F00022E0420E511CF801A080B18036FE03C0AD
:10540000692D70E002C06FEF7FEFC5012DD14C0117
:10541000F32DF0683F2E820133FC19C0822D90E0FD
:1054200088169906A0F4B60180E290E033D12A9460
:10543000F5CFF50137FC859137FE81915F01B6010B
:1054400090E028D121102A9421E0821A9108811439
:10545000910479F7E1C0843611F0893639F5F80105
:1054600037FE07C060817181828193810C5F1F4F7D
:1054700008C060817181072E000C880B990B0E5FAC
:105480001F4FF32DFF763F2E97FF09C09095809513
:10549000709561957F4F8F4F9F4FF0683F2E2AE0A8
:1054A00030E0A30133D1882E861844C0853731F40B
:1054B000232D2F7EB22E2AE030E025C0932D997F38
:1054C000B92E8F36C1F018F4883579F0AEC0803728
:1054D00019F0883721F0A9C0E92FE061BE2EB4FE93
:1054E0000DC0FB2DF460BF2E09C034FE0AC0292F69
:1054F0002660B22E06C028E030E005C020E130E092
:1055000002C020E132E0F801B7FE07C0608171817E
:10551000828193810C5F1F4F06C06081718180E0A2
:1055200090E00E5F1F4FA301F1D0882E8618FB2D4F
:10553000FF773F2E36FE0DC0232D2E7FA22E89141D
:1055400058F434FE0BC032FC09C0832D8E7EA82E89
:1055500005C0B82CA32C03C0B82C01C0B92CA4FEE4
:105560000FC0FE01E80DF11D8081803321F49A2DDA
:10557000997EA92E09C0A2FE06C0B394B39404C0BC
:105580008A2D867809F0B394A3FC10C0A0FE06C053
:10559000B21480F4280C922C9B180DC0B21458F44D
:1055A000B60180E290E076D0B394F8CFB21418F44C
:1055B0002B1802C0982C212CA4FE0FC0B60180E34A
:1055C00090E068D0A2FE16C0A1FC03C088E790E07E
:1055D00002C088E590E0B6010CC08A2D867851F0B3
:1055E000A1FE02C08BE201C080E2A7FC8DE2B60101
:1055F00090E050D0891430F4B60180E390E04AD0B6
:105600009A94F8CF8A94F301E80DF11D8081B601D8
:1056100090E040D08110F6CF222009F44ECEB601A2
:1056200080E290E037D02A94F7CFF6018681978107
:1056300002C08FEF9FEF2B960FB6F894DEBF0FBE20
:10564000CDBFDF91CF911F910F91FF90EF90DF9031
:10565000CF90BF90AF909F908F907F906F905F9012
:105660004F903F902F900895FC010590615070403D
:105670000110D8F7809590958E0F9F1F0895FC011B
:105680006150704001900110D8F7809590958E0F71
:105690009F1F08950F931F93CF93DF93FB012381E7
:1056A00021FD03C08FEF9FEF2CC022FF16C0468163
:1056B0005781248135814217530744F4A081B18179
:1056C0009D012F5F3F4F318320838C93268137814B
:1056D0002F5F3F4F3783268314C08B01EC01FB0102
:1056E0000084F185E02D1995892BE1F6D8011696F5
:1056F0008D919C911797019617969C938E93169770
:10570000CE01DF91CF911F910F910895FA01AA2741
:10571000283051F1203181F1E8946F936E7F6E5FF4
:105720007F4F8F4F9F4FAF4FB1E03ED0B4E03CD0A2
:10573000670F781F891F9A1FA11D680F791F8A1F85
:10574000911DA11D6A0F711D811D911DA11D20D0EC
:1057500009F468943F912AE0269F11243019305DA6
:105760003193DEF6CF010895462F4770405D419397
:10577000B3E00FD0C9F7F6CF462F4F70405D4A33E4
:1057800018F0495D31FD4052419302D0A9F7EACFAC
:10579000B4E0A6959795879577956795BA95C9F7DB
:1057A00000976105710508959B01AC010A2E0694CE
:1057B0005795479537952795BA95C9F7620F731F87
:0C57C000841F951FA01D0895F894FFCFD2
:1057CC000000440F20000900400040C600CE00D667
:1057DC00003601000000030000000071215C210074
:1057EC0000F8FF0186000000000079FF0179A0009D
:1057FC00000000E6FF0179000000000086FF018731
:10580C00000000000078FF01880000000000004349
:10581C004F322073656E736F7220646F6573206EE8
:10582C006F74204F4B00436172626F6E3A25640AAD
:10583C0000434F322073656E736F72207374617204
:10584C0074656421212100434F585461736B0054DB
:10585C00656D70657261747572652073656E736FBA
:10586C0072206469646E27742077616B6575702192
:10587C0021210048756D696C6974792073656E73AC
:10588C006F72206469646E2774206D656173757224
:10589C00652121210048756D25642E25640048750D
:1058AC006D696C6974792073656E736F7220737493
:1058BC0061727465642121210048756D53656E73A6
:1058CC006F725461736B00372D7365676D656E7401
:1058DC0020446973706C61792073746172746564AF
:1058EC0021212100372D7365676D656E7420446925
:1058FC0073706C6179205461736B0054656D7065C5
:10590C007261747572652073656E736F7220646951
:10591C00646E2774206D6561737572652121210099
:10592C0074656D70657261747572653A25642E25A7
:10593C00640054656D706572617475726520736571
:10594C006E736F722073746172746564212121000F
:10595C0054656D706572617475726553656E736FA5
:10596C00725461736B004E6F772074696D652063A0
:10597C006C6F636B207374617274656421212100F8
:10598C004E6F7754696D65436C6F636B5461736BC9
:10599C000049444C4500546D72205376630050729C
:1059AC006F6772616D20537461727465642121217B
:1059BC0000FC60DAF266B6BEE0FEE6EE3E1A7A9EB7
:0859CC008E000102030001023C
:00000001FF
