S00E000067682D696F742E73726563CE
S113000090C20000AFC20000ADC20000ABC200004D
S1130010A9C20000A7C20000A5C20000A3C200003C
S1130020A1C200009FC200009DC200009BC200004C
S11300300C94FF0B97C2000095C2000093C200000D
S113004091C200008FC200008DC200008BC200006C
S113005089C200000C94181C85C2000083C20000F1
S11300600C9439230C941A1F0C946C1F7BC200004F
S113007079C2000077C2000075C2000073C200009C
S113008071C200006FC200006DC200006BC20000AC
S11300900C94B01F0C94022065C200000C94B5248B
S11300A061C200005FC200005DC200005BC20000CC
S11300B059C2000057C2000055C2000053C20000DC
S11300C051C200004FC200004DC200000C944620F3
S11300D00C94982047C200000C94DC200C942E2130
S11300E041C20000070207020702410249025F02FF
S11300F00702070241024902D7244725472547251D
S11301004725472547254725D724472547254725FC
S11301104725472547254725D924472547254725EA
S1130120472547254725472547254725472547256B
S11301304725472547254725D924472547254725CA
S1130140472547254725472547254725472547254B
S1130150472547254725472543254725472547253F
S113016047254725472547250E2547254725472564
S1130170472547254725472547254725472547251B
S11301804725472547254725022547254725472550
S11301904725472547254725262507634236B79B2C
S11301A0D8A71A39685618AEBAAB558C1D3CB7CCD3
S11301B05763BD6DEDFD753EF6177231BF0000004B
S11301C0803F08000000BE922449123EABAAAA2A2E
S11301D0BECDCCCC4C3E00000080BEABAAAAAA3E49
S11301E000000000BF000000803F00000000000885
S11301F04178D3BB4387D1133D190E3CC3BD428222
S1130200AD2B3E68EC8276BED98FE1A93E4C80EFDF
S1130210FFBE01C4FF7F3F000000000009E01EE0B4
S11302200F2EF9E3EF2EFEE0FF2EF02D8091080E45
S1130230882329F10FB6F8940F92D8011796ED91FF
S1130240FC911897C085D185CE0102960E94C00A00
S11302508091FC0D81508093FC0D8091080E81509B
S11302608093080E0F900FBE8B8D9C8D0E94350AD3
S1130270CE010E94350A8091080E8111DBCFF7016F
S11302808081823010F00E943A0B0E94C518CECFB4
S1130290CF93DF93CDB7DEB760970FB6F894DEBF88
S11302A00FBECDBFCE0101969A878987812C912CF0
S11302B0A12CB12C69847A84E091B30EF091B40E30
S11302C08081882309F413C10780F085E02D208004
S11302D03180428053800E94AB11CE0101960E946E
S11302E02F186B877C878D879E878981811167C0D2
S11302F08B859C85AD85BE8582159305A405B505C2
S113030008F445C00E94EF12E091B30EF091B40ED0
S11303100780F085E02DA085B185B88BAF87CD012E
S113032002960E94C00AEF85F889868982FF21C05F
S11303304685578560897189420D531D641D751D5D
S1130340720161010B851C852D853E85CF010E94BC
S11303503F17882399F0C82CD92CEA2CFB2C00E0F9
S113036010E0A201910160E08F8598890E94D11765
S113037005C08E7FAF85B88956968C93AF85B889B2
S11303805496ED91FC915597CD011995A1C020E0AB
S1130390B201A1018B859C85AD85BE85481B590B97
S11303A06A0B7B0B8091AF0E9091B00E0E94670F89
S11303B00E94EF1281118CC00E943A0B89C00E94E6
S11303C0EF1286C0898188230CF482C04E805F803E
S11303D0D2011C968D919C911D97892B21F0C2010D
S11303E002960E94C00ACE0108960E942F188B0123
S11303F09C01E9810E2E000CFF0BEA30F10508F098
S113040067C08827EE58FF4F8F4F0C948627F20160
S113041086898160868BCA80DB80EC80FD8046857E
S11304205785608971894C0D5D1D6E1D7F1DC2014C
S11304300E943F17882309F44BC0D2015496ED91D2
S1130440FC915597C2011995F201868982FF40C03B
S11304504A815B816C817D8186859785A089B1897C
S11304609A01AB01280F391F4A1F5B1FC82CD92CD6
S1130470EA2CFB2C00E010E060E0C2010E94D117DE
S113048027C0D20156968C9156978E7F56968C93A0
S11304901FC0F20186898160868B4A815B816C81F1
S11304A07D8146875787608B718B400F511F621F78
S11304B0731F68017901C2010E943F1709C0F2014C
S11304C0868981FD03C0C201D0D702C08E7F868B8E
S11304D0282D392D4A2D5B2D662D772D8091AF0E59
S11304E09091B00E0E940A0E81116CCFE5CE0E944D
S11304F0AB11CE0101960E942F186B877C878D87E4
S11305009E87898181115BCFE091B10EF091B20E8B
S1130510808121E0811120E0282C392C4A2C5B2C8D
S113052037CF11241FBECFEFD1E2DEBFCDBF00E035
S11305300CBF14E0A0E0B2E0E8EFF7E500E00BBF89
S113054002C007900D92AC30B107D9F72FE0ACE0B0
S1130550B4E001C01D92A834B207E1F70E940D195E
S11305600C94FA2B4DCD6894992492F80F2EF0E157
S1130570AF2EF7E2BF2EF02D06E612E08091290F90
S1130580882321F08FE492E00E941D290E94991D86
S11305908093290F80912C0F90912D0F83D320E00D
S11305A030E04AE754E40E94A11A0E94E7199B0133
S11305B0AC01AEE3B0E00E948E2728EE33E040E0C9
S11305C050E00E946427CA01B9010E94D51382B188
S11305D0892582B98AE29FE00E94C81DC0912A0F32
S11305E0D0912B0FBE0180E090E00E94131A6B01A2
S11305F07C0120E030E44CE156E40E94A11A2B0176
S11306003C01CA9DB001CB9D700DDA9D700D112483
S1130610072E000C880B990B0E94151A9B01AC0144
S1130620C301B2010E9415190E94E2197F936F93CE
S1130630DF93CF931F930F930E940A29B701A6015A
S113064080912C0F90912D0F04D380912C0F9091B9
S11306502D0F74D30F900F900F900F900F900F9059
S11306608DCFEF92FF920F9390932D0F80932C0FC9
S113067084E792E00E941D29E12CF12C01E021E0A5
S113068030E040EC50E06AE872E083EB92E00E94D4
S113069048100F91FF90EF9008950F2EF2E98F2EDE
S11306A0F2E09F2EF02D12E00F2EF6EB2F2EF2E04B
S11306B03F2EF02D0F2EF0E1AF2EF7E2BF2EF02DDE
S11306C0C8EDD2E00E94CC1C882331F09F928F9217
S11306D00E940A290F900F9080912E0F90912F0F56
S11306E0A6D320E030E04AEF53E40E94A11A0E940E
S11306F0E7199B01AC01AEE3B0E00E948E2728EE1F
S113070033E040E050E00E946427CA01B9010E942E
S1130710D51382B1812782B90E94E01C882331F06D
S11307203F922F920E940A290F900F9080912E0FD2
S113073090912F0F7CD320E030E04AEF53E40E94E5
S1130740A11A0E94E7199B01AC01AEE3B0E00E943C
S11307508E2728EE33E040E050E00E946427CA016F
S1130760B9010E94D51382B1812782B90E94F01C7D
S1130770AB01BC0140930C0450930D0460930E0430
S113078070930F0480912E0F90912F0F28D3809196
S11307902E0F90912F0F70D30E94E2196B017C01F0
S11307A080912E0F90912F0F67D32B013C018091E4
S11307B02E0F90912F0F85D320E030E44CE156E4C6
S11307C0C301B2010E94A11A2B013C01AC9CB001EF
S11307D0AD9C700DBC9C700D1124072E000C880B71
S11307E0990B0E94151A9B01AC01C301B2010E942E
S11307F015190E94E2197F936F93DF92CF92DF93D2
S1130800CF930E940A290F900F900F900F900F9092
S11308100F9058CFEF92FF920F9390932F0F8093E6
S11308202E0F81EE92E00E941D29E12CF12C01E0B3
S113083021E030E040EC50E06CEF72E08DE493E0B6
S11308400E9448100F91FF90EF9008950F2EF4E648
S11308508F2EF02D0F2EF8EECF2EF3E0DF2EE12CAD
S1130860F12CF02D6894992496F86894AA24A5F89C
S11308706894BB24B4F882B1805882B9D3D4EC0113
S1130880D7D48C01CE01D8D4809EB001819E700D46
S11308901124860F971FBC01990F880B990B0E9496
S11308A0151A20E030E048EC52E40E947A1942E044
S11308B00E942A1B20E030E04AE754E46091300FA4
S11308C07091310F8091320F9091330F0E94A11AD1
S11308D00E94E7199B01AC01AEE3B0E00E948E27B1
S11308E0A70196010E946427CA01B9010E94D51389
S11308F082B1805882B982B1892582B9E9D37FD384
S113090042E00E942A1B20E030E04AE754E4609170
S1130910300F7091310F8091320F9091330F0E94FC
S1130920A11A0E94E7199B01AC01AEE3B0E00E945A
S11309308E27A70196010E946427CA01B9010E946B
S1130940D51382B1892582B982B18A2582B9C5D3EA
S113095093D242E00E942A1B20E030E04AE754E4AC
S11309606091300F7091310F8091320F9091330F5D
S11309700E94A11A0E94E7199B01AC01AEE3B0E00A
S11309800E948E27A70196010E946427CA01B9011B
S11309900E94D51382B18A2582B982B18B2582B98E
S11309A0A1D3A6D142E00E942A1B20E030E04AE70E
S11309B054E46091300F7091310F8091320F909117
S11309C0330F0E94A11A0E94E7199B01AC01AEE308
S11309D0B0E00E948E27A70196010E946427CA01F5
S11309E0B9010E94D51382B18B2582B944CFEF920D
S11309F0FF920F936093300F7093310F8093320FF7
S1130A009093330F80E090E00E94DB1B0E94D01B88
S1130A108AE093E00E941D29E12CF12C01E021E001
S1130A2030E040EC50E067E273E086E294E00E943C
S1130A3048100F91FF90EF9008950F2EF2E98F2E3A
S1130A40F2E09F2EF02D11E00F2EFEE32F2EF3E0A7
S1130A503F2EF02D0F2EF0E1AF2EF7E2BF2EF02D3A
S1130A60C3E6D3E00E94CC1C882331F09F928F927E
S1130A700E940A290F900F908091340F9091350FA6
S1130A8099D220E030E04AEF53E40E94A11A0E9478
S1130A90E7199B01AC01AEE3B0E00E948E2728EE7B
S1130AA033E040E050E00E946427CA01B9010E948B
S1130AB0D51382B1812782B90E94E01C882331F0CA
S1130AC03F922F920E940A290F900F908091340F29
S1130AD09091350F6FD220E030E04AEF53E40E944A
S1130AE0A11A0E94E7199B01AC01AEE3B0E00E9499
S1130AF08E2728EE33E040E050E00E946427CA01CC
S1130B00B9010E94D51382B1812782B90E94021DC6
S1130B10AB01BC0140931004509311046093120480
S1130B20709313048091340F9091350F1BD28091F0
S1130B30340F9091350F63D20E94E2196B017C014E
S1130B408091340F9091350F5AD22B013C01809142
S1130B50340F9091350F78D220E030E44CE156E424
S1130B60C301B2010E94A11A2B013C01AC9CB0014B
S1130B70AD9C700DBC9C700D1124072E000C880BCD
S1130B80990B0E94151A9B01AC01C301B2010E948A
S1130B9015190E94E2197F936F93DF92CF92DF932E
S1130BA0CF930E940A290F900F900F900F900F90EF
S1130BB00F9058CFEF92FF920F939093350F80933D
S1130BC0340F85E793E00E941D29E12CF12C01E00C
S1130BD021E030E040EC50E063E973E08DE195E022
S1130BE00E9448100F91FF90EF900895CF92DF92EA
S1130BF0EF92FF920F93CF93DF936B017C0161E03F
S1130C0070E08CE090E00E94BB27EC01892BC1F0DE
S1130C10C882D982EA82FB821C821D821E821F82C4
S1130C20C2D29B878A8743E060E081E0FCD6998743
S1130C30888700E020E030E0A90160E070E014D78C
S1130C40CE01DF91CF910F91FF90EF90DF90CF9085
S1130C500895CF92DF92EF92FF920F93CF93DF9399
S1130C60EC016A017B014FEF5FEFBA01888599853A
S1130C700E949F0ECC82DD82EE82FF828A859B8554
S1130C80AAD200E020E030E0A90160E070E08885AD
S1130C909985EAD6DF91CF910F91FF90EF90DF9085
S1130CA0CF900895CF92DF92EF92FF920F93CF935C
S1130CB0DF93EC014FEF5FEFBA01888599850E94BD
S1130CC09F0EC880D980EA80FB8000E020E030E0FD
S1130CD0A90160E070E088859985C6D6C701B60190
S1130CE0DF91CF910F91FF90EF90DF90CF90089517
S1130CF0CF92DF92EF92FF920F93CF93DF93EC01A9
S1130D004FEF5FEFBA01888599850E949F0ECC80D2
S1130D10DD80EE80FF8000E020E030E0A90160E0AB
S1130D2070E088859985A0D6C701B601DF91CF917F
S1130D300F91FF90EF90DF90CF900895EF92FF9284
S1130D400F93CF93DF93EC014FEF5FEFBA018885E8
S1130D509985F5D7EA84FB8400E020E030E0A9011E
S1130D6060E070E0888599857FD6C701DF91CF91D7
S1130D700F91FF90EF900895CF92DF92EF92FF9240
S1130D800F93CF93DF936B017C0161E070E08CE003
S1130D9090E00E94BB27EC01892BC1F0C882D98264
S1130DA0EA82FB821C821D821E821F82FCD19B87E9
S1130DB08A8743E060E081E036D69987888700E03F
S1130DC020E030E0A90160E070E04ED6CE01DF9172
S1130DD0CF910F91FF90EF90DF90CF900895CF9235
S1130DE0DF92EF92FF920F93CF93DF93EC016A01AE
S1130DF07B014FEF5FEFBA0188859985A0D7CC823C
S1130E00DD82EE82FF828A859B85E5D100E020E0C9
S1130E1030E0A90160E070E08885998525D6DF91EE
S1130E20CF910F91FF90EF90DF90CF900895CF92E4
S1130E30DF92EF92FF920F93CF93DF93EC014FEF8A
S1130E405FEFBA01888599857AD7C880D980EA800E
S1130E50FB8000E020E030E0A90160E070E08885DC
S1130E60998502D6C701B601DF91CF910F91FF900A
S1130E70EF90DF90CF900895CF92DF92EF92FF92A0
S1130E800F93CF93DF93EC014FEF5FEFBA018885A7
S1130E90998555D7CC80DD80EE80FF8000E020E08E
S1130EA030E0A90160E070E088859985DDD5C7014F
S1130EB0B601DF91CF910F91FF90EF90DF90CF902B
S1130EC00895EF92FF920F93CF93DF93EC014FEFCE
S1130ED05FEFBA018885998532D7EA84FB8400E004
S1130EE020E030E0A90160E070E088859985BCD5F8
S1130EF0C701DF91CF910F91FF90EF900895CF92AA
S1130F00DF92EF92FF920F93CF93DF936B017C01FB
S1130F1061E070E08CE090E00E94BB27EC01892B3B
S1130F20C1F0C882D982EA82FB821C821D821E82A1
S1130F301F8239D19B878A8743E060E081E073D5C3
S1130F409987888700E020E030E0A90160E070E044
S1130F508BD5CE01DF91CF910F91FF90EF90DF9071
S1130F60CF900895CF92DF92EF92FF920F93CF9399
S1130F70DF93EC016A017B014FEF5FEFBA018885D3
S1130F809985DDD6CC82DD82EE82FF828A859B85BF
S1130F9022D100E020E030E0A90160E070E0888523
S1130FA0998562D5DF91CF910F91FF90EF90DF90FB
S1130FB0CF900895CF92DF92EF92FF920F93CF9349
S1130FC0DF93EC014FEF5FEFBA0188859985B7D6BF
S1130FD0C880D980EA80FB8000E020E030E0A901ED
S1130FE060E070E0888599853FD5C701B601DF913F
S1130FF0CF910F91FF90EF90DF90CF900895CF9213
S1131000DF92EF92FF920F93CF93DF93EC014FEFB8
S11310105FEFBA018885998592D6CC80DD80EE8019
S1131020FF8000E020E030E0A90160E070E0888506
S113103099851AD5C701B601DF91CF910F91FF9021
S1131040EF90DF90CF900895EF92FF920F93CF939C
S1131050DF93EC014FEF5FEFBA01888599856FD676
S1131060EA84FB8400E020E030E0A90160E070E065
S113107088859985F9D4C701DF91CF910F91FF90AD
S1131080EF90089560E070E080E09FE3B0DC60E002
S113109070E080E89FE333DF9093390F8093380F3B
S11310A089DD60E070E080E89FE366DE90933B0FAB
S11310B080933A0FAFDB60E070E080E89FE396DD59
S11310C09093370F8093360FCCDA0C9475110895F2
S11310D08091380F9091390F089580913A0F909133
S11310E03B0F08958091360F9091370F08956EE36A
S11310F070E080E090E00E94D513E0913C0FF09105
S11311003D0F82859385019693878287CC977CF3E4
S11311108085918501969187808713861286CC9766
S113112034F386819781019697838683118610868E
S11311304897ECF217821682DACFEF92FF920F9360
S113114080913C0F90913D0F892B49F561E070E04F
S11311508CE090E00E94BB27FC0190933D0F8093AC
S11311603C0F892BE1F011821082138212821582C6
S1131170148217821682118610861386128689EAD3
S113118093E00E941D29E12CF12C01E021E030E0E4
S113119040EC50E063EC73E087E798E079D70F9177
S11311A0FF90EF900895C9DF61E070E08CE090E07B
S11311B00E94BB27FC01892B61F0118210821382EB
S11311C01282158214821782168211861086138663
S11311D01286CF010895CF93DF93EC01AEDFE09147
S11311E03C0FF0913D0F8081918199838883E09138
S11311F03C0FF0913D0F828193819B838A8384818C
S113120095819D838C83868197819F838E8380853E
S1131210918599878887828593859B878A87DF91C3
S1131220CF9108958ADF80913C0F90913D0F0895EE
S1131230FC01868197810895FC018085918508953C
S1131240CF93DF93DC01E0E2F4E001C0F9012081F7
S113125031812A173B07D0F382819381AF01480F74
S1131260591FA417B50749F412964D915C91139731
S1131270840F951F93838283DF0112968D919C9135
S11312801397ED01C80FD91F2C173D07D9F42091EE
S11312901E0430911F04C217D30781F02A813B81B9
S11312A0820F931F13969C938E931297C081D181C2
S11312B08881998111969C938E9307C01196DC9333
S11312C0CE9303C011963C932E93AE17BF0711F033
S11312D0B183A083DF91CF910895CF92DF92EF92F3
S11312E0FF920F931F93CF93DF93EC010E94AB11F6
S11312F080911E0490911F04892B41F5E0E2F4E0F3
S1131300A4E2B4E0B183A08313821282E4EEFDE090
S1131310F0931F04E0931E04138212821182108240
S113132080EC99E013969C938E931297ED93FC9323
S113133090931B0480931A0490931D0480931C04BF
S113134080E090E89093150480931404E0901404D2
S1131350F0901504C7018C239D23892B09F075C0D7
S1131360209709F475C09E012C5F3F4FC217D30725
S113137008F06EC02115310509F467C000911C0402
S113138010911D040217130708F45FC0C0912004D4
S1131390D0912104E0E2F4E002C0FE01EC018A8174
S11313A09B818217930720F4888199810097A9F77C
S11313B080911E0490911F04C817D90709F445C0F1
S11313C0C080D18084E0C80ED11C8881998191832A
S11313D080834A815B81421B530B4930510548F09D
S11313E0CE01820F931FFC01538342833B832A83E4
S11313F027DF8A819B81081B190B10931D0400931E
S11314001C0420911A0430911B040217130720F4C2
S113141010931B0400931A04E82AF92AFB82EA8237
S1131420198218828091180490911904019690935E
S11314301904809318040E94EF12C114D10459F4C2
S11314400E94CB18C12CD12C06C00E94EF12F8CFF9
S11314500E94EF12F5CFC601DF91CF911F910F913A
S1131460FF90EF90DF90CF900895CF93DF93009794
S113147091F1FC01349722813381409114045091FD
S11314801504B90164237523672B29F160817181E7
S1131490672B09F5EF0140955095242335233383B9
S11314A0228359D720911C0430911D048A819B8189
S11314B0820F931F90931D0480931C04CE01C0DE01
S11314C080911604909117040196909317048093C9
S11314D016040E94EF12DF91CF910895FC01039648
S11314E0928381834FEF5FEFBA0143835483658313
S11314F07683908787839287818710820895FC0181
S11315001386128608950F931F93CF93DF93EB01F5
S1131510088119812A813B810F3F4FEF140724076B
S1131520340721F4FC01A185B28511C0DC011396B6
S113153001C0DF011496ED91FC9115974081518112
S113154062817381041715072607370790F71496ED
S1131550ED91FC911597FD83EC83D783C683BF83FC
S1131560AE831596DC93CE9314979B878A87FC01F0
S113157020812F5F2083DF91CF911F910F910895D8
S1131580CF93DF93FC01A285B385C481D581868185
S113159097819F838E83C681D781848195819D8322
S11315A08C8311968D919C911297E817F90731F469
S11315B08681978112969C938E9311971386128637
S11315C08C9181508C938C91DF91CF910895FC0183
S11315D060833197708331971082319710823197ED
S11315E020E820833197108231971082319710823E
S11315F0779740833197508386970895A89590EC08
S113160088E10FB6F894A895809360000FBE90937C
S11316106000A091A70EB091A80ECD91CDBFDD9131
S1131620DEBFFF91EF91DF91CF91BF91AF919F9179
S11316308F917F916F915F914F913F912F911F9166
S11316400F91FF90EF90DF90CF90BF90AF909F905D
S11316508F907F906F905F904F903F902F901F904E
S11316600F900CBE0F900BBE0F900FBE0F900895FD
S113167081E008950F920FB6F8940F920BB60F9273
S11316800CB60F921F9211242F923F924F925F92A9
S11316906F927F928F929F92AF92BF92CF92DF927E
S11316A0EF92FF920F931F932F933F934F935F9368
S11316B06F937F938F939F93AF93BF93CF93DF9356
S11316C0EF93FF93A091A70EB091A80E0DB60D92C3
S11316D00EB60D920E94EE13A091A70EB091A80E23
S11316E0CD91CDBFDD91DEBFFF91EF91DF91CF9121
S11316F0BF91AF919F918F917F916F915F914F9126
S11317003F912F911F910F91FF90EF90DF90CF9019
S1131710BF90AF909F908F907F906F905F904F900D
S11317203F902F901F900F900CBE0F900BBE0F9008
S11317300FBE0F9008950F920FB6F8940F920BB648
S11317400F920CB60F921F9211242F923F924F9238
S11317505F926F927F928F929F92AF92BF92CF923D
S1131760DF92EF92FF920F931F932F933F934F9328
S11317705F936F937F938F939F93AF93BF93CF9315
S1131780DF93EF93FF93A091A70EB091A80E0DB62F
S11317900D920EB60D9213BEF2D581110E94EE1376
S11317A0A091A70EB091A80ECD91CDBFDD91DEBF63
S11317B0FF91EF91DF91CF91BF91AF919F918F9165
S11317C07F916F915F914F913F912F911F910F9155
S11317D0FF90EF90DF90CF90BF90AF909F908F904D
S11317E07F906F905F904F903F902F901F900F903D
S11317F00CBE0F900BBE0F900FBE0F9008959BDF91
S113180018950FB6F8940F92FC01968D0F900FBEA9
S113181081E0911180E008950F931F93CF93DF939C
S1131820EC01042F1E8D48A141110CC088819981BF
S1131830892B09F042C08C819D810E946B161D8208
S11318401C8242C0011117C050E08A819B810E9412
S1131850FA2828A18A819B81820F911D9B838A8308
S11318602C813D818217930750F1888199819B8354
S11318708A8380E029C050E08E819F810E94FA28EB
S113188088A190E09195819591092E813F81280F3F
S1131890391F3F832E83488159812417350730F43B
S11318A02C813D81820F931F9F838E83023049F4E4
S11318B0112349F0115080E007C080E005C080E0AA
S11318C003C080E001C080E01F5F1E8FDF91CF91D5
S11318D01F910F910895FC0140A14423A9F050E009
S11318E026813781240F351F378326838481958190
S11318F02817390720F08081918197838683CB0153
S1131900668177810C94FA280895EF92FF920F93E1
S11319101F93CF938C010FB6F8940F92FC01C2A1D0
S11319201C16ACF48389811106C011C0F8018389A7
S1131930811105C00CC07801F3E1EF0EF11CC70161
S11319400E94B81481110E94D215C15079F78FEF0B
S1131950F80182A30F900FBE0FB6F8940F92C1A1A5
S11319601C16A4F48085811106C010C0F80180857E
S1131970811105C00BC07801F8E0EF0EF11CC7011E
S1131980F7D781110E94D215C15081F78FEFF8016A
S113199081A30F900FBECF911F910F91FF90EF90F5
S11319A00895CF93DF93EC010FB6F8940F92E8817A
S11319B0F9818F8D28A190E030E0829FA001839F60
S11319C0500D929F500D11244E0F5F1F5D834C8369
S11319D01E8EFB83EA830197829FA001839F500D93
S11319E0929F500D1124CF01840F951F9F838E83E6
S11319F08FEF89A38AA361110AC08885882369F0BF
S1131A00CE010896B5D7882341F034DE06C0CE0156
S1131A10089664DDCE01439661DD0F900FBE81E030
S1131A20DF91CF9108950F931F93CF93DF93082FE6
S1131A30162F869FC001112483964FDCEC0100977A
S1131A4069F0111103C09983888303C08396998335
S1131A5088830F8F18A361E0CE01A3DFCE01DF914D
S1131A60CF911F910F9108959F92AF92BF92CF9201
S1131A70DF92EF92FF920F931F93CF93DF93CDB733
S1131A80DEB729970FB6F894DEBF0FBECDBF7C0139
S1131A905B012E833F834887598710E099249394F0
S1131AA06C0188E0C80ED11C0FB6F8940F92F701B0
S1131AB0968D878D981710F00230A9F4402FB50148
S1131AC0C701AADEF7019389992339F0C701439628
S1131AD04FD7882321F0CEDD02C08111CBDD0F90DA
S1131AE00FBE81E04BC08E819F81A885B985892B6B
S1131AF08A2B8B2B21F40F900FBE80E03FC0111175
S1131B0004C0CE010196E4D7192D0F900FBE23D443
S1131B100FB6F8940F92F70181A18F3F09F411A237
S1131B20F70182A18F3F09F412A20F900FBEBE01EC
S1131B306A5F7F4FCE010196DCD781111BC00FB6BF
S1131B40F8940F92F701968D878D0F900FBE98131E
S1131B500DC04E815F8168857985C601B0D6C70105
S1131B60D4DE3DD58111A0CF85DD9ECFC701CDDE6A
S1131B7036D59ACFC701C9DE32D580E029960FB693
S1131B80F894DEBF0FBECDBFDF91CF911F910F91AF
S1131B90FF90EF90DF90CF90BF90AF909F9008950B
S1131BA0EF92FF920F931F93CF93DF938A01FC016F
S1131BB0568D378D531710F02230F1F4422F7801EF
S1131BC0EC011AA18E8DCE0127DE1F3F79F48B899B
S1131BD08823A1F0CE014396CBD6882389F0E11463
S1131BE0F10481F081E0F70180830DC0FF24F394B8
S1131BF0F10EFAA281E007C080E005C081E003C0D5
S1131C0081E001C081E0DF91CF911F910F91FF909E
S1131C10EF9008959F92AF92BF92CF92DF92EF928E
S1131C20FF920F931F93CF93DF93CDB7DEB729971E
S1131C300FB6F894DEBF0FBECDBF8C015B012E83BF
S1131C403F8348875987E12C992493946C0183E15D
S1131C50C80ED11C0FB6F8940F92F801F68CFF2031
S1131C6091F0B501C80137DEFA94F801F68E80854B
S1131C70882329F0C80108967BD68111FBDC0F90DC
S1131C800FBE81E04AC08E819F81A885B985892BCA
S1131C908A2B8B2B21F40F900FBE80E03EC0E11005
S1131CA004C0CE01019614D7E92C0F900FBE53D374
S1131CB00FB6F8940F92F80181A18F3F09F411A295
S1131CC0F80182A18F3F09F412A20F900FBEBE014A
S1131CD06A5F7F4FCE0101960CD7811115C0C801F0
S1131CE090DD882369F04E815F8168857985C6011E
S1131CF0E6D5C8010ADE73D48111ACCFBBDCAACF10
S1131D00C80103DE6CD4A6CFC801FFDD68D4C801C6
S1131D1078DD882309F49ECF80E029960FB6F894E5
S1131D20DEBF0FBECDBFDF91CF911F910F91FF900A
S1131D30EF90DF90CF90BF90AF909F900895BF92A7
S1131D40CF92DF92EF92FF920F931F93CF93DF9383
S1131D50CDB7DEB729970FB6F894DEBF0FBECDBF5F
S1131D608C014E835F8368877987B12CD12CCC2476
S1131D70C3947C0183E1E80EF11C0FB6F8940F9232
S1131D80D8015E968C915E978823D9F081505E9637
S1131D908C935E978D919C91892B29F40E942D1729
S1131DA0F80195838483D80118968C91882329F0AF
S1131DB0C8010896DDD581115DDC0F900FBE81E06E
S1131DC076C08E819F81A885B985892B8A2B8B2B20
S1131DD021F40F900FBE80E06AC0D11004C0CE0180
S1131DE0019676D6DC2C0F900FBEB5D20FB6F894C0
S1131DF00F92F80181A18F3F09F411A2D8019296A4
S1131E008C9192978F3F11F492961C920F900FBE73
S1131E10BE016A5F7F4FCE0101966BD6811123C04C
S1131E20C801EFDC8823D9F0F80180819181892BE6
S1131E3049F40FB6F8940F9284819581C5D6B82ED3
S1131E400F900FBE4E815F8168857985C70137D5B4
S1131E50C8015BDDC4D3811190CF0CDC8ECFC801E7
S1131E6054DDBDD38ACFC80150DDB9D3C801C9DC64
S1131E70882309F482CFBB20C9F00FB6F8940F92DF
S1131E80F8018389882339F0028CF38DE02D808159
S1131E906AE0681B01C060E0D80114968D919C91A2
S1131EA0159774D70F900FBE80E001C080E029968B
S1131EB00FB6F894DEBF0FBECDBFDF91CF911F9157
S1131EC00F91FF90EF90DF90CF90BF900895CF9344
S1131ED0DF93EC010FB6F8940F9289A18F3F09F4B8
S1131EE019A28AA18F3F09F41AA20F900FBE8E8DFA
S1131EF0811103C0CE014396F9D4CE0106DDDF91F2
S1131F00CF910895E091210EF091220E80818111EC
S1131F100CC08FEF9FEFDC018093EB0D9093EC0DE1
S1131F20A093ED0DB093EE0D0895E091210EF09184
S1131F30220E0780F085E02D80819181A281B381FA
S1131F408093EB0D9093EC0DA093ED0DB093EE0DFB
S1131F5008958F929F92AF92BF92CF92DF92EF92A9
S1131F60FF92CF93DF936B017C01C42F8090F80D17
S1131F709090F90DA090FA0DB090FB0D8091A70EF2
S1131F809091A80E0296FCDA8FEFC816D806E806E0
S1131F90F806B1F5CC23A1F1EDEFFDE0A181B2810A
S1131FA0C091A70ED091A80EBF83AE83C091A70E97
S1131FB0D091A80E16968D919C9117979987888732
S1131FC01696CD91DC9117978091A70E9091A80E4B
S1131FD002969D838C838091A70E9091A80E029601
S1131FE017969C938E931697A091A70EB091A80E66
S1131FF01D96FC93EE931C9780818F5F80833DC078
S1132000C80CD91CEA1CFB1CE091A70EF091A80E89
S1132010C282D382E482F582C814D904EA04FB04A0
S113202060F46091A70E7091A80E80911F0E90919C
S1132030200E6E5F7F4F67DA20C06091A70E70910B
S1132040A80E8091210E9091220E6E5F7F4F5BDA75
S11320508091EB0D9091EC0DA091ED0DB091EE0DF2
S1132060C816D906EA06FB0640F4C092EB0DD092DE
S1132070EC0DE092ED0DF092EE0DDF91CF91FF901B
S1132080EF90DF90CF90BF90AF909F908F90089586
S11320904F925F926F927F928F929F92AF92BF9274
S11320A0CF92DF92EF92FF920F931F93CF93DF9320
S11320B04C016B015A012901CA010FD93C01892B3A
S11320C009F401C184E390E008D9EC01892B99F06B
S11320D07C8E6B8EA50165EA70E0C3010E94032922
S11320E081E0A81AB1088B8D9C8DA80EB91EC1146D
S11320F0D10421F41FC0C301B8D9E5C0D6018C9125
S11321008D8F8C918823A1F0AE01425E5F4FF60162
S11321103196B0E1CB0ED11CCF012191DA012D9380
S1132120AD01DC018C91882319F0CE16DF06A1F7EE
S11321301CA601C01D8E0A3008F009E00A8F0DA705
S11321401EA66E01B2E0CB0ED11CC601D8D9CE01B9
S11321500E96D5D9DB87CA878AE090E0A0E0B0E08C
S1132160801B9109A109B1098E879F87A88BB98B20
S1132170DF8BCE8B84E0FE01BF96DF011D928A9532
S1132180E9F71BAAA201B401C50121DA9983888366
S1132190E114F10419F0F701D183C0830FB6F89468
S11321A00F928091FC0D8F5F8093FC0D8091A70EA0
S11321B09091A80E892BA1F5D093A80EC093A70ED9
S11321C08091FC0D813009F03BC009E31EE00F2E25
S11321D0F7EAEF2EFEE0FF2EF02DC8017FD9055F50
S11321E01F4F0E151F05C9F78EE29EE077D983E2D3
S11321F09EE074D984E19EE071D989E09EE06ED9B5
S11322008DEF9DE06BD98EE29EE09093220E809339
S1132210210E83E29EE09093200E80931F0E10C047
S11322208091F60D81110CC0E091A70EF091A80EDB
S1132230928D8A8D891720F0D093A80EC093A70E93
S11322408091EF0D8F5F8093EF0DEA8D8091F70DF4
S11322508E1710F4E093F70D8BE08E9FF00111249C
S1132260E75CF14F0180F281E02DFF83EE8326814C
S1132270378139872887A681B7811596DC92CE925B
S11322801497D782C682EA8D8E9FF0011124E75CF1
S1132290F14FFD87EC8780818F5F80830F900FBEA5
S11322A08091F60D882359F0E091A70EF091A80EC5
S11322B0928D8A8D981728F4DDD981E005C081E0DC
S11322C003C081E001C08FEFDF91CF911F910F9187
S11322D0FF90EF90DF90CF90BF90AF909F908F9042
S11322E07F906F905F904F900895EF92FF920F93BD
S11322F00F2EF9EEEF2EFDE0FF2EF02D00E020E092
S113230030E040EC50E064ED73E08EE091E0C0DE3C
S11323108130D9F426D68130C1F4F8948FEF9FEF41
S1132320DC018093EB0D9093EC0DA093ED0DB09335
S1132330EE0D81E08093F60D1092F80D1092F90DD8
S11323401092FA0D1092FB0D59D9809106020F914B
S1132350FF90EF9008958091E80D8F5F8093E80DD2
S113236008950FB6F8940F926091F80D7091F90DDD
S11323708091FA0D9091FB0D0F900FBE0895CF92AE
S1132380DF92EF92FF920F931F93CF93DF9380918D
S1132390E80D811107C1C090F80DD090F90DE090BF
S11323A0FA0DF090FB0D8FEFC81AD80AE80AF80A64
S11323B0C092F80DD092F90DE092FA0DF092FB0D57
S11323C0C114D104E104F104B1F48091210E90917F
S11323D0220E20911F0E3091200E3093220E209356
S11323E0210E9093200E80931F0E8091F00D8F5F2D
S11323F08093F00D87DD8091EB0D9091EC0DA09111
S1132400ED0DB091EE0DC816D906EA06FB0610F4E0
S113241080E0B3C080E04BE051E0E091210EF09108
S1132420220E908191110CC04FEF5FEFBA014093DF
S1132430EB0D5093EC0D6093ED0D7093EE0D9DC07C
S1132440E091210EF091220E0780F085E02D0084AA
S1132450F185E02D0281138124813581C016D106D6
S1132460E206F30648F40093EB0D1093EC0D209371
S1132470ED0D3093EE0D81C0A485B585C681D7815D
S1132480208531853F832E83C085D1852681378180
S11324903D832C839F012E5F3F4F11966D917C915C
S11324A012976217730731F46085718512967C93D5
S11324B06E931197158614869C9191509C93A08DD0
S11324C0B18D109709F1C289D389648975897F8395
S11324D06E83C489D589628973897D836C831196DF
S11324E0CD91DC911297BF01625F7F4FC617D7076A
S11324F031F46489758912967C936E931197118EC9
S1132500108E9C9191509C93A28D9091F70D9A17E7
S113251010F4A093F70D4A9FD0011124A75CB14F8A
S113252011960D90BC91A02DB783A68316966D913C
S11325307C911797718760871696CD91DC911797D8
S11325403D832C8317963C932E931697A28D4A9F16
S1132550D0011124A75CB14FB587A4879C919F5FDC
S11325609C93A091A70EB091A80E228D5A969C918F
S1132570291708F452CF852F50CFE091A70EF09180
S1132580A80EE28D9BE0E99FF0011124E75CF14F76
S11325909081923008F081E09091F10D9923B1F08F
S11325A081E014C08091F20D9091F30DA091F40D8F
S11325B0B091F50D0196A11DB11D8093F20D90937C
S11325C0F30DA093F40DB093F50D80E0DF91CF915E
S11325D01F910F91FF90EF90DF90CF900895CF92CD
S11325E0DF92EF92FF920F931F93CF93DF930FB677
S11325F0F8940F928091E80D81508093E80D8091BA
S1132600E80D8111C4C08091FC0D81118BC0C2C042
S1132610D8011796ED91FC9118970084F185E02D6F
S1132620A08DB18D8289938964897589EC017F833A
S11326306E838489958962897389EC017D836C83B7
S1132640CF010E9611966D917C91129768177907B8
S113265031F48489958912969C938E931197118EE7
S1132660108E8C9181508C93A485B5858681978139
S113267060857185EC017F836E8380859185668199
S11326807781EC017D836C83CF01029611966D9165
S11326907C9112976817790731F4608571851296D9
S11326A07C936E931197158614862C9121502C934C
S11326B0A28D2091F70D2A1710F4A093F70D3A9FDD
S11326C0D0011124A75CB14F11960D90BC91A02D9F
S11326D0B783A68316966D917C911797718760874F
S11326E016966D917C911797EB019D838C831796B9
S11326F09C938E931697A28D3A9FD0011124A75CC8
S1132700B14FB587A4878C918F5F8C93A091A70E4E
S1132710B091A80E928D5A968C91981748F04093D8
S1132720F10D06C0E0E0F0E004E11EE03BE041E032
S1132730D8018C9181116CCFEF2B09F0E3DBC090B1
S1132740F20DD090F30DE090F40DF090F50DC1145E
S1132750D104E104F10499F0C1E011DE8111C093C8
S1132760F10DB1E0CB1AD108E108F108B1F71092EC
S1132770F20D1092F30D1092F40D1092F50D80915C
S1132780F10D882331F00E943A0B81E003C080E010
S113279001C080E00F900FBEDF91CF911F910F9188
S11327A0FF90EF90DF90CF900895CF92DF92EF9259
S11327B0FF926B017C01672B682B692B41F0CBDD09
S11327C040E0C701B601C5DB0ADF811102C00E94E7
S11327D03A0BFF90EF90DF90CF9008958091E80D31
S11327E0882321F081E08093F10D08951092F10D7A
S11327F0A091A70EB091A80EE091A70EF091A80E9B
S11328002D913C91838D948D8217930758F060919C
S1132810A70E7091A80E8091A70E9091A80E635EEA
S11328207F4FC5D48091F70D282F30E09BE0899F1E
S1132830F0011124E75CF14F908191110EC04BE03F
S11328408150282F30E0429FF001439FF00D112466
S1132850E75CF14F9081992399F39BE0929FA0014B
S1132860939F500D1124DA01A75CB14F1196ED919D
S1132870FC9112970480F581E02D1296FC93EE935F
S11328801197445C514FE417F50729F444815581AD
S1132890FD01528341839BE0929FF001939FF00DD1
S11328A01124E75CF14F0180F281E02D2085318510
S11328B03093A80E2093A70E8093F70D0895CF921E
S11328C0DF92EF92FF926A017B016091A70E7091F3
S11328D0A80E625F7F4F0E94830A41E0C701B601E0
S11328E038DBFF90EF90DF90CF900895CF93DF9384
S11328F0FC01CB01BA01A181B281C091A70ED09194
S1132900A80EBB8BAA8BC091A70ED091A80E1696C9
S11329104D915C9117975D8B4C8B1696CD91DC9104
S113292017974091A70E5091A80E425F5F4F5D83A9
S11329304C834091A70E5091A80E425F5F4F1796AB
S11329405C934E931697A091A70EB091A80E59963A
S1132950FC93EE93589730813F5F3083222319F024
S11329606FEF7FEFCB01422FF4DADF91CF9108951F
S1132970CF93DF93DC011796ED91FC9118970084B7
S1132980F185E02DA08DB18DC289D3898489958983
S11329909F838E83C489D589828993899D838C83FF
S11329A09F01225F3F4F11968D919C911297821740
S11329B0930731F48489958912969C938E93119789
S11329C0118E108E8C9181508C938091E80D811121
S11329D052C0A485B585C681D781808591859F83A2
S11329E08E83C085D185868197819D838C839F0149
S11329F02E5F3F4F11968D919C91129782179307EA
S1132A0031F48085918512969C938E931197158647
S1132A1014868C9181508C93A28D8091F70D8A1726
S1132A2010F4A093F70D8BE08A9FD0011124A75CCA
S1132A30B14F11960D90BC91A02DB783A683169625
S1132A404D915C911797518740871696CD91DC91F3
S1132A5017973D832C8317963C932E931697A28D3C
S1132A608A9FD0011124A75CB14FB587A4878C91AC
S1132A708F5F8C931CC044E15EE0DA011196CD9126
S1132A80DC911297D38BC28B8E819F81958B848B23
S1132A908E819F81DC0115963C932E9314973F837E
S1132AA02E83518F408FDA018C918F5F8C93A0918C
S1132AB0A70EB091A80E928D5A968C91891720F486
S1132AC081E08093F10D01C080E0DF91CF91089502
S1132AD02091F00DFC0120834091F80D5091F90DE7
S1132AE06091FA0D7091FB0D41835283638374836B
S1132AF00895CF92DF92EF92FF920F931F93CF939B
S1132B00DF93FB010FB6F8940F924091F80D5091AA
S1132B10F90D6091FA0D7091FB0D008111812281F4
S1132B2033810F3FAFEF1A072A073A0779F1EC0117
S1132B30C980DA80EB80FC80A091F00DB881BA17CF
S1132B4059F04C155D056E057F0530F01082118239
S1132B501282138281E01BC04C195D096E097F0942
S1132B60401751076207730758F4041B150B260B13
S1132B70370B0083118322833383AADF80E007C0ED
S1132B80108211821282138281E001C080E00F90D2
S1132B900FBEDF91CF911F910F91FF90EF90DF90C7
S1132BA0CF90089581E08093F10D08958091F60D02
S1132BB0882331F08091E80D882321F080E0089586
S1132BC081E0089582E008950F931F93CF93DF93DC
S1132BD0FC01892B09F479C0828DA091A70EB091D4
S1132BE0A80E5A969C91891708F063C046855785AC
S1132BF060897189772394F0A091A70EB091A80EF3
S1132C005A969C914AE050E060E070E0491B5109FB
S1132C106109710946875787608B718B2BE0829F0E
S1132C20C0011124875C914F248535852817390705
S1132C30B9F5EF018F010E5F1F4FC8010E94C00A52
S1132C40E091A70EF091A80EE28DEA8F8091F70D26
S1132C508E1710F4E093F70D8BE08E9FF001112492
S1132C60E75CF14F0180F281E02DFF83EE83268142
S1132C70378139872887A681B78115961C930E93CF
S1132C80149717830683EA8D8E9FF0011124E75C65
S1132C90F14FFD87EC8780818F5F808381E016C0D0
S1132CA0A091A70EB091A80E5A968C91828F81E0C4
S1132CB00DC0A091A70EB091A80E81E025A55A964B
S1132CC09C91291718F080E001C080E0DF91CF913A
S1132CD01F910F9108950F931F93CF93DF93FC01DE
S1132CE0892B09F449C086A5815086A7228D95A514
S1132CF0291709F443C0811143C0EF018F010E5F0E
S1132D001F4FC8010E94C00AEDA5EA8F8AE090E037
S1132D10A0E0B0E08E1B9109A109B1098E879F87BD
S1132D20A88BB98B8091F70D8E1710F4E093F70DF3
S1132D308BE08E9FF0011124E75CF14F0180F2815A
S1132D40E02DFF83EE832681378139872887A6818A
S1132D50B78115961C930E93149717830683EA8DF7
S1132D608E9FF0011124E75CF14FFD87EC87808191
S1132D708F5F808381E005C080E003C080E001C0F4
S1132D8080E0DF91CF911F910F9108950F931F93CE
S1132D90CF93DF93FC01892B09F45AC085A58617CC
S1132DA008F4862F928D981709F452C026A5213075
S1132DB009F04EC0828F46855785608971897723D3
S1132DC064F04AE050E060E070E0481B510961099A
S1132DD0710946875787608B718B2BE0929FC001E6
S1132DE01124875C914F248535852817390781F58F
S1132DF0EF018F010E5F1F4FC8010E94C00AEA8DC8
S1132E008091F70D8E1710F4E093F70D8BE08E9FF1
S1132E10F0011124E75CF14F0180F281E02DFF8382
S1132E20EE832681378139872887A681B781159655
S1132E301C930E93149717830683EA8D8E9FF001DB
S1132E401124E75CF14FFD87EC8780818F5F8083DD
S1132E50DF91CF911F910F9108958091A70E9091CA
S1132E60A80E892B39F0E091A70EF091A80E86A543
S1132E708F5F86A78091A70E9091A80E0895CF9298
S1132E80DF92EF92FF920F931F93FC0142835383CF
S1132E90648375839387828704171507260737078A
S1132EA0C0F00C191D092E093F0986859785A08954
S1132EB0B189081719072A073B0700F5BF016E5FA0
S1132EC07F4F8091B10E9091B20E0E94830A80E0F0
S1132ED018C00C151D052E053F0528F44C155D057D
S1132EE06E057F0568F4BF016E5F7F4F8091B30E5E
S1132EF09091B40E0E94830A80E003C081E001C077
S1132F0081E01F910F91FF90EF90DF90CF90089593
S1132F100FB6F8940F928091AF0E9091B00E892B5A
S1132F20E9F480EC9EE00E946E0A85EB9EE00E942C
S1132F306E0A80EC9EE09093B40E8093B30E85EB02
S1132F409EE09093B20E8093B10E40E067E08AE079
S1132F500E94130D9093B00E8093AF0E0F900FBE8E
S1132F600895EF92FF920F93D3DF8091AF0E90916B
S1132F70B00E892B89F00F2EFDEAEF2EFEE0FF2E16
S1132F80F02D03E020E030E040EC50E069ED73E028
S1132F9088E491E07DD801C080E00F91FF90EF902C
S1132FA008958F929F92AF92BF92CF92DF92EF9249
S1132FB0FF920F931F93CF93DF93CDB7DEB727977D
S1132FC00FB6F894DEBF0FBECDBFE091AF0EF09107
S1132FD0B00E309781F169832A833B834C835D83F0
S1132FE09F838E836630F4F4E1DD823069F400E07F
S1132FF0A7019601BE016F5F7F4F8091AF0E909144
S1133000B00E0E94340D18C000E020E030E0A901A9
S1133010BE016F5F7F4F8091AF0E9091B00E0E9402
S1133020340D0AC020E0A801BE016F5F7F4FCF01BD
S11330300E94D00D01C080E027960FB6F894DEBF41
S11330400FBECDBFDF91CF911F910F91FF90EF90F5
S1133050DF90CF90BF90AF909F908F9008952F9264
S11330603F924F925F926F927F928F929F92AF9214
S1133070BF92CF92DF92EF92FF920F931F93CF9361
S1133080DF931C016ED92B013C018091A90E909114
S1133090AA0EA091AB0EB091AC0E481659066A0662
S11330A07B0608F053C03BC00780F085E02D80808C
S11330B09180A280B380C085D1858E010E5F1F4FA1
S11330C0C8010E94C00AEC89FD89CE0119958E8938
S11330D082FF25C08E859F85A889B989880D991D91
S11330E0AA1DBB1D88169906AA06BB0670F48A831E
S11330F09B83AC83BD83DB87CA87B8018091B30E01
S11331009091B40E0E94830A0AC0C12CD12C76017E
S113311000E010E0A501940160E0CE0142DFE091FF
S1133120B30EF091B40E80818111BECF8091B10EA7
S11331309091B20E9093B40E8093B30EF093B20EAE
S1133140E093B10E81E0F101808302C0F1011082AD
S11331504092A90E5092AA0E6092AB0E7092AC0EE1
S1133160C301B201DF91CF911F910F91FF90EF90B6
S1133170DF90CF90BF90AF909F908F907F906F9093
S11331805F904F903F902F9008950895279A2F9A1B
S113319008951F9A0895FADF2FEF80E792E02150F7
S11331A080409040E1F700C00000F3DFF5CFEEDF90
S11331B02FEF87EA91E6215080409040E1F700C06C
S11331C00000E7DFF5CF81B18FEF81B992B181E0E3
S11331D0892782B992B182E0892782B992B184E0C9
S11331E0892782B992B188E0892782B992B180E1B6
S11331F0892782B992B180E2892782B992B180E4A9
S1133200892782B982B1805882B980E00E949021D6
S113321083E090E069D4A9C30895D5DF81EE93E0FB
S11332200E941D290E944208FFCF5058BB27AA279D
S11332300ED04DC13ED130F043D120F031F49F3F48
S113324011F41EF433C10EF4E095E7FB29C1E92F14
S11332504FD180F3BA17620773078407950718F0F4
S113326071F49EF567C10EF4E0950B2EBA2FA02DD4
S11332700B01B90190010C01CA01A0011124FF271F
S1133280591B99F0593F50F4503E68F11A16F0401A
S1133290A22F232F342F4427585FF3CF4695379519
S11332A02795A795F0405395C9F77EF41F16BA0BDE
S11332B0620B730B840BBAF09150A1F0FF0FBB1F8C
S11332C0661F771F881FC2F70EC0BA0F621F731FD5
S11332D0841F48F4879577956795B795F7959E3F32
S11332E008F0B3CF9395880F08F09927EE0F9795C0
S11332F0879508950CD0EBC0E3D040F0DAD030F0DD
S113330021F45F3F19F0CCC0511115C1CFC0F0D0EA
S113331098F39923C9F35523B1F3951B550BBB2798
S1133320AA2762177307840738F09F5F5F4F220F45
S1133330331F441FAA1FA9F333D00E2E3AF0E0E83E
S113334030D091505040E695001CCAF729D0FE2F8A
S113335027D0660F771F881FBB1F2617370748071C
S1133360AB07B0E809F0BB0B802DBF01FF279358D2
S11333705F4F2AF09E3F510568F092C0DCC05F3F6A
S1133380ECF3983EDCF3869577956795B795F795BA
S11333909F5FC9F7880F911D9695879597F90895B2
S11333A0E1E0660F771F881FBB1F6217730784074E
S11333B0BA0720F0621B730B840BBA0BEE1F88F75D
S11333C0E095089504D06894B111B5C0089598D0DB
S11333D088F09F5790F0B92F9927B751A0F0D1F0FA
S11333E0660F771F881F991F1AF0BA95C9F712C084
S11333F0B13081F09FD0B1E008959CC0672F782F41
S11334008827B85F39F0B93FCCF3869577956795EF
S1133410B395D9F73EF490958095709561957F4F5B
S11334208F4F9F4F0895E89409C097FB3EF4909501
S11334308095709561957F4F8F4F9F4F9923A9F089
S1133440F92F96E9BB279395F69587957795679518
S1133450B795F111F8CFFAF4BB0F11F460FF1BC05C
S11334606F5F7F4F8F4F9F4F16C0882311F096E9EF
S113347011C0772321F09EE8872F762F05C066239D
S113348071F096E8862F70E060E02AF09A95660F56
S1133490771F881FDAF7880F9695879597F908950F
S11334A097F99F6780E870E060E008959FEF80ECF3
S11334B0089500240A941616170618060906089596
S11334C000240A9412161306140605060895092EFC
S11334D00394000C11F4882352F0BB0F40F4BF2B6B
S11334E011F460FF04C06F5F7F4F8F4F9F4F0895AB
S11334F057FD9058440F551F59F05F3F71F04795A1
S1133500880F97FB991F61F09F3F79F08795089585
S1133510121613061406551FF2CF4695F1DF08C0A4
S1133520161617061806991FF1CF869571056105C1
S113353008940895E894BB2766277727CB0197F969
S113354008950BD0C4CFB5DF28F0BADF18F0952367
S113355009F0A6CFABCF1124EECFCADFA0F3959F1D
S1133560D1F3950F50E0551F629FF001729FBB2766
S1133570F00DB11D639FAA27F00DB11DAA1F649F12
S11335806627B00DA11D661F829F2227B00DA11DC5
S1133590621F739FB00DA11D621F839FA00D611D4B
S11335A0221F749F3327A00D611D231F849F600D6C
S11335B0211D822F762F6A2F11249F5750408AF0A5
S11335C0E1F088234AF0EE0FFF1FBB1F661F771F31
S11335D0881F91505040A9F79E3F510570F060CF6D
S11335E0AACF5F3FECF3983EDCF386957795679519
S11335F0B795F795E7959F5FC1F7FE2B880F911D4F
S11336009695879597F9089581B38F6081BB289823
S1133610289A21B381E090E00090FB0E02C0880F4D
S1133620991F0A94E2F78095822381BBE091CB0E27
S1133630F091CC0E309709F0199508959FB7F8943E
S1133640E7EFFEE010828EE981838AE08283838340
S11336509FBF0895BF92CF92DF92EF92FF920F9394
S11336601F93CF93DF936B017C01B42E1092CE0E87
S113367083E0841778F1642F70E080E090E0D3DE7B
S11336809B01AC0160E070E080E291E40E94E325DC
S1133690A701960156DF20E030E040E05FE3C6DD9D
S11336A00E948E258FDEAB01772364F444275527CF
S11336B0461B570B21E0483E83E058070CF420E0FA
S11336C011E00CC021E0403187E258070CF420E0FF
S11336D010E004C040E050E021E010E00FB7F8949F
S11336E0222311F0ABDF51C0CBEFDEE00F2EF7EF5A
S11336F0CF2EFEE0DF2EF02D0F2EFAE0EF2EF12C70
S1133700F02DCA01B7010E945127FC01EC50FC4F77
S113371080818A93462F572FCC15DD0591F743E01E
S113372050E04B19510914161506F4F48091F70E64
S11337308C3F49F060E019C0FC01E950F14F308141
S11337403C3F21F012C080E090E020E0FC01E95011
S1133750F14F1082622F2F5F822F022E000C990BE3
S1133760841795074CF301C060E0112331F0E62F74
S1133770F0E0E950F14F82E08083BB2031F0FA01A0
S1133780E950F14F8081816080830FBFDF91CF9139
S11337901F910F91FF90EF90DF90CF90BF9008950D
S11337A085B5856085BD089585B5887F85BD81B360
S11337B08F6081BB08958F92AF92CF92EF920F9357
S11337C01F93CF93DF93EC0180B38F6080BB81B3F1
S11337D08F6081BB209A84E09BE19F938F93812C1F
S11337E0A12CC12CE12C00E010E020E240E063E0D9
S11337F080E1F8D59093FD0E8093FC0E89E187BD9E
S113380084B5826084BDEEE6F0E0808182608083CE
S1133810CBDFD093CC0EC093CB0E0F900F90DF91E3
S1133820CF911F910F91EF90CF90AF908F9008950B
S11338301F920F920FB60F9211240BB60F922F9373
S11338403F934F935F936F937F938F939F93AF9324
S1133850BF93EF93FF938091CE0E882369F120915B
S1133860CF0E3091D00E253F91E0390738F42F5F09
S11338703F4F3093D00E2093CF0E1EC01092D00E27
S11338801092CF0EE091CD0E2E2F30E090E00497F1
S11338902817390714F4EF5F01C0E0E0E093CD0E80
S11338A0F0E0EF52F14FA7EFBEE02BEF3EE0819145
S11338B08D93A217B307D9F78091FB0E90E0019680
S11338C083709078992324F401978C6F9F6F0196ED
S11338D08093FB0E9927FC01E950F14F60816095BC
S11338E08091FC0E9091FD0E4FD6FF91EF91BF9108
S11338F0AF919F918F917F916F915F914F913F9184
S11339002F910F900BBE0F900FBE0F901F90189524
S11339106530F1F4FA0180818F7390E0982F882745
S11339202181822B90930A02809309028281F0E420
S11339308F9FC0011124FA01238126952695822B9D
S1133940909308028093070281E08093FE0E08950D
S1133950643051F080E090E4909308028093070271
S113396090930A028093090208950F931F9308E825
S11339701CE120E034E244EF50E060E087E225D728
S11339809093000F8093FF0E21E0892B09F020E033
S1133990822F1F910F9108958091FF0E9091000F37
S11339A0009751F040E060E070E060D7843031F47B
S11339B01092FE0E80E0089582E0089583E0089559
S11339C08091FF0E9091000F009731F064E09AD738
S11339D0853021F083E0089582E0089580E0089521
S11339E06091090270910A0280E090E01CDD20E001
S11339F030E048EC52E4A5DD20E038EF4FE756E430
S1133A0079CC0895609107027091080280E090E0FB
S1133A100ADD20E030E045E253E493DD20E038EFB6
S1133A204FE756E467DC20E030E040E252E4FDCBAF
S1133A3008958091040F860F8093040F9091070FCF
S1133A40913079F028F09230A9F0933019F108956B
S1133A506F3F09F048C01092040F81E08093070F74
S1133A600895663809F03FC01092030F82E08093F6
S1133A70070F0895E091030F81E08E0F8093030FE9
S1133A80F0E0EF5FF04F6083823069F583E080936C
S1133A90070F08959091030F21E0290F2093030F3E
S1133AA0963009F581110EC0E1E0FFE0808190E0DD
S1133AB0982F88272181820F911D9093090F80935D
S1133AC0080F04C01092090F1092080F1092070FEC
S1133AD0E091050FF091060F309729F08091080FBF
S1133AE09091090F199508958F929F92AF92CF925A
S1133AF0EF920F930F2EF9E18F2EFDE19F2EF02D03
S1133B006894AA24A4F86894CC24C4F8E12C00E0B6
S1133B1023E040E855E260E070E04BD090930B0F57
S1133B2080930A0F0F91EF90CF90AF909F908F905A
S1133B300895CF93DF93CDB7DEB729970FB6F894E6
S1133B40DEBF0FBECDBF89E0E2E2F2E09E012F5F4F
S1133B503F4FD90101900D928A95E1F71092090F18
S1133B601092080F80910A0F90910B0F009731F07B
S1133B70422F532F69E0E9D080E001C082E029960A
S1133B800FB6F894DEBF0FBECDBFDF91CF9108957D
S1133B902091080F3091090F2115310529F4FC01FA
S1133BA01182108281E00895FC013183208380E03A
S1133BB008952F923F924F925F926F927F928F92CD
S1133BC09F92AF92CF92EF92FF920F931F93CF9356
S1133BD0DF93CDB7DEB7F82E2A013B0188E090E0F1
S1133BE00E94D5278C018F2D90E0FC01EE0FFF1F62
S1133BF0E45FF04F118300830115110509F468C0D7
S1133C00880F991FFC01E55FFD4F80819181D801E8
S1133C108D939C936C2D70E084E090E00E94BB2710
S1133C201C0161E070E086E090E00E94BB277C010B
S1133C304C2DB10157D7F801F582E4826A2D70E06A
S1133C4084E090E00E94BB271C0161E070E086E004
S1133C5090E00E94BB277C014A2DB10143D7D801D3
S1133C601396FC92EE92129717969C928E92169748
S1133C70FFB6F894ED91FC9111973697808182609C
S1133C8080838D909C90C301B201CDDB20E030E0B5
S1133C9040E051E456DC9B01AC0160E074E284E74F
S1133CA09BE428DB20E030E040E85FE3BEDA8FDB12
S1133CB0F40132976083D801ED91FC911197359707
S1133CC088E98083ED91FC91349786E08083FFBE80
S1133CD0C801DF91CF911F910F91FF90EF90CF908A
S1133CE0AF909F908F907F906F905F904F903F9098
S1133CF02F900895CF93DF93DC01892B01F1129665
S1133D00ED91FC911397938182812581981B9223D5
S1133D1084819817B1F0838126952823C081D181AD
S1133D20C20FD11D68838F5F958189238383ED91B1
S1133D30FC91359780818062808380E003C081E0BC
S1133D4001C082E0DF91CF910895EF92FF920F932B
S1133D501F93CF93DF937C01009709F441C0DC01EA
S1133D601296ED91FC91139793818281981B858122
S1133D7098238481891B8617A8F1662341F1842F37
S1133D80952FDC016150462F50E04F5F5F4F480F85
S1133D90591FE701EA81FB81938182812581981B68
S1133DA092238481981779F08C9193812695292305
S1133DB0608171818B01020F111DE80188839F5F6F
S1133DC08581982393831196A417B50711F7D7011A
S1133DD0ED91FC91359780818062808380E003C0FF
S1133DE081E001C082E0DF91CF911F910F91FF909C
S1133DF0EF9008950097D1F0DC011496ED91FC91B9
S1133E00159793818281981799F09281858186957F
S1133E108923A081B181A80FB11D8C91DB018C9302
S1133E209F5F85819823928380E0089581E00895BF
S1133E3083E008951F920F920FB60F9211240BB6D0
S1133E400F922F933F934F935F936F937F938F932F
S1133E509F93AF93BF93CF93DF93EF93FF93A0917F
S1133E600C0FB0910D0F109711F16091C6001496CC
S1133E70ED91FC911597938182812581981B922362
S1133E808481981761F0838126952823C081D1818C
S1133E90C20FD11D68838F5F958189238383169612
S1133EA0ED91FC911797309711F0CD011995FF9181
S1133EB0EF91DF91CF91BF91AF919F918F917F91BE
S1133EC06F915F914F913F912F910F900BBE0F9087
S1133ED00FBE0F901F9018951F920F920FB60F925E
S1133EE011240BB60F922F938F939F93AF93BF938D
S1133EF0EF93FF93E0910C0FF0910D0F3097B9F011
S1133F000280F381E02D938182819817B1F0928130
S1133F108581282F26952923A081B181A20FB11D67
S1133F202C919F5F892382832093C6000BC0E1EC10
S1133F30F0E080818F7D808305C0E1ECF0E080813A
S1133F408F7D8083FF91EF91BF91AF919F918F916E
S1133F502F910F900BBE0F900FBE0F901F901895CE
S1133F601F920F920FB60F9211240BB60F922F933C
S1133F703F934F935F936F937F938F939F93AF93ED
S1133F80BF93CF93DF93EF93FF93A0910E0FB09164
S1133F900F0F109711F16091CE001496ED91FC91E2
S1133FA01597938182812581981B92238481981788
S1133FB061F0838126952823C081D181C20FD11D50
S1133FC068838F5F9581892383831696ED91FC9195
S1133FD01797309711F0CD011995FF91EF91DF916B
S1133FE0CF91BF91AF919F918F917F916F915F918D
S1133FF04F913F912F910F900BBE0F900FBE0F90DA
S11340001F9018951F920F920FB60F9211240BB6A2
S11340100F922F938F939F93AF93BF93EF93FF933D
S1134020E0910E0FF0910F0F3097B9F00280F381F9
S1134030E02D938182819817B1F092818581282F98
S113404026952923A081B181A20FB11D2C919F5FD8
S1134050892382832093CE000BC0E9ECF0E08081B9
S11340608F7D808305C0E9ECF0E080818F7D8083C3
S1134070FF91EF91BF91AF919F918F912F910F90ED
S11340800BBE0F900FBE0F901F9018951F920F92AA
S11340900FB60F9211240BB60F922F933F934F93A9
S11340A05F936F937F938F939F93AF93BF93CF93BC
S11340B0DF93EF93FF93A091100FB091110F10971E
S11340C011F16091D6001496ED91FC9115979381AE
S11340D082812581981B92238481981761F08381C2
S11340E026952823C081D181C20FD11D68838F5F9B
S11340F09581892383831696ED91FC9117973097C8
S113410011F0CD011995FF91EF91DF91CF91BF91FE
S1134110AF919F918F917F916F915F914F913F915B
S11341202F910F900BBE0F900FBE0F901F901895FC
S11341301F920F920FB60F9211240BB60F922F936A
S11341408F939F93AF93BF93EF93FF93E091100FDF
S1134150F091110F3097B9F00280F381E02D938133
S113416082819817B1F092818581282F2695292381
S1134170A081B181A20FB11D2C919F5F89238283FD
S11341802093D6000BC0E1EDF0E080818F7D808329
S113419005C0E1EDF0E080818F7D8083FF91EF9198
S11341A0BF91AF919F918F912F910F900BBE0F9064
S11341B00FBE0F901F9018951F920F920FB60F927B
S11341C011240BB60F922F933F934F935F936F93EA
S11341D07F938F939F93AF93BF93CF93DF93EF938B
S11341E0FF93A091120FB091130F109711F16091EA
S11341F036011496ED91FC91159793818281258166
S1134200981B92238481981761F083812695282333
S1134210C081D181C20FD11D68838F5F95818923AD
S113422083831696ED91FC911797309711F0CD0189
S11342301995FF91EF91DF91CF91BF91AF919F912C
S11342408F917F916F915F914F913F912F910F903B
S11342500BBE0F900FBE0F901F9018951F920F92D8
S11342600FB60F9211240BB60F922F938F939F9337
S1134270AF93BF93EF93FF93E091120FF091130F5D
S11342803097B9F00280F381E02D938182819817F1
S1134290B1F092818581282F26952923A081B181AF
S11342A0A20FB11D2C919F5F892382832093360135
S11342B00BC0E1E3F1E080818F7D808305C0E1E301
S11342C0F1E080818F7D8083FF91EF91BF91AF9169
S11342D09F918F912F910F900BBE0F900FBE0F9057
S11342E01F901895CF93DF931F92CDB7DEB7BE0111
S11342F06F5F7F4F8091140F9091150F7BDD8111BB
S1134300F6CF898190E00F90DF91CF910895682FC7
S11343108091140F9091150FEDDC80E090E00895EA
S11343208F929F92AF92CF92EF920F93812C912C08
S11343306894AA24A7F86894CC24C7F8E12C00E078
S113434023E040E051EE60E070E033DC9093150F21
S11343508093140FE2E4FFE083E192E09183808391
S1134360938382830F91EF90CF90AF909F908F9023
S11343700895E091170FF091180F3097F9F0A0818C
S1134380B1811097D9F02381213069F44C9121E057
S113439030E0028002C0220F331F0A94E2F7209516
S11343A024232C930BC04C9121E030E0028002C006
S11343B0220F331F0A94E2F7242B2C939093180FA7
S11343C08093170F009769F01092190F2CB52F7373
S11343D02CBDFC0124812CBD85818DBD8CB58064F0
S11343E08CBD08954F925F926F927F928F929F92AD
S11343F0AF92BF92CF92DF92EF92FF920F931F93EF
S1134400CF93DF93CDB7DEB7982EB62ED42EF22EEF
S11344108091160F811106C084B1876084B981E050
S11344208093160F8CE090E0C0D53C01DC0111961E
S11344301C930E931296EC9212971396CC921397A8
S11344408D2D880F880FF82AEB2DF0E0EC5FFB4FE1
S11344508081982A8F2D892914968C93B3E0BB15FB
S113446018F481E0F3018583A11006C0D3011996E5
S11344701C921E92189712C06A2D70E084E090E09E
S11344807AD52C0161E070E086E090E074D56C018F
S11344904A2DB20127D3F301D186C086811006C00C
S11344A0D30117961C921E92169712C0682D70E0C5
S11344B084E090E060D55C0161E070E086E090E02B
S11344C05AD56C01482DB5010DD3F301D782C682AC
S11344D08C899D89D3011B969C938E931A97011501
S11344E0110559F0F801229181E090E002C0880F93
S11344F0991FEA94E2F7822B80832FB7F8944091B6
S1134500170F5091180F7092180F6092170FD30164
S1134510ED91FC911197309701F113968C911397BB
S1134520813071F4308181E090E012960C9002C0E9
S1134530880F991F0A94E2F78095832380830DC026
S1134540308181E090E0D30112960C9002C0880F74
S1134550991F0A94E2F7832B80835093180F40939A
S1134560170F2FBFC301DF91CF911F910F91FF90C0
S1134570EF90DF90CF90BF90AF909F908F907F90FF
S11345806F905F904F9008951F93CF93DF930097A0
S113459009F46AC0162FEC018091170F9091180F3F
S11345A0C817D90711F0CE01E4DE8FB72FB7F894FE
S11345B08091190F811131C081E08093190FA0916E
S11345C0170FB091180FED91FC9111973097F9F0F6
S11345D013968C911397813069F4308181E090E0D7
S11345E012960C9002C0880F991F0A94E2F7832B4D
S11345F080830DC0308181E090E012960C9002C05F
S1134600880F991F0A94E2F78095832380838CB5E1
S113461080688CBD1EBD80E025C0EE81FF8130978F
S1134620E1F03481838142819581841B8923381789
S1134630B1F083814281841B8923381791F08381EF
S113464096959823A081B181A90FB11D1C938F5F0A
S113465095818923838380E005C082E003C081E0E3
S113466001C080E02FBF01C083E0DF91CF911F9193
S113467008951F920F920FB60F9211240BB60F924A
S11346802F933F934F935F936F937F938F939F9356
S1134690AF93BF93CF93DF93EF93FF936EB5A09146
S11346A0170FB091180F1896ED91FC911997309748
S11346B0A1F0838122819581821B89232481821721
S11346C061F0838196959823C081D181C90FD11D52
S11346D068838F5F9581892383831696ED91FC917E
S11346E01797309799F093818281981779F0928186
S11346F08581282F26952923A081B181A20FB11D80
S11347002C919F5F892382832EBD2DC08CB58F771A
S11347108CBD1092190FA091170FB091180FED9145
S1134720FC9111973097F9F013968C91139781307F
S113473071F4208181E090E012960C9002C0880F01
S1134740991F0A94E2F78095822380830CC020810C
S113475081E090E012960C9002C0880F991F0A9491
S1134760E2F7822B80838091170F9091180FDC0160
S11347701A96ED91FC911B97309709F01995FF91CA
S1134780EF91DF91CF91BF91AF919F918F917F91E5
S11347906F915F914F913F912F910F900BBE0F90AE
S11347A00FBE0F901F9018958091280F81110CC097
S11347B08CE08093B8008FEF8093BB0084E08093FB
S11347C0BC0081E08093280F0895AF92BF92CF92EE
S11347D0DF92EF92FF920F931F93CF93DF93A82E54
S11347E0B62E69017A0184E090E0DFD3EC01892BD5
S11347F061F1A88281E0B81212C0C701B60120EAB3
S113480036E841E050E060D3DA01C9014097A109DC
S1134810B109B695A79597958795898311C0C70166
S1134820B60120E83AE146E050E04ED3DA01C9018E
S11348304097A109B109B695A7959795879589835E
S11348401B830A838C2F9D2F02C080E090E0DF91B0
S1134850CF911F910F91FF90EF90DF90CF90BF9079
S1134860AF9008958091BC0081700895FF920F93DA
S11348701F93CF93DF930097D1F14A30D0F5F42EF4
S11348808B01EC01EFDF811136C080911B0F9091F9
S11348901C0FC817D90741F087DF89818093B800BE
S11348A0D0931C0FC0931B0F81E08F0D80931D0FBD
S11348B08881880F80931E0FFF2089F0F801AFE1F3
S11348C0BFE04FEF4F0D642F70E0CB010196B801AC
S11348D0680F791F81918D93E617F707D9F788EF51
S11348E08093210285EA8093BC0084E005C086E0C1
S11348F003C087E001C082E0DF91CF911F910F9147
S1134900FF9008951F93CF93DF93009729F16B30A5
S113491028F5162FEC01A6DF811122C080911B0F10
S113492090911C0FC817D90741F03EDF898180930D
S1134930B800D0931C0FC0931B0F10931D0F8881D8
S1134940880F816080931E0F88EF8093210285EA8F
S11349508093BC0085E005C086E003C087E001C009
S113496082E0DF91CF911F9108951F920F920FB6AD
S11349700F9211240BB60F922F933F934F935F9393
S11349806F937F938F939F93AF93BF93EF93FF9313
S1134990E091B9008E2F90E0FC013897E135F105E4
S11349A008F075C08827E458FF4F8F4FAFC21092AC
S11349B01A0FE0911A0F80911D0FE81770F481E02F
S11349C08E0F80931A0FF0E0E25EF04F80818093A7
S11349D0BB0085E88093BC0072C084E98093BC006E
S11349E080911B0F90911C0FDC011296ED91FC91AC
S11349F01397309709F463C020E040E050E064E08E
S1134A0019955DC0E0911A0F81E08E0F80931A0F03
S1134A108091BB00F0E0E25EF04F80838091B900AA
S1134A20803411F410921A0F20911A0F30E0809103
S1134A301D0F90E001972817390724F485EC809323
S1134A40BC003DC085E88093BC0039C08091BB00A8
S1134A50E0911A0FF0E0E25EF04F808384E98093E6
S1134A60BC0080911B0F90911C0FDC011296ED91FC
S1134A70FC911397309719F120911D0F4EE15FE0DF
S1134A8065E019951CC085EA8093BC0018C080912C
S1134A90B9008093210284E08093BC0080911B0FB5
S1134AA090911C0FDC011296ED91FC9113973097B5
S1134AB031F020E040E050E0609121021995FF912F
S1134AC0EF91BF91AF919F918F917F916F915F9182
S1134AD04F913F912F910F900BBE0F900FBE0F90EF
S1134AE01F901895FC01411101C080D3842F90E0E0
S1134AF09C012150310982239323892B09F076D319
S1134B00413808F073D3128213824483440F415016
S1134B1045837183608380E090E008953CD088F001
S1134B209F3748F4911116F00C949B1A60E070E0E2
S1134B3080E89FEB089526F41B16611D711D811DED
S1134B4001C01BC0882371F4772321F09850872B70
S1134B50762F07C0662311F499270DC09051862B38
S1134B6070E060E02AF09A95660F771F881FDAF7E5
S1134B70880F9695879597F908959F3F31F0915046
S1134B8020F4879577956795B795880F911D96952D
S1134B90879597F908950E94801AA0F0BEE7B91787
S1134BA088F4BB279F3860F41616B11D672F782F41
S1134BB08827985FF7CF869577956795B11D93956C
S1134BC09639C8F30895FA01EE0FFF1F30962105B8
S1134BD03105A1F16115710561F48038BFE39B07CC
S1134BE049F168949038810561F08038BFEF9B07E4
S1134BF041F099234AF5FF3FE1053105210519F1FB
S1134C00E8940894E795D901AA2329F4AB2FBE2F81
S1134C10F85FD0F310C0FF5F70F4A695E0F7F739A2
S1134C2050F019F0FF3A38F49F779F930DD00F900E
S1134C3007FC9058089546F00C94561A60E070E012
S1134C4080E89FE308954FE79F775F934F933F93E7
S1134C502F93ACD02F913F914F915F910E94A11A55
S1134C6008C029F416F00C94501A0C949A1A0C9457
S1134C70561A0E94801AA8F39638A0F707F80F92E4
S1134C80E8942BE33AEA48EB5FE70E94AF1A0F92ED
S1134C900F920F924DB75EB70F92CFD0EAE9F1E0D1
S1134CA016D04F915F91EF91FF91E595EE1FFF1F95
S1134CB049F0FE57E0684427EE0F441FFA95E1F7E8
S1134CC04195550B36D00F9007FE28C00895DF9309
S1134CD0CF931F930F93FF92EF92DF927B018C018E
S1134CE0689406C0DA2EEF010E94AD1AFE01E89422
S1134CF0A5912591359145915591A6F3EF010E9417
S1134D002719FE019701A801DA9469F7DF90EF9063
S1134D10FF900F911F91CF91DF9108959B01AC01FA
S1134D2060E070E080E89FE30C947A190C94501AC8
S1134D3024CF0E94801AE0F39923D1F3940F511DDC
S1134D40ABF39150504094F059F0882332F0660F41
S1134D50771F881F91505040C1F79E3F510534F78B
S1134D60880F911D9695879597F908955F3FACF04C
S1134D70983E9CF0BB27869577956795B79508F480
S1134D80B1609395C1F7BB0F58F711F460FFE8CFFA
S1134D906F5F7F4F8F4F9F4FE3CF0C949B1A0EF0A2
S1134DA0ECCE0C94561A68940C94501A0E94801AF3
S1134DB0B0F39923C1F3AEF3DF93CF931F930F9313
S1134DC0FF92C92FDD2788232AF02197660F771FCA
S1134DD0881FDAF720E030E040E85FEB9FE3883992
S1134DE020F0803E38F021968F770E941619E2EC6D
S1134DF0F1E004C00E941619EFEEF1E068DF8B01C8
S1134E00BE01EC01FB2E6F5771097595771F880B56
S1134E10990B0E94151A28E132E741E35FE30E94EF
S1134E20AD1AAF2D9801AE01FF900F911F91CF9154
S1134E30DF910E9427190C94671AFA01DC01AA0F6A
S1134E40BB1F9B01AC01BF5728F4222733274427FB
S1134E50507820C0B75190F4AB2F00244695379575
S1134E602795011CA395D2F3002071F0220F331F64
S1134E70441FB395DAF30ED00C9415196130710503
S1134E80A0E88A07B94630F49B01AC01662777276E
S1134E9088279078309621F020833183428353838E
S1134EA0089597FB072E16F4009406D077FD08D0DA
S1134EB03FD007FC05D03EF4909581959F4F08950F
S1134EC0709561957F4F0895A1E21A2EAA1BBB1B12
S1134ED0FD010DC0AA1FBB1FEE1FFF1FA217B307C2
S1134EE0E407F50720F0A21BB30BE40BF50B661FD8
S1134EF0771F881F991F1A9469F76095709580959C
S1134F0090959B01AC01BD01CF010895EE0FFF1FE9
S1134F10881F8BBF0790F691E02D19941DD0A59F93
S1134F20900DB49F900DA49F800D911D11240895A0
S1134F30AA1BBB1B51E107C0AA1FBB1FA617B707BB
S1134F4010F0A61BB70B881F991F5A95A9F78095D7
S1134F509095BC01CD010895A29FB001B39FC001FB
S1134F60A39F700D811D1124911DB29F700D811D91
S1134F701124911D08950F931F93CF93DF93869F60
S1134F808001879F100D969F100D1124C8010DD02C
S1134F90EC01009721F0A80160E070E034D1CE016B
S1134FA0DF91CF911F910F9108950F931F93CF938A
S1134FB0DF938230910510F482E090E0E091400F9D
S1134FC0F091410F20E030E0A0E0B0E0309719F11B
S1134FD0408151810281138148175907C8F0841711
S1134FE0950769F4109731F012960C931297139663
S1134FF01C9327C00093400F1093410F22C021152A
S1135000310519F04217530718F49A01BD01EF0155
S1135010DF01F801DBCF21153105F9F0281B390B2D
S11350202430310580F48A819B816115710521F05A
S1135030FB019383828304C09093410F8093400FBC
S1135040FE01329644C0FE01E20FF31F8193919357
S113505022503109398328833AC020913E0F309180
S11350603F0F232B41F4209102023091030230932D
S11350703F0F20933E0F2091000230910102211531
S1135080310541F42DB73EB7409104025091050219
S1135090241B350BE0913E0FF0913F0FE217F3070D
S11350A0A0F42E1B3F0B2817390778F0AC014E5F94
S11350B05F4F2417350748F04E0F5F1F50933F0F83
S11350C040933E0F8193919302C0E0E0F0E0CF0162
S11350D0DF91CF911F910F910895CF93DF930097A4
S11350E009F481C0FC01329713821282A091400F0F
S11350F0B091410F109781F420813181820F931F69
S113510020913E0F30913F0F2817390751F5F09346
S11351103F0FE0933E0F67C0ED0120E030E0CE1773
S1135120DF0740F44A815B819E0141155105F1F08E
S1135130EA01F5CFD383C28340815181840F951F47
S1135140C817D90759F488819981840F951F02964D
S1135150918380838A819B81938382832115310586
S113516029F4F093410FE093400F3DC0E901FB8324
S1135170EA8349915991C40FD51FEC17FD0761F4D7
S113518080819181840F951F0296E9019983888318
S1135190828193819B838A83E0E0F0E012968D9173
S11351A09C911397009719F0FD01DC01F7CF8D91C5
S11351B09C9111979D012E5F3F4F820F931F209169
S11351C03E0F30913F0F2817390769F4309729F4BF
S11351D01092410F1092400F02C013821282B093BA
S11351E03F0FA0933E0FDF91CF91089581E090E0AF
S11351F0F89400C3FB01DC0102C001900D92415000
S11352005040D8F70895DC0101C06D9341505040DF
S1135210E0F70895CF93DF93CDB7DEB7AE014A5FD1
S11352205F4FFA0161917191AF018091440F9091A8
S1135230450F33D0DF91CF9108950F931F93CF93F0
S1135240DF93E091440FF091450F238121FF1BC0B0
S11352508C01D0E0C0E0F80181918F016091440F8E
S11352607091450FDB011896ED91FC9119978823F5
S113527031F01995892B79F3DFEFCFEFECCF8AE08A
S11352801995892B19F08FEF9FEF02C08D2F9C2F5A
S1135290DF91CF911F910F9108952F923F924F92DA
S11352A05F926F927F928F929F92AF92BF92CF92B2
S11352B0DF92EF92FF920F931F93CF93DF93CDB7BB
S11352C0DEB72B970FB6F894DEBF0FBECDBF6C01CF
S11352D07B018A01FC0117821682838181FFBFC191
S11352E0CE0101963C01F6019381F70193FD85916E
S11352F093FF81917F01882309F4ADC1853239F48C
S113530093FD859193FF81917F01853221F4B6014C
S113531090E0D6D1E8CF912C212C312CFFE1F3156C
S1135320D8F08B3279F038F4803279F08332A1F4FA
S1135330232D20611DC08D3261F0803369F4232D4B
S1135340216016C0832D8260382EE32DE4603E2E4A
S11353502AC0F32DF8601DC037FC2DC020ED280FA6
S11353602A3040F08E32B9F436FC75C1232D206406
S1135370322E19C036FE06C08AE0989E200D1124F4
S1135380922E11C0EAE02E9E200D1124222EF32D20
S1135390F0623F2E08C08C3621F4832D8068382EAD
S11353A002C0883641F4F70193FD859193FF819102
S11353B07F018111B3CF982F9F7D9554933028F4AA
S11353C00C5F1F4F9FE399830DC0833631F0833701
S11353D071F0833509F055C020C0F80180818983BC
S11353E00E5F1F4F88248394912C530112C028010F
S11353F0F2E04F0E511CF801A080B18036FE03C0CC
S1135400692D70E002C06FEF7FEFC5014ED14C01F2
S11354108201F32DFF773F2E15C0280122E0420EB2
S1135420511CF801A080B18036FE03C0692D70E0E4
S113543002C06FEF7FEFC5012DD14C01F32DF06851
S11354403F2E820133FC19C0822D90E08816990604
S1135450A0F4B60180E290E033D12A94F5CFF501AF
S113546037FC859137FE81915F01B60190E028D128
S113547021102A9421E0821A91088114910479F769
S1135480E1C0843611F0893639F5F80137FE07C0DA
S113549060817181828193810C5F1F4F08C060819C
S11354A07181072E000C880B990B0E5F1F4FF32D93
S11354B0FF763F2E97FF09C0909580957095619572
S11354C07F4F8F4F9F4FF0683F2E2AE030E0A301BB
S11354D033D1882E861844C0853731F4232D2F7E8E
S11354E0B22E2AE030E025C0932D997FB92E8F3655
S11354F0C1F018F4883579F0AEC0803719F08837D8
S113550021F0A9C0E92FE061BE2EB4FE0DC0FB2D31
S1135510F460BF2E09C034FE0AC0292F2660B22EC3
S113552006C028E030E005C020E130E002C020E100
S113553032E0F801B7FE07C06081718182819381F6
S11355400C5F1F4F06C06081718180E090E00E5FA8
S11355501F4FA301F1D0882E8618FB2DFF773F2E15
S113556036FE0DC0232D2E7FA22E891458F434FE4E
S11355700BC032FC09C0832D8E7EA82E05C0B82C2A
S1135580A32C03C0B82C01C0B92CA4FE0FC0FE018B
S1135590E80DF11D8081803321F49A2D997EA92E86
S11355A009C0A2FE06C0B394B39404C08A2D8678C1
S11355B009F0B394A3FC10C0A0FE06C0B21480F49A
S11355C0280C922C9B180DC0B21458F4B60180E23A
S11355D090E076D0B394F8CFB21418F42B1802C02C
S11355E0982C212CA4FE0FC0B60180E390E068D073
S11355F0A2FE16C0A1FC03C088E790E002C088E5C3
S113560090E0B6010CC08A2D867851F0A1FE02C04C
S11356108BE201C080E2A7FC8DE2B60190E050D09D
S1135620891430F4B60180E390E04AD09A94F8CF1C
S11356308A94F301E80DF11D8081B60190E040D019
S11356408110F6CF222009F44ECEB60180E290E01C
S113565037D02A94F7CFF6018681978102C08FEF65
S11356609FEF2B960FB6F894DEBF0FBECDBFDF9130
S1135670CF911F910F91FF90EF90DF90CF90BF904B
S1135680AF909F908F907F906F905F904F903F90DE
S11356902F900895FC010590615070400110D8F7D7
S11356A0809590958E0F9F1F0895FC016150704066
S11356B001900110D8F7809590958E0F9F1F089543
S11356C00F931F93CF93DF93FB01238121FD03C02D
S11356D08FEF9FEF2CC022FF16C046815781248193
S11356E035814217530744F4A081B1819D012F5F96
S11356F03F4F318320838C93268137812F5F3F4F27
S11357003783268314C08B01EC01FB010084F185EF
S1135710E02D1995892BE1F6D80116968D919C916F
S11357201797019617969C938E931697CE01DF9147
S1135730CF911F910F910895FA01AA27283051F1B2
S1135740203181F1E8946F936E7F6E5F7F4F8F4FAE
S11357509F4FAF4FB1E03ED0B4E03CD0670F781F0D
S1135760891F9A1FA11D680F791F8A1F911DA11DF2
S11357706A0F711D811D911DA11D20D009F468942B
S11357803F912AE0269F11243019305D3193DEF6D3
S1135790CF010895462F4770405D4193B3E00FD089
S11357A0C9F7F6CF462F4F70405D4A3318F0495D74
S11357B031FD4052419302D0A9F7EACFB4E0A69557
S11357C09795879577956795BA95C9F70097610579
S11357D0710508959B01AC010A2E069457954795CF
S11357E037952795BA95C9F7620F731F841F951FC4
S10B57F0A01D0895F894FFCFF9
S11357F80000480F20000900400040C600CE00D633
S11358080036010000000300000000872172210017
S113581800F8FF0186000000000079FF0179A0006C
S1135828000000E6FF0179000000000086FF018700
S1135838000000000078FF01880000000000004319
S11358484F322073656E736F7220646F6573206EB8
S11358586F74204F4B00436172626F6E3A25642E59
S113586825640A00434F322073656E736F72207388
S113587874617274656421212100434F5854617323
S11358886B0054656D70657261747572652073651B
S11358986E736F72206469646E27742077616B6518
S11358A875702121210048756D696C6974792073BC
S11358B8656E736F72206469646E2774206D656108
S11358C8737572652121210048756D25642E256440
S11358D80048756D696C6974792073656E736F72AD
S11358E820737461727465642121210048756D53B5
S11358F8656E736F725461736B00372D7365676DD2
S1135908656E7420446973706C6179207374617274
S113591874656421212100372D7365676D656E7484
S113592820446973706C6179205461736B00546509
S11359386D70657261747572652073656E736F72CC
S1135948206469646E2774206D65617375726521BE
S113595821210074656D70657261747572653A25EC
S1135968642E25640054656D706572617475726582
S11359782073656E736F7220737461727465642129
S113598821210054656D7065726174757265536583
S11359986E736F725461736B004E6F772074696D08
S11359A86520636C6F636B20737461727465642122
S11359B82121004E6F7754696D65436C6F636B5496
S11359C861736B0049444C4500546D7220537663EF
S11359D80050726F6772616D2053746172746564EC
S11359E821212100FC60DAF266B6BEE0FEE6EE3E56
S10F59F81A7A9E8E0001020300010200D6
S9030000FC
