:1000000090C20000AFC20000ADC20000ABC2000051
:10001000A9C20000A7C20000A5C20000A3C2000040
:10002000A1C200009FC200009DC200009BC2000050
:100030000C94600B97C2000095C2000093C20000B0
:1000400091C200008FC200008DC200008BC2000070
:1000500089C200000C94062385C2000083C2000000
:100060000C949E2E0C947F2A0C94D12A7BC2000003
:1000700079C2000077C2000075C2000073C20000A0
:1000800071C200006FC200006DC200006BC20000B0
:100090000C94152B0C94672B65C200000C943A311C
:1000A00061C200005FC200005DC200005BC20000D0
:1000B00059C2000057C2000055C2000053C20000E0
:1000C00051C200004FC200004DC200000C94AB2B87
:1000D0000C94FD2B47C200000C94412C0C94932CE3
:1000E00041C20000070207020702410249025F0203
:1000F00007020702410249025C31CC31CC31CC31DC
:10010000CC31CC31CC31CC315C31CC31CC31CC3177
:10011000CC31CC31CC31CC315E31CC31CC31CC3165
:10012000CC31CC31CC31CC31CC31CC31CC31CC31E7
:10013000CC31CC31CC31CC315E31CC31CC31CC3145
:10014000CC31CC31CC31CC31CC31CC31CC31CC31C7
:10015000CC31CC31CC31CC31C831CC31CC31CC31BB
:10016000CC31CC31CC31CC319331CC31CC31CC31E0
:10017000CC31CC31CC31CC31CC31CC31CC31CC3197
:10018000CC31CC31CC31CC318731CC31CC31CC31CC
:10019000CC31CC31CC31CC31AB3107634236B79B5B
:1001A000D8A71A39685618AEBAAB558C1D3CB7CCD7
:1001B0005763BD6DEDFD753EF6177231BF0000004F
:1001C000803F08000000BE922449123EABAAAA2A32
:1001D000BECDCCCC4C3E00000080BEABAAAAAA3E4D
:1001E00000000000BF000000803F00000000000889
:1001F0004178D3BB4387D1133D190E3CC3BD428226
:10020000AD2B3E68EC8276BED98FE1A93E4C80EFE3
:10021000FFBE01C4FF7F3F000000000001E912E1C2
:100220000F2EF1ECEF2EF2E1FF2EF02D80919012C7
:10023000882329F10FB6F8940F92D8011796ED9103
:10024000FC911897C085D185CE0102960E94200AA4
:1002500080918412815080938412809190128150F9
:10026000809390120F900FBE8B8D9C8D0E949409ED
:10027000CE010E949409809190128111DBCFF70189
:100280008081823010F00E949A0A0E94561ECECFC2
:10029000CF93DF93CDB7DEB760970FB6F894DEBF8C
:1002A0000FBECDBFCE0101969A878987812C912CF4
:1002B000A12CB12C69847A84E0913B13F0913C131A
:1002C0008081882309F413C10780F085E02D208008
:1002D0003180428053800E944B14CE0101960E94CF
:1002E000BF1D6B877C878D879E878981811167C041
:1002F0008B859C85AD85BE8582159305A405B505C6
:1003000008F445C00E948F15E0913B13F0913C1317
:100310000780F085E02DA085B185B88BAF87CD0132
:1003200002960E94200AEF85F889868982FF21C003
:100330004685578560897189420D531D641D751D61
:10034000720161010B851C852D853E85CF010E94C0
:10035000CE1C882399F0C82CD92CEA2CFB2C00E069
:1003600010E0A201910160E08F8598890E94611DD3
:1003700005C08E7FAF85B88956968C93AF85B889B6
:100380005496ED91FC915597CD011995A1C020E0AF
:10039000B201A1018B859C85AD85BE85481B590B9B
:1003A0006A0B7B0B80913713909138130E94DC0EFF
:1003B0000E948F1581118CC00E949A0A89C00E94E8
:1003C0008F1586C0898188230CF482C04E805F809F
:1003D000D2011C968D919C911D97892B21F0C20111
:1003E00002960E94200ACE0108960E94BF1D8B0132
:1003F0009C01E9810E2E000CFF0BEA30F10508F09C
:1004000067C08827EE58FF4F8F4F0C947234F2016B
:1004100086898160868BCA80DB80EC80FD80468582
:100420005785608971894C0D5D1D6E1D7F1DC20150
:100430000E94CE1C882309F44BC0D2015496ED9142
:10044000FC915597C2011995F201868982FF40C03F
:100450004A815B816C817D8186859785A089B18980
:100460009A01AB01280F391F4A1F5B1FC82CD92CDA
:10047000EA2CFB2C00E010E060E0C2010E94611D4C
:1004800027C0D20156968C9156978E7F56968C93A4
:100490001FC0F20186898160868B4A815B816C81F5
:1004A0007D8146875787608B718B400F511F621F7C
:1004B000731F68017901C2010E94CE1C09C0F201BC
:1004C000868981FD03C0C2012FD702C08E7F868B33
:1004D000282D392D4A2D5B2D662D772D80913713D0
:1004E000909138130E94750D81116CCFE5CE0E945A
:1004F0004B14CE0101960E94BF1D6B877C878D87B0
:100500009E87898181115BCFE0913913F0913A1375
:10051000808121E0811120E0282C392C4A2C5B2C91
:1005200037CF11241FBECFEFD1E2DEBFCDBF00E039
:100530000CBF18E0A0E0B2E0EAECF2E700E00BBF8D
:1005400002C007900D92A439B107D9F725E1A4E9BB
:10055000B8E001C01D92AF37B207E1F70E94542006
:100560000C9463394DCD0F2EF8EECF2EF3E0DF2E35
:10057000E12CF12CF02DC4E080916015882321F04E
:100580008FE692E00E9458360E94F728809360150B
:100590008091631590916415EBD220E030E04AEF32
:1005A00053E40E948D210E94D3209B01AC01AEE355
:1005B000B0E00E947A34A70196010E945034CA012B
:1005C000B9010E94751682B18C2782B9809163159A
:1005D00090916415CDD220E030E04AEF53E40E94C0
:1005E0008D210E94D3209B01AC01AEE3B0E00E94BC
:1005F0007A34A70196010E945034CA01B9010E94C1
:10060000751682B18C2782B981E695E10E94262970
:1006100060916115709162158091631590916415D8
:1006200087D28091631590916415E7D2A5CFEF92A0
:10063000FF920F93909364158093631586E892E080
:100640000E945836E12CF12C01E021E030E040EC32
:1006500050E06CE972E083EB92E00E94D9120F91B6
:10066000FF90EF90089504EA12E00F2EF8EECF2EDF
:10067000F3E0DF2EE12CF12CF02D6894BB24B1F8CF
:10068000C8ECD2E00E94BC23882331F01F930F9363
:100690000E9445360F900F908091651590916615D8
:1006A00026D320E030E04AEF53E40E948D210E94DF
:1006B000D3209B01AC01AEE3B0E00E947A34A701E5
:1006C00096010E945034CA01B9010E94751682B188
:1006D0008B2582B90E94D123882331F0DF93CF93F9
:1006E0000E9445360F900F90809165159091661588
:1006F000FED220E030E04AEF53E40E948D210E94B8
:10070000D3209B01AC01AEE3B0E00E947A34A70194
:1007100096010E945034CA01B9010E94751682B137
:100720008B2582B90E94E223AB01BC01409394085F
:10073000509395086093960870939708809165157B
:1007400090916615ACD28091651590916615F4D2A2
:100750008091651590916615EFD280916515909105
:1007600066150FD38FCFEF92FF920F93909366157C
:10077000809365158AEE92E00E945836E12CF12CA8
:1007800001E021E030E040EC50E065E073E083E31D
:1007900093E00E94D9120F91FF90EF9008950F2ED1
:1007A000F4E68F2EF02D0F2EF8EECF2EF3E0DF2E95
:1007B000E12CF12CF02D6894992496F86894AA24E1
:1007C000A5F86894BB24B4F882B1805882B989D462
:1007D000EC018DD48C01CE018ED4809EB001819E1F
:1007E000700D1124860F971FBC01990F880B990B70
:1007F0000E94012120E030E048EC52E40E94662093
:1008000042E00E94162220E030E04AE754E4609182
:100810006715709168158091691590916A150E940D
:100820008D210E94D3209B01AC01AEE3B0E00E9479
:100830007A34A70196010E945034CA01B9010E947E
:10084000751682B1805882B982B1892582B99ED34A
:1008500036D342E00E94162220E030E04AE754E41A
:1008600060916715709168158091691590916A156E
:100870000E948D210E94D3209B01AC01AEE3B0E029
:100880000E947A34A70196010E945034CA01B9012E
:100890000E94751682B1892582B982B18A2582B9F2
:1008A0007AD34AD242E00E94162220E030E04AE7A2
:1008B00054E4609167157091681580916915909165
:1008C0006A150E948D210E94D3209B01AC01AEE3EA
:1008D000B0E00E947A34A70196010E945034CA0108
:1008E000B9010E94751682B18A2582B982B18B2521
:1008F00082B956D363D1BC01990F880B990B0E9422
:10090000012140E00E94162220E030E04AE754E452
:1009100060916715709168158091691590916A15BD
:100920000E948D210E94D3209B01AC01AEE3B0E078
:100930000E947A34A70196010E945034CA01B9017D
:100940000E94751682B18B2582B93ECFEF92FF923D
:100950000F93609367157093681580936915909352
:100960006A1580E090E00E94C8220E94BD2283E1C7
:1009700093E00E945836E12CF12C01E021E030E0B8
:1009800040EC50E060E373E08FEC93E00E94D912FA
:100990000F91FF90EF90089504EA12E00F2EF8EE09
:1009A000CF2EF3E0DF2EE12CF12CF02DBB24B394FD
:1009B000C7E4D3E00E94BC23882331F01F930F9338
:1009C0000E9445360F900F9080916B1590916C1599
:1009D00051D220E030E04AEF53E40E948D210E9482
:1009E000D3209B01AC01AEE3B0E00E947A34A701B2
:1009F00096010E945034CA01B9010E94751682B155
:100A00008B2582B90E94D123882331F0DF93CF93C5
:100A10000E9445360F900F9080916B1590916C1548
:100A200029D220E030E04AEF53E40E948D210E9459
:100A3000D3209B01AC01AEE3B0E00E947A34A70161
:100A400096010E945034CA01B9010E94751682B104
:100A50008B2582B90E94F423AB01BC014093980816
:100A60005093990860939A0870939B0880916B1536
:100A700090916C15D7D180916B1590916C151FD208
:100A800080916B1590916C151AD280916B15909195
:100A90006C153AD28FCFEF92FF920F9390936C1513
:100AA00080936B158CE693E00E945836E12CF12C74
:100AB00001E021E030E040EC50E06AE873E08CECCB
:100AC00094E00E94D9120F91FF90EF900895CF9279
:100AD000DF92EF92FF920F93CF93DF936B017C0134
:100AE00061E070E08AE090E00E94A734EC01892B7D
:100AF000B1F0C882D982EA82FB821D821C82B2D206
:100B00009987888743E060E081E0F0D69F838E83F9
:100B100000E020E030E0A90160E070E008D7CE01FD
:100B2000DF91CF910F91FF90EF90DF90CF900895DC
:100B30000F931F93CF93DF93EC018B014FEF5FEF88
:100B4000BA018E819F810E940E0E1D830C838885C1
:100B50009985A0D200E020E030E0A90160E070E0DB
:100B60008E819F81E4D6DF91CF911F910F910895DF
:100B7000CF92DF92EF92FF920F93CF93DF93EC012E
:100B80004FEF5FEFBA018E819F810E940E0EC880E9
:100B9000D980EA80FB8000E020E030E0A90160E03D
:100BA00070E08E819F81C3D6C701B601DF91CF91DE
:100BB0000F91FF90EF90DF90CF900895EF92FF920A
:100BC0000F93CF93DF93EC014FEF5FEFBA018E816C
:100BD0009F810E940E0EEC80FD8000E020E030E05E
:100BE000A90160E070E08E819F81A1D6C701DF91ED
:100BF000CF910F91FF90EF900895EF92FF920F9396
:100C0000CF93DF93EC014FEF5FEFBA018E819F81AD
:100C10000E940E0EE884F98400E020E030E0A90193
:100C200060E070E08E819F8182D6C701DF91CF9115
:100C30000F91FF90EF900895CF92DF92EF92FF9285
:100C40000F93CF93DF936B017C0161E070E08CE048
:100C500090E00E94A734EC01892BC1F0C882D982B0
:100C6000EA82FB821C821D821E821F82FBD19B872F
:100C70008A8743E060E081E039D69987888700E081
:100C800020E030E0A90160E070E051D6CE01DF91B4
:100C9000CF910F91FF90EF90DF90CF900895CF927A
:100CA000DF92EF92FF920F93CF93DF93EC016A01F3
:100CB0007B014FEF5FEFBA0188859985AFD7CC8272
:100CC000DD82EE82FF828A859B85E4D100E020E010
:100CD00030E0A90160E070E08885998528D6DF9131
:100CE000CF910F91FF90EF90DF90CF900895CF922A
:100CF000DF92EF92FF920F93CF93DF93EC014FEFD0
:100D00005FEFBA018885998589D7C880D980EA8044
:100D1000FB8000E020E030E0A90160E070E0888521
:100D2000998505D6C701B601DF91CF910F91FF904C
:100D3000EF90DF90CF900895CF92DF92EF92FF92E5
:100D40000F93CF93DF93EC014FEF5FEFBA018885EC
:100D5000998564D7CC80DD80EE80FF8000E020E0C4
:100D600030E0A90160E070E088859985E0D5C70191
:100D7000B601DF91CF910F91FF90EF90DF90CF9070
:100D80000895EF92FF920F93CF93DF93EC014FEF13
:100D90005FEFBA018885998541D7EA84FB8400E03A
:100DA00020E030E0A90160E070E088859985BFD53A
:100DB000C701DF91CF910F91FF90EF900895CF92EF
:100DC000DF92EF92FF920F93CF93DF936B017C0141
:100DD00061E070E08CE090E00E94A734EC01892B88
:100DE000C1F0C882D982EA82FB821C821D821E82E7
:100DF0001F8238D19B878A8743E060E081E076D507
:100E00009987888700E020E030E0A90160E070E089
:100E10008ED5CE01DF91CF910F91FF90EF90DF90B3
:100E2000CF900895CF92DF92EF92FF920F93CF93DE
:100E3000DF93EC016A017B014FEF5FEFBA01888518
:100E40009985ECD6CC82DD82EE82FF828A859B85F5
:100E500021D100E020E030E0A90160E070E0888569
:100E6000998565D5DF91CF910F91FF90EF90DF903D
:100E7000CF900895CF92DF92EF92FF920F93CF938E
:100E8000DF93EC014FEF5FEFBA0188859985C6D6F5
:100E9000C880D980EA80FB8000E020E030E0A90132
:100EA00060E070E08885998542D5C701B601DF9181
:100EB000CF910F91FF90EF90DF90CF900895CF9258
:100EC000DF92EF92FF920F93CF93DF93EC014FEFFE
:100ED0005FEFBA0188859985A1D6CC80DD80EE8050
:100EE000FF8000E020E030E0A90160E070E088854C
:100EF00099851DD5C701B601DF91CF910F91FF9064
:100F0000EF90DF90CF900895EF92FF920F93CF93E1
:100F1000DF93EC014FEF5FEFBA01888599857ED6AC
:100F2000EA84FB8400E020E030E0A90160E070E0AA
:100F300088859985FCD4C701DF91CF910F91FF90EF
:100F4000EF90089560E070E080E09FE3FFDC60E0F8
:100F500070E080E89FE333DF9093701580936F1506
:100F60009ADD60E070E080E89FE366DE90937215A2
:100F700080937115F8DB60E070E080E89FE3A7DD07
:100F800090936E1580936D1552CB089580916F15D7
:100F90009091701508958091711590917215089532
:100FA00080916D1590916E1508956EE370E080E06C
:100FB00090E00E947516E0917315F091741582858A
:100FC0009385019693878287CC977CF38085918562
:100FD00001969187808713861286CC9734F3868199
:100FE0009781019697838683118610864897ECF245
:100FF00017821682DACFEF92FF920F9380917315CA
:1010000090917415892B51F561E070E08CE090E0CF
:101010000E94A734FC019093741580937315892B5B
:10102000E9F01182108213821282158214821782D3
:101030001682118610861386128680EA93E00E943B
:101040005836E12CF12C01E021E030E040EC50E09A
:101050006AEB73E085ED97E00E94D9120F91FF9043
:10106000EF900895C8DF61E070E08CE090E00E94AE
:10107000A734FC01892B61F0118210821382128245
:1010800015821482178216821186108613861286A4
:10109000CF010895CF93DF93EC01ADDFE09173159D
:1010A000F09174158081918199838883E091731503
:1010B000F0917415828193819B838A8384819581C9
:1010C0009D838C83868197819F838E838085918584
:1010D00099878887828593859B878A87DF91CF91BF
:1010E000089589DF80917315909174150895FC011E
:1010F000868197810895FC01808591850895CF931D
:10110000DF93DC01E8EAF8E001C0F90120813181D8
:101110002A173B07D0F382819381AF01480F591FF3
:10112000A417B50749F412964D915C911397840F5B
:10113000951F93838283DF0112968D919C91139763
:10114000ED01C80FD91F2C173D07D9F42091A6082F
:101150003091A708C217D30781F02A813B81820F03
:10116000931F13969C938E931297C081D18188818F
:10117000998111969C938E9307C01196DC93CE9320
:1011800003C011963C932E93AE17BF0711F0B183A5
:10119000A083DF91CF910895CF92DF92EF92FF92DB
:1011A0000F931F93CF93DF93EC010E944B14809118
:1011B000A6089091A708892B41F5E8EAF8E0ACEA87
:1011C000B8E0B183A08313821282ECE6F2E1F093DF
:1011D000A708E093A608138212821182108280EC85
:1011E00099E013969C938E931297ED93FC939093B2
:1011F000A3088093A2089093A5088093A40880E098
:1012000090E890939D0880939C08E0909C08F09053
:101210009D08C7018C239D23892B09F075C0209759
:1012200009F475C09E012C5F3F4FC217D30708F029
:101230006EC02115310509F467C00091A408109112
:10124000A5080217130708F45FC0C091A808D09141
:10125000A908E8EAF8E002C0FE01EC018A819B815E
:101260008217930720F4888199810097A9F78091CC
:10127000A6089091A708C817D90709F445C0C080EF
:10128000D18084E0C80ED11C8881998191838083AC
:101290004A815B81421B530B4930510548F0CE0116
:1012A000820F931FFC01538342833B832A8327DFF2
:1012B0008A819B81081B190B1093A5080093A40831
:1012C0002091A2083091A3080217130720F410936D
:1012D000A3080093A208E82AF92AFB82EA8219826D
:1012E00018828091A0089091A10801969093A1087E
:1012F0008093A0080E948F15C114D10459F40E9454
:101300005C1EC12CD12C06C00E948F15F8CF0E9404
:101310008F15F5CFC601DF91CF911F910F91FF90EF
:10132000EF90DF90CF900895CF93DF93009799F1DE
:10133000FC0134972281338140919C0850919D0893
:10134000B90164237523672B31F160817181672BAB
:1013500011F5EF01409550952423352333832283E3
:101360000E944B142091A4083091A5088A819B818A
:10137000820F931F9093A5088093A408CE01BFDE2F
:1013800080919E0890919F08019690939F0880936A
:101390009E080E948F15DF91CF910895FC0103965E
:1013A000928381834FEF5FEFBA0143835483658358
:1013B0007683908787839287818710820895FC01C6
:1013C0001386128608950F931F93CF93DF93EB013B
:1013D000088119812A813B810F3F4FEF14072407B1
:1013E000340721F4FC01A185B28511C0DC011396FC
:1013F00001C0DF011496ED91FC9115974081518158
:1014000062817381041715072607370790F7149632
:10141000ED91FC911597FD83EC83D783C683BF8341
:10142000AE831596DC93CE9314979B878A87FC0135
:1014300020812F5F2083DF91CF911F910F9108951D
:10144000CF93DF93FC01A285B385C481D5818681CA
:1014500097819F838E83C681D781848195819D8367
:101460008C8311968D919C911297E817F90731F4AE
:101470008681978112969C938E931197138612867C
:101480008C9181508C938C91DF91CF910895FC01C8
:101490006083319770833197108231971082319732
:1014A00020E8208331971082319710823197108283
:1014B000779740833197508386970895A89590EC4D
:1014C00088E10FB6F894A895809360000FBE9093C2
:1014D0006000A0912F13B0913013CD91CDBFDD915D
:1014E000DEBFFF91EF91DF91CF91BF91AF919F91BF
:1014F0008F917F916F915F914F913F912F911F91AC
:101500000F91FF90EF90DF90CF90BF90AF909F90A2
:101510008F907F906F905F904F903F902F901F9093
:101520000F900CBE0F900BBE0F900FBE0F90089542
:1015300081E008950F920FB6F8940F920BB60F92B8
:101540000CB60F921F9211242F923F924F925F92EE
:101550006F927F928F929F92AF92BF92CF92DF92C3
:10156000EF92FF920F931F932F933F934F935F93AD
:101570006F937F938F939F93AF93BF93CF93DF939B
:10158000EF93FF93A0912F13B09130130DB60D92EE
:101590000EB60D920E948E16A0912F13B0913013AB
:1015A000CD91CDBFDD91DEBFFF91EF91DF91CF9166
:1015B000BF91AF919F918F917F916F915F914F916B
:1015C0003F912F911F910F91FF90EF90DF90CF905F
:1015D000BF90AF909F908F907F906F905F904F9053
:1015E0003F902F901F900F900CBE0F900BBE0F904E
:1015F0000FBE0F9008950F920FB6F8940F920BB68E
:101600000F920CB60F921F9211242F923F924F927D
:101610005F926F927F928F929F92AF92BF92CF9282
:10162000DF92EF92FF920F931F932F933F934F936D
:101630005F936F937F938F939F93AF93BF93CF935A
:10164000DF93EF93FF93A0912F13B09130130DB65A
:101650000D920EB60D9213BE0E945F1481110E946E
:101660008E16A0912F13B0913013CD91CDBFDD9187
:10167000DEBFFF91EF91DF91CF91BF91AF919F912D
:101680008F917F916F915F914F913F912F911F911A
:101690000F91FF90EF90DF90CF90BF90AF909F9011
:1016A0008F907F906F905F904F903F902F901F9002
:1016B0000F900CBE0F900BBE0F900FBE0F900895B1
:1016C0009ADF18950FB6F8940F92FC01968D0F9043
:1016D0000FBE81E0911180E008950F931F93CF9387
:1016E000DF93EC01042F1E8D48A141110CC08881AD
:1016F0009981892B09F042C08C819D810E94261915
:101700001D821C8242C0011117C050E08A819B815A
:101710000E94E63528A18A819B81820F911D9B83BF
:101720008A832C813D818217930750F188819981AA
:101730009B838A8380E029C050E08E819F810E9434
:10174000E63588A190E09195819591092E813F81A0
:10175000280F391F3F832E8348815981241735076D
:1017600030F42C813D81820F931F9F838E83023042
:1017700049F4112349F0115080E007C080E005C012
:1017800080E003C080E001C080E01F5F1E8FDF911A
:10179000CF911F910F910895FC0140A14423A9F01E
:1017A00050E026813781240F351F378326838481BB
:1017B00095812817390720F080819181978386834E
:1017C000CB01668177810C94E6350895EF92FF9204
:1017D0000F931F93CF938C010FB6F8940F92FC01D7
:1017E000C2A11C16ACF48389811106C011C0F80196
:1017F0008389811105C00CC07801F3E1EF0EF11C63
:10180000C7010E94581781110E948818C15079F7AA
:101810008FEFF80182A30F900FBE0FB6F8940F92CE
:10182000C1A11C16ACF48085811106C011C0F8015D
:101830008085811105C00CC07801F8E0EF0EF11C25
:10184000C7010E94581781110E948818C15079F76A
:101850008FEFF80181A30F900FBECF911F910F91D1
:10186000FF90EF900895CF93DF93EC010FB6F894BB
:101870000F92E881F9818F8D28A190E030E0829F5E
:10188000A001839F500D929F500D11244E0F5F1F9A
:101890005D834C831E8EFB83EA830197829FA001A8
:1018A000839F500D929F500D1124CF01840F951FDF
:1018B0009F838E838FEF89A38AA361110BC08885D4
:1018C000882371F0CE0108960E945817882341F0B2
:1018D00031DE06C0CE01089661DDCE0143965EDDA5
:1018E0000F900FBE81E0DF91CF9108950F931F936A
:1018F000CF93DF93082F162F869FC0011124839664
:101900004BDCEC01009769F0111103C099838883C7
:1019100003C08396998388830F8F18A361E0CE015B
:10192000A2DFCE01DF91CF911F910F9108959F9279
:10193000AF92BF92CF92DF92EF92FF920F931F93DD
:10194000CF93DF93CDB7DEB729970FB6F894DEBFFC
:101950000FBECDBF7C015B012E833F834887598733
:1019600010E0992493946C0188E0C80ED11C0FB646
:10197000F8940F92F701968D878D981710F002302A
:10198000B1F4402FB501C701A8DEF701938999236F
:1019900041F0C70143960E945817882321F0CADD01
:1019A00002C08111C7DD0F900FBE81E051C08E8152
:1019B0009F81A885B985892B8A2B8B2B21F40F90C9
:1019C0000FBE80E045C0111105C0CE0101960E94F6
:1019D0001E18192D0F900FBE5ED70FB6F8940F92F8
:1019E000F70181A18F3F09F411A2F70182A18F3F76
:1019F00009F412A20F900FBEBE016A5F7F4FCE01A5
:101A000001960E942F1881111EC00FB6F8940F92F4
:101A1000F701968D878D0F900FBE98130FC04E81E2
:101A20005F8168857985C6010E94FF16C701CEDEF9
:101A30000E948F1581119BCF7DDD99CFC701C6DE36
:101A40000E948F1594CFC701C1DE0E948F1580E0E0
:101A500029960FB6F894DEBF0FBECDBFDF91CF91B0
:101A60001F910F91FF90EF90DF90CF90BF90AF90BC
:101A70009F900895EF92FF920F931F93CF93DF9360
:101A80008A01FC01568D378D531710F02230F9F47E
:101A9000422F7801EC011AA18E8DCE011EDE1F3F70
:101AA00081F48B898823A9F0CE0143960E945817B0
:101AB000882389F0E114F10481F081E0F70180834B
:101AC0000DC0FF24F394F10EFAA281E007C080E07C
:101AD00005C081E003C081E001C081E0DF91CF91CA
:101AE0001F910F91FF90EF9008959F92AF92BF9238
:101AF000CF92DF92EF92FF920F931F93CF93DF93DA
:101B0000CDB7DEB729970FB6F894DEBF0FBECDBFB5
:101B10008C015B012E833F8348875987E12C9924F0
:101B200093946C0183E1C80ED11C0FB6F8940F9208
:101B3000F801F68CFF2099F0B501C8012DDEFA946A
:101B4000F801F68E8085882331F0C80108960E943E
:101B500058178111EFDC0F900FBE81E04DC08E81D0
:101B60009F81A885B985892B8A2B8B2B21F40F9017
:101B70000FBE80E041C0E11005C0CE0101960E9479
:101B80001E18E92C0F900FBE86D60FB6F8940F9250
:101B9000F80181A18F3F09F411A2F80182A18F3FC2
:101BA00009F412A20F900FBEBE016A5F7F4FCE01F3
:101BB00001960E942F18811116C0C80183DD882369
:101BC00071F04E815F8168857985C6010E94FF169C
:101BD000C801FCDDA4D78111A8CFACDCA6CFC80119
:101BE000F5DD9DD7A2CFC801F1DD99D7C8016ADD27
:101BF000882309F49ACF80E029960FB6F894DEBFC7
:101C00000FBECDBFDF91CF911F910F91FF90EF904D
:101C1000DF90CF90BF90AF909F900895BF92CF92EA
:101C2000DF92EF92FF920F931F93CF93DF93CDB785
:101C3000DEB729970FB6F894DEBF0FBECDBF8C017B
:101C40004E835F8368877987B12CD12CCC24C394D1
:101C50007C0183E1E80EF11C0FB6F8940F92D801D5
:101C60005E968C915E978823E1F081505E968C930E
:101C70005E978D919C91892B29F40E94E819F801B7
:101C800095838483D80118968C91882331F0C801FC
:101C900008960E94581781114DDC0F900FBE81E00D
:101CA0007BC08E819F81A885B985892B8A2B8B2B40
:101CB00021F40F900FBE80E06FC0D11005C0CE019F
:101CC00001960E941E18DC2C0F900FBEE4D50FB6B3
:101CD000F8940F92F80181A18F3F09F411A2D80165
:101CE00092968C9192978F3F11F492961C920F903E
:101CF0000FBEBE016A5F7F4FCE0101960E942F1872
:101D0000811125C0C801DEDC8823E9F0F80180815B
:101D10009181892B51F40FB6F8940F9284819581AB
:101D20000E949F18B82E0F900FBE4E815F8168856C
:101D30007985C7010E94FF16C80148DDF0D68111E0
:101D40008BCFF8DB89CFC80141DDE9D685CFC8014B
:101D50003DDDE5D6C801B6DC882309F47DCFBB2084
:101D6000D1F00FB6F8940F92F8018389882339F0E7
:101D7000028CF38DE02D80816AE0681B01C060E079
:101D8000D80114968D919C9115970E9481190F90FE
:101D90000FBE80E001C080E029960FB6F894DEBF48
:101DA0000FBECDBFDF91CF911F910F91FF90EF90AC
:101DB000DF90CF90BF900895CF93DF93EC010FB6E3
:101DC000F8940F9289A18F3F09F419A28AA18F3F3D
:101DD00009F41AA20F900FBE8E8D811104C0CE019E
:101DE00043960E941617CE01F1DCDF91CF91089542
:101DF000FC014481558122813381240F351F80816C
:101E00009181B901681B790BCB016417750710F03C
:101E1000841B950B0895AF92BF92CF92DF92EF9201
:101E2000FF920F931F93CF93DF936C015B017A01B5
:101E3000FC01C281D381048115810C1B1D0B40174D
:101E4000510708F48A01F60184859585A801B5013A
:101E50008C0F9D1F0E94E6350E151F0558F4A70133
:101E6000401B510BB501600F711FF60184859585EC
:101E70000E94E635CE018E0D9F1DF601248135812D
:101E80008217930710F0821B930BF60193838283D2
:101E9000C701DF91CF911F910F91FF90EF90DF90DD
:101EA000CF90BF90AF900895CF92DF92EF92FF92C4
:101EB0000F931F93CF93DF931F921F92CDB7DEB77F
:101EC0005A83498321153105C9F06B017C01FC015E
:101ED000868580FD08C0CA012417350708F4C901AA
:101EE0009A83898311C02017310758F042E050E0EF
:101EF000BE016F5F7F4FC7018EDF06C080E090E0BC
:101F000008C080E090E005C049815A81B601C70150
:101F100082DF0F900F90DF91CF911F910F91FF9073
:101F2000EF90DF90CF900895AF92BF92CF92DF9263
:101F3000EF92FF920F931F93CF93DF937C015B018E
:101F4000E9014217530708F4EA01209779F1F701F4
:101F500000811181C480D580C01AD10ACC15DD055D
:101F600008F46E01F70164857585600F711FA60185
:101F7000C5010E94E635CC16DD0658F4AE014C19B9
:101F80005D09F70164857585C5018C0D9D1D0E9455
:101F9000E6350C0F1D1FF70184819581081719077D
:101FA00010F0081B190BF70111830083CE01DF919C
:101FB000CF911F910F91FF90EF90DF90CF90BF9046
:101FC000AF900895FF920F931F93CF93DF938B01F0
:101FD000FF24F394413009F0F12C0115110511F49F
:101FE00001E010E09C01205F3F4F82179307B0F49F
:101FF000EC012196C901D0D8FC01892B89F08FE032
:10200000DF011D928A95E9F7CF010F9695878487A6
:10201000D583C48317830683F68602C0E0E0F0E030
:10202000CF01DF91CF911F910F91FF9008950FB6CF
:10203000F8940F92DC0118962D913C911997232B5F
:1020400051F51A962D913C911B97232B31F51E9635
:102050002C911E9716964D915C91179714966D9141
:102060007C9115971C96ED91FC911D973FE01D9278
:102070003A95E9F7DC011D96FC93EE931C971596B3
:102080007C936E93149717965C934E9316971E96B7
:102090002C9381E003C080E001C080E00F900FBE70
:1020A0000895FC0124813581808191814281538191
:1020B000820F931F0197841B950B8217930710F0D3
:1020C000821B930B08952F923F924F925F926F92D3
:1020D0007F928F929F92AF92BF92CF92DF92EF92B8
:1020E000FF920F931F93CF93DF93CDB7DEB72B975C
:1020F0000FB6F894DEBF0FBECDBF4C017B876A8759
:102100001A010E831F8328873987FC0184819581FA
:102110000197268520FF0CC02A01F2E04F0E511CCA
:102120008415950550F41E821F821886198645C0B5
:102130002A018417950708F42C018E819F81A885B8
:10214000B985892B8A2B8B2B09F437C0CE010196D8
:102150005FD70FB6F8940F92C401A3DF3C0184153A
:10216000950530F560E080E090E00E94B41CD4D783
:10217000F401938782870F900FBEAE80BF80C88422
:10218000D984E12CF12C00E010E0980140E050E00F
:10219000BA0180E00E94FA19F40113861286BE018A
:1021A0006A5F7F4FCE0101965AD7882391F202C011
:1021B0000F900FBE6114710419F4C40172DF3C0169
:1021C00082019301A1016A857B85C4016DDE6C01EA
:1021D000892BE9F0C4010CDEF401268137818217D6
:1021E0009307A8F058D3F40180859185892B71F06D
:1021F00080859185E12CF12C00E020E030E0A90100
:1022000060E00E94A21AF4011186108688D4C601EB
:102210002B960FB6F894DEBF0FBECDBFDF91CF91E6
:102220001F910F91FF90EF90DF90CF90BF90AF90F4
:102230009F908F907F906F905F904F903F902F90E6
:102240000895AF92BF92CF92DF92EF92FF920F93D9
:102250001F93CF93DF93EC017B015A0169018E85B7
:1022600080FF04C08A010E5F1F4F01C08A01CE01AA
:1022700018DF9C01A501B701CE0116DE5C01892B98
:10228000C1F0CE01B5DD2E813F818217930788F022
:1022900088859985892B69F088859985E12CF12CB1
:1022A00000E020E030E0A90160E00E94961B198662
:1022B0001886C501DF91CF911F910F91FF90EF908C
:1022C000DF90CF90BF90AF9008952F923F924F92A2
:1022D0005F926F927F928F929F92AF92BF92CF92B6
:1022E000DF92EF92FF920F931F93CF93DF931F9292
:1022F0001F92CDB7DEB74C011B012A0158016901BD
:10230000FC01868580FD03C0612C712C04C068949B
:10231000662461F8712CA114B104C104D10449F1FF
:102320000FB6F8940F92C40163DD8C01681679062C
:1023300048F060E080E090E00E94B41CEDD6F4012B
:10234000918780870F900FBE60167106C0F0E12C58
:10235000F12C00E010E0980140E050E0BA0180E08C
:102360000E94FA19F40111861086C40141DD8C0126
:1023700003C0C4013DDD8C0160167106C8F561140F
:102380007104C1F0F401C080D1809801A301BE01A5
:102390006F5F7F4FC401C8DD89819A8106191709D3
:1023A0004816590630F4F401D182C082412C512CD8
:1023B00001C02C019801A201B101C401B5DD6C017D
:1023C000892BC1F068D2F40182859385892B71F045
:1023D00082859385E12CF12C00E020E030E0A9011A
:1023E00060E00E94A21AF4011386128698D302C0FC
:1023F000C12CD12CC6010F900F90DF91CF911F916E
:102400000F91FF90EF90DF90CF90BF90AF909F9093
:102410008F907F906F905F904F903F902F90089596
:10242000E091A912F091AA12808181110CC08FEF66
:102430009FEFDC018093731290937412A093751236
:10244000B09376120895E091A912F091AA12078034
:10245000F085E02D80819181A281B38180937312F8
:1024600090937412A0937512B093761208958F9280
:102470009F92AF92BF92CF92DF92EF92FF92CF9353
:10248000DF936B017C01C42F8090801290908112A9
:10249000A0908212B090831280912F1390913013EC
:1024A00002960E94200A8FEFC816D806E806F806A2
:1024B000B1F5CC23A1F1E5E8F2E1A181B281C091AF
:1024C0002F13D0913013BF83AE83C0912F13D091BF
:1024D000301316968D919C91179799878887169639
:1024E000CD91DC91179780912F1390913013029624
:1024F0009D838C8380912F139091301302961796B1
:102500009C938E931697A0912F13B09130131D9624
:10251000FC93EE931C9780818F5F80833FC0C80C33
:10252000D91CEA1CFB1CE0912F13F0913013C282DE
:10253000D382E482F582C814D904EA04FB0468F467
:1025400060912F13709130138091A7129091A8126F
:102550006E5F7F4F0E94E30921C060912F1370913D
:1025600030138091A9129091AA126E5F7F4F0E9442
:10257000E3098091731290917412A0917512B09139
:102580007612C816D906EA06FB0640F4C09273120A
:10259000D0927412E0927512F0927612DF91CF9180
:1025A000FF90EF90DF90CF90BF90AF909F908F9073
:1025B00008954F925F926F927F928F929F92AF9207
:1025C000BF92CF92DF92EF92FF920F931F93CF9320
:1025D000DF934C016B015A012901CA010E94CC080A
:1025E0003C01892B09F40DC184E390E00E94CC08E2
:1025F000EC01892B99F07C8E6B8EA50165EA70E069
:10260000C3010E94EF3581E0A81AB1088B8D9C8D23
:10261000A80EB91EC114D10429F420C0C3010E9420
:102620009409EFC0D6018C918D8F8C918823A1F0F5
:10263000AE01425E5F4FF6013196B0E1CB0ED11C88
:10264000CF012191DA012D93AD01DC018C9188231A
:1026500019F0CE16DF06A1F71CA601C01D8E0A30A8
:1026600008F009E00A8F0DA71EA66E01B2E0CB0E9E
:10267000D11CC6010E94DF09CE010E960E94DF091F
:10268000DB87CA878AE090E0A0E0B0E0801B910978
:10269000A109B1098E879F87A88BB98BDF8BCE8B61
:1026A00084E0FE01BF96DF011D928A95E9F71BAA1F
:1026B000A201B401C5010E94470A99838883E114ED
:1026C000F10419F0F701D183C0830FB6F8940F928B
:1026D000809184128F5F8093841280912F13909148
:1026E0003013892BD1F5D0933013C0932F138091E1
:1026F0008412813009F041C001EC12E10F2EFFE29B
:10270000EF2EF3E1FF2EF02DC8010E94CE09055FE8
:102710001F4F0E151F05C1F786EB92E10E94CE09EF
:102720008BEA92E10E94CE098CE992E10E94CE09E7
:1027300081E992E10E94CE0985E892E10E94CE09EA
:1027400086EB92E19093AA128093A9128BEA92E110
:102750009093A8128093A71210C080917E128111CD
:102760000CC0E0912F13F0913013928D8A8D891750
:1027700020F0D0933013C0932F13809177128F5F86
:1027800080937712EA8D80917F128E1710F4E09378
:102790007F128BE08E9FF0011124EF53FD4E0180DC
:1027A000F281E02DFF83EE832681378139872887E8
:1027B000A681B7811596DC92CE921497D782C682F5
:1027C000EA8D8E9FF0011124EF53FD4EFD87EC87BB
:1027D00080818F5F80830F900FBE80917E1288234F
:1027E00061F0E0912F13F0913013928D8A8D98173C
:1027F00030F40E949A0A81E005C081E003C081E0C4
:1028000001C08FEFDF91CF911F910F91FF90EF905B
:10281000DF90CF90BF90AF909F908F907F906F9000
:102820005F904F900895EF92FF920F930F2EF1E774
:10283000EF2EF2E1FF2EF02D00E020E030E040EC42
:1028400050E06BEC73E08EE091E0B3DE8130E9F4B0
:102850000E94401D8130C9F4F8948FEF9FEFDC0196
:102860008093731290937412A0937512B0937612A2
:1028700081E080937E121092801210928112109249
:102880008212109283120E945E0A809106020F91BA
:10289000FF90EF900895809170128F5F8093701277
:1028A00008950FB6F8940F92609180127091811282
:1028B00080918212909183120F900FBE0895CF9253
:1028C000DF92EF92FF920F931F93CF93DF9380914C
:1028D0007012811107C1C0908012D0908112E090D7
:1028E0008212F09083128FEFC81AD80AE80AF80A09
:1028F000C0928012D0928112E0928212F0928312E2
:10290000C114D104E104F104B1F48091A9129091B1
:10291000AA122091A7123091A8123093AA122093E4
:10292000A9129093A8128093A712809178128F5FBA
:102930008093781275DD8091731290917412A0913A
:102940007512B0917612C816D906EA06FB0610F485
:1029500080E0B3C080E04BE051E0E091A912F0913B
:10296000AA12908191110CC04FEF5FEFBA01409312
:1029700073125093741260937512709376129DC007
:10298000E091A912F091AA120780F085E02D008451
:10299000F185E02D0281138124813581C016D10695
:1029A000E206F30648F40093731210937412209316
:1029B00075123093761281C0A485B585C681D78102
:1029C000208531853F832E83C085D185268137813F
:1029D0003D832C839F012E5F3F4F11966D917C911B
:1029E00012976217730731F46085718512967C9394
:1029F0006E931197158614869C9191509C93A08D8F
:102A0000B18D109709F1C289D389648975897F8353
:102A10006E83C489D589628973897D836C8311969D
:102A2000CD91DC911297BF01625F7F4FC617D70728
:102A300031F46489758912967C936E931197118E87
:102A4000108E9C9191509C93A28D90917F129A1719
:102A500010F4A0937F124A9FD0011124AF53BD4EB2
:102A600011960D90BC91A02DB783A68316966D91FB
:102A70007C911797718760871696CD91DC91179797
:102A80003D832C8317963C932E931697A28D4A9FD5
:102A9000D0011124AF53BD4EB587A4879C919F5F91
:102AA0009C93A0912F13B0913013228D5A969C9134
:102AB000291708F452CF852F50CFE0912F13F091B2
:102AC0003013E28D9BE0E99FF0011124EF53FD4E9E
:102AD0009081923008F081E0909179129923B1F0C1
:102AE00081E014C080917A1290917B12A0917C12A7
:102AF000B0917D120196A11DB11D80937A12909321
:102B00007B12A0937C12B0937D1280E0DF91CF9175
:102B10001F910F91FF90EF90DF90CF900895CF928B
:102B2000DF92EF92FF920F931F93CF93DF930FB635
:102B3000F8940F928091701281508093701280915E
:102B400070128111C4C08091841281118BC0C2C0E7
:102B5000D8011796ED91FC9118970084F185E02D2E
:102B6000A08DB18D8289938964897589EC017F83F9
:102B70006E838489958962897389EC017D836C8376
:102B8000CF010E9611966D917C9112976817790777
:102B900031F48489958912969C938E931197118EA6
:102BA000108E8C9181508C93A485B58586819781F8
:102BB00060857185EC017F836E8380859185668158
:102BC0007781EC017D836C83CF01029611966D9124
:102BD0007C9112976817790731F460857185129698
:102BE0007C936E931197158614862C9121502C930B
:102BF000A28D20917F122A1710F4A0937F123A9F82
:102C0000D0011124AF53BD4E11960D90BC91A02D53
:102C1000B783A68316966D917C911797718760870D
:102C200016966D917C911797EB019D838C83179677
:102C30009C938E931697A28D3A9FD0011124AF5387
:102C4000BD4EB587A4878C918F5F8C93A0912F1375
:102C5000B0913013928D5A968C91981748F040930A
:102C6000791206C0E0E0F0E00CE912E13BE041E05F
:102C7000D8018C9181116CCFEF2B09F0D1DBC09082
:102C80007A12D0907B12E0907C12F0907D12C114E9
:102C9000D104E104F10499F0C1E011DE8111C09387
:102CA0007912B1E0CB1AD108E108F108B1F710921E
:102CB0007A1210927B1210927C1210927D128091E7
:102CC0007912882331F00E949A0A81E003C080E0E3
:102CD00001C080E00F900FBEDF91CF911F910F9147
:102CE000FF90EF90DF90CF900895CF92DF92EF9218
:102CF000FF926B017C01672B682B692B41F0CBDDC8
:102D000040E0C701B601B3DB0ADF811102C00E94B7
:102D10009A0AFF90EF90DF90CF9008958091701203
:102D2000882321F081E0809379120895109279121E
:102D3000A0912F13B0913013E0912F13F091301325
:102D40002D913C91838D948D8217930758F060915B
:102D50002F137091301380912F1390913013635E75
:102D60007F4FB6D780917F12282F30E09BE0899F5C
:102D7000F0011124EF53FD4E908191110EC04BE0F4
:102D80008150282F30E0429FF001439FF00D112425
:102D9000EF53FD4E9081992399F39BE0929FA00100
:102DA000939F500D1124DA01AF53BD4E1196ED9152
:102DB000FC9112970480F581E02D1296FC93EE931E
:102DC00011974C535D4EE417F50729F44481558162
:102DD000FD01528341839BE0929FF001939FF00D90
:102DE0001124EF53FD4E0180F281E02D20853185C5
:102DF0003093301320932F1380937F120895CF9236
:102E0000DF92EF92FF926A017B0160912F13709124
:102E10003013625F7F4F0E94E30941E0C701B601B2
:102E200026DBFF90EF90DF90CF900895CF93DF9354
:102E3000FC01CB01BA01A181B281C0912F13D091C5
:102E40003013BB8BAA8BC0912F13D09130131696E1
:102E50004D915C9117975D8B4C8B1696CD91DC91C3
:102E6000179740912F1350913013425F5F4F5D834E
:102E70004C8340912F1350913013425F5F4F179650
:102E80005C934E931697A0912F13B09130135996DF
:102E9000FC93EE93589730813F5F3083222319F0E3
:102EA0006FEF7FEFCB01422FE2DADF91CF910895F0
:102EB000CF93DF93DC011796ED91FC911897008476
:102EC000F185E02DA08DB18DC289D3898489958942
:102ED0009F838E83C489D589828993899D838C83BE
:102EE0009F01225F3F4F11968D919C9112978217FF
:102EF000930731F48489958912969C938E93119748
:102F0000118E108E8C9181508C9380917012811152
:102F100052C0A485B585C681D781808591859F8360
:102F20008E83C085D185868197819D838C839F0107
:102F30002E5F3F4F11968D919C91129782179307A8
:102F400031F48085918512969C938E931197158606
:102F500014868C9181508C93A28D80917F128A1758
:102F600010F4A0937F128BE08A9FD0011124AF53FD
:102F7000BD4E11960D90BC91A02DB783A6831696D9
:102F80004D915C911797518740871696CD91DC91B2
:102F900017973D832C8317963C932E931697A28DFB
:102FA0008A9FD0011124AF53BD4EB587A4878C9161
:102FB0008F5F8C931CC04CE952E1DA011196CD91E0
:102FC000DC911297D38BC28B8E819F81958B848BE2
:102FD0008E819F81DC0115963C932E9314973F833D
:102FE0002E83518F408FDA018C918F5F8C93A0914B
:102FF0002F13B0913013928D5A968C91891720F42B
:1030000081E08093791201C080E0DF91CF91089533
:103010000FB6F8940F9220917812FC012083409112
:1030200080125091811260918212709183124183BB
:103030005283638374830F900FBE0895209178129A
:10304000FC01208340918012509181126091821284
:103050007091831241835283638374830895CF9266
:10306000DF92EF92FF920F931F93CF93DF93FB01B9
:103070000FB6F8940F924091801250918112609196
:1030800082127091831200811181228133810F3F5E
:10309000AFEF1A072A073A0779F1EC01C980DA8005
:1030A000EB80FC80A0917812B881BA1759F04C15CA
:1030B0005D056E057F0530F0108211821282138249
:1030C00081E01BC04C195D096E097F09401751074B
:1030D0006207730758F4041B150B260B370B00838C
:1030E000118322833383AADF80E007C0108211821C
:1030F0001282138281E001C080E00F900FBEDF9149
:10310000CF911F910F91FF90EF90DF90CF90089596
:1031100081E080937912089580912F13909130135C
:10312000089580917E12882331F080917012882357
:1031300021F080E0089581E0089582E008950F93E2
:103140001F93CF93DF93FC01892B09F479C0828D03
:10315000A0912F13B09130135A969C91891708F0C3
:1031600063C04685578560897189772394F0A09163
:103170002F13B09130135A969C914AE050E060E0D2
:1031800070E0491B51096109710946875787608BB7
:10319000718B2BE0829FC00111248F539D4E24859B
:1031A000358528173907B9F5EF018F010E5F1F4FDD
:1031B000C8010E94200AE0912F13F0913013E28D94
:1031C000EA8F80917F128E1710F4E0937F128BE0CC
:1031D0008E9FF0011124EF53FD4E0180F281E02D0E
:1031E000FF83EE832681378139872887A681B781BF
:1031F00015961C930E93149717830683EA8D8E9F62
:10320000F0011124EF53FD4EFD87EC8780818F5F25
:10321000808381E016C0A0912F13B09130135A968D
:103220008C91828F81E00DC0A0912F13B09130134B
:1032300081E025A55A969C91291718F080E001C0DD
:1032400080E0DF91CF911F910F9108950F931F930D
:10325000CF93DF93FC01892B09F449C086A58150E7
:1032600086A7228D95A5291709F443C0811143C073
:10327000EF018F010E5F1F4FC8010E94200AEDA5CC
:10328000EA8F8AE090E0A0E0B0E08E1B9109A109EE
:10329000B1098E879F87A88BB98B80917F128E177B
:1032A00010F4E0937F128BE08E9FF0011124EF5316
:1032B000FD4E0180F281E02DFF83EE832681378170
:1032C00039872887A681B78115961C930E9314978A
:1032D00017830683EA8D8E9FF0011124EF53FD4E74
:1032E000FD87EC8780818F5F808381E005C080E06F
:1032F00003C080E001C080E0DF91CF911F910F916A
:1033000008950F931F93CF93DF93FC01892B09F44A
:103310005AC085A5861708F4862F928D981709F450
:1033200052C026A5213009F04EC0828F46855785B0
:1033300060897189772364F04AE050E060E070E0D2
:10334000481B51096109710946875787608B718B4A
:103350002BE0929FC00111248F539D4E248535850B
:103360002817390781F5EF018F010E5F1F4FC80144
:103370000E94200AEA8D80917F128E1710F4E0934C
:103380007F128BE08E9FF0011124EF53FD4E0180E0
:10339000F281E02DFF83EE832681378139872887EC
:1033A000A681B78115961C930E93149717830683F5
:1033B000EA8D8E9FF0011124EF53FD4EFD87EC87BF
:1033C00080818F5F8083DF91CF911F910F9108954E
:1033D00080912F1390913013892B39F0E0912F13A6
:1033E000F091301386A58F5F86A780912F1390915F
:1033F000301308954F925F926F927F92AF92BF9277
:10340000CF92DF92EF92FF920F931F93CF93DF93B0
:10341000280139010FB6F8940F92E0912F13F09123
:103420003013C82FD0E0EC0FFD1F83A9823079F153
:10343000E0912F13F0913013CE01880F991F880F60
:10344000991FE80FF91F87A590A9A1A9B2A94095D6
:10345000509560957095482359236A237B2347A78D
:1034600050AB61AB72ABE0912F13F0913013EC0FC6
:10347000FD1F81E083ABA114B104C104D10439F074
:1034800041E0C601B5010E9437120E949A0A0F90CE
:103490000FBE0FB6F8940F92E114F104A1F0E09181
:1034A0002F13F0913013CE01880F991F880F991FA9
:1034B000E80FF91F87A590A9A1A9B2A9F7018083F8
:1034C0009183A283B383E0912F13F0913013EC0F1B
:1034D000FD1F83A98230E9F4E0912F13F09130139E
:1034E000CE01880F991F880F991FE80FF91F87A534
:1034F00090A9A1A9B2A940945094609470944822D4
:1035000059226A227B2247A650AA61AA72AA81E0A8
:1035100001C080E020912F1330913013C20FD31FD0
:103520001BAA0F900FBEDF91CF911F910F91FF90BB
:10353000EF90DF90CF90BF90AF907F906F905F90B3
:103540004F9008958F929F92AF92BF92EF92FF9209
:103550000F93CF93DF93DC010FB6F8940F92E11431
:10356000F10479F0FC0184E0689FE00DF11D112465
:1035700087A490A8A1A8B2A8F70180829182A28214
:10358000B38270E0FD01E60FF71F83A992E093ABD1
:103590000230F9F018F4013031F049C0033069F11C
:1035A0000430B9F144C0660F771F660F771FFD0125
:1035B000E60FF71F87A490A8A1A8B2A8BA01A90195
:1035C000482959296A297B2947A750AB61AB72ABBF
:1035D0002EC0660F771F660F771FFD01E60FF71FDE
:1035E00047A550A961A972A94F5F5F4F6F4F7F4FE9
:1035F00047A750AB61AB72AB1AC0660F771F660F5F
:10360000771FFD01E60FF71F27A730AB41AB52AB89
:103610000EC0823009F479C0660F771F660F771FDE
:10362000FD01E60FF71F27A730AB41AB52AB81304E
:1036300009F06DC01C96ED91FC911D971696CD91E9
:10364000DC91179718968D919C9119979F838E8383
:103650001896CD91DC91199716968D919C9117979C
:103660009D838C839D012E5F3F4F818192818217C4
:10367000930731F418968D919C91199792838183C9
:103680001D961C921E921C978081815080835A96B1
:10369000EC915A9780917F128E1710F4E0937F126D
:1036A0008BE08E9FF0011124EF53FD4E0180F281DB
:1036B000E02D1796FC93EE93169746815781199645
:1036C0005C934E931897C681D7813D832C833783B3
:1036D00026835A96EC915A978E9FF0011124EF534E
:1036E000FD4E1D96FC93EE931C9780818F5F808327
:1036F000E0912F13F09130135A969C91828D891787
:1037000040F40E949A0A81E005C080E003C081E095
:1037100001C081E00F900FBEDF91CF910F91FF901C
:10372000EF90BF90AF909F908F9008958F929F924F
:10373000AF92BF92CF92DF92EF92FF920F93CF930F
:10374000DF93DC01E114F10479F0FC0184E0689F6F
:10375000E00DF11D112487A490A8A1A8B2A8F7013B
:1037600080829182A282B38270E0FD01E60FF71F92
:1037700083A992E093AB0230F9F018F4013031F0F4
:1037800049C0033069F10430B9F144C0660F771FB6
:10379000660F771FFD01E60FF71F87A490A8A1A869
:1037A000B2A8BA01A901482959296A297B2947A742
:1037B00050AB61AB72AB2EC0660F771F660F771FE1
:1037C000FD01E60FF71F47A550A961A972A94F5F38
:1037D0005F4F6F4F7F4F47A750AB61AB72AB1AC0C3
:1037E000660F771F660F771FFD01E60FF71F27A7EC
:1037F00030AB41AB52AB0EC0823009F4A4C0660FAF
:10380000771F660F771FFD01E60FF71F27A730AB65
:1038100041AB52AB813009F098C080917012811198
:103820005FC01C96ED91FC911D971696CD91DC9191
:10383000179718968D919C9119979F838E83189650
:10384000CD91DC91199716968D919C9117979D8338
:103850008C839D012E5F3F4F818192818217930758
:1038600031F418968D919C911997928381831D96BE
:103870001C921E921C978081815080835A96EC91F5
:103880005A9780917F128E1710F4E0937F128BE08D
:103890008E9FF0011124EF53FD4E0180F281E02D47
:1038A0001796FC93EE9316974681578119965C9371
:1038B0004E931897C681D7813D832C833783268307
:1038C0005A96EC915A978E9FF0011124EF53FD4EBA
:1038D0001D96FC93EE931C9780818F5F808320C0A0
:1038E0004CE952E1FA01C181D2815396DC93CE9327
:1038F00052978E819F8155969C938E9354972E81DB
:103900003F81CD010E96F901958384839F838E8339
:1039100059965C934E935897FA0180818F5F80830C
:10392000E0912F13F09130135A969C91828D891754
:1039300070F4C114D10419F081E0F601808381E0B4
:103940008093791205C080E003C081E001C081E06E
:10395000DF91CF910F91FF90EF90DF90CF90BF90CC
:10396000AF909F908F900895009721F480912F132E
:10397000909130130FB6F8940F9270E0FC01E60FAF
:10398000F71F23A9223031F4FC01E60FF71F13AA19
:1039900081E001C080E00F900FBE0895CF92DF92CA
:1039A000EF92FF920F931F93FC0142835383648332
:1039B0007583938782870417150726073707C0F09A
:1039C0000C191D092E093F0986859785A089B189A3
:1039D000081719072A073B0700F5BF016E5F7F4FE5
:1039E0008091391390913A130E94E30980E018C046
:1039F0000C151D052E053F0528F44C155D056E05BB
:103A00007F0568F4BF016E5F7F4F80913B139091FB
:103A10003C130E94E30980E003C081E001C081E023
:103A20001F910F91FF90EF90DF90CF9008950FB608
:103A3000F8940F928091371390913813892BE9F401
:103A400088E493E10E94CE098DE393E10E94CE09C0
:103A500088E493E190933C1380933B138DE393E1CF
:103A600090933A138093391340E067E08AE00E9414
:103A7000760C90933813809337130F900FBE0895F0
:103A8000EF92FF920F93D3DF809137139091381309
:103A9000892B91F00F2EF5E3EF2EF3E1FF2EF02DA1
:103AA00003E020E030E040EC50E060ED73E088E4BB
:103AB00091E00E94D91201C080E00F91FF90EF9039
:103AC00008958F929F92AF92BF92CF92DF92EF9222
:103AD000FF920F931F93CF93DF93CDB7DEB7279756
:103AE0000FB6F894DEBF0FBECDBFE0913713F09153
:103AF0003813309781F169832A833B834C835D833C
:103B00009F838E836630F4F40CDB823069F400E02E
:103B1000A7019601BE016F5F7F4F8091371390918F
:103B200038130E94970C18C000E020E030E0A90193
:103B3000BE016F5F7F4F80913713909138130E94C1
:103B4000970C0AC020E0A801BE016F5F7F4FCF0134
:103B50000E943A0D01C080E027960FB6F894DEBFB0
:103B60000FBECDBFDF91CF911F910F91FF90EF90CE
:103B7000DF90CF90BF90AF909F908F9008952F923D
:103B80003F924F925F926F927F928F929F92AF92ED
:103B9000BF92CF92DF92EF92FF920F931F93CF933A
:103BA000DF931C010E9451142B013C0180913113C1
:103BB00090913213A0913313B091341348165906E3
:103BC0006A067B0608F053C03BC00780F085E02DF5
:103BD00080809180A280B380C085D1858E010E5FE8
:103BE0001F4FC8010E94200AEC89FD89CE0119955A
:103BF0008E8982FF25C08E859F85A889B989880D09
:103C0000991DAA1DBB1D88169906AA06BB0670F44D
:103C10008A839B83AC83BD83DB87CA87B80180918D
:103C20003B1390913C130E94E3090AC0C12CD12C94
:103C3000760100E010E0A501940160E0CE0141DFD3
:103C4000E0913B13F0913C1380818111BECF8091B4
:103C5000391390913A1390933C1380933B13F09354
:103C60003A13E093391381E0F101808302C0F1013E
:103C7000108240923113509232136092331370923B
:103C80003413C301B201DF91CF911F910F91FF90C7
:103C9000EF90DF90CF90BF90AF909F908F907F90EC
:103CA0006F905F904F903F902F9008950895279ABE
:103CB0002F9A08951F9A0895FADF2FEF80E792E078
:103CC000215080409040E1F700C00000F3DFF5CFC5
:103CD000EEDF2FEF87EA91E6215080409040E1F738
:103CE00000C00000E7DFF5CFEF92FF920F93E12CC9
:103CF000F12C02E021E030E040EC50E068ED73E0B0
:103D000085EB9EE10E94D9120F91FF90EF900895EC
:103D1000CF93DF93CDB7DEB78C8590E0982F8827BF
:103D20002D85820F911D9F938F938A8590E0982F08
:103D300088272B85820F911D9F938F93888590E014
:103D4000982F88272985820F911D9F938F9380E15B
:103D500094E09F938F930E9445360FB6F894DEBF90
:103D60000FBECDBFDF91CF91089581E0B4D662E060
:103D700070E080E090E00E94751680E0ACD666E9C5
:103D800070E080E090E00E9475165ED681E00E94AF
:103D9000D12FAFD60E94F6279F938F938BE194E0AB
:103DA0009F938F930E9445360E94F7260E94F62724
:103DB0009F938F938EE294E09F938F930E9445365A
:103DC00089E693E1A8D60E94F627C9E6D3E1DF93FE
:103DD000CF939F938F9387E494E09F938F930E9458
:103DE0004536CE01B4D60E94F6279F938F93DF937A
:103DF000CF938BE594E09F938F930E944536AE015D
:103E000060E774E081E994E00E94D5270E94F627DC
:103E10009F938F93DF93CF9380E794E09F938F934B
:103E200081E994E09F938F9382EA94E09F938F932C
:103E30000E944536BFD60E94F6279F938F9388ED48
:103E400094E09F938F930E9445368DB79EB78296DC
:103E50000FB6F8949EBF0FBE8DBF81E0A5D70E941C
:103E6000F6279F938F9387EE94E09F938F930E9402
:103E7000453684EF91E0A3D70E94F6279F938F9356
:103E800081E08F9384EF8F9388E095E09F938F93E9
:103E90000E9445368DB79EB70A960FB6F8949EBF1E
:103EA0000FBE8DBFCAE0D0E008E215E080E088D602
:103EB000F82E0E94F6279F938F93DF93CF931F9343
:103EC0000F930E9445360F900F900F900F900F9018
:103ED0000F9088E0F81609F498C080E00E94353011
:103EE00066E371E080E090E00E9475162197F1F69C
:103EF00085C00E949A0AFDCF0E94C6070E945F07F4
:103F00004DD1A62E972E0E94CB070E949C0646D12B
:103F1000162F072F0E94D0070E94DE059A82AB82DF
:103F20000C831D839E838F8383E00E94473082B180
:103F30008B2582B9BE0180E06CD60E94F6278C01E9
:103F40001F938F93FF92EF920E9445360F900F9030
:103F50000F900F900D55154069F181E0BCD562E0DE
:103F600070E080E090E00E94751680E0B4D566E9CC
:103F700070E080E090E00E94751680E021D60E94FB
:103F8000F6279F938F93DF92CF920E944536BE0112
:103F900080E03FD60E94F6279F938F93FF92EF9287
:103FA0000E9445368DB79EB708960FB6F8949EBF0F
:103FB0000FBE8DBF82B18B2582B98DB79EB7469754
:103FC0000FB6F8949EBF0FBE8DBFADB7BEB71196AA
:103FD00086E1FE0101900D928A95E1F799DE68E88D
:103FE0007EE080E090E00E9475168DB79EB7469601
:103FF0000FB6F8949EBF0FBE8DBF7ECF81E00E94AA
:10400000263080E00E94F42F74CF81E00E941730A8
:10401000E3E5F3E186E0818382E08083EF01689449
:10402000BB24B3F80F2EF8E4EF2EF5E0FF2EF02DB1
:104030000F2EF7E6CF2EF5E0DF2EF02D5DCF81B10C
:104040008FEF81B992B181E0892782B992B182E084
:10405000892782B992B184E0892782B992B188E038
:10406000892782B992B180E1892782B992B180E231
:10407000892782B992B180E4892782B982B18058B8
:1040800082B980E00E94F52C83E090E00E94D22863
:104090005BD3811108C086E895E09F938F930E94BF
:1040A00045360F900F900895CADF88EA95E00E9488
:1040B00058360E94A20760E070E081E0CCD483E033
:1040C00013DE0E94131480E090E008950CD0EBC042
:1040D000E3D040F0DAD030F021F45F3F19F0CCC0EB
:1040E000511115C1CFC0F0D098F39923C9F35523CE
:1040F000B1F3951B550BBB27AA27621773078407DB
:1041000038F09F5F5F4F220F331F441FAA1FA9F390
:1041100033D00E2E3AF0E0E830D091505040E69582
:10412000001CCAF729D0FE2F27D0660F771F881FE3
:10413000BB1F261737074807AB07B0E809F0BB0BD2
:10414000802DBF01FF2793585F4F2AF09E3F5105F6
:1041500068F092C0DCC05F3FECF3983EDCF38695DC
:1041600077956795B795F7959F5FC9F7880F911D6C
:104170009695879597F90895E1E0660F771F881F58
:10418000BB1F621773078407BA0720F0621B730B0B
:10419000840BBA0BEE1F88F7E095089504D068945D
:1041A000B111B5C0089598D088F09F5790F0B92FFD
:1041B0009927B751A0F0D1F0660F771F881F991F7C
:1041C0001AF0BA95C9F712C0B13081F09FD0B1E0B2
:1041D00008959CC0672F782F8827B85F39F0B93FC2
:1041E000CCF3869577956795B395D9F73EF490957E
:1041F0008095709561957F4F8F4F9F4F0895E894FC
:1042000009C097FB3EF490958095709561957F4F1E
:104210008F4F9F4F9923A9F0F92F96E9BB279395CC
:10422000F695879577956795B795F111F8CFFAF4DC
:10423000BB0F11F460FF1BC06F5F7F4F8F4F9F4F0D
:1042400016C0882311F096E911C0772321F09EE86B
:10425000872F762F05C0662371F096E8862F70E0D1
:1042600060E02AF09A95660F771F881FDAF7880FAB
:104270009695879597F9089597F99F6780E870E07C
:1042800060E008959FEF80EC089500240A941616CC
:10429000170618060906089500240A941216130634
:1042A000140605060895092E0394000C11F48823C2
:1042B00052F0BB0F40F4BF2B11F460FF04C06F5FDE
:1042C0007F4F8F4F9F4F089557FD9058440F551FB4
:1042D00059F05F3F71F04795880F97FB991F61F088
:1042E0009F3F79F087950895121613061406551FFF
:1042F000F2CF4695F1DF08C0161617061806991F6B
:10430000F1CF86957105610508940895E894BB275F
:1043100066277727CB0197F908950BD0C4CFB5DF77
:1043200028F0BADF18F0952309F0A6CFABCF1124FF
:10433000EECFCADFA0F3959FD1F3950F50E0551F44
:10434000629FF001729FBB27F00DB11D639FAA27EA
:10435000F00DB11DAA1F649F6627B00DA11D661F39
:10436000829F2227B00DA11D621F739FB00DA11D5A
:10437000621F839FA00D611D221F749F3327A00D14
:10438000611D231F849F600D211D822F762F6A2FB0
:1043900011249F5750408AF0E1F088234AF0EE0F35
:1043A000FF1FBB1F661F771F881F91505040A9F742
:1043B0009E3F510570F060CFAACF5F3FECF3983E6F
:1043C000DCF3869577956795B795F795E7959F5FA9
:1043D000C1F7FE2B880F911D9695879597F9089543
:1043E00081B38F6081BB2898289A21B381E090E047
:1043F0000090FD1302C0880F991F0A94E2F7809580
:10440000822381BBE091CD13F091CE13309709F058
:10441000199508959FB7F894E9EFF3E110828EE9BA
:1044200081838AE0828383839FBF0895BF92CF9266
:10443000DF92EF92FF920F931F93CF93DF936B0165
:104440007C01B42E1092D01383E0841780F1642F86
:1044500070E080E090E0D3DE9B01AC0160E070E0B2
:1044600080E291E40E94D432A701960156DF20E059
:1044700030E040E05FE30E9414320E947F328EDE23
:10448000AB01772364F444275527461B570B21E0E3
:10449000483E83E058070CF420E011E00CC021E016
:1044A000403187E258070CF420E010E004C040E0FF
:1044B00050E021E010E00FB7F894222311F0AADFBA
:1044C00051C0CDEFD3E10F2EF9EFCF2EF3E1DF2E68
:1044D000F02D0F2EFAE0EF2EF12CF02DCA01B701CE
:1044E0000E943D34FC01E554FA4F80818A93462FA7
:1044F000572FCC15DD0591F743E050E04B195109DA
:1045000014161506F4F48091F9138C3F49F060E01D
:1045100019C0FC01E750FC4E30813C3F21F012C035
:1045200080E090E020E0FC01E750FC4E1082622F1A
:104530002F5F822F022E000C990B841795074CF3E6
:1045400001C060E0112331F0E62FF0E0E750FC4EAF
:1045500082E08083BB2031F0FA01E750FC4E80817D
:10456000816080830FBFDF91CF911F910F91FF90EA
:10457000EF90DF90CF90BF90089585B5856085BDA1
:10458000089585B5887F85BD81B38F6081BB08950F
:104590008F92AF92CF92EF920F931F93CF93DF93AF
:1045A000EC0180B38F6080BB81B38F6081BB209AA8
:1045B00080EF91E29F938F93812CA12CC12CE12C51
:1045C00000E010E020E240E063E080E10E94572D2F
:1045D0009093FF138093FE1389E187BD84B58260B9
:1045E00084BDEEE6F0E0808182608083CADFD093F4
:1045F000CE13C093CD130F900F90DF91CF911F91E9
:104600000F91EF90CF90AF908F9008951F920F92DF
:104610000FB60F9211240BB60F922F933F934F9327
:104620005F936F937F938F939F93AF93BF93EF931A
:10463000FF938091D013882369F12091D113309199
:10464000D213253F91E0390738F42F5F3F4F309365
:10465000D2132093D1131EC01092D2131092D113F3
:10466000E091CF132E2F30E090E004972817390700
:1046700014F4EF5F01C0E0E0E093CF13F0E0ED52FF
:10468000FC4EA9EFB3E12DEF33E181918D93A21799
:10469000B307D9F78091FD1390E00196837090786D
:1046A000992324F401978C6F9F6F01968093FD13DB
:1046B0009927FC01E750FC4E608160958091FE13C4
:1046C0009091FF130E94292EFF91EF91BF91AF911E
:1046D0009F918F917F916F915F914F913F912F911A
:1046E0000F900BBE0F900FBE0F901F901895653066
:1046F000F1F4FA0180818F7390E0982F882721814F
:10470000822B90930A02809309028281F0E48F9FAA
:10471000C0011124FA01238126952695822B9093BE
:1047200008028093070281E08093001408956430AA
:1047300051F080E090E490930802809307029093F8
:104740000A028093090208950F931F9307E713E26B
:1047500020E034E244EF50E060E087E20E946A30FB
:10476000909302148093011421E0892B09F020E03A
:10477000822F1F910F91089580910114909102143E
:10478000009759F040E060E070E00E94BB30843058
:1047900031F41092001480E0089582E0089583E0DF
:1047A00008958091011490910214009739F064E00B
:1047B0000E940731853021F083E0089582E008955A
:1047C00080E008956091090270910A0280E090E013
:1047D00016DD20E030E048EC52E49FDD20E038EFC9
:1047E0004FE756E473CC0895609107027091080278
:1047F00080E090E004DD20E030E045E253E48DDD30
:1048000020E038EF4FE756E461DC20E030E040E2A2
:1048100052E40C94133208950F931F93CF93DF93B8
:104820001F921F92CDB7DEB78C0119822DC0E09187
:104830006714EC3250F481E08E0F80936714F0E03F
:10484000E756FB4E8A81808302C0109267148A81EA
:104850008A30D1F44091671450E0FA01E956FB4EDA
:104860001082415051099E012F5F3F4F69E974E169
:1048700080916A1490916B140E9421118981811199
:104880000E949A0A10926714BE016E5F7F4FC801A2
:1048900016D6882361F20F900F90DF91CF911F9170
:1048A0000F9108950F931F93CF93DF938C01EB012A
:1048B00080916A1490916B140E941710B80183E0E4
:1048C00094E10E942636209779F0E3E0F4E101902C
:1048D0000020E9F7319780E290E091838083BE0168
:1048E00083E094E10E941B36E3E0F4E1DF010D90E8
:1048F0000020E9F711978DE09AE011969C938E9332
:1049000012961C9201900020E9F73197E350F44190
:10491000AE2F83E094E1AC016A2F80916C149091EA
:104920006D1478D5811111C008E215E020E030E067
:104930004DE250E063EF74E180916A1490916B1442
:104940000E94651183EF94E102C080E090E0DF9166
:10495000CF911F910F9108952F923F924F925F92A6
:104960006F927F928F929F92AF92BF92CF92DF927F
:10497000EF92FF920F931F93CF93DF935C01FC01A3
:1049800001900020E9F731976F01C81AD90A5C2C11
:104990000F2EFAE58F2EF8E09F2EF02DE12CF12C52
:1049A0004C2C3701F40101811281E80109900020AB
:1049B000E9F72197C01BD10B3C2EF9E0CF16D104AB
:1049C00058F0F4012080FEE02F1206C0B801C501A6
:1049D0000E94F635892B09F5442D351408F44C2F27
:1049E00050E0B801C5010E942D36892B49F4F3012E
:1049F000EE0FFF1FE60DF71DE65AF74F20800DC0A2
:104A00008FEFE81AF80AE3E08E0E911CF1E1EF1641
:104A1000F10439F66894222424F8822DDF91CF9195
:104A20001F910F91FF90EF90DF90CF90BF90AF90CC
:104A30009F908F907F906F905F904F903F902F90BE
:104A4000089530DF89CF089580916A1490916B1496
:104A50000C94171008958F929F92AF92CF92EF927D
:104A60000F931F93CF93C82F8B0141E060E070E05C
:104A700088EC90E00E94E20F90936B1480936A148C
:104A800010936914009368140F2EFCE08F2EF4E24B
:104A90009F2EF02D6894AA24A6F86894CC24C6F81A
:104AA000E12C00E023E040E051EE60E070E08C2F6C
:104AB000DED390936D1480936C14E7E0F1E0808175
:104AC00080618083CF911F910F91EF90CF90AF9035
:104AD0009F908F900895882331F0E8E0F1E0808185
:104AE0008F7E80830895E8E0F1E08081806180839B
:104AF000089560E070E08AEE95E0D4DEE3EFF4E143
:104B000001900020E9F73197E35FF44181E0759768
:104B100008F080E00895CF93DF93EC0160E070E04F
:104B20008BEF95E0BFDEE3EFF4E101900020E9F7C1
:104B3000E450F54139F463EF74E1CE010E9426366A
:104B400080E002C0188281E0DF91CF910895FC01DE
:104B500001900020E9F79F012151310928173907F9
:104B600029F4BC0189E296E06CCF089589E00895AC
:104B7000FC0101900020E9F79F012151310928171C
:104B8000390729F4BC0188E396E05BCF089589E0FA
:104B90000895FC0101900020E9F79F01215231099D
:104BA0002817390729F4BC0187E496E04ACF089515
:104BB00089E0089560E070E086E896E042CF0895CD
:104BC0000F931F93E82FF0E0EE0FFF1FEA5AF74F05
:104BD000608171818FE896E034DF811114C008E2B2
:104BE00015E020E030E04DE250E063EF74E18091A9
:104BF0006A1490916B140E946511882321F083EF51
:104C000094E1AADE03C083EF94E1A6DE1F910F9129
:104C100008950F931F93CF93DF931F92CDB7DEB705
:104C2000DB0111969C911197953108F0B4C099233E
:104C300081F160E070E0272F30E0462F50E0FD0169
:104C4000E40FF51F928192959F709A3010F0995C55
:104C500001C0905DF901EC57FB4E90832F5F3F4FF1
:104C6000FD01E40FF51F92819F70492F50E04A30FB
:104C7000510514F0995C01C0905DF901EC57FB4EB1
:104C800090837E5F6F5F11969C911197691798F2E0
:104C900001C070E0E72FF0E0EC57FB4E10824C9122
:104CA000811103C088E996E002C08AE996E024E811
:104CB00034E13F932F931F924F939F938F938EE9ED
:104CC00096E09F938F9386EC94E19F938F930E943D
:104CD000883660E070E086EC94E1B3DE0FB6F894BD
:104CE000DEBF0FBECDBF811159C008E215E020E044
:104CF00030E04DE250E063EF74E180916A149091EE
:104D00006B140E946511882309F447C083EF94E176
:104D100023DE8E3009F042C087E0898380916814D9
:104D200090916914892BA9F1BE016F5F7F4F83EFCA
:104D300094E168D180936E14E981F0E0ED50FB4E70
:104D4000DF010D900020E9F71197AE1BBF0BAA23DE
:104D500091F0BB27CD0101979C0112F42F5F3F4FCB
:104D60003595279520936F14AF014F5F5F4F64E136
:104D700080E794E173D101E010E020E030E046E10B
:104D800050E06EE674E180916814909169140E947D
:104D900063108EE003C084E101C080E00F90DF91DA
:104DA000CF911F910F910895813019F06EEA76E04E
:104DB00002C067E877E082EB96E043CE08959F93C8
:104DC0008F9383EE96E09F938F9386EC94E19F936D
:104DD0008F930E94883660E070E086EC94E131DECB
:104DE0000F900F900F900F900F900F9008952F92AB
:104DF0003F924F925F926F927F928F929F92AF926B
:104E0000BF92CF92DF92EF92FF920F931F93CF93B7
:104E1000DF93CDB7DEB7A0970FB6F894DEBF0FBE15
:104E2000CDBF60E177E08CE197E03CDD95DD81115D
:104E3000A3C080E2E2E2F2E0DE01119601900D9261
:104E40008A95E1F79E012F5F3F4F6901E12CF12C1C
:104E50000F2EF8E2AF2EF7E0BF2EF02D06EC14E196
:104E60000F2EF1E44F2EF7E05F2EF02D0F2EF8E518
:104E70008F2EF7E09F2EF02D0F2EF2E76F2EF7E02A
:104E80007F2EF02D3E2C2F2CFF92EF92BF92AF92EF
:104E90001F930F930E94883660E070E0C80102DD26
:104EA0005BDD0F900F900F900F900F900F9081117E
:104EB00063C032E03E15E8F4F60183818F9382816E
:104EC0008F9381818F9380818F93FF92EF925F9276
:104ED0004F921F930F930E94883660E070E0C801E4
:104EE000E1DC3ADD0FB6F894DEBF0FBECDBF811115
:104EF00043C02F923F929F928F921F930F930E94D5
:104F0000883660E070E0C801CDDC26DD0F900F90A0
:104F10000F900F900F900F9081112EC02F923F9203
:104F20007F926F921F930F930E94883660E070E02B
:104F3000C801B8DC11DD0F900F900F900F900F900B
:104F40000F90811119C03FEFE31AF30A84E0C80EF5
:104F5000D11C98E0E916F10409F094CF60E070E00C
:104F60008AE897E09FDCF8DC811106C060E070E021
:104F70008BE997E097DCF0DCA0960FB6F894DEBFE3
:104F80000FBECDBFDF91CF911F910F91FF90EF909A
:104F9000DF90CF90BF90AF909F908F907F906F9059
:104FA0005F904F903F902F900895EF92FF920F9354
:104FB0001F93CF93DF93EC018B017A0181E0F4DE44
:104FC00081110DC0CE01D4DD811109C0C801E1DD20
:104FD000811105C0C701BBDD811101C0EBDDDF918F
:104FE000CF911F910F91FF90EF90089590E0FC01F9
:104FF000EE0FFF1F8E0F9F1FFC01E65AF74F8181B6
:1050000092810895DC01009729F1FB012081FC01C8
:1050100001900020E9F73197E81BF90B822F90E00F
:10502000E817F907C8F080E008C0880F382F330F61
:10503000330F830F8053890F2F5FFD01E20FF11DA6
:10504000908130ED390F3A3010F49111EECFFB0121
:105050002083089580E0089580E008950F931F93C2
:10506000CF93DF93DC01EA012097E1F1FA0101908F
:105070000020E9F73197E41BF50B329710F532C0A9
:105080008D01040F151F30E0AE01420F531FFA01CE
:105090009081913428F09753592F5295507F03C037
:1050A000592F5295507F2C0F3D1FF901918191345A
:1050B00010F0975301C09053950FF80190838F5FC4
:1050C00001C080E0282F220F482F50E0FE01019000
:1050D0000020E9F73197EC1BFD0B4E175F0710F42A
:1050E0008613CECFDF91CF911F910F9108958091BC
:1050F0002315860F8093231590912615913079F012
:1051000028F09230A9F0933019F108956F3F09F01B
:1051100048C01092231581E08093261508956638C3
:1051200009F03FC01092221582E080932615089561
:10513000E091221581E08E0F80932215F0E0E05E71
:10514000FA4E6083823069F583E0809326150895D6
:105150009091221521E0290F20932215963009F510
:1051600081110EC0E0E2F5E1808190E0982F882760
:105170002181820F911D909328158093271504C0DB
:10518000109228151092271510922615E0912415DB
:10519000F0912515309729F08091271590912815C9
:1051A000199508958F929F92AF92CF92EF920F939D
:1051B0000F2EF7E78F2EF8E29F2EF02D6894AA2489
:1051C000A4F86894CC24C4F8E12C00E023E040E883
:1051D00055E260E070E04BD090932A15809329153A
:1051E0000F91EF90CF90AF909F908F900895CF93B5
:1051F000DF93CDB7DEB729970FB6F894DEBF0FBEA9
:10520000CDBF89E0E2E4F2E09E012F5F3F4FD9017C
:1052100001900D928A95E1F71092281510922715AA
:105220008091291590912A15009731F0422F532F24
:1052300069E0F0D080E001C082E029960FB6F894D2
:10524000DEBF0FBECDBFDF91CF910895209127150E
:10525000309128152115310529F4FC0111821082A5
:1052600081E00895FC013183208380E008952F922E
:105270003F924F925F926F927F928F929F92AF92E6
:10528000CF92EF92FF920F931F93CF93DF93CDB7FF
:10529000DEB7F82E2A013B0188E090E00E94C1347D
:1052A0008C018F2D90E0FC01EE0FFF1FE55DFA4EA3
:1052B000118300830115110509F46FC0880F991F30
:1052C000FC01E55FFD4F80819181D8018D939C9316
:1052D0006C2D70E084E090E00E94A7341C0161E036
:1052E00070E086E090E00E94A7347C014C2DB10173
:1052F0000E94F731F801F582E4826A2D70E084E0C3
:1053000090E00E94A7341C0161E070E086E090E02C
:105310000E94A7347C014A2DB1010E94F731D801C7
:105320001396FC92EE92129717969C928E92169775
:10533000FFB6F894ED91FC911197369780818260C9
:1053400080838D909C90C301B2010E94FF2020E0D9
:1053500030E040E051E40E948D219B01AC0160E00F
:1053600074E284E79BE40E94662020E030E040E89D
:105370005FE30E9413320E94D320F40132976083CE
:10538000D801ED91FC911197359788E98083ED91D3
:10539000FC91349786E08083FFBEC801DF91CF91F6
:1053A0001F910F91FF90EF90CF90AF909F908F90B3
:1053B0007F906F905F904F903F902F900895CF9384
:1053C000DF93DC01892B01F11296ED91FC9113978B
:1053D000938182812581981B922384819817B1F053
:1053E000838126952823C081D181C20FD11D688376
:1053F0008F5F958189238383ED91FC91359780811F
:105400008062808380E003C081E001C082E0DF91A0
:10541000CF910895EF92FF920F931F93CF93DF9355
:105420007C01009709F441C0DC011296ED91FC91DA
:10543000139793818281981B858198238481891B8E
:105440008617A8F1662341F1842F952FDC01615066
:10545000462F50E04F5F5F4F480F591FE701EA8129
:10546000FB81938182812581981B922384819817E7
:1054700079F08C91938126952923608171818B012C
:10548000020F111DE80188839F5F85819823938314
:105490001196A417B50711F7D701ED91FC91359737
:1054A00080818062808380E003C081E001C082E06F
:1054B000DF91CF911F910F91FF90EF90089500978A
:1054C000D1F0DC011496ED91FC91159793818281C6
:1054D000981799F09281858186958923A081B18161
:1054E000A80FB11D8C91DB018C939F5F8581982360
:1054F000928380E0089581E0089583E008951F92EB
:105500000F920FB60F9211240BB60F922F933F9369
:105510004F935F936F937F938F939F93AF93BF93BB
:10552000CF93DF93EF93FF93A0912B15B0912C15A0
:10553000109711F16091C6001496ED91FC911597AA
:10554000938182812581981B92238481981761F031
:10555000838126952823C081D181C20FD11D688304
:105560008F5F9581892383831696ED91FC91179720
:10557000309711F0CD011995FF91EF91DF91CF9107
:10558000BF91AF919F918F917F916F915F914F915B
:105590003F912F910F900BBE0F900FBE0F901F9059
:1055A00018951F920F920FB60F9211240BB60F92FF
:1055B0002F938F939F93AF93BF93EF93FF93E091BC
:1055C0002B15F0912C153097B9F00280F381E02D66
:1055D000938182819817B1F092818581282F269539
:1055E0002923A081B181A20FB11D2C919F5F892336
:1055F00082832093C6000BC0E1ECF0E080818F7DB8
:10560000808305C0E1ECF0E080818F7D8083FF9195
:10561000EF91BF91AF919F918F912F910F900BBE02
:105620000F900FBE0F901F9018951F920F920FB6FC
:105630000F9211240BB60F922F933F934F935F93CA
:105640006F937F938F939F93AF93BF93CF93DF938A
:10565000EF93FF93A0912D15B0912E15109711F196
:105660006091CE001496ED91FC9115979381828103
:105670002581981B92238481981761F08381269558
:105680002823C081D181C20FD11D68838F5F95818E
:10569000892383831696ED91FC911797309711F02B
:1056A000CD011995FF91EF91DF91CF91BF91AF910E
:1056B0009F918F917F916F915F914F913F912F912A
:1056C0000F900BBE0F900FBE0F901F9018951F925A
:1056D0000F920FB60F9211240BB60F922F938F9348
:1056E0009F93AF93BF93EF93FF93E0912D15F091AC
:1056F0002E153097B9F00280F381E02D93818281DD
:105700009817B1F092818581282F26952923A081B1
:10571000B181A20FB11D2C919F5F892382832093B9
:10572000CE000BC0E9ECF0E080818F7D808305C066
:10573000E9ECF0E080818F7D8083FF91EF91BF9154
:10574000AF919F918F912F910F900BBE0F900FBE35
:105750000F901F9018951F920F920FB60F92112461
:105760000BB60F922F933F934F935F936F937F935B
:105770008F939F93AF93BF93CF93DF93EF93FF9359
:10578000A0912F15B0913015109711F16091D600AE
:105790001496ED91FC911597938182812581981B38
:1057A00092238481981761F0838126952823C081F4
:1057B000D181C20FD11D68838F5F95818923838337
:1057C0001696ED91FC911797309711F0CD01199530
:1057D000FF91EF91DF91CF91BF91AF919F918F9109
:1057E0007F916F915F914F913F912F910F900BBEE1
:1057F0000F900FBE0F901F9018951F920F920FB62B
:105800000F9211240BB60F922F938F939F93AF9308
:10581000BF93EF93FF93E0912F15F09130153097E0
:10582000B9F00280F381E02D938182819817B1F065
:1058300092818581282F26952923A081B181A20FED
:10584000B11D2C919F5F892382832093D6000BC0CA
:10585000E1EDF0E080818F7D808305C0E1EDF0E037
:1058600080818F7D8083FF91EF91BF91AF919F9158
:105870008F912F910F900BBE0F900FBE0F901F9026
:1058800018951F920F920FB60F9211240BB60F921C
:105890002F933F934F935F936F937F938F939F9338
:1058A000AF93BF93CF93DF93EF93FF93A091311505
:1058B000B0913215109711F1609136011496ED9167
:1058C000FC911597938182812581981B9223848175
:1058D000981761F0838126952823C081D181C20F5A
:1058E000D11D68838F5F9581892383831696ED91FF
:1058F000FC911797309711F0CD011995FF91EF9119
:10590000DF91CF91BF91AF919F918F917F916F91D7
:105910005F914F913F912F910F900BBE0F900FBE53
:105920000F901F9018951F920F920FB60F9211248F
:105930000BB60F922F938F939F93AF93BF93EF93D9
:10594000FF93E0913115F09132153097B9F0028054
:10595000F381E02D938182819817B1F09281858146
:10596000282F26952923A081B181A20FB11D2C914A
:105970009F5F89238283209336010BC0E1E3F1E02E
:1059800080818F7D808305C0E1E3F1E080818F7DA0
:105990008083FF91EF91BF91AF919F918F912F9154
:1059A0000F900BBE0F900FBE0F901F901895CF93C6
:1059B000DF931F92CDB7DEB7BE016F5F7F4F80913F
:1059C0003315909134157BDD8111F6CF898190E0FC
:1059D0000F90DF91CF910895682F809133159091AA
:1059E0003415EDDC80E090E008958F929F92AF92A5
:1059F000CF92EF920F93812C912C6894AA24A7F850
:105A00006894CC24C7F8E12C00E023E040E051EE9C
:105A100060E070E02CDC9093341580933315E9E757
:105A2000F5E183E192E091838083938382830F91F8
:105A3000EF90CF90AF909F908F900895E0913615A2
:105A4000F09137153097F9F0A081B1811097D9F016
:105A50002381213069F44C9121E030E0028002C0C2
:105A6000220F331F0A94E2F7209524232C930BC0B6
:105A70004C9121E030E0028002C0220F331F0A94D3
:105A8000E2F7242B2C9390933715809336150097CB
:105A900069F0109238152CB52F732CBDFC012481B0
:105AA0002CBD85818DBD8CB580648CBD08954F92D1
:105AB0005F926F927F928F929F92AF92BF92CF929E
:105AC000DF92EF92FF920F931F93CF93DF93CDB7A7
:105AD000DEB7982EB62ED42EF22E80913515811178
