:1000000090C20000AFC20000ADC20000ABC2000051
:10001000A9C20000A7C20000A5C20000A3C2000040
:10002000A1C200009FC200009DC200009BC2000050
:100030000C94600B97C2000095C2000093C20000B0
:1000400091C200008FC200008DC200008BC2000070
:1000500089C200000C94D22385C2000083C2000034
:100060000C94632F0C94442B0C94962B7BC20000B1
:1000700079C2000077C2000075C2000073C20000A0
:1000800071C200006FC200006DC200006BC20000B0
:100090000C94DA2B0C942C2C65C200000C94FF31CC
:1000A00061C200005FC200005DC200005BC20000D0
:1000B00059C2000057C2000055C2000053C20000E0
:1000C00051C200004FC200004DC200000C94702CC1
:1000D0000C94C22C47C200000C94062D0C94582D91
:1000E00041C20000070207020702410249025F0203
:1000F00007020702410249022132913291329132C4
:100100009132913291329132213291329132913247
:100110009132913291329132233291329132913235
:1001200091329132913291329132913291329132B7
:100130009132913291329132233291329132913215
:100140009132913291329132913291329132913297
:1001500091329132913291328D329132913291328B
:1001600091329132913291325832913291329132B0
:100170009132913291329132913291329132913267
:1001800091329132913291324C329132913291329C
:100190009132913291329132703207634236B79B7D
:1001A000D8A71A39685618AEBAAB558C1D3CB7CCD7
:1001B0005763BD6DEDFD753EF6177231BF0000004F
:1001C000803F08000000BE922449123EABAAAA2A32
:1001D000BECDCCCC4C3E00000080BEABAAAAAA3E4D
:1001E00000000000BF000000803F00000000000889
:1001F0004178D3BB4387D1133D190E3CC3BD428226
:10020000AD2B3E68EC8276BED98FE1A93E4C80EFE3
:10021000FFBE01C4FF7F3F00000000000FEA12E1B3
:100220000F2EFFEDEF2EF2E1FF2EF02D8091AE129A
:10023000882329F10FB6F8940F92D8011796ED9103
:10024000FC911897C085D185CE0102960E94200AA4
:100250008091A21281508093A2128091AE1281509F
:100260008093AE120F900FBE8B8D9C8D0E949409CF
:10027000CE010E9494098091AE128111DBCFF7016B
:100280008081823010F00E949A0A0E94561ECECFC2
:10029000CF93DF93CDB7DEB760970FB6F894DEBF8C
:1002A0000FBECDBFCE0101969A878987812C912CF4
:1002B000A12CB12C69847A84E0915913F0915A13DE
:1002C0008081882309F413C10780F085E02D208008
:1002D0003180428053800E944B14CE0101960E94CF
:1002E000BF1D6B877C878D879E878981811167C041
:1002F0008B859C85AD85BE8582159305A405B505C6
:1003000008F445C00E948F15E0915913F0915A13DB
:100310000780F085E02DA085B185B88BAF87CD0132
:1003200002960E94200AEF85F889868982FF21C003
:100330004685578560897189420D531D641D751D61
:10034000720161010B851C852D853E85CF010E94C0
:10035000CE1C882399F0C82CD92CEA2CFB2C00E069
:1003600010E0A201910160E08F8598890E94611DD3
:1003700005C08E7FAF85B88956968C93AF85B889B6
:100380005496ED91FC915597CD011995A1C020E0AF
:10039000B201A1018B859C85AD85BE85481B590B9B
:1003A0006A0B7B0B80915513909156130E94DC0EC3
:1003B0000E948F1581118CC00E949A0A89C00E94E8
:1003C0008F1586C0898188230CF482C04E805F809F
:1003D000D2011C968D919C911D97892B21F0C20111
:1003E00002960E94200ACE0108960E94BF1D8B0132
:1003F0009C01E9810E2E000CFF0BEA30F10508F09C
:1004000067C08827EE58FF4F8F4F0C943735F201A5
:1004100086898160868BCA80DB80EC80FD80468582
:100420005785608971894C0D5D1D6E1D7F1DC20150
:100430000E94CE1C882309F44BC0D2015496ED9142
:10044000FC915597C2011995F201868982FF40C03F
:100450004A815B816C817D8186859785A089B18980
:100460009A01AB01280F391F4A1F5B1FC82CD92CDA
:10047000EA2CFB2C00E010E060E0C2010E94611D4C
:1004800027C0D20156968C9156978E7F56968C93A4
:100490001FC0F20186898160868B4A815B816C81F5
:1004A0007D8146875787608B718B400F511F621F7C
:1004B000731F68017901C2010E94CE1C09C0F201BC
:1004C000868981FD03C0C2012FD702C08E7F868B33
:1004D000282D392D4A2D5B2D662D772D80915513B2
:1004E000909156130E94750D81116CCFE5CE0E943C
:1004F0004B14CE0101960E94BF1D6B877C878D87B0
:100500009E87898181115BCFE0915713F091581339
:10051000808121E0811120E0282C392C4A2C5B2C91
:1005200037CF11241FBECFEFD1E2DEBFCDBF00E039
:100530000CBF18E0A0E0B2E0E4E5F4E700E00BBF98
:1005400002C007900D92A23BB107D9F725E1A2EBBB
:10055000B8E001C01D92A53BB207E1F70E9425213A
:100560000C94283A4DCD0F2EF8EECF2EF3E0DF2E6F
:10057000E12CF12CF02DC4E080919615882321F018
:100580008FE692E00E941D370E94BC298093961549
:100590008091991590919A15EBD220E030E04AEFC6
:1005A00053E40E9459220E949F219B01AC01AEE3BB
:1005B000B0E00E943F35A70196010E941535CA019F
:1005C000B9010E94751682B18C2782B98091991564
:1005D00090919A15CDD220E030E04AEF53E40E948A
:1005E00059220E949F219B01AC01AEE3B0E00E9422
:1005F0003F35A70196010E941535CA01B9010E9435
:10060000751682B18C2782B987E995E10E94EB29A2
:1006100060919715709198158091991590919A1500
:1006200087D28091991590919A15E7D2A5CFEF9234
:10063000FF920F9390939A158093991586E892E014
:100640000E941D37E12CF12C01E021E030E040EC6C
:1006500050E06CE972E083EB92E00E94D9120F91B6
:10066000FF90EF90089504EA12E00F2EF8EECF2EDF
:10067000F3E0DF2EE12CF12CF02D6894BB24B1F8CF
:10068000C8ECD2E00E948824882331F01F930F9396
:100690000E940A370F900F9080919B1590919C15A6
:1006A00026D320E030E04AEF53E40E9459220E9412
:1006B0009F219B01AC01AEE3B0E00E943F35A70152
:1006C00096010E941535CA01B9010E94751682B1C2
:1006D0008B2582B90E949D24882331F0DF93CF932C
:1006E0000E940A370F900F9080919B1590919C1556
:1006F000FED220E030E04AEF53E40E9459220E94EB
:100700009F219B01AC01AEE3B0E00E943F35A70101
:1007100096010E941535CA01B9010E94751682B171
:100720008B2582B90E94AE24AB01BC014093B20874
:100730005093B3086093B4087093B50880919B15EB
:1007400090919C15ACD280919B1590919C15F4D200
:1007500080919B1590919C15EFD280919B15909163
:100760009C150FD38FCFEF92FF920F9390939C1510
:1007700080939B158AEE92E00E941D37E12CF12CAC
:1007800001E021E030E040EC50E065E073E083E31D
:1007900093E00E94D9120F91FF90EF9008950F2ED1
:1007A000F4E68F2EF02D0F2EF8EECF2EF3E0DF2E95
:1007B000E12CF12CF02D6894992496F86894AA24E1
:1007C000A5F86894BB24B4F882B1805882B989D462
:1007D000EC018DD48C01CE018ED4809EB001819E1F
:1007E000700D1124860F971FBC01990F880B990B70
:1007F0000E94CD2120E030E048EC52E40E943221FA
:1008000042E00E94E22220E030E04AE754E46091B6
:100810009D1570919E1580919F159091A0150E9435
:1008200059220E949F219B01AC01AEE3B0E00E94DF
:100830003F35A70196010E941535CA01B9010E94F2
:10084000751682B1805882B982B1892582B99ED34A
:1008500036D342E00E94E22220E030E04AE754E44E
:1008600060919D1570919E1580919F159091A01596
:100870000E9459220E949F219B01AC01AEE3B0E08F
:100880000E943F35A70196010E941535CA01B901A2
:100890000E94751682B1892582B982B18A2582B9F2
:1008A0007AD34AD242E00E94E22220E030E04AE7D6
:1008B00054E460919D1570919E1580919F159091C3
:1008C000A0150E9459220E949F219B01AC01AEE31A
:1008D000B0E00E943F35A70196010E941535CA017C
:1008E000B9010E94751682B18A2582B982B18B2521
:1008F00082B956D363D1BC01990F880B990B0E9422
:10090000CD2140E00E94E22220E030E04AE754E4BA
:1009100060919D1570919E1580919F159091A015E5
:100920000E9459220E949F219B01AC01AEE3B0E0DE
:100930000E943F35A70196010E941535CA01B901F1
:100940000E94751682B18B2582B93ECFEF92FF923D
:100950000F9360939D1570939E1580939F159093B0
:10096000A01580E090E00E9494230E94892383E1F7
:1009700093E00E941D37E12CF12C01E021E030E0F2
:1009800040EC50E060E373E08FEC93E00E94D912FA
:100990000F91FF90EF90089504EA12E00F2EF8EE09
:1009A000CF2EF3E0DF2EE12CF12CF02DBB24B394FD
:1009B000C7E4D3E00E948824882331F01F930F936B
:1009C0000E940A370F900F908091A1159091A21567
:1009D00051D220E030E04AEF53E40E9459220E94B5
:1009E0009F219B01AC01AEE3B0E00E943F35A7011F
:1009F00096010E941535CA01B9010E94751682B18F
:100A00008B2582B90E949D24882331F0DF93CF93F8
:100A10000E940A370F900F908091A1159091A21516
:100A200029D220E030E04AEF53E40E9459220E948C
:100A30009F219B01AC01AEE3B0E00E943F35A701CE
:100A400096010E941535CA01B9010E94751682B13E
:100A50008B2582B90E94C024AB01BC014093B6082B
:100A60005093B7086093B8087093B9088091A115A6
:100A70009091A215D7D18091A1159091A2151FD266
:100A80008091A1159091A2151AD28091A1159091F3
:100A9000A2153AD28FCFEF92FF920F939093A215A7
:100AA0008093A1158CE693E00E941D37E12CF12C78
:100AB00001E021E030E040EC50E06AE873E08CECCB
:100AC00094E00E94D9120F91FF90EF900895CF9279
:100AD000DF92EF92FF920F93CF93DF936B017C0134
:100AE00061E070E08AE090E00E946C35EC01892BB7
:100AF000B1F0C882D982EA82FB821D821C82B2D206
:100B00009987888743E060E081E0F0D69F838E83F9
:100B100000E020E030E0A90160E070E008D7CE01FD
:100B2000DF91CF910F91FF90EF90DF90CF900895DC
:100B30000F931F93CF93DF93EC018B014FEF5FEF88
:100B4000BA018E819F810E940E0E1D830C838885C1
:100B50009985A0D200E020E030E0A90160E070E0DB
:100B60008E819F81E4D6DF91CF911F910F910895DF
:100B7000CF92DF92EF92FF920F93CF93DF93EC012E
:100B80004FEF5FEFBA018E819F810E940E0EC880E9
:100B9000D980EA80FB8000E020E030E0A90160E03D
:100BA00070E08E819F81C3D6C701B601DF91CF91DE
:100BB0000F91FF90EF90DF90CF900895EF92FF920A
:100BC0000F93CF93DF93EC014FEF5FEFBA018E816C
:100BD0009F810E940E0EEC80FD8000E020E030E05E
:100BE000A90160E070E08E819F81A1D6C701DF91ED
:100BF000CF910F91FF90EF900895EF92FF920F9396
:100C0000CF93DF93EC014FEF5FEFBA018E819F81AD
:100C10000E940E0EE884F98400E020E030E0A90193
:100C200060E070E08E819F8182D6C701DF91CF9115
:100C30000F91FF90EF900895CF92DF92EF92FF9285
:100C40000F93CF93DF936B017C0161E070E08CE048
:100C500090E00E946C35EC01892BC1F0C882D982EA
:100C6000EA82FB821C821D821E821F82FBD19B872F
:100C70008A8743E060E081E039D69987888700E081
:100C800020E030E0A90160E070E051D6CE01DF91B4
:100C9000CF910F91FF90EF90DF90CF900895CF927A
:100CA000DF92EF92FF920F93CF93DF93EC016A01F3
:100CB0007B014FEF5FEFBA0188859985AFD7CC8272
:100CC000DD82EE82FF828A859B85E4D100E020E010
:100CD00030E0A90160E070E08885998528D6DF9131
:100CE000CF910F91FF90EF90DF90CF900895CF922A
:100CF000DF92EF92FF920F93CF93DF93EC014FEFD0
:100D00005FEFBA018885998589D7C880D980EA8044
:100D1000FB8000E020E030E0A90160E070E0888521
:100D2000998505D6C701B601DF91CF910F91FF904C
:100D3000EF90DF90CF900895CF92DF92EF92FF92E5
:100D40000F93CF93DF93EC014FEF5FEFBA018885EC
:100D5000998564D7CC80DD80EE80FF8000E020E0C4
:100D600030E0A90160E070E088859985E0D5C70191
:100D7000B601DF91CF910F91FF90EF90DF90CF9070
:100D80000895EF92FF920F93CF93DF93EC014FEF13
:100D90005FEFBA018885998541D7EA84FB8400E03A
:100DA00020E030E0A90160E070E088859985BFD53A
:100DB000C701DF91CF910F91FF90EF900895CF92EF
:100DC000DF92EF92FF920F93CF93DF936B017C0141
:100DD00061E070E08CE090E00E946C35EC01892BC2
:100DE000C1F0C882D982EA82FB821C821D821E82E7
:100DF0001F8238D19B878A8743E060E081E076D507
:100E00009987888700E020E030E0A90160E070E089
:100E10008ED5CE01DF91CF910F91FF90EF90DF90B3
:100E2000CF900895CF92DF92EF92FF920F93CF93DE
:100E3000DF93EC016A017B014FEF5FEFBA01888518
:100E40009985ECD6CC82DD82EE82FF828A859B85F5
:100E500021D100E020E030E0A90160E070E0888569
:100E6000998565D5DF91CF910F91FF90EF90DF903D
:100E7000CF900895CF92DF92EF92FF920F93CF938E
:100E8000DF93EC014FEF5FEFBA0188859985C6D6F5
:100E9000C880D980EA80FB8000E020E030E0A90132
:100EA00060E070E08885998542D5C701B601DF9181
:100EB000CF910F91FF90EF90DF90CF900895CF9258
:100EC000DF92EF92FF920F93CF93DF93EC014FEFFE
:100ED0005FEFBA0188859985A1D6CC80DD80EE8050
:100EE000FF8000E020E030E0A90160E070E088854C
:100EF00099851DD5C701B601DF91CF910F91FF9064
:100F0000EF90DF90CF900895EF92FF920F93CF93E1
:100F1000DF93EC014FEF5FEFBA01888599857ED6AC
:100F2000EA84FB8400E020E030E0A90160E070E0AA
:100F300088859985FCD4C701DF91CF910F91FF90EF
:100F4000EF90089560E070E080E09FE3FFDC60E0F8
:100F500070E080E89FE333DF9093A6158093A5159A
:100F60009ADD60E070E080E89FE366DE9093A8156C
:100F70008093A715F8DB60E070E080E89FE3A7DDD1
:100F80009093A4158093A31552CB08958091A51535
:100F90009091A61508958091A7159091A815089590
:100FA0008091A3159091A41508956EE370E080E000
:100FB00090E00E947516E091A915F091AA1582851E
:100FC0009385019693878287CC977CF38085918562
:100FD00001969187808713861286CC9734F3868199
:100FE0009781019697838683118610864897ECF245
:100FF00017821682DACFEF92FF920F938091A91594
:101000009091AA15892B51F561E070E08CE090E099
:101010000E946C35FC019093AA158093A915892B29
:10102000E9F01182108213821282158214821782D3
:101030001682118610861386128680EA93E00E943B
:101040001D37E12CF12C01E021E030E040EC50E0D4
:101050006AEB73E085ED97E00E94D9120F91FF9043
:10106000EF900895C8DF61E070E08CE090E00E94AE
:101070006C35FC01892B61F011821082138212827F
:1010800015821482178216821186108613861286A4
:10109000CF010895CF93DF93EC01ADDFE091A91567
:1010A000F091AA158081918199838883E091A91597
:1010B000F091AA15828193819B838A838481958193
:1010C0009D838C83868197819F838E838085918584
:1010D00099878887828593859B878A87DF91CF91BF
:1010E000089589DF8091A9159091AA150895FC01B2
:1010F000868197810895FC01808591850895CF931D
:10110000DF93DC01E6ECF8E001C0F90120813181D8
:101110002A173B07D0F382819381AF01480F591FF3
:10112000A417B50749F412964D915C911397840F5B
:10113000951F93838283DF0112968D919C91139763
:10114000ED01C80FD91F2C173D07D9F42091C40811
:101150003091C508C217D30781F02A813B81820FE5
:10116000931F13969C938E931297C081D18188818F
:10117000998111969C938E9307C01196DC93CE9320
:1011800003C011963C932E93AE17BF0711F0B183A5
:10119000A083DF91CF910895CF92DF92EF92FF92DB
:1011A0000F931F93CF93DF93EC010E944B14809118
:1011B000C4089091C508892B41F5E6ECF8E0AAEC4B
:1011C000B8E0B183A08313821282EAE8F2E1F093DF
:1011D000C508E093C408138212821182108280EC49
:1011E00099E013969C938E931297ED93FC939093B2
:1011F000C1088093C0089093C3088093C20880E020
:1012000090E89093BB088093BA08E090BA08F090F9
:10121000BB08C7018C239D23892B09F075C020973B
:1012200009F475C09E012C5F3F4FC217D30708F029
:101230006EC02115310509F467C00091C2081091F4
:10124000C3080217130708F45FC0C091C608D09105
:10125000C708E6ECF8E002C0FE01EC018A819B8140
:101260008217930720F4888199810097A9F78091CC
:10127000C4089091C508C817D90709F445C0C080B3
:10128000D18084E0C80ED11C8881998191838083AC
:101290004A815B81421B530B4930510548F0CE0116
:1012A000820F931FFC01538342833B832A8327DFF2
:1012B0008A819B81081B190B1093C3080093C208F5
:1012C0002091C0083091C1080217130720F4109331
:1012D000C1080093C008E82AF92AFB82EA82198231
:1012E00018828091BE089091BF0801969093BF0824
:1012F0008093BE080E948F15C114D10459F40E9436
:101300005C1EC12CD12C06C00E948F15F8CF0E9404
:101310008F15F5CFC601DF91CF911F910F91FF90EF
:10132000EF90DF90CF900895CF93DF93009799F1DE
:10133000FC013497228133814091BA085091BB0857
:10134000B90164237523672B31F160817181672BAB
:1013500011F5EF01409550952423352333832283E3
:101360000E944B142091C2083091C3088A819B814E
:10137000820F931F9093C3088093C208CE01BFDEF3
:101380008091BC089091BD0801969093BD08809310
:10139000BC080E948F15DF91CF910895FC01039640
:1013A000928381834FEF5FEFBA0143835483658358
:1013B0007683908787839287818710820895FC01C6
:1013C0001386128608950F931F93CF93DF93EB013B
:1013D000088119812A813B810F3F4FEF14072407B1
:1013E000340721F4FC01A185B28511C0DC011396FC
:1013F00001C0DF011496ED91FC9115974081518158
:1014000062817381041715072607370790F7149632
:10141000ED91FC911597FD83EC83D783C683BF8341
:10142000AE831596DC93CE9314979B878A87FC0135
:1014300020812F5F2083DF91CF911F910F9108951D
:10144000CF93DF93FC01A285B385C481D5818681CA
:1014500097819F838E83C681D781848195819D8367
:101460008C8311968D919C911297E817F90731F4AE
:101470008681978112969C938E931197138612867C
:101480008C9181508C938C91DF91CF910895FC01C8
:101490006083319770833197108231971082319732
:1014A00020E8208331971082319710823197108283
:1014B000779740833197508386970895A89590EC4D
:1014C00088E10FB6F894A895809360000FBE9093C2
:1014D0006000A0914D13B0914E13CD91CDBFDD9121
:1014E000DEBFFF91EF91DF91CF91BF91AF919F91BF
:1014F0008F917F916F915F914F913F912F911F91AC
:101500000F91FF90EF90DF90CF90BF90AF909F90A2
:101510008F907F906F905F904F903F902F901F9093
:101520000F900CBE0F900BBE0F900FBE0F90089542
:1015300081E008950F920FB6F8940F920BB60F92B8
:101540000CB60F921F9211242F923F924F925F92EE
:101550006F927F928F929F92AF92BF92CF92DF92C3
:10156000EF92FF920F931F932F933F934F935F93AD
:101570006F937F938F939F93AF93BF93CF93DF939B
:10158000EF93FF93A0914D13B0914E130DB60D92B2
:101590000EB60D920E948E16A0914D13B0914E136F
:1015A000CD91CDBFDD91DEBFFF91EF91DF91CF9166
:1015B000BF91AF919F918F917F916F915F914F916B
:1015C0003F912F911F910F91FF90EF90DF90CF905F
:1015D000BF90AF909F908F907F906F905F904F9053
:1015E0003F902F901F900F900CBE0F900BBE0F904E
:1015F0000FBE0F9008950F920FB6F8940F920BB68E
:101600000F920CB60F921F9211242F923F924F927D
:101610005F926F927F928F929F92AF92BF92CF9282
:10162000DF92EF92FF920F931F932F933F934F936D
:101630005F936F937F938F939F93AF93BF93CF935A
:10164000DF93EF93FF93A0914D13B0914E130DB61E
:101650000D920EB60D9213BE0E945F1481110E946E
:101660008E16A0914D13B0914E13CD91CDBFDD914B
:10167000DEBFFF91EF91DF91CF91BF91AF919F912D
:101680008F917F916F915F914F913F912F911F911A
:101690000F91FF90EF90DF90CF90BF90AF909F9011
:1016A0008F907F906F905F904F903F902F901F9002
:1016B0000F900CBE0F900BBE0F900FBE0F900895B1
:1016C0009ADF18950FB6F8940F92FC01968D0F9043
:1016D0000FBE81E0911180E008950F931F93CF9387
:1016E000DF93EC01042F1E8D48A141110CC08881AD
:1016F0009981892B09F042C08C819D810E94261915
:101700001D821C8242C0011117C050E08A819B815A
:101710000E94AB3628A18A819B81820F911D9B83F9
:101720008A832C813D818217930750F188819981AA
:101730009B838A8380E029C050E08E819F810E9434
:10174000AB3688A190E09195819591092E813F81DA
:10175000280F391F3F832E8348815981241735076D
:1017600030F42C813D81820F931F9F838E83023042
:1017700049F4112349F0115080E007C080E005C012
:1017800080E003C080E001C080E01F5F1E8FDF911A
:10179000CF911F910F910895FC0140A14423A9F01E
:1017A00050E026813781240F351F378326838481BB
:1017B00095812817390720F080819181978386834E
:1017C000CB01668177810C94AB360895EF92FF923E
:1017D0000F931F93CF938C010FB6F8940F92FC01D7
:1017E000C2A11C16ACF48389811106C011C0F80196
:1017F0008389811105C00CC07801F3E1EF0EF11C63
:10180000C7010E94581781110E948818C15079F7AA
:101810008FEFF80182A30F900FBE0FB6F8940F92CE
:10182000C1A11C16ACF48085811106C011C0F8015D
:101830008085811105C00CC07801F8E0EF0EF11C25
:10184000C7010E94581781110E948818C15079F76A
:101850008FEFF80181A30F900FBECF911F910F91D1
:10186000FF90EF900895CF93DF93EC010FB6F894BB
:101870000F92E881F9818F8D28A190E030E0829F5E
:10188000A001839F500D929F500D11244E0F5F1F9A
:101890005D834C831E8EFB83EA830197829FA001A8
:1018A000839F500D929F500D1124CF01840F951FDF
:1018B0009F838E838FEF89A38AA361110BC08885D4
:1018C000882371F0CE0108960E945817882341F0B2
:1018D00031DE06C0CE01089661DDCE0143965EDDA5
:1018E0000F900FBE81E0DF91CF9108950F931F936A
:1018F000CF93DF93082F162F869FC0011124839664
:101900004BDCEC01009769F0111103C099838883C7
:1019100003C08396998388830F8F18A361E0CE015B
:10192000A2DFCE01DF91CF911F910F9108959F9279
:10193000AF92BF92CF92DF92EF92FF920F931F93DD
:10194000CF93DF93CDB7DEB729970FB6F894DEBFFC
:101950000FBECDBF7C015B012E833F834887598733
:1019600010E0992493946C0188E0C80ED11C0FB646
:10197000F8940F92F701968D878D981710F002302A
:10198000B1F4402FB501C701A8DEF701938999236F
:1019900041F0C70143960E945817882321F0CADD01
:1019A00002C08111C7DD0F900FBE81E051C08E8152
:1019B0009F81A885B985892B8A2B8B2B21F40F90C9
:1019C0000FBE80E045C0111105C0CE0101960E94F6
:1019D0001E18192D0F900FBE5ED70FB6F8940F92F8
:1019E000F70181A18F3F09F411A2F70182A18F3F76
:1019F00009F412A20F900FBEBE016A5F7F4FCE01A5
:101A000001960E942F1881111EC00FB6F8940F92F4
:101A1000F701968D878D0F900FBE98130FC04E81E2
:101A20005F8168857985C6010E94FF16C701CEDEF9
:101A30000E948F1581119BCF7DDD99CFC701C6DE36
:101A40000E948F1594CFC701C1DE0E948F1580E0E0
:101A500029960FB6F894DEBF0FBECDBFDF91CF91B0
:101A60001F910F91FF90EF90DF90CF90BF90AF90BC
:101A70009F900895EF92FF920F931F93CF93DF9360
:101A80008A01FC01568D378D531710F02230F9F47E
:101A9000422F7801EC011AA18E8DCE011EDE1F3F70
:101AA00081F48B898823A9F0CE0143960E945817B0
:101AB000882389F0E114F10481F081E0F70180834B
:101AC0000DC0FF24F394F10EFAA281E007C080E07C
:101AD00005C081E003C081E001C081E0DF91CF91CA
:101AE0001F910F91FF90EF9008959F92AF92BF9238
:101AF000CF92DF92EF92FF920F931F93CF93DF93DA
:101B0000CDB7DEB729970FB6F894DEBF0FBECDBFB5
:101B10008C015B012E833F8348875987E12C9924F0
:101B200093946C0183E1C80ED11C0FB6F8940F9208
:101B3000F801F68CFF2099F0B501C8012DDEFA946A
:101B4000F801F68E8085882331F0C80108960E943E
:101B500058178111EFDC0F900FBE81E04DC08E81D0
:101B60009F81A885B985892B8A2B8B2B21F40F9017
:101B70000FBE80E041C0E11005C0CE0101960E9479
:101B80001E18E92C0F900FBE86D60FB6F8940F9250
:101B9000F80181A18F3F09F411A2F80182A18F3FC2
:101BA00009F412A20F900FBEBE016A5F7F4FCE01F3
:101BB00001960E942F18811116C0C80183DD882369
:101BC00071F04E815F8168857985C6010E94FF169C
:101BD000C801FCDDA4D78111A8CFACDCA6CFC80119
:101BE000F5DD9DD7A2CFC801F1DD99D7C8016ADD27
:101BF000882309F49ACF80E029960FB6F894DEBFC7
:101C00000FBECDBFDF91CF911F910F91FF90EF904D
:101C1000DF90CF90BF90AF909F900895BF92CF92EA
:101C2000DF92EF92FF920F931F93CF93DF93CDB785
:101C3000DEB729970FB6F894DEBF0FBECDBF8C017B
:101C40004E835F8368877987B12CD12CCC24C394D1
:101C50007C0183E1E80EF11C0FB6F8940F92D801D5
:101C60005E968C915E978823E1F081505E968C930E
:101C70005E978D919C91892B29F40E94E819F801B7
:101C800095838483D80118968C91882331F0C801FC
:101C900008960E94581781114DDC0F900FBE81E00D
:101CA0007BC08E819F81A885B985892B8A2B8B2B40
:101CB00021F40F900FBE80E06FC0D11005C0CE019F
:101CC00001960E941E18DC2C0F900FBEE4D50FB6B3
:101CD000F8940F92F80181A18F3F09F411A2D80165
:101CE00092968C9192978F3F11F492961C920F903E
:101CF0000FBEBE016A5F7F4FCE0101960E942F1872
:101D0000811125C0C801DEDC8823E9F0F80180815B
:101D10009181892B51F40FB6F8940F9284819581AB
:101D20000E949F18B82E0F900FBE4E815F8168856C
:101D30007985C7010E94FF16C80148DDF0D68111E0
:101D40008BCFF8DB89CFC80141DDE9D685CFC8014B
:101D50003DDDE5D6C801B6DC882309F47DCFBB2084
:101D6000D1F00FB6F8940F92F8018389882339F0E7
:101D7000028CF38DE02D80816AE0681B01C060E079
:101D8000D80114968D919C9115970E9481190F90FE
:101D90000FBE80E001C080E029960FB6F894DEBF48
:101DA0000FBECDBFDF91CF911F910F91FF90EF90AC
:101DB000DF90CF90BF900895CF93DF93EC010FB6E3
:101DC000F8940F9289A18F3F09F419A28AA18F3F3D
:101DD00009F41AA20F900FBE8E8D811104C0CE019E
:101DE00043960E941617CE01F1DCDF91CF91089542
:101DF000FC014481558122813381240F351F80816C
:101E00009181B901681B790BCB016417750710F03C
:101E1000841B950B0895AF92BF92CF92DF92EF9201
:101E2000FF920F931F93CF93DF936C015B017A01B5
:101E3000FC01C281D381048115810C1B1D0B40174D
:101E4000510708F48A01F60184859585A801B5013A
:101E50008C0F9D1F0E94AB360E151F0558F4A7016D
:101E6000401B510BB501600F711FF60184859585EC
:101E70000E94AB36CE018E0D9F1DF6012481358167
:101E80008217930710F0821B930BF60193838283D2
:101E9000C701DF91CF911F910F91FF90EF90DF90DD
:101EA000CF90BF90AF900895CF92DF92EF92FF92C4
:101EB0000F931F93CF93DF931F921F92CDB7DEB77F
:101EC0005A83498321153105C9F06B017C01FC015E
:101ED000868580FD08C0CA012417350708F4C901AA
:101EE0009A83898311C02017310758F042E050E0EF
:101EF000BE016F5F7F4FC7018EDF06C080E090E0BC
:101F000008C080E090E005C049815A81B601C70150
:101F100082DF0F900F90DF91CF911F910F91FF9073
:101F2000EF90DF90CF900895AF92BF92CF92DF9263
:101F3000EF92FF920F931F93CF93DF937C015B018E
:101F4000E9014217530708F4EA01209779F1F701F4
:101F500000811181C480D580C01AD10ACC15DD055D
:101F600008F46E01F70164857585600F711FA60185
:101F7000C5010E94AB36CC16DD0658F4AE014C19F3
:101F80005D09F70164857585C5018C0D9D1D0E9455
:101F9000AB360C0F1D1FF7018481958108171907B7
:101FA00010F0081B190BF70111830083CE01DF919C
:101FB000CF911F910F91FF90EF90DF90CF90BF9046
:101FC000AF900895FF920F931F93CF93DF938B01F0
:101FD000FF24F394413009F0F12C0115110511F49F
:101FE00001E010E09C01205F3F4F82179307B0F49F
:101FF000EC012196C901D0D8FC01892B89F08FE032
:10200000DF011D928A95E9F7CF010F9695878487A6
:10201000D583C48317830683F68602C0E0E0F0E030
:10202000CF01DF91CF911F910F91FF9008950FB6CF
:10203000F8940F92DC0118962D913C911997232B5F
:1020400051F51A962D913C911B97232B31F51E9635
:102050002C911E9716964D915C91179714966D9141
:102060007C9115971C96ED91FC911D973FE01D9278
:102070003A95E9F7DC011D96FC93EE931C971596B3
:102080007C936E93149717965C934E9316971E96B7
:102090002C9381E003C080E001C080E00F900FBE70
:1020A0000895FC0124813581808191814281538191
:1020B000820F931F0197841B950B8217930710F0D3
:1020C000821B930B08952F923F924F925F926F92D3
:1020D0007F928F929F92AF92BF92CF92DF92EF92B8
:1020E000FF920F931F93CF93DF93CDB7DEB72B975C
:1020F0000FB6F894DEBF0FBECDBF4C017B876A8759
:102100001A010E831F8328873987FC0184819581FA
:102110000197268520FF0CC02A01F2E04F0E511CCA
:102120008415950550F41E821F821886198645C0B5
:102130002A018417950708F42C018E819F81A885B8
:10214000B985892B8A2B8B2B09F437C0CE010196D8
:102150005FD70FB6F8940F92C401A3DF3C0184153A
:10216000950530F560E080E090E00E94B41CD4D783
:10217000F401938782870F900FBEAE80BF80C88422
:10218000D984E12CF12C00E010E0980140E050E00F
:10219000BA0180E00E94FA19F40113861286BE018A
:1021A0006A5F7F4FCE0101965AD7882391F202C011
:1021B0000F900FBE6114710419F4C40172DF3C0169
:1021C00082019301A1016A857B85C4016DDE6C01EA
:1021D000892BE9F0C4010CDEF401268137818217D6
:1021E0009307A8F058D3F40180859185892B71F06D
:1021F00080859185E12CF12C00E020E030E0A90100
:1022000060E00E94A21AF4011186108688D4C601EB
:102210002B960FB6F894DEBF0FBECDBFDF91CF91E6
:102220001F910F91FF90EF90DF90CF90BF90AF90F4
:102230009F908F907F906F905F904F903F902F90E6
:102240000895AF92BF92CF92DF92EF92FF920F93D9
:102250001F93CF93DF93EC017B015A0169018E85B7
:1022600080FF04C08A010E5F1F4F01C08A01CE01AA
:1022700018DF9C01A501B701CE0116DE5C01892B98
:10228000C1F0CE01B5DD2E813F818217930788F022
:1022900088859985892B69F088859985E12CF12CB1
:1022A00000E020E030E0A90160E00E94961B198662
:1022B0001886C501DF91CF911F910F91FF90EF908C
:1022C000DF90CF90BF90AF9008952F923F924F92A2
:1022D0005F926F927F928F929F92AF92BF92CF92B6
:1022E000DF92EF92FF920F931F93CF93DF931F9292
:1022F0001F92CDB7DEB74C011B012A0158016901BD
:10230000FC01868580FD03C0612C712C04C068949B
:10231000662461F8712CA114B104C104D10449F1FF
:102320000FB6F8940F92C40163DD8C01681679062C
:1023300048F060E080E090E00E94B41CEDD6F4012B
:10234000918780870F900FBE60167106C0F0E12C58
:10235000F12C00E010E0980140E050E0BA0180E08C
:102360000E94FA19F40111861086C40141DD8C0126
:1023700003C0C4013DDD8C0160167106C8F561140F
:102380007104C1F0F401C080D1809801A301BE01A5
:102390006F5F7F4FC401C8DD89819A8106191709D3
:1023A0004816590630F4F401D182C082412C512CD8
:1023B00001C02C019801A201B101C401B5DD6C017D
:1023C000892BC1F068D2F40182859385892B71F045
:1023D00082859385E12CF12C00E020E030E0A9011A
:1023E00060E00E94A21AF4011386128698D302C0FC
:1023F000C12CD12CC6010F900F90DF91CF911F916E
:102400000F91FF90EF90DF90CF90BF90AF909F9093
:102410008F907F906F905F904F903F902F90089596
:10242000E091C712F091C812808181110CC08FEF2A
:102430009FEFDC018093911290939212A0939312DC
:10244000B09394120895E091C712F091C8120780DA
:10245000F085E02D80819181A281B38180939112DA
:1024600090939212A0939312B093941208958F9226
:102470009F92AF92BF92CF92DF92EF92FF92CF9353
:10248000DF936B017C01C42F80909E1290909F126D
:10249000A090A012B090A11280914D1390914E1374
:1024A00002960E94200A8FEFC816D806E806F806A2
:1024B000B1F5CC23A1F1E3EAF2E1A181B281C091AF
:1024C0004D13D0914E13BF83AE83C0914D13D09165
:1024D0004E1316968D919C9117979987888716961B
:1024E000CD91DC91179780914D1390914E130296E8
:1024F0009D838C8380914D1390914E130296179675
:102500009C938E931697A0914D13B0914E131D96E8
:10251000FC93EE931C9780818F5F80833FC0C80C33
:10252000D91CEA1CFB1CE0914D13F0914E13C282A2
:10253000D382E482F582C814D904EA04FB0468F467
:1025400060914D1370914E138091C5129091C612F7
:102550006E5F7F4F0E94E30921C060914D1370911F
:102560004E138091C7129091C8126E5F7F4F0E94E8
:10257000E3098091911290919212A0919312B091DF
:102580009412C816D906EA06FB0640F4C0929112CE
:10259000D0929212E0929312F0929412DF91CF9126
:1025A000FF90EF90DF90CF90BF90AF909F908F9073
:1025B00008954F925F926F927F928F929F92AF9207
:1025C000BF92CF92DF92EF92FF920F931F93CF9320
:1025D000DF934C016B015A012901CA010E94CC080A
:1025E0003C01892B09F40DC184E390E00E94CC08E2
:1025F000EC01892B99F07C8E6B8EA50165EA70E069
:10260000C3010E94B43681E0A81AB1088B8D9C8D5D
:10261000A80EB91EC114D10429F420C0C3010E9420
:102620009409EFC0D6018C918D8F8C918823A1F0F5
:10263000AE01425E5F4FF6013196B0E1CB0ED11C88
:10264000CF012191DA012D93AD01DC018C9188231A
:1026500019F0CE16DF06A1F71CA601C01D8E0A30A8
:1026600008F009E00A8F0DA71EA66E01B2E0CB0E9E
:10267000D11CC6010E94DF09CE010E960E94DF091F
:10268000DB87CA878AE090E0A0E0B0E0801B910978
:10269000A109B1098E879F87A88BB98BDF8BCE8B61
:1026A00084E0FE01BF96DF011D928A95E9F71BAA1F
:1026B000A201B401C5010E94470A99838883E114ED
:1026C000F10419F0F701D183C0830FB6F8940F928B
:1026D0008091A2128F5F8093A21280914D139091EE
:1026E0004E13892BD1F5D0934E13C0934D13809187
:1026F000A212813009F041C00FED12E10F2EFDE46E
:10270000EF2EF3E1FF2EF02DC8010E94CE09055FE8
:102710001F4F0E151F05C1F784ED92E10E94CE09EF
:1027200089EC92E10E94CE098AEB92E10E94CE09E7
:102730008FEA92E10E94CE0983EA92E10E94CE09DB
:1027400084ED92E19093C8128093C71289EC92E1D4
:102750009093C6128093C51210C080919C12811173
:102760000CC0E0914D13F0914E13928D8A8D891714
:1027700020F0D0934E13C0934D13809195128F5F2C
:1027800080939512EA8D80919D128E1710F4E0933C
:102790009D128BE08E9FF0011124E152FD4E0180CD
:1027A000F281E02DFF83EE832681378139872887E8
:1027B000A681B7811596DC92CE921497D782C682F5
:1027C000EA8D8E9FF0011124E152FD4EFD87EC87CA
:1027D00080818F5F80830F900FBE80919C12882331
:1027E00061F0E0914D13F0914E13928D8A8D981700
:1027F00030F40E949A0A81E005C081E003C081E0C4
:1028000001C08FEFDF91CF911F910F91FF90EF905B
:10281000DF90CF90BF90AF909F908F907F906F9000
:102820005F904F900895EF92FF920F930F2EFFE865
:10283000EF2EF2E1FF2EF02D00E020E030E040EC42
:1028400050E06BEC73E08EE091E0B3DE8130E9F4B0
:102850000E94401D8130C9F4F8948FEF9FEFDC0196
:102860008093911290939212A0939312B09394122A
:1028700081E080939C1210929E1210929F121092EF
:10288000A0121092A1120E945E0A809106020F917E
:10289000FF90EF90089580918E128F5F80938E123B
:1028A00008950FB6F8940F9260919E1270919F1246
:1028B0008091A0129091A1120F900FBE0895CF9217
:1028C000DF92EF92FF920F931F93CF93DF9380914C
:1028D0008E12811107C1C0909E12D0909F12E0907D
:1028E000A012F090A1128FEFC81AD80AE80AF80ACD
:1028F000C0929E12D0929F12E092A012F092A1126A
:10290000C114D104E104F104B1F48091C712909193
:10291000C8122091C5123091C6123093C81220936C
:10292000C7129093C6128093C512809196128F5F42
:102930008093961275DD8091911290919212A091E0
:102940009312B0919412C816D906EA06FB0610F449
:1029500080E0B3C080E04BE051E0E091C712F0911D
:10296000C812908191110CC04FEF5FEFBA014093F4
:1029700091125093921260939312709394129DC08F
:10298000E091C712F091C8120780F085E02D008415
:10299000F185E02D0281138124813581C016D10695
:1029A000E206F30648F400939112109392122093DA
:1029B00093123093941281C0A485B585C681D781C6
:1029C000208531853F832E83C085D185268137813F
:1029D0003D832C839F012E5F3F4F11966D917C911B
:1029E00012976217730731F46085718512967C9394
:1029F0006E931197158614869C9191509C93A08D8F
:102A0000B18D109709F1C289D389648975897F8353
:102A10006E83C489D589628973897D836C8311969D
:102A2000CD91DC911297BF01625F7F4FC617D70728
:102A300031F46489758912967C936E931197118E87
:102A4000108E9C9191509C93A28D90919D129A17FB
:102A500010F4A0939D124A9FD0011124A152BD4EA3
:102A600011960D90BC91A02DB783A68316966D91FB
:102A70007C911797718760871696CD91DC91179797
:102A80003D832C8317963C932E931697A28D4A9FD5
:102A9000D0011124A152BD4EB587A4879C919F5FA0
:102AA0009C93A0914D13B0914E13228D5A969C91F8
:102AB000291708F452CF852F50CFE0914D13F09194
:102AC0004E13E28D9BE0E99FF0011124E152FD4E8F
:102AD0009081923008F081E0909197129923B1F0A3
:102AE00081E014C08091981290919912A0919A124D
:102AF000B0919B120196A11DB11D809398129093E5
:102B00009912A0939A12B0939B1280E0DF91CF911B
:102B10001F910F91FF90EF90DF90CF900895CF928B
:102B2000DF92EF92FF920F931F93CF93DF930FB635
:102B3000F8940F9280918E12815080938E12809122
:102B40008E128111C4C08091A21281118BC0C2C0AB
:102B5000D8011796ED91FC9118970084F185E02D2E
:102B6000A08DB18D8289938964897589EC017F83F9
:102B70006E838489958962897389EC017D836C8376
:102B8000CF010E9611966D917C9112976817790777
:102B900031F48489958912969C938E931197118EA6
:102BA000108E8C9181508C93A485B58586819781F8
:102BB00060857185EC017F836E8380859185668158
:102BC0007781EC017D836C83CF01029611966D9124
:102BD0007C9112976817790731F460857185129698
:102BE0007C936E931197158614862C9121502C930B
:102BF000A28D20919D122A1710F4A0939D123A9F46
:102C0000D0011124A152BD4E11960D90BC91A02D62
:102C1000B783A68316966D917C911797718760870D
:102C200016966D917C911797EB019D838C83179677
:102C30009C938E931697A28D3A9FD0011124A15296
:102C4000BD4EB587A4878C918F5F8C93A0914D1357
:102C5000B0914E13928D5A968C91981748F04093EC
:102C6000971206C0E0E0F0E00AEB12E13BE041E041
:102C7000D8018C9181116CCFEF2B09F0D1DBC09082
:102C80009812D0909912E0909A12F0909B12C11471
:102C9000D104E104F10499F0C1E011DE8111C09387
:102CA0009712B1E0CB1AD108E108F108B1F7109200
:102CB00098121092991210929A1210929B1280916F
:102CC0009712882331F00E949A0A81E003C080E0C5
:102CD00001C080E00F900FBEDF91CF911F910F9147
:102CE000FF90EF90DF90CF900895CF92DF92EF9218
:102CF000FF926B017C01672B682B692B41F0CBDDC8
:102D000040E0C701B601B3DB0ADF811102C00E94B7
:102D10009A0AFF90EF90DF90CF90089580918E12E5
:102D2000882321F081E080939712089510929712E2
:102D3000A0914D13B0914E13E0914D13F0914E13AD
:102D40002D913C91838D948D8217930758F060915B
:102D50004D1370914E1380914D1390914E13635EFD
:102D60007F4FB6D780919D12282F30E09BE0899F3E
:102D7000F0011124E152FD4E908191110EC04BE003
:102D80008150282F30E0429FF001439FF00D112425
:102D9000E152FD4E9081992399F39BE0929FA0010F
:102DA000939F500D1124DA01A152BD4E1196ED9161
:102DB000FC9112970480F581E02D1296FC93EE931E
:102DC00011974E515D4EE417F50729F44481558162
:102DD000FD01528341839BE0929FF001939FF00D90
:102DE0001124E152FD4E0180F281E02D20853185D4
:102DF00030934E1320934D1380939D120895CF92DC
:102E0000DF92EF92FF926A017B0160914D13709106
:102E10004E13625F7F4F0E94E30941E0C701B60194
:102E200026DBFF90EF90DF90CF900895CF93DF9354
:102E3000FC01CB01BA01A181B281C0914D13D091A7
:102E40004E13BB8BAA8BC0914D13D0914E13169687
:102E50004D915C9117975D8B4C8B1696CD91DC91C3
:102E6000179740914D1350914E13425F5F4F5D8312
:102E70004C8340914D1350914E13425F5F4F179614
:102E80005C934E931697A0914D13B0914E135996A3
:102E9000FC93EE93589730813F5F3083222319F0E3
:102EA0006FEF7FEFCB01422FE2DADF91CF910895F0
:102EB000CF93DF93DC011796ED91FC911897008476
:102EC000F185E02DA08DB18DC289D3898489958942
:102ED0009F838E83C489D589828993899D838C83BE
:102EE0009F01225F3F4F11968D919C9112978217FF
:102EF000930731F48489958912969C938E93119748
:102F0000118E108E8C9181508C9380918E12811134
:102F100052C0A485B585C681D781808591859F8360
:102F20008E83C085D185868197819D838C839F0107
:102F30002E5F3F4F11968D919C91129782179307A8
:102F400031F48085918512969C938E931197158606
:102F500014868C9181508C93A28D80919D128A173A
:102F600010F4A0939D128BE08A9FD0011124A152EE
:102F7000BD4E11960D90BC91A02DB783A6831696D9
:102F80004D915C911797518740871696CD91DC91B2
:102F900017973D832C8317963C932E931697A28DFB
:102FA0008A9FD0011124A152BD4EB587A4878C9170
:102FB0008F5F8C931CC04AEB52E1DA011196CD91E0
:102FC000DC911297D38BC28B8E819F81958B848BE2
:102FD0008E819F81DC0115963C932E9314973F833D
:102FE0002E83518F408FDA018C918F5F8C93A0914B
:102FF0004D13B0914E13928D5A968C91891720F4EF
:1030000081E08093971201C080E0DF91CF91089515
:103010000FB6F8940F9220919612FC0120834091F4
:103020009E1250919F126091A0127091A112418343
:103030005283638374830F900FBE0895209196127C
:10304000FC01208340919E1250919F126091A0122A
:103050007091A11241835283638374830895CF9248
:10306000DF92EF92FF920F931F93CF93DF93FB01B9
:103070000FB6F8940F9240919E1250919F1260915A
:10308000A0127091A11200811181228133810F3F22
:10309000AFEF1A072A073A0779F1EC01C980DA8005
:1030A000EB80FC80A0919612B881BA1759F04C15AC
:1030B0005D056E057F0530F0108211821282138249
:1030C00081E01BC04C195D096E097F09401751074B
:1030D0006207730758F4041B150B260B370B00838C
:1030E000118322833383AADF80E007C0108211821C
:1030F0001282138281E001C080E00F900FBEDF9149
:10310000CF911F910F91FF90EF90DF90CF90089596
:1031100081E080939712089580914D1390914E1302
:10312000089580919C12882331F080918E1288231B
:1031300021F080E0089581E0089582E008950F93E2
:103140001F93CF93DF93FC01892B09F479C0828D03
:10315000A0914D13B0914E135A969C91891708F087
:1031600063C04685578560897189772394F0A09163
:103170004D13B0914E135A969C914AE050E060E096
:1031800070E0491B51096109710946875787608BB7
:10319000718B2BE0829FC001112481529D4E2485AA
:1031A000358528173907B9F5EF018F010E5F1F4FDD
:1031B000C8010E94200AE0914D13F0914E13E28D58
:1031C000EA8F80919D128E1710F4E0939D128BE090
:1031D0008E9FF0011124E152FD4E0180F281E02D1D
:1031E000FF83EE832681378139872887A681B781BF
:1031F00015961C930E93149717830683EA8D8E9F62
:10320000F0011124E152FD4EFD87EC8780818F5F34
:10321000808381E016C0A0914D13B0914E135A9651
:103220008C91828F81E00DC0A0914D13B0914E130F
:1032300081E025A55A969C91291718F080E001C0DD
:1032400080E0DF91CF911F910F9108950F931F930D
:10325000CF93DF93FC01892B09F449C086A58150E7
:1032600086A7228D95A5291709F443C0811143C073
:10327000EF018F010E5F1F4FC8010E94200AEDA5CC
:10328000EA8F8AE090E0A0E0B0E08E1B9109A109EE
:10329000B1098E879F87A88BB98B80919D128E175D
:1032A00010F4E0939D128BE08E9FF0011124E15207
:1032B000FD4E0180F281E02DFF83EE832681378170
:1032C00039872887A681B78115961C930E9314978A
:1032D00017830683EA8D8E9FF0011124E152FD4E83
:1032E000FD87EC8780818F5F808381E005C080E06F
:1032F00003C080E001C080E0DF91CF911F910F916A
:1033000008950F931F93CF93DF93FC01892B09F44A
:103310005AC085A5861708F4862F928D981709F450
:1033200052C026A5213009F04EC0828F46855785B0
:1033300060897189772364F04AE050E060E070E0D2
:10334000481B51096109710946875787608B718B4A
:103350002BE0929FC001112481529D4E248535851A
:103360002817390781F5EF018F010E5F1F4FC80144
:103370000E94200AEA8D80919D128E1710F4E0932E
:103380009D128BE08E9FF0011124E152FD4E0180D1
:10339000F281E02DFF83EE832681378139872887EC
:1033A000A681B78115961C930E93149717830683F5
:1033B000EA8D8E9FF0011124E152FD4EFD87EC87CE
:1033C00080818F5F8083DF91CF911F910F9108954E
:1033D00080914D1390914E13892B39F0E0914D134C
:1033E000F0914E1386A58F5F86A780914D13909123
:1033F0004E1308954F925F926F927F92AF92BF9259
:10340000CF92DF92EF92FF920F931F93CF93DF93B0
:10341000280139010FB6F8940F92E0914D13F09105
:103420004E13C82FD0E0EC0FFD1F83A9823079F135
:10343000E0914D13F0914E13CE01880F991F880F24
:10344000991FE80FF91F87A590A9A1A9B2A94095D6
:10345000509560957095482359236A237B2347A78D
:1034600050AB61AB72ABE0914D13F0914E13EC0F8A
:10347000FD1F81E083ABA114B104C104D10439F074
:1034800041E0C601B5010E9437120E949A0A0F90CE
:103490000FBE0FB6F8940F92E114F104A1F0E09181
:1034A0004D13F0914E13CE01880F991F880F991F6D
:1034B000E80FF91F87A590A9A1A9B2A9F7018083F8
:1034C0009183A283B383E0914D13F0914E13EC0FDF
:1034D000FD1F83A98230E9F4E0914D13F0914E1362
:1034E000CE01880F991F880F991FE80FF91F87A534
:1034F00090A9A1A9B2A940945094609470944822D4
:1035000059226A227B2247A650AA61AA72AA81E0A8
:1035100001C080E020914D1330914E13C20FD31F94
:103520001BAA0F900FBEDF91CF911F910F91FF90BB
:10353000EF90DF90CF90BF90AF907F906F905F90B3
:103540004F9008958F929F92AF92BF92EF92FF9209
:103550000F93CF93DF93DC010FB6F8940F92E11431
:10356000F10479F0FC0184E0689FE00DF11D112465
:1035700087A490A8A1A8B2A8F70180829182A28214
:10358000B38270E0FD01E60FF71F83A992E093ABD1
:103590000230F9F018F4013031F049C0033069F11C
:1035A0000430B9F144C0660F771F660F771FFD0125
:1035B000E60FF71F87A490A8A1A8B2A8BA01A90195
:1035C000482959296A297B2947A750AB61AB72ABBF
:1035D0002EC0660F771F660F771FFD01E60FF71FDE
:1035E00047A550A961A972A94F5F5F4F6F4F7F4FE9
:1035F00047A750AB61AB72AB1AC0660F771F660F5F
:10360000771FFD01E60FF71F27A730AB41AB52AB89
:103610000EC0823009F479C0660F771F660F771FDE
:10362000FD01E60FF71F27A730AB41AB52AB81304E
:1036300009F06DC01C96ED91FC911D971696CD91E9
:10364000DC91179718968D919C9119979F838E8383
:103650001896CD91DC91199716968D919C9117979C
:103660009D838C839D012E5F3F4F818192818217C4
:10367000930731F418968D919C91199792838183C9
:103680001D961C921E921C978081815080835A96B1
:10369000EC915A9780919D128E1710F4E0939D1231
:1036A0008BE08E9FF0011124E152FD4E0180F281EA
:1036B000E02D1796FC93EE93169746815781199645
:1036C0005C934E931897C681D7813D832C833783B3
:1036D00026835A96EC915A978E9FF0011124E1525D
:1036E000FD4E1D96FC93EE931C9780818F5F808327
:1036F000E0914D13F0914E135A969C91828D89174B
:1037000040F40E949A0A81E005C080E003C081E095
:1037100001C081E00F900FBEDF91CF910F91FF901C
:10372000EF90BF90AF909F908F9008958F929F924F
:10373000AF92BF92CF92DF92EF92FF920F93CF930F
:10374000DF93DC01E114F10479F0FC0184E0689F6F
:10375000E00DF11D112487A490A8A1A8B2A8F7013B
:1037600080829182A282B38270E0FD01E60FF71F92
:1037700083A992E093AB0230F9F018F4013031F0F4
:1037800049C0033069F10430B9F144C0660F771FB6
:10379000660F771FFD01E60FF71F87A490A8A1A869
:1037A000B2A8BA01A901482959296A297B2947A742
:1037B00050AB61AB72AB2EC0660F771F660F771FE1
:1037C000FD01E60FF71F47A550A961A972A94F5F38
:1037D0005F4F6F4F7F4F47A750AB61AB72AB1AC0C3
:1037E000660F771F660F771FFD01E60FF71F27A7EC
:1037F00030AB41AB52AB0EC0823009F4A4C0660FAF
:10380000771F660F771FFD01E60FF71F27A730AB65
:1038100041AB52AB813009F098C080918E1281117A
:103820005FC01C96ED91FC911D971696CD91DC9191
:10383000179718968D919C9119979F838E83189650
:10384000CD91DC91199716968D919C9117979D8338
:103850008C839D012E5F3F4F818192818217930758
:1038600031F418968D919C911997928381831D96BE
:103870001C921E921C978081815080835A96EC91F5
:103880005A9780919D128E1710F4E0939D128BE051
:103890008E9FF0011124E152FD4E0180F281E02D56
:1038A0001796FC93EE9316974681578119965C9371
:1038B0004E931897C681D7813D832C833783268307
:1038C0005A96EC915A978E9FF0011124E152FD4EC9
:1038D0001D96FC93EE931C9780818F5F808320C0A0
:1038E0004AEB52E1FA01C181D2815396DC93CE9327
:1038F00052978E819F8155969C938E9354972E81DB
:103900003F81CD010E96F901958384839F838E8339
:1039100059965C934E935897FA0180818F5F80830C
:10392000E0914D13F0914E135A969C91828D891718
:1039300070F4C114D10419F081E0F601808381E0B4
:103940008093971205C080E003C081E001C081E050
:10395000DF91CF910F91FF90EF90DF90CF90BF90CC
:10396000AF909F908F900895009721F480914D1310
:1039700090914E130FB6F8940F9270E0FC01E60F91
:10398000F71F23A9223031F4FC01E60FF71F13AA19
:1039900081E001C080E00F900FBE0895CF92DF92CA
:1039A000EF92FF920F931F93FC0142835383648332
:1039B0007583938782870417150726073707C0F09A
:1039C0000C191D092E093F0986859785A089B189A3
:1039D000081719072A073B0700F5BF016E5F7F4FE5
:1039E00080915713909158130E94E30980E018C00A
:1039F0000C151D052E053F0528F44C155D056E05BB
:103A00007F0568F4BF016E5F7F4F809159139091DD
:103A10005A130E94E30980E003C081E001C081E005
:103A20001F910F91FF90EF90DF90CF9008950FB608
:103A3000F8940F928091551390915613892BE9F4C5
:103A400086E693E10E94CE098BE593E10E94CE09C0
:103A500086E693E190935A13809359138BE593E193
:103A6000909358138093571340E067E08AE00E94D8
:103A7000760C90935613809355130F900FBE0895B4
:103A8000EF92FF920F93D3DF8091551390915613CD
:103A9000892B91F00F2EF3E5EF2EF3E1FF2EF02DA1
:103AA00003E020E030E040EC50E060ED73E088E4BB
:103AB00091E00E94D91201C080E00F91FF90EF9039
:103AC00008958F929F92AF92BF92CF92DF92EF9222
:103AD000FF920F931F93CF93DF93CDB7DEB7279756
:103AE0000FB6F894DEBF0FBECDBFE0915513F09135
:103AF0005613309781F169832A833B834C835D831E
:103B00009F838E836630F4F40CDB823069F400E02E
:103B1000A7019601BE016F5F7F4F80915513909171
:103B200056130E94970C18C000E020E030E0A90175
:103B3000BE016F5F7F4F80915513909156130E9485
:103B4000970C0AC020E0A801BE016F5F7F4FCF0134
:103B50000E943A0D01C080E027960FB6F894DEBFB0
:103B60000FBECDBFDF91CF911F910F91FF90EF90CE
:103B7000DF90CF90BF90AF909F908F9008952F923D
:103B80003F924F925F926F927F928F929F92AF92ED
:103B9000BF92CF92DF92EF92FF920F931F93CF933A
:103BA000DF931C010E9451142B013C0180914F13A3
:103BB00090915013A0915113B09152134816590689
:103BC0006A067B0608F053C03BC00780F085E02DF5
:103BD00080809180A280B380C085D1858E010E5FE8
:103BE0001F4FC8010E94200AEC89FD89CE0119955A
:103BF0008E8982FF25C08E859F85A889B989880D09
:103C0000991DAA1DBB1D88169906AA06BB0670F44D
:103C10008A839B83AC83BD83DB87CA87B80180918D
:103C2000591390915A130E94E3090AC0C12CD12C58
:103C3000760100E010E0A501940160E0CE0141DFD3
:103C4000E0915913F0915A1380818111BECF809178
:103C500057139091581390935A1380935913F093DC
:103C60005813E093571381E0F101808302C0F10102
:103C7000108240924F1350925013609251137092E1
:103C80005213C301B201DF91CF911F910F91FF90A9
:103C9000EF90DF90CF90BF90AF909F908F907F90EC
:103CA0006F905F904F903F902F9008950895279ABE
:103CB0002F9A08951F9A0895FADF2FEF80E792E078
:103CC000215080409040E1F700C00000F3DFF5CFC5
:103CD000EEDF2FEF87EA91E6215080409040E1F738
:103CE00000C00000E7DFF5CFCF93DF93CDB7DEB79D
:103CF0008C8590E0982F88272D85820F911D9F93AA
:103D00008F938A8590E0982F88272B85820F911DAD
:103D10009F938F93888590E0982F88272985820F1D
:103D2000911D9F938F9389E094E09F938F930E94BE
:103D30000A370FB6F894DEBF0FBECDBFDF91CF912B
:103D40000895EF92FF920F931F93CF93DF93CDB718
:103D5000DEB7288D30E0322F2227898D280F311DC4
:103D6000C9016AE070E00E940235FC010F2EF4E602
:103D7000EF2EF12CF02DC901B7010E9402358C0104
:103D80000E1B1F0BA901481B590BCA01B7010E944A
:103D900002357F936F931F930F93FF93EF938E8959
:103DA00090E0982F88272F89820F911D9F938F93E2
:103DB0008C8990E0982F88272D89820F911D9F93E1
:103DC0008F938A8990E0982F88272B89820F911DE5
:103DD0009F938F93888990E0982F88272989820F55
:103DE000911D9F938F938E8590E0982F88272F8524
:103DF000820F911D9F938F938C8590E0982F882739
:103E00002D85820F911D9F938F9384E194E09F9362
:103E10008F930E940A370FB6F894DEBF0FBECDBF56
:103E2000DF91CF911F910F91FF90EF90089581E066
:103E300017D762E070E080E090E00E94751680E0A5
:103E40000FD766E970E080E090E00E94751681E08F
:103E50000E94963013D70E94BB289F938F9381E3D3
:103E600094E09F938F930E940A370E94BC270E9480
:103E7000BB289F938F9384E494E09F938F930E9439
:103E80000A378FE993E10CD70E94BB28CFE9D3E131
:103E9000DF93CF939F938F938DE594E09F938F93C0
:103EA0000E940A37CE0118D70E94BB289F938F9398
:103EB000DF93CF9381E794E09F938F930E940A371B
:103EC000AE0166E874E087EA94E00E949A280E94B6
:103ED000BB289F938F93DF93CF9386E894E09F93C3
:103EE0008F9387EA94E09F938F9388EB94E09F935E
:103EF0008F930E940A3723D70E94BB289F938F93EA
:103F00008EEE94E09F938F930E940A37EDB7FEB731
:103F1000B2960FB6F894FEBF0FBEEDBF81E00E94CF
:103F200099270E94BB289F938F938DEF94E09F93D6
:103F30008F930E940A3784EF91E00E94A4270E9489
:103F4000BB289F938F9381E08F9384EF8F938EE1B3
:103F500095E09F938F930E940A378DB79EB70A967C
:103F60000FB6F8949EBF0FBE8DBFCAE0D0E00EE33F
:103F700015E080E0EAD6F82E0E94BB289F938F932D
:103F8000DF93CF931F930F930E940A370F900F90E8
:103F90000F900F900F900F90F8E0FF1609F4D8C023
:103FA00080E00E94FA3066E371E080E090E00E94D9
:103FB00075162197F1F6C5C00E949A0AFDCF0E949E
:103FC000C6070E945F07B6D1462E372E0E94CB0748
:103FD0000E949C06AFD1162F072F0E94D0070E9487
:103FE000DE053A824B820C831D839E838F8383E0A0
:103FF0000E940C3182B1892582B9BE0180E0CED603
:104000000E94BB288C011F938F93FF92EF920E9416
:104010000A370F900F900F900F9025E0033712078B
:1040200021F082E003381807C1F5F6018082518241
:104030000FEF1FEF980146E150E0B6018091711338
:10404000909172130E94651182B1892582B9F6019F
:1040500081811F928F9380811F928F937F926F92A5
:104060000E940A378DB79EB746970FB6F8949EBF49
:104070000FBE8DBFADB7BEB7119686E1F6010190B8
:104080000D928A95E1F75DDEEDB7FEB77C960FB62F
:10409000F894FEBF0FBEEDBF30C00A57154069F15E
:1040A000882DDED562E070E080E090E00E94751619
:1040B00080E0D6D566E970E080E090E00E94751659
:1040C00080E043D60E94BB289F938F93BF92AF920C
:1040D0000E940A37BE0180E061D60E94BB289F93F0
:1040E0008F93FF92EF920E940A378DB79EB7089682
:1040F0000FB6F8949EBF0FBE8DBF82B1892582B9DD
:10410000EDB7FEB776970FB6F894FEBF0FBEEDBFC2
:10411000ADB7BEB7119686E1FE0101900D928A956A
:10412000E1F7E2DD64E771E080E090E00E9475165F
:104130008DB79EB746960FB6F8949EBF0FBE8DBF43
:104140003ECF81E00E94EB3080E00E94B93034CF56
:1041500081E00E94DC30E9E8F3E186E0818382E0DF
:104160008083EF016894992493F80F2EFEE5EF2EDB
:10417000F5E0FF2EF02D0F2EF3E7CF2EF3E1DF2E2B
:10418000F02D882483940F2EFEE05F2EF02D0F2E4D
:10419000F8ED6F2EF3E07F2EF02D0F2EF4E8AF2E0A
:1041A000F5E0BF2EF02D0BCFEF92FF920F9390937F
:1041B000721380937113E12CF12C02E021E030E0C6
:1041C00040EC50E063EA75E087E19FE10E94D9127C
:1041D0000F91FF90EF90089581B18FEF81B992B167
:1041E00081E0892782B992B182E0892782B992B1B0
:1041F00084E0892782B992B188E0892782B992B197
:1042000080E1892782B992B180E2892782B992B18F
:1042100080E4892782B982B1805882B980E00E9407
:10422000BA2D83E090E00E9497295AD3811108C0EB
:104230008AEA95E09F938F930E940A370F900F9020
:1042400060E070E081E0CCC40895C6DF8CEC95E0BE
:104250000E941D370E94A20780E090E0A5DF0E9427
:104260001314FFCF0CD0EBC0E3D040F0DAD030F025
:1042700021F45F3F19F0CCC0511115C1CFC0F0D06F
:1042800098F39923C9F35523B1F3951B550BBB271D
:10429000AA2762177307840738F09F5F5F4F220FCA
:1042A000331F441FAA1FA9F333D00E2E3AF0E0E8C3
:1042B00030D091505040E695001CCAF729D0FE2F0F
:1042C00027D0660F771F881FBB1F261737074807A1
:1042D000AB07B0E809F0BB0B802DBF01FF27935857
:1042E0005F4F2AF09E3F510568F092C0DCC05F3FEF
:1042F000ECF3983EDCF3869577956795B795F7953F
:104300009F5FC9F7880F911D9695879597F9089536
:10431000E1E0660F771F881FBB1F621773078407D2
:10432000BA0720F0621B730B840BBA0BEE1F88F7E1
:10433000E095089504D06894B111B5C0089598D05F
:1043400088F09F5790F0B92F9927B751A0F0D1F07E
:10435000660F771F881F991F1AF0BA95C9F712C008
:10436000B13081F09FD0B1E008959CC0672F782FC5
:104370008827B85F39F0B93FCCF386957795679574
:10438000B395D9F73EF490958095709561957F4FE0
:104390008F4F9F4F0895E89409C097FB3EF4909586
:1043A0008095709561957F4F8F4F9F4F9923A9F00E
:1043B000F92F96E9BB279395F6958795779567959D
:1043C000B795F111F8CFFAF4BB0F11F460FF1BC0E1
:1043D0006F5F7F4F8F4F9F4F16C0882311F096E974
:1043E00011C0772321F09EE8872F762F05C0662322
:1043F00071F096E8862F70E060E02AF09A95660FDB
:10440000771F881FDAF7880F9695879597F9089593
:1044100097F99F6780E870E060E008959FEF80EC77
:10442000089500240A94161617061806090608951A
:1044300000240A9412161306140605060895092E80
:104440000394000C11F4882352F0BB0F40F4BF2BEF
:1044500011F460FF04C06F5F7F4F8F4F9F4F08952F
:1044600057FD9058440F551F59F05F3F71F0479525
:10447000880F97FB991F61F09F3F79F0879508950A
:10448000121613061406551FF2CF4695F1DF08C029
:10449000161617061806991FF1CF86957105610546
:1044A00008940895E894BB2766277727CB0197F9EE
:1044B00008950BD0C4CFB5DF28F0BADF18F09523EC
:1044C00009F0A6CFABCF1124EECFCADFA0F3959FA2
:1044D000D1F3950F50E0551F629FF001729FBB27EB
:1044E000F00DB11D639FAA27F00DB11DAA1F649F97
:1044F0006627B00DA11D661F829F2227B00DA11D4A
:10450000621F739FB00DA11D621F839FA00D611DCF
:10451000221F749F3327A00D611D231F849F600DF0
:10452000211D822F762F6A2F11249F5750408AF029
:10453000E1F088234AF0EE0FFF1FBB1F661F771FB5
:10454000881F91505040A9F79E3F510570F060CFF1
:10455000AACF5F3FECF3983EDCF38695779567959D
:10456000B795F795E7959F5FC1F7FE2B880F911DD3
:104570009695879597F9089581B38F6081BB2898A8
:10458000289A21B381E090E00090331402C0880F94
:10459000991F0A94E2F78095822381BBE09103146E
:1045A000F0910414309709F0199508959FB7F89485
:1045B000EFE2F4E110828EE981838AE082838383D3
:1045C0009FBF0895BF92CF92DF92EF92FF920F9319
:1045D0001F93CF93DF936B017C01B42E10920614CE
:1045E00083E0841780F1642F70E080E090E0D3DEF8
:1045F0009B01AC0160E070E080E291E40E9499339D
:10460000A701960156DF20E030E040E05FE30E9422
:10461000D9320E9444338EDEAB01772364F4442701
:104620005527461B570B21E0483E83E058070CF402
:1046300020E011E00CC021E0403187E258070CF483
:1046400020E010E004C040E050E021E010E00FB7AF
:10465000F894222311F0AADF51C0C3E3D4E10F2E56
:10466000FFE2CF2EF4E1DF2EF02D0F2EFAE0EF2E39
:10467000F12CF02DCA01B7010E940235FC01E15274
:10468000FA4F80818A93462F572FCC15DD0591F77D
:1046900043E050E04B19510914161506F4F48091CB
:1046A0002F148C3F49F060E019C0FC01E15DFB4E26
:1046B00030813C3F21F012C080E090E020E0FC011E
:1046C000E15DFB4E1082622F2F5F822F022E000CC5
:1046D000990B841795074CF301C060E0112331F06A
:1046E000E62FF0E0E15DFB4E82E08083BB2031F0FD
:1046F000FA01E15DFB4E8081816080830FBFDF9115
:10470000CF911F910F91FF90EF90DF90CF90BF90CE
:10471000089585B5856085BD089585B5887F85BD7B
:1047200081B38F6081BB08958F92AF92CF92EF9249
:104730000F931F93CF93DF93EC0180B38F6080BB07
:1047400081B38F6081BB209A8CEB92E29F938F9311
:10475000812CA12CC12CE12C00E010E020E240E0F3
:1047600063E080E10E941C2E9093351480933414F2
:1047700089E187BD84B5826084BDEEE6F0E080818A
:1047800082608083CADFD0930414C09303140F9017
:104790000F90DF91CF911F910F91EF90CF90AF903D
:1047A0008F9008951F920F920FB60F9211240BB69F
:1047B0000F922F933F934F935F936F937F938F93BA
:1047C0009F93AF93BF93EF93FF9380910614882339
:1047D00069F12091071430910814253F91E03907C1
:1047E00038F42F5F3F4F30930814209307141EC0F6
:1047F0001092081410920714E09105142E2F30E047
:1048000090E004972817390714F4EF5F01C0E0E047
:10481000E0930514F0E0E75FFB4EAFE2B4E123E381
:1048200034E181918D93A217B307D9F780913314A6
:1048300090E0019683709078992324F401978C6F0F
:104840009F6F0196809333149927FC01E15DFB4E25
:104850006081609580913414909135140E94EE2E01
:10486000FF91EF91BF91AF919F918F917F916F9148
:104870005F914F913F912F910F900BBE0F900FBE04
:104880000F901F9018956530F1F4FA0180818F73B5
:1048900090E0982F88272181822B90930A028093A1
:1048A00009028281F0E48F9FC0011124FA01238163
:1048B00026952695822B909308028093070281E02B
:1048C000809336140895643051F080E090E4909322
:1048D00008028093070290930A02809309020895C8
:1048E0000F931F9303E414E220E034E244EF50E01E
:1048F00060E087E20E942F31909338148093371440
:1049000021E0892B09F020E0822F1F910F9108955B
:104910008091371490913814009759F040E060E08E
:1049200070E00E948031843031F41092361480E0BF
:10493000089582E0089583E008958091371490915E
:104940003814009739F064E00E94CC31853021F0B2
:1049500083E0089582E0089580E00895609109025F
:1049600070910A0280E090E016DD20E030E048EC33
:1049700052E49FDD20E038EF4FE756E473CC089512
:10498000609107027091080280E090E004DD20E071
:1049900030E045E253E48DDD20E038EF4FE756E4A8
:1049A00061DC20E030E040E252E40C94D83208951B
:1049B0000F931F93CF93DF931F921F92CDB7DEB754
:1049C0008C0119822DC0E0919D14EC3250F481E0ED
:1049D0008E0F80939D14F0E0E153FB4E8A8180831B
:1049E00002C010929D148A818A30D1F440919D14A6
:1049F00050E0FA01E353FB4E1082415051099E01F1
:104A00002F5F3F4F6FEC74E18091A0149091A1143F
:104A10000E942111898181110E949A0A10929D148D
:104A2000BE016E5F7F4FC8010FD6882361F20F90E1
:104A30000F90DF91CF911F910F9108950F931F93C6
:104A4000CF93DF938C01EB018091A0149091A1147E
:104A50000E941710B80189E394E10E94EB36209779
:104A600079F0E9E3F4E101900020E9F7319780E281
:104A700090E091838083BE0189E394E10E94E03657
:104A8000E9E3F4E1DF010D900020E9F711978DE0F3
:104A90009AE011969C938E9312961C92019000209E
:104AA000E9F73197E953F441AE2F89E394E1AC0182
:104AB0006A2F8091A2149091A31471D5811111C015
:104AC00008E215E020E030E04DE250E069E275E1F7
:104AD0008091A0149091A1140E94651189E295E142
:104AE00002C080E090E0DF91CF911F910F91089577
:104AF0002F923F924F925F926F927F928F929F92EE
:104B0000AF92BF92CF92DF92EF92FF920F931F93DB
:104B1000CF93DF935C01FC0101900020E9F731970E
:104B20006F01C81AD90A5C2C0F2EF7E78F2EF8E018
:104B30009F2EF02DE12CF12C4C2C3701F40101813A
:104B40001281E80109900020E9F72197C01BD10BE1
:104B50003C2EF9E0CF16D10458F0F4012080FEE09D
:104B60002F1206C0B801C5010E94BB36892B09F57A
:104B7000442D351408F44C2F50E0B801C5010E94B3
:104B8000F236892B49F4F301EE0FFF1FE60DF71DF6
:104B9000E958F74F20800DC08FEFE81AF80AE3E0DC
:104BA0008E0E911CF1E1EF16F10439F6689422247F
:104BB00024F8822DDF91CF911F910F91FF90EF90FC
:104BC000DF90CF90BF90AF909F908F907F906F902D
:104BD0005F904F903F902F90089530DF89CF0895D8
:104BE0008F929F92AF92CF92EF920F931F93CF939A
:104BF000C82F8B0141E060E070E088EC90E00E94FB
:104C0000E20F9093A1148093A01410939F1400932B
:104C10009E140F2EF8ED8F2EF4E29F2EF02D689447
:104C2000AA24A6F86894CC24C6F8E12C00E023E07E
:104C300040E051EE60E070E08C2FDED39093A3143F
:104C40008093A214E7E0F1E0808180618083CF91BE
:104C50001F910F91EF90CF90AF909F908F900895FC
:104C6000882331F0E8E0F1E080818F7E8083089531
:104C7000E8E0F1E0808180618083089560E070E089
:104C80008EE096E0DBDEE9E2F5E101900020E9F755
:104C90003197E952F54181E0759708F080E0089579
:104CA000CF93DF93EC0160E070E08FE196E0C6DE29
:104CB000E9E2F5E101900020E9F7EA53F54139F422
:104CC00069E275E1CE010E94EB3680E002C01882F5
:104CD00081E0DF91CF910895FC0101900020E9F778
:104CE0009F01215131092817390729F4BC018DE4AE
:104CF00096E073CF089589E00895FC0101900020AB
:104D0000E9F79F01215131092817390729F4BC011E
:104D10008CE596E062CF089589E00895FC0101904A
:104D20000020E9F79F01215231092817390729F49A
:104D3000BC018BE696E051CF089589E0089560E0CC
:104D400070E08AEA96E049CF08950F931F93E82F09
:104D5000F0E0EE0FFF1FED58F74F6081718183EB9C
:104D600096E03BDF811114C008E215E020E030E05E
:104D70004DE250E069E275E18091A0149091A11498
:104D80000E946511882321F089E295E1B1DE03C01C
:104D900089E295E1ADDE1F910F9108950F931F9366
:104DA000CF93DF931F92CDB7DEB7DB0111969C91B5
:104DB0001197953108F0B4C0992381F160E070E05B
:104DC000272F30E0462F50E0FD01E40FF51F9281C0
:104DD00092959F709A3010F0995C01C0905DF90136
:104DE000E654FB4E90832F5F3F4FFD01E40FF51F0C
:104DF00092819F70492F50E04A30510514F0995C20
:104E000001C0905DF901E654FB4E90837E5F6F5FB9
:104E100011969C911197691798F201C070E0E72FE5
:104E2000F0E0E654FB4E10824C91811103C08CEBF4
:104E300096E002C08EEB96E02AEB34E13F932F938D
:104E40001F924F939F938F9382EC96E09F938F9343
:104E50008CEF94E19F938F930E944D3760E070E058
:104E60008CEF94E1BADE0FB6F894DEBF0FBECDBF73
:104E7000811159C008E215E020E030E04DE250E039
:104E800069E275E18091A0149091A1140E946511CE
:104E9000882309F447C089E295E12ADE8E3009F0C3
:104EA00042C087E0898380919E1490919F14892B42
:104EB000A9F1BE016F5F7F4F89E295E168D18093D0
:104EC000A414E981F0E0E75DFA4EDF010D900020C7
:104ED000E9F71197AE1BBF0BAA2391F0BB27CD01B9
:104EE00001979C0112F42F5F3F4F35952795209332
:104EF000A514AF014F5F5F4F64E186EA94E173D17F
:104F000001E010E020E030E046E150E064EA74E1C6
:104F100080919E1490919F140E9463108EE003C0B4
:104F200084E101C080E00F90DF91CF911F910F913C
:104F30000895813019F062ED76E002C06BEA77E007
:104F400086ED96E04ACE08959F938F9387E097E091
:104F50009F938F938CEF94E19F938F930E944D3793
:104F600060E070E08CEF94E138DE0F900F900F90CE
:104F70000F900F900F9008952F923F924F925F9253
:104F80006F927F928F929F92AF92BF92CF92DF9259
:104F9000EF92FF920F931F93CF93DF93CDB7DEB7BE
:104FA000A0970FB6F894DEBF0FBECDBF64E377E0E5
:104FB00080E497E043DD9CDD8111A3C080E2E2E262
:104FC000F2E0DE01119601900D928A95E1F79E01C3
:104FD0002F5F3F4F6901E12CF12C0F2EFCE4AF2E27
:104FE000F7E0BF2EF02D0CEF14E10F2EF5E64F2E5B
:104FF000F7E05F2EF02D0F2EFCE78F2EF7E09F2EAF
:10500000F02D0F2EF6E96F2EF7E07F2EF02D3E2CBF
:105010002F2CFF92EF92BF92AF921F930F930E949B
:105020004D3760E070E0C80109DD62DD0F900F9040
:105030000F900F900F900F90811163C032E03E15DA
:10504000E8F4F60183818F9382818F9381818F931E
:1050500080818F93FF92EF925F924F921F930F93F5
:105060000E944D3760E070E0C801E8DC41DD0FB61A
:10507000F894DEBF0FBECDBF811143C02F923F9287
:105080009F928F921F930F930E944D3760E070E0C4
:10509000C801D4DC2DDD0F900F900F900F900F9072
:1050A0000F9081112EC02F923F927F926F921F938B
:1050B0000F930E944D3760E070E0C801BFDC18DD3F
:1050C0000F900F900F900F900F900F90811119C0BB
:1050D0003FEFE31AF30A84E0C80ED11C98E0E9160A
:1050E000F10409F094CF60E070E08EEA97E0A6DC6E
:1050F000FFDC811106C060E070E08FEB97E09EDC82
:10510000F7DCA0960FB6F894DEBF0FBECDBFDF91DF
:10511000CF911F910F91FF90EF90DF90CF90BF90B4
:10512000AF909F908F907F906F905F904F903F9047
:105130002F900895EF92FF920F931F93CF93DF93D9
:10514000EC018B017A0181E0F4DE81110DC0CE010A
:10515000D4DD811109C0C801E1DD811105C0C7019D
:10516000BBDD811101C0EBDDDF91CF911F910F916C
:10517000FF90EF90089590E0FC01EE0FFF1F8E0F5F
:105180009F1FFC01E958F74F818192810895DC014E
:10519000009729F1FB012081FC0101900020E9F733
:1051A0003197E81BF90B822F90E0E817F907C8F058
:1051B00080E008C0880F382F330F330F830F8053E0
:1051C000890F2F5FFD01E20FF11D908130ED390F46
:1051D0003A3010F49111EECFFB012083089580E066
:1051E000089580E008950F931F93CF93DF93DC0120
:1051F000EA012097E1F1FA0101900020E9F73197E7
:10520000E41BF50B329710F532C08D01040F151F0A
:1052100030E0AE01420F531FFA019081913428F023
:105220009753592F5295507F03C0592F5295507F55
:105230002C0F3D1FF9019181913410F0975301C05B
:105240009053950FF80190838F5F01C080E0282F65
:10525000220F482F50E0FE0101900020E9F731971E
:10526000EC1BFD0B4E175F0710F48613CECFDF91BA
:10527000CF911F910F91089580915915860F8093BA
:10528000591590915C15913079F028F09230A9F081
:10529000933019F108956F3F09F048C010925915E5
:1052A00081E080935C150895663809F03FC0109244
:1052B000581582E080935C150895E091581581E0BF
:1052C0008E0F80935815F0E0EA5AFA4E60838230D0
:1052D00069F583E080935C1508959091581521E05D
:1052E000290F20935815963009F581110EC0E6E577
:1052F000F5E1808190E0982F88272181820F911D10
:1053000090935E1580935D1504C010925E15109207
:105310005D1510925C15E0915A15F0915B15309770
:1053200029F080915D1590915E15199508958F92E1
:105330009F92AF92CF92EF920F930F2EFCE38F2E9E
:10534000F9E29F2EF02D6894AA24A4F86894CC2446
:10535000C4F8E12C00E023E040E855E260E070E0B2
:105360004BD09093601580935F150F91EF90CF9085
:10537000AF909F908F900895CF93DF93CDB7DEB716
:1053800029970FB6F894DEBF0FBECDBF89E0E2E4E7
:10539000F2E09E012F5F3F4FD90101900D928A9557
:1053A000E1F710925E1510925D1580915F15909156
:1053B0006015009731F0422F532F69E0F0D080E064
:1053C00001C082E029960FB6F894DEBF0FBECDBFB4
:1053D000DF91CF91089520915D1530915E152115D3
:1053E000310529F4FC011182108281E00895FC014D
:1053F0003183208380E008952F923F924F925F92F5
:105400006F927F928F929F92AF92CF92EF92FF9284
:105410000F931F93CF93DF93CDB7DEB7F82E2A01FA
:105420003B0188E090E00E9486358C018F2D90E052
:10543000FC01EE0FFF1FEF59FA4E11830083011597
:10544000110509F46FC0880F991FFC01E55FFD4F3E
:1054500080819181D8018D939C936C2D70E084E0C4
:1054600090E00E946C351C0161E070E086E090E005
:105470000E946C357C014C2DB1010E94BC32F801B8
:10548000F582E4826A2D70E084E090E00E946C3541
:105490001C0161E070E086E090E00E946C357C01C8
:1054A0004A2DB1010E94BC32D8011396FC92EE92B3
:1054B000129717969C928E921697FFB6F894ED91DC
:1054C000FC91119736978081826080838D909C90AB
:1054D000C301B2010E94CB2120E030E040E051E462
:1054E0000E9459229B01AC0160E074E284E79BE4D6
:1054F0000E94322120E030E040E85FE30E94D83291
:105500000E949F21F40132976083D801ED91FC91B4
:105510001197359788E98083ED91FC91349786E067
:105520008083FFBEC801DF91CF911F910F91FF9043
:10553000EF90CF90AF909F908F907F906F905F9003
:105540004F903F902F900895CF93DF93DC01892BEC
:1055500001F11296ED91FC9113979381828125813F
:10556000981B922384819817B1F083812695282374
:10557000C081D181C20FD11D68838F5F958189233E
:105580008383ED91FC91359780818062808380E0F8
:1055900003C081E001C082E0DF91CF910895EF92D6
:1055A000FF920F931F93CF93DF937C01009709F431
:1055B00041C0DC011296ED91FC9113979381828199
:1055C000981B858198238481891B8617A8F16623FF
:1055D00041F1842F952FDC016150462F50E04F5F41
:1055E0005F4F480F591FE701EA81FB819381828158
:1055F0002581981B92238481981779F08C9193814F
:1056000026952923608171818B01020F111DE8010C
:1056100088839F5F8581982393831196A417B5078C
:1056200011F7D701ED91FC913597808180628083DD
:1056300080E003C081E001C082E0DF91CF911F9143
:105640000F91FF90EF9008950097D1F0DC01149630
:10565000ED91FC91159793818281981799F0928131
:10566000858186958923A081B181A80FB11D8C9178
:10567000DB018C939F5F85819823928380E008955E
:1056800081E0089583E008951F920F920FB60F9264
:1056900011240BB60F922F933F934F935F936F9309
:1056A0007F938F939F93AF93BF93CF93DF93EF93AA
:1056B000FF93A0916115B0916215109711F160915F
:1056C000C6001496ED91FC911597938182812581F6
:1056D000981B92238481981761F083812695282353
:1056E000C081D181C20FD11D68838F5F95818923CD
:1056F00083831696ED91FC911797309711F0CD01A9
:105700001995FF91EF91DF91CF91BF91AF919F914B
:105710008F917F916F915F914F913F912F910F905A
:105720000BBE0F900FBE0F901F9018951F920F92F7
:105730000FB60F9211240BB60F922F938F939F9356
:10574000AF93BF93EF93FF93E0916115F0916215D2
:105750003097B9F00280F381E02D93818281981710
:10576000B1F092818581282F26952923A081B181CE
:10577000A20FB11D2C919F5F892382832093C600C5
:105780000BC0E1ECF0E080818F7D808305C0E1EC0F
:10579000F0E080818F7D8083FF91EF91BF91AF9189
:1057A0009F918F912F910F900BBE0F900FBE0F9076
:1057B0001F9018951F920F920FB60F9211240BB6DF
:1057C0000F922F933F934F935F936F937F938F939A
:1057D0009F93AF93BF93CF93DF93EF93FF93A091EA
:1057E0006315B0916415109711F16091CE00149675
:1057F000ED91FC911597938182812581981B9223CD
:105800008481981761F0838126952823C081D181F6
:10581000C20FD11D68838F5F95818923838316967C
:10582000ED91FC911797309711F0CD011995FF91EB
:10583000EF91DF91CF91BF91AF919F918F917F9128
:105840006F915F914F913F912F910F900BBE0F90F1
:105850000FBE0F901F9018951F920F920FB60F92C8
:1058600011240BB60F922F938F939F93AF93BF93F7
:10587000EF93FF93E0916315F09164153097B9F0C1
:105880000280F381E02D938182819817B1F092819B
:105890008581282F26952923A081B181A20FB11DD2
:1058A0002C919F5F892382832093CE000BC0E9EC6B
:1058B000F0E080818F7D808305C0E9ECF0E080819D
:1058C0008F7D8083FF91EF91BF91AF919F918F91D9
:1058D0002F910F900BBE0F900FBE0F901F90189539
:1058E0001F920F920FB60F9211240BB60F922F93A7
:1058F0003F934F935F936F937F938F939F93AF9358
:10590000BF93CF93DF93EF93FF93A0916515B09171
:105910006615109711F16091D6001496ED91FC91E7
:105920001597938182812581981B922384819817F2
:1059300061F0838126952823C081D181C20FD11DBA
:1059400068838F5F9581892383831696ED91FC91FF
:105950001797309711F0CD011995FF91EF91DF91D5
:10596000CF91BF91AF919F918F917F916F915F91F7
:105970004F913F912F910F900BBE0F900FBE0F9044
:105980001F9018951F920F920FB60F9211240BB60D
:105990000F922F938F939F93AF93BF93EF93FF93A8
:1059A000E0916515F09166153097B9F00280F381AA
:1059B000E02D938182819817B1F092818581282F03
:1059C00026952923A081B181A20FB11D2C919F5F43
:1059D000892382832093D6000BC0E1EDF0E0808123
:1059E0008F7D808305C0E1EDF0E080818F7D808335
:1059F000FF91EF91BF91AF919F918F912F910F9058
:105A00000BBE0F900FBE0F901F9018951F920F9214
:105A10000FB60F9211240BB60F922F933F934F9313
:105A20005F936F937F938F939F93AF93BF93CF9326
:105A3000DF93EF93FF93A0916715B09168151097CE
:105A400011F1609136011496ED91FC9115979381B7
:105A500082812581981B92238481981761F083812C
:105A600026952823C081D181C20FD11D68838F5F05
:105A70009581892383831696ED91FC911797309732
:105A800011F0CD011995FF91EF91DF91CF91BF9169
:105A9000AF919F918F917F916F915F914F913F91C6
:105AA0002F910F900BBE0F900FBE0F901F90189567
:105AB0001F920F920FB60F9211240BB60F922F93D5
:105AC0008F939F93AF93BF93EF93FF93E0916715ED
:105AD000F09168153097B9F00280F381E02D938141
