S00E000067682D696F742E73726563CE
S113000091C20000B0C20000AEC20000ACC2000049
S1130010AAC20000A8C20000A6C20000A4C2000038
S1130020A2C20000A0C200009EC200009CC2000048
S11300300C945C0C98C2000096C2000094C20000AC
S113004092C2000090C200008EC200008CC2000068
S11300508AC200000C94322586C2000084C20000CB
S11300600C94C2300C94A32C0C94F52C7CC200008C
S11300707AC2000078C2000076C2000074C2000098
S113008072C2000070C200006EC200006CC20000A8
S11300900C94392D0C948B2D66C200000C945E33A5
S11300A062C2000060C200005EC200005CC20000C8
S11300B05AC2000058C2000056C2000054C20000D8
S11300C052C2000050C200004EC200000C94CF2D5A
S11300D00C94212E48C200000C94652E0C94B72E6B
S11300E042C20000070207020702410249025F02FE
S11300F007020702410249028033F033F033F03340
S1130100F033F033F033F0338033F033F033F03343
S1130110F033F033F033F0338233F033F033F03331
S1130120F033F033F033F033F033F033F033F033B3
S1130130F033F033F033F0338233F033F033F03311
S1130140F033F033F033F033F033F033F033F03393
S1130150F033F033F033F033EC33F033F033F03387
S1130160F033F033F033F033B733F033F033F033AC
S1130170F033F033F033F033F033F033F033F03363
S1130180F033F033F033F033AB33F033F033F03398
S1130190F033F033F033F033CF3307634236B79B99
S11301A0D8A71A39685618AEBAAB558C1D3CB7CCD3
S11301B05763BD6DEDFD753EF6177231BF0000004B
S11301C0803F08000000BE922449123EABAAAA2A2E
S11301D0BECDCCCC4C3E00000080BEABAAAAAA3E49
S11301E000000000BF000000803F00000000000885
S11301F04178D3BB4387D1133D190E3CC3BD428222
S1130200AD2B3E68EC8276BED98FE1A93E4C80EFDF
S1130210FFBE01C4FF7F3F000000000009EA12E1B5
S11302200F2EF9EDEF2EF2E1FF2EF02D8091A812A2
S1130230882329F10FB6F8940F92D8011796ED91FF
S1130240FC911897C085D185CE0102960E941C0BA3
S113025080919C12815080939C128091A8128150AD
S11302608093A8120F900FBE8B8D9C8D0E94900AD4
S1130270CE010E94900A8091A8128111DBCFF70170
S11302808081823010F00E94960B0E94521FCECFC4
S1130290CF93DF93CDB7DEB760970FB6F894DEBF88
S11302A00FBECDBFCE0101969A878987812C912CF0
S11302B0A12CB12C69847A84E0915313F0915413E6
S11302C08081882309F414C10780F085E02D208003
S11302D03180428053800E944715CE0101960E94CE
S11302E0BB1E6B877C878D879E878981811167C040
S11302F08B859C85AD85BE8582159305A405B505C2
S113030008F445C00E948B16E0915313F0915413E6
S11303100780F085E02DA085B185B88BAF87CD012E
S113032002960E941C0BEF85F889868982FF21C002
S11303304685578560897189420D531D641D751D5D
S1130340720161010B851C852D853E85CF010E94BC
S1130350CA1D882399F0C82CD92CEA2CFB2C00E068
S113036010E0A201910160E08F8598890E945D1ED2
S113037005C08E7FAF85B88956968C93AF85B889B2
S11303805496ED91FC915597CD011995A2C020E0AA
S1130390B201A1018B859C85AD85BE85481B590B97
S11303A06A0B7B0B80914F13909150130E94D80FCE
S11303B00E948B1681118DC00E94960B8AC00E94E8
S11303C08B1687C0898188230CF483C04E805F809C
S11303D0D2011C968D919C911D97892B21F0C2010D
S11303E002960E941C0BCE0108960E94BB1E8B0134
S11303F09C01E9810E2E000CFF0BEA30F10508F098
S113040068C08827EE58FF4F8F4F0C942F36F201A7
S113041086898160868BCA80DB80EC80FD8046857E
S11304205785608971894C0D5D1D6E1D7F1DC2014C
S11304300E94CA1D882309F44CC0D2015496ED9140
S1130440FC915597C2011995F201868982FF41C03A
S11304504A815B816C817D8186859785A089B1897C
S11304609A01AB01280F391F4A1F5B1FC82CD92CD6
S1130470EA2CFB2C00E010E060E0C2010E945D1E4B
S113048028C0D20156968C9156978E7F56968C939F
S113049020C0F20186898160868B4A815B816C81F0
S11304A07D8146875787608B718B400F511F621F78
S11304B0731F68017901C2010E94CA1D0AC0F201BA
S11304C0868981FD04C0C2010E94900A02C08E7F09
S11304D0868B282D392D4A2D5B2D662D772D809105
S11304E04F13909150130E94710E81116BCFE4CE83
S11304F00E944715CE0101960E94BB1E6B877C8724
S11305008D879E87898181115ACFE0915113F09193
S11305105213808121E0811120E0282C392C4A2CAF
S11305205B2C36CF11241FBECFEFD1E2DEBFCDBF8F
S113053000E00CBF18E0A0E0B2E0E4E4F6E700E07D
S11305400BBF02C007900D92A83AB107D9F725E175
S1130550A8EAB8E001C01D92A13BB207E1F70E94EE
S1130560F3210C94203B4CCD0F2EF8EECF2EF3E06C
S1130570DF2EE12CF12CF02DC2E08091921588231E
S113058021F08FE692E00E9415380E941B2B809385
S113059092158091971590919815C3D220E030E080
S11305A04AEF53E40E94BA230E94D8229B01AC0173
S11305B0AEE3B0E00E943736A70196010E940D36E3
S11305C0CA01B9010E94711782B18C2782B9809146
S11305D0971590919815A5D220E030E04AEF53E4A6
S11305E00E94BA230E94D8229B01AC01AEE3B0E082
S11305F00E943736A70196010E940D36CA01B9013F
S11306000E94711782B18C2782B985E995E10E9415
S11306104A2B60919515709196158091971590913C
S113062098155ED28091971590919815BFD2A5CF59
S1130630EF92FF920F93909398158093971586E805
S113064092E00E941538E12CF12C01E021E030E029
S113065040EC50E06AE972E084EB92E00E94D5132A
S11306600F91FF90EF9008950F2EF4E68F2EF02D4A
S11306700F2EF8EECF2EF3E0DF2EE12CF12CF02D2F
S11306806894992496F86894AA24A5F86894BB24DD
S1130690B4F882B1805882B920D6EC0124D68C01FA
S11306A0CE0125D6809EB001819E700D1124860F47
S11306B0971FBC01990F880B990B0E94062320E019
S11306C030E048EC52E40E946B2242E00E94432452
S11306D020E030E04AE754E460919B1570919C154A
S11306E080919D1590919E150E94BA230E94D82254
S11306F09B01AC01AEE3B0E00E943736A70196013E
S11307000E940D36CA01B9010E94711782B1805846
S113071082B982B1892582B935D5E7D442E00E94F5
S1130720432420E030E04AE754E460919B15709143
S11307309C1580919D1590919E150E94BA230E944C
S1130740D8229B01AC01AEE3B0E00E943736A7018A
S113075096010E940D36CA01B9010E94711782B137
S1130760892582B982B18A2582B911D590D342E014
S11307700E94432420E030E04AE754E460919B1552
S113078070919C1580919D1590919E150E94BA239D
S11307900E94D8229B01AC01AEE3B0E00E94373640
S11307A0A70196010E940D36CA01B9010E94711772
S11307B082B18A2582B982B18B2582B9EDD4D7D191
S11307C0BC01990F880B990B0E94062340E00E94FC
S11307D0432420E030E04AE754E460919B15709193
S11307E09C1580919D1590919E150E94BA230E949C
S11307F0D8229B01AC01AEE3B0E00E943736A701DA
S113080096010E940D36CA01B9010E94711782B186
S11308108B2582B93ECFEF92FF920F9360939B1585
S113082070939C1580939D1590939E1580E090E0A5
S11308300E94F4240E94E92482EA92E00E9415387E
S1130840E12CF12C01E021E030E040EC50E06DEBD4
S113085072E084E393E00E94D5130F91FF90EF9030
S1130860089504ED12E00F2EF8EE8F2EF3E09F2E84
S1130870A12CB12CF02D77247394C8EFD2E0809191
S11308809F159091A0150CD46B017C018091A1154A
S11308909091A215D7D29B01AC01C701B6010E9469
S11308A0032220E030E04AEF53E40E94BA230E947E
S11308B0D3226B017C010E94E825882331F01F9329
S11308C00F930E9402380F900F90D701C601FF20AA
S11308D01CF40196A11DB11D9C01AD0155954795D0
S11308E037952795AEE3B0E00E943736A501940111
S11308F00E940D3669017A01CA01B9010E9471177B
S113090082B1872582B90E94FD25882331F0DF93C7
S1130910CF930E9402380F900F90C701B6010E9436
S1130920711782B1872582B90E942026AB01BC01D0
S11309304093AC085093AD086093AE087093AF0831
S113094080919F159091A015FCD20E940E26AB01B8
S1130950BC014093A8085093A9086093AA08709317
S1130960AB088091A1159091A21516D288CFEF9271
S1130970FF920F939093A01580939F157093A215E7
S11309806093A1158DE193E00E941538E12CF12CC0
S113099001E021E030E040EC50E062E473E081E308
S11309A094E00E94D5130F91FF90EF9008958091E9
S11309B0B208882331F08091B0089091B108019772
S11309C089F081E08093B20881E090E09093B108CF
S11309D08093B00884E593E09F938F930E9402383C
S11309E00F900F9008958091B208882331F0809180
S11309F0B0089091B108892B79F081E08093B20816
S1130A001092B1081092B00889E693E09F938F93F7
S1130A100E9402380F900F9008958091B2088823A5
S1130A2051F01092B2088EE793E09F938F930E9447
S1130A3002380F900F9008958091B30881110BC074
S1130A4081E08093B3088CE893E09F938F930E9496
S1130A5002380F900F9008958091B308882351F0C5
S1130A601092B30881EA93E09F938F930E94023817
S1130A700F900F900895CF92DF92EF92FF920F9311
S1130A80CF93DF936B017C0161E070E080E190E043
S1130A900E946436EC01892BD1F0C882D982EA82A3
S1130AA0FB821D821C821F861E86D8D39987888765
S1130AB043E060E081E00E94720D9F838E8300E03A
S1130AC020E030E0A90160E070E00E94930DCE01C7
S1130AD0DF91CF910F91FF90EF90DF90CF90089529
S1130AE00F931F93CF93DF93EC018B014FEF5FEFD5
S1130AF0BA018E819F810E940A0F1D830C83888511
S1130B009985C4D300E020E030E0A90160E070E002
S1130B108E819F810E94930DDF91CF911F910F9140
S1130B200895CF92DF92EF92FF920F93CF93DF93CA
S1130B30EC014FEF5FEFBA018E819F810E940A0F93
S1130B40C880D980EA80FB8000E020E030E0A90181
S1130B5060E070E08E819F81E6D7C701B601DF9126
S1130B60CF910F91FF90EF90DF90CF900895EF9287
S1130B70FF920F93CF93DF93EC014FEF5FEFBA0136
S1130B808E819F810E940A0FEC80FD8000E020E0AE
S1130B9030E0A90160E070E08E819F81C4D7C70175
S1130BA0DF91CF910F91FF90EF900895EF92FF9214
S1130BB00F93CF93DF93EC014FEF5FEFBA018E8178
S1130BC09F810E940A0FE884F98400E020E030E06D
S1130BD0A90160E070E08E819F81A5D7C701DF91F4
S1130BE0CF910F91FF90EF9008950F931F93CF93A0
S1130BF0DF93EC018B014FEF5FEFBA018E819F8190
S1130C000E940A0F1B870A8781E090E09F878E87E6
S1130C10888599853BD300E020E030E0A90160E0BD
S1130C2070E08E819F817FD7DF91CF911F910F91CB
S1130C3008950F931F93CF93DF93EC018B014FEF34
S1130C405FEFBA018E819F810E940A0F1D870C8776
S1130C5081E090E09F878E878885998517D300E08F
S1130C6020E030E0A90160E070E08E819F815BD7D5
S1130C70DF91CF911F910F910895CF92DF92EF9260
S1130C80FF920F93CF93DF936B017C0161E070E0DF
S1130C9086E190E00E946436EC01892BD1F0C88291
S1130CA0D982EA82FB821C821D821E821F821D8AD7
S1130CB01C8AD4D29B878A8743E060E081E012D704
S1130CC09987888700E020E030E0A90160E070E0C7
S1130CD02AD7CE01DF91CF910F91FF90EF90DF9053
S1130CE0CF900895CF92DF92EF92FF920F93CF931C
S1130CF0DF93EC016A017B014FEF5FEFBA01888556
S1130D0099850E940A0FCC86DD86EE86FF8681E0F7
S1130D1090E09D8B8C8B8A859B85B8D200E020E087
S1130D2030E0A90160E070E088859985FCD6DF9108
S1130D30CF910F91FF90EF90DF90CF900895CF92D5
S1130D40DF92EF92FF920F93CF93DF93EC016A014E
S1130D507B014FEF5FEFBA01888599850E940A0FE6
S1130D60C88AD98AEA8AFB8A81E090E09D8B8C8BC1
S1130D708A859B858BD200E020E030E0A90160E009
S1130D8070E088859985CFD6DF91CF910F91FF9040
S1130D90EF90DF90CF9008958F929F92AF92BF9281
S1130DA0CF92DF92EF92FF920F93CF93DF93EC01F8
S1130DB06A017B014FEF5FEFBA01888599850E9434
S1130DC00A0FCC82DD82EE82FF828C899D89019795
S1130DD009F58C849D84AE84BF84A5019401C70168
S1130DE0B6010E94B623181614F436DE13C0A5010A
S1130DF09401C701B6010E946722181654F028898D
S1130E0039894A895B89C701B6010E94B6238823C0
S1130E100CF412DE8A859B8539D200E020E030E0B4
S1130E20A90160E070E0888599857DD6DF91CF9136
S1130E300F91FF90EF90DF90CF90BF90AF909F9075
S1130E408F900895CF92DF92EF92FF920F93CF93FA
S1130E50DF93EC014FEF5FEFBA0188859985DAD70C
S1130E60C880D980EA80FB8000E020E030E0A9015E
S1130E7060E070E08885998556D6C701B601DF9198
S1130E80CF910F91FF90EF90DF90CF900895CF9284
S1130E90DF92EF92FF920F93CF93DF93EC014FEF2A
S1130EA05FEFBA0188859985B5D7CC80DD80EE8067
S1130EB0FF8000E020E030E0A90160E070E0888578
S1130EC0998531D6C701B601DF91CF910F91FF907B
S1130ED0EF90DF90CF900895CF92DF92EF92FF9240
S1130EE00F93CF93DF936B017C0161E070E086E1A7
S1130EF090E00E946436EC01892BD1F0C882D9823B
S1130F00EA82FB821C821D821E821F821D8A1C8A29
S1130F10A5D19B878A8743E060E081E0E3D5998788
S1130F20888700E020E030E0A90160E070E0FBD5B4
S1130F30CE01DF91CF910F91FF90EF90DF90CF9092
S1130F4008958F929F92AF92BF92CF92DF92EF92C9
S1130F50FF920F93CF93DF93EC016A017B014FEF74
S1130F605FEFBA018885998555D7CC82DD82EE8200
S1130F70FF828C899D89019719F58C849D84AE84A8
S1130F80BF84A5019401C701B6010E94B6231816B7
S1130F9014F429DD15C0A5019401C701B6010E940E
S1130FA06722181664F0288939894A895B89C70140
S1130FB0B6010E94B623882314F02FDD01C0F7DCAC
S1130FC08A859B8563D100E020E030E0A90160E0E0
S1130FD070E088859985A7D5DF91CF910F91FF9017
S1130FE0EF90DF90CF90BF90AF909F908F90089537
S1130FF0CF92DF92EF92FF920F93CF93DF93EC01A6
S11310006A017B014FEF5FEFBA018885998502D7AA
S1131010CC86DD86EE86FF8681E090E09D8B8C8B0E
S11310208A859B8533D100E020E030E0A90160E0AF
S113103070E08885998577D5DF91CF910F91FF90E6
S1131040EF90DF90CF900895CF92DF92EF92FF92CE
S11310500F93CF93DF93EC016A017B014FEF5FEFB6
S1131060BA0188859985D6D6C88AD98AEA8AFB8A3C
S113107081E090E09D8B8C8B8A859B8507D100E075
S113108020E030E0A90160E070E0888599854BD5C7
S1131090DF91CF910F91FF90EF90DF90CF90089563
S11310A0CF92DF92EF92FF920F93CF93DF93EC01F5
S11310B04FEF5FEFBA0188859985ACD6C880D98097
S11310C0EA80FB8000E020E030E0A90160E070E00D
S11310D08885998528D5C701B601DF91CF910F91F5
S11310E0FF90EF90DF90CF900895CF92DF92EF9230
S11310F0FF920F93CF93DF93EC014FEF5FEFBA01B1
S11311008885998587D6CC80DD80EE80FF8000E0DD
S113111020E030E0A90160E070E08885998503D57E
S1131120C701B601DF91CF910F91FF90EF90DF904F
S1131130CF90089560E070E080E09FE36CDB60E0B6
S113114070E080E89FE3C8DE9093A01580939F151C
S113115060E070E080E89FE390DD9093A2158093B7
S1131160A115BC0180919F159091A01500DC60E051
S113117070E080E89FE37FDC9093A4158093A3152F
S113118057CA089580919F159091A0150895809154
S1131190A1159091A21508958091A3159091A4157D
S11311A008956EE370E080E090E00E947117E09192
S11311B0A515F091A615828593850196938782875C
S11311C0CC977CF3808591850196918780871386DF
S11311D01286CC9734F38681978101969783868310
S11311E0118610864897ECF217821682DACFEF92B6
S11311F0FF920F938091A5159091A615892B51F517
S113120061E070E08CE090E00E946436FC01909311
S1131210A6158093A515892BE9F0118210821382FB
S11312201282158214821782168211861086138602
S1131230128687EB93E00E941538E12CF12C01E033
S113124021E030E040EC50E061ED73E081ED98E0A6
S11312500E94D5130F91FF90EF900895C8DF61E0CD
S113126070E08CE090E00E946436FC01892B61F010
S113127011821082138212821582148217821682BE
S11312801186108613861286CF010895CF93DF93BB
S1131290EC01ADDFE091A515F091A6158081918157
S11312A099838883E091A515F091A6158281938195
S11312B09B838A83848195819D838C838681978196
S11312C09F838E838085918599878887828593857E
S11312D09B878A87DF91CF91089589DF8091A51537
S11312E09091A6150895FC01868197810895FC01CB
S11312F0808591850895CF93DF93DC01E0ECF8E0DD
S113130001C0F901208131812A173B07D0F3828182
S11313109381AF01480F591FA417B50749F41296DA
S11313204D915C911397840F951F93838283DF0102
S113133012968D919C911397ED01C80FD91F2C170C
S11313403D07D9F42091BE083091BF08C217D307D6
S113135081F02A813B81820F931F13969C938E9375
S11313601297C081D1818881998111969C938E9323
S113137007C01196DC93CE9303C011963C932E9331
S1131380AE17BF0711F0B183A083DF91CF91089509
S1131390CF92DF92EF92FF920F931F93CF93DF933D
S11313A0EC010E9447158091BE089091BF08892BDB
S11313B041F5E0ECF8E0A4ECB8E0B183A08313823B
S11313C01282E4E8F2E1F093BF08E093BE081382CE
S11313D012821182108280EC99E013969C938E9372
S11313E01297ED93FC939093BB088093BA08909363
S11313F0BD088093BC0880E090E89093B508809382
S1131400B408E090B408F090B508C7018C239D237C
S1131410892B09F075C0209709F475C09E012C5FD3
S11314203F4FC217D30708F06EC02115310509F4E8
S113143067C00091BC081091BD080217130708F497
S11314405FC0C091C008D091C108E0ECF8E002C0D0
S1131450FE01EC018A819B818217930720F4888125
S113146099810097A9F78091BE089091BF08C81789
S1131470D90709F445C0C080D18084E0C80ED11CCE
S113148088819981918380834A815B81421B530BBC
S11314904930510548F0CE01820F931FFC0153835C
S11314A042833B832A8327DF8A819B81081B190B94
S11314B01093BD080093BC082091BA083091BB0872
S11314C00217130720F41093BB080093BA08E82A04
S11314D0F92AFB82EA82198218828091B8089091D5
S11314E0B90801969093B9088093B8080E948B16A6
S11314F0C114D10459F40E94581FC12CD12C06C028
S11315000E948B16F8CF0E948B16F5CFC601DF918F
S1131510CF911F910F91FF90EF90DF90CF9008959E
S1131520CF93DF93009799F1FC01349722813381A3
S11315304091B4085091B508B90164237523672B11
S113154031F160817181672B11F5EF014095509560
S113155024233523338322830E9447152091BC081A
S11315603091BD088A819B81820F931F9093BD089F
S11315708093BC08CE01BFDE8091B6089091B70875
S113158001969093B7088093B6080E948B16DF915A
S1131590CF910895FC010396928381834FEF5FEF0F
S11315A0BA014383548365837683908787839287C4
S11315B0818710820895FC011386128608950F9383
S11315C01F93CF93DF93EB01088119812A813B811B
S11315D00F3F4FEF14072407340721F4FC01A185C2
S11315E0B28511C0DC01139601C0DF011496ED91A0
S11315F0FC9115974081518162817381041715070D
S11316002607370790F71496ED91FC911597FD8303
S1131610EC83D783C683BF83AE831596DC93CE93C6
S113162014979B878A87FC0120812F5F2083DF9199
S1131630CF911F910F910895CF93DF93FC01A28561
S1131640B385C481D581868197819F838E83C6812A
S1131650D781848195819D838C8311968D919C91F2
S11316601297E817F90731F48681978112969C93B3
S11316708E931197138612868C9181508C938C9142
S1131680DF91CF910895FC01608331977083319786
S1131690108231971082319720E82083319710828D
S11316A03197108231971082779740833197508316
S11316B086970895A89590EC88E10FB6F894A895BC
S11316C0809360000FBE90936000A0914713B09187
S11316D04813CD91CDBFDD91DEBFFF91EF91DF9136
S11316E0CF91BF91AF919F918F917F916F915F91B6
S11316F04F913F912F911F910F91FF90EF90DF90A9
S1131700CF90BF90AF909F908F907F906F905F909D
S11317104F903F902F901F900F900CBE0F900BBED8
S11317200F900FBE0F90089581E008950F920FB6A9
S1131730F8940F920BB60F920CB60F921F921124CD
S11317402F923F924F925F926F927F928F929F92CD
S1131750AF92BF92CF92DF92EF92FF920F931F93BB
S11317602F933F934F935F936F937F938F939F93A5
S1131770AF93BF93CF93DF93EF93FF93A09147135E
S1131780B09148130DB60D920EB60D920E948A17B1
S1131790A0914713B0914813CD91CDBFDD91DEBF29
S11317A0FF91EF91DF91CF91BF91AF919F918F9175
S11317B07F916F915F914F913F912F911F910F9165
S11317C0FF90EF90DF90CF90BF90AF909F908F905D
S11317D07F906F905F904F903F902F901F900F904D
S11317E00CBE0F900BBE0F900FBE0F9008950F927A
S11317F00FB6F8940F920BB60F920CB60F921F927D
S113180011242F923F924F925F926F927F928F9208
S11318109F92AF92BF92CF92DF92EF92FF920F937B
S11318201F932F933F934F935F936F937F938F9364
S11318309F93AF93BF93CF93DF93EF93FF93A091C5
S11318404713B09148130DB60D920EB60D9213BE08
S11318500E945B1581110E948A17A0914713B091D1
S11318604813CD91CDBFDD91DEBFFF91EF91DF91A4
S1131870CF91BF91AF919F918F917F916F915F9124
S11318804F913F912F911F910F91FF90EF90DF9017
S1131890CF90BF90AF909F908F907F906F905F900C
S11318A04F903F902F901F900F900CBE0F900BBE47
S11318B00F900FBE0F9008959ADF18950FB6F89405
S11318C00F92FC01968D0F900FBE81E0911180E084
S11318D008950F931F93CF93DF93EC01042F1E8D74
S11318E048A141110CC088819981892B09F042C01B
S11318F08C819D810E94221A1D821C8242C001118A
S113190017C050E08A819B810E94A33728A18A8155
S11319109B81820F911D9B838A832C813D81821739
S1131920930750F1888199819B838A8380E029C041
S113193050E08E819F810E94A33788A190E0919509
S1131940819591092E813F81280F391F3F832E8372
S1131950488159812417350730F42C813D81820F49
S1131960931F9F838E83023049F4112349F0115051
S113197080E007C080E005C080E003C080E001C0D3
S113198080E01F5F1E8FDF91CF911F910F9108950B
S1131990FC0140A14423A9F050E026813781240FA3
S11319A0351F37832683848195812817390720F0D2
S11319B08081918197838683CB01668177810C94A2
S11319C0A3370895EF92FF920F931F93CF938C0147
S11319D00FB6F8940F92FC01C2A11C16ACF48389D3
S11319E0811106C011C0F8018389811105C00CC0A2
S11319F07801F3E1EF0EF11CC7010E945418811124
S1131A000E948419C15079F78FEFF80182A30F90D7
S1131A100FBE0FB6F8940F92C1A11C16ACF48085CA
S1131A20811106C011C0F8018085811105C00CC068
S1131A307801F8E0EF0EF11CC7010E9454188111DF
S1131A400E948419C15079F78FEFF80181A30F9098
S1131A500FBECF911F910F91FF90EF900895CF93F8
S1131A60DF93EC010FB6F8940F92E881F9818F8D22
S1131A7028A190E030E0829FA001839F500D929FA7
S1131A80500D11244E0F5F1F5D834C831E8EFB830C
S1131A90EA830197829FA001839F500D929F500D6E
S1131AA01124CF01840F951F9F838E838FEF89A309
S1131AB08AA361110BC08885882371F0CE01089632
S1131AC00E945418882341F031DE06C0CE010896E6
S1131AD061DDCE0143965EDD0F900FBE81E0DF91A4
S1131AE0CF9108950F931F93CF93DF93082F162F51
S1131AF0869FC001112483964BDCEC01009769F0AA
S1131B00111103C09983888303C0839699838883C2
S1131B100F8F18A361E0CE01A2DFCE01DF91CF9138
S1131B201F910F9108959F92AF92BF92CF92DF922F
S1131B30EF92FF920F931F93CF93DF93CDB7DEB74E
S1131B4029970FB6F894DEBF0FBECDBF7C015B01B1
S1131B502E833F834887598710E0992493946C011E
S1131B6088E0C80ED11C0FB6F8940F92F701968D39
S1131B70878D981710F00230B1F4402FB501C701DA
S1131B80A8DEF7019389992341F0C70143960E9487
S1131B905418882321F0CADD02C08111C7DD0F90DB
S1131BA00FBE81E051C08E819F81A885B985892BA4
S1131BB08A2B8B2B21F40F900FBE80E045C01111AE
S1131BC005C0CE0101960E941A19192D0F900FBE5F
S1131BD05ED70FB6F8940F92F70181A18F3F09F4F5
S1131BE011A2F70182A18F3F09F412A20F900FBE38
S1131BF0BE016A5F7F4FCE0101960E942B198111AD
S1131C001EC00FB6F8940F92F701968D878D0F9032
S1131C100FBE98130FC04E815F8168857985C60118
S1131C200E94FB17C701CEDE0E948B1681119BCF49
S1131C307DDD99CFC701C6DE0E948B1694CFC70104
S1131C40C1DE0E948B1680E029960FB6F894DEBFA1
S1131C500FBECDBFDF91CF911F910F91FF90EF90F9
S1131C60DF90CF90BF90AF909F900895EF92FF9236
S1131C700F931F93CF93DF938A01FC01568D378D09
S1131C80531710F02230F9F4422F7801EC011AA115
S1131C908E8DCE011EDE1F3F81F48B898823A9F02F
S1131CA0CE0143960E945418882389F0E114F1046C
S1131CB081F081E0F70180830DC0FF24F394F10EDD
S1131CC0FAA281E007C080E005C081E003C081E0A2
S1131CD001C081E0DF91CF911F910F91FF90EF90B0
S1131CE008959F92AF92BF92CF92DF92EF92FF92AC
S1131CF00F931F93CF93DF93CDB7DEB729970FB61A
S1131D00F894DEBF0FBECDBF8C015B012E833F83F1
S1131D1048875987E12C992493946C0183E1C80E78
S1131D20D11C0FB6F8940F92F801F68CFF2099F0AD
S1131D30B501C8012DDEFA94F801F68E808588235A
S1131D4031F0C80108960E9454188111EFDC0F90FD
S1131D500FBE81E04DC08E819F81A885B985892BF6
S1131D608A2B8B2B21F40F900FBE80E041C0E11031
S1131D7005C0CE0101960E941A19E92C0F900FBEDE
S1131D8086D60FB6F8940F92F80181A18F3F09F41B
S1131D9011A2F80182A18F3F09F412A20F900FBE85
S1131DA0BE016A5F7F4FCE0101960E942B198111FB
S1131DB016C0C80183DD882371F04E815F81688578
S1131DC07985C6010E94FB17C801FCDDA4D78111E7
S1131DD0A8CFACDCA6CFC801F5DD9DD7A2CFC80142
S1131DE0F1DD99D7C8016ADD882309F49ACF80E030
S1131DF029960FB6F894DEBF0FBECDBFDF91CF9109
S1131E001F910F91FF90EF90DF90CF90BF90AF9014
S1131E109F900895BF92CF92DF92EF92FF920F931B
S1131E201F93CF93DF93CDB7DEB729970FB6F894FE
S1131E30DEBF0FBECDBF8C014E835F836887798779
S1131E40B12CD12CCC24C3947C0183E1E80EF11C89
S1131E500FB6F8940F92D8015E968C915E97882302
S1131E60E1F081505E968C935E978D919C91892BC5
S1131E7029F40E94E41AF80195838483D801189602
S1131E808C91882331F0C80108960E94541881115E
S1131E904DDC0F900FBE81E07BC08E819F81A885B1
S1131EA0B985892B8A2B8B2B21F40F900FBE80E0F0
S1131EB06FC0D11005C0CE0101960E941A19DC2C06
S1131EC00F900FBEE4D50FB6F8940F92F80181A1DC
S1131ED08F3F09F411A2D80192968C9192978F3F6B
S1131EE011F492961C920F900FBEBE016A5F7F4F51
S1131EF0CE0101960E942B19811125C0C801DEDC98
S1131F008823E9F0F80180819181892B51F40FB67F
S1131F10F8940F92848195810E949B19B82E0F909A
S1131F200FBE4E815F8168857985C7010E94FB17CA
S1131F30C80148DDF0D681118BCFF8DB89CFC80109
S1131F4041DDE9D685CFC8013DDDE5D6C801B6DC63
S1131F50882309F47DCFBB20D1F00FB6F8940F92FB
S1131F60F8018389882339F0028CF38DE02D808178
S1131F706AE0681B01C060E0D80114968D919C91C1
S1131F8015970E947D1A0F900FBE80E001C080E07B
S1131F9029960FB6F894DEBF0FBECDBFDF91CF9167
S1131FA01F910F91FF90EF90DF90CF90BF90089515
S1131FB0CF93DF93EC010FB6F8940F9289A18F3F72
S1131FC009F419A28AA18F3F09F41AA20F900FBE37
S1131FD08E8D811104C0CE0143960E941218CE0149
S1131FE0F1DCDF91CF910895FC0144815581228178
S1131FF03381240F351F80819181B901681B790BCE
S1132000CB016417750710F0841B950B0895AF92EC
S1132010BF92CF92DF92EF92FF920F931F93CF93D1
S1132020DF936C015B017A01FC01C281D3810481DD
S113203015810C1B1D0B4017510708F48A01F6018A
S113204084859585A801B5018C0F9D1F0E94A33737
S11320500E151F0558F4A701401B510BB501600F65
S1132060711FF601848595850E94A337CE018E0DDC
S11320709F1DF601248135818217930710F0821B7E
S1132080930BF60193838283C701DF91CF911F9154
S11320900F91FF90EF90DF90CF90BF90AF90089595
S11320A0CF92DF92EF92FF920F931F93CF93DF9320
S11320B01F921F92CDB7DEB75A834983211531058C
S11320C0C9F06B017C01FC01868580FD08C0CA0152
S11320D02417350708F4C9019A83898311C020178E
S11320E0310758F042E050E0BE016F5F7F4FC701F7
S11320F08EDF06C080E090E008C080E090E005C07C
S113210049815A81B601C70182DF0F900F90DF9198
S1132110CF911F910F91FF90EF90DF90CF90089592
S1132120AF92BF92CF92DF92EF92FF920F931F93E1
S1132130CF93DF937C015B01E9014217530708F455
S1132140EA01209779F1F70100811181C480D580DB
S1132150C01AD10ACC15DD0508F46E01F7016485B7
S11321607585600F711FA601C5010E94A337CC16A7
S1132170DD0658F4AE014C195D09F70164857585D7
S1132180C5018C0D9D1D0E94A3370C0F1D1FF70167
S1132190848195810817190710F0081B190BF701A2
S11321A011830083CE01DF91CF911F910F91FF9096
S11321B0EF90DF90CF90BF90AF900895FF920F9370
S11321C01F93CF93DF938B01FF24F394413009F0E5
S11321D0F12C0115110511F401E010E09C01205FC0
S11321E03F4F82179307B0F4EC012196C901D0D870
S11321F0FC01892B89F08FE0DF011D928A95E9F7B4
S1132200CF010F9695878487D583C483178306836C
S1132210F68602C0E0E0F0E0CF01DF91CF911F919C
S11322200F91FF9008950FB6F8940F92DC01189661
S11322302D913C911997232B51F51A962D913C9190
S11322401B97232B31F51E962C911E9716964D91B4
S11322505C91179714966D917C9115971C96ED914E
S1132260FC911D973FE01D923A95E9F7DC011D961C
S1132270FC93EE931C9715967C936E931497179684
S11322805C934E9316971E962C9381E003C080E0D6
S113229001C080E00F900FBE0895FC0124813581B8
S11322A08081918142815381820F931F0197841B06
S11322B0950B8217930710F0821B930B08952F92AE
S11322C03F924F925F926F927F928F929F92AF92C2
S11322D0BF92CF92DF92EF92FF920F931F93CF930F
S11322E0DF93CDB7DEB72B970FB6F894DEBF0FBEE2
S11322F0CDBF4C017B876A871A010E831F83288711
S11323003987FC01848195810197268520FF0CC0C3
S11323102A01F2E04F0E511C8415950550F41E82DB
S11323201F821886198645C02A018417950708F468
S11323302C018E819F81A885B985892B8A2B8B2BB3
S113234009F437C0CE0101965FD70FB6F8940F9207
S1132350C401A3DF3C018415950530F560E080E0FD
S113236090E00E94B01DD4D7F401938782870F9028
S11323700FBEAE80BF80C884D984E12CF12C00E06C
S113238010E0980140E050E0BA0180E00E94F61AA3
S1132390F40113861286BE016A5F7F4FCE01019657
S11323A05AD7882391F202C00F900FBE61147104B2
S11323B019F4C40172DF3C0182019301A1016A8511
S11323C07B85C4016DDE6C01892BE9F0C4010CDE50
S11323D0F4012681378182179307A8F058D3F401BA
S11323E080859185892B71F080859185E12CF12C74
S11323F000E020E030E0A90160E00E949E1BF401AF
S11324001186108688D4C6012B960FB6F894DEBFC9
S11324100FBECDBFDF91CF911F910F91FF90EF9031
S1132420DF90CF90BF90AF909F908F907F906F90F0
S11324305F904F903F902F900895AF92BF92CF92AC
S1132440DF92EF92FF920F931F93CF93DF93EC01F0
S11324507B015A0169018E8580FF04C08A010E5FE9
S11324601F4F01C08A01CE0118DF9C01A501B701ED
S1132470CE0116DE5C01892BC1F0CE01B5DD2E81C3
S11324803F818217930788F088859985892B69F0A5
S113249088859985E12CF12C00E020E030E0A90149
S11324A060E00E94921C19861886C501DF91CF91C5
S11324B01F910F91FF90EF90DF90CF90BF90AF905E
S11324C008952F923F924F925F926F927F928F92D4
S11324D09F92AF92BF92CF92DF92EF92FF920F93AF
S11324E01F93CF93DF931F921F92CDB7DEB74C019A
S11324F01B012A0158016901FC01868580FD03C086
S1132500612C712C04C06894662461F8712CA114A8
S1132510B104C104D10449F10FB6F8940F92C40177
S113252063DD8C016816790648F060E080E090E095
S11325300E94B01DEDD6F401918780870F900FBEE5
S113254060167106C0F0E12CF12C00E010E0980157
S113255040E050E0BA0180E00E94F61AF4011186CE
S11325601086C40141DD8C0103C0C4013DDD8C0132
S113257060167106C8F561147104C1F0F401C080DD
S1132580D1809801A301BE016F5F7F4FC401C8DDF4
S113259089819A81061917094816590630F4F401FD
S11325A0D182C082412C512C01C02C019801A2017E
S11325B0B101C401B5DD6C01892BC1F068D2F4010D
S11325C082859385892B71F082859385E12CF12C8A
S11325D000E020E030E0A90160E00E949E1BF401CD
S11325E01386128698D302C0C12CD12CC6010F9039
S11325F00F90DF91CF911F910F91FF90EF90DF909B
S1132600CF90BF90AF909F908F907F906F905F908E
S11326104F903F902F900895E091C112F091C21213
S1132620808181110CC08FEF9FEFDC0180938B12AE
S113263090938C12A0938D12B0938E120895E09112
S1132640C112F091C2120780F085E02D8081918142
S1132650A281B38180938B1290938C12A0938D12DC
S1132660B0938E1208958F929F92AF92BF92CF92A1
S1132670DF92EF92FF92CF93DF936B017C01C42F23
S11326808090981290909912A0909A12B0909B12F8
S1132690809147139091481302960E941C0B8FEF70
S11326A0C816D806E806F806B1F5CC23A1F1EDE981
S11326B0F2E1A181B281C0914713D0914813BF8345
S11326C0AE83C0914713D091481316968D919C9177
S11326D01797998788871696CD91DC9117978091E3
S11326E047139091481302969D838C8380914713DE
S11326F090914813029617969C938E931697A091E7
S11327004713B09148131D96FC93EE931C97808158
S11327108F5F80833FC0C80CD91CEA1CFB1CE0916E
S11327204713F0914813C282D382E482F582C8141D
S1132730D904EA04FB0468F46091471370914813C8
S11327408091BF129091C0126E5F7F4F0E94DF0A8A
S113275021C060914713709148138091C1129091E8
S1132760C2126E5F7F4F0E94DF0A80918B1290919C
S11327708C12A0918D12B0918E12C816D906EA0659
S1132780FB0640F4C0928B12D0928C12E0928D1210
S1132790F0928E12DF91CF91FF90EF90DF90CF9067
S11327A0BF90AF909F908F9008954F925F926F92D9
S11327B07F928F929F92AF92BF92CF92DF92EF92CD
S11327C0FF920F931F93CF93DF934C016B015A0138
S11327D02901CA010E94C8093C01892B09F40DC1D1
S11327E084E390E00E94C809EC01892B99F07C8E67
S11327F06B8EA50165EA70E0C3010E94AC3781E0ED
S1132800A81AB1088B8D9C8DA80EB91EC114D104D1
S113281029F420C0C3010E94900AEFC0D6018C9114
S11328208D8F8C918823A1F0AE01425E5F4FF6013B
S11328303196B0E1CB0ED11CCF012191DA012D9359
S1132840AD01DC018C91882319F0CE16DF06A1F7C7
S11328501CA601C01D8E0A3008F009E00A8F0DA7DE
S11328601EA66E01B2E0CB0ED11CC6010E94DB0A8B
S1132870CE010E960E94DB0ADB87CA878AE090E0CD
S1132880A0E0B0E0801B9109A109B1098E879F8760
S1132890A88BB98BDF8BCE8B84E0FE01BF96DF0162
S11328A01D928A95E9F71BAAA201B401C5010E94F1
S11328B0430B99838883E114F10419F0F701D18360
S11328C0C0830FB6F8940F9280919C128F5F80930F
S11328D09C128091471390914813892BD1F5D09382
S11328E04813C093471380919C12813009F041C072
S11328F009ED12E10F2EF7E4EF2EF3E1FF2EF02D98
S1132900C8010E94CA0A055F1F4F0E151F05C1F7B3
S11329108EEC92E10E94CA0A83EC92E10E94CA0AF8
S113292084EB92E10E94CA0A89EA92E10E94CA0AEF
S11329308DE992E10E94CA0A8EEC92E19093C21250
S11329408093C11283EC92E19093C0128093BF12E2
S113295010C08091961281110CC0E0914713F09140
S11329604813928D8A8D891720F0D0934813C09311
S1132970471380918F128F5F80938F12EA8D80911D
S113298097128E1710F4E09397128BE08E9FF0014C
S11329901124E752FD4E0180F281E02DFF83EE8386
S11329A02681378139872887A681B7811596DC92DD
S11329B0CE921497D782C682EA8D8E9FF00111249D
S11329C0E752FD4EFD87EC8780818F5F80830F90F7
S11329D00FBE80919612882361F0E0914713F09125
S11329E04813928D8A8D981730F40E94960B81E0DB
S11329F005C081E003C081E001C08FEFDF91CF917A
S1132A001F910F91FF90EF90DF90CF90BF90AF9008
S1132A109F908F907F906F905F904F900895EF926A
S1132A20FF920F930F2EF9E8EF2EF2E1FF2EF02D17
S1132A3000E020E030E040EC50E062EE73E08EE035
S1132A4091E0B3DE8130E9F40E943C1E8130C9F488
S1132A50F8948FEF9FEFDC0180938B1290938C128C
S1132A60A0938D12B0938E1281E0809396121092EF
S1132A7098121092991210929A1210929B120E941C
S1132A805A0B809106020F91FF90EF900895809168
S1132A9088128F5F8093881208950FB6F8940F926E
S1132AA0609198127091991280919A1290919B1250
S1132AB00F900FBE0895CF92DF92EF92FF920F9383
S1132AC01F93CF93DF9380918812811107C1C09027
S1132AD09812D0909912E0909A12F0909B128FEF76
S1132AE0C81AD80AE80AF80AC0929812D092991221
S1132AF0E0929A12F0929B12C114D104E104F10401
S1132B00B1F48091C1129091C2122091BF12309100
S1132B10C0123093C2122093C1129093C0128093BA
S1132B20BF12809190128F5F8093901275DD809117
S1132B308B1290918C12A0918D12B0918E12C816A6
S1132B40D906EA06FB0610F480E0B3C080E04BE04F
S1132B5051E0E091C112F091C212908191110CC028
S1132B604FEF5FEFBA0140938B1250938C12609336
S1132B708D1270938E129DC0E091C112F091C21219
S1132B800780F085E02D0084F185E02D028113811A
S1132B9024813581C016D106E206F30648F4009379
S1132BA08B1210938C1220938D1230938E1281C04D
S1132BB0A485B585C681D781208531853F832E8341
S1132BC0C085D185268137813D832C839F012E5F6B
S1132BD03F4F11966D917C9112976217730731F4F0
S1132BE06085718512967C936E9311971586148671
S1132BF09C9191509C93A08DB18D109709F1C2893D
S1132C00D389648975897F836E83C489D5896289F0
S1132C1073897D836C831196CD91DC911297BF01EA
S1132C20625F7F4FC617D70731F46489758912969E
S1132C307C936E931197118E108E9C9191509C935E
S1132C40A28D909197129A1710F4A09397124A9F0D
S1132C50D0011124A752BD4E11960D90BC91A02D08
S1132C60B783A68316966D917C91179771876087B9
S1132C701696CD91DC9117973D832C8317963C9340
S1132C802E931697A28D4A9FD0011124A752BD4EB0
S1132C90B587A4879C919F5F9C93A0914713B091A3
S1132CA04813228D5A969C91291708F452CF852FE8
S1132CB050CFE0914713F0914813E28D9BE0E99FD8
S1132CC0F0011124E752FD4E9081923008F081E02A
S1132CD0909191129923B1F081E014C080919212E5
S1132CE090919312A0919412B09195120196A11D06
S1132CF0B11D8093921290939312A0939412B09367
S1132D00951280E0DF91CF911F910F91FF90EF908A
S1132D10DF90CF900895CF92DF92EF92FF920F93BE
S1132D201F93CF93DF930FB6F8940F92809188127C
S1132D30815080938812809188128111C4C080913F
S1132D409C1281118BC0C2C0D8011796ED91FC91E1
S1132D5018970084F185E02DA08DB18D8289938927
S1132D6064897589EC017F836E838489958962897E
S1132D707389EC017D836C83CF010E9611966D915E
S1132D807C9112976817790731F484899589129692
S1132D909C938E931197118E108E8C9181508C93ED
S1132DA0A485B5858681978160857185EC017F83D3
S1132DB06E838085918566817781EC017D836C8348
S1132DC0CF01029611966D917C911297681779073D
S1132DD031F46085718512967C936E9311971586F4
S1132DE014862C9121502C93A28D209197122A178E
S1132DF010F4A09397123A9FD0011124A752BD4E0C
S1132E0011960D90BC91A02DB783A68316966D9153
S1132E107C9117977187608716966D917C911797AF
S1132E20EB019D838C8317969C938E931697A28DAA
S1132E303A9FD0011124A752BD4EB587A4878C9127
S1132E408F5F8C93A0914713B0914813928D5A963B
S1132E508C91981748F04093911206C0E0E0F0E09E
S1132E6004EB12E13BE041E0D8018C9181116CCF7D
S1132E70EF2B09F0D1DBC0909212D0909312E09026
S1132E809412F0909512C114D104E104F10499F064
S1132E90C1E011DE8111C0939112B1E0CB1AD108C7
S1132EA0E108F108B1F71092921210929312109265
S1132EB094121092951280919112882331F00E94FD
S1132EC0960B81E003C080E001C080E00F900FBE4C
S1132ED0DF91CF911F910F91FF90EF90DF90CF90F2
S1132EE00895CF92DF92EF92FF926B017C01672BE2
S1132EF0682B692B41F0CBDD40E0C701B601B3DBA1
S1132F000ADF811102C00E94960BFF90EF90DF90C0
S1132F10CF90089580918812882321F081E08093D6
S1132F209112089510929112A0914713B0914813F1
S1132F30E0914713F09148132D913C91838D948D2A
S1132F408217930758F0609147137091481380914A
S1132F50471390914813635E7F4FB6D780919712C1
S1132F60282F30E09BE0899FF0011124E752FD4EA9
S1132F70908191110EC04BE08150282F30E0429F88
S1132F80F001439FF00D1124E752FD4E90819923E7
S1132F9099F39BE0929FA001939F500D1124DA01B5
S1132FA0A752BD4E1196ED91FC9112970480F581C4
S1132FB0E02D1296FC93EE93119744525D4EE41764
S1132FC0F50729F444815581FD01528341839BE037
S1132FD0929FF001939FF00D1124E752FD4E018062
S1132FE0F281E02D208531853093481320934713D7
S1132FF0809397120895CF92DF92EF92FF926A0125
S11330007B016091471370914813625F7F4F0E9468
S1133010DF0A41E0C701B60126DBFF90EF90DF90A5
S1133020CF900895CF93DF93FC01CB01BA01A18126
S1133030B281C0914713D0914813BB8BAA8BC09126
S11330404713D091481316964D915C9117975D8B59
S11330504C8B1696CD91DC91179740914713509164
S11330604813425F5F4F5D834C83409147135091F7
S11330704813425F5F4F17965C934E931697A09147
S11330804713B09148135996FC93EE9358973081A7
S11330903F5F3083222319F06FEF7FEFCB01422F84
S11330A0E2DADF91CF910895CF93DF93DC01179695
S11330B0ED91FC9118970084F185E02DA08DB18DE0
S11330C0C289D389848995899F838E83C489D5894C
S11330D0828993899D838C839F01225F3F4F119640
S11330E08D919C9112978217930731F48489958965
S11330F012969C938E931197118E108E8C91815001
S11331008C9380918812811152C0A485B585C681A3
S1133110D781808591859F838E83C085D185868163
S113312097819D838C839F012E5F3F4F11968D91D4
S11331309C9112978217930731F48085918512969A
S11331409C938E931197158614868C9181508C9341
S1133150A28D809197128A1710F4A09397128BE096
S11331608A9FD0011124A752BD4E11960D90BC9197
S1133170A02DB783A68316964D915C91179751871E
S113318040871696CD91DC9117973D832C83179633
S11331903C932E931697A28D8A9FD0011124A75297
S11331A0BD4EB587A4878C918F5F8C931CC044EB74
S11331B052E1DA011196CD91DC911297D38BC28B37
S11331C08E819F81958B848B8E819F81DC011596E6
S11331D03C932E9314973F832E83518F408FDA01B3
S11331E08C918F5F8C93A0914713B0914813928D6B
S11331F05A968C91891720F481E08093911201C032
S113320080E0DF91CF9108950FB6F8940F9220914A
S11332109012FC0120834091981250919912609170
S11332209A1270919B1241835283638374830F902B
S11332300FBE089520919012FC01208340919812B2
S11332405091991260919A1270919B12418352830A
S1133250638374830895CF92DF92EF92FF920F936A
S11332601F93CF93DF93FB010FB6F8940F92409115
S113327098125091991260919A1270919B12008148
S11332801181228133810F3FAFEF1A072A073A07D2
S113329079F1EC01C980DA80EB80FC80A091901276
S11332A0B881BA1759F04C155D056E057F0530F0ED
S11332B0108211821282138281E01BC04C195D09B5
S11332C06E097F09401751076207730758F4041BFE
S11332D0150B260B370B0083118322833383AADF5C
S11332E080E007C0108211821282138281E001C043
S11332F080E00F900FBEDF91CF911F910F91FF904F
S1133300EF90DF90CF90089581E08093911208951B
S113331080914713909148130895809196128823C1
S113332031F080918812882321F080E0089581E0B3
S1133330089582E008950F931F93CF93DF93FC01C8
S1133340892B09F479C0828DA0914713B091481359
S11333505A969C91891708F063C046855785608901
S11333607189772394F0A0914713B09148135A962A
S11333709C914AE050E060E070E0491B510961090A
S1133380710946875787608B718B2BE0829FC00140
S1133390112487529D4E2485358528173907B9F5A0
S11333A0EF018F010E5F1F4FC8010E941C0BE091BB
S11333B04713F0914813E28DEA8F809197128E178C
S11333C010F4E09397128BE08E9FF0011124E752E2
S11333D0FD4E0180F281E02DFF83EE83268137814B
S11333E039872887A681B78115961C930E93149765
S11333F017830683EA8D8E9FF0011124E752FD4E58
S1133400FD87EC8780818F5F808381E016C0A09167
S11334104713B09148135A968C91828F81E00DC066
S1133420A0914713B091481381E025A55A969C9129
S1133430291718F080E001C080E0DF91CF911F913F
S11334400F9108950F931F93CF93DF93FC01892B62
S113345009F449C086A5815086A7228D95A5291710
S113346009F443C0811143C0EF018F010E5F1F4F68
S1133470C8010E941C0BEDA5EA8F8AE090E0A0E051
S1133480B0E08E1B9109A109B1098E879F87A88B93
S1133490B98B809197128E1710F4E09397128BE0FA
S11334A08E9FF0011124E752FD4E0180F281E02D40
S11334B0FF83EE832681378139872887A681B781E8
S11334C015961C930E93149717830683EA8D8E9F8B
S11334D0F0011124E752FD4EFD87EC8780818F5F58
S11334E0808381E005C080E003C080E001C080E00B
S11334F0DF91CF911F910F9108950F931F93CF9355
S1133500DF93FC01892B09F45AC085A5861708F4BA
S1133510862F928D981709F452C026A5213009F000
S11335204EC0828F4685578560897189772364F000
S11335304AE050E060E070E0481B510961097109FC
S113354046875787608B718B2BE0929FC0011124B3
S113355087529D4E248535852817390781F5EF015B
S11335608F010E5F1F4FC8010E941C0BEA8D8091D2
S113357097128E1710F4E09397128BE08E9FF00150
S11335801124E752FD4E0180F281E02DFF83EE838A
S11335902681378139872887A681B78115961C93A0
S11335A00E93149717830683EA8D8E9FF0011124DE
S11335B0E752FD4EFD87EC8780818F5F8083DF912A
S11335C0CF911F910F9108958091471390914813C3
S11335D0892B39F0E0914713F091481386A58F5F4A
S11335E086A7809147139091481308954F925F9254
S11335F06F927F92AF92BF92CF92DF92EF92FF923F
S11336000F931F93CF93DF93280139010FB6F894DA
S11336100F92E0914713F0914813C82FD0E0EC0FBC
S1133620FD1F83A9823079F1E0914713F09148138B
S1133630CE01880F991F880F991FE80FF91F87A5DE
S113364090A9A1A9B2A94095509560957095482379
S113365059236A237B2347A750AB61AB72ABE0913C
S11336604713F0914813EC0FFD1F81E083ABA114C5
S1133670B104C104D10439F041E0C601B5010E948E
S113368033130E94960B0F900FBE0FB6F8940F924F
S1133690E114F104A1F0E0914713F0914813CE0135
S11336A0880F991F880F991FE80FF91F87A590A904
S11336B0A1A9B2A9F70180839183A283B383E09186
S11336C04713F0914813EC0FFD1F83A98230E9F4EE
S11336D0E0914713F0914813CE01880F991F880F8A
S11336E0991FE80FF91F87A590A9A1A9B2A9409431
S11336F0509460947094482259226A227B2247A6EF
S113370050AA61AA72AA81E001C080E02091471307
S113371030914813C20FD31F1BAA0F900FBEDF9125
S1133720CF911F910F91FF90EF90DF90CF90BF90BA
S1133730AF907F906F905F904F9008958F929F927B
S1133740AF92BF92EF92FF920F93CF93DF93DC017E
S11337500FB6F8940F92E114F10479F0FC0184E0BF
S1133760689FE00DF11D112487A490A8A1A8B2A818
S1133770F70180829182A282B38270E0FD01E60F9C
S1133780F71F83A992E093AB0230F9F018F40130EB
S113379031F049C0033069F10430B9F144C0660F17
S11337A0771F660F771FFD01E60FF71F87A490A808
S11337B0A1A8B2A8BA01A901482959296A297B29D3
S11337C047A750AB61AB72AB2EC0660F771F660F75
S11337D0771FFD01E60FF71F47A550A961A972A93C
S11337E04F5F5F4F6F4F7F4F47A750AB61AB72ABDB
S11337F01AC0660F771F660F771FFD01E60FF71FCC
S113380027A730AB41AB52AB0EC0823009F479C06C
S1133810660F771F660F771FFD01E60FF71F27A7B7
S113382030AB41AB52AB813009F06DC01C96ED91C9
S1133830FC911D971696CD91DC91179718968D9152
S11338409C9119979F838E831896CD91DC9119973B
S113385016968D919C9117979D838C839D012E5F65
S11338603F4F818192818217930731F418968D918D
S11338709C911997928381831D961C921E921C978A
S11338808081815080835A96EC915A978091971247
S11338908E1710F4E09397128BE08E9FF0011124A1
S11338A0E752FD4E0180F281E02D1796FC93EE93D2
S11338B016974681578119965C934E931897C68143
S11338C0D7813D832C83378326835A96EC915A976C
S11338D08E9FF0011124E752FD4E1D96FC93EE934A
S11338E01C9780818F5F8083E0914713F091481388
S11338F05A969C91828D891740F40E94960B81E020
S113390005C080E003C081E001C081E00F900FBEDC
S1133910DF91CF910F91FF90EF90BF90AF909F9068
S11339208F9008958F929F92AF92BF92CF92DF9221
S1133930EF92FF920F93CF93DF93DC01E114F10434
S113394079F0FC0184E0689FE00DF11D112487A447
S113395090A8A1A8B2A8F70180829182A282B38222
S113396070E0FD01E60FF71F83A992E093AB0230EC
S1133970F9F018F4013031F049C0033069F1043032
S1133980B9F144C0660F771F660F771FFD01E60F7C
S1133990F71F87A490A8A1A8B2A8BA01A901482931
S11339A059296A297B2947A750AB61AB72AB2EC05A
S11339B0660F771F660F771FFD01E60FF71F47A5F8
S11339C050A961A972A94F5F5F4F6F4F7F4F47A7FF
S11339D050AB61AB72AB1AC0660F771F660F771FCF
S11339E0FD01E60FF71F27A730AB41AB52AB0EC06A
S11339F0823009F4A4C0660F771F660F771FFD019C
S1133A00E60FF71F27A730AB41AB52AB813009F06B
S1133A1098C08091881281115FC01C96ED91FC9131
S1133A201D971696CD91DC91179718968D919C91C0
S1133A3019979F838E831896CD91DC9119971696CA
S1133A408D919C9117979D838C839D012E5F3F4F91
S1133A50818192818217930731F418968D919C91FC
S1133A601997928381831D961C921E921C978081C4
S1133A70815080835A96EC915A97809197128E17B1
S1133A8010F4E09397128BE08E9FF0011124E7521B
S1133A90FD4E0180F281E02D1796FC93EE9316976C
S1133AA04681578119965C934E931897C681D781A6
S1133AB03D832C83378326835A96EC915A978E9FA5
S1133AC0F0011124E752FD4E1D96FC93EE931C97D2
S1133AD080818F5F808320C044EB52E1FA01C18171
S1133AE0D2815396DC93CE9352978E819F815596C3
S1133AF09C938E9354972E813F81CD010E96F901AC
S1133B00958384839F838E8359965C934E935897B1
S1133B10FA0180818F5F8083E0914713F09148130D
S1133B205A969C91828D891770F4C114D10419F0AE
S1133B3081E0F601808381E08093911205C080E0EA
S1133B4003C081E001C081E0DF91CF910F91FF902C
S1133B50EF90DF90CF90BF90AF909F908F9008959B
S1133B60009721F480914713909148130FB6F8946D
S1133B700F9270E0FC01E60FF71F23A9223031F405
S1133B80FC01E60FF71F13AA81E001C080E00F904B
S1133B900FBE0895CF92DF92EF92FF920F931F937F
S1133BA0FC0142835383648375839387828704175C
S1133BB0150726073707C0F00C191D092E093F0900
S1133BC086859785A089B189081719072A073B07B5
S1133BD000F5BF016E5F7F4F809151139091521396
S1133BE00E94DF0A80E018C00C151D052E053F0554
S1133BF028F44C155D056E057F0568F4BF016E5F02
S1133C007F4F80915313909154130E94DF0A80E0F8
S1133C1003C081E001C081E01F910F91FF90EF90FC
S1133C20DF90CF9008950FB6F8940F9280914F13C0
S1133C3090915013892BE9F480E693E10E94CA0A1B
S1133C4085E593E10E94CA0A80E693E190935413B8
S1133C508093531385E593E190935213809351130A
S1133C6040E067E08AE00E94720D909350138093C5
S1133C704F130F900FBE0895EF92FF920F93D3DF6F
S1133C8080914F1390915013892B91F00F2EFDE4E6
S1133C90EF2EF3E1FF2EF02D03E020E030E040ECC6
S1133CA050E067EE73E088E491E00E94D51301C010
S1133CB080E00F91FF90EF9008958F929F92AF92C2
S1133CC0BF92CF92DF92EF92FF920F931F93CF9305
S1133CD0DF93CDB7DEB727970FB6F894DEBF0FBEDC
S1133CE0CDBFE0914F13F0915013309781F1698368
S1133CF02A833B834C835D839F838E836630F4F4F5
S1133D000CDB823069F400E0A7019601BE016F5F0D
S1133D107F4F80914F13909150130E94930D18C0C0
S1133D2000E020E030E0A901BE016F5F7F4F809189
S1133D304F13909150130E94930D0AC020E0A801E4
S1133D40BE016F5F7F4FCF010E94360E01C080E03D
S1133D5027960FB6F894DEBF0FBECDBFDF91CF918B
S1133D601F910F91FF90EF90DF90CF90BF90AF9095
S1133D709F908F9008952F923F924F925F926F92EF
S1133D807F928F929F92AF92BF92CF92DF92EF92E7
S1133D90FF920F931F93CF93DF931C010E944D1545
S1133DA02B013C018091491390914A13A0914B132C
S1133DB0B0914C13481659066A067B0608F053C0A6
S1133DC03BC00780F085E02D80809180A280B38085
S1133DD0C085D1858E010E5F1F4FC8010E941C0B48
S1133DE0EC89FD89CE0119958E8982FF25C08E85C7
S1133DF09F85A889B989880D991DAA1DBB1D8816A0
S1133E009906AA06BB0670F48A839B83AC83BD83A0
S1133E10DB87CA87B80180915313909154130E9491
S1133E20DF0A0AC0C12CD12C760100E010E0A50104
S1133E30940160E0CE0141DFE0915313F0915413FB
S1133E4080818111BECF8091511390915213909330
S1133E50541380935313F0935213E093511381E05E
S1133E60F101808302C0F101108240924913509203
S1133E704A1360924B1370924C13C301B201DF9149
S1133E80CF911F910F91FF90EF90DF90CF90BF9053
S1133E90AF909F908F907F906F905F904F903F90E6
S1133EA02F9008950895279A2F9A08951F9A089598
S1133EB0FADF2FEF80E792E0215080409040E1F755
S1133EC000C00000F3DFF5CFEEDF2FEF87EA91E6C5
S1133ED0215080409040E1F700C00000E7DFF5CFBB
S1133EE04F925F926F927F928F929F92AF92BF9206
S1133EF0CF92DF92EF92FF920F931F93CF93DF93B2
S1133F00CDB7DEB7EE88F12CFE2CEE248F89E80EB7
S1133F10F11CC88CD12CDC2CCC24898DC80ED11C6E
S1133F206A8C712C762C66248B8D680E711C0C8D1A
S1133F3010E0102F00278D8D080F111DAE8CB12CB1
S1133F40BA2CAA248F8DA80EB11C88A0912C982C71
S1133F50882489A1880E911C9F928F92BF92AF9260
S1133F601F930F937F926F92DF92CF92FF92EF9203
S1133F708BE294E09F938F930E9402380E94C208C0
S1133F802C01B601DD0C880B990B40D3AB01BC01AD
S1133F90C2010E94F8070E94C2086C01B701FF0C1D
S1133FA0880B990B33D3AB01BC01C6010E942408D2
S1133FB00E94CC08B4010E94F5050E94CC08B5010A
S1133FC00E9419060E94C7087C01B801110F880BD2
S1133FD0990B1CD3AB01BC01C7010E9472060E945D
S1133FE0C7088C01B301770C880B990B0FD3AB0175
S1133FF0BC01C8010E949F060FB6F894DEBF0FBE35
S1134000CDBFDF91CF911F910F91FF90EF90DF9083
S1134010CF90BF90AF909F908F907F906F905F9064
S11340204F90089581E07BD762E070E080E090E0FB
S11340300E94711780E073D766E970E080E090E039
S11340400E94711781E00E94F53177D70E941A2AE5
S11340509F938F938FE394E09F938F930E940238F2
S11340600E941B290E941A2A9F938F9382E594E051
S11340709F938F930E94023889E993E170D70E943D
S11340801A2AC9E9D3E1DF93CF939F938F938BE6E9
S113409094E09F938F930E940238CE017CD70E94B4
S11340A01A2A9F938F93DF93CF938FE794E09F9384
S11340B08F930E940238AE0164E974E085EB94E0CA
S11340C00E94F9290E941A2A9F938F93DF93CF931A
S11340D084E994E09F938F9385EB94E09F938F936F
S11340E086EC94E09F938F930E94023887D70E94B6
S11340F01A2A9F938F938CEF94E09F938F930E943F
S11341000238EDB7FEB7B2960FB6F894FEBF0FBEF5
S1134110EDBF81E00E94F8280E941A2A9F938F9392
S11341208BE095E09F938F930E94023884EF91E097
S11341300E9403290E941A2A9F938F9381E08F93F0
S113414084EF8F938CE295E09F938F930E940238C3
S11341508DB79EB70A960FB6F8949EBF0FBE8DBF5B
S1134160CAE0D0E00CE415E080E04ED7F82E0E94BF
S11341701A2A9F938F93DF93CF931F930F930E94D9
S113418002380F900F900F900F900F900F90F8E05F
S1134190FF1609F4A4C080E00E94593266E371E07E
S11341A080E090E00E9471172197F1F691C00E947F
S11341B0960BFDCF0E94C2080E947508F4D1562EBA
S11341C0472E0E94C7080E944707EDD1162F072FDC
S11341D00E94CC080E94B7054A825B820C831D832F
S11341E09E838F8383E00E946B3282B1892582B9DA
S11341F0BE0180E032D70E941A2A25E08C3692074D
S113420021F0E2E083389E07C1F5F70180826182E4
S113421082B1872582B90FEF1FEF980146E150E084
S1134220B70180916B1390916C130E946112F70196
S113423081811F928F9380811F928F93BF92AF923F
S11342400E9402388DB79EB746970FB6F8949EBF6A
S11342500FBE8DBFADB7BEB7119686E1F7010190D1
S11342600D928A95E1F73CDEEDB7FEB77C960FB66A
S1134270F894FEBF0FBEEDBF21C083579540F1F007
S1134280882D4DD662E070E080E090E00E947117C6
S113429080E045D666E970E080E090E00E94711706
S11342A080E0B2D60E941A2A9F938F93DF92CF9216
S11342B00E9402380F900F900F900F9082B18925C1
S11342C082B964E771E080E090E00E94711772CFD8
S11342D081E00E944A3280E00E94183268CF81E077
S11342E00E943B32E3E8F3E186E0818382E080834D
S11342F0EF016894992492F80F2EFDE6EF2EF3E176
S1134300FF2EF02D882483940F2EFEE06F2EF02DC7
S11343106894772473F80F2EFFEEAF2EF3E0BF2ED0
S1134320F02D0F2EFDE7CF2EF5E0DF2EF02D42CF3E
S1134330EF92FF920F9390936C1380936B13E12C85
S1134340F12C02E021E030E040EC50E06CE975E053
S113435082E190E20E94D5130F91FF90EF900895AF
S113436081B18FEF81B992B181E0892782B992B18D
S113437082E0892782B992B184E0892782B992B117
S113438088E0892782B992B180E1892782B992B104
S113439080E2892782B992B180E4892782B982B107
S11343A0805882B980E00E94192F83E090E00E9437
S11343B0F62AF6D3882341F083EA95E09F938F93FE
S11343C00E9402380F900F9041E060E070E08CE2B0
S11343D090E00E94DE109093FE138093FD13BC01C5
S11343E081E05DC50895BCDF89EC95E00E94153835
S11343F00E949A088091FD139091FE1399DF0E9408
S11344000F15FFCF5058BB27AA270ED075C166D110
S113441030F06BD120F031F49F3F11F41EF45BC1F6
S11344200EF4E095E7FB51C1E92F77D180F3BA1779
S1134430620773078407950718F071F49EF58FC11E
S11344400EF4E0950B2EBA2FA02D0B01B9019001AB
S11344500C01CA01A0011124FF27591B99F0593FEF
S113446050F4503E68F11A16F040A22F232F342F37
S11344704427585FF3CF469537952795A795F04085
S11344805395C9F77EF41F16BA0B620B730B840B9A
S1134490BAF09150A1F0FF0FBB1F661F771F881F52
S11344A0C2F70EC0BA0F621F731F841F48F48795AA
S11344B077956795B795F7959E3F08F0B3CF939599
S11344C0880F08F09927EE0F979587950895D9D00E
S11344D008F481E008950CD00FC107D140F0FED05C
S11344E030F021F45F3F19F0F0C0511139C1F3C02D
S11344F014D198F39923C9F35523B1F3951B550BA4
S1134500BB27AA2762177307840738F09F5F5F4FA2
S1134510220F331F441FAA1FA9F333D00E2E3AF0E3
S1134520E0E830D091505040E695001CCAF729D0FD
S1134530FE2F27D0660F771F881FBB1F261737074C
S11345404807AB07B0E809F0BB0B802DBF01FF277C
S113455093585F4F2AF09E3F510568F0B6C000C1E2
S11345605F3FECF3983EDCF3869577956795B795B6
S1134570F7959F5FC9F7880F911D9695879597F9D1
S11345800895E1E0660F771F881FBB1F621773074A
S11345908407BA0720F0621B730B840BBA0BEE1F5F
S11345A088F7E095089504D06894B111D9C00895AE
S11345B0BCD088F09F5790F0B92F9927B751A0F03D
S11345C0D1F0660F771F881F991F1AF0BA95C9F7A3
S11345D012C0B13081F0C3D0B1E00895C0C0672FDC
S11345E0782F8827B85F39F0B93FCCF38695779553
S11345F06795B395D9F73EF490958095709561953C
S11346007F4F8F4F9F4F0895E89409C097FB3EF466
S113461090958095709561957F4F8F4F9F4F99230B
S1134620A9F0F92F96E9BB279395F6958795779589
S11346306795B795F111F8CFFAF4BB0F11F460FF49
S11346401BC06F5F7F4F8F4F9F4F16C0882311F0A1
S113465096E911C0772321F09EE8872F762F05C0B5
S1134660662371F096E8862F70E060E02AF09A9550
S1134670660F771F881FDAF7880F9695879597F945
S11346800895990F0008550FAA0BE0E8FEEF1616DF
S11346901706E807F907C0F012161306E407F50732
S11346A098F0621B730B840B950B39F40A2661F0A6
S11346B0232B242B252B21F408950A2609F4A14049
S11346C0A6958FEF811D811D089597F99F6780E856
S11346D070E060E008959FEF80EC089500240A9450
S11346E01616170618060906089500240A941216C9
S11346F01306140605060895092E0394000C11F4FC
S1134700882352F0BB0F40F4BF2B11F460FF04C0A8
S11347106F5F7F4F8F4F9F4F089557FD9058440F01
S1134720551F59F05F3F71F04795880F97FB991F0C
S113473061F09F3F79F087950895121613061406C9
S1134740551FF2CF4695F1DF08C016161706180656
S1134750991FF1CF86957105610508940895E89431
S1134760BB2766277727CB0197F908958ADF08F4DA
S11347708FEF08950BD0C0CFB1DF28F0B6DF18F06B
S1134780952309F0A2CFA7CF1124EACFC6DFA0F367
S1134790959FD1F3950F50E0551F629FF001729FD2
S11347A0BB27F00DB11D639FAA27F00DB11DAA1FF1
S11347B0649F6627B00DA11D661F829F2227B00D3E
S11347C0A11D621F739FB00DA11D621F839FA00DC9
S11347D0611D221F749F3327A00D611D231F849F19
S11347E0600D211D822F762F6A2F11249F57504070
S11347F08AF0E1F088234AF0EE0FFF1FBB1F661F0B
S1134800771F881F91505040A9F79E3F510570F0C3
S11348105CCFA6CF5F3FECF3983EDCF386957795AB
S11348206795B795F795E7959F5FC1F7FE2B880FBE
S1134830911D9695879597F9089581B38F6081BBF3
S11348402898289A21B381E090E000902F1402C0A8
S1134850880F991F0A94E2F78095822381BBE09127
S1134860FF13F0910014309709F0199508959FB73C
S1134870F894EBE2F4E110828EE981838AE082838A
S113488083839FBF0895BF92CF92DF92EF92FF92EE
S11348900F931F93CF93DF936B017C01B42E10927F
S11348A0021483E0841778F1642F70E080E090E0D4
S11348B0ABDE9B01AC0160E070E080E291E40E9419
S11348C08C34A701960156DF20E030E040E05FE33E
S11348D09ADD0E94373467DEAB01772364F4442702
S11348E05527461B570B21E0483E83E058070CF43C
S11348F020E011E00CC021E0403187E258070CF4BD
S113490020E010E004C040E050E021E010E00FB7E8
S1134910F894222311F0ABDF51C0CFE2D4E10F2E83
S1134920FBE2CF2EF4E1DF2EF02D0F2EFAE0EF2E76
S1134930F12CF02DCA01B7010E94FA35FC01E652B0
S1134940FA4F80818A93462F572FCC15DD0591F7B6
S113495043E050E04B19510914161506F4F4809104
S11349602B148C3F49F060E019C0FC01E55DFB4E5F
S113497030813C3F21F012C080E090E020E0FC0157
S1134980E55DFB4E1082622F2F5F822F022E000CFA
S1134990990B841795074CF301C060E0112331F0A3
S11349A0E62FF0E0E55DFB4E82E08083BB2031F032
S11349B0FA01E55DFB4E8081816080830FBFDF914A
S11349C0CF911F910F91FF90EF90DF90CF90BF9008
S11349D0089585B5856085BD089585B5887F85BDB5
S11349E081B38F6081BB08958F92AF92CF92EF9283
S11349F00F931F93CF93DF93EC0180B38F6080BB41
S1134A0081B38F6081BB209A8DE194E29F938F9351
S1134A10812CA12CC12CE12C00E010E020E240E02C
S1134A2063E080E10E947B2F9093311480933014D3
S1134A3089E187BD84B5826084BDEEE6F0E08081C3
S1134A4082608083CADFD0930014C093FF130F9059
S1134A500F90DF91CF911F910F91EF90CF90AF9076
S1134A608F9008951F920F920FB60F9211240BB6D8
S1134A700F922F933F934F935F936F937F938F93F3
S1134A809F93AF93BF93EF93FF9380910214882376
S1134A9069F12091031430910414253F91E0390702
S1134AA038F42F5F3F4F30930414209303141EC037
S1134AB01092041410920314E09101142E2F30E08C
S1134AC090E004972817390714F4EF5F01C0E0E081
S1134AD0E0930114F0E0EB5FFB4EABE2B4E12FE2B4
S1134AE034E181918D93A217B307D9F780912F14E4
S1134AF090E0019683709078992324F401978C6F49
S1134B009F6F019680932F149927FC01E55DFB4E5E
S1134B106081609580913014909131140E944D30E1
S1134B20FF91EF91BF91AF919F918F917F916F9181
S1134B305F914F913F912F910F900BBE0F900FBE3D
S1134B400F901F9018956530F1F4FA0180818F73EE
S1134B5090E0982F88272181822B90930A028093DA
S1134B6009028281F0E48F9FC0011124FA0123819C
S1134B7026952695822B909308028093070281E064
S1134B80809332140895643051F080E090E490935F
S1134B9008028093070290930A0280930902089501
S1134BA00F931F9303EA15E220E034E244EF50E050
S1134BB060E087E20E948E32909334148093331421
S1134BC021E0892B09F020E0822F1F910F91089595
S1134BD08091331490913414009759F040E060E0D0
S1134BE070E00E94DF32843031F41092321480E09D
S1134BF0089582E0089583E008958091331490919C
S1134C003414009739F064E00E942B33853021F08E
S1134C1083E0089582E0089580E008956091090298
S1134C2070910A0280E090E0EFDC20E030E048EC94
S1134C3052E4A0DD20E038EF4FE756E44CCC089571
S1134C40609107027091080280E090E0DDDC20E0D2
S1134C5030E045E253E48EDD20E038EF4FE756E4E0
S1134C603ADC20E030E040E252E4CCCB08950F93EC
S1134C701F93CF93DF931F921F92CDB7DEB78C01A2
S1134C8019822DC0E0919914EC3250F481E08E0F1A
S1134C9080939914F0E0E553FB4E8A81808302C02F
S1134CA0109299148A818A30D1F44091991450E079
S1134CB0FA01E753FB4E1082415051099E012F5FC8
S1134CC03F4F6BEC74E180919C1490919D140E9471
S1134CD01D12898181110E94960B10929914BE01B4
S1134CE06E5F7F4FC8010FD6882361F20F900F903B
S1134CF0DF91CF911F910F9108950F931F93CF933D
S1134D00DF938C01EB0180919C1490919D140E947F
S1134D101311B80185E394E10E94E337209779F0F9
S1134D20E5E3F4E101900020E9F7319780E290E0B7
S1134D3091838083BE0185E394E10E94D837E5E343
S1134D40F4E1DF010D900020E9F711978DE09AE07E
S1134D5011969C938E9312961C9201900020E9F771
S1134D603197E553F441AE2F85E394E1AC016A2F0A
S1134D7080919E1490919F1471D5811111C008E205
S1134D8015E020E030E04DE250E065E275E180910D
S1134D909C1490919D140E94611285E295E102C0D9
S1134DA080E090E0DF91CF911F910F9108952F92B1
S1134DB03F924F925F926F927F928F929F92AF92A7
S1134DC0BF92CF92DF92EF92FF920F931F93CF93F4
S1134DD0DF935C01FC0101900020E9F731976F013A
S1134DE0C81AD90A5C2C0F2EFEE68F2EF8E09F2EEF
S1134DF0F02DE12CF12C4C2C3701F40101811281AE
S1134E00E80109900020E9F72197C01BD10B3C2E43
S1134E10F9E0CF16D10458F0F4012080FEE02F12FF
S1134E2006C0B801C5010E94B337892B09F5442D8A
S1134E30351408F44C2F50E0B801C5010E94EA373C
S1134E40892B49F4F301EE0FFF1FE60DF71DE2591C
S1134E50F74F20800DC08FEFE81AF80AE3E08E0EBA
S1134E60911CF1E1EF16F10439F66894222424F838
S1134E70822DDF91CF911F910F91FF90EF90DF90E2
S1134E80CF90BF90AF909F908F907F906F905F90E6
S1134E904F903F902F90089530DF89CF08958F92DF
S1134EA09F92AF92CF92EF920F931F93CF93C82FFD
S1134EB08B0141E060E070E088EC90E00E94DE103D
S1134EC090939D1480939C1410939B1400939A14B4
S1134ED00F2EF7E38F2EF6E29F2EF02D6894AA246E
S1134EE0A6F86894CC24C6F8E12C00E023E040E066
S1134EF051EE60E070E08C2FDED390939F1480938A
S1134F009E14E7E0F1E0808180618083CF911F915E
S1134F100F91EF90CF90AF909F908F90089588233A
S1134F2031F0E8E0F1E080818F7E80830895E8E04D
S1134F30F1E0808180618083089560E070E089E021
S1134F4096E0DBDEE5E2F5E101900020E9F7319738
S1134F50E552F54181E0759708F080E00895CF931C
S1134F60DF93EC0160E070E08AE196E0C6DEE5E202
S1134F70F5E101900020E9F7E653F54139F465E2E3
S1134F8075E1CE010E94E33780E002C0188281E01F
S1134F90DF91CF910895FC0101900020E9F79F0172
S1134FA0215131092817390729F4BC0188E496E016
S1134FB073CF089589E00895FC0101900020E9F77A
S1134FC09F01215131092817390729F4BC0187E5CC
S1134FD096E062CF089589E00895FC0101900020D5
S1134FE0E9F79F01215231092817390729F4BC0137
S1134FF086E696E051CF089589E0089560E070E078
S113500085EA96E049CF08950F931F93E82FF0E0C7
S1135010EE0FFF1FE659F74F608171818EEA96E02B
S11350203BDF811114C008E215E020E030E04DE2DE
S113503050E065E275E180919C1490919D140E946A
S11350406112882321F085E295E1B1DE03C085E297
S113505095E1ADDE1F910F9108950F931F93CF93A8
S1135060DF931F92CDB7DEB7DB0111969C911197A8
S1135070953108F0B4C0992381F160E070E0272FE6
S113508030E0462F50E0FD01E40FF51F9281929528
S11350909F709A3010F0995C01C0905DF901EA5458
S11350A0FB4E90832F5F3F4FFD01E40FF51F92816C
S11350B09F70492F50E04A30510514F0995C01C0AB
S11350C0905DF901EA54FB4E90837E5F6F5F119609
S11350D09C911197691798F201C070E0E72FF0E0F6
S11350E0EA54FB4E10824C91811103C087EB96E089
S11350F002C089EB96E026EB34E13F932F931F9295
S11351004F939F938F938DEB96E09F938F9388EFAC
S113511094E19F938F930E94453860E070E088EF9C
S113512094E1BADE0FB6F894DEBF0FBECDBF811195
S113513059C008E215E020E030E04DE250E065E2BD
S113514075E180919C1490919D140E9461128823B2
S113515009F447C085E295E12ADE8E3009F042C0A9
S113516087E0898380919A1490919B14892BA9F1EB
S1135170BE016F5F7F4F85E295E168D18093A014F3
S1135180E981F0E0EB5DFA4EDF010D900020E9F7D4
S11351901197AE1BBF0BAA2391F0BB27CD0101973A
S11351A09C0112F42F5F3F4F359527952093A1144E
S11351B0AF014F5F5F4F64E182EA94E173D101E094
S11351C010E020E030E046E150E060EA74E18091D4
S11351D09A1490919B140E945F118EE003C084E1A5
S11351E001C080E00F90DF91CF911F910F9108953E
S11351F0813019F068E873E002C062EA77E08DEC70
S113520096E04ACE08959F938F938EEF96E09F93F6
S11352108F9388EF94E19F938F930E94453860E0C9
S113522070E088EF94E138DE0F900F900F900F90AC
S11352300F900F9008952F923F924F925F926F922A
S11352407F928F929F92AF92BF92CF92DF92EF9212
S1135250FF920F931F93CF93DF93CDB7DEB7A09741
S11352600FB6F894DEBF0FBECDBF6BE277E087E3E5
S113527097E043DD9CDD8111A3C080E2E2E2F2E02D
S1135280DE01119601900D928A95E1F79E012F5F40
S11352903F4F6901E12CF12C0F2EF3E4AF2EF7E020
S11352A0BF2EF02D08EF14E10F2EFCE54F2EF7E092
S11352B05F2EF02D0F2EF3E78F2EF7E09F2EF02DAB
S11352C00F2EFDE86F2EF7E07F2EF02D3E2C2F2CB5
S11352D0FF92EF92BF92AF921F930F930E944538B3
S11352E060E070E0C80109DD62DD0F900F900F905F
S11352F00F900F900F90811163C032E03E15E8F4D7
S1135300F60183818F9382818F9381818F93808132
S11353108F93FF92EF925F924F921F930F930E948D
S1135320453860E070E0C801E8DC41DD0FB6F89470
S1135330DEBF0FBECDBF811143C02F923F929F921B
S11353408F921F930F930E94453860E070E0C8016C
S1135350D4DC2DDD0F900F900F900F900F900F90D5
S113536081112EC02F923F927F926F921F930F93C1
S11353700E94453860E070E0C801BFDC18DD0F9082
S11353800F900F900F900F900F90811119C03FEF65
S1135390E31AF30A84E0C80ED11C98E0E916F1047C
S11353A009F094CF60E070E085EA97E0A6DCFFDCCA
S11353B0811106C060E070E086EB97E09EDCF7DCCC
S11353C0A0960FB6F894DEBF0FBECDBFDF91CF918C
S11353D01F910F91FF90EF90DF90CF90BF90AF900F
S11353E09F908F907F906F905F904F903F902F9001
S11353F00895EF92FF920F931F93CF93DF93EC01E5
S11354008B017A0181E0F4DE81110DC0CE01D4DD7F
S1135410811109C0C801E1DD811105C0C701BBDDEF
S1135420811101C0EBDDDF91CF911F910F91FF90AE
S1135430EF90089590E0FC01EE0FFF1F8E0F9F1F69
S1135440FC01E259F74F818192810895DC010097B4
S113545029F1FB012081FC0101900020E9F731973B
S1135460E81BF90B822F90E0E817F907C8F080E0F9
S113547008C0880F382F330F330F830F8053890FE1
S11354802F5FFD01E20FF11D908130ED390F3A30AD
S113549010F49111EECFFB012083089580E008956C
S11354A080E008950F931F93CF93DF93DC01EA010B
S11354B02097E1F1FA0101900020E9F73197E41B0C
S11354C0F50B329710F532C08D01040F151F30E033
S11354D0AE01420F531FFA019081913428F0975383
S11354E0592F5295507F03C0592F5295507F2C0F3E
S11354F03D1FF9019181913410F0975301C09053ED
S1135500950FF80190838F5F01C080E0282F220F50
S1135510482F50E0FE0101900020E9F73197EC1B81
S1135520FD0B4E175F0710F48613CECFDF91CF919A
S11355301F910F91089580915515860F80935515ED
S113554090915815913079F028F09230A9F0933069
S113555019F108956F3F09F048C01092551581E084
S1135560809358150895663809F03FC01092541579
S113557082E0809358150895E091541581E08E0FD0
S113558080935415F0E0EE5AFA4E6083823069F548
S113559083E08093581508959091541521E0290FC4
S11355A020935415963009F581110EC0E2E5F5E11A
S11355B0808190E0982F88272181820F911D9093FC
S11355C05A158093591504C010925A151092591502
S11355D010925815E0915615F0915715309729F00F
S11355E08091591590915A15199508958F929F920B
S11355F0AF92CF92EF920F930F2EFBE98F2EFAE228
S11356009F2EF02D6894AA24A4F86894CC24C4F89E
S1135610E12C00E023E040E855E260E070E04BD08C
S113562090935C1580935B150F91EF90CF90AF90A2
S11356309F908F900895CF93DF93CDB7DEB72997CE
S11356400FB6F894DEBF0FBECDBF89E0E2E4F2E00E
S11356509E012F5F3F4FD90101900D928A95E1F78A
S113566010925A151092591580915B1590915C1502
S1135670009731F0422F532F69E0F0D080E001C051
S113568082E029960FB6F894DEBF0FBECDBFDF913E
S1135690CF9108952091591530915A15211531054E
S11356A029F4FC011182108281E00895FC01318308
S11356B0208380E008952F923F924F925F926F92E1
S11356C07F928F929F92AF92CF92EF92FF920F931D
S11356D01F93CF93DF93CDB7DEB7F82E2A013B019A
S11356E088E090E00E947E368C018F2D90E0FC01D2
S11356F0EE0FFF1FE35AFA4E1183008301151105C3
S113570009F46FC0880F991FFC01E55FFD4F80818C
S11357109181D8018D939C936C2D70E084E090E08E
S11357200E9464361C0161E070E086E090E00E9413
S113573064367C014C2DB1010E941B34F801F582C2
S1135740E4826A2D70E084E090E00E9464361C01DB
S113575061E070E086E090E00E9464367C014A2DAE
S1135760B1010E941B34D8011396FC92EE92129759
S113577017969C928E921697FFB6F894ED91FC9131
S1135780119736978081826080838D909C90C301AD
S1135790B2010E94042320E030E040E051E40E9482
S11357A0BA239B01AC0160E074E284E79BE40E94AD
S11357B06B2220E030E040E85FE30E9402220E9476
S11357C0D822F40132976083D801ED91FC911197AE
S11357D0359788E98083ED91FC91349786E0808346
S11357E0FFBEC801DF91CF911F910F91FF90EF9001
S11357F0CF90AF909F908F907F906F905F904F90DD
S11358003F902F900895CF93DF93DC01892B01F112
S11358101296ED91FC911397938182812581981BB7
S1135820922384819817B1F0838126952823C0811F
S1135830D181C20FD11D68838F5F958189238383B2
S1135840ED91FC91359780818062808380E003C074
S113585081E001C082E0DF91CF910895EF92FF9241
S11358600F931F93CF93DF937C01009709F441C0FA
S1135870DC011296ED91FC91139793818281981B20
S1135880858198238481891B8617A8F1662341F1B9
S1135890842F952FDC016150462F50E04F5F5F4FFE
S11358A0480F591FE701EA81FB8193818281258199
S11358B0981B92238481981779F08C919381269573
S11358C02923608171818B01020F111DE8018883F6
S11358D09F5F8581982393831196A417B50711F7C9
S11358E0D701ED91FC91359780818062808380E0BF
S11358F003C081E001C082E0DF91CF911F910F913D
S1135900FF90EF9008950097D1F0DC011496ED918B
S1135910FC91159793818281981799F092818581E2
S113592086958923A081B181A80FB11D8C91DB01DB
S11359308C939F5F85819823928380E0089581E012
S1135940089583E008951F920F920FB60F921124C9
S11359500BB60F922F933F934F935F936F937F9365
S11359608F939F93AF93BF93CF93DF93EF93FF9363
S1135970A0915D15B0915E15109711F16091C6006C
S11359801496ED91FC911597938182812581981B42
S113599092238481981761F0838126952823C081FE
S11359A0D181C20FD11D68838F5F95818923838341
S11359B01696ED91FC911797309711F0CD0119953A
S11359C0FF91EF91DF91CF91BF91AF919F918F9113
S11359D07F916F915F914F913F912F910F900BBEEB
S11359E00F900FBE0F901F9018951F920F920FB635
S11359F00F9211240BB60F922F938F939F93AF9313
S1135A00BF93EF93FF93E0915D15F0915E1530978E
S1135A10B9F00280F381E02D938182819817B1F06F
S1135A2092818581282F26952923A081B181A20FF7
S1135A30B11D2C919F5F892382832093C6000BC0E4
S1135A40E1ECF0E080818F7D808305C0E1ECF0E043
S1135A5080818F7D8083FF91EF91BF91AF919F9162
S1135A608F912F910F900BBE0F900FBE0F901F9030
S1135A7018951F920F920FB60F9211240BB60F9226
S1135A802F933F934F935F936F937F938F939F9342
S1135A90AF93BF93CF93DF93EF93FF93A0915F15E1
S1135AA0B0916015109711F16091CE001496ED91AC
S1135AB0FC911597938182812581981B922384817F
S1135AC0981761F0838126952823C081D181C20F64
S1135AD0D11D68838F5F9581892383831696ED9109
S1135AE0FC911797309711F0CD011995FF91EF9123
S1135AF0DF91CF91BF91AF919F918F917F916F91E2
S1135B005F914F913F912F910F900BBE0F900FBE5D
S1135B100F901F9018951F920F920FB60F92112499
S1135B200BB60F922F938F939F93AF93BF93EF93E3
S1135B30FF93E0915F15F09160153097B9F0028002
S1135B40F381E02D938182819817B1F09281858150
S1135B50282F26952923A081B181A20FB11D2C9154
S1135B609F5F892382832093CE000BC0E9ECF0E091
S1135B7080818F7D808305C0E9ECF0E080818F7D9A
S1135B808083FF91EF91BF91AF919F918F912F915E
S1135B900F900BBE0F900FBE0F901F9018951F9281
S1135BA00F920FB60F9211240BB60F922F933F93BF
S1135BB04F935F936F937F938F939F93AF93BF9311
S1135BC0CF93DF93EF93FF93A0916115B09162158A
S1135BD0109711F16091D6001496ED91FC911597F0
S1135BE0938182812581981B92238481981761F087
S1135BF0838126952823C081D181C20FD11D68835A
S1135C008F5F9581892383831696ED91FC91179775
S1135C10309711F0CD011995FF91EF91DF91CF915C
S1135C20BF91AF919F918F917F916F915F914F91B0
S1135C303F912F910F900BBE0F900FBE0F901F90AE
S1135C4018951F920F920FB60F9211240BB60F9254
S1135C502F938F939F93AF93BF93EF93FF93E09111
S1135C606115F09162153097B9F00280F381E02D4F
S1135C70938182819817B1F092818581282F26958E
S1135C802923A081B181A20FB11D2C919F5F89238B
S1135C9082832093D6000BC0E1EDF0E080818F7DFC
S1135CA0808305C0E1EDF0E080818F7D8083FF91EA
S1135CB0EF91BF91AF919F918F912F910F900BBE58
S1135CC00F900FBE0F901F9018951F920F920FB652
S1135CD00F9211240BB60F922F933F934F935F9320
S1135CE06F937F938F939F93AF93BF93CF93DF93E0
