:1000000090C20000AFC20000ADC20000ABC2000051
:10001000A9C20000A7C20000A5C20000A3C2000040
:10002000A1C200009FC200009DC200009BC2000050
:100030000C94960B97C2000095C2000093C200007A
:1000400091C200008FC200008DC200008BC2000070
:1000500089C200000C94A72485C2000083C200005E
:100060000C9437300C94182C0C946A2C7BC2000032
:1000700079C2000077C2000075C2000073C20000A0
:1000800071C200006FC200006DC200006BC20000B0
:100090000C94AE2C0C94002D65C200000C94D3324D
:1000A00061C200005FC200005DC200005BC20000D0
:1000B00059C2000057C2000055C2000053C20000E0
:1000C00051C200004FC200004DC200000C94442DEC
:1000D0000C94962D47C200000C94DA2D0C942C2E13
:1000E00041C20000070207020702410249025F0203
:1000F0000702070241024902F53265336533653371
:100100006533653365336533F532653365336533A0
:100110006533653365336533F7326533653365338E
:10012000653365336533653365336533653365330F
:100130006533653365336533F7326533653365336E
:1001400065336533653365336533653365336533EF
:1001500065336533653365336133653365336533E3
:1001600065336533653365332C3365336533653308
:1001700065336533653365336533653365336533BF
:1001800065336533653365332033653365336533F4
:100190006533653365336533443307634236B79B54
:1001A000D8A71A39685618AEBAAB558C1D3CB7CCD7
:1001B0005763BD6DEDFD753EF6177231BF0000004F
:1001C000803F08000000BE922449123EABAAAA2A32
:1001D000BECDCCCC4C3E00000080BEABAAAAAA3E4D
:1001E00000000000BF000000803F00000000000889
:1001F0004178D3BB4387D1133D190E3CC3BD428226
:10020000AD2B3E68EC8276BED98FE1A93E4C80EFE3
:10021000FFBE01C4FF7F3F00000000000BE512E1BC
:100220000F2EFBE8EF2EF2E1FF2EF02D80915A12F7
:10023000882329F10FB6F8940F92D8011796ED9103
:10024000FC911897C085D185CE0102960E94560A6E
:1002500080914E12815080934E1280915A1281509B
:1002600080935A120F900FBE8B8D9C8D0E94CA09ED
:10027000CE010E94CA0980915A128111DBCFF70189
:100280008081823010F00E94D00A0E948C1ECECF56
:10029000CF93DF93CDB7DEB760970FB6F894DEBF8C
:1002A0000FBECDBFCE0101969A878987812C912CF4
:1002B000A12CB12C69847A84E0910513F091061386
:1002C0008081882309F413C10780F085E02D208008
:1002D0003180428053800E948114CE0101960E9499
:1002E000F51D6B877C878D879E878981811167C00B
:1002F0008B859C85AD85BE8582159305A405B505C6
:1003000008F445C00E94C515E0910513F09106134D
:100310000780F085E02DA085B185B88BAF87CD0132
:1003200002960E94560AEF85F889868982FF21C0CD
:100330004685578560897189420D531D641D751D61
:10034000720161010B851C852D853E85CF010E94C0
:10035000041D882399F0C82CD92CEA2CFB2C00E032
:1003600010E0A201910160E08F8598890E94971D9D
:1003700005C08E7FAF85B88956968C93AF85B889B6
:100380005496ED91FC915597CD011995A1C020E0AF
:10039000B201A1018B859C85AD85BE85481B590B9B
:1003A0006A0B7B0B80910113909102130E94120F34
:1003B0000E94C51581118CC00E94D00A89C00E947C
:1003C000C51586C0898188230CF482C04E805F8069
:1003D000D2011C968D919C911D97892B21F0C20111
:1003E00002960E94560ACE0108960E94F51D8B01C6
:1003F0009C01E9810E2E000CFF0BEA30F10508F09C
:1004000067C08827EE58FF4F8F4F0C94A435F20138
:1004100086898160868BCA80DB80EC80FD80468582
:100420005785608971894C0D5D1D6E1D7F1DC20150
:100430000E94041D882309F44BC0D2015496ED910B
:10044000FC915597C2011995F201868982FF40C03F
:100450004A815B816C817D8186859785A089B18980
:100460009A01AB01280F391F4A1F5B1FC82CD92CDA
:10047000EA2CFB2C00E010E060E0C2010E94971D16
:1004800027C0D20156968C9156978E7F56968C93A4
:100490001FC0F20186898160868B4A815B816C81F5
:1004A0007D8146875787608B718B400F511F621F7C
:1004B000731F68017901C2010E94041D09C0F20185
:1004C000868981FD03C0C20165D702C08E7F868BFD
:1004D000282D392D4A2D5B2D662D772D8091011306
:1004E000909102130E94AB0D81116CCFE5CE0E945A
:1004F0008114CE0101960E94F51D6B877C878D8744
:100500009E87898181115BCFE0910313F0910413E1
:10051000808121E0811120E0282C392C4A2C5B2C91
:1005200037CF11241FBECFEFD1E2DEBFCDBF00E039
:100530000CBF18E0A0E0B2E0EEE2F5E700E00BBF90
:1005400002C007900D92AE35B107D9F725E1AEE5AF
:10055000B8E001C01D92A336B207E1F70E949421D2
:100560000C94953A4DCD0F2EF8EECF2EF3E0DF2E02
:10057000E12CF12CF02DC2E080914415882321F06C
:100580008FE692E00E948A370E94902A8093441559
:100590008091491590914A155CD220E030E04AEFF5
:1005A00053E40E942F230E9475229B01AC01AEE30D
:1005B000B0E00E94AC35A70196010E948235CA01C5
:1005C000B9010E94AB1682B18C2782B9809149157E
:1005D00090914A153ED220E030E04AEF53E40E9469
:1005E0002F230E9475229B01AC01AEE3B0E00E9474
:1005F000AC35A70196010E948235CA01B9010E945B
:10060000AB1682B18C2782B987E495E10E94BF2A9C
:1006100060914715709148158091491590914A1540
:10062000F8D18091491590914A1558D2A5CFEF92F3
:10063000FF920F9390934A158093491586E892E0B4
:100640000E948A37E12CF12C01E021E030E040ECFF
:1006500050E06AE972E083EB92E00E940F130F9181
:10066000FF90EF9008950F2EF4E68F2EF02D0F2EB1
:10067000F8EECF2EF3E0DF2EE12CF12CF02D689474
:10068000992496F86894AA24A5F86894BB24B4F831
:1006900082B1805882B95BD5EC015FD58C01CE0167
:1006A00060D5809EB001819E700D1124860F971F2A
:1006B000BC01990F880B990B0E94A32220E030E027
:1006C00048EC52E40E94082242E00E94B82320E055
:1006D00030E04AE754E460914D1570914E158091D9
:1006E0004F15909150150E942F230E9475229B0157
:1006F000AC01AEE3B0E00E94AC35A70196010E94C8
:100700008235CA01B9010E94AB1682B1805882B904
:1007100082B1892582B970D422D442E00E94B823E4
:1007200020E030E04AE754E460914D1570914E1599
:1007300080914F15909150150E942F230E94752291
:100740009B01AC01AEE3B0E00E94AC35A70196017D
:100750000E948235CA01B9010E94AB1682B1892577
:1007600082B982B18A2582B94CD4FAD242E00E9481
:10077000B82320E030E04AE754E460914D157091D1
:100780004E1580914F15909150150E942F230E9475
:1007900075229B01AC01AEE3B0E00E94AC35A7012D
:1007A00096010E948235CA01B9010E94AB1682B13E
:1007B0008A2582B982B18B2582B928D470D1BC0137
:1007C000990F880B990B0E94A32240E00E94B82346
:1007D00020E030E04AE754E460914D1570914E15E9
:1007E00080914F15909150150E942F230E947522E1
:1007F0009B01AC01AEE3B0E00E94AC35A7019601CD
:100800000E948235CA01B9010E94AB1682B18B25C4
:1008100082B93ECFEF92FF920F9360934D15709384
:100820004E1580934F159093501580E090E00E94F4
:1008300069240E945E2482EA92E00E948A37E12CB9
:10084000F12C01E021E030E040EC50E06DEB72E093
:1008500083E393E00E940F130F91FF90EF900895B0
:1008600004ED12E00F2EF8EE8F2EF3E09F2EA12C58
:10087000B12CF02D77247394C8EFD2E080915115FC
:100880009091521547D36B017C0180915315909143
:10089000541541D29B01AC01C701B6010E94A421AD
:1008A00020E030E04AEF53E40E942F230E947022A0
:1008B0006B017C010E945D25882331F01F930F930B
:1008C0000E9477370F900F90D701C601FF201CF4CC
:1008D0000196A11DB11D9C01AD0155954795379518
:1008E0002795AEE3B0E00E94AC35A50194010E94CB
:1008F000823569017A01CA01B9010E94AB1682B141
:10090000872582B90E947225882331F0DF93CF9327
:100910000E9477370F900F90C701B6010E94AB1667
:1009200082B1872582B90E949525AB01BC01409315
:10093000620850936308609364087093650880911F
:1009400051159091521566D20E948325AB01BC01CE
:1009500040935E0850935F0860936008709361084D
:100960008091531590915415AED188CFEF92FF929C
:100970000F93909352158093511570935415609373
:1009800053158DE193E00E948A37E12CF12C01E0B0
:1009900021E030E040EC50E062E473E080E394E07A
:1009A0000E940F130F91FF90EF900895CF92DF9266
:1009B000EF92FF920F93CF93DF936B017C0161E085
:1009C00070E080E190E00E94D935EC01892BC1F004
:1009D000C882D982EA82FB821D821C821F861E8603
:1009E00077D39987888743E060E081E0B5D79F831C
:1009F0008E8300E020E030E0A90160E070E0CDD718
:100A0000CE01DF91CF910F91FF90EF90DF90CF90CB
:100A100008950F931F93CF93DF93EC018B014FEF5A
:100A20005FEFBA018E819F810E94440E1D830C836B
:100A30008885998565D300E020E030E0A90160E079
:100A400070E08E819F81A9D7DF91CF911F910F9187
:100A50000895CF92DF92EF92FF920F93CF93DF939F
:100A6000EC014FEF5FEFBA018E819F810E94440E2F
:100A7000C880D980EA80FB8000E020E030E0A90156
:100A800060E070E08E819F8188D7C701B601DF9159
:100A9000CF910F91FF90EF90DF90CF900895EF925C
:100AA000FF920F93CF93DF93EC014FEF5FEFBA010B
:100AB0008E819F810E94440EEC80FD8000E020E04A
:100AC00030E0A90160E070E08E819F8166D7C701A8
:100AD000DF91CF910F91FF90EF900895EF92FF92E9
:100AE0000F93CF93DF93EC014FEF5FEFBA018E814D
:100AF0009F810E94440EE884F98400E020E030E009
:100B0000A90160E070E08E819F8147D7C701DF9126
:100B1000CF910F91FF90EF9008950F931F93CF9374
:100B2000DF93EC018B014FEF5FEFBA018E819F8164
:100B30000E94440E1B870A8781E090E09F878E8782
:100B400088859985DDD200E020E030E0A90160E0F1
:100B500070E08E819F8121D7DF91CF911F910F91FE
:100B600008950F931F93CF93DF93EC018B014FEF09
:100B70005FEFBA018E819F810E94440E1D870C8712
:100B800081E090E09F878E8788859985B9D200E0C3
:100B900020E030E0A90160E070E08E819F81FDD609
:100BA000DF91CF911F910F910895CF92DF92EF9235
:100BB000FF920F93CF93DF936B017C0161E070E0B4
:100BC00086E190E00E94D935EC01892BD1F0C882F2
:100BD000D982EA82FB821C821D821E821F821D8AAC
:100BE0001C8A76D29B878A8743E060E081E0B4D696
:100BF0009987888700E020E030E0A90160E070E09C
:100C0000CCD6CE01DF91CF910F91FF90EF90DF9086
:100C1000CF900895CF92DF92EF92FF920F93CF93F0
:100C2000DF93EC016A017B014FEF5FEFBA0188852A
:100C300099850E94440ECC86DD86EE86FF8681E093
:100C400090E09D8B8C8B8A859B855AD200E020E0BA
:100C500030E0A90160E070E0888599859ED6DF913B
:100C6000CF910F91FF90EF90DF90CF900895CF92AA
:100C7000DF92EF92FF920F93CF93DF93EC016A0123
:100C80007B014FEF5FEFBA0188859985FDD7C88A50
:100C9000D98AEA8AFB8A81E090E09D8B8C8B8A85D9
:100CA0009B852ED200E020E030E0A90160E070E0FA
:100CB0008885998572D6DF91CF910F91FF90EF9043
:100CC000DF90CF900895CF92DF92EF92FF920F9333
:100CD000CF93DF93EC016A017B014FEF5FEFBA0125
:100CE00088859985D1D7CC82DD82EE82FF828A8584
:100CF0009B8506D200E020E030E0A90160E070E0D2
:100D0000888599854AD6DF91CF910F91FF90EF901A
:100D1000DF90CF900895CF92DF92EF92FF920F93E2
:100D2000CF93DF93EC014FEF5FEFBA018885998590
:100D3000ABD7C880D980EA80FB8000E020E030E0BB
:100D4000A90160E070E08885998527D6C701B601C2
:100D5000DF91CF910F91FF90EF90DF90CF900895AA
:100D6000CF92DF92EF92FF920F93CF93DF93EC013C
:100D70004FEF5FEFBA018885998586D7CC80DD80FB
:100D8000EE80FF8000E020E030E0A90160E070E04C
:100D90008885998502D6C701B601DF91CF910F9161
:100DA000FF90EF90DF90CF900895CF92DF92EF9277
:100DB000FF920F93CF93DF936B017C0161E070E0B2
:100DC00086E190E00E94D935EC01892BD1F0C882F0
:100DD000D982EA82FB821C821D821E821F821D8AAA
:100DE0001C8A76D19B878A8743E060E081E0B4D596
:100DF0009987888700E020E030E0A90160E070E09A
:100E0000CCD5CE01DF91CF910F91FF90EF90DF9085
:100E1000CF900895CF92DF92EF92FF920F93CF93EE
:100E2000DF93EC016A017B014FEF5FEFBA01888528
:100E300099852AD7CC82DD82EE82FF828A859B85C6
:100E40005FD100E020E030E0A90160E070E088853B
:100E50009985A3D5DF91CF910F91FF90EF90DF900F
:100E6000CF900895CF92DF92EF92FF920F93CF939E
:100E7000DF93EC016A017B014FEF5FEFBA018885D8
:100E8000998502D7CC86DD86EE86FF8681E090E0EC
:100E90009D8B8C8B8A859B8533D100E020E030E0F0
:100EA000A90160E070E08885998577D5DF91CF91C1
:100EB0000F91FF90EF90DF90CF900895CF92DF9247
:100EC000EF92FF920F93CF93DF93EC016A017B01C6
:100ED0004FEF5FEFBA0188859985D6D6C88AD98A3F
:100EE000EA8AFB8A81E090E09D8B8C8B8A859B85CA
:100EF00007D100E020E030E0A90160E070E08885E3
:100F000099854BD5DF91CF910F91FF90EF90DF90B6
:100F1000CF900895CF92DF92EF92FF920F93CF93ED
:100F2000DF93EC014FEF5FEFBA0188859985ACD66E
:100F3000C880D980EA80FB8000E020E030E0A90191
:100F400060E070E08885998528D5C701B601DF91FA
:100F5000CF910F91FF90EF90DF90CF900895CF92B7
:100F6000DF92EF92FF920F93CF93DF93EC014FEF5D
:100F70005FEFBA018885998587D6CC80DD80EE80C9
:100F8000FF8000E020E030E0A90160E070E08885AB
:100F9000998503D5C701B601DF91CF910F91FF90DD
:100FA000EF90DF90CF90089560E070E080E09FE3E5
:100FB00031DC60E070E080E89FE3F7DE909352154B
:100FC0008093511560E070E080E89FE3EEDD909340
:100FD000541580935315BC01809151159091521571
:100FE000C5DC60E070E080E89FE3E0DC909356159C
:100FF000809355151CCB08958091511590915215F1
:101000000895809153159091541508958091551528
:101010009091561508956EE370E080E090E00E9494
:10102000AB16E0915715F09158158285938501967E
:1010300093878287CC977CF38085918501969187F1
:10104000808713861286CC9734F386819781019628
:1010500097838683118610864897ECF21782168252
:10106000DACFEF92FF920F93809157159091581518
:10107000892B51F561E070E08CE090E00E94D93559
:10108000FC019093581580935715892BE9F0118234
:1010900010821382128215821482178216821186A0
:1010A00010861386128684E593E00E948A37E12C2D
:1010B000F12C01E021E030E040EC50E06EE673E01E
:1010C0008BE098E00E940F130F91FF90EF9008952E
:1010D000C8DF61E070E08CE090E00E94D935FC014F
:1010E000892B61F011821082138212821582148280
:1010F000178216821186108613861286CF010895F4
:10110000CF93DF93EC01ADDFE0915715F0915815C7
:101110008081918199838883E0915715F0915815CA
:10112000828193819B838A83848195819D838C8333
:10113000868197819F838E83808591859987888713
:10114000828593859B878A87DF91CF91089589DF78
:1011500080915715909158150895FC0186819781CB
:101160000895FC01808591850895CF93DF93DC017C
:10117000E2E7F8E001C0F901208131812A173B073D
:10118000D0F382819381AF01480F591FA417B5078F
:1011900049F412964D915C911397840F951F938398
:1011A0008283DF0112968D919C911397ED01C80FF8
:1011B000D91F2C173D07D9F4209170083091710880
:1011C000C217D30781F02A813B81820F931F1396A8
:1011D0009C938E931297C081D181888199811196B9
:1011E0009C938E9307C01196DC93CE9303C0119607
:1011F0003C932E93AE17BF0711F0B183A083DF910C
:10120000CF910895CF92DF92EF92FF920F931F93A9
:10121000CF93DF93EC010E9481148091700890912C
:101220007108892B41F5E2E7F8E0A6E7B8E0B18361
:10123000A08313821282E6E3F2E1F0937108E09357
:101240007008138212821182108280EC99E013964A
:101250009C938E931297ED93FC9390936D088093DB
:101260006C0890936F0880936E0880E090E89093EC
:10127000670880936608E0906608F0906708C701E9
:101280008C239D23892B09F075C0209709F475C024
:101290009E012C5F3F4FC217D30708F06EC0211587
:1012A000310509F467C000916E0810916F080217AC
:1012B000130708F45FC0C0917208D0917308E2E789
:1012C000F8E002C0FE01EC018A819B81821793073E
:1012D00020F4888199810097A9F7809170089091F6
:1012E0007108C817D90709F445C0C080D18084E0CF
:1012F000C80ED11C88819981918380834A815B814A
:10130000421B530B4930510548F0CE01820F931F09
:10131000FC01538342833B832A8327DF8A819B819D
:10132000081B190B10936F0800936E0820916C082E
:1013300030916D080217130720F410936D08009385
:101340006C08E82AF92AFB82EA82198218828091C5
:101350006A0890916B08019690936B0880936A08D5
:101360000E94C515C114D10459F40E94921EC12CCB
:10137000D12C06C00E94C515F8CF0E94C515F5CF27
:10138000C601DF91CF911F910F91FF90EF90DF90F9
:10139000CF900895CF93DF93009799F1FC01349794
:1013A000228133814091660850916708B901642316
:1013B0007523672B31F160817181672B11F5EF0186
:1013C0004095509524233523338322830E94811432
:1013D00020916E0830916F088A819B81820F931F44
:1013E00090936F0880936E08CE01BFDE80916808ED
:1013F00090916908019690936908809368080E940B
:10140000C515DF91CF910895FC01039692838183E6
:101410004FEF5FEFBA0143835483658376839087F0
:1014200087839287818710820895FC011386128634
:1014300008950F931F93CF93DF93EB0108811981D8
:101440002A813B810F3F4FEF14072407340721F413
:10145000FC01A185B28511C0DC01139601C0DF013A
:101460001496ED91FC9115974081518162817381B1
:10147000041715072607370790F71496ED91FC918E
:101480001597FD83EC83D783C683BF83AE83159600
:10149000DC93CE9314979B878A87FC0120812F5F72
:1014A0002083DF91CF911F910F910895CF93DF9308
:1014B000FC01A285B385C481D581868197819F83F4
:1014C0008E83C681D781848195819D838C8311967B
:1014D0008D919C911297E817F90731F486819781D5
:1014E00012969C938E931197138612868C9181503D
:1014F0008C938C91DF91CF910895FC01608331979B
:1015000070833197108231971082319720E82083C1
:1015100031971082319710823197108277974083EC
:101520003197508386970895A89590EC88E10FB67F
:10153000F894A895809360000FBE90936000A091EE
:10154000F912B091FA12CD91CDBFDD91DEBFFF91BE
:10155000EF91DF91CF91BF91AF919F918F917F914B
:101560006F915F914F913F912F911F910F91FF903C
:10157000EF90DF90CF90BF90AF909F908F907F9033
:101580006F905F904F903F902F901F900F900CBEE8
:101590000F900BBE0F900FBE0F90089581E008953D
:1015A0000F920FB6F8940F920BB60F920CB60F92E3
:1015B0001F9211242F923F924F925F926F927F92CF
:1015C0008F929F92AF92BF92CF92DF92EF92FF9253
:1015D0000F931F932F933F934F935F936F937F933B
:1015E0008F939F93AF93BF93CF93DF93EF93FF932B
:1015F000A091F912B091FA120DB60D920EB60D929D
:101600000E94C416A091F912B091FA12CD91CDBFEB
:10161000DD91DEBFFF91EF91DF91CF91BF91AF914F
:101620009F918F917F916F915F914F913F912F91FA
:101630001F910F91FF90EF90DF90CF90BF90AF90F0
:101640009F908F907F906F905F904F903F902F90E2
:101650001F900F900CBE0F900BBE0F900FBE0F90FF
:1016600008950F920FB6F8940F920BB60F920CB626
:101670000F921F9211242F923F924F925F926F927E
:101680007F928F929F92AF92BF92CF92DF92EF9212
:10169000FF920F931F932F933F934F935F936F93FB
:1016A0007F938F939F93AF93BF93CF93DF93EF93EA
:1016B000FF93A091F912B091FA120DB60D920EB6E9
:1016C0000D9213BE0E94951481110E94C416A09120
:1016D000F912B091FA12CD91CDBFDD91DEBFFF912D
:1016E000EF91DF91CF91BF91AF919F918F917F91BA
:1016F0006F915F914F913F912F911F910F91FF90AB
:10170000EF90DF90CF90BF90AF909F908F907F90A1
:101710006F905F904F903F902F901F900F900CBE56
:101720000F900BBE0F900FBE0F9008959ADF189583
:101730000FB6F8940F92FC01968D0F900FBE81E0CA
:10174000911180E008950F931F93CF93DF93EC01E5
:10175000042F1E8D48A141110CC088819981892BCD
:1017600009F042C08C819D810E945C191D821C82FF
:1017700042C0011117C050E08A819B810E94183736
:1017800028A18A819B81820F911D9B838A832C8152
:101790003D818217930750F1888199819B838A83C9
:1017A00080E029C050E08E819F810E94183788A177
:1017B00090E09195819591092E813F81280F391FE5
:1017C0003F832E83488159812417350730F42C81BB
:1017D0003D81820F931F9F838E83023049F4112332
:1017E00049F0115080E007C080E005C080E003C0F0
:1017F00080E001C080E01F5F1E8FDF91CF911F91BD
:101800000F910895FC0140A14423A9F050E02681E6
:101810003781240F351F37832683848195812817CC
:10182000390720F08081918197838683CB0166817F
:1018300077810C9418370895EF92FF920F931F93BE
:10184000CF938C010FB6F8940F92FC01C2A11C1625
:10185000ACF48389811106C011C0F801838981111C
:1018600005C00CC07801F3E1EF0EF11CC7010E9426
:101870008E1781110E94BE18C15079F78FEFF801C1
:1018800082A30F900FBE0FB6F8940F92C1A11C1641
:10189000ACF48085811106C011C0F80180858111EA
:1018A00005C00CC07801F8E0EF0EF11CC7010E94E2
:1018B0008E1781110E94BE18C15079F78FEFF80181
:1018C00081A30F900FBECF911F910F91FF90EF90CA
:1018D0000895CF93DF93EC010FB6F8940F92E8814F
:1018E000F9818F8D28A190E030E0829FA001839F35
:1018F000500D929F500D11244E0F5F1F5D834C833E
:101900001E8EFB83EA830197829FA001839F500D67
:10191000929F500D1124CF01840F951F9F838E83BA
:101920008FEF89A38AA361110BC08885882371F08A
:10193000CE0108960E948E17882341F031DE06C042
:10194000CE01089661DDCE0143965EDD0F900FBE9D
:1019500081E0DF91CF9108950F931F93CF93DF9391
:10196000082F162F869FC001112483964BDCEC01B3
:10197000009769F0111103C09983888303C083968F
:10198000998388830F8F18A361E0CE01A2DFCE0177
:10199000DF91CF911F910F9108959F92AF92BF92C7
:1019A000CF92DF92EF92FF920F931F93CF93DF932B
:1019B000CDB7DEB729970FB6F894DEBF0FBECDBF07
:1019C0007C015B012E833F834887598710E099246F
:1019D00093946C0188E0C80ED11C0FB6F8940F9256
:1019E000F701968D878D981710F00230B1F4402FD3
:1019F000B501C701A8DEF7019389992341F0C7011A
:101A000043960E948E17882321F0CADD02C08111FF
:101A1000C7DD0F900FBE81E051C08E819F81A885E8
:101A2000B985892B8A2B8B2B21F40F900FBE80E078
:101A300045C0111105C0CE0101960E945418192D00
:101A40000F900FBE5ED70FB6F8940F92F70181A1E9
:101A50008F3F09F411A2F70182A18F3F09F412A26E
:101A60000F900FBEBE016A5F7F4FCE0101960E94AC
:101A7000651881111EC00FB6F8940F92F701968D6C
:101A8000878D0F900FBE98130FC04E815F816885C0
:101A90007985C6010E943517C701CEDE0E94C515A3
:101AA00081119BCF7DDD99CFC701C6DE0E94C51590
:101AB00094CFC701C1DE0E94C51580E029960FB6FC
:101AC000F894DEBF0FBECDBFDF91CF911F910F9174
:101AD000FF90EF90DF90CF90BF90AF909F900895D0
:101AE000EF92FF920F931F93CF93DF938A01FC0134
:101AF000568D378D531710F02230F9F4422F7801AC
:101B0000EC011AA18E8DCE011EDE1F3F81F48B8960
:101B10008823A9F0CE0143960E948E17882389F06E
:101B2000E114F10481F081E0F70180830DC0FF240E
:101B3000F394F10EFAA281E007C080E005C081E0D5
:101B400003C081E001C081E0DF91CF911F910F912F
:101B5000FF90EF9008959F92AF92BF92CF92DF9245
:101B6000EF92FF920F931F93CF93DF93CDB7DEB722
:101B700029970FB6F894DEBF0FBECDBF8C015B0175
:101B80002E833F8348875987E12C992493946C01D5
:101B900083E1C80ED11C0FB6F8940F92F801F68CB1
:101BA000FF2099F0B501C8012DDEFA94F801F68EF8
:101BB0008085882331F0C80108960E948E17811114
:101BC000EFDC0F900FBE81E04DC08E819F81A88514
:101BD000B985892B8A2B8B2B21F40F900FBE80E0C7
:101BE00041C0E11005C0CE0101960E945418E92CB5
:101BF0000F900FBE86D60FB6F8940F92F80181A110
:101C00008F3F09F411A2F80182A18F3F09F412A2BB
:101C10000F900FBEBE016A5F7F4FCE0101960E94FA
:101C20006518811116C0C80183DD882371F04E81CB
:101C30005F8168857985C6010E943517C801FCDD82
:101C4000A4D78111A8CFACDCA6CFC801F5DD9DD704
:101C5000A2CFC801F1DD99D7C8016ADD882309F454
:101C60009ACF80E029960FB6F894DEBF0FBECDBFA5
:101C7000DF91CF911F910F91FF90EF90DF90CF9068
:101C8000BF90AF909F900895BF92CF92DF92EF9256
:101C9000FF920F931F93CF93DF93CDB7DEB72997B2
:101CA0000FB6F894DEBF0FBECDBF8C014E835F83AD
:101CB00068877987B12CD12CCC24C3947C0183E133
:101CC000E80EF11C0FB6F8940F92D8015E968C9135
:101CD0005E978823E1F081505E968C935E978D919C
:101CE0009C91892B29F40E941E1AF8019583848304
:101CF000D80118968C91882331F0C80108960E946B
:101D00008E1781114DDC0F900FBE81E07BC08E815C
:101D10009F81A885B985892B8A2B8B2B21F40F9065
:101D20000FBE80E06FC0D11005C0CE0101960E94A9
:101D30005418DC2C0F900FBEE4D50FB6F8940F9218
:101D4000F80181A18F3F09F411A2D80192968C91DC
:101D500092978F3F11F492961C920F900FBEBE0186
:101D60006A5F7F4FCE0101960E946518811125C0E0
:101D7000C801DEDC8823E9F0F80180819181892B9C
:101D800051F40FB6F8940F92848195810E94D51872
:101D9000B82E0F900FBE4E815F8168857985C7018F
:101DA0000E943517C80148DDF0D681118BCFF8DBD2
:101DB00089CFC80141DDE9D685CFC8013DDDE5D633
:101DC000C801B6DC882309F47DCFBB20D1F00FB663
:101DD000F8940F92F8018389882339F0028CF38DEF
:101DE000E02D80816AE0681B01C060E0D801149694
:101DF0008D919C9115970E94B7190F900FBE80E0AE
:101E000001C080E029960FB6F894DEBF0FBECDBFAB
:101E1000DF91CF911F910F91FF90EF90DF90CF90C6
:101E2000BF900895CF93DF93EC010FB6F8940F9213
:101E300089A18F3F09F419A28AA18F3F09F41AA240
:101E40000F900FBE8E8D811104C0CE0143960E946B
:101E50004C17CE01F1DCDF91CF910895FC01448154
:101E6000558122813381240F351F80819181B901F1
:101E7000681B790BCB016417750710F0841B950B59
:101E80000895AF92BF92CF92DF92EF92FF920F939D
:101E90001F93CF93DF936C015B017A01FC01C28138
:101EA000D381048115810C1B1D0B4017510708F4C9
:101EB0008A01F60184859585A801B5018C0F9D1FC7
:101EC0000E9418370E151F0558F4A701401B510B2F
:101ED000B501600F711FF601848595850E94183742
:101EE000CE018E0D9F1DF601248135818217930747
:101EF00010F0821B930BF60193838283C701DF915D
:101F0000CF911F910F91FF90EF90DF90CF90BF90F6
:101F1000AF900895CF92DF92EF92FF920F931F93AD
:101F2000CF93DF931F921F92CDB7DEB75A834983B9
:101F300021153105C9F06B017C01FC01868580FD0E
:101F400008C0CA012417350708F4C9019A83898398
:101F500011C02017310758F042E050E0BE016F5F1A
:101F60007F4FC7018EDF06C080E090E008C080E0B0
:101F700090E005C049815A81B601C70182DF0F9008
:101F80000F90DF91CF911F910F91FF90EF90DF9015
:101F9000CF900895AF92BF92CF92DF92EF92FF92CF
:101FA0000F931F93CF93DF937C015B01E9014217ED
:101FB000530708F4EA01209779F1F70100811181B4
:101FC000C480D580C01AD10ACC15DD0508F46E0195
:101FD000F70164857585600F711FA601C5010E9418
:101FE0001837CC16DD0658F4AE014C195D09F7011F
:101FF00064857585C5018C0D9D1D0E9418370C0FD9
:102000001D1FF701848195810817190710F0081B1F
:10201000190BF70111830083CE01DF91CF911F913E
:102020000F91FF90EF90DF90CF90BF90AF90089509
:10203000FF920F931F93CF93DF938B01FF24F394B1
:10204000413009F0F12C0115110511F401E010E007
:102050009C01205F3F4F82179307B0F4EC0121965B
:10206000C901D0D8FC01892B89F08FE0DF011D92D6
:102070008A95E9F7CF010F9695878487D583C48326
:1020800017830683F68602C0E0E0F0E0CF01DF911F
:10209000CF911F910F91FF9008950FB6F8940F9272
:1020A000DC0118962D913C911997232B51F51A9626
:1020B0002D913C911B97232B31F51E962C911E9749
:1020C00016964D915C91179714966D917C9115978A
:1020D0001C96ED91FC911D973FE01D923A95E9F712
:1020E000DC011D96FC93EE931C9715967C936E93E2
:1020F000149717965C934E9316971E962C9381E037
:1021000003C080E001C080E00F900FBE0895FC0185
:10211000248135818081918142815381820F931F77
:102120000197841B950B8217930710F0821B930B6A
:1021300008952F923F924F925F926F927F928F926B
:102140009F92AF92BF92CF92DF92EF92FF920F9346
:102150001F93CF93DF93CDB7DEB72B970FB6F894CD
:10216000DEBF0FBECDBF4C017B876A871A010E838D
:102170001F8328873987FC018481958101972685F3
:1021800020FF0CC02A01F2E04F0E511C841595056A
:1021900050F41E821F821886198645C02A018417B2
:1021A000950708F42C018E819F81A885B985892B1C
:1021B0008A2B8B2B09F437C0CE0101965FD70FB65F
:1021C000F8940F92C401A3DF3C018415950530F506
:1021D00060E080E090E00E94EA1CD4D7F40193878D
:1021E00082870F900FBEAE80BF80C884D984E12C57
:1021F000F12C00E010E0980140E050E0BA0180E0EE
:102200000E94301AF40113861286BE016A5F7F4F66
:10221000CE0101965AD7882391F202C00F900FBECB
:102220006114710419F4C40172DF3C01820193014D
:10223000A1016A857B85C4016DDE6C01892BE9F003
:10224000C4010CDEF4012681378182179307A8F0C0
:1022500058D3F40180859185892B71F08085918513
:10226000E12CF12C00E020E030E0A90160E00E94C8
:10227000D81AF4011186108688D4C6012B960FB6A1
:10228000F894DEBF0FBECDBFDF91CF911F910F91AC
:10229000FF90EF90DF90CF90BF90AF909F908F9086
:1022A0007F906F905F904F903F902F900895AF92E6
:1022B000BF92CF92DF92EF92FF920F931F93CF9333
:1022C000DF93EC017B015A0169018E8580FF04C018
:1022D0008A010E5F1F4F01C08A01CE0118DF9C01E9
:1022E000A501B701CE0116DE5C01892BC1F0CE013C
:1022F000B5DD2E813F818217930788F08885998507
:10230000892B69F088859985E12CF12C00E020E08B
:1023100030E0A90160E00E94CC1B19861886C50137
:10232000DF91CF911F910F91FF90EF90DF90CF90B1
:10233000BF90AF9008952F923F924F925F926F920D
:102340007F928F929F92AF92BF92CF92DF92EF9245
:10235000FF920F931F93CF93DF931F921F92CDB7DE
:10236000DEB74C011B012A0158016901FC01868579
:1023700080FD03C0612C712C04C06894662461F850
:10238000712CA114B104C104D10449F10FB6F89421
:102390000F92C40163DD8C016816790648F060E095
:1023A00080E090E00E94EA1CEDD6F40191878087DE
:1023B0000F900FBE60167106C0F0E12CF12C00E00A
:1023C00010E0980140E050E0BA0180E00E94301A2D
:1023D000F40111861086C40141DD8C0103C0C401E3
:1023E0003DDD8C0160167106C8F561147104C1F001
:1023F000F401C080D1809801A301BE016F5F7F4FBF
:10240000C401C8DD89819A81061917094816590641
:1024100030F4F401D182C082412C512C01C02C0136
:102420009801A201B101C401B5DD6C01892BC1F095
:1024300068D2F40182859385892B71F0828593851A
:10244000E12CF12C00E020E030E0A90160E00E94E6
:10245000D81AF4011386128698D302C0C12CD12C4D
:10246000C6010F900F90DF91CF911F910F91FF90B8
:10247000EF90DF90CF90BF90AF909F908F907F9024
:102480006F905F904F903F902F900895E09173125E
:10249000F0917412808181110CC08FEF9FEFDC01ED
:1024A00080933D1290933E12A0933F12B09340123E
:1024B0000895E0917312F09174120780F085E02D79
:1024C00080819181A281B38180933D1290933E12CD
:1024D000A0933F12B093401208958F929F92AF92B3
:1024E000BF92CF92DF92EF92FF92CF93DF936B0177
:1024F0007C01C42F80904A1290904B12A0904C12F5
:10250000B0904D128091F9129091FA1202960E94A9
:10251000560A8FEFC816D806E806F806B1F5CC23A0
:10252000A1F1EFE4F2E1A181B281C091F912D09161
:10253000FA12BF83AE83C091F912D091FA121696A7
:102540008D919C911797998788871696CD91DC91EC
:1025500017978091F9129091FA1202969D838C83BD
:102560008091F9129091FA12029617969C938E938D
:102570001697A091F912B091FA121D96FC93EE9362
:102580001C9780818F5F80833FC0C80CD91CEA1CD8
:10259000FB1CE091F912F091FA12C282D382E4821C
:1025A000F582C814D904EA04FB0468F46091F912B6
:1025B0007091FA1280917112909172126E5F7F4F3A
:1025C0000E94190A21C06091F9127091FA1280914B
:1025D0007312909174126E5F7F4F0E94190A80915E
:1025E0003D1290913E12A0913F12B0914012C81638
:1025F000D906EA06FB0640F4C0923D12D0923E1284
:10260000E0923F12F0924012DF91CF91FF90EF9055
:10261000DF90CF90BF90AF909F908F9008954F9292
:102620005F926F927F928F929F92AF92BF92CF9262
:10263000DF92EF92FF920F931F93CF93DF934C01A2
:102640006B015A012901CA010E9402093C01892B30
:1026500009F40DC184E390E00E940209EC01892B8A
:1026600099F07C8E6B8EA50165EA70E0C3010E9433
:10267000213781E0A81AB1088B8D9C8DA80EB91E58
:10268000C114D10429F420C0C3010E94CA09EFC0BB
:10269000D6018C918D8F8C918823A1F0AE01425E82
:1026A0005F4FF6013196B0E1CB0ED11CCF012191E5
:1026B000DA012D93AD01DC018C91882319F0CE163F
:1026C000DF06A1F71CA601C01D8E0A3008F009E044
:1026D0000A8F0DA71EA66E01B2E0CB0ED11CC6015B
:1026E0000E94150ACE010E960E94150ADB87CA8742
:1026F0008AE090E0A0E0B0E0801B9109A109B10957
:102700008E879F87A88BB98BDF8BCE8B84E0FE01F1
:10271000BF96DF011D928A95E9F71BAAA201B401B9
:10272000C5010E947D0A99838883E114F10419F0A0
:10273000F701D183C0830FB6F8940F9280914E12A7
:102740008F5F80934E128091F9129091FA12892B2B
:10275000D1F5D093FA12C093F91280914E128130C4
:1027600009F041C00BE812E10F2EF9EFEF2EF2E174
:10277000FF2EF02DC8010E94040A055F1F4F0E15A1
:102780001F05C1F780E892E10E94040A85E792E103
:102790000E94040A86E692E10E94040A8BE592E117
:1027A0000E94040A8FE492E10E94040A80E892E108
:1027B000909374128093731285E792E19093721252
:1027C0008093711210C08091481281110CC0E09169
:1027D000F912F091FA12928D8A8D891720F0D09318
:1027E000FA12C093F912809141128F5F80934112C7
:1027F000EA8D809149128E1710F4E09349128BE014
:102800008E9FF0011124E557FD4E0180F281E02DED
:10281000FF83EE832681378139872887A681B78198
:102820001596DC92CE921497D782C682EA8D8E9F3F
:10283000F0011124E557FD4EFD87EC8780818F5F05
:1028400080830F900FBE80914812882361F0E09141
:10285000F912F091FA12928D8A8D981730F40E9435
:10286000D00A81E005C081E003C081E001C08FEFA4
:10287000DF91CF911F910F91FF90EF90DF90CF905C
:10288000BF90AF909F908F907F906F905F904F9090
:102890000895EF92FF920F930F2EFBE3EF2EF2E1DC
:1028A000FF2EF02D00E020E030E040EC50E06FE73C
:1028B00073E08EE091E0B3DE8130E9F40E94761D92
:1028C0008130C9F4F8948FEF9FEFDC0180933D12C3
:1028D00090933E12A0933F12B093401281E08093F8
:1028E000481210924A1210924B1210924C121092EF
:1028F0004D120E94940A809106020F91FF90EF9072
:10290000089580913A128F5F80933A1208950FB61E
:10291000F8940F9260914A1270914B1280914C1270
:1029200090914D120F900FBE0895CF92DF92EF92CB
:10293000FF920F931F93CF93DF9380913A128111EF
:1029400007C1C0904A12D0904B12E0904C12F09008
:102950004D128FEFC81AD80AE80AF80AC0924A1234
:10296000D0924B12E0924C12F0924D12C114D1044D
:10297000E104F104B1F480917312909174122091EA
:1029800071123091721230937412209373129093DB
:10299000721280937112809142128F5F8093421263
:1029A00075DD80913D1290913E12A0913F12B09141
:1029B0004012C816D906EA06FB0610F480E0B3C040
:1029C00080E04BE051E0E0917312F091741290813D
:1029D00091110CC04FEF5FEFBA0140933D1250933D
:1029E0003E1260933F12709340129DC0E0917312AB
:1029F000F09174120780F085E02D0084F185E02DC0
:102A00000281138124813581C016D106E206F306C6
:102A100048F400933D1210933E1220933F123093DE
:102A2000401281C0A485B585C681D78120853185B6
:102A30003F832E83C085D185268137813D832C83BA
:102A40009F012E5F3F4F11966D917C9112976217F7
:102A5000730731F46085718512967C936E9311979C
:102A6000158614869C9191509C93A08DB18D1097E2
:102A700009F1C289D389648975897F836E83C4898A
:102A8000D589628973897D836C831196CD91DC91A0
:102A90001297BF01625F7F4FC617D70731F4648971
:102AA000758912967C936E931197118E108E9C915E
:102AB00091509C93A28D909149129A1710F4A09373
:102AC00049124A9FD0011124A557BD4E11960D9071
:102AD000BC91A02DB783A68316966D917C91179714
:102AE000718760871696CD91DC9117973D832C8373
:102AF00017963C932E931697A28D4A9FD0011124CE
:102B0000A557BD4EB587A4879C919F5F9C93A091CC
:102B1000F912B091FA12228D5A969C91291708F455
:102B200052CF852F50CFE091F912F091FA12E28D39
:102B30009BE0E99FF0011124E557FD4E9081923012
:102B400008F081E0909143129923B1F081E014C024
:102B50008091441290914512A0914612B091471273
:102B60000196A11DB11D8093441290934512A0932C
:102B70004612B093471280E0DF91CF911F910F91E1
:102B8000FF90EF90DF90CF900895CF92DF92EF9279
:102B9000FF920F931F93CF93DF930FB6F8940F928A
:102BA00080913A12815080933A1280913A128111A9
:102BB000C4C080914E1281118BC0C2C0D80117963B
:102BC000ED91FC9118970084F185E02DA08DB18DD9
:102BD0008289938964897589EC017F836E838489F6
:102BE000958962897389EC017D836C83CF010E9690
:102BF00011966D917C9112976817790731F4848949
:102C0000958912969C938E931197118E108E8C91AC
:102C100081508C93A485B585868197816085718567
:102C2000EC017F836E838085918566817781EC01DD
:102C30007D836C83CF01029611966D917C911297E2
:102C40006817790731F46085718512967C936E93CD
:102C50001197158614862C9121502C93A28D2091CA
:102C600049122A1710F4A09349123A9FD001112457
:102C7000A557BD4E11960D90BC91A02DB783A6838C
:102C800016966D917C9117977187608716966D9156
:102C90007C911797EB019D838C8317969C938E9361
:102CA0001697A28D3A9FD0011124A557BD4EB58726
:102CB000A4878C918F5F8C93A091F912B091FA1236
:102CC000928D5A968C91981748F04093431206C003
:102CD000E0E0F0E006E612E13BE041E0D8018C9153
:102CE00081116CCFEF2B09F0D1DBC0904412D09052
:102CF0004512E0904612F0904712C114D104E1044D
:102D0000F10499F0C1E011DE8111C0934312B1E0EA
:102D1000CB1AD108E108F108B1F7109244121092D1
:102D20004512109246121092471280914312882346
:102D300031F00E94D00A81E003C080E001C080E051
:102D40000F900FBEDF91CF911F910F91FF90EF90E9
:102D5000DF90CF900895CF92DF92EF92FF926B01B8
:102D60007C01672B682B692B41F0CBDD40E0C7016C
:102D7000B601B3DB0ADF811102C00E94D00AFF90C6
:102D8000EF90DF90CF90089580913A12882321F040
:102D900081E080934312089510924312A091F9129A
:102DA000B091FA12E091F912F091FA122D913C9142
:102DB000838D948D8217930758F06091F91270916A
:102DC000FA128091F9129091FA12635E7F4FB6D792
:102DD00080914912282F30E09BE0899FF001112457
:102DE000E557FD4E908191110EC04BE08150282F88
:102DF00030E0429FF001439FF00D1124E557FD4E56
:102E00009081992399F39BE0929FA001939F500D8D
:102E10001124DA01A557BD4E1196ED91FC91129740
:102E20000480F581E02D1296FC93EE9311974257A2
:102E30005D4EE417F50729F444815581FD01528365
:102E400041839BE0929FF001939FF00D1124E55781
:102E5000FD4E0180F281E02D208531853093FA12FC
:102E60002093F912809349120895CF92DF92EF9246
:102E7000FF926A017B016091F9127091FA12625F10
:102E80007F4F0E94190A41E0C701B60126DBFF907F
:102E9000EF90DF90CF900895CF93DF93FC01CB01AB
:102EA000BA01A181B281C091F912D091FA12BB8B03
:102EB000AA8BC091F912D091FA1216964D915C919D
:102EC00017975D8B4C8B1696CD91DC91179740919F
:102ED000F9125091FA12425F5F4F5D834C8340912B
:102EE000F9125091FA12425F5F4F17965C934E931E
:102EF0001697A091F912B091FA125996FC93EE939D
:102F0000589730813F5F3083222319F06FEF7FEFB6
:102F1000CB01422FE2DADF91CF910895CF93DF9377
:102F2000DC011796ED91FC9118970084F185E02D56
:102F3000A08DB18DC289D389848995899F838E8321
:102F4000C489D589828993899D838C839F01225F5F
:102F50003F4F11968D919C9112978217930731F4F0
:102F60008489958912969C938E931197118E108E59
:102F70008C9181508C9380913A12811152C0A4851A
:102F8000B585C681D781808591859F838E83C085D5
:102F9000D185868197819D838C839F012E5F3F4FD2
:102FA00011968D919C9112978217930731F4808529
:102FB000918512969C938E931197158614868C9109
:102FC00081508C93A28D809149128A1710F4A0939E
:102FD00049128BE08A9FD0011124A557BD4E11964E
:102FE0000D90BC91A02DB783A68316964D915C9150
:102FF0001797518740871696CD91DC9117973D839F
:103000002C8317963C932E931697A28D8A9FD001FE
:103010001124A557BD4EB587A4878C918F5F8C93E3
:103020001CC046E652E1DA011196CD91DC9112976F
:10303000D38BC28B8E819F81958B848B8E819F8158
:10304000DC0115963C932E9314973F832E83518F6A
:10305000408FDA018C918F5F8C93A091F912B0911F
:10306000FA12928D5A968C91891720F481E0809300
:10307000431201C080E0DF91CF9108950FB6F8941C
:103080000F9220914212FC01208340914A125091EC
:103090004B1260914C1270914D12418352836383A5
:1030A00074830F900FBE089520914212FC0120837B
:1030B00040914A1250914B1260914C1270914D12F6
:1030C00041835283638374830895CF92DF92EF929A
:1030D000FF920F931F93CF93DF93FB010FB6F894EA
:1030E0000F9240914A1250914B1260914C12709184
:1030F0004D1200811181228133810F3FAFEF1A07FA
:103100002A073A0779F1EC01C980DA80EB80FC806C
:10311000A0914212B881BA1759F04C155D056E05A1
:103120007F0530F0108211821282138281E01BC071
:103130004C195D096E097F09401751076207730733
:1031400058F4041B150B260B370B008311832283C5
:103150003383AADF80E007C01082118212821382BB
:1031600081E001C080E00F900FBEDF91CF911F91F1
:103170000F91FF90EF90DF90CF90089581E08093C2
:10318000431208958091F9129091FA120895809156
:103190004812882331F080913A12882321F080E090
:1031A000089581E0089582E008950F931F93CF93CF
:1031B000DF93FC01892B09F479C0828DA091F9126B
:1031C000B091FA125A969C91891708F063C046850F
:1031D000578560897189772394F0A091F912B09195
:1031E000FA125A969C914AE050E060E070E0491B68
:1031F00051096109710946875787608B718B2BE0F4
:10320000829FC001112485579D4E2485358528173E
:103210003907B9F5EF018F010E5F1F4FC8010E94FA
:10322000560AE091F912F091FA12E28DEA8F80913C
:1032300049128E1710F4E09349128BE08E9FF00133
:103240001124E557FD4E0180F281E02DFF83EE83CE
:103250002681378139872887A681B78115961C93E7
:103260000E93149717830683EA8D8E9FF001112425
:10327000E557FD4EFD87EC8780818F5F808381E07D
:1032800016C0A091F912B091FA125A968C91828FC1
:1032900081E00DC0A091F912B091FA1281E025A54C
:1032A0005A969C91291718F080E001C080E0DF91C8
:1032B000CF911F910F9108950F931F93CF93DF9399
:1032C000FC01892B09F449C086A5815086A7228D6F
:1032D00095A5291709F443C0811143C0EF018F015F
:1032E0000E5F1F4FC8010E94560AEDA5EA8F8AE0C3
:1032F00090E0A0E0B0E08E1B9109A109B1098E8792
:103300009F87A88BB98B809149128E1710F4E09398
:1033100049128BE08E9FF0011124E557FD4E01808C
:10332000F281E02DFF83EE8326813781398728875C
:10333000A681B78115961C930E9314971783068365
:10334000EA8D8E9FF0011124E557FD4EFD87EC8735
:1033500080818F5F808381E005C080E003C080E0D2
:1033600001C080E0DF91CF911F910F9108950F93DD
:103370001F93CF93DF93FC01892B09F45AC085A5D5
:10338000861708F4862F928D981709F452C026A547
:10339000213009F04EC0828F46855785608971893A
:1033A000772364F04AE050E060E070E0481B510988
:1033B0006109710946875787608B718B2BE0929F5B
:1033C000C001112485579D4E24853585281739075E
:1033D00081F5EF018F010E5F1F4FC8010E94560A51
:1033E000EA8D809149128E1710F4E09349128BE018
:1033F0008E9FF0011124E557FD4E0180F281E02DF2
:10340000FF83EE832681378139872887A681B7819C
:1034100015961C930E93149717830683EA8D8E9F3F
:10342000F0011124E557FD4EFD87EC8780818F5F09
:103430008083DF91CF911F910F9108958091F912B0
:103440009091FA12892B39F0E091F912F091FA1269
:1034500086A58F5F86A78091F9129091FA12089540
:103460004F925F926F927F92AF92BF92CF92DF9214
:10347000EF92FF920F931F93CF93DF9328013901AF
:103480000FB6F8940F92E091F912F091FA12C82F4A
:10349000D0E0EC0FFD1F83A9823079F1E091F912A1
:1034A000F091FA12CE01880F991F880F991FE80F2B
:1034B000F91F87A590A9A1A9B2A94095509560953B
:1034C0007095482359236A237B2347A750AB61ABF0
:1034D00072ABE091F912F091FA12EC0FFD1F81E04E
:1034E00083ABA114B104C104D10439F041E0C60199
:1034F000B5010E946D120E94D00A0F900FBE0FB648
:10350000F8940F92E114F104A1F0E091F912F09116
:10351000FA12CE01880F991F880F991FE80FF91F23
:1035200087A590A9A1A9B2A9F70180839183A2835D
:10353000B383E091F912F091FA12EC0FFD1F83A909
:103540008230E9F4E091F912F091FA12CE01880F7D
:10355000991F880F991FE80FF91F87A590A9A1A9A6
:10356000B2A94094509460947094482259226A22DF
:103570007B2247A650AA61AA72AA81E001C080E01E
:103580002091F9123091FA12C20FD31F1BAA0F908B
:103590000FBEDF91CF911F910F91FF90EF90DF90C1
:1035A000CF90BF90AF907F906F905F904F900895B5
:1035B0008F929F92AF92BF92EF92FF920F93CF9311
:1035C000DF93DC010FB6F8940F92E114F10479F067
:1035D000FC0184E0689FE00DF11D112487A490A8F0
:1035E000A1A8B2A8F70180829182A282B38270E082
:1035F000FD01E60FF71F83A992E093AB0230F9F0CB
:1036000018F4013031F049C0033069F10430B9F1E8
:1036100044C0660F771F660F771FFD01E60FF71F87
:1036200087A490A8A1A8B2A8BA01A901482959293C
:103630006A297B2947A750AB61AB72AB2EC0660FDE
:10364000771F660F771FFD01E60FF71F47A550A9EB
:1036500061A972A94F5F5F4F6F4F7F4F47A750AB74
:1036600061AB72AB1AC0660F771F660F771FFD0143
:10367000E60FF71F27A730AB41AB52AB0EC082302D
:1036800009F479C0660F771F660F771FFD01E60FFB
:10369000F71F27A730AB41AB52AB813009F06DC0AB
:1036A0001C96ED91FC911D971696CD91DC91179784
:1036B00018968D919C9119979F838E831896CD9122
:1036C000DC91199716968D919C9117979D838C8309
:1036D0009D012E5F3F4F818192818217930731F4C4
:1036E00018968D919C911997928381831D961C92B7
:1036F0001E921C978081815080835A96EC915A9734
:10370000809149128E1710F4E09349128BE08E9F3E
:10371000F0011124E557FD4E0180F281E02D17964E
:10372000FC93EE9316974681578119965C934E93BE
:103730001897C681D7813D832C83378326835A9679
:10374000EC915A978E9FF0011124E557FD4E1D967E
:10375000FC93EE931C9780818F5F8083E091F91238
:10376000F091FA125A969C91828D891740F40E942A
:10377000D00A81E005C080E003C081E001C081E0A3
:103780000F900FBEDF91CF910F91FF90EF90BF9000
:10379000AF909F908F9008958F929F92AF92BF921B
:1037A000CF92DF92EF92FF920F93CF93DF93DC01E2
:1037B000E114F10479F0FC0184E0689FE00DF11D53
:1037C000112487A490A8A1A8B2A8F70180829182B1
:1037D000A282B38270E0FD01E60FF71F83A992E099
:1037E00093AB0230F9F018F4013031F049C00330E6
:1037F00069F10430B9F144C0660F771F660F771F77
:10380000FD01E60FF71F87A490A8A1A8B2A8BA01EE
:10381000A901482959296A297B2947A750AB61ABDF
:1038200072AB2EC0660F771F660F771FFD01E60F84
:10383000F71F47A550A961A972A94F5F5F4F6F4F4E
:103840007F4F47A750AB61AB72AB1AC0660F771FB3
:10385000660F771FFD01E60FF71F27A730AB41ABBF
:1038600052AB0EC0823009F4A4C0660F771F660FFA
:10387000771FFD01E60FF71F27A730AB41AB52AB17
:10388000813009F098C080913A1281115FC01C9676
:10389000ED91FC911D971696CD91DC911797189696
:1038A0008D919C9119979F838E831896CD91DC9171
:1038B000199716968D919C9117979D838C839D01E6
:1038C0002E5F3F4F818192818217930731F41896C2
:1038D0008D919C911997928381831D961C921E92C3
:1038E0001C978081815080835A96EC915A978091E1
:1038F00049128E1710F4E09349128BE08E9FF0016D
:103900001124E557FD4E0180F281E02D1796FC93BE
:10391000EE9316974681578119965C934E931897AC
:10392000C681D7813D832C83378326835A96EC91B9
:103930005A978E9FF0011124E557FD4E1D96FC937A
:10394000EE931C9780818F5F808320C046E652E112
:10395000FA01C181D2815396DC93CE9352978E8126
:103960009F8155969C938E9354972E813F81CD01D4
:103970000E96F901958384839F838E8359965C9379
:103980004E935897FA0180818F5F8083E091F912FE
:10399000F091FA125A969C91828D891770F4C11495
:1039A000D10419F081E0F601808381E08093431215
:1039B00005C080E003C081E001C081E0DF91CF91CC
:1039C0000F91FF90EF90DF90CF90BF90AF909F90BE
:1039D0008F900895009721F48091F9129091FA1236
:1039E0000FB6F8940F9270E0FC01E60FF71F23A9C1
:1039F000223031F4FC01E60FF71F13AA81E001C069
:103A000080E00F900FBE0895CF92DF92EF92FF9269
:103A10000F931F93FC0142835383648375839387C1
:103A200082870417150726073707C0F00C191D09F0
:103A30002E093F0986859785A089B189081719073E
:103A40002A073B0700F5BF016E5F7F4F809103138C
:103A5000909104130E94190A80E018C00C151D05EE
:103A60002E053F0528F44C155D056E057F0568F4AD
:103A7000BF016E5F7F4F80910513909106130E94E6
:103A8000190A80E003C081E001C081E01F910F911D
:103A9000FF90EF90DF90CF9008950FB6F8940F92BB
:103AA0008091011390910213892BE9F482E193E153
:103AB0000E94040A87E093E10E94040A82E193E1F4
:103AC000909306138093051387E093E1909304137A
:103AD0008093031340E067E08AE00E94AC0C90936F
:103AE0000213809301130F900FBE0895EF92FF927F
:103AF0000F93D3DF8091011390910213892B91F0E2
:103B00000F2EFFEFEF2EF2E1FF2EF02D03E020E06D
:103B100030E040EC50E064E873E088E491E00E941B
:103B20000F1301C080E00F91FF90EF9008958F92E6
:103B30009F92AF92BF92CF92DF92EF92FF920F933C
:103B40001F93CF93DF93CDB7DEB727970FB6F894C7
:103B5000DEBF0FBECDBFE0910113F091021330978D
:103B600081F169832A833B834C835D839F838E83AA
:103B70006630F4F40CDB823069F400E0A7019601B2
:103B8000BE016F5F7F4F80910113909102130E94DD
:103B9000CD0C18C000E020E030E0A901BE016F5F4D
:103BA0007F4F80910113909102130E94CD0C0AC0A7
:103BB00020E0A801BE016F5F7F4FCF010E94700D12
:103BC00001C080E027960FB6F894DEBF0FBECDBFD0
:103BD000DF91CF911F910F91FF90EF90DF90CF90E9
:103BE000BF90AF909F908F9008952F923F924F92E9
:103BF0005F926F927F928F929F92AF92BF92CF927D
:103C0000DF92EF92FF920F931F93CF93DF931C01EC
:103C10000E9487142B013C018091FB129091FC12B1
:103C2000A091FD12B091FE12481659066A067B0655
:103C300008F053C03BC00780F085E02D8080918064
:103C4000A280B380C085D1858E010E5F1F4FC80151
:103C50000E94560AEC89FD89CE0119958E8982FF52
:103C600025C08E859F85A889B989880D991DAA1DB3
:103C7000BB1D88169906AA06BB0670F48A839B832F
:103C8000AC83BD83DB87CA87B8018091051390910F
:103C900006130E94190A0AC0C12CD12C760100E03B
:103CA00010E0A501940160E0CE0141DFE091051331
:103CB000F091061380818111BECF80910313909102
:103CC00004139093061380930513F0930413E09369
:103CD000031381E0F101808302C0F1011082409260
:103CE000FB125092FC126092FD127092FE12C30100
:103CF000B201DF91CF911F910F91FF90EF90DF9074
:103D0000CF90BF90AF909F908F907F906F905F907B
:103D10004F903F902F9008950895279A2F9A0895D5
:103D20001F9A0895FADF2FEF80E792E0215080403C
:103D30009040E1F700C00000F3DFF5CFEEDF2FEF9A
:103D400087EA91E6215080409040E1F700C00000F2
:103D5000E7DFF5CFCF93DF93CDB7DEB78C8590E06B
:103D6000982F88272D85820F911D9F938F938A8589
:103D700090E0982F88272B85820F911D9F938F931A
:103D8000888590E0982F88272985820F911D9F9321
:103D90008F938DEB93E09F938F930E9477370FB6AD
:103DA000F894DEBF0FBECDBFDF91CF9108954F9243
:103DB0005F926F927F928F929F92AF92BF92CF92BB
:103DC000DF92EF92FF920F931F93CF93DF93CDB7C4
:103DD000DEB7EE88F12CFE2CEE248F89E80EF11C64
:103DE000C88CD12CDC2CCC24898DC80ED11C6A8CBB
:103DF000712C762C66248B8D680E711C0C8D10E056
:103E0000102F00278D8D080F111DAE8CB12CBA2CF0
:103E1000AA248F8DA80EB11C88A0912C982C8824E0
:103E200089A1880E911C9F928F92BF92AF921F938F
:103E30000F937F926F92DF92CF92FF92EF9288EC76
:103E400093E09F938F930E9477370E94FC072C0189
:103E5000B601DD0C880B990B76D3AB01BC01C20116
:103E60000E9432070E94FC076C01B701FF0C880B0F
:103E7000990B69D3AB01BC01C6010E945E070E9489
:103E80000608B4010E948D050E940608B5010E9433
:103E9000B1050E9401087C01B801110F880B990B34
:103EA00052D3AB01BC01C7010E940A060E9401085F
:103EB0008C01B301770C880B990B45D3AB01BC0186
:103EC000C8010E9437060FB6F894DEBF0FBECDBF03
:103ED000DF91CF911F910F91FF90EF90DF90CF90E6
:103EE000BF90AF909F908F907F906F905F904F901A
:103EF000089581E089D762E070E080E090E00E9460
:103F0000AB1680E081D766E970E080E090E00E9427
:103F1000AB1681E00E946A3185D70E948F299F935A
:103F20008F938CED93E09F938F930E9477370E943D
:103F300090280E948F299F938F938FEE93E09F93F9
:103F40008F930E9477378BE493E17ED70E948F296D
:103F5000CBE4D3E1DF93CF939F938F9388E094E0FA
:103F60009F938F930E947737CE018AD70E948F2923
:103F70009F938F93DF93CF938CE194E09F938F93E4
:103F80000E947737AE0161E374E082E594E00E941D
:103F90006E290E948F299F938F93DF93CF9381E3A4
:103FA00094E09F938F9382E594E09F938F9383E6B1
:103FB00094E09F938F930E94773795D70E948F2923
:103FC0009F938F9389E994E09F938F930E94773713
:103FD000EDB7FEB7B2960FB6F894FEBF0FBEEDBFB9
:103FE00081E00E946D280E948F299F938F9388EA19
:103FF00094E09F938F930E94773784EF91E00E9423
:1040000078280E948F299F938F9381E08F9384EF6C
:104010008F9389EC94E09F938F930E9477378DB7AD
:104020009EB70A960FB6F8949EBF0FBE8DBFCAE02A
:10403000D0E009EE14E080E05CD7F82E0E948F29D2
:104040009F938F93DF93CF931F930F930E947737A4
:104050000F900F900F900F900F900F90F8E0FF16B9
:1040600009F4D8C080E00E94CE3166E371E080E0C0
:1040700090E00E94AB162197F1F6C5C00E94D00ACD
:10408000FDCF0E94FC070E94AF072AD2362E272EB2
:104090000E9401080E94B00623D2162F072F0E940B
:1040A00006080E944F052A823B820C831D839E8353
:1040B0008F8383E00E94E03182B1892582B9BE01FD
:1040C00080E040D70E948F298C011F938F93FF922D
:1040D000EF920E9477370F900F900F900F9025E08E
:1040E0000E31120721F082E003381807C1F5F601FE
:1040F0008082518282B1842582B90FEF1FEF98012F
:1041000046E150E0B60180911D1390911E130E946C
:104110009B11F60181811F928F9380811F928F9353
:104120007F926F920E9477378DB79EB746970FB6F2
:10413000F8949EBF0FBE8DBFADB7BEB7119686E196
:10414000F60101900D928A95E1F731DEEDB7FEB7E9
:104150007C960FB6F894FEBF0FBEEDBF30C005527F
:10416000154069F1882D50D662E070E080E090E063
:104170000E94AB1680E048D666E970E080E090E0EF
:104180000E94AB1680E0B5D60E948F299F938F9333
:10419000BF92AF920E947737BE0180E0D3D60E94D3
:1041A0008F299F938F93FF92EF920E9477378DB75D
:1041B0009EB708960FB6F8949EBF0FBE8DBF82B112
:1041C000892582B9EDB7FEB776970FB6F894FEBF92
:1041D0000FBEEDBFADB7BEB7119686E1FE010190EF
:1041E0000D928A95E1F7B6DD64E771E080E090E03A
:1041F0000E94AB168DB79EB746960FB6F8949EBF39
:104200000FBE8DBF3ECF81E00E94BF3180E00E9493
:104210008D3134CF81E00E94B031E5E3F3E186E0F7
:10422000818382E08083EF016894992492F80F2EB5
:10423000F9E0EF2EF5E0FF2EF02D0F2EFFE1CF2E4F
:10424000F3E1DF2EF02D882483940F2EFEE05F2E05
:10425000F02D6894442443F80F2EFCE86F2EF3E011
:104260007F2EF02D0F2EFFE2AF2EF5E0BF2EF02DAA
:1042700008CFEF92FF920F9390931E1380931D131C
:10428000E12CF12C02E021E030E040EC50E06EE463
:1042900075E089E79FE10E940F130F91FF90EF9067
:1042A000089581B18FEF81B992B181E0892782B9F8
:1042B00092B182E0892782B992B184E0892782B9DC
:1042C00092B188E0892782B992B180E1892782B9C9
:1042D00092B180E2892782B992B180E4892782B9BC
:1042E00082B1805882B980E00E948E2E83E090E0F7
:1042F0000E946B2ACAD3882341F085E595E09F93FD
:104300008F930E9477370F900F9041E060E070E04C
:104310008CE290E00E9418109093B0138093AF133A
:10432000BC0181E031C50895BCDF8BE795E00E94B8
:104330008A370E94D4078091AF139091B01399DF10
:104340000E944914FFCF5058BB27AA270ED04DC159
:104350003ED130F043D120F031F49F3F11F41EF4F0
:1043600033C10EF4E095E7FB29C1E92F4FD180F36B
:10437000BA17620773078407950718F071F49EF562
:1043800067C10EF4E0950B2EBA2FA02D0B01B901D9
:1043900090010C01CA01A0011124FF27591B99F0BB
:1043A000593F50F4503E68F11A16F040A22F232FC7
:1043B000342F4427585FF3CF469537952795A79517
:1043C000F0405395C9F77EF41F16BA0B620B730BBE
:1043D000840BBAF09150A1F0FF0FBB1F661F771F2F
:1043E000881FC2F70EC0BA0F621F731F841F48F4E4
:1043F000879577956795B795F7959E3F08F0B3CF6A
:104400009395880F08F09927EE0F97958795089553
:104410000CD0EBC0E3D040F0DAD030F021F45F3FB5
:1044200019F0CCC0511115C1CFC0F0D098F3992329
:10443000C9F35523B1F3951B550BBB27AA27621768
:104440007307840738F09F5F5F4F220F331F441FAD
:10445000AA1FA9F333D00E2E3AF0E0E830D09150E5
:104460005040E695001CCAF729D0FE2F27D0660FD2
:10447000771F881FBB1F261737074807AB07B0E811
:1044800009F0BB0B802DBF01FF2793585F4F2AF027
:104490009E3F510568F092C0DCC05F3FECF3983E50
:1044A000DCF3869577956795B795F7959F5FC9F784
:1044B000880F911D9695879597F90895E1E0660F0D
:1044C000771F881FBB1F621773078407BA0720F086
:1044D000621B730B840BBA0BEE1F88F7E0950895EF
:1044E00004D06894B111B5C0089598D088F09F5752
:1044F00090F0B92F9927B751A0F0D1F0660F771F30
:10450000881F991F1AF0BA95C9F712C0B13081F00F
:104510009FD0B1E008959CC0672F782F8827B85F9F
:1045200039F0B93FCCF3869577956795B395D9F770
:104530003EF490958095709561957F4F8F4F9F4F7A
:104540000895E89409C097FB3EF490958095709586
:1045500061957F4F8F4F9F4F9923A9F0F92F96E9CF
:10456000BB279395F695879577956795B795F11144
:10457000F8CFFAF4BB0F11F460FF1BC06F5F7F4FE1
:104580008F4F9F4F16C0882311F096E911C07723F3
:1045900021F09EE8872F762F05C0662371F096E8FC
:1045A000862F70E060E02AF09A95660F771F881FCB
:1045B000DAF7880F9695879597F9089597F99F6789
:1045C00080E870E060E008959FEF80EC089500249B
:1045D0000A941616170618060906089500240A9468
:1045E00012161306140605060895092E0394000CEE
:1045F00011F4882352F0BB0F40F4BF2B11F460FF7D
:1046000004C06F5F7F4F8F4F9F4F089557FD9058A5
:10461000440F551F59F05F3F71F04795880F97FB86
:10462000991F61F09F3F79F0879508951216130640
:104630001406551FF2CF4695F1DF08C0161617066F
:104640001806991FF1CF86957105610508940895A4
:10465000E894BB2766277727CB0197F908950BD0FD
:10466000C4CFB5DF28F0BADF18F0952309F0A6CF44
:10467000ABCF1124EECFCADFA0F3959FD1F3950FF6
:1046800050E0551F629FF001729FBB27F00DB11DD6
:10469000639FAA27F00DB11DAA1F649F6627B00D66
:1046A000A11D661F829F2227B00DA11D621F739F4F
:1046B000B00DA11D621F839FA00D611D221F749F5D
:1046C0003327A00D611D231F849F600D211D822FA4
:1046D000762F6A2F11249F5750408AF0E1F08823EB
:1046E0004AF0EE0FFF1FBB1F661F771F881F9150F8
:1046F0005040A9F79E3F510570F060CFAACF5F3FB1
:10470000ECF3983EDCF3869577956795B795F7952A
:10471000E7959F5FC1F7FE2B880F911D96958795B2
:1047200097F9089581B38F6081BB2898289A21B3A7
:1047300081E090E00090E11302C0880F991F0A9475
:10474000E2F78095822381BBE091B113F091B2131F
:10475000309709F0199508959FB7F894EDEDF3E1BE
:1047600010828EE981838AE0828383839FBF0895CC
:10477000BF92CF92DF92EF92FF920F931F93CF934E
:10478000DF936B017C01B42E1092B41383E0841785
:1047900078F1642F70E080E090E0D3DE9B01AC0103
:1047A00060E070E080E291E40E940134A70196018C
:1047B00056DF20E030E040E05FE3C6DD0E94AC332E
:1047C0008FDEAB01772364F444275527461B570B34
:1047D00021E0483E83E058070CF420E011E00CC0D3
:1047E00021E0403187E258070CF420E010E004C0DB
:1047F00040E050E021E010E00FB7F894222311F0E0
:10480000ABDF51C0C1EED3E10F2EFDEDCF2EF3E1B2
:10481000DF2EF02D0F2EFAE0EF2EF12CF02DCA0135
:10482000B7010E946F35FC01E457FA4F80818A93EB
:10483000462F572FCC15DD0591F743E050E04B197B
:10484000510914161506F4F48091DD138C3F49F0DC
:1048500060E019C0FC01E352FC4E30813C3F21F086
:1048600012C080E090E020E0FC01E352FC4E108298
:10487000622F2F5F822F022E000C990B8417950751
:104880004CF301C060E0112331F0E62FF0E0E35279
:10489000FC4E82E08083BB2031F0FA01E352FC4EF3
:1048A0008081816080830FBFDF91CF911F910F9135
:1048B000FF90EF90DF90CF90BF90089585B5856011
:1048C00085BD089585B5887F85BD81B38F6081BB27
:1048D00008958F92AF92CF92EF920F931F93CF9341
:1048E000DF93EC0180B38F6080BB81B38F6081BBAD
:1048F000209A82E993E29F938F93812CA12CC12C63
:10490000E12C00E010E020E240E063E080E10E9462
:10491000F02E9093E3138093E21389E187BD84B571
:10492000826084BDEEE6F0E0808182608083CADF31
:10493000D093B213C093B1130F900F90DF91CF912A
:104940001F910F91EF90CF90AF908F9008951F928D
:104950000F920FB60F9211240BB60F922F933F9325
:104960004F935F936F937F938F939F93AF93BF9377
:10497000EF93FF938091B413882369F12091B513CD
:104980003091B613253F91E0390738F42F5F3F4F40
:104990003093B6132093B5131EC01092B613109225
:1049A000B513E091B3132E2F30E090E00497281751
:1049B000390714F4EF5F01C0E0E0E093B313F0E0D7
:1049C000E954FC4EADEDB3E121EE33E181918D93DD
:1049D000A217B307D9F78091E11390E00196837095
:1049E0009078992324F401978C6F9F6F01968093A0
:1049F000E1139927FC01E352FC4E608160958091A0
:104A0000E2139091E3130E94C22FFF91EF91BF91A7
:104A1000AF919F918F917F916F915F914F913F9156
:104A20002F910F900BBE0F900FBE0F901F901895F7
:104A30006530F1F4FA0180818F7390E0982F882718
:104A40002181822B90930A02809309028281F0E4F3
:104A50008F9FC0011124FA01238126952695822B70
:104A6000909308028093070281E08093E4130895F5
:104A7000643051F080E090E4909308028093070244
:104A800090930A028093090208950F931F9308E1FF
:104A900015E220E034E244EF50E060E087E20E945B
:104AA00003329093E6138093E51321E0892B09F0FC
:104AB00020E0822F1F910F9108958091E51390912E
:104AC000E613009759F040E060E070E00E94543235
:104AD000843031F41092E41380E0089582E0089568
:104AE00083E008958091E5139091E613009739F0E3
:104AF00064E00E94A032853021F083E0089582E0D6
:104B0000089580E008956091090270910A0280E0A2
:104B100090E017DD20E030E048EC52E4A0DD20E03A
:104B200038EF4FE756E474CC089560910702709116
:104B3000080280E090E005DD20E030E045E253E44B
:104B40008EDD20E038EF4FE756E462DC20E030E015
:104B500040E252E4F8CB08950F931F93CF93DF9375
:104B60001F921F92CDB7DEB78C0119822DC0E09144
:104B70004B14EC3250F481E08E0F80934B14F0E034
:104B8000E358FB4E8A81808302C010924B148A81C5
:104B90008A30D1F440914B1450E0FA01E558FB4EB5
:104BA0001082415051099E012F5F3F4F6DE774E124
:104BB00080914E1490914F140E9457118981811158
:104BC0000E94D00A10924B14BE016E5F7F4FC80145
:104BD0000FD6882361F20F900F90DF91CF911F9134
:104BE0000F9108950F931F93CF93DF938C01EB01E7
:104BF00080914E1490914F140E944D10B80187EE91
:104C000093E10E945837209779F0E7EEF3E10190A5
:104C10000020E9F7319780E290E091838083BE0124
:104C200087EE93E10E944D37E7EEF3E1DF010D904F
:104C30000020E9F711978DE09AE011969C938E93EE
:104C400012961C9201900020E9F73197E75EF3413C
:104C5000AE2F87EE93E1AC016A2F809150149091B2
:104C6000511471D5811111C008E215E020E030E047
:104C70004DE250E067ED74E180914E1490914F1435
:104C80000E949B1187ED94E102C080E090E0DF91EB
:104C9000CF911F910F9108952F923F924F925F9263
:104CA0006F927F928F929F92AF92BF92CF92DF923C
:104CB000EF92FF920F931F93CF93DF935C01FC0160
:104CC00001900020E9F731976F01C81AD90A5C2CCE
:104CD0000F2EF4E28F2EF8E09F2EF02DE12CF12C18
:104CE0004C2C3701F40101811281E8010990002068
:104CF000E9F72197C01BD10B3C2EF9E0CF16D10468
:104D000058F0F4012080FEE02F1206C0B801C50162
:104D10000E942837892B09F5442D351408F44C2FAF
:104D200050E0B801C5010E945F37892B49F4F301B7
:104D3000EE0FFF1FE60DF71DEC5DF74F20800DC055
:104D40008FEFE81AF80AE3E08E0E911CF1E1EF16FE
:104D5000F10439F66894222424F8822DDF91CF9152
:104D60001F910F91FF90EF90DF90CF90BF90AF9089
:104D70009F908F907F906F905F904F903F902F907B
:104D8000089530DF89CF08958F929F92AF92CF928E
:104D9000EF920F931F93CF93C82F8B0141E060E0F8
:104DA00070E088EC90E00E94181090934F1480936C
:104DB0004E1410934D1400934C140F2EFCEA8F2EBA
:104DC000F5E29F2EF02D6894AA24A6F86894CC24CE
:104DD000C6F8E12C00E023E040E051EE60E070E036
:104DE0008C2FDED39093511480935014E7E0F1E0C0
:104DF000808180618083CF911F910F91EF90CF9040
:104E0000AF909F908F900895882331F0E8E0F1E013
:104E100080818F7E80830895E8E0F1E08081806169
:104E20008083089560E070E08BEB95E0DBDEE7EDDA
:104E3000F4E101900020E9F73197E75DF44181E06A
:104E4000759708F080E00895CF93DF93EC0160E060
:104E500070E08CEC95E0C6DEE7EDF4E10190002017
:104E6000E9F7E85EF44139F467ED74E1CE010E94A0
:104E7000583780E002C0188281E0DF91CF91089519
:104E8000FC0101900020E9F79F0121513109281709
:104E9000390729F4BC018AEF95E073CF089589E0C2
:104EA0000895FC0101900020E9F79F01215131098B
:104EB0002817390729F4BC0189E096E062CF0895EC
:104EC00089E00895FC0101900020E9F79F0121523B
:104ED00031092817390729F4BC0188E196E051CF40
:104EE000089589E0089560E070E087E596E049CF95
:104EF00008950F931F93E82FF0E0EE0FFF1FE05E81
:104F0000F74F6081718180E696E03BDF811114C02C
:104F100008E215E020E030E04DE250E067ED74E19A
:104F200080914E1490914F140E949B11882321F080
:104F300087ED94E1B1DE03C087ED94E1ADDE1F9112
:104F40000F9108950F931F93CF93DF931F92CDB7C7
:104F5000DEB7DB0111969C911197953108F0B4C032
:104F6000992381F160E070E0272F30E0462F50E078
:104F7000FD01E40FF51F928192959F709A3010F019
:104F8000995C01C0905DF901E859FB4E90832F5F59
:104F90003F4FFD01E40FF51F92819F70492F50E0B4
:104FA0004A30510514F0995C01C0905DF901E8594F
:104FB000FB4E90837E5F6F5F11969C9111976917EE
:104FC00098F201C070E0E72FF0E0E859FB4E108244
:104FD0004C91811103C089E696E002C08BE696E011
:104FE00028E634E13F932F931F924F939F938F9323
:104FF0008FE696E09F938F938AEA94E19F938F9335
:105000000E94BA3760E070E08AEA94E1BADE0FB637
:10501000F894DEBF0FBECDBF811159C008E215E084
:1050200020E030E04DE250E067ED74E180914E14F5
:1050300090914F140E949B11882309F447C087ED7B
:1050400094E12ADE8E3009F042C087E089838091A6
:105050004C1490914D14892BA9F1BE016F5F7F4FC5
:1050600087ED94E168D180935214E981F0E0E95230
:10507000FB4EDF010D900020E9F71197AE1BBF0B2F
:10508000AA2391F0BB27CD0101979C0112F42F5F59
:105090003F4F3595279520935314AF014F5F5F4FD6
:1050A00064E184E594E173D101E010E020E030E0B8
:1050B00046E150E062E574E180914C1490914D140A
:1050C0000E9499108EE003C084E101C080E00F903F
:1050D000DF91CF911F910F910895813019F06FE703
:1050E00076E002C068E577E083E896E04ACE08956E
:1050F0009F938F9384EB96E09F938F938AEA94E13A
:105100009F938F930E94BA3760E070E08AEA94E13F
:1051100038DE0F900F900F900F900F900F90089522
:105120002F923F924F925F926F927F928F929F92B7
:10513000AF92BF92CF92DF92EF92FF920F931F93A5
:10514000CF93DF93CDB7DEB7A0970FB6F894DEBF4D
:105150000FBECDBF61EE76E08DEE96E043DD9CDDC7
:105160008111A3C080E2E2E2F2E0DE01119601903B
:105170000D928A95E1F79E012F5F3F4F6901E12C67
:10518000F12C0F2EF9EFAF2EF6E0BF2EF02D0AEA2C
:1051900014E10F2EF2E14F2EF7E05F2EF02D0F2ECF
:1051A000F9E28F2EF7E09F2EF02D0F2EF3E46F2EF5
:1051B000F7E07F2EF02D3E2C2F2CFF92EF92BF9226
:1051C000AF921F930F930E94BA3760E070E0C8015E
:1051D00009DD62DD0F900F900F900F900F900F90F0
:1051E000811163C032E03E15E8F4F60183818F93AC
:1051F00082818F9381818F9380818F93FF92EF9231
:105200005F924F921F930F930E94BA3760E070E055
:10521000C801E8DC41DD0FB6F894DEBF0FBECDBF9C
:10522000811143C02F923F929F928F921F930F93B1
:105230000E94BA3760E070E0C801D4DC2DDD0F9029
:105240000F900F900F900F900F9081112EC02F9202
:105250003F927F926F921F930F930E94BA3760E044
:1052600070E0C801BFDC18DD0F900F900F900F9019
:105270000F900F90811119C03FEFE31AF30A84E0F9
:10528000C80ED11C98E0E916F10409F094CF60E053
:1052900070E08BE597E0A6DCFFDC811106C060E0E2
:1052A00070E08CE697E09EDCF7DCA0960FB6F894F1
:1052B000DEBF0FBECDBFDF91CF911F910F91FF9049
:1052C000EF90DF90CF90BF90AF909F908F907F90A6
:1052D0006F905F904F903F902F900895EF92FF92C4
:1052E0000F931F93CF93DF93EC018B017A0181E041
:1052F000F4DE81110DC0CE01D4DD811109C0C801D9
:10530000E1DD811105C0C701BBDD811101C0EBDD0D
:10531000DF91CF911F910F91FF90EF90089590E052
:10532000FC01EE0FFF1F8E0F9F1FFC01EC5DF74F7E
:10533000818192810895DC01009729F1FB01208190
:10534000FC0101900020E9F73197E81BF90B822F4F
:1053500090E0E817F907C8F080E008C0880F382F00
:10536000330F330F830F8053890F2F5FFD01E20F3F
:10537000F11D908130ED390F3A3010F49111EECFDC
:10538000FB012083089580E0089580E008950F9345
:105390001F93CF93DF93DC01EA012097E1F1FA013B
:1053A00001900020E9F73197E41BF50B329710F5D7
:1053B00032C08D01040F151F30E0AE01420F531FA4
:1053C000FA019081913428F09753592F5295507FCC
:1053D00003C0592F5295507F2C0F3D1FF901918129
:1053E000913410F0975301C09053950FF8019083BA
:1053F0008F5F01C080E0282F220F482F50E0FE0170
:1054000001900020E9F73197EC1BFD0B4E175F0769
:1054100010F48613CECFDF91CF911F910F91089595
:1054200080910715860F8093071590910A1591308A
:1054300079F028F09230A9F0933019F108956F3F78
:1054400009F048C01092071581E080930A1508956D
:10545000663809F03FC01092061582E080930A1565
:105460000895E091061581E08E0F80930615F0E017
:10547000EC5FFA4E6083823069F583E080930A1511
:1054800008959091061521E0290F20930615963076
:1054900009F581110EC0E4E0F5E1808190E0982FDC
:1054A00088272181820F911D90930C1580930B15F5
:1054B00004C010920C1510920B1510920A15E09171
:1054C0000815F0910915309729F080910B159091EE
:1054D0000C15199508958F929F92AF92CF92EF92EB
:1054E0000F930F2EF0E18F2EFAE29F2EF02D68948D
:1054F000AA24A4F86894CC24C4F8E12C00E023E0AA
:1055000040E855E260E070E04BD090930E15809338
:105510000D150F91EF90CF90AF909F908F900895C1
:10552000CF93DF93CDB7DEB729970FB6F894DEBFE0
:105530000FBECDBF89E0E2E4F2E09E012F5F3F4F56
:10554000D90101900D928A95E1F710920C151092F5
:105550000B1580910D1590910E15009731F0422F8B
:10556000532F69E0F0D080E001C082E029960FB6A9
:10557000F894DEBF0FBECDBFDF91CF91089520918B
:105580000B1530910C152115310529F4FC01118200
:10559000108281E00895FC013183208380E008952A
:1055A0002F923F924F925F926F927F928F929F9233
:1055B000AF92CF92EF92FF920F931F93CF93DF930F
:1055C000CDB7DEB7F82E2A013B0188E090E00E94BB
:1055D000F3358C018F2D90E0FC01EE0FFF1FE15F92
:1055E000FA4E118300830115110509F46FC0880F6D
:1055F000991FFC01E55FFD4F80819181D8018D935A
:105600009C936C2D70E084E090E00E94D9351C01E1
:1056100061E070E086E090E00E94D9357C014C2D7D
:10562000B1010E949033F801F582E4826A2D70E0A6
:1056300084E090E00E94D9351C0161E070E086E0D2
:1056400090E00E94D9357C014A2DB1010E9490332F
:10565000D8011396FC92EE92129717969C928E9216
:105660001697FFB6F894ED91FC91119736978081CB
:10567000826080838D909C90C301B2010E94A12220
:1056800020E030E040E051E40E942F239B01AC0178
:1056900060E074E284E79BE40E94082220E030E0AE
:1056A00040E85FE30E94A3210E947522F401329733
:1056B0006083D801ED91FC911197359788E980833B
:1056C000ED91FC91349786E08083FFBEC801DF91A5
:1056D000CF911F910F91FF90EF90CF90AF909F903F
:1056E0008F907F906F905F904F903F902F90089594
:1056F000CF93DF93DC01892B01F11296ED91FC91A0
:105700001397938182812581981B92238481981716
:10571000B1F0838126952823C081D181C20FD11D8C
:1057200068838F5F958189238383ED91FC91359701
:1057300080818062808380E003C081E001C082E0DC
:10574000DF91CF910895EF92FF920F931F93CF9324
:10575000DF937C01009709F441C0DC011296ED91C2
:10576000FC91139793818281981B85819823848172
:10577000891B8617A8F1662341F1842F952FDC0140
:105780006150462F50E04F5F5F4F480F591FE701B0
:10579000EA81FB81938182812581981B92238481F8
:1057A000981779F08C9193812695292360817181D6
:1057B0008B01020F111DE80188839F5F858198236B
:1057C00093831196A417B50711F7D701ED91FC91BA
:1057D000359780818062808380E003C081E001C0D2
:1057E00082E0DF91CF911F910F91FF90EF9008958C
:1057F0000097D1F0DC011496ED91FC9115979381FF
:105800008281981799F09281858186958923A0815C
:10581000B181A80FB11D8C91DB018C939F5F8581B5
:105820009823928380E0089581E0089583E00895AD
:105830001F920F920FB60F9211240BB60F922F9357
:105840003F934F935F936F937F938F939F93AF9308
:10585000BF93CF93DF93EF93FF93A0910F15B09178
:105860001015109711F16091C6001496ED91FC91FE
:105870001597938182812581981B922384819817A3
:1058800061F0838126952823C081D181C20FD11D6B
:1058900068838F5F9581892383831696ED91FC91B0
:1058A0001797309711F0CD011995FF91EF91DF9186
:1058B000CF91BF91AF919F918F917F916F915F91A8
:1058C0004F913F912F910F900BBE0F900FBE0F90F5
:1058D0001F9018951F920F920FB60F9211240BB6BE
:1058E0000F922F938F939F93AF93BF93EF93FF9359
:1058F000E0910F15F09110153097B9F00280F38107
:10590000E02D938182819817B1F092818581282FB3
:1059100026952923A081B181A20FB11D2C919F5FF3
:10592000892382832093C6000BC0E1ECF0E08081E4
:105930008F7D808305C0E1ECF0E080818F7D8083E6
:10594000FF91EF91BF91AF919F918F912F910F9008
:105950000BBE0F900FBE0F901F9018951F920F92C5
:105960000FB60F9211240BB60F922F933F934F93C4
:105970005F936F937F938F939F93AF93BF93CF93D7
:10598000DF93EF93FF93A0911115B091121510972B
:1059900011F16091CE001496ED91FC9115979381D1
:1059A00082812581981B92238481981761F08381DD
:1059B00026952823C081D181C20FD11D68838F5FB6
:1059C0009581892383831696ED91FC9117973097E3
:1059D00011F0CD011995FF91EF91DF91CF91BF911A
:1059E000AF919F918F917F916F915F914F913F9177
:1059F0002F910F900BBE0F900FBE0F901F90189518
:105A00001F920F920FB60F9211240BB60F922F9385
:105A10008F939F93AF93BF93EF93FF93E0911115F3
:105A2000F09112153097B9F00280F381E02D938147
:105A300082819817B1F092818581282F269529239C
:105A4000A081B181A20FB11D2C919F5F8923828318
:105A50002093CE000BC0E9ECF0E080818F7D808345
:105A600005C0E9ECF0E080818F7D8083FF91EF91AC
:105A7000BF91AF919F918F912F910F900BBE0F907F
:105A80000FBE0F901F9018951F920F920FB60F9296
:105A900011240BB60F922F933F934F935F936F9305
:105AA0007F938F939F93AF93BF93CF93DF93EF93A6
:105AB000FF93A0911315B0911415109711F16091F7
:105AC000D6001496ED91FC911597938182812581E2
:105AD000981B92238481981761F08381269528234F
