:1000000090C20000AFC20000ADC20000ABC2000051
:10001000A9C20000A7C20000A5C20000A3C2000040
:10002000A1C200009FC200009DC200009BC2000050
:100030000C940F0C97C2000095C2000093C2000000
:1000400091C200008FC200008DC200008BC2000070
:1000500089C200000C94281C85C2000083C20000E5
:100060000C9449230C942A1F0C947C1F7BC2000023
:1000700079C2000077C2000075C2000073C20000A0
:1000800071C200006FC200006DC200006BC20000B0
:100090000C94C01F0C94122065C200000C94C5245F
:1000A00061C200005FC200005DC200005BC20000D0
:1000B00059C2000057C2000055C2000053C20000E0
:1000C00051C200004FC200004DC200000C945620E7
:1000D0000C94A82047C200000C94EC200C943E2104
:1000E00041C20000070207020702410249025F0203
:1000F0000702070241024902E724572557255725E1
:100100005725572557255725E72457255725572580
:100110005725572557255725E9245725572557256E
:1001200057255725572557255725572557255725EF
:100130005725572557255725E9245725572557254E
:1001400057255725572557255725572557255725CF
:1001500057255725572557255325572557255725C3
:1001600057255725572557251E25572557255725E8
:10017000572557255725572557255725572557259F
:1001800057255725572557251225572557255725D4
:100190005725572557255725362507634236B79BE0
:1001A000D8A71A39685618AEBAAB558C1D3CB7CCD7
:1001B0005763BD6DEDFD753EF6177231BF0000004F
:1001C000803F08000000BE922449123EABAAAA2A32
:1001D000BECDCCCC4C3E00000080BEABAAAAAA3E4D
:1001E00000000000BF000000803F00000000000889
:1001F0004178D3BB4387D1133D190E3CC3BD428226
:10020000AD2B3E68EC8276BED98FE1A93E4C80EFE3
:10021000FFBE01C4FF7F3F000000000007E01EE0BA
:100220000F2EF7E3EF2EFEE0FF2EF02D8091060E4D
:10023000882329F10FB6F8940F92D8011796ED9103
:10024000FC911897C085D185CE0102960E94D00AF4
:100250008091FA0D81508093FA0D8091060E8150A5
:100260008093060E0F900FBE8B8D9C8D0E94450AC9
:10027000CE010E94450A8091060E8111DBCFF70165
:100280008081823010F00E944A0B0E94D518CECF98
:10029000CF93DF93CDB7DEB760970FB6F894DEBF8C
:1002A0000FBECDBFCE0101969A878987812C912CF4
:1002B000A12CB12C69847A84E091B10EF091B20E38
:1002C0008081882309F413C10780F085E02D208008
:1002D0003180428053800E94BB11CE0101960E9462
:1002E0003F186B877C878D879E878981811167C0C6
:1002F0008B859C85AD85BE8582159305A405B505C6
:1003000008F445C00E94FF12E091B10EF091B20EC8
:100310000780F085E02DA085B185B88BAF87CD0132
:1003200002960E94D00AEF85F889868982FF21C053
:100330004685578560897189420D531D641D751D61
:10034000720161010B851C852D853E85CF010E94C0
:100350004F17882399F0C82CD92CEA2CFB2C00E0ED
:1003600010E0A201910160E08F8598890E94E11759
:1003700005C08E7FAF85B88956968C93AF85B889B6
:100380005496ED91FC915597CD011995A1C020E0AF
:10039000B201A1018B859C85AD85BE85481B590B9B
:1003A0006A0B7B0B8091AD0E9091AE0E0E94770F81
:1003B0000E94FF1281118CC00E944A0B89C00E94CA
:1003C000FF1286C0898188230CF482C04E805F8032
:1003D000D2011C968D919C911D97892B21F0C20111
:1003E00002960E94D00ACE0108960E943F188B0107
:1003F0009C01E9810E2E000CFF0BEA30F10508F09C
:1004000067C08827EE58FF4F8F4F0C949627F20154
:1004100086898160868BCA80DB80EC80FD80468582
:100420005785608971894C0D5D1D6E1D7F1DC20150
:100430000E944F17882309F44BC0D2015496ED91C6
:10044000FC915597C2011995F201868982FF40C03F
:100450004A815B816C817D8186859785A089B18980
:100460009A01AB01280F391F4A1F5B1FC82CD92CDA
:10047000EA2CFB2C00E010E060E0C2010E94E117D2
:1004800027C0D20156968C9156978E7F56968C93A4
:100490001FC0F20186898160868B4A815B816C81F5
:1004A0007D8146875787608B718B400F511F621F7C
:1004B000731F68017901C2010E944F1709C0F20140
:1004C000868981FD03C0C201E0D702C08E7F868B82
:1004D000282D392D4A2D5B2D662D772D8091AD0E5F
:1004E0009091AE0E0E941A0E81116CCFE5CE0E9443
:1004F000BB11CE0101960E943F186B877C878D87C8
:100500009E87898181115BCFE091AF0EF091B00E93
:10051000808121E0811120E0282C392C4A2C5B2C91
:1005200037CF11241FBECFEFD1E2DEBFCDBF00E039
:100530000CBF14E0A0E0B2E0E8E1F8E500E00BBF9A
:1005400002C007900D92AA30B107D9F72FE0AAE0B8
:10055000B4E001C01D92A634B207E1F70E941D1954
:100560000C940A2C4DCD0F2EFFE42F2EF2E03F2EDF
:10057000F02DD4E00F2EF0E18F2EF7E29F2EF02D1C
:100580000F2EF6E6AF2EF2E0BF2EF02D8091270F52
:10059000882331F03F922F920E941A290F900F90DA
:1005A0000E94A91D8093270F80912A0F90912B0FF5
:1005B00089D320E030E04AE754E40E94B11A0E9457
:1005C000F7199B01AC01AEE3B0E00E949E2728EE34
:1005D00033E040E050E00E947427CA01B9010E9454
:1005E000E51382B18D2782B98091280F9091290F50
:1005F0000E94D81DC82F082F10E01093290F0093D8
:10060000280F682F70E080E090E00E94231A6B01B1
:100610007C0120E030E44CE156E40E94B11A2B0149
:100620003C01089DB001099D700D189D700D1124AD
:10063000072E000C880B990B0E94251A9B01AC0118
:10064000C301B2010E9425190E94F2197F936F9392
:100650001F92CF93BF92AF920E941A29B701A601B1
:1006600080912A0F90912B0F04D380912A0F9091A3
:100670002B0F74D30F900F900F900F900F900F903F
:1006800085CFEF92FF920F9390932B0F80932A0FB9
:1006900083E792E00E942D29E12CF12C01E021E07A
:1006A00030E040EC50E069E872E083EB92E00E94B9
:1006B00058100F91FF90EF9008950F2EF1E98F2EB3
:1006C000F2E09F2EF02D12E00F2EF5EB2F2EF2E030
:1006D0003F2EF02D0F2EF0E1AF2EF7E2BF2EF02DC2
:1006E000C7EDD2E00E94DC1C882331F09F928F92EC
:1006F0000E941A290F900F9080912C0F90912D0F2E
:10070000A6D320E030E04AEF53E40E94B11A0E94E1
:10071000F7199B01AC01AEE3B0E00E949E2728EEE2
:1007200033E040E050E00E947427CA01B9010E9402
:10073000E51382B1812782B90E94F01C882331F031
:100740003F922F920E941A290F900F9080912C0FA8
:1007500090912D0F7CD320E030E04AEF53E40E94CB
:10076000B11A0E94F7199B01AC01AEE3B0E00E9400
:100770009E2728EE33E040E050E00E947427CA0133
:10078000B9010E94E51382B1812782B90E94001D40
:10079000AB01BC0140930A0450930B0460930C041A
:1007A00070930D0480912C0F90912D0F28D3809180
:1007B0002C0F90912D0F70D30E94F2196B017C01C8
:1007C00080912C0F90912D0F67D32B013C018091CC
:1007D0002C0F90912D0F85D320E030E44CE156E4AE
:1007E000C301B2010E94B11A2B013C01AC9CB001C3
:1007F000AD9C700DBC9C700D1124072E000C880B55
:10080000990B0E94251A9B01AC01C301B2010E9401
:1008100025190E94F2197F936F93DF92CF92DF9395
:10082000CF930E941A290F900F900F900F900F9066
:100830000F9058CFEF92FF920F9390932D0F8093CC
:100840002C0F80EE92E00E942D29E12CF12C01E08A
:1008500021E030E040EC50E06BEF72E08DE593E09A
:100860000E9458100F91FF90EF9008950F2EF4E61C
:100870008F2EF02D0F2EF8EECF2EF3E0DF2EE12C91
:10088000F12CF02D6894992496F86894AA24A5F880
:100890006894BB24B4F882B1805882B9D3D4EC01F7
:1008A000D7D48C01CE01D8D4809EB001819E700D2A
:1008B0001124860F971FBC01990F880B990B0E947A
:1008C000251A20E030E048EC52E40E948A1942E008
:1008D0000E943A1B20E030E04AE754E460912E0F7A
:1008E00070912F0F8091300F9091310F0E94B11AAB
:1008F0000E94F7199B01AC01AEE3B0E00E949E2775
:10090000A70196010E947427CA01B9010E94E5134C
:1009100082B1805882B982B1892582B9E9D37FD367
:1009200042E00E943A1B20E030E04AE754E4609144
:100930002E0F70912F0F8091300F9091310F0E94E8
:10094000B11A0E94F7199B01AC01AEE3B0E00E941E
:100950009E27A70196010E947427CA01B9010E942F
:10096000E51382B1892582B982B18A2582B9C5D3BE
:1009700093D242E00E943A1B20E030E04AE754E480
:1009800060912E0F70912F0F8091300F9091310F49
:100990000E94B11A0E94F7199B01AC01AEE3B0E0CE
:1009A0000E949E27A70196010E947427CA01B901DF
:1009B0000E94E51382B18A2582B982B18B2582B962
:1009C000A1D3A6D142E00E943A1B20E030E04AE7E2
:1009D00054E460912E0F70912F0F8091300F909101
:1009E000310F0E94B11A0E94F7199B01AC01AEE3CE
:1009F000B0E00E949E27A70196010E947427CA01B9
:100A0000B9010E94E51382B18B2582B944CFEF92E0
:100A1000FF920F9360932E0F70932F0F8093300FE0
:100A20009093310F80E090E00E94EB1B0E94E01B4E
:100A300089E093E00E942D29E12CF12C01E021E0D6
:100A400030E040EC50E066E273E086E394E00E9420
:100A500058100F91FF90EF9008950F2EF1E98F2E0F
:100A6000F2E09F2EF02D11E00F2EFDE32F2EF3E08C
:100A70003F2EF02D0F2EF0E1AF2EF7E2BF2EF02D1E
:100A8000C2E6D3E00E94DC1C882331F09F928F9253
:100A90000E941A290F900F908091320F9091330F7E
:100AA00099D220E030E04AEF53E40E94B11A0E944C
:100AB000F7199B01AC01AEE3B0E00E949E2728EE3F
:100AC00033E040E050E00E947427CA01B9010E945F
:100AD000E51382B1812782B90E94F01C882331F08E
:100AE0003F922F920E941A290F900F908091320FFF
:100AF0009091330F6FD220E030E04AEF53E40E9430
:100B0000B11A0E94F7199B01AC01AEE3B0E00E945C
:100B10009E2728EE33E040E050E00E947427CA018F
:100B2000B9010E94E51382B1812782B90E94121D8A
:100B3000AB01BC0140930E0450930F04609310046A
:100B4000709311048091320F9091330F1BD28091DA
:100B5000320F9091330F63D20E94F2196B017C0126
:100B60008091320F9091330F5AD22B013C0180912A
:100B7000320F9091330F78D220E030E44CE156E40C
:100B8000C301B2010E94B11A2B013C01AC9CB0011F
:100B9000AD9C700DBC9C700D1124072E000C880BB1
:100BA000990B0E94251A9B01AC01C301B2010E945E
:100BB00025190E94F2197F936F93DF92CF92DF93F2
:100BC000CF930E941A290F900F900F900F900F90C3
:100BD0000F9058CFEF92FF920F939093330F809323
:100BE000320F84E793E00E942D29E12CF12C01E0E3
:100BF00021E030E040EC50E062E973E08DE295E006
:100C00000E9458100F91FF90EF900895CF92DF92BD
:100C1000EF92FF920F93CF93DF936B017C0161E022
:100C200070E08CE090E00E94CB27EC01892BC1F0B2
:100C3000C882D982EA82FB821C821D821E821F82A8
:100C4000C2D29B878A8743E060E081E0FCD6998727
:100C5000888700E020E030E0A90160E070E014D770
:100C6000CE01DF91CF910F91FF90EF90DF90CF9069
:100C70000895CF92DF92EF92FF920F93CF93DF937D
:100C8000EC016A017B014FEF5FEFBA01888599851E
:100C90000E94AF0ECC82DD82EE82FF828A859B8528
:100CA000AAD200E020E030E0A90160E070E0888591
:100CB0009985EAD6DF91CF910F91FF90EF90DF9069
:100CC000CF900895CF92DF92EF92FF920F93CF9340
:100CD000DF93EC014FEF5FEFBA01888599850E94A1
:100CE000AF0EC880D980EA80FB8000E020E030E0D1
:100CF000A90160E070E088859985C6D6C701B60174
:100D0000DF91CF910F91FF90EF90DF90CF900895FA
:100D1000CF92DF92EF92FF920F93CF93DF93EC018C
:100D20004FEF5FEFBA01888599850E94AF0ECC80A6
:100D3000DD80EE80FF8000E020E030E0A90160E08F
:100D400070E088859985A0D6C701B601DF91CF9163
:100D50000F91FF90EF90DF90CF900895EF92FF9268
:100D60000F93CF93DF93EC014FEF5FEFBA018885CC
:100D70009985F5D7EA84FB8400E020E030E0A90102
:100D800060E070E0888599857FD6C701DF91CF91BB
:100D90000F91FF90EF900895CF92DF92EF92FF9224
:100DA0000F93CF93DF936B017C0161E070E08CE0E7
:100DB00090E00E94CB27EC01892BC1F0C882D98238
:100DC000EA82FB821C821D821E821F82FCD19B87CD
:100DD0008A8743E060E081E036D69987888700E023
:100DE00020E030E0A90160E070E04ED6CE01DF9156
:100DF000CF910F91FF90EF90DF90CF900895CF9219
:100E0000DF92EF92FF920F93CF93DF93EC016A0191
:100E10007B014FEF5FEFBA0188859985A0D7CC821F
:100E2000DD82EE82FF828A859B85E5D100E020E0AD
:100E300030E0A90160E070E08885998525D6DF91D2
:100E4000CF910F91FF90EF90DF90CF900895CF92C8
:100E5000DF92EF92FF920F93CF93DF93EC014FEF6E
:100E60005FEFBA01888599857AD7C880D980EA80F2
:100E7000FB8000E020E030E0A90160E070E08885C0
:100E8000998502D6C701B601DF91CF910F91FF90EE
:100E9000EF90DF90CF900895CF92DF92EF92FF9284
:100EA0000F93CF93DF93EC014FEF5FEFBA0188858B
:100EB000998555D7CC80DD80EE80FF8000E020E072
:100EC00030E0A90160E070E088859985DDD5C70133
:100ED000B601DF91CF910F91FF90EF90DF90CF900F
:100EE0000895EF92FF920F93CF93DF93EC014FEFB2
:100EF0005FEFBA018885998532D7EA84FB8400E0E8
:100F000020E030E0A90160E070E088859985BCD5DB
:100F1000C701DF91CF910F91FF90EF900895CF928D
:100F2000DF92EF92FF920F93CF93DF936B017C01DF
:100F300061E070E08CE090E00E94CB27EC01892B0F
:100F4000C1F0C882D982EA82FB821C821D821E8285
:100F50001F8239D19B878A8743E060E081E073D5A7
:100F60009987888700E020E030E0A90160E070E028
:100F70008BD5CE01DF91CF910F91FF90EF90DF9055
:100F8000CF900895CF92DF92EF92FF920F93CF937D
:100F9000DF93EC016A017B014FEF5FEFBA018885B7
:100FA0009985DDD6CC82DD82EE82FF828A859B85A3
:100FB00022D100E020E030E0A90160E070E0888507
:100FC000998562D5DF91CF910F91FF90EF90DF90DF
:100FD000CF900895CF92DF92EF92FF920F93CF932D
:100FE000DF93EC014FEF5FEFBA0188859985B7D6A3
:100FF000C880D980EA80FB8000E020E030E0A901D1
:1010000060E070E0888599853FD5C701B601DF9122
:10101000CF910F91FF90EF90DF90CF900895CF92F6
:10102000DF92EF92FF920F93CF93DF93EC014FEF9C
:101030005FEFBA018885998592D6CC80DD80EE80FD
:10104000FF8000E020E030E0A90160E070E08885EA
:1010500099851AD5C701B601DF91CF910F91FF9005
:10106000EF90DF90CF900895EF92FF920F93CF9380
:10107000DF93EC014FEF5FEFBA01888599856FD65A
:10108000EA84FB8400E020E030E0A90160E070E049
:1010900088859985F9D4C701DF91CF910F91FF9091
:1010A000EF90089560E070E080E09FE3B0DC60E0E6
:1010B00070E080E89FE333DF9093370F8093360F23
:1010C00089DD60E070E080E89FE366DE9093390F91
:1010D0008093380FAFDB60E070E080E89FE396DD3F
:1010E0009093350F8093340FCCDA0C9485110895CA
:1010F0008091360F9091370F08958091380F90911D
:10110000390F08958091340F9091350F08956EE353
:1011100070E080E090E00E94E513E0913A0FF091DA
:101120003B0F82859385019693878287CC977CF3CA
:101130008085918501969187808713861286CC974A
:1011400034F3868197810196978386831186108672
:101150004897ECF217821682DACFEF92FF920F9344
:1011600080913A0F90913B0F892B49F561E070E037
:101170008CE090E00E94CB27FC0190933B0F809382
:101180003A0F892BE1F011821082138212821582AC
:10119000148217821682118610861386128688EAB8
:1011A00093E00E942D29E12CF12C01E021E030E0B8
:1011B00040EC50E062EC73E087E898E079D70F915B
:1011C000FF90EF900895C9DF61E070E08CE090E05F
:1011D0000E94CB27FC01892B61F0118210821382BF
:1011E0001282158214821782168211861086138647
:1011F0001286CF010895CF93DF93EC01AEDFE0912B
:101200003A0FF0913B0F8081918199838883E0911F
:101210003A0FF0913B0F828193819B838A83848173
:1012200095819D838C83868197819F838E83808522
:10123000918599878887828593859B878A87DF91A7
:10124000CF9108958ADF80913A0F90913B0F0895D6
:10125000FC01868197810895FC0180859185089520
:10126000CF93DF93DC01EEE1F4E001C0F9012081CE
:1012700031812A173B07D0F382819381AF01480F58
:10128000591FA417B50749F412964D915C91139715
:10129000840F951F93838283DF0112968D919C9119
:1012A0001397ED01C80FD91F2C173D07D9F42091D2
:1012B0001C0430911D04C217D30781F02A813B81A1
:1012C000820F931F13969C938E931297C081D181A6
:1012D0008881998111969C938E9307C01196DC9317
:1012E000CE9303C011963C932E93AE17BF0711F017
:1012F000B183A083DF91CF910895CF92DF92EF92D7
:10130000FF920F931F93CF93DF93EC010E94BB11C9
:1013100080911C0490911D04892B41F5EEE1F4E0CD
:10132000A2E2B4E0B183A08313821282E2EEFDE078
:10133000F0931D04E0931C04138212821182108228
:1013400080EC99E013969C938E931297ED93FC9307
:10135000909319048093180490931B0480931A04AB
:1013600080E090E89093130480931204E0901204BC
:10137000F0901304C7018C239D23892B09F075C0BD
:10138000209709F475C09E012C5F3F4FC217D30709
:1013900008F06EC02115310509F467C000911A04E8
:1013A00010911B040217130708F45FC0C0911E04BC
:1013B000D0911F04EEE1F4E002C0FE01EC018A814D
:1013C0009B818217930720F4888199810097A9F760
:1013D00080911C0490911D04C817D90709F445C0D9
:1013E000C080D18084E0C80ED11C8881998191830E
:1013F00080834A815B81421B530B4930510548F081
:10140000CE01820F931FFC01538342833B832A83C7
:1014100027DF8A819B81081B190B10931B04009303
:101420001A0420911804309119040217130720F4AC
:101430001093190400931804E82AF92AFB82EA821F
:101440001982188280911604909117040196909346
:101450001704809316040E94FF12C114D10459F49A
:101460000E94DB18C12CD12C06C00E94FF12F8CFBD
:101470000E94FF12F5CFC601DF91CF911F910F910E
:10148000FF90EF90DF90CF900895CF93DF93009778
:1014900091F1FC01349722813381409112045091E3
:1014A0001304B90164237523672B29F160817181CD
:1014B000672B09F5EF01409550952423352333839D
:1014C000228359D720911A0430911B048A819B8171
:1014D000820F931F90931B0480931A04CE01C0DEE9
:1014E00080911404909115040196909315048093B3
:1014F00014040E94FF12DF91CF910895FC0103961E
:10150000928381834FEF5FEFBA01438354836583F6
:101510007683908787839287818710820895FC0164
:101520001386128608950F931F93CF93DF93EB01D9
:10153000088119812A813B810F3F4FEF140724074F
:10154000340721F4FC01A185B28511C0DC0113969A
:1015500001C0DF011496ED91FC91159740815181F6
:1015600062817381041715072607370790F71496D1
:10157000ED91FC911597FD83EC83D783C683BF83E0
:10158000AE831596DC93CE9314979B878A87FC01D4
:1015900020812F5F2083DF91CF911F910F910895BC
:1015A000CF93DF93FC01A285B385C481D581868169
:1015B00097819F838E83C681D781848195819D8306
:1015C0008C8311968D919C911297E817F90731F44D
:1015D0008681978112969C938E931197138612861B
:1015E0008C9181508C938C91DF91CF910895FC0167
:1015F00060833197708331971082319710823197D1
:1016000020E8208331971082319710823197108221
:10161000779740833197508386970895A89590ECEB
:1016200088E10FB6F894A895809360000FBE909360
:101630006000A091A50EB091A60ECD91CDBFDD9119
:10164000DEBFFF91EF91DF91CF91BF91AF919F915D
:101650008F917F916F915F914F913F912F911F914A
:101660000F91FF90EF90DF90CF90BF90AF909F9041
:101670008F907F906F905F904F903F902F901F9032
:101680000F900CBE0F900BBE0F900FBE0F900895E1
:1016900081E008950F920FB6F8940F920BB60F9257
:1016A0000CB60F921F9211242F923F924F925F928D
:1016B0006F927F928F929F92AF92BF92CF92DF9262
:1016C000EF92FF920F931F932F933F934F935F934C
:1016D0006F937F938F939F93AF93BF93CF93DF933A
:1016E000EF93FF93A091A50EB091A60E0DB60D92AB
:1016F0000EB60D920E94FE13A091A50EB091A60EFB
:10170000CD91CDBFDD91DEBFFF91EF91DF91CF9104
:10171000BF91AF919F918F917F916F915F914F9109
:101720003F912F911F910F91FF90EF90DF90CF90FD
:10173000BF90AF909F908F907F906F905F904F90F1
:101740003F902F901F900F900CBE0F900BBE0F90EC
:101750000FBE0F9008950F920FB6F8940F920BB62C
:101760000F920CB60F921F9211242F923F924F921C
:101770005F926F927F928F929F92AF92BF92CF9221
:10178000DF92EF92FF920F931F932F933F934F930C
:101790005F936F937F938F939F93AF93BF93CF93F9
:1017A000DF93EF93FF93A091A50EB091A60E0DB617
:1017B0000D920EB60D9213BEF2D581110E94FE134A
:1017C000A091A50EB091A60ECD91CDBFDD91DEBF4B
:1017D000FF91EF91DF91CF91BF91AF919F918F9149
:1017E0007F916F915F914F913F912F911F910F9139
:1017F000FF90EF90DF90CF90BF90AF909F908F9031
:101800007F906F905F904F903F902F901F900F9020
:101810000CBE0F900BBE0F900FBE0F9008959BDF74
:1018200018950FB6F8940F92FC01968D0F900FBE8D
:1018300081E0911180E008950F931F93CF93DF9380
:10184000EC01042F1E8D48A141110CC088819981A3
:10185000892B09F042C08C819D810E947B161D82DC
:101860001C8242C0011117C050E08A819B810E94F6
:101870000A2928A18A819B81820F911D9B838A83DB
:101880002C813D818217930750F1888199819B8338
:101890008A8380E029C050E08E819F810E940A29BE
:1018A00088A190E09195819591092E813F81280F23
:1018B000391F3F832E83488159812417350730F41F
:1018C0002C813D81820F931F9F838E83023049F4C8
:1018D000112349F0115080E007C080E005C080E08E
:1018E00003C080E001C080E01F5F1E8FDF91CF91B9
:1018F0001F910F910895FC0140A14423A9F050E0ED
:1019000026813781240F351F378326838481958173
:101910002817390720F08081918197838683CB0136
:10192000668177810C940A290895EF92FF920F93B4
:101930001F93CF938C010FB6F8940F92FC01C2A1B4
:101940001C16ACF48389811106C011C0F80183898B
:10195000811105C00CC07801F3E1EF0EF11CC70145
:101960000E94C81481110E94E215C15079F78FEFCF
:10197000F80182A30F900FBE0FB6F8940F92C1A189
:101980001C16A4F48085811106C010C0F801808562
:10199000811105C00BC07801F8E0EF0EF11CC70102
:1019A000F7D781110E94E215C15081F78FEFF8013E
:1019B00081A30F900FBECF911F910F91FF90EF90D9
:1019C0000895CF93DF93EC010FB6F8940F92E8815E
:1019D000F9818F8D28A190E030E0829FA001839F44
:1019E000500D929F500D11244E0F5F1F5D834C834D
:1019F0001E8EFB83EA830197829FA001839F500D77
:101A0000929F500D1124CF01840F951F9F838E83C9
:101A10008FEF89A38AA361110AC08885882369F0A2
:101A2000CE010896B5D7882341F034DE06C0CE013A
:101A3000089664DDCE01439661DD0F900FBE81E014
:101A4000DF91CF9108950F931F93CF93DF93082FCA
:101A5000162F869FC001112483964FDCEC0100975E
:101A600069F0111103C09983888303C08396998319
:101A700088830F8F18A361E0CE01A3DFCE01DF9131
:101A8000CF911F910F9108959F92AF92BF92CF92E5
:101A9000DF92EF92FF920F931F93CF93DF93CDB717
:101AA000DEB729970FB6F894DEBF0FBECDBF7C011D
:101AB0005B012E833F834887598710E099249394D4
:101AC0006C0188E0C80ED11C0FB6F8940F92F70194
:101AD000968D878D981710F00230A9F4402FB5012C
:101AE000C701AADEF7019389992339F0C70143960C
:101AF0004FD7882321F0CEDD02C08111CBDD0F90BE
:101B00000FBE81E04BC08E819F81A885B985892B4E
:101B10008A2B8B2B21F40F900FBE80E03FC0111158
:101B200004C0CE010196E4D7192D0F900FBE23D427
:101B30000FB6F8940F92F70181A18F3F09F411A21B
:101B4000F70182A18F3F09F412A20F900FBEBE01D0
:101B50006A5F7F4FCE010196DCD781111BC00FB6A3
:101B6000F8940F92F701968D878D0F900FBE981302
:101B70000DC04E815F8168857985C601B0D6C701E9
:101B8000D4DE3DD58111A0CF85DD9ECFC701CDDE4E
:101B900036D59ACFC701C9DE32D580E029960FB677
:101BA000F894DEBF0FBECDBFDF91CF911F910F9193
:101BB000FF90EF90DF90CF90BF90AF909F900895EF
:101BC000EF92FF920F931F93CF93DF938A01FC0153
:101BD000568D378D531710F02230F1F4422F7801D3
:101BE000EC011AA18E8DCE0127DE1F3F79F48B897F
:101BF0008823A1F0CE014396CBD6882389F0E11447
:101C0000F10481F081E0F70180830DC0FF24F3949B
:101C1000F10EFAA281E007C080E005C081E003C0B8
:101C200081E001C081E0DF91CF911F910F91FF9082
:101C3000EF9008959F92AF92BF92CF92DF92EF9272
:101C4000FF920F931F93CF93DF93CDB7DEB7299702
:101C50000FB6F894DEBF0FBECDBF8C015B012E83A3
:101C60003F8348875987E12C992493946C0183E141
:101C7000C80ED11C0FB6F8940F92F801F68CFF2015
:101C800091F0B501C80137DEFA94F801F68E80852F
:101C9000882329F0C80108967BD68111FBDC0F90C0
:101CA0000FBE81E04AC08E819F81A885B985892BAE
:101CB0008A2B8B2B21F40F900FBE80E03EC0E110E9
:101CC00004C0CE01019614D7E92C0F900FBE53D358
:101CD0000FB6F8940F92F80181A18F3F09F411A279
:101CE000F80182A18F3F09F412A20F900FBEBE012E
:101CF0006A5F7F4FCE0101960CD7811115C0C801D4
:101D000090DD882369F04E815F8168857985C60101
:101D1000E6D5C8010ADE73D48111ACCFBBDCAACFF3
:101D2000C80103DE6CD4A6CFC801FFDD68D4C801AA
:101D300078DD882309F49ECF80E029960FB6F894C9
:101D4000DEBF0FBECDBFDF91CF911F910F91FF90EE
:101D5000EF90DF90CF90BF90AF909F900895BF928B
:101D6000CF92DF92EF92FF920F931F93CF93DF9367
:101D7000CDB7DEB729970FB6F894DEBF0FBECDBF43
:101D80008C014E835F8368877987B12CD12CCC245A
:101D9000C3947C0183E1E80EF11C0FB6F8940F9216
:101DA000D8015E968C915E978823D9F081505E961B
:101DB0008C935E978D919C91892B29F40E943D17FD
:101DC000F80195838483D80118968C91882329F093
:101DD000C8010896DDD581115DDC0F900FBE81E052
:101DE00076C08E819F81A885B985892B8A2B8B2B04
:101DF00021F40F900FBE80E06AC0D11004C0CE0164
:101E0000019676D6DC2C0F900FBEB5D20FB6F894A3
:101E10000F92F80181A18F3F09F411A2D801929687
:101E20008C9192978F3F11F492961C920F900FBE57
:101E3000BE016A5F7F4FCE0101966BD6811123C030
:101E4000C801EFDC8823D9F0F80180819181892BCA
:101E500049F40FB6F8940F9284819581C5D6B82EB7
:101E60000F900FBE4E815F8168857985C70137D598
:101E7000C8015BDDC4D3811190CF0CDC8ECFC801CB
:101E800054DDBDD38ACFC80150DDB9D3C801C9DC48
:101E9000882309F482CFBB20C9F00FB6F8940F92C3
:101EA000F8018389882339F0028CF38DE02D80813D
:101EB0006AE0681B01C060E0D80114968D919C9186
:101EC000159774D70F900FBE80E001C080E029966F
:101ED0000FB6F894DEBF0FBECDBFDF91CF911F913B
:101EE0000F91FF90EF90DF90CF90BF900895CF9328
:101EF000DF93EC010FB6F8940F9289A18F3F09F49C
:101F000019A28AA18F3F09F41AA20F900FBE8E8DDD
:101F1000811103C0CE014396F9D4CE0106DDDF91D5
:101F2000CF910895E0911F0EF091200E80818111D4
:101F30000CC08FEF9FEFDC018093E90D9093EA0DC9
:101F4000A093EB0DB093EC0D0895E0911F0EF0916E
:101F5000200E0780F085E02D80819181A281B381E0
:101F60008093E90D9093EA0DA093EB0DB093EC0DE7
:101F700008958F929F92AF92BF92CF92DF92EF928D
:101F8000FF92CF93DF936B017C01C42F8090F60DFD
:101F90009090F70DA090F80DB090F90D8091A50EDE
:101FA0009091A60E0296FCDA8FEFC816D806E806C6
:101FB000F806B1F5CC23A1F1EBEFFDE0A181B281F0
:101FC000C091A50ED091A60EBF83AE83C091A50E81
:101FD000D091A60E16968D919C9117979987888718
:101FE0001696CD91DC9117978091A50E9091A60E33
:101FF00002969D838C838091A50E9091A60E0296E9
:1020000017969C938E931697A091A50EB091A60E4D
:102010001D96FC93EE931C9780818F5F80833DC05B
:10202000C80CD91CEA1CFB1CE091A50EF091A60E71
:10203000C282D382E482F582C814D904EA04FB0484
:1020400060F46091A50E7091A60E80911D0E909186
:102050001E0E6E5F7F4F67DA20C06091A50E7091F3
:10206000A60E80911F0E9091200E6E5F7F4F5BDA5F
:102070008091E90D9091EA0DA091EB0DB091EC0DDE
:10208000C816D906EA06FB0640F4C092E90DD092C4
:10209000EA0DE092EB0DF092EC0DDF91CF91FF9005
:1020A000EF90DF90CF90BF90AF909F908F9008956A
:1020B0004F925F926F927F928F929F92AF92BF9258
:1020C000CF92DF92EF92FF920F931F93CF93DF9304
:1020D0004C016B015A012901CA010FD93C01892B1E
:1020E00009F401C184E390E008D9EC01892B99F04F
:1020F0007C8E6B8EA50165EA70E0C3010E941329F6
:1021000081E0A81AB1088B8D9C8DA80EB91EC11450
:10211000D10421F41FC0C301B8D9E5C0D6018C9108
:102120008D8F8C918823A1F0AE01425E5F4FF60146
:102130003196B0E1CB0ED11CCF012191DA012D9364
:10214000AD01DC018C91882319F0CE16DF06A1F7D2
:102150001CA601C01D8E0A3008F009E00A8F0DA7E9
:102160001EA66E01B2E0CB0ED11CC601D8D9CE019D
:102170000E96D5D9DB87CA878AE090E0A0E0B0E070
:10218000801B9109A109B1098E879F87A88BB98B04
:10219000DF8BCE8B84E0FE01BF96DF011D928A9516
:1021A000E9F71BAAA201B401C50121DA998388834A
:1021B000E114F10419F0F701D183C0830FB6F8944C
:1021C0000F928091FA0D8F5F8093FA0D8091A50E8A
:1021D0009091A60E892BA1F5D093A60EC093A50EC3
:1021E0008091FA0D813009F03BC007E31EE00F2E0D
:1021F000F5EAEF2EFEE0FF2EF02DC8017FD9055F36
:102200001F4F0E151F05C9F78CE29EE077D981E2BA
:102210009EE074D982E19EE071D987E09EE06ED99C
:102220008BEF9DE06BD98CE29EE09093200E809323
:102230001F0E81E29EE090931E0E80931D0E10C033
:102240008091F40D81110CC0E091A50EF091A60EC5
:10225000928D8A8D891720F0D093A60EC093A50E7B
:102260008091ED0D8F5F8093ED0DEA8D8091F50DDE
:102270008E1710F4E093F50D8BE08E9FF001112482
:10228000E95CF14F0180F281E02DFF83EE8326812E
:10229000378139872887A681B7811596DC92CE923F
:1022A0001497D782C682EA8D8E9FF0011124E95CD3
:1022B000F14FFD87EC8780818F5F80830F900FBE89
:1022C0008091F40D882359F0E091A50EF091A60EAF
:1022D000928D8A8D981728F4DDD981E005C081E0C0
:1022E00003C081E001C08FEFDF91CF911F910F916B
:1022F000FF90EF90DF90CF90BF90AF909F908F9026
:102300007F906F905F904F900895EF92FF920F93A0
:102310000F2EF7EEEF2EFDE0FF2EF02D00E020E077
:1023200030E040EC50E063ED73E08EE091E0C0DE21
:102330008130D9F426D68130C1F4F8948FEF9FEF25
:10234000DC018093E90D9093EA0DA093EB0DB0931F
:10235000EC0D81E08093F40D1092F60D1092F70DC4
:102360001092F80D1092F90D59D9809106020F9133
:10237000FF90EF9008958091E60D8F5F8093E60DBA
:1023800008950FB6F8940F926091F60D7091F70DC5
:102390008091F80D9091F90D0F900FBE0895CF9296
:1023A000DF92EF92FF920F931F93CF93DF93809171
:1023B000E60D811107C1C090F60DD090F70DE090A9
:1023C000F80DF090F90D8FEFC81AD80AE80AF80A4C
:1023D000C092F60DD092F70DE092F80DF092F90D43
:1023E000C114D104E104F104B1F480911F0E909165
:1023F000200E20911D0E30911E0E3093200E209342
:102400001F0E90931E0E80931D0E8091EE0D8F5F18
:102410008093EE0D87DD8091E90D9091EA0DA091FA
:10242000EB0DB091EC0DC816D906EA06FB0610F4C8
:1024300080E0B3C080E04BE051E0E0911F0EF091EE
:10244000200E908191110CC04FEF5FEFBA014093C5
:10245000E90D5093EA0D6093EB0D7093EC0D9DC068
:10246000E0911F0EF091200E0780F085E02D008492
:10247000F185E02D0281138124813581C016D106BA
:10248000E206F30648F40093E90D1093EA0D209359
:10249000EB0D3093EC0D81C0A485B585C681D78145
:1024A000208531853F832E83C085D1852681378164
:1024B0003D832C839F012E5F3F4F11966D917C9140
:1024C00012976217730731F46085718512967C93B9
:1024D0006E931197158614869C9191509C93A08DB4
:1024E000B18D109709F1C289D389648975897F8379
:1024F0006E83C489D589628973897D836C831196C3
:10250000CD91DC911297BF01625F7F4FC617D7074D
:1025100031F46489758912967C936E931197118EAC
:10252000108E9C9191509C93A28D9091F50D9A17CD
:1025300010F4A093F50D4A9FD0011124A95CB14F6E
:1025400011960D90BC91A02DB783A68316966D9120
:102550007C911797718760871696CD91DC911797BC
:102560003D832C8317963C932E931697A28D4A9FFA
:10257000D0011124A95CB14FB587A4879C919F5FBE
:102580009C93A091A50EB091A60E228D5A969C9177
:10259000291708F452CF852F50CFE091A50EF09166
:1025A000A60EE28D9BE0E99FF0011124E95CF14F5A
:1025B0009081923008F081E09091EF0D9923B1F075
:1025C00081E014C08091F00D9091F10DA091F20D79
:1025D000B091F30D0196A11DB11D8093F00D909364
:1025E000F10DA093F20DB093F30D80E0DF91CF9148
:1025F0001F910F91FF90EF90DF90CF900895CF92B1
:10260000DF92EF92FF920F931F93CF93DF930FB65A
:10261000F8940F928091E60D81508093E60D8091A1
:10262000E60D8111C4C08091FA0D81118BC0C2C02A
:10263000D8011796ED91FC9118970084F185E02D53
:10264000A08DB18D8289938964897589EC017F831E
:102650006E838489958962897389EC017D836C839B
:10266000CF010E9611966D917C911297681779079C
:1026700031F48489958912969C938E931197118ECB
:10268000108E8C9181508C93A485B585868197811D
:1026900060857185EC017F836E838085918566817D
:1026A0007781EC017D836C83CF01029611966D9149
:1026B0007C9112976817790731F4608571851296BD
:1026C0007C936E931197158614862C9121502C9330
:1026D000A28D2091F50D2A1710F4A093F50D3A9FC5
:1026E000D0011124A95CB14F11960D90BC91A02D81
:1026F000B783A68316966D917C9117977187608733
:1027000016966D917C911797EB019D838C8317969C
:102710009C938E931697A28D3A9FD0011124A95CA9
:10272000B14FB587A4878C918F5F8C93A091A50E34
:10273000B091A60E928D5A968C91981748F04093BE
:10274000EF0D06C0E0E0F0E002E11EE03BE041E01A
:10275000D8018C9181116CCFEF2B09F0E3DBC09095
:10276000F00DD090F10DE090F20DF090F30DC1144A
:10277000D104E104F10499F0C1E011DE8111C093AC
:10278000EF0DB1E0CB1AD108E108F108B1F71092D2
:10279000F00D1092F10D1092F20D1092F30D809148
:1027A000EF0D882331F00E944A0B81E003C080E0E6
:1027B00001C080E00F900FBEDF91CF911F910F916C
:1027C000FF90EF90DF90CF900895CF92DF92EF923D
:1027D000FF926B017C01672B682B692B41F0CBDDED
:1027E00040E0C701B601C5DB0ADF811102C00E94CB
:1027F0004A0BFF90EF90DF90CF9008958091E60D07
:10280000882321F081E08093EF0D08951092EF0D61
:10281000A091A50EB091A60EE091A50EF091A60E86
:102820002D913C91838D948D8217930758F0609180
:10283000A50E7091A60E8091A50E9091A60E635ED6
:102840007F4FC5D48091F50D282F30E09BE0899F04
:10285000F0011124E95CF14F908191110EC04BE021
:102860008150282F30E0429FF001439FF00D11244A
:10287000E95CF14F9081992399F39BE0929FA0012D
:10288000939F500D1124DA01A95CB14F1196ED917F
:10289000FC9112970480F581E02D1296FC93EE9343
:1028A0001197465C514FE417F50729F4448155818F
:1028B000FD01528341839BE0929FF001939FF00DB5
:1028C0001124E95CF14F0180F281E02D20853185F2
:1028D0003093A60E2093A50E8093F50D0895CF9208
:1028E000DF92EF92FF926A017B016091A50E7091D9
:1028F000A60E625F7F4F0E94930A41E0C701B601B6
:1029000038DBFF90EF90DF90CF900895CF93DF9367
:10291000FC01CB01BA01A181B281C091A50ED09179
:10292000A60EBB8BAA8BC091A50ED091A60E1696B3
:102930004D915C9117975D8B4C8B1696CD91DC91E8
:1029400017974091A50E5091A60E425F5F4F5D8391
:102950004C834091A50E5091A60E425F5F4F179693
:102960005C934E931697A091A50EB091A60E599622
:10297000FC93EE93589730813F5F3083222319F008
:102980006FEF7FEFCB01422FF4DADF91CF91089503
:10299000CF93DF93DC011796ED91FC91189700849B
:1029A000F185E02DA08DB18DC289D3898489958967
:1029B0009F838E83C489D589828993899D838C83E3
:1029C0009F01225F3F4F11968D919C911297821724
:1029D000930731F48489958912969C938E9311976D
:1029E000118E108E8C9181508C938091E60D811107
:1029F00052C0A485B585C681D781808591859F8386
:102A00008E83C085D185868197819D838C839F012C
:102A10002E5F3F4F11968D919C91129782179307CD
:102A200031F48085918512969C938E93119715862B
:102A300014868C9181508C93A28D8091F50D8A170C
:102A400010F4A093F50D8BE08A9FD0011124A95CAE
:102A5000B14F11960D90BC91A02DB783A683169609
:102A60004D915C911797518740871696CD91DC91D7
:102A700017973D832C8317963C932E931697A28D20
:102A80008A9FD0011124A95CB14FB587A4878C918E
:102A90008F5F8C931CC042E15EE0DA011196CD910C
:102AA000DC911297D38BC28B8E819F81958B848B07
:102AB0008E819F81DC0115963C932E9314973F8362
:102AC0002E83518F408FDA018C918F5F8C93A09170
:102AD000A50EB091A60E928D5A968C91891720F46E
:102AE00081E08093EF0D01C080E0DF91CF910895E8
:102AF0002091EE0DFC0120834091F60D5091F70DD1
:102B00006091F80D7091F90D418352836383748352
:102B10000895CF92DF92EF92FF920F931F93CF937E
:102B2000DF93FB010FB6F8940F924091F60D509190
:102B3000F70D6091F80D7091F90D008111812281DE
:102B400033810F3FAFEF1A072A073A0779F1EC01FB
:102B5000C980DA80EB80FC80A091EE0DB881BA17B5
:102B600059F04C155D056E057F0530F0108211821D
:102B70001282138281E01BC04C195D096E097F0926
:102B8000401751076207730758F4041B150B260BF7
:102B9000370B0083118322833383AADF80E007C0D1
:102BA000108211821282138281E001C080E00F90B6
:102BB0000FBEDF91CF911F910F91FF90EF90DF90AB
:102BC000CF90089581E08093EF0D08958091F40DEA
:102BD000882331F08091E60D882321F080E008956C
:102BE00081E0089582E008950F931F93CF93DF93C0
:102BF000FC01892B09F479C0828DA091A50EB091BA
:102C0000A60E5A969C91891708F063C04685578591
:102C100060897189772394F0A091A50EB091A60EDA
:102C20005A969C914AE050E060E070E0491B5109DF
:102C30006109710946875787608B718B2BE0829FF2
:102C4000C0011124895C914F2485358528173907E7
:102C5000B9F5EF018F010E5F1F4FC8010E94D00A26
:102C6000E091A50EF091A60EE28DEA8F8091F50D10
:102C70008E1710F4E093F50D8BE08E9FF001112478
:102C8000E95CF14F0180F281E02DFF83EE83268124
:102C9000378139872887A681B78115961C930E93B3
:102CA000149717830683EA8D8E9FF0011124E95C47
:102CB000F14FFD87EC8780818F5F808381E016C0B4
:102CC000A091A50EB091A60E5A968C91828F81E0AC
:102CD0000DC0A091A50EB091A60E81E025A55A9633
:102CE0009C91291718F080E001C080E0DF91CF911E
:102CF0001F910F9108950F931F93CF93DF93FC01C2
:102D0000892B09F449C086A5815086A7228D95A5F7
:102D1000291709F443C0811143C0EF018F010E5FF1
:102D20001F4FC8010E94D00AEDA5EA8F8AE090E00B
:102D3000A0E0B0E08E1B9109A109B1098E879F87A1
:102D4000A88BB98B8091F50D8E1710F4E093F50DDB
:102D50008BE08E9FF0011124E95CF14F0180F2813C
:102D6000E02DFF83EE832681378139872887A6816E
:102D7000B78115961C930E93149717830683EA8DDB
:102D80008E9FF0011124E95CF14FFD87EC87808173
:102D90008F5F808381E005C080E003C080E001C0D8
:102DA00080E0DF91CF911F910F9108950F931F93B2
:102DB000CF93DF93FC01892B09F45AC085A58617B0
:102DC00008F4862F928D981709F452C026A5213059
:102DD00009F04EC0828F46855785608971897723B7
:102DE00064F04AE050E060E070E0481B510961097E
:102DF000710946875787608B718B2BE0929FC001CA
:102E00001124895C914F248535852817390781F570
:102E1000EF018F010E5F1F4FC8010E94D00AEA8D9B
:102E20008091F50D8E1710F4E093F50D8BE08E9FD9
:102E3000F0011124E95CF14F0180F281E02DFF8364
:102E4000EE832681378139872887A681B781159639
:102E50001C930E93149717830683EA8D8E9FF001BF
:102E60001124E95CF14FFD87EC8780818F5F8083BF
:102E7000DF91CF911F910F9108958091A50E9091B0
:102E8000A60E892B39F0E091A50EF091A60E86A52D
:102E90008F5F86A78091A50E9091A60E0895CF9280
:102EA000DF92EF92FF920F931F93FC0142835383B3
:102EB000648375839387828704171507260737076E
:102EC000C0F00C191D092E093F0986859785A08938
:102ED000B189081719072A073B0700F5BF016E5F84
:102EE0007F4F8091AF0E9091B00E0E94930A80E0C8
:102EF00018C00C151D052E053F0528F44C155D0561
:102F00006E057F0568F4BF016E5F7F4F8091B10E43
:102F10009091B20E0E94930A80E003C081E001C04C
:102F200081E01F910F91FF90EF90DF90CF90089577
:102F30000FB6F8940F928091AD0E9091AE0E892B42
:102F4000E9F48EEB9EE00E947E0A83EB9EE00E94F5
:102F50007E0A8EEB9EE09093B20E8093B10E83EBCF
:102F60009EE09093B00E8093AF0E40E067E08AE061
:102F70000E94230D9093AE0E8093AD0E0F900FBE66
:102F80000895EF92FF920F93D3DF8091AD0E909151
:102F9000AE0E892B89F00F2EFBEAEF2EFEE0FF2EFE
:102FA000F02D03E020E030E040EC50E068ED73E00D
:102FB00088E491E07DD801C080E00F91FF90EF9010
:102FC00008958F929F92AF92BF92CF92DF92EF922D
:102FD000FF920F931F93CF93DF93CDB7DEB7279761
:102FE0000FB6F894DEBF0FBECDBFE091AD0EF091ED
:102FF000AE0E309781F169832A833B834C835D83D6
:103000009F838E836630F4F4E1DD823069F400E062
:10301000A7019601BE016F5F7F4F8091AD0E909129
:10302000AE0E0E94440D18C000E020E030E0A9017F
:10303000BE016F5F7F4F8091AD0E9091AE0E0E94EA
:10304000440D0AC020E0A801BE016F5F7F4FCF0191
:103050000E94E00D01C080E027960FB6F894DEBF15
:103060000FBECDBFDF91CF911F910F91FF90EF90D9
:10307000DF90CF90BF90AF909F908F9008952F9248
:103080003F924F925F926F927F928F929F92AF92F8
:10309000BF92CF92DF92EF92FF920F931F93CF9345
:1030A000DF931C016ED92B013C018091A70E9091FA
:1030B000A80EA091A90EB091AA0E481659066A064C
:1030C0007B0608F053C03BC00780F085E02D808070
:1030D0009180A280B380C085D1858E010E5F1F4F85
:1030E000C8010E94D00AEC89FD89CE0119958E890C
:1030F00082FF25C08E859F85A889B989880D991D75
:10310000AA1DBB1D88169906AA06BB0670F48A8301
:103110009B83AC83BD83DB87CA87B8018091B10EE6
:103120009091B20E0E94930A0AC0C12CD12C760154
:1031300000E010E0A501940160E0CE0142DFE091E3
:10314000B10EF091B20E80818111BECF8091AF0E91
:103150009091B00E9093B20E8093B10EF093B00E9A
:10316000E093AF0E81E0F101808302C0F101108293
:103170004092A70E5092A80E6092A90E7092AA0ECD
:10318000C301B201DF91CF911F910F91FF90EF909A
:10319000DF90CF90BF90AF909F908F907F906F9077
:1031A0005F904F903F902F9008950895279A2F9AFF
:1031B00008951F9A0895FADF2FEF80E792E02150DB
:1031C00080409040E1F700C00000F3DFF5CFEEDF74
:1031D0002FEF87EA91E6215080409040E1F700C050
:1031E0000000E7DFF5CF81B18FEF81B992B181E0C7
:1031F000892782B992B182E0892782B992B184E0AD
:10320000892782B992B188E0892782B992B180E199
:10321000892782B992B180E2892782B992B180E48C
:10322000892782B982B1805882B980E00E94A021AA
:1032300083E090E069D4A9C30895D5DF80EE93E0E0
:103240000E942D290E945208FFCF5058BB27AA2761
:103250000ED04DC13ED130F043D120F031F49F3F2C
:1032600011F41EF433C10EF4E095E7FB29C1E92FF8
:103270004FD180F3BA17620773078407950718F0D8
:1032800071F49EF567C10EF4E0950B2EBA2FA02DB8
:103290000B01B90190010C01CA01A0011124FF2703
:1032A000591B99F0593F50F4503E68F11A16F040FE
:1032B000A22F232F342F4427585FF3CF46953795FD
:1032C0002795A795F0405395C9F77EF41F16BA0BC2
:1032D000620B730B840BBAF09150A1F0FF0FBB1F70
:1032E000661F771F881FC2F70EC0BA0F621F731FB9
:1032F000841F48F4879577956795B795F7959E3F16
:1033000008F0B3CF9395880F08F09927EE0F9795A3
:10331000879508950CD0EBC0E3D040F0DAD030F0C0
:1033200021F45F3F19F0CCC0511115C1CFC0F0D0CE
:1033300098F39923C9F35523B1F3951B550BBB277C
:10334000AA2762177307840738F09F5F5F4F220F29
:10335000331F441FAA1FA9F333D00E2E3AF0E0E822
:1033600030D091505040E695001CCAF729D0FE2F6E
:1033700027D0660F771F881FBB1F26173707480700
:10338000AB07B0E809F0BB0B802DBF01FF279358B6
:103390005F4F2AF09E3F510568F092C0DCC05F3F4E
:1033A000ECF3983EDCF3869577956795B795F7959E
:1033B0009F5FC9F7880F911D9695879597F9089596
:1033C000E1E0660F771F881FBB1F62177307840732
:1033D000BA0720F0621B730B840BBA0BEE1F88F741
:1033E000E095089504D06894B111B5C0089598D0BF
:1033F00088F09F5790F0B92F9927B751A0F0D1F0DE
:10340000660F771F881F991F1AF0BA95C9F712C067
:10341000B13081F09FD0B1E008959CC0672F782F24
:103420008827B85F39F0B93FCCF3869577956795D3
:10343000B395D9F73EF490958095709561957F4F3F
:103440008F4F9F4F0895E89409C097FB3EF49095E5
:103450008095709561957F4F8F4F9F4F9923A9F06D
:10346000F92F96E9BB279395F695879577956795FC
:10347000B795F111F8CFFAF4BB0F11F460FF1BC040
:103480006F5F7F4F8F4F9F4F16C0882311F096E9D3
:1034900011C0772321F09EE8872F762F05C0662381
:1034A00071F096E8862F70E060E02AF09A95660F3A
:1034B000771F881FDAF7880F9695879597F90895F3
:1034C00097F99F6780E870E060E008959FEF80ECD7
:1034D000089500240A94161617061806090608957A
:1034E00000240A9412161306140605060895092EE0
:1034F0000394000C11F4882352F0BB0F40F4BF2B4F
:1035000011F460FF04C06F5F7F4F8F4F9F4F08958E
:1035100057FD9058440F551F59F05F3F71F0479584
:10352000880F97FB991F61F09F3F79F08795089569
:10353000121613061406551FF2CF4695F1DF08C088
:10354000161617061806991FF1CF869571056105A5
:1035500008940895E894BB2766277727CB0197F94D
:1035600008950BD0C4CFB5DF28F0BADF18F095234B
:1035700009F0A6CFABCF1124EECFCADFA0F3959F01
:10358000D1F3950F50E0551F629FF001729FBB274A
:10359000F00DB11D639FAA27F00DB11DAA1F649FF6
:1035A0006627B00DA11D661F829F2227B00DA11DA9
:1035B000621F739FB00DA11D621F839FA00D611D2F
:1035C000221F749F3327A00D611D231F849F600D50
:1035D000211D822F762F6A2F11249F5750408AF089
:1035E000E1F088234AF0EE0FFF1FBB1F661F771F15
:1035F000881F91505040A9F79E3F510570F060CF51
:10360000AACF5F3FECF3983EDCF3869577956795FC
:10361000B795F795E7959F5FC1F7FE2B880F911D32
:103620009695879597F9089581B38F6081BB289807
:10363000289A21B381E090E00090F90E02C0880F33
:10364000991F0A94E2F78095822381BBE091C90E0D
:10365000F091CA0E309709F0199508959FB7F89424
:10366000E5EFFEE010828EE981838AE08283838326
:103670009FBF0895BF92CF92DF92EF92FF920F9378
:103680001F93CF93DF936B017C01B42E1092CC0E6D
:1036900083E0841778F1642F70E080E090E0D3DE5F
:1036A0009B01AC0160E070E080E291E40E94F325B0
:1036B000A701960156DF20E030E040E05FE3C6DD81
:1036C0000E949E258FDEAB01772364F444275527A3
:1036D000461B570B21E0483E83E058070CF420E0DE
:1036E00011E00CC021E0403187E258070CF420E0E3
:1036F00010E004C040E050E021E010E00FB7F89483
:10370000222311F0ABDF51C0C9EFDEE00F2EF5EF41
:10371000CF2EFEE0DF2EF02D0F2EFAE0EF2EF12C53
:10372000F02DCA01B7010E946127FC01ED50FC4F4A
:1037300080818A93462F572FCC15DD0591F743E002
:1037400050E04B19510914161506F4F48091F50E4A
:103750008C3F49F060E019C0FC01EB50F14F308123
:103760003C3F21F012C080E090E020E0FC01EB50F3
:10377000F14F1082622F2F5F822F022E000C990BC7
:10378000841795074CF301C060E0112331F0E62F58
:10379000F0E0EB50F14F82E08083BB2031F0FA0182
:1037A000EB50F14F8081816080830FBFDF91CF911B
:1037B0001F910F91FF90EF90DF90CF90BF900895F1
:1037C00085B5856085BD089585B5887F85BD81B344
:1037D0008F6081BB08958F92AF92CF92EF920F933B
:1037E0001F93CF93DF93EC0180B38F6080BB81B3D5
:1037F0008F6081BB209A84E19BE19F938F93812C02
:10380000A12CC12CE12C00E010E020E240E063E0BC
:1038100080E1F8D59093FB0E8093FA0E89E187BD85
:1038200084B5826084BDEEE6F0E0808182608083B2
:10383000CBDFD093CA0EC093C90E0F900F90DF91CB
:10384000CF911F910F91EF90CF90AF908F900895EF
:103850001F920F920FB60F9211240BB60F922F9357
:103860003F934F935F936F937F938F939F93AF9308
:10387000BF93EF93FF938091CC0E882369F1209141
:10388000CD0E3091CE0E253F91E0390738F42F5FF1
:103890003F4F3093CE0E2093CD0E1EC01092CE0E11
:1038A0001092CD0EE091CB0E2E2F30E090E00497D9
:1038B0002817390714F4EF5F01C0E0E0E093CB0E66
:1038C000F0E0E153F14FA5EFBEE029EF3EE081913A
:1038D0008D93A217B307D9F78091F90E90E0019666
:1038E00083709078992324F401978C6F9F6F0196D1
:1038F0008093F90E9927FC01EB50F14F60816095A0
:103900008091FA0E9091FB0E4FD6FF91EF91BF91EF
:10391000AF919F918F917F916F915F914F913F9167
:103920002F910F900BBE0F900FBE0F901F90189508
:103930006530F1F4FA0180818F7390E0982F882729
:103940002181822B90930A02809309028281F0E404
:103950008F9FC0011124FA01238126952695822B81
:10396000909308028093070281E08093FC0E0895F3
:10397000643051F080E090E4909308028093070255
:1039800090930A028093090208950F931F9308E908
:103990001CE120E034E244EF50E060E087E225D70C
:1039A0009093FE0E8093FD0E21E0892B09F020E01C
:1039B000822F1F910F9108958091FD0E9091FE0E20
:1039C000009751F040E060E070E060D7843031F45F
:1039D0001092FC0E80E0089582E0089583E008953F
:1039E0008091FD0E9091FE0E009731F064E09AD721
:1039F000853021F083E0089582E0089580E0089505
:103A00006091090270910A0280E090E01CDD20E0E4
:103A100030E048EC52E4A5DD20E038EF4FE756E413
:103A200079CC0895609107027091080280E090E0DF
:103A30000ADD20E030E045E253E493DD20E038EF9A
:103A40004FE756E467DC20E030E040E252E4FDCB93
:103A500008958091020F860F8093020F9091050FB9
:103A6000913079F028F09230A9F0933019F108954F
:103A70006F3F09F048C01092020F81E08093050F5C
:103A80000895663809F03FC01092010F82E08093DC
:103A9000050F0895E091010F81E08E0F8093010FD3
:103AA000F0E0E150F14F6083823069F583E080936C
:103AB000050F08959091010F21E0290F2093010F28
:103AC000963009F581110EC0EFEFFEE0808190E0A5
:103AD000982F88272181820F911D9093070F809343
:103AE000060F04C01092070F1092060F1092050FD8
:103AF000E091030FF091040F309729F08091060FA9
:103B00009091070F199508958F929F92AF92CF923F
:103B1000EF920F930F2EF9E28F2EFDE19F2EF02DE5
:103B20006894AA24A4F86894CC24C4F8E12C00E09A
:103B300023E040E855E260E070E04BD09093090F3D
:103B40008093080F0F91EF90CF90AF909F908F9040
:103B50000895CF93DF93CDB7DEB729970FB6F894CA
:103B6000DEBF0FBECDBF89E0E2E2F2E09E012F5F33
:103B70003F4FD90101900D928A95E1F71092070FFE
:103B80001092060F8091080F9091090F009731F065
:103B9000422F532F69E0E9D080E001C082E02996EE
:103BA0000FB6F894DEBF0FBECDBFDF91CF91089561
:103BB0002091060F3091070F2115310529F4FC01E2
:103BC0001182108281E00895FC013183208380E01E
:103BD00008952F923F924F925F926F927F928F92B1
:103BE0009F92AF92CF92EF92FF920F931F93CF933A
:103BF000DF93CDB7DEB7F82E2A013B0188E090E0D5
:103C00000E94E5278C018F2D90E0FC01EE0FFF1F35
:103C1000E65FF04F118300830115110509F468C0B8
:103C2000880F991FFC01E55FFD4F80819181D801CC
:103C30008D939C936C2D70E084E090E00E94CB27E4
:103C40001C0161E070E086E090E00E94CB277C01DF
:103C50004C2DB10157D7F801F582E4826A2D70E04E
:103C600084E090E00E94CB271C0161E070E086E0D8
:103C700090E00E94CB277C014A2DB10143D7D801A7
:103C80001396FC92EE92129717969C928E9216972C
:103C9000FFB6F894ED91FC91119736978081826080
:103CA00080838D909C90C301B201CDDB20E030E099
:103CB00040E051E456DC9B01AC0160E074E284E733
:103CC0009BE428DB20E030E040E85FE3BEDA8FDBF6
:103CD000F40132976083D801ED91FC9111973597EB
:103CE00088E98083ED91FC91349786E08083FFBE64
:103CF000C801DF91CF911F910F91FF90EF90CF906E
:103D0000AF909F908F907F906F905F904F903F907B
:103D10002F900895CF93DF93DC01892B01F1129648
:103D2000ED91FC911397938182812581981B9223B9
:103D300084819817B1F0838126952823C081D18191
:103D4000C20FD11D68838F5F958189238383ED9195
:103D5000FC91359780818062808380E003C081E0A0
:103D600001C082E0DF91CF910895EF92FF920F930F
:103D70001F93CF93DF937C01009709F441C0DC01CE
:103D80001296ED91FC91139793818281981B858106
:103D900098238481891B8617A8F1662341F1842F1B
:103DA000952FDC016150462F50E04F5F5F4F480F69
:103DB000591FE701EA81FB81938182812581981B4C
:103DC00092238481981779F08C91938126952923E9
:103DD000608171818B01020F111DE80188839F5F53
:103DE0008581982393831196A417B50711F7D701FE
:103DF000ED91FC91359780818062808380E003C0E3
:103E000081E001C082E0DF91CF911F910F91FF907F
:103E1000EF9008950097D1F0DC011496ED91FC919C
:103E2000159793818281981799F092818581869563
:103E30008923A081B181A80FB11D8C91DB018C93E6
:103E40009F5F85819823928380E0089581E00895A3
:103E500083E008951F920F920FB60F9211240BB6B4
:103E60000F922F933F934F935F936F937F938F9313
:103E70009F93AF93BF93CF93DF93EF93FF93A09163
:103E80000A0FB0910B0F109711F16091C6001496B4
:103E9000ED91FC911597938182812581981B922346
:103EA0008481981761F0838126952823C081D18170
:103EB000C20FD11D68838F5F9581892383831696F6
:103EC000ED91FC911797309711F0CD011995FF9165
:103ED000EF91DF91CF91BF91AF919F918F917F91A2
:103EE0006F915F914F913F912F910F900BBE0F906B
:103EF0000FBE0F901F9018951F920F920FB60F9242
:103F000011240BB60F922F938F939F93AF93BF9370
:103F1000EF93FF93E0910A0FF0910B0F3097B9F0F8
:103F20000280F381E02D938182819817B1F0928114
:103F30008581282F26952923A081B181A20FB11D4B
:103F40002C919F5F892382832093C6000BC0E1ECF4
:103F5000F0E080818F7D808305C0E1ECF0E080811E
:103F60008F7D8083FF91EF91BF91AF919F918F9152
:103F70002F910F900BBE0F900FBE0F901F901895B2
:103F80001F920F920FB60F9211240BB60F922F9320
:103F90003F934F935F936F937F938F939F93AF93D1
:103FA000BF93CF93DF93EF93FF93A0910C0FB0914A
:103FB0000D0F109711F16091CE001496ED91FC91C8
:103FC0001597938182812581981B9223848198176C
:103FD00061F0838126952823C081D181C20FD11D34
:103FE00068838F5F9581892383831696ED91FC9179
:103FF0001797309711F0CD011995FF91EF91DF914F
:10400000CF91BF91AF919F918F917F916F915F9170
:104010004F913F912F910F900BBE0F900FBE0F90BD
:104020001F9018951F920F920FB60F9211240BB686
:104030000F922F938F939F93AF93BF93EF93FF9321
:10404000E0910C0FF0910D0F3097B9F00280F381E1
:10405000E02D938182819817B1F092818581282F7C
:1040600026952923A081B181A20FB11D2C919F5FBC
:10407000892382832093CE000BC0E9ECF0E080819D
:104080008F7D808305C0E9ECF0E080818F7D8083A7
:10409000FF91EF91BF91AF919F918F912F910F90D1
:1040A0000BBE0F900FBE0F901F9018951F920F928E
:1040B0000FB60F9211240BB60F922F933F934F938D
:1040C0005F936F937F938F939F93AF93BF93CF93A0
:1040D000DF93EF93FF93A0910E0FB0910F0F109706
:1040E00011F16091D6001496ED91FC911597938192
:1040F00082812581981B92238481981761F08381A6
:1041000026952823C081D181C20FD11D68838F5F7E
:104110009581892383831696ED91FC9117973097AB
:1041200011F0CD011995FF91EF91DF91CF91BF91E2
:10413000AF919F918F917F916F915F914F913F913F
:104140002F910F900BBE0F900FBE0F901F901895E0
:104150001F920F920FB60F9211240BB60F922F934E
:104160008F939F93AF93BF93EF93FF93E0910E0FC5
:10417000F0910F0F3097B9F00280F381E02D938119
:1041800082819817B1F092818581282F2695292365
:10419000A081B181A20FB11D2C919F5F89238283E1
:1041A0002093D6000BC0E1EDF0E080818F7D80830D
:1041B00005C0E1EDF0E080818F7D8083FF91EF917C
:1041C000BF91AF919F918F912F910F900BBE0F9048
:1041D0000FBE0F901F9018951F920F920FB60F925F
:1041E00011240BB60F922F933F934F935F936F93CE
:1041F0007F938F939F93AF93BF93CF93DF93EF936F
:10420000FF93A091100FB091110F109711F16091D1
:1042100036011496ED91FC91159793818281258149
:10422000981B92238481981761F083812695282317
:10423000C081D181C20FD11D68838F5F9581892391
:1042400083831696ED91FC911797309711F0CD016D
:104250001995FF91EF91DF91CF91BF91AF919F9110
:104260008F917F916F915F914F913F912F910F901F
:104270000BBE0F900FBE0F901F9018951F920F92BC
:104280000FB60F9211240BB60F922F938F939F931B
:10429000AF93BF93EF93FF93E091100FF091110F45
:1042A0003097B9F00280F381E02D938182819817D5
:1042B000B1F092818581282F26952923A081B18193
:1042C000A20FB11D2C919F5F892382832093360119
:1042D0000BC0E1E3F1E080818F7D808305C0E1E3E5
:1042E000F1E080818F7D8083FF91EF91BF91AF914D
:1042F0009F918F912F910F900BBE0F900FBE0F903B
:104300001F901895CF93DF931F92CDB7DEB7BE01F4
:104310006F5F7F4F8091120F9091130F7BDD8111A2
:10432000F6CF898190E00F90DF91CF910895682FAB
:104330008091120F9091130FEDDC80E090E00895D2
:104340008F929F92AF92CF92EF920F93812C912CEC
:104350006894AA24A7F86894CC24C7F8E12C00E05C
:1043600023E040E051EE60E070E033DC9093130F07
:104370008093120FE0E4FFE083E192E09183808379
:10438000938382830F91EF90CF90AF909F908F9007
:104390000895E091150FF091160F3097F9F0A08174
:1043A000B1811097D9F02381213069F44C9121E03B
:1043B00030E0028002C0220F331F0A94E2F72095FA
:1043C00024232C930BC04C9121E030E0028002C0EA
:1043D000220F331F0A94E2F7242B2C939093160F8D
:1043E0008093150F009769F01092170F2CB52F735B
:1043F0002CBDFC0124812CBD85818DBD8CB58064D4
:104400008CBD08954F925F926F927F928F929F9290
:10441000AF92BF92CF92DF92EF92FF920F931F93D2
:10442000CF93DF93CDB7DEB7982EB62ED42EF22ED3
:104430008091140F811106C084B1876084B981E036
:104440008093140F8CE090E0C0D53C01DC01119604
:104450001C930E931296EC9212971396CC9213978C
:104460008D2D880F880FF82AEB2DF0E0ED5FFB4FC4
:104470008081982A8F2D892914968C93B3E0BB15DF
:1044800018F481E0F3018583A11006C0D3011996C9
:104490001C921E92189712C06A2D70E084E090E082
:1044A0007AD52C0161E070E086E090E074D56C0173
:1044B0004A2DB20127D3F301D186C086811006C0F0
:1044C000D30117961C921E92169712C0682D70E0A9
:1044D00084E090E060D55C0161E070E086E090E00F
:1044E0005AD56C01482DB5010DD3F301D782C68290
:1044F0008C899D89D3011B969C938E931A970115E5
:10450000110559F0F801229181E090E002C0880F76
:10451000991FEA94E2F7822B80832FB7F894409199
:10452000150F5091160F7092160F6092150FD30150
:10453000ED91FC911197309701F113968C9113979F
:10454000813071F4308181E090E012960C9002C0CD
:10455000880F991F0A94E2F78095832380830DC00A
:10456000308181E090E0D30112960C9002C0880F58
:10457000991F0A94E2F7832B80835093160F409380
:10458000150F2FBFC301DF91CF911F910F91FF90A6
:10459000EF90DF90CF90BF90AF909F908F907F90E3
:1045A0006F905F904F9008951F93CF93DF93009784
:1045B00009F46AC0162FEC018091150F9091160F27
:1045C000C817D90711F0CE01E4DE8FB72FB7F894E2
:1045D0008091170F811131C081E08093170FA09156
:1045E000150FB091160FED91FC9111973097F9F0DE
:1045F00013968C911397813069F4308181E090E0BB
:1046000012960C9002C0880F991F0A94E2F7832B30
:1046100080830DC0308181E090E012960C9002C042
:10462000880F991F0A94E2F78095832380838CB5C5
:1046300080688CBD1EBD80E025C0EE81FF81309773
:10464000E1F03481838142819581841B892338176D
:10465000B1F083814281841B8923381791F08381D3
:1046600096959823A081B181A90FB11D1C938F5FEE
:1046700095818923838380E005C082E003C081E0C7
:1046800001C080E02FBF01C083E0DF91CF911F9177
:1046900008951F920F920FB60F9211240BB60F922E
:1046A0002F933F934F935F936F937F938F939F933A
:1046B000AF93BF93CF93DF93EF93FF936EB5A0912A
:1046C000150FB091160F1896ED91FC911997309730
:1046D000A1F0838122819581821B89232481821705
:1046E00061F0838196959823C081D181C90FD11D36
:1046F00068838F5F9581892383831696ED91FC9162
:104700001797309799F093818281981779F0928169
:104710008581282F26952923A081B181A20FB11D63
:104720002C919F5F892382832EBD2DC08CB58F77FE
:104730008CBD1092170FA091150FB091160FED912F
:10474000FC9111973097F9F013968C911397813063
:1047500071F4208181E090E012960C9002C0880FE5
:10476000991F0A94E2F78095822380830CC02081F0
:1047700081E090E012960C9002C0880F991F0A9475
:10478000E2F7822B80838091150F9091160FDC0148
:104790001A96ED91FC911B97309709F01995FF91AE
:1047A000EF91DF91CF91BF91AF919F918F917F91C9
:1047B0006F915F914F913F912F910F900BBE0F9092
:1047C0000FBE0F901F9018958091260F81110CC07D
:1047D0008CE08093B8008FEF8093BB0084E08093DF
:1047E000BC0081E08093260F0895AF92BF92CF92D4
:1047F000DF92EF92FF920F931F93CF93DF93A82E38
:10480000B62E69017A0184E090E0DFD3EC01892BB8
:1048100061F1A88281E0B81212C0C701B60120EA96
:1048200036E841E050E060D3DA01C9014097A109C0
:10483000B109B695A79597958795898311C0C7014A
:10484000B60120E83AE146E050E04ED3DA01C90172
:104850004097A109B109B695A79597958795898342
:104860001B830A838C2F9D2F02C080E090E0DF9194
:10487000CF911F910F91FF90EF90DF90CF90BF905D
:10488000AF9008958091BC0081700895FF920F93BE
:104890001F93CF93DF930097D1F14A30D0F5F42ED8
:1048A0008B01EC01EFDF811136C08091190F9091DF
:1048B0001A0FC817D90741F087DF89818093B800A4
:1048C000D0931A0FC093190F81E08F0D80931B0FA7
:1048D0008881880F80931C0FFF2089F0F801ADE1DB
:1048E000BFE04FEF4F0D642F70E0CB010196B80190
:1048F000680F791F81918D93E617F707D9F788EF35
:104900008093210285EA8093BC0084E005C086E0A4
:1049100003C087E001C082E0DF91CF911F910F912A
:10492000FF9008951F93CF93DF93009729F16B3089
:1049300028F5162FEC01A6DF811122C08091190FF6
:1049400090911A0FC817D90741F03EDF89818093F3
:10495000B800D0931A0FC093190F10931B0F8881C2
:10496000880F816080931C0F88EF8093210285EA75
:104970008093BC0085E005C086E003C087E001C0ED
:1049800082E0DF91CF911F9108951F920F920FB691
:104990000F9211240BB60F922F933F934F935F9377
:1049A0006F937F938F939F93AF93BF93EF93FF93F7
:1049B000E091B9008E2F90E0FC013897E135F105C8
:1049C00008F075C08827E458FF4F8F4FAFC2109290
:1049D000180FE091180F80911B0FE81770F481E019
:1049E0008E0F8093180FF0E0E45EF04F808180938B
:1049F000BB0085E88093BC0072C084E98093BC0052
:104A00008091190F90911A0FDC011296ED91FC9193
:104A10001397309709F463C020E040E050E064E071
:104A200019955DC0E091180F81E08E0F8093180FEB
:104A30008091BB00F0E0E45EF04F80838091B9008C
:104A4000803411F41092180F2091180F30E08091EB
:104A50001B0F90E001972817390724F485EC809309
:104A6000BC003DC085E88093BC0039C08091BB008C
:104A7000E091180FF0E0E45EF04F808384E98093CA
:104A8000BC008091190F90911A0FDC011296ED91E4
:104A9000FC911397309719F120911B0F4CE15FE0C7
:104AA00065E019951CC085EA8093BC0018C0809110
:104AB000B9008093210284E08093BC008091190F9B
:104AC00090911A0FDC011296ED91FC91139730979B
:104AD00031F020E040E050E0609121021995FF9113
:104AE000EF91BF91AF919F918F917F916F915F9166
:104AF0004F913F912F910F900BBE0F900FBE0F90D3
:104B00001F901895FC01411101C080D3842F90E0C3
:104B10009C012150310982239323892B09F076D3FC
:104B2000413808F073D3128213824483440F4150FA
:104B300045837183608380E090E008953CD088F0E5
:104B40009F3748F4911116F00C94AB1A60E070E0B6
:104B500080E89FEB089526F41B16611D711D811DD1
:104B600001C01BC0882371F4772321F09850872B54
:104B7000762F07C0662311F499270DC09051862B1C
:104B800070E060E02AF09A95660F771F881FDAF7C9
:104B9000880F9695879597F908959F3F31F091502A
:104BA00020F4879577956795B795880F911D969511
:104BB000879597F908950E94901AA0F0BEE7B9175B
:104BC00088F4BB279F3860F41616B11D672F782F25
:104BD0008827985FF7CF869577956795B11D939550
:104BE0009639C8F30895FA01EE0FFF1F309621059C
:104BF0003105A1F16115710561F48038BFE39B07B0
:104C000049F168949038810561F08038BFEF9B07C7
:104C100041F099234AF5FF3FE1053105210519F1DE
:104C2000E8940894E795D901AA2329F4AB2FBE2F65
:104C3000F85FD0F310C0FF5F70F4A695E0F7F73986
:104C400050F019F0FF3A38F49F779F930DD00F90F2
:104C500007FC9058089546F00C94661A60E070E0E6
:104C600080E89FE308954FE79F775F934F933F93CB
:104C70002F93ACD02F913F914F915F910E94B11A29
:104C800008C029F416F00C94601A0C94AA1A0C941B
:104C9000661A0E94901AA8F39638A0F707F80F92A8
:104CA000E8942BE33AEA48EB5FE70E94BF1A0F92C1
:104CB0000F920F924DB75EB70F92CFD0EAE9F1E0B5
:104CC00016D04F915F91EF91FF91E595EE1FFF1F79
:104CD00049F0FE57E0684427EE0F441FFA95E1F7CC
:104CE0004195550B36D00F9007FE28C00895DF93ED
:104CF000CF931F930F93FF92EF92DF927B018C0172
:104D0000689406C0DA2EEF010E94BD1AFE01E894F5
:104D1000A5912591359145915591A6F3EF010E94FA
:104D20003719FE019701A801DA9469F7DF90EF9037
:104D3000FF900F911F91CF91DF9108959B01AC01DE
:104D400060E070E080E89FE30C948A190C94601A8C
:104D500024CF0E94901AE0F39923D1F3940F511DB0
:104D6000ABF39150504094F059F0882332F0660F25
:104D7000771F881F91505040C1F79E3F510534F76F
:104D8000880F911D9695879597F908955F3FACF030
:104D9000983E9CF0BB27869577956795B79508F464
:104DA000B1609395C1F7BB0F58F711F460FFE8CFDE
:104DB0006F5F7F4F8F4F9F4FE3CF0C94AB1A0EF076
:104DC000ECCE0C94661A68940C94601A0E94901AA7
:104DD000B0F39923C1F3AEF3DF93CF931F930F93F7
:104DE000FF92C92FDD2788232AF02197660F771FAE
:104DF000881FDAF720E030E040E85FEB9FE3883976
:104E000020F0803E38F021968F770E942619E2EC40
:104E1000F1E004C00E942619EFEEF1E068DF8B019B
:104E2000BE01EC01FB2E6F5771097595771F880B3A
:104E3000990B0E94251A28E132E741E35FE30E94C3
:104E4000BD1AAF2D9801AE01FF900F911F91CF9128
:104E5000DF910E9437190C94771AFA01DC01AA0F2E
:104E6000BB1F9B01AC01BF5728F4222733274427DF
:104E7000507820C0B75190F4AB2F00244695379559
:104E80002795011CA395D2F3002071F0220F331F48
:104E9000441FB395DAF30ED00C94251961307105D7
:104EA000A0E88A07B94630F49B01AC016627772752
:104EB00088279078309621F0208331834283538372
:104EC000089597FB072E16F4009406D077FD08D0BE
:104ED0003FD007FC05D03EF4909581959F4F0895F3
:104EE000709561957F4F0895A1E21A2EAA1BBB1BF6
:104EF000FD010DC0AA1FBB1FEE1FFF1FA217B307A6
:104F0000E407F50720F0A21BB30BE40BF50B661FBB
:104F1000771F881F991F1A9469F76095709580957F
:104F200090959B01AC01BD01CF010895EE0FFF1FCD
:104F3000881F8BBF0790F691E02D19941DD0A59F77
:104F4000900DB49F900DA49F800D911D1124089584
:104F5000AA1BBB1B51E107C0AA1FBB1FA617B7079F
:104F600010F0A61BB70B881F991F5A95A9F78095BB
:104F70009095BC01CD010895A29FB001B39FC001DF
:104F8000A39F700D811D1124911DB29F700D811D75
:104F90001124911D08950F931F93CF93DF93869F44
:104FA0008001879F100D969F100D1124C8010DD010
:104FB000EC01009721F0A80160E070E034D1CE014F
:104FC000DF91CF911F910F9108950F931F93CF936E
:104FD000DF938230910510F482E090E0E0913E0F83
:104FE000F0913F0F20E030E0A0E0B0E0309719F101
:104FF000408151810281138148175907C8F08417F5
:10500000950769F4109731F012960C931297139646
:105010001C9327C000933E0F10933F0F22C0211511
:10502000310519F04217530718F49A01BD01EF0139
:10503000DF01F801DBCF21153105F9F0281B390B11
:105040002430310580F48A819B816115710521F03E
:10505000FB019383828304C090933F0F80933E0FA4
:10506000FE01329644C0FE01E20FF31F819391933B
:1050700022503109398328833AC020913C0F309166
:105080003D0F232B41F42091020230910302309313
:105090003D0F20933C0F2091000230910102211519
:1050A000310541F42DB73EB74091040250910502FD
:1050B000241B350BE0913C0FF0913D0FE217F307F5
:1050C000A0F42E1B3F0B2817390778F0AC014E5F78
:1050D0005F4F2417350748F04E0F5F1F50933D0F69
:1050E00040933C0F8193919302C0E0E0F0E0CF0148
:1050F000DF91CF911F910F910895CF93DF93009788
:1051000009F481C0FC01329713821282A0913E0FF4
:10511000B0913F0F109781F420813181820F931F4E
:1051200020913C0F30913D0F2817390751F5F0932E
:105130003D0FE0933C0F67C0ED0120E030E0CE175B
:10514000DF0740F44A815B819E0141155105F1F072
:10515000EA01F5CFD383C28340815181840F951F2B
:10516000C817D90759F488819981840F951F029631
:10517000918380838A819B8193838283211531056A
:1051800029F4F0933F0FE0933E0F3DC0E901FB830C
:10519000EA8349915991C40FD51FEC17FD0761F4BB
:1051A00080819181840F951F0296E90199838883FC
:1051B000828193819B838A83E0E0F0E012968D9157
:1051C0009C911397009719F0FD01DC01F7CF8D91A9
:1051D0009C9111979D012E5F3F4F820F931F20914D
:1051E0003C0F30913D0F2817390769F4309729F4A7
:1051F00010923F0F10923E0F02C013821282B093A2
:105200003D0FA0933C0FDF91CF91089581E090E096
:10521000F89400C3FB01DC0102C001900D924150E3
:105220005040D8F70895DC0101C06D9341505040C3
:10523000E0F70895CF93DF93CDB7DEB7AE014A5FB5
:105240005F4FFA0161917191AF018091420F90918E
:10525000430F33D0DF91CF9108950F931F93CF93D6
:10526000DF93E091420FF091430F238121FF1BC098
:105270008C01D0E0C0E0F80181918F016091420F74
:105280007091430FDB011896ED91FC9119978823DB
:1052900031F01995892B79F3DFEFCFEFECCF8AE06E
:1052A0001995892B19F08FEF9FEF02C08D2F9C2F3E
:1052B000DF91CF911F910F9108952F923F924F92BE
:1052C0005F926F927F928F929F92AF92BF92CF9296
:1052D000DF92EF92FF920F931F93CF93DF93CDB79F
:1052E000DEB72B970FB6F894DEBF0FBECDBF6C01B3
:1052F0007B018A01FC0117821682838181FFBFC175
:10530000CE0101963C01F6019381F70193FD859151
:1053100093FF81917F01882309F4ADC1853239F46F
:1053200093FD859193FF81917F01853221F4B60130
:1053300090E0D6D1E8CF912C212C312CFFE1F31550
:10534000D8F08B3279F038F4803279F08332A1F4DE
:10535000232D20611DC08D3261F0803369F4232D2F
:10536000216016C0832D8260382EE32DE4603E2E2E
:105370002AC0F32DF8601DC037FC2DC020ED280F8A
:105380002A3040F08E32B9F436FC75C1232D2064EA
:10539000322E19C036FE06C08AE0989E200D1124D8
:1053A000922E11C0EAE02E9E200D1124222EF32D04
:1053B000F0623F2E08C08C3621F4832D8068382E91
:1053C00002C0883641F4F70193FD859193FF8191E6
:1053D0007F018111B3CF982F9F7D9554933028F48E
:1053E0000C5F1F4F9FE399830DC0833631F08337E5
:1053F00071F0833509F055C020C0F80180818983A0
:105400000E5F1F4F88248394912C530112C02801F2
:10541000F2E04F0E511CF801A080B18036FE03C0AF
:10542000692D70E002C06FEF7FEFC5014ED14C01D6
:105430008201F32DFF773F2E15C0280122E0420E96
:10544000511CF801A080B18036FE03C0692D70E0C8
:1054500002C06FEF7FEFC5012DD14C01F32DF06835
:105460003F2E820133FC19C0822D90E088169906E8
:10547000A0F4B60180E290E033D12A94F5CFF50193
:1054800037FC859137FE81915F01B60190E028D10C
:1054900021102A9421E0821A91088114910479F74D
:1054A000E1C0843611F0893639F5F80137FE07C0BE
:1054B00060817181828193810C5F1F4F08C0608180
:1054C0007181072E000C880B990B0E5F1F4FF32D77
:1054D000FF763F2E97FF09C0909580957095619556
:1054E0007F4F8F4F9F4FF0683F2E2AE030E0A3019F
:1054F00033D1882E861844C0853731F4232D2F7E72
:10550000B22E2AE030E025C0932D997FB92E8F3638
:10551000C1F018F4883579F0AEC0803719F08837BB
:1055200021F0A9C0E92FE061BE2EB4FE0DC0FB2D15
:10553000F460BF2E09C034FE0AC0292F2660B22EA7
:1055400006C028E030E005C020E130E002C020E1E4
:1055500032E0F801B7FE07C06081718182819381DA
:105560000C5F1F4F06C06081718180E090E00E5F8C
:105570001F4FA301F1D0882E8618FB2DFF773F2EF9
:1055800036FE0DC0232D2E7FA22E891458F434FE32
:105590000BC032FC09C0832D8E7EA82E05C0B82C0E
:1055A000A32C03C0B82C01C0B92CA4FE0FC0FE016F
:1055B000E80DF11D8081803321F49A2D997EA92E6A
:1055C00009C0A2FE06C0B394B39404C08A2D8678A5
:1055D00009F0B394A3FC10C0A0FE06C0B21480F47E
:1055E000280C922C9B180DC0B21458F4B60180E21E
:1055F00090E076D0B394F8CFB21418F42B1802C010
:10560000982C212CA4FE0FC0B60180E390E068D056
:10561000A2FE16C0A1FC03C088E790E002C088E5A6
:1056200090E0B6010CC08A2D867851F0A1FE02C030
:105630008BE201C080E2A7FC8DE2B60190E050D081
:10564000891430F4B60180E390E04AD09A94F8CF00
:105650008A94F301E80DF11D8081B60190E040D0FD
:105660008110F6CF222009F44ECEB60180E290E000
:1056700037D02A94F7CFF6018681978102C08FEF49
:105680009FEF2B960FB6F894DEBF0FBECDBFDF9114
:10569000CF911F910F91FF90EF90DF90CF90BF902F
:1056A000AF909F908F907F906F905F904F903F90C2
:1056B0002F900895FC010590615070400110D8F7BB
:1056C000809590958E0F9F1F0895FC01615070404A
:1056D00001900110D8F7809590958E0F9F1F089527
:1056E0000F931F93CF93DF93FB01238121FD03C011
:1056F0008FEF9FEF2CC022FF16C046815781248177
:1057000035814217530744F4A081B1819D012F5F79
:105710003F4F318320838C93268137812F5F3F4F0A
:105720003783268314C08B01EC01FB010084F185D3
:10573000E02D1995892BE1F6D80116968D919C9153
:105740001797019617969C938E931697CE01DF912B
:10575000CF911F910F910895FA01AA27283051F196
:10576000203181F1E8946F936E7F6E5F7F4F8F4F92
:105770009F4FAF4FB1E03ED0B4E03CD0670F781FF1
:10578000891F9A1FA11D680F791F8A1F911DA11DD6
:105790006A0F711D811D911DA11D20D009F468940F
:1057A0003F912AE0269F11243019305D3193DEF6B7
:1057B000CF010895462F4770405D4193B3E00FD06D
:1057C000C9F7F6CF462F4F70405D4A3318F0495D58
:1057D00031FD4052419302D0A9F7EACFB4E0A6953B
:1057E0009795879577956795BA95C9F7009761055D
:1057F000710508959B01AC010A2E069457954795B3
:1058000037952795BA95C9F7620F731F841F951FA7
:08581000A01D0895F894FFCFDC
:105818000000460F20000900400040C600CE00D618
:1058280000360100000003000000009721822100DB
:1058380000F8FF0186000000000079FF0179A00050
:10584800000000E6FF0179000000000086FF0187E4
:10585800000000000078FF018800000000000043FD
:105868004F322073656E736F7220646F6573206E9C
:105878006F74204F4B00436172626F6E3A25642E3D
:10588800256400434F322073656E736F7220737402
:10589800617274656421212100434F585461736B10
:1058A8000054656D70657261747572652073656EFC
:1058B800736F72206469646E27742077616B6575F5
:1058C800702121210048756D696C697479207365B0
:1058D8006E736F72206469646E2774206D656173DE
:1058E8007572652121210048756D25642E25640097
:1058F80048756D696C6974792073656E736F722071
:10590800737461727465642121210048756D536553
:105918006E736F725461736B00372D7365676D65B5
:105928006E7420446973706C617920737461727449
:10593800656421212100372D7365676D656E7420BC
:10594800446973706C6179205461736B0054656DA0
:1059580070657261747572652073656E736F7220FD
:105968006469646E2774206D6561737572652121A1
:10597800210074656D70657261747572653A25648D
:105988002E25640054656D706572617475726520AA
:1059980073656E736F72207374617274656421210C
:1059A800210054656D706572617475726553656E1A
:1059B800736F725461736B004E6F772074696D65F5
:1059C80020636C6F636B207374617274656421214A
:1059D80021004E6F7754696D65436C6F636B54613A
:1059E800736B0049444C4500546D72205376630034
:1059F80050726F6772616D205374617274656421AF
:105A0800212100FC60DAF266B6BEE0FEE6EE3E1A40
:0A5A18007A9E8E00010203000102D5
:00000001FF
