S00E000067682D696F742E73726563CE
S1130000F5C1000014C2000012C2000010C20000BA
S11300100EC200000CC200000AC2000008C20000A8
S113002006C2000004C2000002C2000000C20000B8
S1130030E0C40000FCC10000FAC10000F8C10000E7
S1130040F6C10000F4C10000F2C10000F0C10000DC
S1130050EEC10000ECC10000EAC10000E8C10000EC
S1130060E6C100000C94151E0C94671EE0C100004C
S1130070DEC10000DCC10000DAC10000D8C100000C
S1130080D6C10000D4C10000D2C10000D0C100001C
S11300900C94AB1E0C94FD1ECAC10000C8C1000024
S11300A0C6C10000C4C10000C2C10000C0C100003C
S11300B0BEC10000BCC10000BAC10000B8C100004C
S11300C0B6C10000B4C10000B2C100000C94411FCD
S11300D00C94931FACC100000C94D71F0C942920DE
S11300E0A6C100006D016D016D01A701AF01C5013D
S11300F06D016D01A701AF010BE710E10F2EFBEAC3
S1130100EF2EF0E1FF2EF02D80917A10882311F16B
S11301100FB6F8940F92D8011796ED91FC911897A9
S1130120C085D185CE01029624D380916E10815072
S113013080936E1080917A10815080937A100F9082
S11301400FBE8B8D9C8D89D2CE0187D280917A107F
S11301508111DECFF7018081823008F084D30E94C0
S1130160A116D2CFCF93DF93CDB7DEB760970FB68A
S1130170F894DEBF0FBECDBFCE0101969A87898762
S1130180812C912CA12CB12C69847A84E0912511C5
S1130190F09126118081882309F40EC10780F0852F
S11301A0E02D20803180428053800E942D0DCE01AD
S11301B001960E940A166B877C878D879E878981AA
S11301C0811164C08B859C85AD85BE8582159305A0
S11301D0A405B50508F444C00E94710EE0912511F0
S11301E0F09126110780F085E02DA085B185B88BAC
S11301F0AF87CD010296BDD2EF85F889868982FF4B
S113020021C04685578560897189420D531D641D3F
S1130210751D720161010B851C852D853E85CF01FD
S11302200E941915882399F0C82CD92CEA2CFB2C90
S113023000E010E0A201910160E08F8598890E949E
S1130240AC1505C08E7FAF85B88956968C93AF8563
S1130250B8895496ED91FC915597CD0119959EC09E
S113026020E0B201A1018B859C85AD85BE85481B2C
S1130270590B6A0B7B0B80912111909122117FD62F
S11302800E94710E81118AC0EED288C00E94710E44
S113029085C0898188230CF481C04E805F80D2019F
S11302A01C968D919C911D97892B19F0C201029681
S11302B060D2CE0108960E940A168B019C01E98146
S11302C00E2E000CFF0BEA30F10508F067C08827FA
S11302D0EE58FF4F8F4F0C946E24F2018689816093
S11302E0868BCA80DB80EC80FD80468557856089DB
S11302F071894C0D5D1D6E1D7F1DC2010E94191573
S1130300882309F44BC0D2015496ED91FC91559782
S1130310C2011995F201868982FF40C04A815B813E
S11303206C817D8186859785A089B1899A01AB010D
S1130330280F391F4A1F5B1FC82CD92CEA2CFB2C11
S113034000E010E060E0C2010E94AC1527C0D201B9
S113035056968C9156978E7F56968C931FC0F201B9
S113036086898160868B4A815B816C817D81468729
S11303705787608B718B400F511F621F731F680179
S11303807901C2010E94191509C0F201868981FD13
S113039003C0C20162D102C08E7F868B282D392D05
S11303A04A2D5B2D662D772D80912111909122117C
S11303B04DD581116ECFEACE0E942D0DCE0101964E
S11303C00E940A166B877C878D879E87898181119D
S11303D05DCFE0912311F0912411808121E08111FE
S11303E020E0282C392C4A2C5B2C3BCF11241FBE37
S11303F0CFEFD1E2DEBFCDBF00E00CBF16E0A0E03E
S1130400B2E0E8E6F2E500E00BBF02C007900D920F
S1130410A638B107D9F723E1A6E8B6E001C01D92DA
S1130420A230B207E1F70E9466180C943229E8CD95
S1130430CF93DF93DC01E2E9F6E001C0F90120810A
S113044031812A173B07D0F382819381AF01480F92
S1130450591FA417B50749F412964D915C9113974F
S1130460840F951F93838283DF0112968D919C9153
S11304701397ED01C80FD91F2C173D07D9F420910C
S1130480900630919106C217D30781F02A813B81EF
S1130490820F931F13969C938E931297C081D181E0
S11304A08881998111969C938E9307C01196DC9351
S11304B0CE9303C011963C932E93AE17BF0711F051
S11304C0B183A083DF91CF910895CF92DF92EF9211
S11304D0FF920F931F93CF93DF93EC010E942D0D96
S11304E08091900690919106892B41F5E2E9F6E01E
S11304F0A6E9B6E0B183A08313821282E6E5F0E1B7
S1130500F0939106E0939006138212821182108276
S113051080EC99E013969C938E931297ED93FC9341
S113052090938D0680938C0690938F0680938E060D
S113053080E090E89093870680938606E090860694
S1130540F0908706C7018C239D23892B09F075C081
S1130550209709F475C09E012C5F3F4FC217D30743
S113056008F06EC02115310509F467C000918E06AC
S113057010918F060217130708F45FC0C09192060A
S1130580D0919306E2E9F6E002C0FE01EC018A8113
S11305909B818217930720F4888199810097A9F79A
S11305A08091900690919106C817D90709F445C027
S11305B0C080D18084E0C80ED11C88819981918348
S11305C080834A815B81421B530B4930510548F0BB
S11305D0CE01820F931FFC01538342833B832A8302
S11305E027DF8A819B81081B190B10938F060093C8
S11305F08E0620918C0630918D060217130720F485
S113060010938D0600938C06E82AF92AFB82EA826D
S11306101982188280918A0690918B060196909394
S11306208B0680938A060E94710EC114D10459F47A
S11306300E94A716C12CD12C06C00E94710EF8CFBF
S11306400E94710EF5CFC601DF91CF911F910F91DA
S1130650FF90EF90DF90CF900895CF93DF930097B2
S113066099F1FC013497228133814091860650919F
S11306708706B90164237523672B31F16081718189
S1130680672B11F5EF0140955095242335233383CF
S113069022830E942D0D20918E0630918F068A812F
S11306A09B81820F931F90938F0680938E06CE01B9
S11306B0BFDE809188069091890601969093890601
S11306C0809388060E94710EDF91CF910895FC01FA
S11306D00396928381834FEF5FEFBA014383548380
S11306E065837683908787839287818710820895B4
S11306F0FC011386128608950F931F93CF93DF9303
S1130700EB01088119812A813B810F3F4FEF1407C8
S11307102407340721F4FC01A185B28511C0DC0152
S1130720139601C0DF011496ED91FC911597408159
S1130730518162817381041715072607370790F7E3
S11307401496ED91FC911597FD83EC83D783C683B2
S1130750BF83AE831596DC93CE9314979B878A87C9
S1130760FC0120812F5F2083DF91CF911F910F9196
S11307700895CF93DF93FC01A285B385C481D5810D
S1130780868197819F838E83C681D7818481958159
S11307909D838C8311968D919C911297E817F9078C
S11307A031F48681978112969C938E9311971386C8
S11307B012868C9181508C938C91DF91CF91089506
S11307C0FC016083319770833197108231971082D6
S11307D0319720E820833197108231971082319726
S11307E01082779740833197508386970895A89510
S11307F090EC88E10FB6F894A895809360000FBE42
S113080090936000A0911911B0911A11CD91CDBFB0
S1130810DD91DEBFFF91EF91DF91CF91BF91AF9159
S11308209F918F917F916F915F914F913F912F9104
S11308301F910F91FF90EF90DF90CF90BF90AF90FA
S11308409F908F907F906F905F904F903F902F90EC
S11308501F900F900CBE0F900BBE0F900FBE0F9009
S1130860089581E008950F920FB6F8940F920BB695
S11308700F920CB60F921F9211242F923F924F9217
S11308805F926F927F928F929F92AF92BF92CF921C
S1130890DF92EF92FF920F931F932F933F934F9307
S11308A05F936F937F938F939F93AF93BF93CF93F4
S11308B0DF93EF93FF93A0911911B0911A110DB624
S11308C00D920EB60D920E94DA0FA0911911B091FB
S11308D01A11CD91CDBFDD91DEBFFF91EF91DF9174
S11308E0CF91BF91AF919F918F917F916F915F91C4
S11308F04F913F912F911F910F91FF90EF90DF90B7
S1130900CF90BF90AF909F908F907F906F905F90AB
S11309104F903F902F901F900F900CBE0F900BBEE6
S11309200F900FBE0F9008950F920FB6F8940F9288
S11309300BB60F920CB60F921F9211242F923F9276
S11309404F925F926F927F928F929F92AF92BF92DB
S1130950CF92DF92EF92FF920F931F932F933F93C7
S11309604F935F936F937F938F939F93AF93BF93B3
S1130970CF93DF93EF93FF93A0911911B0911A11C4
S11309800DB60D920EB60D9213BE0E94410D81114B
S11309900E94DA0FA0911911B0911A11CD91CDBF17
S11309A0DD91DEBFFF91EF91DF91CF91BF91AF91C8
S11309B09F918F917F916F915F914F913F912F9173
S11309C01F910F91FF90EF90DF90CF90BF90AF9069
S11309D09F908F907F906F905F904F903F902F905B
S11309E01F900F900CBE0F900BBE0F900FBE0F9078
S11309F008959ADF18950FB6F8940F92FC01968D1E
S1130A000F900FBE81E0911180E008950F931F9322
S1130A10CF93DF93EC01042F1E8D48A141110CC02C
S1130A2088819981892B09F042C08C819D810E9423
S1130A30EB111D821C8242C0011117C050E08A8153
S1130A409B810E94B52528A18A819B81820F911DDB
S1130A509B838A832C813D818217930750F188817F
S1130A6099819B838A8380E029C050E08E819F8195
S1130A700E94B52588A190E09195819591092E81D8
S1130A803F81280F391F3F832E83488159812417C2
S1130A90350730F42C813D81820F931F9F838E8311
S1130AA0023049F4112349F0115080E007C080E07E
S1130AB005C080E003C080E001C080E01F5F1E8F9E
S1130AC0DF91CF911F910F910895FC0140A1442320
S1130AD0A9F050E026813781240F351F3783268300
S1130AE0848195812817390720F08081918197832B
S1130AF08683CB01668177810C94B5250895EF92A6
S1130B00FF920F931F93CF938C010FB6F8940F921B
S1130B10FC01C2A11C16ACF48389811106C011C06A
S1130B20F8018389811105C00CC07801F3E1EF0E4F
S1130B30F11CC7010E94A41081110E94D411C1505C
S1130B4079F78FEFF80182A30F900FBE0FB6F894D8
S1130B500F92C1A11C16ACF48085811106C011C08E
S1130B60F8018085811105C00CC07801F8E0EF0E12
S1130B70F11CC7010E94A41081110E94D411C1501C
S1130B8079F78FEFF80181A30F900FBECF911F91DA
S1130B900F91FF90EF900895CF93DF93EC010FB680
S1130BA0F8940F92E881F9818F8D28A190E030E0CC
S1130BB0829FA001839F500D929F500D11244E0FD0
S1130BC05F1F5D834C831E8EFB83EA830197829FA4
S1130BD0A001839F500D929F500D1124CF01840FCB
S1130BE0951F9F838E838FEF89A38AA361110BC006
S1130BF08885882371F0CE0108960E94A41088236A
S1130C0041F031DE06C0CE01089661DDCE01439687
S1130C105EDD0F900FBE81E0DF91CF9108950F93B9
S1130C201F93CF93DF93082F162F869FC0011124A3
S1130C3083964BDCEC01009769F0111103C0998392
S1130C40888303C08396998388830F8F18A361E0F8
S1130C50CE01A2DFCE01DF91CF911F910F910895B4
S1130C609F92AF92BF92CF92DF92EF92FF920F9337
S1130C701F93CF93DF93CDB7DEB729970FB6F894C0
S1130C80DEBF0FBECDBF7C015B012E833F8348874F
S1130C90598710E0992493946C0188E0C80ED11C04
S1130CA00FB6F8940F92F701968D878D981710F070
S1130CB00230B1F4402FB501C701A8DEF7019389D2
S1130CC0992341F0C70143960E94A410882321F080
S1130CD0CADD02C08111C7DD0F900FBE81E04EC096
S1130CE08E819F81A885B985892B8A2B8B2B21F432
S1130CF00F900FBE80E042C0111105C0CE010196D5
S1130D000E946A11192D0F900FBEA7D60FB6F89442
S1130D100F92F70181A18F3F09F411A2F70182A17B
S1130D208F3F09F412A20F900FBEBE016A5F7F4F7E
S1130D30CE0101960E947B1181111CC00FB6F8945C
S1130D400F92F701968D878D0F900FBE98130EC0EA
S1130D504E815F8168857985C6010E944B10C70169
S1130D60CEDEBFD781119CCF7EDD9ACFC701C7DE0F
S1130D70B8D796CFC701C3DEB4D780E029960FB6A3
S1130D80F894DEBF0FBECDBFDF91CF911F910F91BD
S1130D90FF90EF90DF90CF90BF90AF909F90089519
S1130DA00F93CF93DF93482F60E081E038DFEC01AD
S1130DB0009761F01D821C82198218821E8200E055
S1130DC020E030E0A90160E070E04ADFCE01DF916D
S1130DD0CF910F910895EF92FF920F931F93CF93AA
S1130DE0DF938A01FC01568D378D531710F02230A2
S1130DF0F9F4422F7801EC011AA18E8DCE0106DEA2
S1130E001F3F81F48B898823A9F0CE0143960E9469
S1130E10A410882389F0E114F10481F081E0F70142
S1130E2080830DC0FF24F394F10EFAA281E007C081
S1130E3080E005C081E003C081E001C081E0DF9172
S1130E40CF911F910F91FF90EF9008959F92AF92D1
S1130E50BF92CF92DF92EF92FF920F931F93CF93A3
S1130E60DF93CDB7DEB729970FB6F894DEBF0FBE78
S1130E70CDBF8C015B012E833F8348875987E12CCA
S1130E80992493946C0183E1C80ED11C0FB6F89495
S1130E900F92F801F68CFF2099F0B501C80115DE18
S1130EA0FA94F801F68E8085882331F0C8010896FB
S1130EB00E94A4108111D7DC0F900FBE81E04DC0B9
S1130EC08E819F81A885B985892B8A2B8B2B21F450
S1130ED00F900FBE80E041C0E11005C0CE01019625
S1130EE00E946A11E92C0F900FBEB7D50FB6F89483
S1130EF00F92F80181A18F3F09F411A2F80182A198
S1130F008F3F09F412A20F900FBEBE016A5F7F4F9C
S1130F10CE0101960E947B11811116C0C8016BDDC0
S1130F20882371F04E815F8168857985C6010E94AE
S1130F304B10C801E4DDD5D68111A8CF94DCA6CF2F
S1130F40C801DDDDCED6A2CFC801D9DDCAD6C8011D
S1130F5052DD882309F49ACF80E029960FB6F894DD
S1130F60DEBF0FBECDBFDF91CF911F910F91FF90D8
S1130F70EF90DF90CF90BF90AF909F900895CF9364
S1130F80DF93EC010FB6F8940F9289A18F3F09F417
S1130F9019A28AA18F3F09F41AA20F900FBE8E8D59
S1130FA0811104C0CE0143960E946210CE01A7DDD8
S1130FB0DF91CF910895FC014481558122813381D1
S1130FC0240F351F80819181B901681B790BCB01F6
S1130FD06417750710F0841B950B0895AF92BF92A8
S1130FE0CF92DF92EF92FF920F931F93CF93DF93F1
S1130FF06C015B017A01FC01C281D38104811581FA
S11310000C1B1D0B4017510708F48A01F601848557
S11310109585A801B5018C0F9D1F0E94B5250E155D
S11310201F0558F4A701401B510BB501600F711F38
S1131030F601848595850E94B525CE018E0D9F1DF0
S1131040F601248135818217930710F0821B930BDC
S1131050F60193838283C701DF91CF911F910F9192
S1131060FF90EF90DF90CF90BF90AF900895CF9214
S1131070DF92EF92FF920F931F93CF93DF931F9210
S11310801F92CDB7DEB75A83498321153105C9F0C4
S11310906B017C01FC01868580FD08C0CA01241710
S11310A0350708F4C9019A83898311C020173107D1
S11310B058F042E050E0BE016F5F7F4FC7018EDF02
S11310C006C080E090E008C080E090E005C049815F
S11310D05A81B601C70182DF0F900F90DF91CF9143
S11310E01F910F91FF90EF90DF90CF900895AF92F2
S11310F0BF92CF92DF92EF92FF920F931F93CF9301
S1131100DF937C015B01E9014217530708F4EA010C
S1131110209779F1F70100811181C480D580C01A2C
S1131120D10ACC15DD0508F46E01F70164857585D7
S1131130600F711FA601C5010E94B525CC16DD06FE
S113114058F4AE014C195D09F70164857585C50134
S11311508C0D9D1D0E94B5250C0F1D1FF701848168
S113116095810817190710F0081B190BF701118353
S11311700083CE01DF91CF911F910F91FF90EF90EB
S1131180DF90CF90BF90AF900895FF920F931F937D
S1131190CF93DF938B01FF24F394413009F0F12CBA
S11311A00115110511F401E010E09C01205F3F4F8F
S11311B082179307B0F4EC012196C90186D9FC018A
S11311C0892B89F08FE0DF011D928A95E9F7CF0121
S11311D00F9695878487D583C48317830683F68601
S11311E002C0E0E0F0E0CF01DF91CF911F910F91B9
S11311F0FF9008950FB6F8940F92DC0118962D9184
S11312003C911997232B51F51A962D913C911B97DC
S1131210232B31F51E962C911E9716964D915C91B9
S1131220179714966D917C9115971C96ED91FC91EE
S11312301D973FE01D923A95E9F7DC011D96FC935A
S1131240EE931C9715967C936E93149717965C9364
S11312504E9316971E962C9381E003C080E001C044
S113126080E00F900FBE0895FC01248135818081B8
S1131270918142815381820F931F0197841B950BA7
S11312808217930710F0821B930B08952F923F92BD
S11312904F925F926F927F928F929F92AF92BF9282
S11312A0CF92DF92EF92FF920F931F93CF93DF932E
S11312B0CDB7DEB72B970FB6F894DEBF0FBECDBF08
S11312C04C017B876A871A010E831F83288739871D
S11312D0FC01848195810197268520FF0CC02A0199
S11312E0F2E04F0E511C8415950550F41E821F82A6
S11312F01886198646C02A018417950708F42C011C
S11313008E819F81A885B985892B8A2B8B2B09F423
S113131038C0CE010196C8D70FB6F8940F92C40115
S1131320A3DF3C018415950538F560E080E090E08A
S11313300E94FF140E94D811F401938782870F90B2
S11313400FBEAE80BF80C884D984E12CF12C00E0AC
S113135010E0980140E050E0BA0180E00E9446129B
S1131360F40113861286BE016A5F7F4FCE01019697
S1131370C2D7882389F202C00F900FBE6114710492
S113138019F4C40171DF3C0182019301A1016A8552
S11313907B85C4016CDE6C01892BE9F0C4010BDE92
S11313A0F4012681378182179307A8F056D3F401FC
S11313B080859185892B71F080859185E12CF12CB4
S11313C000E020E030E0A90160E00E94ED12F401A9
S11313D01186108686D4C6012B960FB6F894DEBF0C
S11313E00FBECDBFDF91CF911F910F91FF90EF9072
S11313F0DF90CF90BF90AF909F908F907F906F9031
S11314005F904F903F902F900895AF92BF92CF92EC
S1131410DF92EF92FF920F931F93CF93DF93EC0130
S11314207B015A0169018E8580FF04C08A010E5F29
S11314301F4F01C08A01CE0117DF9C01A501B7012E
S1131440CE0115DE5C01892BC1F0CE01B4DD2E8105
S11314503F818217930788F088859985892B69F0E5
S113146088859985E12CF12C00E020E030E0A90189
S113147060E00E94E11319861886C501DF91CF91BF
S11314801F910F91FF90EF90DF90CF90BF90AF909E
S113149008952F923F924F925F926F927F928F9214
S11314A09F92AF92BF92CF92DF92EF92FF920F93EF
S11314B01F93CF93DF931F921F92CDB7DEB74C01DA
S11314C01B012A0158016901FC01868580FD03C0C6
S11314D0612C712C04C06894662461F8712CA114E9
S11314E0B104C104D10441F10FB6F8940F92C401C0
S11314F062DD8C016816790648F060E080E090E0D7
S11315000E94FF1455D7F401918780870F900FBE76
S113151060167106B8F0E12CF12C00E010E098019F
S113152040E050E0BA0180E0B1D7F40111861086A2
S1131530C40141DD8C0103C0C4013DDD8C01601692
S11315407106C8F561147104C1F0F401C080D18042
S11315509801A301BE016F5F7F4FC401C8DD89817B
S11315609A81061917094816590630F4F401D182F4
S1131570C082412C512C01C02C019801A201B1015F
S1131580C401B5DD6C01892BC1F067D2F4018285F9
S11315909385892B71F082859385E12CF12C00E0F1
S11315A020E030E0A90160E00E94ED12F40113860E
S11315B0128697D302C0C12CD12CC6010F900F9074
S11315C0DF91CF911F910F91FF90EF90DF90CF901B
S11315D0BF90AF909F908F907F906F905F904F904F
S11315E03F902F900895E0919310F0919410808192
S11315F081110CC08FEF9FEFDC0180935D109093FD
S11316005E10A0935F10B09360100895E091931062
S1131610F09194100780F085E02D80819181A28162
S1131620B38180935D1090935E10A0935F10B0938C
S1131630601008958F929F92AF92BF92CF92DF92E3
S1131640EF92FF92CF93DF936B017C01C42F8090C4
S11316506A1090906B10A0906C10B0906D108091F7
S1131660191190911A11029684D88FEFC816D806D2
S1131670E806F806B1F5CC23A1F1EFE6F0E1A1818B
S1131680B281C0911911D0911A11BF83AE83C09158
S11316901911D0911A1116968D919C9117979987CB
S11316A088871696CD91DC911797809119119091A6
S11316B01A1102969D838C838091191190911A11AD
S11316C0029617969C938E931697A0911911B09138
S11316D01A111D96FC93EE931C9780818F5F808373
S11316E03FC0C80CD91CEA1CFB1CE0911911F091F5
S11316F01A11C282D382E482F582C814D904EA049E
S1131700FB0468F46091191170911A118091911081
S1131710909192106E5F7F4F0E947C0321C0609174
S1131720191170911A1180919310909194106E5F19
S11317307F4F0E947C0380915D1090915E10A09178
S11317405F10B0916010C816D906EA06FB0640F493
S1131750C0925D10D0925E10E0925F10F092601023
S1131760DF91CF91FF90EF90DF90CF90BF90AF903B
S11317709F908F9008954F925F926F927F928F9275
S11317809F92AF92BF92CF92DF92EF92FF920F930C
S11317901F93CF93DF934C016B015A012901CA01B6
S11317A00E9465023C01892B09F40DC184E390E099
S11317B00E946502EC01892B99F07C8E6B8EA50149
S11317C065EA70E0C3010E94BE2581E0A81AB10851
S11317D08B8D9C8DA80EB91EC114D10429F420C090
S11317E0C3010E942D03EFC0D6018C918D8F8C9183
S11317F08823A1F0AE01425E5F4FF6013196B0E15D
S1131800CB0ED11CCF012191DA012D93AD01DC0166
S11318108C91882319F0CE16DF06A1F71CA601C00F
S11318201D8E0A3008F009E00A8F0DA71EA66E016E
S1131830B2E0CB0ED11CC6010E947803CE010E96F5
S11318400E947803DB87CA878AE090E0A0E0B0E0DA
S1131850801B9109A109B1098E879F87A88BB98B39
S1131860DF8BCE8B84E0FE01BF96DF011D928A954B
S1131870E9F71BAAA201B401C5010E94E003998300
S11318808883E114F10419F0F701D183C0830FB602
S1131890F8940F9280916E108F5F80936E108091F8
S11318A0191190911A11892BD1F5D0931A11C09363
S11318B0191180916E10813009F041C00BEA10E1DA
S11318C00F2EF9E1EF2EF1E1FF2EF02DC8010E9459
S11318D06703055F1F4F0E151F05C1F780EA90E1EE
S11318E00E94670385E990E10E94670386E890E11E
S11318F00E9467038BE790E10E9467038FE690E103
S11319000E94670380EA90E190939410809393106F
S113191085E990E1909392108093911010C080918A
S1131920681081110CC0E0911911F0911A11928D77
S11319308A8D891720F0D0931A11C09319118091C0
S113194061108F5F80936110EA8D809169108E170A
S113195010F4E09369108BE08E9FF0011124E5559B
S1131960FF4E0180F281E02DFF83EE8326813781D3
S113197039872887A681B7811596DC92CE92149771
S1131980D782C682EA8D8E9FF0011124E555FF4E61
S1131990FD87EC8780818F5F80830F900FBE8091DD
S11319A06810882361F0E0911911F0911A11928D59
S11319B08A8D981730F40E94330481E005C081E0D9
S11319C003C081E001C08FEFDF91CF911F910F9190
S11319D0FF90EF90DF90CF90BF90AF909F908F904B
S11319E07F906F905F904F900895EF92FF920F93C6
S11319F00F2EFBE5EF2EF0E1FF2EF02D00E020E0AE
S1131A0030E040EC50E06DE372E08CE790E0B3DE50
S1131A108130E9F40E948B158130C9F4F8948FEF7A
S1131A209FEFDC0180935D1090935E10A0935F1094
S1131A30B093601081E08093681010926A10109245
S1131A406B1010926C1010926D100E94F70380912D
S1131A5006020F91FF90EF90089580915A108F5FC6
S1131A6080935A1008950FB6F8940F9260916A10FB
S1131A7070916B1080916C1090916D100F900FBE4F
S1131A800895CF92DF92EF92FF920F931F93CF931B
S1131A90DF9380915A10811107C1C0906A10D090D1
S1131AA06B10E0906C10F0906D108FEFC81AD80A8C
S1131AB0E80AF80AC0926A10D0926B10E0926C1097
S1131AC0F0926D10C114D104E104F104B1F48091D9
S1131AD09310909194102091911030919210309322
S1131AE0941020939310909392108093911080916E
S1131AF062108F5F8093621076DD80915D1090910B
S1131B005E10A0915F10B0916010C816D906EA0665
S1131B10FB0610F480E0B3C080E04BE051E0E091BC
S1131B209310F0919410908191110CC04FEF5FEFDE
S1131B30BA0140935D1050935E1060935F107093F0
S1131B4060109DC0E0919310F09194100780F0858F
S1131B50E02D0084F185E02D0281138124813581FB
S1131B60C016D106E206F30648F400935D10109304
S1131B705E1020935F103093601081C0A485B585FA
S1131B80C681D781208531853F832E83C085D18549
S1131B90268137813D832C839F012E5F3F4F119611
S1131BA06D917C9112976217730731F4608571858A
S1131BB012967C936E931197158614869C9191507E
S1131BC09C93A08DB18D109709F1C289D389648942
S1131BD075897F836E83C489D589628973897D837E
S1131BE06C831196CD91DC911297BF01625F7F4F98
S1131BF0C617D70731F46489758912967C936E935E
S1131C001197118E108E9C9191509C93A28D90915E
S1131C1069109A1710F4A09369104A9FD0011124F7
S1131C20A555BF4E11960D90BC91A02DB783A683E8
S1131C3016966D917C911797718760871696CD9152
S1131C40DC9117973D832C8317963C932E9316971C
S1131C50A28D4A9FD0011124A555BF4EB587A487F4
S1131C609C919F5F9C93A0911911B0911A11228DA0
S1131C705A969C91291708F452CF852F50CFE091A2
S1131C801911F0911A11E28D9BE0E99FF0011124E2
S1131C90E555FF4E9081923008F081E090916310F9
S1131CA09923B1F081E014C0809164109091651083
S1131CB0A0916610B09167100196A11DB11D80938B
S1131CC0641090936510A0936610B093671080E041
S1131CD0DF91CF911F910F91FF90EF90DF90CF9004
S1131CE00895CF92DF92EF92FF920F931F93CF93B9
S1131CF0DF930FB6F8940F9280915A10815080931D
S1131D005A1080915A108111C4C080916E108111B3
S1131D108BC0C2C0D8011796ED91FC91189700842E
S1131D20F185E02DA08DB18D8289938964897589AF
S1131D30EC017F836E838489958962897389EC01C0
S1131D407D836C83CF010E9611966D917C911297D1
S1131D506817790731F48489958912969C938E9338
S1131D601197118E108E8C9181508C93A485B5851A
S1131D708681978160857185EC017F836E83808580
S1131D80918566817781EC017D836C83CF01029616
S1131D9011966D917C9112976817790731F46085DB
S1131DA0718512967C936E931197158614862C91E7
S1131DB021502C93A28D209169102A1710F4A0931E
S1131DC069103A9FD0011124A555BF4E11960D906C
S1131DD0BC91A02DB783A68316966D917C9117971D
S1131DE07187608716966D917C911797EB019D839F
S1131DF08C8317969C938E931697A28D3A9FD0014D
S1131E001124A555BF4EB587A4878C918F5F8C9301
S1131E10A0911911B0911A11928D5A968C9198171C
S1131E2048F04093631006C0E0E0F0E006E810E1FB
S1131E303BE041E0D8018C9181116CCFEF2B09F08C
S1131E40D2DBC0906410D0906510E0906610F090E2
S1131E506710C114D104E104F10499F0C1E011DE6A
S1131E608111C0936310B1E0CB1AD108E108F108E5
S1131E70B1F71092641010926510109266101092CF
S1131E80671080916310882331F00E94330481E04D
S1131E9003C080E001C080E00F900FBEDF91CF91BE
S1131EA01F910F91FF90EF90DF90CF900895CF9204
S1131EB0DF92EF92FF920F931F93CF93DF93EC0186
S1131EC06A017B01CADD00916A1010916B102091A8
S1131ED06C1030916D1088819981AA81BB81AC010D
S1131EE0BD014C0D5D1D6E1D7F1D081719072A07C6
S1131EF03B07B8F4481759076A077B0790F5FF2496
S1131F00F394041715072607370708F0F12C4883C4
S1131F1059836A837B830417150726073707A0F4C0
S1131F200BC0481759076A077B07A0F00417150769
S1131F302607370778F015C0CB01BA01601B710B77
S1131F40820B930B40E076DBCCDE811110C00E9443
S1131F5033040DC0488359836A837B83FF24F3943D
S1131F60EBCF488359836A837B83F12CEDCF8F2D8C
S1131F70DF91CF911F910F91FF90EF90DF90CF9061
S1131F800895CF92DF92EF92FF926B017C01672B51
S1131F90682B692B41F061DD40E0C701B6014ADBE3
S1131FA0A0DE811102C00E943304FF90EF90DF9005
S1131FB0CF90089580915A10882321F081E0809376
S1131FC06310089510926310A0911911B0911A1121
S1131FD0E0911911F0911A112D913C91838D948DFA
S1131FE08217930758F06091191170911A1180911A
S1131FF0191190911A11635E7F4FB5D680916910C3
S1132000282F30E09BE0899FF0011124E555FF4E15
S1132010908191110EC04BE08150282F30E0429FF7
S1132020F001439FF00D1124E555FF4E9081992353
S113203099F39BE0929FA001939F500D1124DA0124
S1132040A555BF4E1196ED91FC9112970480F58130
S1132050E02D1296FC93EE93119742555F4EE417D0
S1132060F50729F444815581FD01528341839BE0A6
S1132070929FF001939FF00D1124E555FF4E0180CE
S1132080F281E02D2085318530931A1120931911A6
S1132090809369100895CF92DF92EF92FF926A01C4
S11320A07B016091191170911A11625F7F4F0E9438
S11320B07C0341E0C701B601BDDAFF90EF90DF90E9
S11320C0CF900895CF93DF93FC01CB01BA01A18196
S11320D0B281C0911911D0911A11BB8BAA8BC091F6
S11320E01911D0911A1116964D915C9117975D8B29
S11320F04C8B1696CD91DC91179740911911509104
S11321001A11425F5F4F5D834C83409119115091C6
S11321101A11425F5F4F17965C934E931697A091E6
S11321201911B0911A115996FC93EE935897308176
S11321303F5F3083222319F06FEF7FEFCB01422FF3
S113214079DADF91CF910895CF93DF93DC0117966D
S1132150ED91FC9118970084F185E02DA08DB18D4F
S1132160C289D389848995899F838E83C489D589BB
S1132170828993899D838C839F01225F3F4F1196AF
S11321808D919C9112978217930731F484899589D4
S113219012969C938E931197118E108E8C91815070
S11321A08C9380915A10811152C0A485B585C68143
S11321B0D781808591859F838E83C085D1858681D3
S11321C097819D838C839F012E5F3F4F11968D9144
S11321D09C9112978217930731F48085918512960A
S11321E09C938E931197158614868C9181508C93B1
S11321F0A28D809169108A1710F4A09369108BE066
S11322008A9FD0011124A555BF4E11960D90BC9103
S1132210A02DB783A68316964D915C91179751878D
S113222040871696CD91DC9117973D832C831796A2
S11322303C932E931697A28D8A9FD0011124A55505
S1132240BF4EB587A4878C918F5F8C931CC046E8E2
S113225050E1DA011196CD91DC911297D38BC28BA8
S11322608E819F81958B848B8E819F81DC01159655
S11322703C932E9314973F832E83518F408FDA0122
S11322808C918F5F8C93A0911911B0911A11928D3A
S11322905A968C91891720F481E08093631001C0D1
S11322A080E0DF91CF9108950FB6F8940F922091BA
S11322B06210FC01208340916A1050916B10609170
S11322C06C1070916D1041835283638374830F90FB
S11322D00FBE089520916210FC01208340916A1082
S11322E050916B1060916C1070916D10418352830A
S11322F0638374830895CF92DF92EF92FF920F93DA
S11323001F93CF93DF93FB010FB6F8940F92409184
S11323106A1050916B1060916C1070916D10008177
S11323201181228133810F3FAFEF1A072A073A0741
S113233079F1EC01C980DA80EB80FC80A091621015
S1132340B881BA1759F04C155D056E057F0530F05C
S1132350108211821282138281E01BC04C195D0924
S11323606E097F09401751076207730758F4041B6D
S1132370150B260B370B0083118322833383AADFCB
S113238080E007C0108211821282138281E001C0B2
S113239080E00F900FBEDF91CF911F910F91FF90BE
S11323A0EF90DF90CF90089581E0809363100895BB
S11323B08091191190911A110895809168108823C1
S11323C031F080915A10882321F080E0089581E053
S11323D0089582E008950F931F93CF93DF93FC0138
S11323E0892B09F449C086A5815086A7228D95A51D
S11323F0291709F443C0811143C0EF018F010E5F17
S11324001F4FC8010E94B903EDA5EA8F8AE090E04E
S1132410A0E0B0E08E1B9109A109B1098E879F87C6
S1132420A88BB98B809169108E1710F4E093691012
S11324308BE08E9FF0011124E555FF4E0180F2815F
S1132440E02DFF83EE832681378139872887A68193
S1132450B78115961C930E93149717830683EA8D00
S11324608E9FF0011124E555FF4EFD87EC87808196
S11324708F5F808381E005C080E003C080E001C0FD
S113248080E0DF91CF911F910F9108954F925F9259
S11324906F927F92AF92BF92CF92DF92EF92FF92B0
S11324A00F931F93CF93DF93280139010FB6F8944C
S11324B00F92E0911911F0911A11C82FD0E0EC0F8E
S11324C0FD1F83A9823071F1E0911911F0911A1165
S11324D0CE01880F991F880F991FE80FF91F87A550
S11324E090A9A1A9B2A940955095609570954823EB
S11324F059236A237B2347A750AB61AB72ABE091AE
S11325001911F0911A11EC0FFD1F81E083ABA11496
S1132510B104C104D10431F041E0C601B5018AD847
S11325200E9433040F900FBE0FB6F8940F92E1147B
S1132530F104A1F0E0911911F0911A11CE01880F64
S1132540991F880F991FE80FF91F87A590A9A1A9C2
S1132550B2A9F70180839183A283B383E091191117
S1132560F0911A11EC0FFD1F83A98230E9F4E09178
S11325701911F0911A11CE01880F991F880F991F14
S1132580E80FF91F87A590A9A1A9B2A94094509476
S113259060947094482259226A227B2247A650AA4A
S11325A061AA72AA81E001C080E0209119113091E2
S11325B01A11C20FD31F1BAA0F900FBEDF91CF9128
S11325C01F910F91FF90EF90DF90CF90BF90AF904D
S11325D07F906F905F904F9008958F929F92AF92EB
S11325E0BF92EF92FF920F93CF93DF93DC010FB66C
S11325F0F8940F92E114F10479F0FC0184E0689FEF
S1132600E00DF11D112487A490A8A1A8B2A8F70198
S113261080829182A282B38270E0FD01E60FF71FEF
S113262083A992E093AB0230F9F018F4013031F051
S113263049C0033069F10430B9F144C0660F771F13
S1132640660F771FFD01E60FF71F87A490A8A1A8C6
S1132650B2A8BA01A901482959296A297B2947A79F
S113266050AB61AB72AB2EC0660F771F660F771F3E
S1132670FD01E60FF71F47A550A961A972A94F5F95
S11326805F4F6F4F7F4F47A750AB61AB72AB1AC020
S1132690660F771F660F771FFD01E60FF71F27A749
S11326A030AB41AB52AB0EC0823009F479C0660F37
S11326B0771F660F771FFD01E60FF71F27A730ABC3
S11326C041AB52AB813009F06DC01C96ED91FC9189
S11326D01D971696CD91DC91179718968D919C9124
S11326E019979F838E831896CD91DC91199716962E
S11326F08D919C9117979D838C839D012E5F3F4FF5
S1132700818192818217930731F418968D919C915F
S11327101997928381831D961C921E921C97808127
S1132720815080835A96EC915A97809169108E1744
S113273010F4E09369108BE08E9FF0011124E555AD
S1132740FF4E0180F281E02D1796FC93EE931697CD
S11327504681578119965C934E931897C681D78109
S11327603D832C83378326835A96EC915A978E9F08
S1132770F0011124E555FF4E1D96FC93EE931C9732
S113278080818F5F8083E0911911F0911A115A961C
S11327909C91828D891740F40E94330481E005C026
S11327A080E003C081E001C081E00F900FBEDF91A3
S11327B0CF910F91FF90EF90BF90AF909F908F902B
S11327C008958F929F92AF92BF92CF92DF92EF9231
S11327D0FF920F93CF93DF93DC01E114F10479F0BE
S11327E0FC0184E0689FE00DF11D112487A490A8EA
S11327F0A1A8B2A8F70180829182A282B38270E07C
S1132800FD01E60FF71F83A992E093AB0230F9F0C4
S113281018F4013031F049C0033069F10430B9F1E2
S113282044C0660F771F660F771FFD01E60FF71F81
S113283087A490A8A1A8B2A8BA01A9014829592936
S11328406A297B2947A750AB61AB72AB2EC0660FD8
S1132850771F660F771FFD01E60FF71F47A550A9E5
S113286061A972A94F5F5F4F6F4F7F4F47A750AB6E
S113287061AB72AB1AC0660F771F660F771FFD013D
S1132880E60FF71F27A730AB41AB52AB0EC0823027
S113289009F4A4C0660F771F660F771FFD01E60FCA
S11328A0F71F27A730AB41AB52AB813009F098C07A
S11328B080915A1081115FC01C96ED91FC911D9777
S11328C01696CD91DC91179718968D919C91199736
S11328D09F838E831896CD91DC91199716968D91CE
S11328E09C9117979D838C839D012E5F3F4F81811F
S11328F092818217930731F418968D919C911997C0
S1132900928381831D961C921E921C978081815014
S113291080835A96EC915A97809169108E1710F41F
S1132920E09369108BE08E9FF0011124E555FF4E72
S11329300180F281E02D1796FC93EE931697468161
S1132940578119965C934E931897C681D7813D831E
S11329502C83378326835A96EC915A978E9FF001E5
S11329601124E555FF4E1D96FC93EE931C97808130
S11329708F5F808320C046E850E1FA01C181D28193
S11329805396DC93CE9352978E819F8155969C9358
S11329908E9354972E813F81CD010E96F901958334
S11329A084839F838E8359965C934E935897FA0140
S11329B080818F5F8083E0911911F0911A115A96EA
S11329C09C91828D891770F4C114D10419F081E0AF
S11329D0F601808381E08093631005C080E003C02A
S11329E081E001C081E0DF91CF910F91FF90EF90E2
S11329F0DF90CF90BF90AF909F908F9008950097F5
S1132A0021F48091191190911A110FB6F8940F9234
S1132A1070E0FC01E60FF71F23A9223031F4FC011A
S1132A20E60FF71F13AA81E001C080E00F900FBEEC
S1132A300895CF92DF92EF92FF920F931F93FC01C0
S1132A4042835383648375839387828704171507AE
S1132A5026073707C0F00C191D092E093F09868582
S1132A609785A089B189081719072A073B0700F53C
S1132A70BF016E5F7F4F80912311909124110E94BA
S1132A807C0380E018C00C151D052E053F0528F4B5
S1132A904C155D056E057F0568F4BF016E5F7F4FC1
S1132AA080912511909126110E947C0380E003C03F
S1132AB081E001C081E01F910F91FF90EF90DF90C2
S1132AC0CF9008950FB6F8940F92809121119091B0
S1132AD02211892BE9F482E391E10E94670387E2E2
S1132AE091E10E94670382E391E190932611809320
S1132AF0251187E291E1909324118093231140E002
S1132B0067E08AE00E940F069093221180932111BE
S1132B100F900FBE0895EF92FF920F93D3DF809131
S1132B20211190912211892B91F00F2EFFE1EF2EAC
S1132B30F1E1FF2EF02D03E020E030E040EC50E026
S1132B4062E472E082EB90E00E94BB0B01C080E083
S1132B500F91FF90EF9008958F929F92AF92BF9242
S1132B60CF92DF92EF92FF920F931F93CF93DF9355
S1132B70CDB7DEB727970FB6F894DEBF0FBECDBF33
S1132B80E0912111F0912211309781F169832A8318
S1132B903B834C835D839F838E836630F4F40DDC2A
S1132BA0823069F400E0A7019601BE016F5F7F4F98
S1132BB080912111909122110E94300618C000E0EA
S1132BC020E030E0A901BE016F5F7F4F80912111A9
S1132BD0909122110E9430060AC020E0A801BE0193
S1132BE06F5F7F4FCF010E94EB0601C080E0279604
S1132BF00FB6F894DEBF0FBECDBFDF91CF911F910A
S1132C000F91FF90EF90DF90CF90BF90AF909F9087
S1132C108F9008952F923F924F925F926F927F927E
S1132C208F929F92AF92BF92CF92DF92EF92FF92D8
S1132C300F931F93CF93DF931C010E94330D2B013D
S1132C403C0180911B1190911C11A0911D11B09118
S1132C501E11481659066A067B0608F053C03BC08D
S1132C600780F085E02D80809180A280B380C085AC
S1132C70D1858E010E5F1F4FC8010E94B903EC89F4
S1132C80FD89CE0119958E8982FF25C08E859F8589
S1132C90A889B989880D991DAA1DBB1D8816990696
S1132CA0AA06BB0670F48A839B83AC83BD83DB874F
S1132CB0CA87B80180912511909126110E947C0346
S1132CC00AC0C12CD12C760100E010E0A5019401CA
S1132CD060E0CE0141DFE0912511F0912611808161
S1132CE08111BECF809123119091241190932611CC
S1132CF080932511F0932411E093231181E0F101D5
S1132D00808302C0F101108240921B1150921C1169
S1132D1060921D1170921E11C301B201DF91CF9117
S1132D201F910F91FF90EF90DF90CF90BF90AF90E5
S1132D309F908F907F906F905F904F903F902F90D7
S1132D4008950895279A2F9A08951F9A0895FADFEF
S1132D502FEF80E792E0215080409040E1F700C0DF
S1132D600000F3DFF5CFEEDF2FEF87EA91E6215085
S1132D7080409040E1F700C00000E7DFF5CFCF933B
S1132D80DF9300D01F92CDB7DEB781E006D362E0B7
S1132D9070E080E090E0F5D880E0FFD266E970E072
S1132DA080E090E0EED8B2D281E00E94E02103D32B
S1132DB07FD59F938F938AE492E09F938F930E9491
S1132DC0142677D475D59F938F938DE592E09F93C6
S1132DD08F930E94142683E591E1FFD269D503E520
S1132DE011E11F930F939F938F9386E792E09F9334
S1132DF08F930E941426C8010CD35AD59F938F93A6
S1132E001F930F938AE892E09F938F930E94142656
S1132E10A8016FE972E082EC92E029D549D59F932D
S1132E208F931F930F938FE992E09F938F9382EC7C
S1132E3092E09F938F9382ED92E09F938F930E94F1
S1132E4014261AD335D59F938F9388E093E09F93EC
S1132E508F930E9414260FB6F894DEBF0FBECDBF29
S1132E6081E004D425D59F938F9387E193E09F93CA
S1132E708F930E94142684EF91E003D419D59F9375
S1132E808F9381E08F9384EF8F9388E393E09F93F4
S1132E908F930E9414260FB6F894DEBF0FBECDBFE9
S1132EA00AE010E00F2EF8E5EF2EF3E0FF2EF02DF0
S1132EB080E0E8D2D82EFCD49F938F931F930F9376
S1132EC0FF92EF920E9414260F900F900F900F9094
S1132ED00F900F90F8E0DF16B9F180E00E944422D1
S1132EE066E371E080E090E04CD80150110901F7ED
S1132EF024C00E943304FDCF48EA58E460E070E047
S1132F00CE0101960E94570FF80182829382A48217
S1132F10B582C682D78283E00E945622B80180E03F
S1132F20DAD2C6D49F938F93FF92EF920E94142615
S1132F300F900F900F900F90DFCF81E00E94352209
S1132F4080E00E940322D5CF81E00E942622EDE397
S1132F50F1E186E0818382E080830E94330D6983FE
S1132F607A838B839C830DE311E10F2EF0E38F2E84
S1132F70F02D0F2EF9E39F2EF02D6894AA24A1F8CA
S1132F800F2EF3EABF2EF02D6894CC24C2F80F2E36
S1132F90FAE1DF2EF02D0F2EF8E7EF2EF3E0FF2EEF
S1132FA0F02DAACFEF92FF920F93E12CF12C082F72
S1132FB020E030E048E851E06DE873E08FEB96E103
S1132FC00E94BB0B0F91FF90EF900895CF93DF9376
S1132FD000D01F92CDB7DEB70E94330D69837A8388
S1132FE08B839C8311E04FE150E060E070E0CE0100
S1132FF001960E94570F84E993E00E94272682B12C
S1133000812782B9F0CFCF93DF9300D01F92CDB741
S1133010DEB70E94330D69837A838B839C834EE3EE
S113302050E060E070E0CE0101960E94570F8AE9FB
S113303093E00E94272682B1805882B9F0CFEF92A4
S1133040FF920F938091F6129091F712892B89F4D5
S113305081E00E94D0069093F7128093F6120097B5
S113306041F000E020E030E0A90160E070E00E945F
S11330703006E12CF12C02E020E030E040EC50E09E
S113308064E973E086EE97E10E94BB0B01E020E067
S113309030E040EC50E06AE973E083E098E10E949C
S11330A0BB0B0F91FF90EF90089581B1816881B9B6
S11330B080E00E948B20C3DF85E00E94922160E0C3
S11330C070E081E02AD183E06DCF0895EEDF80EADD
S11330D093E00E9427260E94F50CFFCF0F931F93C5
S11330E0CF93DF931F921F92CDB7DEB78C01198265
S11330F02DC0E0911B12EC3250F481E08E0F8093CE
S11331001B12F0E0E35BFD4E8A81808302C01092C3
S11331101B128A818A30D1F440911B1250E0FA01CB
S1133120E55BFD4E1082415051099E012F5F3F4FD8
S11331306DE472E180911E1290911F120E94050AA3
S1133140898181110E94330410921B12BE016E5FAB
S11331507F4FC8014AD5882361F20F900F90DF9109
S1133160CF911F910F9108950F931F93CF93DF93E6
S11331708C01EB0180911E1290911F120E94FA089B
S1133180B80187EB91E10E94F525209779F0E7EBF0
S1133190F1E101900020E9F7319780E290E091831A
S11331A08083BE0187EB91E10E94EA25E7EBF1E120
S11331B0DF010D900020E9F711978DE09AE0119658
S11331C09C938E9312961C9201900020E9F73197FC
S11331D0E75BF141AE2F87EB91E1AC016A2F80915F
S11331E0201290912112ACD4811111C008E215E093
S11331F020E030E04DE250E067EA72E180911E1277
S113320090911F120E94490A87EA92E102C080E06D
S113321090E0DF91CF911F910F9108952F923F92EB
S11332204F925F926F927F928F929F92AF92BF92D2
S1133230CF92DF92EF92FF920F931F93CF93DF937E
S11332405C01FC0101900020E9F731976F01C81A75
S1133250D90A5C2C0F2EFBE48F2EF6E09F2EF02D66
S1133260E12CF12C4C2C3701F40101811281E8018D
S113327009900020E9F72197C01BD10B3C2EF9E0FF
S1133280CF16D10458F0F4012080FEE02F1206C0BE
S1133290B801C5010E94C525892B09F5442D3514B3
S11332A008F44C2F50E0B801C5010E94FC25892B7D
S11332B049F4F301EE0FFF1FE60DF71DE55BF94F2F
S11332C020800DC08FEFE81AF80AE3E08E0E911CFF
S11332D0F1E1EF16F10439F66894222424F8822DE2
S11332E0DF91CF911F910F91FF90EF90DF90CF90DE
S11332F0BF90AF909F908F907F906F905F904F9012
S11333003F902F90089530DF89CF089580911E1249
S113331090911F120C94FA0808958F929F92AF9285
S1133320CF92EF920F931F93CF93C82F8B0141E05D
S113333060E070E088EC90E00E94C50890931F1252
S113334080931E1210931D1200931C120F2EFEE682
S11333508F2EF8E19F2EF02D6894AA24A6F8689485
S1133360CC24C6F8E12C00E023E040E051EE60E01C
S113337070E08C2F1ED39093211280932012E7E0EB
S1133380F1E0808180618083CF911F910F91EF9054
S1133390CF90AF909F908F900895882331F0E8E00C
S11333A0F1E080818F7E80830895E8E0F1E0808100
S11333B080618083089560E070E081ED93E0D4DE65
S11333C0E7EAF2E101900020E9F73197E75AF24188
S11333D081E0759708F080E00895CF93DF93EC01C6
S11333E060E070E082EE93E0BFDEE7EAF2E1019094
S11333F00020E9F7E85BF24139F467EA72E1CE01B3
S11334000E94F52580E002C0188281E0DF91CF910F
S11334100895FC0101900020E9F79F012151310931
S11334202817390729F4BC0180E194E06CCF089592
S113343089E00895FC0101900020E9F79F012151E2
S113344031092817390729F4BC018FE194E05BCFD7
S1133450089589E00895FC0101900020E9F79F0197
S1133460215231092817390729F4BC018EE294E06E
S11334704ACF089589E0089560E070E08DE694E015
S113348042CF08950F931F93E82FF0E0EE0FFF1F34
S1133490E95BF94F6081718186E794E034DF811143
S11334A014C008E215E020E030E04DE250E067EAA5
S11334B072E180911E1290911F120E94490A882382
S11334C021F087EA92E1AADE03C087EA92E1A6DE50
S11334D01F910F9108950F931F93CF93DF931F9222
S11334E0CDB7DEB7DB0111969C911197953108F0A9
S11334F0B4C0992381F160E070E0272F30E0462FBB
S113350050E0FD01E40FF51F928192959F709A306F
S113351010F0995C01C0905DF901E85CFD4E908368
S11335202F5F3F4FFD01E40FF51F92819F70492FDC
S113353050E04A30510514F0995C01C0905DF901E6
S1133540E85CFD4E90837E5F6F5F11969C911197AE
S1133550691798F201C070E0E72FF0E0E85CFD4ED7
S113356010824C91811103C08FE794E002C081E87E
S113357094E028E332E13F932F931F924F939F935C
S11335808F9385E894E09F938F938AE792E19F93CA
S11335908F930E94572660E070E08AE792E1B3DEE1
S11335A00FB6F894DEBF0FBECDBF811159C008E23B
S11335B015E020E030E04DE250E067EA72E18091EE
S11335C01E1290911F120E94490A882309F447C0D1
S11335D087EA92E123DE8E3009F042C087E08983D6
S11335E080911C1290911D12892BA9F1BE016F5F6D
S11335F07F4F87EA92E168D180932212E981F0E05B
S1133600E955FD4EDF010D900020E9F71197AE1B3F
S1133610BF0BAA2391F0BB27CD0101979C0112F4A3
S11336202F5F3F4F3595279520932312AF014F5FAE
S11336305F4F64E184E292E173D101E010E020E0A5
S113364030E046E150E062E272E180911C12909118
S11336501D120E9446098EE003C084E101C080E08F
S11336600F90DF91CF911F910F910895813019F040
S113367065E974E002C06EE675E089E994E043CE42
S113368008959F938F938AEC94E09F938F938AE796
S113369092E19F938F930E94572660E070E08AE73F
S11336A092E131DE0F900F900F900F900F900F90DA
S11336B008952F923F924F925F926F927F928F92D2
S11336C09F92AF92BF92CF92DF92EF92FF920F93AD
S11336D01F93CF93DF93CDB7DEB7A0970FB6F894BF
S11336E0DEBF0FBECDBF67EF74E083E095E03CDD45
S11336F095DD8111A3C080E2EDE1F2E0DE011196D7
S113370001900D928A95E1F79E012F5F3F4F690169
S1133710E12CF12C0F2EFFE0AF2EF5E0BF2EF02DA3
S11337200AE712E10F2EF8E24F2EF5E05F2EF02D9E
S11337300F2EFFE38F2EF5E09F2EF02D0F2EF9E5CF
S11337406F2EF5E07F2EF02D3E2C2F2CFF92EF9262
S1133750BF92AF921F930F930E94572660E070E0D0
S1133760C80102DD5BDD0F900F900F900F900F905A
S11337700F90811163C032E03E15E8F4F6018381B5
S11337808F9382818F9381818F9380818F93FF9216
S1133790EF925F924F921F930F930E94572660E01F
S11337A070E0C801E1DC3ADD0FB6F894DEBF0FBE6D
S11337B0CDBF811143C02F923F929F928F921F934E
S11337C00F930E94572660E070E0C801CDDC26DD2F
S11337D00F900F900F900F900F900F9081112EC0AB
S11337E02F923F927F926F921F930F930E945726BE
S11337F060E070E0C801B8DC11DD0F900F900F900D
S11338000F900F900F90811119C03FEFE31AF30A44
S113381084E0C80ED11C98E0E916F10409F094CFB5
S113382060E070E081E795E09FDCF8DC811106C080
S113383060E070E082E895E097DCF0DCA0960FB6DB
S1133840F894DEBF0FBECDBFDF91CF911F910F91D2
S1133850FF90EF90DF90CF90BF90AF909F908F90AC
S11338607F906F905F904F903F902F900895EF92CC
S1133870FF920F931F93CF93DF93EC018B017A0197
S113388081E0F4DE81110DC0CE01D4DD811109C0C7
S1133890C801E1DD811105C0C701BBDD811101C093
S11338A0EBDDDF91CF911F910F91FF90EF90089581
S11338B090E0FC01EE0FFF1F8E0F9F1FFC01E55BE4
S11338C0F94F818192810895DC01009729F1FB0170
S11338D02081FC0101900020E9F73197E81BF90BE6
S11338E0822F90E0E817F907C8F080E008C0880F3D
S11338F0382F330F330F830F8053890F2F5FFD0150
S1133900E20FF11D908130ED390F3A3010F491112E
S1133910EECFFB012083089580E0089580E00895B0
S11339200F931F93CF93DF93DC01EA012097E1F11A
S1133930FA0101900020E9F73197E41BF50B329767
S113394010F532C08D01040F151F30E0AE01420F97
S1133950531FFA019081913428F09753592F5295AF
S1133960507F03C0592F5295507F2C0F3D1FF901F2
S11339709181913410F0975301C09053950FF80141
S113398090838F5F01C080E0282F220F482F50E0E2
S1133990FE0101900020E9F73197EC1BFD0B4E1757
S11339A05F0710F48613CECFDF91CF911F910F9153
S11339B008952F923F924F925F926F927F928F92CF
S11339C09F92AF92CF92EF92FF920F931F93CF9358
S11339D0DF93CDB7DEB7F82E2A013B0188E090E0F3
S11339E09FD78C018F2D90E0FC01EE0FFF1FEC524E
S11339F0FD4E118300830115110509F464C0880F7D
S1133A00991FFC01E95FFD4F80819181D8018D935D
S1133A109C936C2D70E084E090E068D71C0161E019
S1133A2070E086E090E062D77C014C2DB10150D566
S1133A30F801F582E4826A2D70E084E090E056D7C4
S1133A401C0161E070E086E090E050D77C014A2DD3
S1133A50B1013ED5D8011396FC92EE9212971796B7
S1133A609C928E921697FFB6F894ED91FC91119763
S1133A7036978081826080838D909C90C301B201CF
S1133A803CD620E030E040E051E4C5D69B01AC01D7
S1133A9060E074E284E79BE49CD520E030E040E8F9
S1133AA05FE332D5FED5F40132976083D801ED91FE
S1133AB0FC911197359788E98083ED91FC913497B7
S1133AC086E08083FFBEC801DF91CF911F910F91E3
S1133AD0FF90EF90CF90AF909F908F907F906F90DA
S1133AE05F904F903F902F900895CF93DF93DC0128
S1133AF0892B01F11296ED91FC91139793818281A8
S1133B002581981B922384819817B1F0838126958F
S1133B102823C081D181C20FD11D68838F5F958115
S1133B2089238383ED91FC91359780818062808322
S1133B3080E003C081E001C082E0DF91CF9108956D
S1133B40EF92FF920F931F93CF93DF937C01009723
S1133B5009F441C0DC011296ED91FC911397938115
S1133B608281981B858198238481891B8617A8F1FB
S1133B70662341F1842F952FDC016150462F50E0DC
S1133B804F5F5F4F480F591FE701EA81FB81938123
S1133B9082812581981B92238481981779F08C91D6
S1133BA0938126952923608171818B01020F111D58
S1133BB0E80188839F5F8581982393831196A417D6
S1133BC0B50711F7D701ED91FC913597808180629B
S1133BD0808380E003C081E001C082E0DF91CF9167
S1133BE01F910F91FF90EF9008950097D1F0DC01A1
S1133BF01496ED91FC91159793818281981799F011
S1133C009281858186958923A081B181A80FB11DF8
S1133C108C91DB018C939F5F85819823928380E054
S1133C20089581E0089583E008951F920F920FB6DE
S1133C300F9211240BB60F922F933F934F935F93E0
S1133C406F937F938F939F93AF93BF93CF93DF93A0
S1133C50EF93FF93A091D412B091D512109711F164
S1133C606091C6001496ED91FC9115979381828121
S1133C702581981B92238481981761F0838126956E
S1133C802823C081D181C20FD11D68838F5F9581A4
S1133C90892383831696ED91FC911797309711F041
S1133CA0CD011995FF91EF91DF91CF91BF91AF9124
S1133CB09F918F917F916F915F914F913F912F9140
S1133CC00F900BBE0F900FBE0F901F9018951F9270
S1133CD00F920FB60F9211240BB60F922F938F935E
S1133CE09F93AF93BF93EF93FF93E091D412F0911E
S1133CF0D5123097B9F00280F381E02D938182814F
S1133D009817B1F092818581282F26952923A081C7
S1133D10B181A20FB11D2C919F5F892382832093CF
S1133D20C6000BC0E1ECF0E080818F7D808305C08C
S1133D30E1ECF0E080818F7D8083FF91EF91BF9172
S1133D40AF919F918F912F910F900BBE0F900FBE4B
S1133D500F901F9018951F920F920FB60F92112477
S1133D600BB60F922F933F934F935F936F937F9371
S1133D708F939F93AF93BF93CF93DF93EF93FF936F
S1133D80A091D612B091D712109711F16091CE0084
S1133D901496ED91FC911597938182812581981B4E
S1133DA092238481981761F0838126952823C0810A
S1133DB0D181C20FD11D68838F5F9581892383834D
S1133DC01696ED91FC911797309711F0CD01199546
S1133DD0FF91EF91DF91CF91BF91AF919F918F911F
S1133DE07F916F915F914F913F912F910F900BBEF7
S1133DF00F900FBE0F901F9018951F920F920FB641
S1133E000F9211240BB60F922F938F939F93AF931E
S1133E10BF93EF93FF93E091D612F091D7123097AE
S1133E20B9F00280F381E02D938182819817B1F07B
S1133E3092818581282F26952923A081B181A20F03
S1133E40B11D2C919F5F892382832093CE000BC0E8
S1133E50E9ECF0E080818F7D808305C0E9ECF0E03F
S1133E6080818F7D8083FF91EF91BF91AF919F916E
S1133E708F912F910F900BBE0F900FBE0F901F903C
S1133E8018951F920F920FB60F9211240BB60F9232
S1133E902F933F934F935F936F937F938F939F934E
S1133EA0AF93BF93CF93DF93EF93FF93A091D81277
S1133EB0B091D912109711F16091D6001496ED913A
S1133EC0FC911597938182812581981B922384818B
S1133ED0981761F0838126952823C081D181C20F70
S1133EE0D11D68838F5F9581892383831696ED9115
S1133EF0FC911797309711F0CD011995FF91EF912F
S1133F00DF91CF91BF91AF919F918F917F916F91ED
S1133F105F914F913F912F910F900BBE0F900FBE69
S1133F200F901F9018951F920F920FB60F921124A5
S1133F300BB60F922F938F939F93AF93BF93EF93EF
S1133F40FF93E091D812F091D9123097B9F0028022
S1133F50F381E02D938182819817B1F0928185815C
S1133F60282F26952923A081B181A20FB11D2C9160
S1133F709F5F892382832093D6000BC0E1EDF0E09C
S1133F8080818F7D808305C0E1EDF0E080818F7DAD
S1133F908083FF91EF91BF91AF919F918F912F916A
S1133FA00F900BBE0F900FBE0F901F9018951F928D
S1133FB00F920FB60F9211240BB60F922F933F93CB
S1133FC04F935F936F937F938F939F93AF93BF931D
S1133FD0CF93DF93EF93FF93A091DA12B091DB12AA
S1133FE0109711F1609136011496ED91FC9115979B
S1133FF0938182812581981B92238481981761F093
S1134000838126952823C081D181C20FD11D688365
S11340108F5F9581892383831696ED91FC91179781
S1134020309711F0CD011995FF91EF91DF91CF9168
S1134030BF91AF919F918F917F916F915F914F91BC
S11340403F912F910F900BBE0F900FBE0F901F90BA
S113405018951F920F920FB60F9211240BB60F9260
S11340602F938F939F93AF93BF93EF93FF93E0911D
S1134070DA12F091DB123097B9F00280F381E02D6F
S1134080938182819817B1F092818581282F26959A
S11340902923A081B181A20FB11D2C919F5F892397
S11340A08283209336010BC0E1E3F1E080818F7DB0
S11340B0808305C0E1E3F1E080818F7D8083FF91FF
S11340C0EF91BF91AF919F918F912F910F900BBE64
S11340D00F900FBE0F901F901895CF93DF931F92F0
S11340E0CDB7DEB7BE016F5F7F4F8091DC12909138
S11340F0DD127BDD8111F6CF898190E00F90DF9195
S1134100CF910895682F8091DC129091DD12EDDC3F
S113411080E090E008958F929F92AF92CF92EF92B9
S11341200F93812C912C6894AA24A7F86894CC242A
S1134130C7F8E12C00E023E040E051EE60E070E0DD
S113414038DC9093DD128093DC12ECEFF2E18FE027
S113415092E091838083938382830F91EF90CF9039
S1134160AF909F908F90089590E0FC01EE0FFF1F99
S1134170E80FF91FEE0FFF1FE252FD4E23812111BC
S11341801FC09C01220F331FF901E80FF91FEE0F26
S1134190FF1FE252FD4EA081B1814C91F901E80F5D
S11341A0F91FEE0FFF1FE252FD4E81E090E0028006
S11341B002C0880F991F0A94E2F7842B8C93089508
S11341C0FC01EE0FFF1FDF01A80FB91FAA0FBB1FD1
S11341D0A252BD4E0D90BC91A02D2C91E80FF91F59
S11341E0EE0FFF1FE252FD4E81E090E0028002C01C
S11341F0880F991F0A94E2F7809582238C9308957F
S113420090E0FC01EE0FFF1FE80FF91FEE0FFF1FF8
S1134210E252FD4E2381211120C09C01220F331F45
S1134220F901E80FF91FEE0FFF1FE252FD4EA081C6
S1134230B1814C91F901E80FF91FEE0FFF1FE25213
S1134240FD4E81E090E0028002C0880F991F0A941D
S1134250E2F7809584238C930895FC01EE0FFF1FF1
S1134260DF01A80FB91FAA0FBB1FA252BD4E0D90AC
S1134270BC91A02D2C91E80FF91FEE0FFF1FE25205
S1134280FD4E81E090E0028002C0880F991F0A94DD
S1134290E2F7822B8C930895CC24C394D12C689498
S11342A0BB24B2F8CEEDD2E110E08C81813081F0F4
S11342B018F1823061F5E881F9812081C6010A8014
S11342C002C0880F991F0A94E2F7822780831FC0D7
S11342D08D818F5F8A3010F48D8319C01D82E8812F
S11342E0F9812081C6010A8002C0880F991F0A94AF
S11342F0E2F7822780830BC00D81002329F0812FF0
S11343007FDF01500D8303C0BC82812F2DDF1F5F2F
S11343102696143051F665E070E080E090E00E944B
S1134320C10FC0CFEF92FF920F931F93CF93DF93F0
S1134330082F80E487B9CEEDD2E10F2EF8E2EF2EFC
S1134340F12CF02DF982E88286E08A831B8214E046
S11343501C8380E009DF80E887B9FF82EE8287E072
S1134360888719861A8781E0FFDE80E283BB84E3B5
S113437090E09D878C8785E08E871F86188B82E06E
S1134380F3DE80E18093010182E091E09B8B8A8BD4
S11343901C8B1D8A1E8B83E0E7DEE12CF12C20E0D0
S11343A030E040EC50E06EE776E08CE491E20E946D
S11343B0BB0BDF91CF911F910F91FF90EF90089568
S11343C0CF93DF9390E0FC01EE0FFF1FDF01A80FF6
S11343D0B91FAA0FBB1FA252BD4ECD91DC911197FC
S11343E0488121E030E012960C90129702C0220F0F
S11343F0331F0A94E2F724272883FD0181E0848394
S1134400DF91CF910895CF93DF9390E0FC01EE0FFD
S1134410FF1FDF01A80FB91FAA0FBB1FA252BD4E79
S1134420CD91DC911197488121E030E012960C90F7
S1134430129702C0220F331F0A94E2F7242728831D
S1134440FD0182E08483DF91CF910895282F30E02D
S1134450F901EE0FFF1FE20FF31FEE0FFF1FE252F1
S1134460FD4E93E09483CCCE0895282F30E0F901DB
S1134470EE0FFF1FE20FF31FEE0FFF1FE252FD4E80
S113448094E0948371CE089590E0FC01EE0FFF1F39
S1134490DF01A80FB91FAA0FBB1FA252BD4E24E013
S11344A015962C931597FD011482089590E0FC0154
S11344B0EE0FFF1FDF01A80FB91FAA0FBB1FA252E7
S11344C0BD4E21E015962C931597FD011482089595
S11344D0FC01411101C045D3842F90E09C0121507F
S11344E0310982239323892B09F03BD3413808F007
S11344F038D3128213824483440F4150458371831D
S1134500608380E090E008955058BB27AA270ED01E
S113451048C139D130F03ED120F031F49F3F11F43D
S11345201EF42EC10EF4E095E7FB24C1E92F4AD115
S113453080F3BA17620773078407950718F071F4BC
S11345409EF562C10EF4E0950B2EBA2FA02D0B013F
S1134550B90190010C01CA01A0011124FF27591BC4
S113456099F0593F50F4503E68F11A16F040A22FCA
S1134570232F342F4427585FF3CF4695379527953B
S1134580A795F0405395C9F77EF41F16BA0B620B3A
S1134590730B840BBAF09150A1F0FF0FBB1F661F81
S11345A0771F881FC2F70EC0BA0F621F731F841FC4
S11345B048F4879577956795B795F7959E3F08F0EA
S11345C0B3CF9395880F08F09927EE0F97958795A9
S11345D008950CD0E6C0DED040F0D5D030F021F400
S11345E05F3F19F0C7C0511110C1CAC0EBD098F396
S11345F09923C9F35523B1F3951B550BBB27AA2760
S113460062177307840738F09F5F5F4F220F331FD1
S1134610441FAA1FA9F333D00E2E3AF0E0E830D09D
S113462091505040E695001CCAF729D0FE2F27D0A0
S1134630660F771F881FBB1F261737074807AB076E
S1134640B0E809F0BB0B802DBF01FF2793585F4FE3
S11346502AF09E3F510568F08DC0D7C05F3FECF350
S1134660983EDCF3869577956795B795F7959F5FA8
S1134670C9F7880F911D9695879597F90895E1E0FC
S1134680660F771F881FBB1F621773078407BA075B
S113469020F0621B730B840BBA0BEE1F88F7E095B6
S11346A0089598D088F09F5790F0B92F9927B75163
S11346B0A0F0D1F0660F771F881F991F1AF0BA95E2
S11346C0C9F712C0B13081F09FD0B1E008959CC009
S11346D0672F782F8827B85F39F0B93FCCF38695D8
S11346E077956795B395D9F73EF490958095709535
S11346F061957F4F8F4F9F4F0895E89409C097FBB2
S11347003EF490958095709561957F4F8F4F9F4FA4
S11347109923A9F0F92F96E9BB279395F6958795E8
S113472077956795B795F111F8CFFAF4BB0F11F4AB
S113473060FF1BC06F5F7F4F8F4F9F4F16C0882352
S113474011F096E911C0772321F09EE8872F762F88
S113475005C0662371F096E8862F70E060E02AF0C9
S11347609A95660F771F881FDAF7880F96958795B5
S113477097F9089597F99F6780E870E060E00895DD
S11347809FEF80EC089500240A9416161706180665
S11347900906089500240A94121613061406050641
S11347A00895092E0394000C11F4882352F0BB0FD2
S11347B040F4BF2B11F460FF04C06F5F7F4F8F4F35
S11347C09F4F089557FD9058440F551F59F05F3F70
S11347D071F04795880F97FB991F61F09F3F79F01F
S11347E087950895121613061406551FF2CF4695A1
S11347F0F1DF08C0161617061806991FF1CF869523
S11348007105610508940895E894BB276627772706
S1134810CB0197F908950BD0C4CFB5DF28F0BADFE8
S113482018F0952309F0A6CFABCF1124EECFCADF41
S1134830A0F3959FD1F3950F50E0551F629FF001AF
S1134840729FBB27F00DB11D639FAA27F00DB11D08
S1134850AA1F649F6627B00DA11D661F829F222791
S1134860B00DA11D621F739FB00DA11D621F839F18
S1134870A00D611D221F749F3327A00D611D231FEE
S1134880849F600D211D822F762F6A2F11249F573C
S113489050408AF0E1F088234AF0EE0FFF1FBB1F5F
S11348A0661F771F881F91505040A9F79E3F5105FE
S11348B070F060CFAACF5F3FECF3983EDCF38695AF
S11348C077956795B795F795E7959F5FC1F7FE2BA9
S11348D0880F911D9695879597F90895EE0FFF1F00
S11348E0881F8BBF0790F691E02D19940F931F93A7
S11348F0CF93DF93869F8001879F100D969F100DA5
S11349001124C8010DD0EC01009721F0A80160E04A
S113491070E034D1CE01DF91CF911F910F910895B2
S11349200F931F93CF93DF938230910510F482E0AD
S113493090E0E091FA12F091FB1220E030E0A0E068
S1134940B0E0309719F140815181028113814817F9
S11349505907C8F08417950769F4109731F0129637
S11349600C93129713961C9327C00093FA1210937A
S1134970FB1222C02115310519F04217530718F410
S11349809A01BD01EF01DF01F801DBCF21153105EB
S1134990F9F0281B390B2430310580F48A819B817E
S11349A06115710521F0FB019383828304C0909308
S11349B0FB128093FA12FE01329644C0FE01E20F0C
S11349C0F31F8193919322503109398328833AC08C
S11349D02091F8123091F912232B41F42091020214
S11349E0309103023093F9122093F81220910002BF
S11349F0309101022115310541F42DB73EB74091A4
S1134A00040250910502241B350BE091F812F09139
S1134A10F912E217F307A0F42E1B3F0B28173907EE
S1134A2078F0AC014E5F5F4F2417350748F04E0F06
S1134A305F1F5093F9124093F8128193919302C02F
S1134A40E0E0F0E0CF01DF91CF911F910F91089545
S1134A50CF93DF93009709F481C0FC01329713824E
S1134A601282A091FA12B091FB12109781F4208166
S1134A703181820F931F2091F8123091F912281777
S1134A80390751F5F093F912E093F81267C0ED017C
S1134A9020E030E0CE17DF0740F44A815B819E01BD
S1134AA041155105F1F0EA01F5CFD383C28340816A
S1134AB05181840F951FC817D90759F488819981AA
S1134AC0840F951F0296918380838A819B819383AF
S1134AD082832115310529F4F093FB12E093FA1235
S1134AE03DC0E901FB83EA8349915991C40FD51F65
S1134AF0EC17FD0761F480819181840F951F029664
S1134B00E90199838883828193819B838A83E0E08E
S1134B10F0E012968D919C911397009719F0FD0186
S1134B20DC01F7CF8D919C9111979D012E5F3F4F32
S1134B30820F931F2091F8123091F9122817390728
S1134B4069F4309729F41092FB121092FA1202C001
S1134B5013821282B093F912A093F812DF91CF91CD
S1134B60089581E090E0F8947DC3FB01DC0102C06C
S1134B7001900D9241505040D8F70895DC0101C0D6
S1134B806D9341505040E0F70895FB015191552336
S1134B90B1F0BF01DC01052E4D91442369F010D022
S1134BA0D9F7CD010190002049F04D91411108D071
S1134BB0C9F3FB014111EECF81E090E00197089524
S1134BC0402539F0403229F440294B57465E08F01D
S1134BD018940895FB01DC010D900020E9F711976A
S1134BE001900D920020E1F70895FB01DC01019092
S1134BF00D920020E1F70895FB01DC014150504083
S1134C0088F08D9181341CF08B350CF4805E6191B9
S1134C1061341CF06B350CF4605E861B611171F31A
S1134C20990B0895881BFCCFCF93DF93CDB7DEB7E4
S1134C30AE014A5F5F4FFA0161917191AF018091BA
S1134C40FE129091FF1261D0DF91CF9108950F93DE
S1134C501F93CF93DF93E091FE12F091FF12238113
S1134C6021FF1BC08C01D0E0C0E0F80181918F01CD
S1134C706091FE127091FF12DB011896ED91FC9188
S1134C801997882331F01995892B79F3DFEFCFEF4A
S1134C90ECCF8AE01995892B19F08FEF9FEF02C0B2
S1134CA08D2F9C2FDF91CF911F910F9108950F931A
S1134CB01F93CF93DF93CDB7DEB72E970FB6F8943B
S1134CC0DEBF0FBECDBF0E891F8986E08C831A8399
S1134CD009838FEF9FE79E838D83AE01465E5F4F0E
S1134CE0688D798DCE01019610D0EF81F885E00FA3
S1134CF0F11F10822E960FB6F894DEBF0FBECDBF03
S1134D00DF91CF911F910F9108952F923F924F926F
S1134D105F926F927F928F929F92AF92BF92CF9247
S1134D20DF92EF92FF920F931F93CF93DF93CDB750
S1134D30DEB72B970FB6F894DEBF0FBECDBF6C0164
S1134D407B018A01FC0117821682838181FFBFC126
S1134D50CE0101963C01F6019381F70193FD859103
S1134D6093FF81917F01882309F4ADC1853239F421
S1134D7093FD859193FF81917F01853221F4B601E2
S1134D8090E0D6D1E8CF912C212C312CFFE1F31502
S1134D90D8F08B3279F038F4803279F08332A1F490
S1134DA0232D20611DC08D3261F0803369F4232DE1
S1134DB0216016C0832D8260382EE32DE4603E2EE0
S1134DC02AC0F32DF8601DC037FC2DC020ED280F3C
S1134DD02A3040F08E32B9F436FC75C1232D20649C
S1134DE0322E19C036FE06C08AE0989E200D11248A
S1134DF0922E11C0EAE02E9E200D1124222EF32DB6
S1134E00F0623F2E08C08C3621F4832D8068382E42
S1134E1002C0883641F4F70193FD859193FF819197
S1134E207F018111B3CF982F9F7D9554933028F43F
S1134E300C5F1F4F9FE399830DC0833631F0833796
S1134E4071F0833509F055C020C0F8018081898351
S1134E500E5F1F4F88248394912C530112C02801A4
S1134E60F2E04F0E511CF801A080B18036FE03C061
S1134E70692D70E002C06FEF7FEFC5014ED14C0188
S1134E808201F32DFF773F2E15C0280122E0420E48
S1134E90511CF801A080B18036FE03C0692D70E07A
S1134EA002C06FEF7FEFC5012DD14C01F32DF068E7
S1134EB03F2E820133FC19C0822D90E0881699069A
S1134EC0A0F4B60180E290E033D12A94F5CFF50145
S1134ED037FC859137FE81915F01B60190E028D1BE
S1134EE021102A9421E0821A91088114910479F7FF
S1134EF0E1C0843611F0893639F5F80137FE07C070
S1134F0060817181828193810C5F1F4F08C0608131
S1134F107181072E000C880B990B0E5F1F4FF32D28
S1134F20FF763F2E97FF09C0909580957095619507
S1134F307F4F8F4F9F4FF0683F2E2AE030E0A30150
S1134F4033D1882E861844C0853731F4232D2F7E23
S1134F50B22E2AE030E025C0932D997FB92E8F36EA
S1134F60C1F018F4883579F0AEC0803719F088376D
S1134F7021F0A9C0E92FE061BE2EB4FE0DC0FB2DC7
S1134F80F460BF2E09C034FE0AC0292F2660B22E59
S1134F9006C028E030E005C020E130E002C020E196
S1134FA032E0F801B7FE07C060817181828193818C
S1134FB00C5F1F4F06C06081718180E090E00E5F3E
S1134FC01F4FA301F1D0882E8618FB2DFF773F2EAB
S1134FD036FE0DC0232D2E7FA22E891458F434FEE4
S1134FE00BC032FC09C0832D8E7EA82E05C0B82CC0
S1134FF0A32C03C0B82C01C0B92CA4FE0FC0FE0121
S1135000E80DF11D8081803321F49A2D997EA92E1B
S113501009C0A2FE06C0B394B39404C08A2D867856
S113502009F0B394A3FC10C0A0FE06C0B21480F42F
S1135030280C922C9B180DC0B21458F4B60180E2CF
S113504090E076D0B394F8CFB21418F42B1802C0C1
S1135050982C212CA4FE0FC0B60180E390E068D008
S1135060A2FE16C0A1FC03C088E790E002C088E558
S113507090E0B6010CC08A2D867851F0A1FE02C0E2
S11350808BE201C080E2A7FC8DE2B60190E050D033
S1135090891430F4B60180E390E04AD09A94F8CFB2
S11350A08A94F301E80DF11D8081B60190E040D0AF
S11350B08110F6CF222009F44ECEB60180E290E0B2
S11350C037D02A94F7CFF6018681978102C08FEFFB
S11350D09FEF2B960FB6F894DEBF0FBECDBFDF91C6
S11350E0CF911F910F91FF90EF90DF90CF90BF90E1
S11350F0AF909F908F907F906F905F904F903F9074
S11351002F900895FC010590615070400110D8F76C
S1135110809590958E0F9F1F0895FC0161507040FB
S113512001900110D8F7809590958E0F9F1F0895D8
S11351300F931F93CF93DF93FB01238121FD03C0C2
S11351408FEF9FEF2CC022FF16C046815781248128
S113515035814217530744F4A081B1819D012F5F2B
S11351603F4F318320838C93268137812F5F3F4FBC
S11351703783268314C08B01EC01FB010084F18585
S1135180E02D1995892BE1F6D80116968D919C9105
S11351901797019617969C938E931697CE01DF91DD
S11351A0CF911F910F910895FA01AA27283051F148
S11351B0203181F1E8946F936E7F6E5F7F4F8F4F44
S11351C09F4FAF4FB1E03ED0B4E03CD0670F781FA3
S11351D0891F9A1FA11D680F791F8A1F911DA11D88
S11351E06A0F711D811D911DA11D20D009F46894C1
S11351F03F912AE0269F11243019305D3193DEF669
S1135200CF010895462F4770405D4193B3E00FD01E
S1135210C9F7F6CF462F4F70405D4A3318F0495D09
S113522031FD4052419302D0A9F7EACFB4E0A695EC
S11352309795879577956795BA95C9F7009761050E
S1135240710508959B01AC010A2E06945795479564
S113525037952795BA95C9F7620F731F841F951F59
S10B5260A01D0895F894FFCF8E
S113526800000213200009C600CE00D60036010053
S11352780000030000000082206D200000A027BE6B
S113528833E034C1332042C43360E5AE33A0F2B115
S113529833E0FFB433200DB833601ABB3349444CB0
S11352A84500546D722053766300466163746F72CF
S11352B8795265736574203E25733C0A00436F6E0A
S11352C866696775726520746F20455538363820CD
S11352D83E25733C0A0047657420485745554920C4
S11352E83E25733C3A2025730A00536574204465AF
S11352F8764555493A202573203E25733C0A0059C2
S11353085959595959595959595959595959595901
S113531859595959595959595959595959595959F1
S11353285900585858585858585858585858585848
S11353385800536574204F544141204964656E7484
S1135348697479206170704555493A2573206170F4
S1135358704B45593A2573206465764555493A2575
S113536873203E25733C0A0053617665206D6163A2
S1135378203E25733C0A00536574204164617074AF
S1135388697665204461746120526174653A204FDE
S11353984E203E25733C0A005365742052656365AC
S11353A8697665722044656C61793A202564206DBC
S11353B873203E25733C0A004A6F696E204E65745B
S11353C8776F726B2054726965734C6566743A25FD
S11353D864203E25733C0A0055706C6F6164204D4F
S11353E8657373616765203E25733C0A004C524817
S11353F8616E64005461736B31005461736B3200E5
S113540850726F6772616D205374617274656421A0
S11354182100737973207265736574006D6163206C
S11354287061757365006D616320726573756D6570
S11354380073797320666163746F727952455345BA
S113544854007379732067657420687765756900FB
S11354586D6163206765742067776E62006D6163B0
S113546820736574206C696E6B63686B2025640017
S11354786D61632073657420646576657569006D74
S113548861632073657420617070657569006D616E
S11354986320736574206170706B6579006D616356
S11354A820736574206E776B736B6579006D616327
S11354B82073657420617070736B6579006D616326
S11354C8207365742064657661646472006D616339
S11354D82073617665006D6163206A6F696E00757B
S11354E86E636E66006D61632074782025732025D1
S11354F864202573006F6666006D616320736574AC
S113550820616472006D6163206765742061647250
S1135518006D616320736574206472202564006DD6
S1135528616320676574206472006D61632073652C
S11355387420727864656C617931202564006D612A
S11355486320736574206172202573006D61632084
S11355586765742061720033203836393532353046
S11355683030006D61632073657420727832006D89
S113557861632073657420636820646379636C6570
S113558820256420373939006D61632073657420E0
S11355986368206672657120256420256C75006D2A
S11355A861632073657420636820647272616E6736
S11355B86520256420302037006D6163207365748D
S11355C820636820737461747573202564206F6E7A
S11355D8006D616320736574207077726964782044
S11355E831006D61632073657420726574782037A7
S11355F8006F74616100616270004B4559535F4EDE
S11356084F545F494E4954004E4F5F465245455FDB
S113561843480053494C454E540042555359004D94
S113562841435F5041555345440044454E49454420
S113563800414343455054454400494E56414C4962
S1135648445F504152414D004E4F545F4A4F494EBA
S1135658454400494E56414C49445F444154415FD6
S11356684C454E004652414D455F434F554E5445B7
S1135678525F4552525F52454A4F494E5F4E454527
S1135688444544004D41435F54585F4F4B004D41DE
S1135698435F5258004D41435F4552524F520055A3
S11356A84E4B4E4F574E0091059605002B06013977
S11356B806029A0503A80504B30505BA0506BF053D
S11356C807CA0508D10509DA050AE8050BF3050C2C
S11356D804060D24060E2E060F3506103F06484113
S10956E84C5F4C45440038
S9030000FC
